{"abi":[{"inputs":[],"name":"AddressAlreadyAssigned","type":"error"},{"inputs":[],"name":"ApprovalCallerNotOwnerNorApproved","type":"error"},{"inputs":[],"name":"ApprovalQueryForNonexistentToken","type":"error"},{"inputs":[],"name":"ApprovalToCurrentOwner","type":"error"},{"inputs":[],"name":"ApproveToCaller","type":"error"},{"inputs":[],"name":"BalanceQueryForZeroAddress","type":"error"},{"inputs":[],"name":"ExceedsMaxTransactionMints","type":"error"},{"inputs":[],"name":"ExceedsMaxWhitelistMints","type":"error"},{"inputs":[],"name":"InvalidMintSize","type":"error"},{"inputs":[],"name":"InvalidShares","type":"error"},{"inputs":[],"name":"MintToZeroAddress","type":"error"},{"inputs":[],"name":"MintZeroQuantity","type":"error"},{"inputs":[],"name":"MintingActive","type":"error"},{"inputs":[],"name":"MintingNotActive","type":"error"},{"inputs":[],"name":"NonExistentToken","type":"error"},{"inputs":[],"name":"NotEnoughWhitelistSlots","type":"error"},{"inputs":[],"name":"NotWhitelisted","type":"error"},{"inputs":[],"name":"OwnerQueryForNonexistentToken","type":"error"},{"inputs":[],"name":"SharesToZeroAddress","type":"error"},{"inputs":[],"name":"TransferCallerNotOwnerNorApproved","type":"error"},{"inputs":[],"name":"TransferFromIncorrectOwner","type":"error"},{"inputs":[],"name":"TransferToNonERC721ReceiverImplementer","type":"error"},{"inputs":[],"name":"TransferToZeroAddress","type":"error"},{"inputs":[],"name":"WhitelistNotRequired","type":"error"},{"inputs":[],"name":"WhitelistRequired","type":"error"},{"inputs":[],"name":"WouldExceedMintSize","type":"error"},{"inputs":[],"name":"WrongPayment","type":"error"},{"inputs":[],"name":"ZeroBalance","type":"error"},{"anonymous":false,"inputs":[{"indexed":true,"internalType":"address","name":"owner","type":"address"},{"indexed":true,"internalType":"address","name":"approved","type":"address"},{"indexed":true,"internalType":"uint256","name":"tokenId","type":"uint256"}],"name":"Approval","type":"event"},{"anonymous":false,"inputs":[{"indexed":true,"internalType":"address","name":"owner","type":"address"},{"indexed":true,"internalType":"address","name":"operator","type":"address"},{"indexed":false,"internalType":"bool","name":"approved","type":"bool"}],"name":"ApprovalForAll","type":"event"},{"anonymous":false,"inputs":[{"indexed":true,"internalType":"address","name":"previousOwner","type":"address"},{"indexed":true,"internalType":"address","name":"newOwner","type":"address"}],"name":"OwnershipTransferred","type":"event"},{"anonymous":false,"inputs":[{"indexed":false,"internalType":"address","name":"account","type":"address"},{"indexed":false,"internalType":"uint256","name":"shares","type":"uint256"}],"name":"PayeeAdded","type":"event"},{"anonymous":false,"inputs":[{"indexed":false,"internalType":"bool","name":"_status","type":"bool"}],"name":"PayeesLocked","type":"event"},{"anonymous":false,"inputs":[{"indexed":false,"internalType":"address","name":"from","type":"address"},{"indexed":false,"internalType":"uint256","name":"amount","type":"uint256"}],"name":"PaymentReceived","type":"event"},{"anonymous":false,"inputs":[{"indexed":false,"internalType":"address","name":"to","type":"address"},{"indexed":false,"internalType":"uint256","name":"amount","type":"uint256"}],"name":"PaymentReleased","type":"event"},{"anonymous":false,"inputs":[{"indexed":false,"internalType":"address","name":"to","type":"address"},{"indexed":false,"internalType":"uint256","name":"amount","type":"uint256"}],"name":"RefundReleased","type":"event"},{"anonymous":false,"inputs":[{"indexed":true,"internalType":"address","name":"from","type":"address"},{"indexed":true,"internalType":"address","name":"to","type":"address"},{"indexed":true,"internalType":"uint256","name":"tokenId","type":"uint256"}],"name":"Transfer","type":"event"},{"anonymous":false,"inputs":[{"indexed":false,"internalType":"uint256","name":"_old","type":"uint256"},{"indexed":false,"internalType":"uint256","name":"_new","type":"uint256"}],"name":"UpdatedMaxPublicMints","type":"event"},{"anonymous":false,"inputs":[{"indexed":false,"internalType":"uint256","name":"_old","type":"uint256"},{"indexed":false,"internalType":"uint256","name":"_new","type":"uint256"}],"name":"UpdatedMaxWhitelistMints","type":"event"},{"anonymous":false,"inputs":[{"indexed":false,"internalType":"uint256","name":"_old","type":"uint256"},{"indexed":false,"internalType":"uint256","name":"_new","type":"uint256"}],"name":"UpdatedMintPrice","type":"event"},{"anonymous":false,"inputs":[{"indexed":false,"internalType":"uint256","name":"_old","type":"uint256"},{"indexed":false,"internalType":"uint256","name":"_new","type":"uint256"}],"name":"UpdatedMintSize","type":"event"},{"anonymous":false,"inputs":[{"indexed":false,"internalType":"bool","name":"_old","type":"bool"},{"indexed":false,"internalType":"bool","name":"_new","type":"bool"}],"name":"UpdatedMintStatus","type":"event"},{"anonymous":false,"inputs":[{"indexed":false,"internalType":"uint256","name":"_old","type":"uint256"},{"indexed":false,"internalType":"uint256","name":"_new","type":"uint256"}],"name":"UpdatedPresaleEnd","type":"event"},{"anonymous":false,"inputs":[{"indexed":false,"internalType":"address","name":"newRoyaltyAddress","type":"address"},{"indexed":false,"internalType":"uint256","name":"newPercentage","type":"uint256"}],"name":"UpdatedRoyalties","type":"event"},{"anonymous":false,"inputs":[{"indexed":false,"internalType":"bytes32","name":"_old","type":"bytes32"},{"indexed":false,"internalType":"bytes32","name":"_new","type":"bytes32"}],"name":"UpdatedWhitelist","type":"event"},{"anonymous":false,"inputs":[{"indexed":false,"internalType":"bool","name":"_old","type":"bool"},{"indexed":false,"internalType":"bool","name":"_new","type":"bool"}],"name":"UpdatedWhitelistStatus","type":"event"},{"stateMutability":"payable","type":"fallback"},{"inputs":[{"internalType":"address","name":"to","type":"address"},{"internalType":"uint256","name":"tokenId","type":"uint256"}],"name":"approve","outputs":[],"stateMutability":"nonpayable","type":"function"},{"inputs":[{"internalType":"address","name":"owner","type":"address"}],"name":"balanceOf","outputs":[{"internalType":"uint256","name":"","type":"uint256"}],"stateMutability":"view","type":"function"},{"inputs":[],"name":"collectionSize","outputs":[{"internalType":"uint256","name":"","type":"uint256"}],"stateMutability":"view","type":"function"},{"inputs":[],"name":"disableMinting","outputs":[],"stateMutability":"nonpayable","type":"function"},{"inputs":[],"name":"disableWhitelist","outputs":[],"stateMutability":"nonpayable","type":"function"},{"inputs":[],"name":"enableMinting","outputs":[],"stateMutability":"nonpayable","type":"function"},{"inputs":[],"name":"enableWhitelist","outputs":[],"stateMutability":"nonpayable","type":"function"},{"inputs":[{"internalType":"uint256","name":"tokenId","type":"uint256"}],"name":"getApproved","outputs":[{"internalType":"address","name":"","type":"address"}],"stateMutability":"view","type":"function"},{"inputs":[],"name":"getBalance","outputs":[{"internalType":"uint256","name":"","type":"uint256"}],"stateMutability":"view","type":"function"},{"inputs":[{"internalType":"string","name":"name","type":"string"},{"internalType":"string","name":"symbol","type":"string"},{"internalType":"string","name":"_placeholderURI","type":"string"},{"internalType":"uint256","name":"_mintPrice","type":"uint256"},{"internalType":"uint256","name":"_mintSize","type":"uint256"},{"internalType":"address[]","name":"splitAddresses","type":"address[]"},{"internalType":"uint256[]","name":"splitBasisPoints","type":"uint256[]"},{"internalType":"bytes32","name":"_whitelistMerkleRoot","type":"bytes32"},{"internalType":"address","name":"candyWallet","type":"address"}],"name":"initialize","outputs":[],"stateMutability":"nonpayable","type":"function"},{"inputs":[{"internalType":"address","name":"owner","type":"address"},{"internalType":"address","name":"operator","type":"address"}],"name":"isApprovedForAll","outputs":[{"internalType":"bool","name":"","type":"bool"}],"stateMutability":"view","type":"function"},{"inputs":[],"name":"mintStatus","outputs":[{"internalType":"bool","name":"","type":"bool"}],"stateMutability":"view","type":"function"},{"inputs":[],"name":"mintingFee","outputs":[{"internalType":"uint256","name":"","type":"uint256"}],"stateMutability":"view","type":"function"},{"inputs":[],"name":"name","outputs":[{"internalType":"string","name":"","type":"string"}],"stateMutability":"view","type":"function"},{"inputs":[],"name":"owner","outputs":[{"internalType":"address","name":"","type":"address"}],"stateMutability":"view","type":"function"},{"inputs":[{"internalType":"uint256","name":"tokenId","type":"uint256"}],"name":"ownerOf","outputs":[{"internalType":"address","name":"","type":"address"}],"stateMutability":"view","type":"function"},{"inputs":[{"internalType":"uint256","name":"index","type":"uint256"}],"name":"payee","outputs":[{"internalType":"address","name":"","type":"address"}],"stateMutability":"view","type":"function"},{"inputs":[],"name":"publicMaxMints","outputs":[{"internalType":"uint256","name":"","type":"uint256"}],"stateMutability":"view","type":"function"},{"inputs":[{"internalType":"uint256","name":"amount","type":"uint256"}],"name":"publicMint","outputs":[],"stateMutability":"payable","type":"function"},{"inputs":[],"name":"release","outputs":[],"stateMutability":"nonpayable","type":"function"},{"inputs":[{"internalType":"address","name":"account","type":"address"}],"name":"released","outputs":[{"internalType":"uint256","name":"","type":"uint256"}],"stateMutability":"view","type":"function"},{"inputs":[],"name":"renounceOwnership","outputs":[],"stateMutability":"nonpayable","type":"function"},{"inputs":[{"internalType":"uint256","name":"_tokenId","type":"uint256"},{"internalType":"uint256","name":"_salePrice","type":"uint256"}],"name":"royaltyInfo","outputs":[{"internalType":"address","name":"receiver","type":"address"},{"internalType":"uint256","name":"royaltyAmount","type":"uint256"}],"stateMutability":"view","type":"function"},{"inputs":[{"internalType":"address","name":"from","type":"address"},{"internalType":"address","name":"to","type":"address"},{"internalType":"uint256","name":"tokenId","type":"uint256"}],"name":"safeTransferFrom","outputs":[],"stateMutability":"nonpayable","type":"function"},{"inputs":[{"internalType":"address","name":"from","type":"address"},{"internalType":"address","name":"to","type":"address"},{"internalType":"uint256","name":"tokenId","type":"uint256"},{"internalType":"bytes","name":"_data","type":"bytes"}],"name":"safeTransferFrom","outputs":[],"stateMutability":"nonpayable","type":"function"},{"inputs":[{"internalType":"address","name":"operator","type":"address"},{"internalType":"bool","name":"approved","type":"bool"}],"name":"setApprovalForAll","outputs":[],"stateMutability":"nonpayable","type":"function"},{"inputs":[{"internalType":"string","name":"baseURI","type":"string"}],"name":"setBaseURI","outputs":[],"stateMutability":"nonpayable","type":"function"},{"inputs":[{"internalType":"uint256","name":"_amount","type":"uint256"}],"name":"setMaxPublicMints","outputs":[],"stateMutability":"nonpayable","type":"function"},{"inputs":[{"internalType":"uint64","name":"_amount","type":"uint64"}],"name":"setMaxWhitelistMints","outputs":[],"stateMutability":"nonpayable","type":"function"},{"inputs":[{"internalType":"uint256","name":"_newFee","type":"uint256"}],"name":"setMintPrice","outputs":[],"stateMutability":"nonpayable","type":"function"},{"inputs":[{"internalType":"uint256","name":"_amount","type":"uint256"}],"name":"setMintSize","outputs":[],"stateMutability":"nonpayable","type":"function"},{"inputs":[{"internalType":"address","name":"_royaltyAddress","type":"address"},{"internalType":"uint256","name":"_basisPoints","type":"uint256"}],"name":"setRoyaltyInfo","outputs":[],"stateMutability":"nonpayable","type":"function"},{"inputs":[{"internalType":"bytes32","name":"_merkleRoot","type":"bytes32"}],"name":"setWhitelistMerkleRoot","outputs":[],"stateMutability":"nonpayable","type":"function"},{"inputs":[{"internalType":"address","name":"account","type":"address"}],"name":"shares","outputs":[{"internalType":"uint256","name":"","type":"uint256"}],"stateMutability":"view","type":"function"},{"inputs":[{"internalType":"bytes4","name":"interfaceId","type":"bytes4"}],"name":"supportsInterface","outputs":[{"internalType":"bool","name":"","type":"bool"}],"stateMutability":"view","type":"function"},{"inputs":[],"name":"symbol","outputs":[{"internalType":"string","name":"","type":"string"}],"stateMutability":"view","type":"function"},{"inputs":[{"internalType":"uint256","name":"tokenId","type":"uint256"}],"name":"tokenURI","outputs":[{"internalType":"string","name":"","type":"string"}],"stateMutability":"view","type":"function"},{"inputs":[],"name":"totalReleased","outputs":[{"internalType":"uint256","name":"","type":"uint256"}],"stateMutability":"view","type":"function"},{"inputs":[],"name":"totalShares","outputs":[{"internalType":"uint256","name":"","type":"uint256"}],"stateMutability":"view","type":"function"},{"inputs":[],"name":"totalSupply","outputs":[{"internalType":"uint256","name":"","type":"uint256"}],"stateMutability":"view","type":"function"},{"inputs":[{"internalType":"address","name":"from","type":"address"},{"internalType":"address","name":"to","type":"address"},{"internalType":"uint256","name":"tokenId","type":"uint256"}],"name":"transferFrom","outputs":[],"stateMutability":"nonpayable","type":"function"},{"inputs":[{"internalType":"address","name":"newOwner","type":"address"}],"name":"transferOwnership","outputs":[],"stateMutability":"nonpayable","type":"function"},{"inputs":[{"internalType":"string","name":"_placeholderURI","type":"string"}],"name":"updatePlaceholder","outputs":[],"stateMutability":"nonpayable","type":"function"},{"inputs":[],"name":"whitelistMaxMints","outputs":[{"internalType":"uint256","name":"","type":"uint256"}],"stateMutability":"view","type":"function"},{"inputs":[{"internalType":"bytes32[]","name":"merkleProof","type":"bytes32[]"},{"internalType":"uint64","name":"amount","type":"uint64"}],"name":"whitelistMint","outputs":[],"stateMutability":"payable","type":"function"},{"inputs":[],"name":"whitelistStatus","outputs":[{"internalType":"bool","name":"","type":"bool"}],"stateMutability":"view","type":"function"},{"stateMutability":"payable","type":"receive"}],"devdoc":{"author":"Candy Labs","kind":"dev","methods":{"approve(address,uint256)":{"details":"See {IERC721-approve}."},"balanceOf(address)":{"details":"See {IERC721-balanceOf}."},"collectionSize()":{"details":"Can be updated to sizes larger than or equal to the totalSupply()  through setMintSize()."},"enableWhitelist()":{"details":"Public visibility required since the function is called internally."},"getApproved(uint256)":{"details":"See {IERC721-getApproved}."},"isApprovedForAll(address,address)":{"details":"See {IERC721-isApprovedForAll}."},"name()":{"details":"See {IERC721Metadata-name}."},"owner()":{"details":"Returns the address of the current owner."},"ownerOf(uint256)":{"details":"See {IERC721-ownerOf}."},"payee(uint256)":{"details":"Getter for the address of the payee number `index`."},"publicMint(uint256)":{"params":{"amount":"The number of tokens to be minted."}},"release()":{"details":"Defaults to the logic contained in CandyPaymentSplitterUpgradeable."},"released(address)":{"details":"Getter for the amount of Ether already released to a payee."},"renounceOwnership()":{"details":"Leaves the contract without owner. It will not be possible to call `onlyOwner` functions anymore. Can only be called by the current owner. NOTE: Renouncing ownership will leave the contract without an owner, thereby removing any functionality that is only available to the owner."},"safeTransferFrom(address,address,uint256)":{"details":"See {IERC721-safeTransferFrom}."},"safeTransferFrom(address,address,uint256,bytes)":{"details":"See {IERC721-safeTransferFrom}."},"setApprovalForAll(address,bool)":{"details":"See {IERC721-setApprovalForAll}."},"setBaseURI(string)":{"params":{"baseURI":"The new baseURI to generate tokenURIs from. "}},"setMaxPublicMints(uint256)":{"params":{"_amount":"The maximum amount of tokens that can be minted in a public transaction."}},"setMaxWhitelistMints(uint64)":{"params":{"_amount":"The maximum amount of tokens a whitelisted user can mint."}},"setMintPrice(uint256)":{"params":{"_newFee":"- fee you set, if ETH 10**18, if  an ERC20 use token's decimals in calculation"}},"setMintSize(uint256)":{"params":{"_amount":"The mint size, or number of items in the collection."}},"setRoyaltyInfo(address,uint256)":{"details":"Uses internal functions to set EIP-2981  found in IERC2981Upgradeable.sol and used by CandyCollection2981RoyaltiesUpgradeable.sol","params":{"_basisPoints":"- Basis points (out of 10,000) to set as secondary sale royalty fee.  of secondary sales","_royaltyAddress":"- Address for all royalties to go to."}},"setWhitelistMerkleRoot(bytes32)":{"params":{"_merkleRoot":"The generated Merkle root hash for the whitelist."}},"shares(address)":{"details":"Getter for the amount of shares held by an account."},"supportsInterface(bytes4)":{"params":{"interfaceId":"bytes4 id per interface or contract  calculated by ERC165 standards automatically"}},"symbol()":{"details":"See {IERC721Metadata-symbol}."},"tokenURI(uint256)":{"details":"Override for ERC721A tokenURI.","params":{"tokenId":"The id of the token in this collection to retrieve the URI for. Must exist."},"returns":{"_0":"The baseURI suffixed with ./{tokenId}.json"}},"totalReleased()":{"details":"Getter for the total amount of Ether already released."},"totalShares()":{"details":"Getter for the total shares held by payees."},"totalSupply()":{"details":"Burned tokens are calculated here, use _totalMinted() if you want to count just minted tokens."},"transferFrom(address,address,uint256)":{"details":"See {IERC721-transferFrom}."},"transferOwnership(address)":{"details":"Transfers ownership of the contract to a new account (`newOwner`). Can only be called by the current owner."},"updatePlaceholder(string)":{"details":"Added so users can fix mistakes with expensive deployed contracts."},"whitelistMint(bytes32[],uint64)":{"params":{"amount":"The number of tokens to be minted.","merkleProof":"The merkleProof generated by an off-chain API."}}},"title":"An ERC721A-based token contract.","version":1},"evm":{"assembly":"    /* \"CandyCreator721AUpgradeable.sol\":3331:24620  contract CandyCreator721AUpgradeable is... */\n  mstore(0x40, 0x80)\n  callvalue\n  dup1\n  iszero\n  tag_1\n  jumpi\n  0x00\n  dup1\n  revert\ntag_1:\n  pop\n  dataSize(sub_0)\n  dup1\n  dataOffset(sub_0)\n  0x00\n  codecopy\n  0x00\n  return\nstop\n\nsub_0: assembly {\n        /* \"CandyCreator721AUpgradeable.sol\":3331:24620  contract CandyCreator721AUpgradeable is... */\n      mstore(0x40, 0x80)\n      jumpi(tag_1, lt(calldatasize, 0x04))\n      shr(0xe0, calldataload(0x00))\n      dup1\n      0x8b83209b\n      gt\n      tag_49\n      jumpi\n      dup1\n      0xbd32fb66\n      gt\n      tag_50\n      jumpi\n      dup1\n      0xe33b7de3\n      gt\n      tag_51\n      jumpi\n      dup1\n      0xe33b7de3\n      eq\n      tag_43\n      jumpi\n      dup1\n      0xe797ec1b\n      eq\n      tag_44\n      jumpi\n      dup1\n      0xe985e9c5\n      eq\n      tag_45\n      jumpi\n      dup1\n      0xf2fde38b\n      eq\n      tag_46\n      jumpi\n      dup1\n      0xf4a0a528\n      eq\n      tag_47\n      jumpi\n      dup1\n      0xfbee8121\n      eq\n      tag_48\n      jumpi\n      jump(tag_2)\n    tag_51:\n      dup1\n      0xbd32fb66\n      eq\n      tag_37\n      jumpi\n      dup1\n      0xc87b56dd\n      eq\n      tag_38\n      jumpi\n      dup1\n      0xcdfb2b4e\n      eq\n      tag_39\n      jumpi\n      dup1\n      0xce7c2ac2\n      eq\n      tag_40\n      jumpi\n      dup1\n      0xd6b0f484\n      eq\n      tag_41\n      jumpi\n      dup1\n      0xe2e784d5\n      eq\n      tag_42\n      jumpi\n      jump(tag_2)\n    tag_50:\n      dup1\n      0x9852595c\n      gt\n      tag_52\n      jumpi\n      dup1\n      0x9852595c\n      eq\n      tag_31\n      jumpi\n      dup1\n      0x9da3f8fd\n      eq\n      tag_32\n      jumpi\n      dup1\n      0x9ddf7ad3\n      eq\n      tag_33\n      jumpi\n      dup1\n      0xa22cb465\n      eq\n      tag_34\n      jumpi\n      dup1\n      0xa93fef3b\n      eq\n      tag_35\n      jumpi\n      dup1\n      0xb88d4fde\n      eq\n      tag_36\n      jumpi\n      jump(tag_2)\n    tag_52:\n      dup1\n      0x8b83209b\n      eq\n      tag_26\n      jumpi\n      dup1\n      0x8da5cb5b\n      eq\n      tag_27\n      jumpi\n      dup1\n      0x8f5d737c\n      eq\n      tag_28\n      jumpi\n      dup1\n      0x9342e6e4\n      eq\n      tag_29\n      jumpi\n      dup1\n      0x95d89b41\n      eq\n      tag_30\n      jumpi\n      jump(tag_2)\n    tag_49:\n      dup1\n      0x42842e0e\n      gt\n      tag_53\n      jumpi\n      dup1\n      0x6352211e\n      gt\n      tag_54\n      jumpi\n      dup1\n      0x6352211e\n      eq\n      tag_20\n      jumpi\n      dup1\n      0x666b1fb8\n      eq\n      tag_21\n      jumpi\n      dup1\n      0x70a08231\n      eq\n      tag_22\n      jumpi\n      dup1\n      0x715018a6\n      eq\n      tag_23\n      jumpi\n      dup1\n      0x7e5cd5c1\n      eq\n      tag_24\n      jumpi\n      dup1\n      0x86d1a69f\n      eq\n      tag_25\n      jumpi\n      jump(tag_2)\n    tag_54:\n      dup1\n      0x42842e0e\n      eq\n      tag_14\n      jumpi\n      dup1\n      0x45947076\n      eq\n      tag_15\n      jumpi\n      dup1\n      0x45c0f533\n      eq\n      tag_16\n      jumpi\n      dup1\n      0x4a886ad2\n      eq\n      tag_17\n      jumpi\n      dup1\n      0x55f804b3\n      eq\n      tag_18\n      jumpi\n      dup1\n      0x5a64ad95\n      eq\n      tag_19\n      jumpi\n      jump(tag_2)\n    tag_53:\n      dup1\n      0x18160ddd\n      gt\n      tag_55\n      jumpi\n      dup1\n      0x18160ddd\n      eq\n      tag_8\n      jumpi\n      dup1\n      0x1b004d25\n      eq\n      tag_9\n      jumpi\n      dup1\n      0x23b872dd\n      eq\n      tag_10\n      jumpi\n      dup1\n      0x2a55205a\n      eq\n      tag_11\n      jumpi\n      dup1\n      0x2db11544\n      eq\n      tag_12\n      jumpi\n      dup1\n      0x3a98ef39\n      eq\n      tag_13\n      jumpi\n      jump(tag_2)\n    tag_55:\n      dup1\n      0x01ffc9a7\n      eq\n      tag_3\n      jumpi\n      dup1\n      0x06fdde03\n      eq\n      tag_4\n      jumpi\n      dup1\n      0x081812fc\n      eq\n      tag_5\n      jumpi\n      dup1\n      0x095ea7b3\n      eq\n      tag_6\n      jumpi\n      dup1\n      0x12065fe0\n      eq\n      tag_7\n      jumpi\n      jump(tag_2)\n    tag_1:\n      jumpi(tag_2, calldatasize)\n        /* \"CandyCreator721AUpgradeable.sol\":11467:11509  PaymentReceived(_msgSender(), _msgValue()) */\n      0x6ef95f06320e7a25a04a175ca677b7052bdd97131872c2192525a629f51be770\n        /* \"@openzeppelin/contracts-upgradeable/utils/ContextUpgradeable.sol\":929:939  msg.sender */\n      caller\n        /* \"CandyCreator721AUpgradeable.sol\":11483:11495  _msgSender() */\n    tag_58:\n        /* \"CandyCreator721AUpgradeable.sol\":11467:11509  PaymentReceived(_msgSender(), _msgValue()) */\n      0x40\n      dup1\n      mload\n      sub(shl(0xa0, 0x01), 0x01)\n        /* \"#utility.yul\":206:238   */\n      swap3\n      swap1\n      swap3\n      and\n        /* \"#utility.yul\":188:239   */\n      dup3\n      mstore\n        /* \"@openzeppelin/contracts-upgradeable/utils/ContextUpgradeable.sol\":1132:1141  msg.value */\n      callvalue\n        /* \"#utility.yul\":270:272   */\n      0x20\n        /* \"#utility.yul\":255:273   */\n      dup4\n      add\n        /* \"#utility.yul\":248:282   */\n      mstore\n        /* \"CandyCreator721AUpgradeable.sol\":11467:11509  PaymentReceived(_msgSender(), _msgValue()) */\n      dup1\n      mload\n      swap2\n      dup3\n      swap1\n      sub\n      add\n      swap1\n      log1\n        /* \"CandyCreator721AUpgradeable.sol\":3331:24620  contract CandyCreator721AUpgradeable is... */\n      stop\n    tag_2:\n        /* \"CandyCreator721AUpgradeable.sol\":11657:11699  PaymentReceived(_msgSender(), _msgValue()) */\n      0x6ef95f06320e7a25a04a175ca677b7052bdd97131872c2192525a629f51be770\n        /* \"@openzeppelin/contracts-upgradeable/utils/ContextUpgradeable.sol\":929:939  msg.sender */\n      caller\n        /* \"CandyCreator721AUpgradeable.sol\":11673:11685  _msgSender() */\n      tag_58\n        /* \"@openzeppelin/contracts-upgradeable/utils/ContextUpgradeable.sol\":850:946  function _msgSender() internal view virtual returns (address) {... */\n      jump\n        /* \"CandyCreator721AUpgradeable.sol\":24220:24618  function supportsInterface(bytes4 interfaceId)... */\n    tag_3:\n      callvalue\n      dup1\n      iszero\n      tag_69\n      jumpi\n      0x00\n      dup1\n      revert\n    tag_69:\n      pop\n      tag_70\n      tag_71\n      calldatasize\n      0x04\n      tag_72\n      jump\t// in\n    tag_71:\n      tag_73\n      jump\t// in\n    tag_70:\n      mload(0x40)\n        /* \"#utility.yul\":844:858   */\n      swap1\n      iszero\n        /* \"#utility.yul\":837:859   */\n      iszero\n        /* \"#utility.yul\":819:860   */\n      dup2\n      mstore\n        /* \"#utility.yul\":807:809   */\n      0x20\n        /* \"#utility.yul\":792:810   */\n      add\n        /* \"CandyCreator721AUpgradeable.sol\":24220:24618  function supportsInterface(bytes4 interfaceId)... */\n    tag_74:\n      mload(0x40)\n      dup1\n      swap2\n      sub\n      swap1\n      return\n        /* \"ERC721A/ERC721AUpgradeable.sol\":8157:8255  function name() public view virtual override returns (string memory) {... */\n    tag_4:\n      callvalue\n      dup1\n      iszero\n      tag_76\n      jumpi\n      0x00\n      dup1\n      revert\n    tag_76:\n      pop\n      tag_77\n      tag_78\n      jump\t// in\n    tag_77:\n      mload(0x40)\n      tag_74\n      swap2\n      swap1\n      tag_80\n      jump\t// in\n        /* \"ERC721A/ERC721AUpgradeable.sol\":9624:9824  function getApproved(uint256 tokenId) public view override returns (address) {... */\n    tag_5:\n      callvalue\n      dup1\n      iszero\n      tag_81\n      jumpi\n      0x00\n      dup1\n      revert\n    tag_81:\n      pop\n      tag_82\n      tag_83\n      calldatasize\n      0x04\n      tag_84\n      jump\t// in\n    tag_83:\n      tag_85\n      jump\t// in\n    tag_82:\n      mload(0x40)\n      sub(shl(0xa0, 0x01), 0x01)\n        /* \"#utility.yul\":1971:2003   */\n      swap1\n      swap2\n      and\n        /* \"#utility.yul\":1953:2004   */\n      dup2\n      mstore\n        /* \"#utility.yul\":1941:1943   */\n      0x20\n        /* \"#utility.yul\":1926:1944   */\n      add\n        /* \"ERC721A/ERC721AUpgradeable.sol\":9624:9824  function getApproved(uint256 tokenId) public view override returns (address) {... */\n      tag_74\n        /* \"#utility.yul\":1807:2010   */\n      jump\n        /* \"ERC721A/ERC721AUpgradeable.sol\":9190:9563  function approve(address to, uint256 tokenId) public override {... */\n    tag_6:\n      callvalue\n      dup1\n      iszero\n      tag_88\n      jumpi\n      0x00\n      dup1\n      revert\n    tag_88:\n      pop\n      tag_89\n      tag_90\n      calldatasize\n      0x04\n      tag_91\n      jump\t// in\n    tag_90:\n      tag_92\n      jump\t// in\n    tag_89:\n      stop\n        /* \"CandyCreator721AUpgradeable.sol\":21184:21283  function getBalance() external view returns (uint256) {... */\n    tag_7:\n      callvalue\n      dup1\n      iszero\n      tag_93\n      jumpi\n      0x00\n      dup1\n      revert\n    tag_93:\n      pop\n        /* \"CandyCreator721AUpgradeable.sol\":21255:21276  address(this).balance */\n      selfbalance\n        /* \"CandyCreator721AUpgradeable.sol\":21184:21283  function getBalance() external view returns (uint256) {... */\n    tag_94:\n      mload(0x40)\n        /* \"#utility.yul\":2598:2623   */\n      swap1\n      dup2\n      mstore\n        /* \"#utility.yul\":2586:2588   */\n      0x20\n        /* \"#utility.yul\":2571:2589   */\n      add\n        /* \"CandyCreator721AUpgradeable.sol\":21184:21283  function getBalance() external view returns (uint256) {... */\n      tag_74\n        /* \"#utility.yul\":2452:2629   */\n      jump\n        /* \"ERC721A/ERC721AUpgradeable.sol\":4356:4653  function totalSupply() public view returns (uint256) {... */\n    tag_8:\n      callvalue\n      dup1\n      iszero\n      tag_98\n      jumpi\n      0x00\n      dup1\n      revert\n    tag_98:\n      pop\n      tag_94\n        /* \"ERC721A/ERC721AUpgradeable.sol\":4606:4618  _burnCounter */\n      sload(0x98)\n        /* \"ERC721A/ERC721AUpgradeable.sol\":4590:4603  _currentIndex */\n      sload(0x97)\n        /* \"ERC721A/ERC721AUpgradeable.sol\":4590:4618  _currentIndex - _burnCounter */\n      sub\n      not(0x00)\n        /* \"ERC721A/ERC721AUpgradeable.sol\":4590:4636  _currentIndex - _burnCounter - _startTokenId() */\n      add\n      swap1\n        /* \"ERC721A/ERC721AUpgradeable.sol\":4356:4653  function totalSupply() public view returns (uint256) {... */\n      jump\n        /* \"CandyCreator721AUpgradeable.sol\":8463:9403  function whitelistMint(bytes32[] calldata merkleProof, uint64 amount)... */\n    tag_9:\n      tag_89\n      tag_103\n      calldatasize\n      0x04\n      tag_104\n      jump\t// in\n    tag_103:\n      tag_105\n      jump\t// in\n        /* \"ERC721A/ERC721AUpgradeable.sol\":10463:10627  function transferFrom(... */\n    tag_10:\n      callvalue\n      dup1\n      iszero\n      tag_106\n      jumpi\n      0x00\n      dup1\n      revert\n    tag_106:\n      pop\n      tag_89\n      tag_108\n      calldatasize\n      0x04\n      tag_109\n      jump\t// in\n    tag_108:\n      tag_110\n      jump\t// in\n        /* \"Royalties/CandyCollection2981RoyaltiesUpgradeable.sol\":3107:3381  function royaltyInfo(... */\n    tag_11:\n      callvalue\n      dup1\n      iszero\n      tag_111\n      jumpi\n      0x00\n      dup1\n      revert\n    tag_111:\n      pop\n      tag_112\n      tag_113\n      calldatasize\n      0x04\n      tag_114\n      jump\t// in\n    tag_113:\n      tag_115\n      jump\t// in\n    tag_112:\n      0x40\n      dup1\n      mload\n      sub(shl(0xa0, 0x01), 0x01)\n        /* \"#utility.yul\":206:238   */\n      swap1\n      swap4\n      and\n        /* \"#utility.yul\":188:239   */\n      dup4\n      mstore\n        /* \"#utility.yul\":270:272   */\n      0x20\n        /* \"#utility.yul\":255:273   */\n      dup4\n      add\n        /* \"#utility.yul\":248:282   */\n      swap2\n      swap1\n      swap2\n      mstore\n        /* \"#utility.yul\":161:179   */\n      add\n        /* \"Royalties/CandyCollection2981RoyaltiesUpgradeable.sol\":3107:3381  function royaltyInfo(... */\n      tag_74\n        /* \"#utility.yul\":14:288   */\n      jump\n        /* \"CandyCreator721AUpgradeable.sol\":9617:10051  function publicMint(uint256 amount) external payable {... */\n    tag_12:\n      tag_89\n      tag_118\n      calldatasize\n      0x04\n      tag_84\n      jump\t// in\n    tag_118:\n      tag_119\n      jump\t// in\n        /* \"PaymentSplitter/CandyPaymentSplitterUpgradeable.sol\":5035:5124  function totalShares() public view returns (uint256) {... */\n    tag_13:\n      callvalue\n      dup1\n      iszero\n      tag_120\n      jumpi\n      0x00\n      dup1\n      revert\n    tag_120:\n      pop\n        /* \"PaymentSplitter/CandyPaymentSplitterUpgradeable.sol\":5105:5117  _totalShares */\n      sload(0xca)\n        /* \"PaymentSplitter/CandyPaymentSplitterUpgradeable.sol\":5035:5124  function totalShares() public view returns (uint256) {... */\n      jump(tag_94)\n        /* \"ERC721A/ERC721AUpgradeable.sol\":10693:10872  function safeTransferFrom(... */\n    tag_14:\n      callvalue\n      dup1\n      iszero\n      tag_124\n      jumpi\n      0x00\n      dup1\n      revert\n    tag_124:\n      pop\n      tag_89\n      tag_126\n      calldatasize\n      0x04\n      tag_109\n      jump\t// in\n    tag_126:\n      tag_127\n      jump\t// in\n        /* \"CandyCreator721AUpgradeable.sol\":21035:21131  function publicMaxMints() external view returns (uint256) {... */\n    tag_15:\n      callvalue\n      dup1\n      iszero\n      tag_128\n      jumpi\n      0x00\n      dup1\n      revert\n    tag_128:\n      pop\n        /* \"CandyCreator721AUpgradeable.sol\":21110:21124  maxPublicMints */\n      sload(0xff)\n        /* \"CandyCreator721AUpgradeable.sol\":21035:21131  function publicMaxMints() external view returns (uint256) {... */\n      jump(tag_94)\n        /* \"CandyCreator721AUpgradeable.sol\":21444:21534  function collectionSize() external view returns (uint256) {... */\n    tag_16:\n      callvalue\n      dup1\n      iszero\n      tag_132\n      jumpi\n      0x00\n      dup1\n      revert\n    tag_132:\n      pop\n        /* \"CandyCreator721AUpgradeable.sol\":21519:21527  mintSize */\n      sload(0x0101)\n        /* \"CandyCreator721AUpgradeable.sol\":21444:21534  function collectionSize() external view returns (uint256) {... */\n      jump(tag_94)\n        /* \"CandyCreator721AUpgradeable.sol\":18210:18440  function setMintSize(uint256 _amount) public onlyOwner {... */\n    tag_17:\n      callvalue\n      dup1\n      iszero\n      tag_136\n      jumpi\n      0x00\n      dup1\n      revert\n    tag_136:\n      pop\n      tag_89\n      tag_138\n      calldatasize\n      0x04\n      tag_84\n      jump\t// in\n    tag_138:\n      tag_139\n      jump\t// in\n        /* \"CandyCreator721AUpgradeable.sol\":17959:18050  function setBaseURI(string memory baseURI) public onlyOwner {... */\n    tag_18:\n      callvalue\n      dup1\n      iszero\n      tag_140\n      jumpi\n      0x00\n      dup1\n      revert\n    tag_140:\n      pop\n      tag_89\n      tag_142\n      calldatasize\n      0x04\n      tag_143\n      jump\t// in\n    tag_142:\n      tag_144\n      jump\t// in\n        /* \"CandyCreator721AUpgradeable.sol\":20619:20706  function mintingFee() external view returns (uint256) {... */\n    tag_19:\n      callvalue\n      dup1\n      iszero\n      tag_145\n      jumpi\n      0x00\n      dup1\n      revert\n    tag_145:\n      pop\n        /* \"CandyCreator721AUpgradeable.sol\":20690:20699  mintPrice */\n      sload(0x0100)\n        /* \"CandyCreator721AUpgradeable.sol\":20619:20706  function mintingFee() external view returns (uint256) {... */\n      jump(tag_94)\n        /* \"ERC721A/ERC721AUpgradeable.sol\":7972:8095  function ownerOf(uint256 tokenId) public view override returns (address) {... */\n    tag_20:\n      callvalue\n      dup1\n      iszero\n      tag_149\n      jumpi\n      0x00\n      dup1\n      revert\n    tag_149:\n      pop\n      tag_82\n      tag_151\n      calldatasize\n      0x04\n      tag_84\n      jump\t// in\n    tag_151:\n      tag_152\n      jump\t// in\n        /* \"CandyCreator721AUpgradeable.sol\":5537:6623  function initialize(... */\n    tag_21:\n      callvalue\n      dup1\n      iszero\n      tag_154\n      jumpi\n      0x00\n      dup1\n      revert\n    tag_154:\n      pop\n      tag_89\n      tag_156\n      calldatasize\n      0x04\n      tag_157\n      jump\t// in\n    tag_156:\n      tag_158\n      jump\t// in\n        /* \"ERC721A/ERC721AUpgradeable.sol\":5488:5691  function balanceOf(address owner) public view override returns (uint256) {... */\n    tag_22:\n      callvalue\n      dup1\n      iszero\n      tag_159\n      jumpi\n      0x00\n      dup1\n      revert\n    tag_159:\n      pop\n      tag_94\n      tag_161\n      calldatasize\n      0x04\n      tag_162\n      jump\t// in\n    tag_161:\n      tag_163\n      jump\t// in\n        /* \"@openzeppelin/contracts-upgradeable/access/OwnableUpgradeable.sol\":1908:2009  function renounceOwnership() public virtual onlyOwner {... */\n    tag_23:\n      callvalue\n      dup1\n      iszero\n      tag_165\n      jumpi\n      0x00\n      dup1\n      revert\n    tag_165:\n      pop\n      tag_89\n      tag_167\n      jump\t// in\n        /* \"CandyCreator721AUpgradeable.sol\":15337:15561  function disableMinting() external onlyOwner {... */\n    tag_24:\n      callvalue\n      dup1\n      iszero\n      tag_168\n      jumpi\n      0x00\n      dup1\n      revert\n    tag_168:\n      pop\n      tag_89\n      tag_170\n      jump\t// in\n        /* \"CandyCreator721AUpgradeable.sol\":11921:11986  function release() external onlyOwner {... */\n    tag_25:\n      callvalue\n      dup1\n      iszero\n      tag_171\n      jumpi\n      0x00\n      dup1\n      revert\n    tag_171:\n      pop\n      tag_89\n      tag_173\n      jump\t// in\n        /* \"PaymentSplitter/CandyPaymentSplitterUpgradeable.sol\":5782:5880  function payee(uint256 index) public view returns (address) {... */\n    tag_26:\n      callvalue\n      dup1\n      iszero\n      tag_174\n      jumpi\n      0x00\n      dup1\n      revert\n    tag_174:\n      pop\n      tag_82\n      tag_176\n      calldatasize\n      0x04\n      tag_84\n      jump\t// in\n    tag_176:\n      tag_177\n      jump\t// in\n        /* \"@openzeppelin/contracts-upgradeable/access/OwnableUpgradeable.sol\":1276:1361  function owner() public view virtual returns (address) {... */\n    tag_27:\n      callvalue\n      dup1\n      iszero\n      tag_179\n      jumpi\n      0x00\n      dup1\n      revert\n    tag_179:\n      pop\n        /* \"@openzeppelin/contracts-upgradeable/access/OwnableUpgradeable.sol\":1348:1354  _owner */\n      and(sub(shl(0xa0, 0x01), 0x01), sload(0x33))\n        /* \"@openzeppelin/contracts-upgradeable/access/OwnableUpgradeable.sol\":1276:1361  function owner() public view virtual returns (address) {... */\n      jump(tag_82)\n        /* \"CandyCreator721AUpgradeable.sol\":14910:15038  function updatePlaceholder(string calldata _placeholderURI) external onlyOwner {... */\n    tag_28:\n      callvalue\n      dup1\n      iszero\n      tag_183\n      jumpi\n      0x00\n      dup1\n      revert\n    tag_183:\n      pop\n      tag_89\n      tag_185\n      calldatasize\n      0x04\n      tag_186\n      jump\t// in\n    tag_185:\n      tag_187\n      jump\t// in\n        /* \"CandyCreator721AUpgradeable.sol\":16878:17101  function setMaxWhitelistMints(uint64 _amount) public onlyOwner {... */\n    tag_29:\n      callvalue\n      dup1\n      iszero\n      tag_188\n      jumpi\n      0x00\n      dup1\n      revert\n    tag_188:\n      pop\n      tag_89\n      tag_190\n      calldatasize\n      0x04\n      tag_191\n      jump\t// in\n    tag_190:\n      tag_192\n      jump\t// in\n        /* \"ERC721A/ERC721AUpgradeable.sol\":8319:8421  function symbol() public view virtual override returns (string memory) {... */\n    tag_30:\n      callvalue\n      dup1\n      iszero\n      tag_193\n      jumpi\n      0x00\n      dup1\n      revert\n    tag_193:\n      pop\n      tag_77\n      tag_195\n      jump\t// in\n        /* \"PaymentSplitter/CandyPaymentSplitterUpgradeable.sol\":5589:5696  function released(address account) public view returns (uint256) {... */\n    tag_31:\n      callvalue\n      dup1\n      iszero\n      tag_197\n      jumpi\n      0x00\n      dup1\n      revert\n    tag_197:\n      pop\n      tag_94\n      tag_199\n      calldatasize\n      0x04\n      tag_162\n      jump\t// in\n    tag_199:\n      sub(shl(0xa0, 0x01), 0x01)\n        /* \"PaymentSplitter/CandyPaymentSplitterUpgradeable.sol\":5671:5689  _released[account] */\n      and\n        /* \"PaymentSplitter/CandyPaymentSplitterUpgradeable.sol\":5645:5652  uint256 */\n      0x00\n        /* \"PaymentSplitter/CandyPaymentSplitterUpgradeable.sol\":5671:5689  _released[account] */\n      swap1\n      dup2\n      mstore\n        /* \"PaymentSplitter/CandyPaymentSplitterUpgradeable.sol\":5671:5680  _released */\n      0xcd\n        /* \"PaymentSplitter/CandyPaymentSplitterUpgradeable.sol\":5671:5689  _released[account] */\n      0x20\n      mstore\n      0x40\n      swap1\n      keccak256\n      sload\n      swap1\n        /* \"PaymentSplitter/CandyPaymentSplitterUpgradeable.sol\":5589:5696  function released(address account) public view returns (uint256) {... */\n      jump\n        /* \"CandyCreator721AUpgradeable.sol\":20263:20351  function mintStatus() external view returns (bool) {... */\n    tag_32:\n      callvalue\n      dup1\n      iszero\n      tag_202\n      jumpi\n      0x00\n      dup1\n      revert\n    tag_202:\n      pop\n        /* \"CandyCreator721AUpgradeable.sol\":20331:20344  mintingActive */\n      sload(0x0102)\n      shl(0x48, 0x01)\n      swap1\n      div\n      0xff\n      and\n        /* \"CandyCreator721AUpgradeable.sol\":20263:20351  function mintStatus() external view returns (bool) {... */\n      jump(tag_70)\n        /* \"CandyCreator721AUpgradeable.sol\":20454:20549  function whitelistStatus() external view returns (bool) {... */\n    tag_33:\n      callvalue\n      dup1\n      iszero\n      tag_206\n      jumpi\n      0x00\n      dup1\n      revert\n    tag_206:\n      pop\n        /* \"CandyCreator721AUpgradeable.sol\":20527:20542  whitelistActive */\n      sload(0x0102)\n      shl(0x40, 0x01)\n      swap1\n      div\n      0xff\n      and\n        /* \"CandyCreator721AUpgradeable.sol\":20454:20549  function whitelistStatus() external view returns (bool) {... */\n      jump(tag_70)\n        /* \"ERC721A/ERC721AUpgradeable.sol\":9891:10173  function setApprovalForAll(address operator, bool approved) public virtual override {... */\n    tag_34:\n      callvalue\n      dup1\n      iszero\n      tag_210\n      jumpi\n      0x00\n      dup1\n      revert\n    tag_210:\n      pop\n      tag_89\n      tag_212\n      calldatasize\n      0x04\n      tag_213\n      jump\t// in\n    tag_212:\n      tag_214\n      jump\t// in\n        /* \"CandyCreator721AUpgradeable.sol\":17498:17710  function setMaxPublicMints(uint256 _amount) public onlyOwner {... */\n    tag_35:\n      callvalue\n      dup1\n      iszero\n      tag_215\n      jumpi\n      0x00\n      dup1\n      revert\n    tag_215:\n      pop\n      tag_89\n      tag_217\n      calldatasize\n      0x04\n      tag_84\n      jump\t// in\n    tag_217:\n      tag_218\n      jump\t// in\n        /* \"ERC721A/ERC721AUpgradeable.sol\":10938:11297  function safeTransferFrom(... */\n    tag_36:\n      callvalue\n      dup1\n      iszero\n      tag_219\n      jumpi\n      0x00\n      dup1\n      revert\n    tag_219:\n      pop\n      tag_89\n      tag_221\n      calldatasize\n      0x04\n      tag_222\n      jump\t// in\n    tag_221:\n      tag_223\n      jump\t// in\n        /* \"CandyCreator721AUpgradeable.sol\":16492:16712  function setWhitelistMerkleRoot(bytes32 _merkleRoot) public onlyOwner {... */\n    tag_37:\n      callvalue\n      dup1\n      iszero\n      tag_224\n      jumpi\n      0x00\n      dup1\n      revert\n    tag_224:\n      pop\n      tag_89\n      tag_226\n      calldatasize\n      0x04\n      tag_84\n      jump\t// in\n    tag_226:\n      tag_228\n      jump\t// in\n        /* \"CandyCreator721AUpgradeable.sol\":23444:24032  function tokenURI(uint256 tokenId)... */\n    tag_38:\n      callvalue\n      dup1\n      iszero\n      tag_229\n      jumpi\n      0x00\n      dup1\n      revert\n    tag_229:\n      pop\n      tag_77\n      tag_231\n      calldatasize\n      0x04\n      tag_84\n      jump\t// in\n    tag_231:\n      tag_232\n      jump\t// in\n        /* \"CandyCreator721AUpgradeable.sol\":15708:15943  function enableWhitelist() public onlyOwner {... */\n    tag_39:\n      callvalue\n      dup1\n      iszero\n      tag_234\n      jumpi\n      0x00\n      dup1\n      revert\n    tag_234:\n      pop\n      tag_89\n      tag_236\n      jump\t// in\n        /* \"PaymentSplitter/CandyPaymentSplitterUpgradeable.sol\":5392:5495  function shares(address account) public view returns (uint256) {... */\n    tag_40:\n      callvalue\n      dup1\n      iszero\n      tag_237\n      jumpi\n      0x00\n      dup1\n      revert\n    tag_237:\n      pop\n      tag_94\n      tag_239\n      calldatasize\n      0x04\n      tag_162\n      jump\t// in\n    tag_239:\n      sub(shl(0xa0, 0x01), 0x01)\n        /* \"PaymentSplitter/CandyPaymentSplitterUpgradeable.sol\":5472:5488  _shares[account] */\n      and\n        /* \"PaymentSplitter/CandyPaymentSplitterUpgradeable.sol\":5446:5453  uint256 */\n      0x00\n        /* \"PaymentSplitter/CandyPaymentSplitterUpgradeable.sol\":5472:5488  _shares[account] */\n      swap1\n      dup2\n      mstore\n        /* \"PaymentSplitter/CandyPaymentSplitterUpgradeable.sol\":5472:5479  _shares */\n      0xcc\n        /* \"PaymentSplitter/CandyPaymentSplitterUpgradeable.sol\":5472:5488  _shares[account] */\n      0x20\n      mstore\n      0x40\n      swap1\n      keccak256\n      sload\n      swap1\n        /* \"PaymentSplitter/CandyPaymentSplitterUpgradeable.sol\":5392:5495  function shares(address account) public view returns (uint256) {... */\n      jump\n        /* \"CandyCreator721AUpgradeable.sol\":16013:16256  function disableWhitelist() external onlyOwner {... */\n    tag_41:\n      callvalue\n      dup1\n      iszero\n      tag_242\n      jumpi\n      0x00\n      dup1\n      revert\n    tag_242:\n      pop\n      tag_89\n      tag_244\n      jump\t// in\n        /* \"CandyCreator721AUpgradeable.sol\":12423:12654  function setRoyaltyInfo(address _royaltyAddress, uint256 _basisPoints)... */\n    tag_42:\n      callvalue\n      dup1\n      iszero\n      tag_245\n      jumpi\n      0x00\n      dup1\n      revert\n    tag_245:\n      pop\n      tag_89\n      tag_247\n      calldatasize\n      0x04\n      tag_91\n      jump\t// in\n    tag_247:\n      tag_248\n      jump\t// in\n        /* \"PaymentSplitter/CandyPaymentSplitterUpgradeable.sol\":5213:5306  function totalReleased() public view returns (uint256) {... */\n    tag_43:\n      callvalue\n      dup1\n      iszero\n      tag_249\n      jumpi\n      0x00\n      dup1\n      revert\n    tag_249:\n      pop\n        /* \"PaymentSplitter/CandyPaymentSplitterUpgradeable.sol\":5285:5299  _totalReleased */\n      sload(0xcb)\n        /* \"PaymentSplitter/CandyPaymentSplitterUpgradeable.sol\":5213:5306  function totalReleased() public view returns (uint256) {... */\n      jump(tag_94)\n        /* \"CandyCreator721AUpgradeable.sol\":15078:15296  function enableMinting() external onlyOwner {... */\n    tag_44:\n      callvalue\n      dup1\n      iszero\n      tag_253\n      jumpi\n      0x00\n      dup1\n      revert\n    tag_253:\n      pop\n      tag_89\n      tag_255\n      jump\t// in\n        /* \"ERC721A/ERC721AUpgradeable.sol\":10239:10401  function isApprovedForAll(address owner, address operator) public view virtual override returns (bool) {... */\n    tag_45:\n      callvalue\n      dup1\n      iszero\n      tag_256\n      jumpi\n      0x00\n      dup1\n      revert\n    tag_256:\n      pop\n      tag_70\n      tag_258\n      calldatasize\n      0x04\n      tag_259\n      jump\t// in\n    tag_258:\n      sub(shl(0xa0, 0x01), 0x01)\n        /* \"ERC721A/ERC721AUpgradeable.sol\":10359:10384  _operatorApprovals[owner] */\n      swap2\n      dup3\n      and\n        /* \"ERC721A/ERC721AUpgradeable.sol\":10336:10340  bool */\n      0x00\n        /* \"ERC721A/ERC721AUpgradeable.sol\":10359:10384  _operatorApprovals[owner] */\n      swap1\n      dup2\n      mstore\n        /* \"ERC721A/ERC721AUpgradeable.sol\":10359:10377  _operatorApprovals */\n      0x9e\n        /* \"ERC721A/ERC721AUpgradeable.sol\":10359:10384  _operatorApprovals[owner] */\n      0x20\n      swap1\n      dup2\n      mstore\n      0x40\n      dup1\n      dup4\n      keccak256\n        /* \"ERC721A/ERC721AUpgradeable.sol\":10359:10394  _operatorApprovals[owner][operator] */\n      swap4\n      swap1\n      swap5\n      and\n      dup3\n      mstore\n      swap2\n      swap1\n      swap2\n      mstore\n      keccak256\n      sload\n      0xff\n      and\n      swap1\n        /* \"ERC721A/ERC721AUpgradeable.sol\":10239:10401  function isApprovedForAll(address owner, address operator) public view virtual override returns (bool) {... */\n      jump\n        /* \"@openzeppelin/contracts-upgradeable/access/OwnableUpgradeable.sol\":2158:2356  function transferOwnership(address newOwner) public virtual onlyOwner {... */\n    tag_46:\n      callvalue\n      dup1\n      iszero\n      tag_262\n      jumpi\n      0x00\n      dup1\n      revert\n    tag_262:\n      pop\n      tag_89\n      tag_264\n      calldatasize\n      0x04\n      tag_162\n      jump\t// in\n    tag_264:\n      tag_265\n      jump\t// in\n        /* \"CandyCreator721AUpgradeable.sol\":12893:13071  function setMintPrice(uint256 _newFee) public onlyOwner {... */\n    tag_47:\n      callvalue\n      dup1\n      iszero\n      tag_266\n      jumpi\n      0x00\n      dup1\n      revert\n    tag_266:\n      pop\n      tag_89\n      tag_268\n      calldatasize\n      0x04\n      tag_84\n      jump\t// in\n    tag_268:\n      tag_269\n      jump\t// in\n        /* \"CandyCreator721AUpgradeable.sol\":20813:20915  function whitelistMaxMints() external view returns (uint256) {... */\n    tag_48:\n      callvalue\n      dup1\n      iszero\n      tag_270\n      jumpi\n      0x00\n      dup1\n      revert\n    tag_270:\n      pop\n        /* \"CandyCreator721AUpgradeable.sol\":20891:20908  maxWhitelistMints */\n      and(sub(shl(0x40, 0x01), 0x01), sload(0x0102))\n        /* \"CandyCreator721AUpgradeable.sol\":20813:20915  function whitelistMaxMints() external view returns (uint256) {... */\n      jump(tag_94)\n        /* \"CandyCreator721AUpgradeable.sol\":24220:24618  function supportsInterface(bytes4 interfaceId)... */\n    tag_73:\n        /* \"CandyCreator721AUpgradeable.sol\":24369:24373  bool */\n      0x00\n      not(sub(shl(0xe0, 0x01), 0x01))\n        /* \"CandyCreator721AUpgradeable.sol\":24410:24482  interfaceId == type(CandyCollection2981RoyaltiesUpgradeable).interfaceId */\n      dup3\n      and\n      shl(0xe1, 0x152a902d)\n      eq\n      dup1\n        /* \"CandyCreator721AUpgradeable.sol\":24410:24549  interfaceId == type(CandyCollection2981RoyaltiesUpgradeable).interfaceId ||... */\n      tag_277\n      jumpi\n      pop\n      not(sub(shl(0xe0, 0x01), 0x01))\n        /* \"CandyCreator721AUpgradeable.sol\":24498:24549  interfaceId == type(OwnableUpgradeable).interfaceId */\n      dup3\n      and\n      shl(0xe1, 0x0704183b)\n      eq\n        /* \"CandyCreator721AUpgradeable.sol\":24410:24549  interfaceId == type(CandyCollection2981RoyaltiesUpgradeable).interfaceId ||... */\n    tag_277:\n        /* \"CandyCreator721AUpgradeable.sol\":24410:24601  interfaceId == type(CandyCollection2981RoyaltiesUpgradeable).interfaceId ||... */\n      dup1\n      tag_279\n      jumpi\n      pop\n        /* \"CandyCreator721AUpgradeable.sol\":24565:24601  super.supportsInterface(interfaceId) */\n      tag_279\n        /* \"CandyCreator721AUpgradeable.sol\":24589:24600  interfaceId */\n      dup3\n        /* \"CandyCreator721AUpgradeable.sol\":24565:24588  super.supportsInterface */\n      tag_280\n        /* \"CandyCreator721AUpgradeable.sol\":24565:24601  super.supportsInterface(interfaceId) */\n      jump\t// in\n    tag_279:\n        /* \"CandyCreator721AUpgradeable.sol\":24389:24611  return (... */\n      swap3\n        /* \"CandyCreator721AUpgradeable.sol\":24220:24618  function supportsInterface(bytes4 interfaceId)... */\n      swap2\n      pop\n      pop\n      jump\t// out\n        /* \"ERC721A/ERC721AUpgradeable.sol\":8157:8255  function name() public view virtual override returns (string memory) {... */\n    tag_78:\n        /* \"ERC721A/ERC721AUpgradeable.sol\":8211:8224  string memory */\n      0x60\n        /* \"ERC721A/ERC721AUpgradeable.sol\":8243:8248  _name */\n      0x99\n        /* \"ERC721A/ERC721AUpgradeable.sol\":8236:8248  return _name */\n      dup1\n      sload\n      tag_282\n      swap1\n      tag_283\n      jump\t// in\n    tag_282:\n      dup1\n      0x1f\n      add\n      0x20\n      dup1\n      swap2\n      div\n      mul\n      0x20\n      add\n      mload(0x40)\n      swap1\n      dup2\n      add\n      0x40\n      mstore\n      dup1\n      swap3\n      swap2\n      swap1\n      dup2\n      dup2\n      mstore\n      0x20\n      add\n      dup3\n      dup1\n      sload\n      tag_284\n      swap1\n      tag_283\n      jump\t// in\n    tag_284:\n      dup1\n      iszero\n      tag_285\n      jumpi\n      dup1\n      0x1f\n      lt\n      tag_286\n      jumpi\n      0x0100\n      dup1\n      dup4\n      sload\n      div\n      mul\n      dup4\n      mstore\n      swap2\n      0x20\n      add\n      swap2\n      jump(tag_285)\n    tag_286:\n      dup3\n      add\n      swap2\n      swap1\n      0x00\n      mstore\n      keccak256(0x00, 0x20)\n      swap1\n    tag_287:\n      dup2\n      sload\n      dup2\n      mstore\n      swap1\n      0x01\n      add\n      swap1\n      0x20\n      add\n      dup1\n      dup4\n      gt\n      tag_287\n      jumpi\n      dup3\n      swap1\n      sub\n      0x1f\n      and\n      dup3\n      add\n      swap2\n    tag_285:\n      pop\n      pop\n      pop\n      pop\n      pop\n      swap1\n      pop\n        /* \"ERC721A/ERC721AUpgradeable.sol\":8157:8255  function name() public view virtual override returns (string memory) {... */\n      swap1\n      jump\t// out\n        /* \"ERC721A/ERC721AUpgradeable.sol\":9624:9824  function getApproved(uint256 tokenId) public view override returns (address) {... */\n    tag_85:\n        /* \"ERC721A/ERC721AUpgradeable.sol\":9692:9699  address */\n      0x00\n        /* \"ERC721A/ERC721AUpgradeable.sol\":9716:9732  _exists(tokenId) */\n      tag_289\n        /* \"ERC721A/ERC721AUpgradeable.sol\":9724:9731  tokenId */\n      dup3\n        /* \"ERC721A/ERC721AUpgradeable.sol\":9716:9723  _exists */\n      tag_290\n        /* \"ERC721A/ERC721AUpgradeable.sol\":9716:9732  _exists(tokenId) */\n      jump\t// in\n    tag_289:\n        /* \"ERC721A/ERC721AUpgradeable.sol\":9711:9775  if (!_exists(tokenId)) revert ApprovalQueryForNonexistentToken() */\n      tag_291\n      jumpi\n        /* \"ERC721A/ERC721AUpgradeable.sol\":9741:9775  ApprovalQueryForNonexistentToken() */\n      mload(0x40)\n      shl(0xe2, 0x33d1c039)\n      dup2\n      mstore\n      0x04\n      add\n      mload(0x40)\n      dup1\n      swap2\n      sub\n      swap1\n      revert\n        /* \"ERC721A/ERC721AUpgradeable.sol\":9711:9775  if (!_exists(tokenId)) revert ApprovalQueryForNonexistentToken() */\n    tag_291:\n      pop\n        /* \"ERC721A/ERC721AUpgradeable.sol\":9793:9817  _tokenApprovals[tokenId] */\n      0x00\n      swap1\n      dup2\n      mstore\n        /* \"ERC721A/ERC721AUpgradeable.sol\":9793:9808  _tokenApprovals */\n      0x9d\n        /* \"ERC721A/ERC721AUpgradeable.sol\":9793:9817  _tokenApprovals[tokenId] */\n      0x20\n      mstore\n      0x40\n      swap1\n      keccak256\n      sload\n      sub(shl(0xa0, 0x01), 0x01)\n      and\n      swap1\n        /* \"ERC721A/ERC721AUpgradeable.sol\":9624:9824  function getApproved(uint256 tokenId) public view override returns (address) {... */\n      jump\t// out\n        /* \"ERC721A/ERC721AUpgradeable.sol\":9190:9563  function approve(address to, uint256 tokenId) public override {... */\n    tag_92:\n        /* \"ERC721A/ERC721AUpgradeable.sol\":9262:9275  address owner */\n      0x00\n        /* \"ERC721A/ERC721AUpgradeable.sol\":9278:9313  ERC721AUpgradeable.ownerOf(tokenId) */\n      tag_293\n        /* \"ERC721A/ERC721AUpgradeable.sol\":9305:9312  tokenId */\n      dup3\n        /* \"ERC721A/ERC721AUpgradeable.sol\":9278:9304  ERC721AUpgradeable.ownerOf */\n      tag_152\n        /* \"ERC721A/ERC721AUpgradeable.sol\":9278:9313  ERC721AUpgradeable.ownerOf(tokenId) */\n      jump\t// in\n    tag_293:\n        /* \"ERC721A/ERC721AUpgradeable.sol\":9262:9313  address owner = ERC721AUpgradeable.ownerOf(tokenId) */\n      swap1\n      pop\n        /* \"ERC721A/ERC721AUpgradeable.sol\":9333:9338  owner */\n      dup1\n      sub(shl(0xa0, 0x01), 0x01)\n        /* \"ERC721A/ERC721AUpgradeable.sol\":9327:9338  to == owner */\n      and\n        /* \"ERC721A/ERC721AUpgradeable.sol\":9327:9329  to */\n      dup4\n      sub(shl(0xa0, 0x01), 0x01)\n        /* \"ERC721A/ERC721AUpgradeable.sol\":9327:9338  to == owner */\n      and\n      sub\n        /* \"ERC721A/ERC721AUpgradeable.sol\":9323:9371  if (to == owner) revert ApprovalToCurrentOwner() */\n      tag_294\n      jumpi\n        /* \"ERC721A/ERC721AUpgradeable.sol\":9347:9371  ApprovalToCurrentOwner() */\n      mload(0x40)\n      shl(0xe2, 0x250fdee3)\n      dup2\n      mstore\n      0x04\n      add\n      mload(0x40)\n      dup1\n      swap2\n      sub\n      swap1\n      revert\n        /* \"ERC721A/ERC721AUpgradeable.sol\":9323:9371  if (to == owner) revert ApprovalToCurrentOwner() */\n    tag_294:\n        /* \"@openzeppelin/contracts-upgradeable/utils/ContextUpgradeable.sol\":929:939  msg.sender */\n      caller\n      sub(shl(0xa0, 0x01), 0x01)\n        /* \"ERC721A/ERC721AUpgradeable.sol\":9386:9407  _msgSender() != owner */\n      dup3\n      and\n      eq\n      dup1\n      iszero\n      swap1\n        /* \"ERC721A/ERC721AUpgradeable.sol\":9386:9449  _msgSender() != owner && !isApprovedForAll(owner, _msgSender()) */\n      tag_296\n      jumpi\n      pop\n        /* \"ERC721A/ERC721AUpgradeable.sol\":9412:9449  isApprovedForAll(owner, _msgSender()) */\n      tag_297\n        /* \"ERC721A/ERC721AUpgradeable.sol\":9429:9434  owner */\n      dup2\n        /* \"@openzeppelin/contracts-upgradeable/utils/ContextUpgradeable.sol\":929:939  msg.sender */\n      caller\n        /* \"ERC721A/ERC721AUpgradeable.sol\":10239:10401  function isApprovedForAll(address owner, address operator) public view virtual override returns (bool) {... */\n      tag_258\n      jump\t// in\n        /* \"ERC721A/ERC721AUpgradeable.sol\":9412:9449  isApprovedForAll(owner, _msgSender()) */\n    tag_297:\n        /* \"ERC721A/ERC721AUpgradeable.sol\":9411:9449  !isApprovedForAll(owner, _msgSender()) */\n      iszero\n        /* \"ERC721A/ERC721AUpgradeable.sol\":9386:9449  _msgSender() != owner && !isApprovedForAll(owner, _msgSender()) */\n    tag_296:\n        /* \"ERC721A/ERC721AUpgradeable.sol\":9382:9518  if (_msgSender() != owner && !isApprovedForAll(owner, _msgSender())) {... */\n      iszero\n      tag_299\n      jumpi\n        /* \"ERC721A/ERC721AUpgradeable.sol\":9472:9507  ApprovalCallerNotOwnerNorApproved() */\n      mload(0x40)\n      shl(0xe1, 0x67d9dca1)\n      dup2\n      mstore\n      0x04\n      add\n      mload(0x40)\n      dup1\n      swap2\n      sub\n      swap1\n      revert\n        /* \"ERC721A/ERC721AUpgradeable.sol\":9382:9518  if (_msgSender() != owner && !isApprovedForAll(owner, _msgSender())) {... */\n    tag_299:\n        /* \"ERC721A/ERC721AUpgradeable.sol\":9528:9556  _approve(to, tokenId, owner) */\n      tag_300\n        /* \"ERC721A/ERC721AUpgradeable.sol\":9537:9539  to */\n      dup4\n        /* \"ERC721A/ERC721AUpgradeable.sol\":9541:9548  tokenId */\n      dup4\n        /* \"ERC721A/ERC721AUpgradeable.sol\":9550:9555  owner */\n      dup4\n        /* \"ERC721A/ERC721AUpgradeable.sol\":9528:9536  _approve */\n      tag_301\n        /* \"ERC721A/ERC721AUpgradeable.sol\":9528:9556  _approve(to, tokenId, owner) */\n      jump\t// in\n    tag_300:\n        /* \"ERC721A/ERC721AUpgradeable.sol\":9252:9563  {... */\n      pop\n        /* \"ERC721A/ERC721AUpgradeable.sol\":9190:9563  function approve(address to, uint256 tokenId) public override {... */\n      pop\n      pop\n      jump\t// out\n        /* \"CandyCreator721AUpgradeable.sol\":8463:9403  function whitelistMint(bytes32[] calldata merkleProof, uint64 amount)... */\n    tag_105:\n        /* \"CandyCreator721AUpgradeable.sol\":8585:8598  mintingActive */\n      sload(0x0102)\n      shl(0x48, 0x01)\n      swap1\n      div\n      0xff\n      and\n        /* \"CandyCreator721AUpgradeable.sol\":8580:8625  if (!mintingActive) revert MintingNotActive() */\n      tag_307\n      jumpi\n        /* \"CandyCreator721AUpgradeable.sol\":8607:8625  MintingNotActive() */\n      mload(0x40)\n      shl(0xe0, 0x73020e4b)\n      dup2\n      mstore\n      0x04\n      add\n      mload(0x40)\n      dup1\n      swap2\n      sub\n      swap1\n      revert\n        /* \"CandyCreator721AUpgradeable.sol\":8580:8625  if (!mintingActive) revert MintingNotActive() */\n    tag_307:\n        /* \"CandyCreator721AUpgradeable.sol\":8640:8655  whitelistActive */\n      sload(0x0102)\n      shl(0x40, 0x01)\n      swap1\n      div\n      0xff\n      and\n        /* \"CandyCreator721AUpgradeable.sol\":8635:8686  if (!whitelistActive) revert WhitelistNotRequired() */\n      tag_308\n      jumpi\n        /* \"CandyCreator721AUpgradeable.sol\":8664:8686  WhitelistNotRequired() */\n      mload(0x40)\n      shl(0xe1, 0x41a334cd)\n      dup2\n      mstore\n      0x04\n      add\n      mload(0x40)\n      dup1\n      swap2\n      sub\n      swap1\n      revert\n        /* \"CandyCreator721AUpgradeable.sol\":8635:8686  if (!whitelistActive) revert WhitelistNotRequired() */\n    tag_308:\n        /* \"CandyCreator721AUpgradeable.sol\":8727:8733  amount */\n      dup1\n      sub(shl(0x40, 0x01), 0x01)\n        /* \"CandyCreator721AUpgradeable.sol\":8715:8733  mintPrice * amount */\n      and\n        /* \"CandyCreator721AUpgradeable.sol\":8715:8724  mintPrice */\n      sload(0x0100)\n        /* \"CandyCreator721AUpgradeable.sol\":8715:8733  mintPrice * amount */\n      tag_309\n      swap2\n      swap1\n      tag_310\n      jump\t// in\n    tag_309:\n        /* \"@openzeppelin/contracts-upgradeable/utils/ContextUpgradeable.sol\":1132:1141  msg.value */\n      callvalue\n        /* \"CandyCreator721AUpgradeable.sol\":8700:8733  _msgValue() != mintPrice * amount */\n      eq\n        /* \"CandyCreator721AUpgradeable.sol\":8696:8756  if (_msgValue() != mintPrice * amount) revert WrongPayment() */\n      tag_312\n      jumpi\n        /* \"CandyCreator721AUpgradeable.sol\":8742:8756  WrongPayment() */\n      mload(0x40)\n      shl(0xe0, 0x788a686f)\n      dup2\n      mstore\n      0x04\n      add\n      mload(0x40)\n      dup1\n      swap2\n      sub\n      swap1\n      revert\n        /* \"CandyCreator721AUpgradeable.sol\":8696:8756  if (_msgValue() != mintPrice * amount) revert WrongPayment() */\n    tag_312:\n        /* \"CandyCreator721AUpgradeable.sol\":8795:8803  mintSize */\n      sload(0x0101)\n        /* \"CandyCreator721AUpgradeable.sol\":8786:8792  amount */\n      dup2\n      sub(shl(0x40, 0x01), 0x01)\n        /* \"CandyCreator721AUpgradeable.sol\":8770:8792  totalSupply() + amount */\n      and\n        /* \"CandyCreator721AUpgradeable.sol\":8770:8783  totalSupply() */\n      tag_313\n        /* \"ERC721A/ERC721AUpgradeable.sol\":4606:4618  _burnCounter */\n      sload(0x98)\n        /* \"ERC721A/ERC721AUpgradeable.sol\":4590:4603  _currentIndex */\n      sload(0x97)\n        /* \"ERC721A/ERC721AUpgradeable.sol\":4590:4618  _currentIndex - _burnCounter */\n      sub\n      not(0x00)\n        /* \"ERC721A/ERC721AUpgradeable.sol\":4590:4636  _currentIndex - _burnCounter - _startTokenId() */\n      add\n      swap1\n        /* \"ERC721A/ERC721AUpgradeable.sol\":4356:4653  function totalSupply() public view returns (uint256) {... */\n      jump\n        /* \"CandyCreator721AUpgradeable.sol\":8770:8783  totalSupply() */\n    tag_313:\n        /* \"CandyCreator721AUpgradeable.sol\":8770:8792  totalSupply() + amount */\n      tag_314\n      swap2\n      swap1\n      tag_315\n      jump\t// in\n    tag_314:\n        /* \"CandyCreator721AUpgradeable.sol\":8770:8803  totalSupply() + amount > mintSize */\n      gt\n        /* \"CandyCreator721AUpgradeable.sol\":8766:8833  if (totalSupply() + amount > mintSize) revert WouldExceedMintSize() */\n      iszero\n      tag_316\n      jumpi\n        /* \"CandyCreator721AUpgradeable.sol\":8812:8833  WouldExceedMintSize() */\n      mload(0x40)\n      shl(0xe2, 0x3b1e37bd)\n      dup2\n      mstore\n      0x04\n      add\n      mload(0x40)\n      dup1\n      swap2\n      sub\n      swap1\n      revert\n        /* \"CandyCreator721AUpgradeable.sol\":8766:8833  if (totalSupply() + amount > mintSize) revert WouldExceedMintSize() */\n    tag_316:\n        /* \"CandyCreator721AUpgradeable.sol\":8856:8873  maxWhitelistMints */\n      sload(0x0102)\n      sub(shl(0x40, 0x01), 0x01)\n      swap1\n      dup2\n      and\n        /* \"CandyCreator721AUpgradeable.sol\":8847:8873  amount > maxWhitelistMints */\n      swap1\n      dup3\n      and\n      gt\n        /* \"CandyCreator721AUpgradeable.sol\":8843:8908  if (amount > maxWhitelistMints) revert ExceedsMaxWhitelistMints() */\n      iszero\n      tag_317\n      jumpi\n        /* \"CandyCreator721AUpgradeable.sol\":8882:8908  ExceedsMaxWhitelistMints() */\n      mload(0x40)\n      shl(0xe1, 0x0e7b98a5)\n      dup2\n      mstore\n      0x04\n      add\n      mload(0x40)\n      dup1\n      swap2\n      sub\n      swap1\n      revert\n        /* \"CandyCreator721AUpgradeable.sol\":8843:8908  if (amount > maxWhitelistMints) revert ExceedsMaxWhitelistMints() */\n    tag_317:\n        /* \"CandyCreator721AUpgradeable.sol\":8936:9104  MerkleProofUpgradeable.verify(... */\n      tag_318\n        /* \"CandyCreator721AUpgradeable.sol\":8983:8994  merkleProof */\n      dup4\n      dup4\n        /* \"CandyCreator721AUpgradeable.sol\":8936:9104  MerkleProofUpgradeable.verify(... */\n      dup1\n      dup1\n      0x20\n      mul\n      0x20\n      add\n      mload(0x40)\n      swap1\n      dup2\n      add\n      0x40\n      mstore\n      dup1\n      swap4\n      swap3\n      swap2\n      swap1\n      dup2\n      dup2\n      mstore\n      0x20\n      add\n      dup4\n      dup4\n      0x20\n      mul\n      dup1\n      dup3\n      dup5\n      calldatacopy\n      0x00\n      swap3\n      add\n      swap2\n      swap1\n      swap2\n      mstore\n      pop\n      pop\n        /* \"CandyCreator721AUpgradeable.sol\":9012:9031  whitelistMerkleRoot */\n      sload(0xfe)\n        /* \"CandyCreator721AUpgradeable.sol\":9059:9089  abi.encodePacked(_msgSender()) */\n      mload(0x40)\n      not(0xffffffffffffffffffffffff)\n        /* \"@openzeppelin/contracts-upgradeable/utils/ContextUpgradeable.sol\":929:939  msg.sender */\n      caller\n        /* \"#utility.yul\":11907:11909   */\n      0x60\n        /* \"#utility.yul\":11903:11918   */\n      shl\n        /* \"#utility.yul\":11899:11952   */\n      and\n        /* \"CandyCreator721AUpgradeable.sol\":9059:9089  abi.encodePacked(_msgSender()) */\n      0x20\n      dup3\n      add\n        /* \"#utility.yul\":11887:11953   */\n      mstore\n        /* \"CandyCreator721AUpgradeable.sol\":9012:9031  whitelistMerkleRoot */\n      swap1\n      swap3\n      pop\n        /* \"#utility.yul\":11969:11981   */\n      0x34\n      add\n      swap1\n      pop\n        /* \"CandyCreator721AUpgradeable.sol\":9059:9089  abi.encodePacked(_msgSender()) */\n      mload(0x40)\n      0x20\n      dup2\n      dup4\n      sub\n      sub\n      dup2\n      mstore\n      swap1\n      0x40\n      mstore\n        /* \"CandyCreator721AUpgradeable.sol\":9049:9090  keccak256(abi.encodePacked(_msgSender())) */\n      dup1\n      mload\n      swap1\n      0x20\n      add\n      keccak256\n        /* \"CandyCreator721AUpgradeable.sol\":8936:8965  MerkleProofUpgradeable.verify */\n      tag_322\n        /* \"CandyCreator721AUpgradeable.sol\":8936:9104  MerkleProofUpgradeable.verify(... */\n      jump\t// in\n    tag_318:\n        /* \"CandyCreator721AUpgradeable.sol\":8918:9138  if (... */\n      tag_323\n      jumpi\n        /* \"CandyCreator721AUpgradeable.sol\":9122:9138  NotWhitelisted() */\n      mload(0x40)\n      shl(0xe3, 0x0b094f27)\n      dup2\n      mstore\n      0x04\n      add\n      mload(0x40)\n      dup1\n      swap2\n      sub\n      swap1\n      revert\n        /* \"CandyCreator721AUpgradeable.sol\":8918:9138  if (... */\n    tag_323:\n        /* \"@openzeppelin/contracts-upgradeable/utils/ContextUpgradeable.sol\":929:939  msg.sender */\n      caller\n        /* \"CandyCreator721AUpgradeable.sol\":9148:9173  uint64 numWhitelistMinted */\n      0x00\n        /* \"ERC721A/ERC721AUpgradeable.sol\":6324:6343  _addressData[owner] */\n      swap1\n      dup2\n      mstore\n        /* \"ERC721A/ERC721AUpgradeable.sol\":6324:6336  _addressData */\n      0x9c\n        /* \"ERC721A/ERC721AUpgradeable.sol\":6324:6343  _addressData[owner] */\n      0x20\n      mstore\n      0x40\n      dup2\n      keccak256\n        /* \"ERC721A/ERC721AUpgradeable.sol\":6324:6347  _addressData[owner].aux */\n      sload\n        /* \"CandyCreator721AUpgradeable.sol\":9200:9206  amount */\n      dup3\n      swap1\n      shl(0xc0, 0x01)\n        /* \"ERC721A/ERC721AUpgradeable.sol\":6324:6347  _addressData[owner].aux */\n      swap1\n      div\n      sub(shl(0x40, 0x01), 0x01)\n      and\n        /* \"CandyCreator721AUpgradeable.sol\":9176:9206  _getAux(_msgSender()) + amount */\n      tag_327\n      swap2\n      swap1\n      tag_328\n      jump\t// in\n    tag_327:\n        /* \"CandyCreator721AUpgradeable.sol\":9241:9258  maxWhitelistMints */\n      sload(0x0102)\n        /* \"CandyCreator721AUpgradeable.sol\":9148:9206  uint64 numWhitelistMinted = _getAux(_msgSender()) + amount */\n      swap1\n      swap2\n      pop\n      sub(shl(0x40, 0x01), 0x01)\n        /* \"CandyCreator721AUpgradeable.sol\":9241:9258  maxWhitelistMints */\n      swap1\n      dup2\n      and\n        /* \"CandyCreator721AUpgradeable.sol\":9220:9258  numWhitelistMinted > maxWhitelistMints */\n      swap1\n      dup3\n      and\n      gt\n        /* \"CandyCreator721AUpgradeable.sol\":9216:9304  if (numWhitelistMinted > maxWhitelistMints)... */\n      iszero\n      tag_329\n      jumpi\n        /* \"CandyCreator721AUpgradeable.sol\":9279:9304  NotEnoughWhitelistSlots() */\n      mload(0x40)\n      shl(0xe1, 0x4026a7cf)\n      dup2\n      mstore\n      0x04\n      add\n      mload(0x40)\n      dup1\n      swap2\n      sub\n      swap1\n      revert\n        /* \"CandyCreator721AUpgradeable.sol\":9216:9304  if (numWhitelistMinted > maxWhitelistMints)... */\n    tag_329:\n        /* \"CandyCreator721AUpgradeable.sol\":9314:9345  _safeMint(_msgSender(), amount) */\n      tag_330\n        /* \"@openzeppelin/contracts-upgradeable/utils/ContextUpgradeable.sol\":929:939  msg.sender */\n      caller\n        /* \"CandyCreator721AUpgradeable.sol\":9338:9344  amount */\n      dup4\n      sub(shl(0x40, 0x01), 0x01)\n        /* \"CandyCreator721AUpgradeable.sol\":9314:9345  _safeMint(_msgSender(), amount) */\n      and\n        /* \"CandyCreator721AUpgradeable.sol\":9314:9323  _safeMint */\n      tag_332\n        /* \"CandyCreator721AUpgradeable.sol\":9314:9345  _safeMint(_msgSender(), amount) */\n      jump\t// in\n    tag_330:\n        /* \"CandyCreator721AUpgradeable.sol\":9355:9396  _setAux(_msgSender(), numWhitelistMinted) */\n      tag_333\n        /* \"@openzeppelin/contracts-upgradeable/utils/ContextUpgradeable.sol\":929:939  msg.sender */\n      caller\n      sub(shl(0xa0, 0x01), 0x01)\n        /* \"ERC721A/ERC721AUpgradeable.sol\":6599:6618  _addressData[owner] */\n      and\n      0x00\n      swap1\n      dup2\n      mstore\n        /* \"ERC721A/ERC721AUpgradeable.sol\":6599:6611  _addressData */\n      0x9c\n        /* \"ERC721A/ERC721AUpgradeable.sol\":6599:6618  _addressData[owner] */\n      0x20\n      mstore\n      0x40\n      swap1\n      keccak256\n        /* \"ERC721A/ERC721AUpgradeable.sol\":6599:6628  _addressData[owner].aux = aux */\n      dup1\n      sload\n      sub(shl(0xc0, 0x01), 0x01)\n      and\n      shl(0xc0, 0x01)\n      sub(shl(0x40, 0x01), 0x01)\n      dup6\n      and\n      mul\n      or\n      swap1\n      sstore\n        /* \"ERC721A/ERC721AUpgradeable.sol\":6536:6635  function _setAux(address owner, uint64 aux) internal {... */\n      jump\n        /* \"CandyCreator721AUpgradeable.sol\":9355:9396  _setAux(_msgSender(), numWhitelistMinted) */\n    tag_333:\n        /* \"CandyCreator721AUpgradeable.sol\":8570:9403  {... */\n      pop\n        /* \"CandyCreator721AUpgradeable.sol\":8463:9403  function whitelistMint(bytes32[] calldata merkleProof, uint64 amount)... */\n      pop\n      pop\n      pop\n      jump\t// out\n        /* \"ERC721A/ERC721AUpgradeable.sol\":10463:10627  function transferFrom(... */\n    tag_110:\n        /* \"ERC721A/ERC721AUpgradeable.sol\":10592:10620  _transfer(from, to, tokenId) */\n      tag_300\n        /* \"ERC721A/ERC721AUpgradeable.sol\":10602:10606  from */\n      dup4\n        /* \"ERC721A/ERC721AUpgradeable.sol\":10608:10610  to */\n      dup4\n        /* \"ERC721A/ERC721AUpgradeable.sol\":10612:10619  tokenId */\n      dup4\n        /* \"ERC721A/ERC721AUpgradeable.sol\":10592:10601  _transfer */\n      tag_338\n        /* \"ERC721A/ERC721AUpgradeable.sol\":10592:10620  _transfer(from, to, tokenId) */\n      jump\t// in\n        /* \"Royalties/CandyCollection2981RoyaltiesUpgradeable.sol\":3107:3381  function royaltyInfo(... */\n    tag_115:\n        /* \"Royalties/CandyCollection2981RoyaltiesUpgradeable.sol\":3301:3315  royaltyAddress */\n      sload(0xfa)\n        /* \"Royalties/CandyCollection2981RoyaltiesUpgradeable.sol\":3350:3368  royaltyBasisPoints */\n      sload(0xfb)\n      sub(shl(0xa0, 0x01), 0x01)\n        /* \"Royalties/CandyCollection2981RoyaltiesUpgradeable.sol\":3301:3315  royaltyAddress */\n      swap1\n      swap2\n      and\n      swap1\n        /* \"Royalties/CandyCollection2981RoyaltiesUpgradeable.sol\":3236:3252  address receiver */\n      0x00\n      swap1\n        /* \"Royalties/CandyCollection2981RoyaltiesUpgradeable.sol\":3371:3376  10000 */\n      0x2710\n      swap1\n        /* \"Royalties/CandyCollection2981RoyaltiesUpgradeable.sol\":3337:3368  _salePrice * royaltyBasisPoints */\n      tag_340\n      swap1\n        /* \"Royalties/CandyCollection2981RoyaltiesUpgradeable.sol\":3337:3347  _salePrice */\n      dup6\n        /* \"Royalties/CandyCollection2981RoyaltiesUpgradeable.sol\":3337:3368  _salePrice * royaltyBasisPoints */\n      tag_310\n      jump\t// in\n    tag_340:\n        /* \"Royalties/CandyCollection2981RoyaltiesUpgradeable.sol\":3337:3376  _salePrice * royaltyBasisPoints / 10000 */\n      tag_341\n      swap2\n      swap1\n      tag_342\n      jump\t// in\n    tag_341:\n        /* \"Royalties/CandyCollection2981RoyaltiesUpgradeable.sol\":3321:3376  royaltyAmount = _salePrice * royaltyBasisPoints / 10000 */\n      swap1\n      pop\n        /* \"Royalties/CandyCollection2981RoyaltiesUpgradeable.sol\":3107:3381  function royaltyInfo(... */\n      swap3\n      pop\n      swap3\n      swap1\n      pop\n      jump\t// out\n        /* \"CandyCreator721AUpgradeable.sol\":9617:10051  function publicMint(uint256 amount) external payable {... */\n    tag_119:\n        /* \"CandyCreator721AUpgradeable.sol\":9684:9699  whitelistActive */\n      sload(0x0102)\n      shl(0x40, 0x01)\n      swap1\n      div\n      0xff\n      and\n        /* \"CandyCreator721AUpgradeable.sol\":9680:9727  if (whitelistActive) revert WhitelistRequired() */\n      iszero\n      tag_344\n      jumpi\n        /* \"CandyCreator721AUpgradeable.sol\":9708:9727  WhitelistRequired() */\n      mload(0x40)\n      shl(0xe0, 0x3c664d67)\n      dup2\n      mstore\n      0x04\n      add\n      mload(0x40)\n      dup1\n      swap2\n      sub\n      swap1\n      revert\n        /* \"CandyCreator721AUpgradeable.sol\":9680:9727  if (whitelistActive) revert WhitelistRequired() */\n    tag_344:\n        /* \"CandyCreator721AUpgradeable.sol\":9742:9755  mintingActive */\n      sload(0x0102)\n      shl(0x48, 0x01)\n      swap1\n      div\n      0xff\n      and\n        /* \"CandyCreator721AUpgradeable.sol\":9737:9782  if (!mintingActive) revert MintingNotActive() */\n      tag_345\n      jumpi\n        /* \"CandyCreator721AUpgradeable.sol\":9764:9782  MintingNotActive() */\n      mload(0x40)\n      shl(0xe0, 0x73020e4b)\n      dup2\n      mstore\n      0x04\n      add\n      mload(0x40)\n      dup1\n      swap2\n      sub\n      swap1\n      revert\n        /* \"CandyCreator721AUpgradeable.sol\":9737:9782  if (!mintingActive) revert MintingNotActive() */\n    tag_345:\n        /* \"CandyCreator721AUpgradeable.sol\":9823:9829  amount */\n      dup1\n        /* \"CandyCreator721AUpgradeable.sol\":9811:9820  mintPrice */\n      sload(0x0100)\n        /* \"CandyCreator721AUpgradeable.sol\":9811:9829  mintPrice * amount */\n      tag_346\n      swap2\n      swap1\n      tag_310\n      jump\t// in\n    tag_346:\n        /* \"@openzeppelin/contracts-upgradeable/utils/ContextUpgradeable.sol\":1132:1141  msg.value */\n      callvalue\n        /* \"CandyCreator721AUpgradeable.sol\":9796:9829  _msgValue() != mintPrice * amount */\n      eq\n        /* \"CandyCreator721AUpgradeable.sol\":9792:9852  if (_msgValue() != mintPrice * amount) revert WrongPayment() */\n      tag_348\n      jumpi\n        /* \"CandyCreator721AUpgradeable.sol\":9838:9852  WrongPayment() */\n      mload(0x40)\n      shl(0xe0, 0x788a686f)\n      dup2\n      mstore\n      0x04\n      add\n      mload(0x40)\n      dup1\n      swap2\n      sub\n      swap1\n      revert\n        /* \"CandyCreator721AUpgradeable.sol\":9792:9852  if (_msgValue() != mintPrice * amount) revert WrongPayment() */\n    tag_348:\n        /* \"CandyCreator721AUpgradeable.sol\":9891:9899  mintSize */\n      sload(0x0101)\n        /* \"CandyCreator721AUpgradeable.sol\":9882:9888  amount */\n      dup2\n        /* \"CandyCreator721AUpgradeable.sol\":9866:9879  totalSupply() */\n      tag_349\n        /* \"ERC721A/ERC721AUpgradeable.sol\":4606:4618  _burnCounter */\n      sload(0x98)\n        /* \"ERC721A/ERC721AUpgradeable.sol\":4590:4603  _currentIndex */\n      sload(0x97)\n        /* \"ERC721A/ERC721AUpgradeable.sol\":4590:4618  _currentIndex - _burnCounter */\n      sub\n      not(0x00)\n        /* \"ERC721A/ERC721AUpgradeable.sol\":4590:4636  _currentIndex - _burnCounter - _startTokenId() */\n      add\n      swap1\n        /* \"ERC721A/ERC721AUpgradeable.sol\":4356:4653  function totalSupply() public view returns (uint256) {... */\n      jump\n        /* \"CandyCreator721AUpgradeable.sol\":9866:9879  totalSupply() */\n    tag_349:\n        /* \"CandyCreator721AUpgradeable.sol\":9866:9888  totalSupply() + amount */\n      tag_350\n      swap2\n      swap1\n      tag_315\n      jump\t// in\n    tag_350:\n        /* \"CandyCreator721AUpgradeable.sol\":9866:9899  totalSupply() + amount > mintSize */\n      gt\n        /* \"CandyCreator721AUpgradeable.sol\":9862:9929  if (totalSupply() + amount > mintSize) revert WouldExceedMintSize() */\n      iszero\n      tag_351\n      jumpi\n        /* \"CandyCreator721AUpgradeable.sol\":9908:9929  WouldExceedMintSize() */\n      mload(0x40)\n      shl(0xe2, 0x3b1e37bd)\n      dup2\n      mstore\n      0x04\n      add\n      mload(0x40)\n      dup1\n      swap2\n      sub\n      swap1\n      revert\n        /* \"CandyCreator721AUpgradeable.sol\":9862:9929  if (totalSupply() + amount > mintSize) revert WouldExceedMintSize() */\n    tag_351:\n        /* \"CandyCreator721AUpgradeable.sol\":9952:9966  maxPublicMints */\n      sload(0xff)\n        /* \"CandyCreator721AUpgradeable.sol\":9943:9949  amount */\n      dup2\n        /* \"CandyCreator721AUpgradeable.sol\":9943:9966  amount > maxPublicMints */\n      gt\n        /* \"CandyCreator721AUpgradeable.sol\":9939:10003  if (amount > maxPublicMints) revert ExceedsMaxTransactionMints() */\n      iszero\n      tag_352\n      jumpi\n        /* \"CandyCreator721AUpgradeable.sol\":9975:10003  ExceedsMaxTransactionMints() */\n      mload(0x40)\n      shl(0xe1, 0x2193c2c5)\n      dup2\n      mstore\n      0x04\n      add\n      mload(0x40)\n      dup1\n      swap2\n      sub\n      swap1\n      revert\n        /* \"CandyCreator721AUpgradeable.sol\":9939:10003  if (amount > maxPublicMints) revert ExceedsMaxTransactionMints() */\n    tag_352:\n        /* \"CandyCreator721AUpgradeable.sol\":10013:10044  _safeMint(_msgSender(), amount) */\n      tag_353\n        /* \"@openzeppelin/contracts-upgradeable/utils/ContextUpgradeable.sol\":929:939  msg.sender */\n      caller\n        /* \"CandyCreator721AUpgradeable.sol\":10037:10043  amount */\n      dup3\n        /* \"CandyCreator721AUpgradeable.sol\":10013:10022  _safeMint */\n      tag_332\n        /* \"CandyCreator721AUpgradeable.sol\":10013:10044  _safeMint(_msgSender(), amount) */\n      jump\t// in\n    tag_353:\n        /* \"CandyCreator721AUpgradeable.sol\":9617:10051  function publicMint(uint256 amount) external payable {... */\n      pop\n      jump\t// out\n        /* \"ERC721A/ERC721AUpgradeable.sol\":10693:10872  function safeTransferFrom(... */\n    tag_127:\n        /* \"ERC721A/ERC721AUpgradeable.sol\":10826:10865  safeTransferFrom(from, to, tokenId, '') */\n      tag_300\n        /* \"ERC721A/ERC721AUpgradeable.sol\":10843:10847  from */\n      dup4\n        /* \"ERC721A/ERC721AUpgradeable.sol\":10849:10851  to */\n      dup4\n        /* \"ERC721A/ERC721AUpgradeable.sol\":10853:10860  tokenId */\n      dup4\n        /* \"ERC721A/ERC721AUpgradeable.sol\":10826:10865  safeTransferFrom(from, to, tokenId, '') */\n      mload(0x40)\n      dup1\n      0x20\n      add\n      0x40\n      mstore\n      dup1\n      0x00\n      dup2\n      mstore\n      pop\n        /* \"ERC721A/ERC721AUpgradeable.sol\":10826:10842  safeTransferFrom */\n      tag_223\n        /* \"ERC721A/ERC721AUpgradeable.sol\":10826:10865  safeTransferFrom(from, to, tokenId, '') */\n      jump\t// in\n        /* \"CandyCreator721AUpgradeable.sol\":18210:18440  function setMintSize(uint256 _amount) public onlyOwner {... */\n    tag_139:\n        /* \"@openzeppelin/contracts-upgradeable/access/OwnableUpgradeable.sol\":1348:1354  _owner */\n      and(sub(shl(0xa0, 0x01), 0x01), sload(0x33))\n        /* \"@openzeppelin/contracts-upgradeable/utils/ContextUpgradeable.sol\":929:939  msg.sender */\n      caller\n        /* \"@openzeppelin/contracts-upgradeable/access/OwnableUpgradeable.sol\":1488:1511  owner() == _msgSender() */\n      eq\n        /* \"@openzeppelin/contracts-upgradeable/access/OwnableUpgradeable.sol\":1480:1548  require(owner() == _msgSender(), \"Ownable: caller is not the owner\") */\n      tag_363\n      jumpi\n      mload(0x40)\n      shl(0xe5, 0x461bcd)\n      dup2\n      mstore\n      0x04\n      add\n      tag_364\n      swap1\n      tag_365\n      jump\t// in\n    tag_364:\n      mload(0x40)\n      dup1\n      swap2\n      sub\n      swap1\n      revert\n    tag_363:\n        /* \"CandyCreator721AUpgradeable.sol\":18289:18302  totalSupply() */\n      tag_367\n        /* \"ERC721A/ERC721AUpgradeable.sol\":4606:4618  _burnCounter */\n      sload(0x98)\n        /* \"ERC721A/ERC721AUpgradeable.sol\":4590:4603  _currentIndex */\n      sload(0x97)\n        /* \"ERC721A/ERC721AUpgradeable.sol\":4590:4618  _currentIndex - _burnCounter */\n      sub\n      not(0x00)\n        /* \"ERC721A/ERC721AUpgradeable.sol\":4590:4636  _currentIndex - _burnCounter - _startTokenId() */\n      add\n      swap1\n        /* \"ERC721A/ERC721AUpgradeable.sol\":4356:4653  function totalSupply() public view returns (uint256) {... */\n      jump\n        /* \"CandyCreator721AUpgradeable.sol\":18289:18302  totalSupply() */\n    tag_367:\n        /* \"CandyCreator721AUpgradeable.sol\":18279:18286  _amount */\n      dup2\n        /* \"CandyCreator721AUpgradeable.sol\":18279:18302  _amount < totalSupply() */\n      lt\n        /* \"CandyCreator721AUpgradeable.sol\":18275:18328  if (_amount < totalSupply()) revert InvalidMintSize() */\n      iszero\n      tag_368\n      jumpi\n        /* \"CandyCreator721AUpgradeable.sol\":18311:18328  InvalidMintSize() */\n      mload(0x40)\n      shl(0xe1, 0x351b51d7)\n      dup2\n      mstore\n      0x04\n      add\n      mload(0x40)\n      dup1\n      swap2\n      sub\n      swap1\n      revert\n        /* \"CandyCreator721AUpgradeable.sol\":18275:18328  if (_amount < totalSupply()) revert InvalidMintSize() */\n    tag_368:\n        /* \"CandyCreator721AUpgradeable.sol\":18352:18360  mintSize */\n      0x0101\n      dup1\n      sload\n        /* \"CandyCreator721AUpgradeable.sol\":18370:18388  mintSize = _amount */\n      swap1\n      dup3\n      swap1\n      sstore\n        /* \"CandyCreator721AUpgradeable.sol\":18403:18433  UpdatedMintSize(old, mintSize) */\n      0x40\n      dup1\n      mload\n        /* \"#utility.yul\":13025:13050   */\n      dup3\n      dup2\n      mstore\n        /* \"#utility.yul\":13081:13083   */\n      0x20\n        /* \"#utility.yul\":13066:13084   */\n      dup2\n      add\n        /* \"#utility.yul\":13059:13093   */\n      dup5\n      swap1\n      mstore\n        /* \"CandyCreator721AUpgradeable.sol\":18403:18433  UpdatedMintSize(old, mintSize) */\n      0x8d9cfb0dea274a0a02ddad1fc52c90100a28462c6421daa25fb101c740cf5851\n      swap2\n        /* \"#utility.yul\":12998:13016   */\n      add\n        /* \"CandyCreator721AUpgradeable.sol\":18403:18433  UpdatedMintSize(old, mintSize) */\n    tag_369:\n      mload(0x40)\n      dup1\n      swap2\n      sub\n      swap1\n      log1\n        /* \"CandyCreator721AUpgradeable.sol\":18265:18440  {... */\n      pop\n        /* \"CandyCreator721AUpgradeable.sol\":18210:18440  function setMintSize(uint256 _amount) public onlyOwner {... */\n      pop\n      jump\t// out\n        /* \"CandyCreator721AUpgradeable.sol\":17959:18050  function setBaseURI(string memory baseURI) public onlyOwner {... */\n    tag_144:\n        /* \"@openzeppelin/contracts-upgradeable/access/OwnableUpgradeable.sol\":1348:1354  _owner */\n      and(sub(shl(0xa0, 0x01), 0x01), sload(0x33))\n        /* \"@openzeppelin/contracts-upgradeable/utils/ContextUpgradeable.sol\":929:939  msg.sender */\n      caller\n        /* \"@openzeppelin/contracts-upgradeable/access/OwnableUpgradeable.sol\":1488:1511  owner() == _msgSender() */\n      eq\n        /* \"@openzeppelin/contracts-upgradeable/access/OwnableUpgradeable.sol\":1480:1548  require(owner() == _msgSender(), \"Ownable: caller is not the owner\") */\n      tag_374\n      jumpi\n      mload(0x40)\n      shl(0xe5, 0x461bcd)\n      dup2\n      mstore\n      0x04\n      add\n      tag_364\n      swap1\n      tag_365\n      jump\t// in\n    tag_374:\n        /* \"CandyCreator721AUpgradeable.sol\":18029:18043  base = baseURI */\n      dup1\n      mload\n      tag_377\n      swap1\n        /* \"CandyCreator721AUpgradeable.sol\":18029:18033  base */\n      0xfc\n      swap1\n        /* \"CandyCreator721AUpgradeable.sol\":18029:18043  base = baseURI */\n      0x20\n      dup5\n      add\n      swap1\n      tag_378\n      jump\t// in\n    tag_377:\n      pop\n        /* \"CandyCreator721AUpgradeable.sol\":17959:18050  function setBaseURI(string memory baseURI) public onlyOwner {... */\n      pop\n      jump\t// out\n        /* \"ERC721A/ERC721AUpgradeable.sol\":7972:8095  function ownerOf(uint256 tokenId) public view override returns (address) {... */\n    tag_152:\n        /* \"ERC721A/ERC721AUpgradeable.sol\":8036:8043  address */\n      0x00\n        /* \"ERC721A/ERC721AUpgradeable.sol\":8062:8083  _ownershipOf(tokenId) */\n      tag_381\n        /* \"ERC721A/ERC721AUpgradeable.sol\":8075:8082  tokenId */\n      dup3\n        /* \"ERC721A/ERC721AUpgradeable.sol\":8062:8074  _ownershipOf */\n      tag_382\n        /* \"ERC721A/ERC721AUpgradeable.sol\":8062:8083  _ownershipOf(tokenId) */\n      jump\t// in\n    tag_381:\n        /* \"ERC721A/ERC721AUpgradeable.sol\":8062:8088  _ownershipOf(tokenId).addr */\n      mload\n      swap3\n        /* \"ERC721A/ERC721AUpgradeable.sol\":7972:8095  function ownerOf(uint256 tokenId) public view override returns (address) {... */\n      swap2\n      pop\n      pop\n      jump\t// out\n        /* \"CandyCreator721AUpgradeable.sol\":5537:6623  function initialize(... */\n    tag_158:\n        /* \"@openzeppelin/contracts-upgradeable/proxy/utils/Initializable.sol\":2369:2382  _initializing */\n      sload(0x00)\n      0x0100\n      swap1\n      div\n      0xff\n      and\n        /* \"@openzeppelin/contracts-upgradeable/proxy/utils/Initializable.sol\":2369:2417  _initializing ? _isConstructor() : !_initialized */\n      tag_384\n      jumpi\n        /* \"@openzeppelin/contracts-upgradeable/proxy/utils/Initializable.sol\":2405:2417  _initialized */\n      and(0xff, sload(0x00))\n        /* \"@openzeppelin/contracts-upgradeable/proxy/utils/Initializable.sol\":2404:2417  !_initialized */\n      iszero\n        /* \"@openzeppelin/contracts-upgradeable/proxy/utils/Initializable.sol\":2369:2417  _initializing ? _isConstructor() : !_initialized */\n      jump(tag_386)\n    tag_384:\n        /* \"@openzeppelin/contracts-upgradeable/proxy/utils/Initializable.sol\":3147:3151  this */\n      address\n        /* \"@openzeppelin/contracts-upgradeable/utils/AddressUpgradeable.sol\":1476:1495  account.code.length */\n      extcodesize\n        /* \"@openzeppelin/contracts-upgradeable/utils/AddressUpgradeable.sol\":1476:1499  account.code.length > 0 */\n      iszero\n        /* \"@openzeppelin/contracts-upgradeable/proxy/utils/Initializable.sol\":2385:2401  _isConstructor() */\n    tag_386:\n        /* \"@openzeppelin/contracts-upgradeable/proxy/utils/Initializable.sol\":2361:2468  require(_initializing ? _isConstructor() : !_initialized, \"Initializable: contract is already initialized\") */\n      tag_388\n      jumpi\n      mload(0x40)\n      shl(0xe5, 0x461bcd)\n      dup2\n      mstore\n        /* \"#utility.yul\":13306:13308   */\n      0x20\n        /* \"@openzeppelin/contracts-upgradeable/proxy/utils/Initializable.sol\":2361:2468  require(_initializing ? _isConstructor() : !_initialized, \"Initializable: contract is already initialized\") */\n      0x04\n      dup3\n      add\n        /* \"#utility.yul\":13288:13309   */\n      mstore\n        /* \"#utility.yul\":13345:13347   */\n      0x2e\n        /* \"#utility.yul\":13325:13343   */\n      0x24\n      dup3\n      add\n        /* \"#utility.yul\":13318:13348   */\n      mstore\n        /* \"#utility.yul\":13384:13418   */\n      0x496e697469616c697a61626c653a20636f6e747261637420697320616c726561\n        /* \"#utility.yul\":13364:13382   */\n      0x44\n      dup3\n      add\n        /* \"#utility.yul\":13357:13419   */\n      mstore\n      shl(0x92, 0x191e481a5b9a5d1a585b1a5e9959)\n        /* \"#utility.yul\":13435:13453   */\n      0x64\n      dup3\n      add\n        /* \"#utility.yul\":13428:13472   */\n      mstore\n        /* \"#utility.yul\":13489:13508   */\n      0x84\n      add\n        /* \"@openzeppelin/contracts-upgradeable/proxy/utils/Initializable.sol\":2361:2468  require(_initializing ? _isConstructor() : !_initialized, \"Initializable: contract is already initialized\") */\n      tag_364\n        /* \"#utility.yul\":13104:13514   */\n      jump\n        /* \"@openzeppelin/contracts-upgradeable/proxy/utils/Initializable.sol\":2361:2468  require(_initializing ? _isConstructor() : !_initialized, \"Initializable: contract is already initialized\") */\n    tag_388:\n        /* \"@openzeppelin/contracts-upgradeable/proxy/utils/Initializable.sol\":2479:2498  bool isTopLevelCall */\n      0x00\n        /* \"@openzeppelin/contracts-upgradeable/proxy/utils/Initializable.sol\":2502:2515  _initializing */\n      sload\n      0x0100\n      swap1\n      div\n      0xff\n      and\n        /* \"@openzeppelin/contracts-upgradeable/proxy/utils/Initializable.sol\":2501:2515  !_initializing */\n      iszero\n        /* \"@openzeppelin/contracts-upgradeable/proxy/utils/Initializable.sol\":2525:2623  if (isTopLevelCall) {... */\n      dup1\n      iszero\n      tag_391\n      jumpi\n        /* \"@openzeppelin/contracts-upgradeable/proxy/utils/Initializable.sol\":2559:2572  _initializing */\n      0x00\n        /* \"@openzeppelin/contracts-upgradeable/proxy/utils/Initializable.sol\":2559:2579  _initializing = true */\n      dup1\n      sload\n      not(0xffff)\n        /* \"@openzeppelin/contracts-upgradeable/proxy/utils/Initializable.sol\":2593:2612  _initialized = true */\n      and\n      0x0101\n      or\n      swap1\n      sstore\n        /* \"@openzeppelin/contracts-upgradeable/proxy/utils/Initializable.sol\":2525:2623  if (isTopLevelCall) {... */\n    tag_391:\n        /* \"CandyCreator721AUpgradeable.sol\":6213:6241  __ERC721A_init(name, symbol) */\n      tag_393\n        /* \"CandyCreator721AUpgradeable.sol\":6228:6232  name */\n      dup11\n        /* \"CandyCreator721AUpgradeable.sol\":6234:6240  symbol */\n      dup11\n        /* \"CandyCreator721AUpgradeable.sol\":6213:6227  __ERC721A_init */\n      tag_394\n        /* \"CandyCreator721AUpgradeable.sol\":6213:6241  __ERC721A_init(name, symbol) */\n      jump\t// in\n    tag_393:\n        /* \"CandyCreator721AUpgradeable.sol\":6251:6315  setupPaymentSplit(candyWallet, splitAddresses, splitBasisPoints) */\n      tag_395\n        /* \"CandyCreator721AUpgradeable.sol\":6269:6280  candyWallet */\n      dup3\n        /* \"CandyCreator721AUpgradeable.sol\":6282:6296  splitAddresses */\n      dup7\n        /* \"CandyCreator721AUpgradeable.sol\":6298:6314  splitBasisPoints */\n      dup7\n        /* \"CandyCreator721AUpgradeable.sol\":6251:6268  setupPaymentSplit */\n      tag_396\n        /* \"CandyCreator721AUpgradeable.sol\":6251:6315  setupPaymentSplit(candyWallet, splitAddresses, splitBasisPoints) */\n      jump\t// in\n    tag_395:\n        /* \"CandyCreator721AUpgradeable.sol\":6329:6354  _whitelistMerkleRoot != 0 */\n      dup3\n      iszero\n        /* \"CandyCreator721AUpgradeable.sol\":6325:6454  if (_whitelistMerkleRoot != 0) {... */\n      tag_398\n      jumpi\n        /* \"CandyCreator721AUpgradeable.sol\":6370:6389  whitelistMerkleRoot */\n      0xfe\n        /* \"CandyCreator721AUpgradeable.sol\":6370:6412  whitelistMerkleRoot = _whitelistMerkleRoot */\n      dup4\n      swap1\n      sstore\n        /* \"CandyCreator721AUpgradeable.sol\":6426:6443  enableWhitelist() */\n      tag_398\n        /* \"CandyCreator721AUpgradeable.sol\":6426:6441  enableWhitelist */\n      tag_236\n        /* \"CandyCreator721AUpgradeable.sol\":6426:6443  enableWhitelist() */\n      jump\t// in\n    tag_398:\n        /* \"CandyCreator721AUpgradeable.sol\":6463:6495  placeholderURI = _placeholderURI */\n      dup8\n      mload\n      tag_399\n      swap1\n        /* \"CandyCreator721AUpgradeable.sol\":6463:6477  placeholderURI */\n      0xfd\n      swap1\n        /* \"CandyCreator721AUpgradeable.sol\":6463:6495  placeholderURI = _placeholderURI */\n      0x20\n      dup12\n      add\n      swap1\n      tag_378\n      jump\t// in\n    tag_399:\n      pop\n        /* \"CandyCreator721AUpgradeable.sol\":6505:6514  mintPrice */\n      0x0100\n        /* \"CandyCreator721AUpgradeable.sol\":6505:6527  mintPrice = _mintPrice */\n      dup8\n      swap1\n      sstore\n        /* \"CandyCreator721AUpgradeable.sol\":6537:6545  mintSize */\n      0x0101\n        /* \"CandyCreator721AUpgradeable.sol\":6537:6557  mintSize = _mintSize */\n      dup7\n      swap1\n      sstore\n        /* \"CandyCreator721AUpgradeable.sol\":6567:6584  maxWhitelistMints */\n      0x0102\n        /* \"CandyCreator721AUpgradeable.sol\":6567:6588  maxWhitelistMints = 2 */\n      dup1\n      sload\n      not(0xffffffffffffffff)\n      and\n        /* \"CandyCreator721AUpgradeable.sol\":6587:6588  2 */\n      0x02\n        /* \"CandyCreator721AUpgradeable.sol\":6567:6588  maxWhitelistMints = 2 */\n      swap1\n      dup2\n      or\n      swap1\n      swap2\n      sstore\n        /* \"CandyCreator721AUpgradeable.sol\":6598:6612  maxPublicMints */\n      0xff\n        /* \"CandyCreator721AUpgradeable.sol\":6598:6616  maxPublicMints = 2 */\n      sstore\n        /* \"@openzeppelin/contracts-upgradeable/proxy/utils/Initializable.sol\":2645:2711  if (isTopLevelCall) {... */\n      dup1\n      iszero\n      tag_400\n      jumpi\n        /* \"@openzeppelin/contracts-upgradeable/proxy/utils/Initializable.sol\":2695:2700  false */\n      0x00\n        /* \"@openzeppelin/contracts-upgradeable/proxy/utils/Initializable.sol\":2679:2700  _initializing = false */\n      dup1\n      sload\n      not(0xff00)\n      and\n      swap1\n      sstore\n        /* \"@openzeppelin/contracts-upgradeable/proxy/utils/Initializable.sol\":2645:2711  if (isTopLevelCall) {... */\n    tag_400:\n        /* \"@openzeppelin/contracts-upgradeable/proxy/utils/Initializable.sol\":2080:2717  {... */\n      pop\n        /* \"CandyCreator721AUpgradeable.sol\":5537:6623  function initialize(... */\n      pop\n      pop\n      pop\n      pop\n      pop\n      pop\n      pop\n      pop\n      pop\n      jump\t// out\n        /* \"ERC721A/ERC721AUpgradeable.sol\":5488:5691  function balanceOf(address owner) public view override returns (uint256) {... */\n    tag_163:\n        /* \"ERC721A/ERC721AUpgradeable.sol\":5552:5559  uint256 */\n      0x00\n      sub(shl(0xa0, 0x01), 0x01)\n        /* \"ERC721A/ERC721AUpgradeable.sol\":5575:5594  owner == address(0) */\n      dup3\n      and\n        /* \"ERC721A/ERC721AUpgradeable.sol\":5571:5631  if (owner == address(0)) revert BalanceQueryForZeroAddress() */\n      tag_402\n      jumpi\n        /* \"ERC721A/ERC721AUpgradeable.sol\":5603:5631  BalanceQueryForZeroAddress() */\n      mload(0x40)\n      shl(0xe2, 0x23d3ad81)\n      dup2\n      mstore\n      0x04\n      add\n      mload(0x40)\n      dup1\n      swap2\n      sub\n      swap1\n      revert\n        /* \"ERC721A/ERC721AUpgradeable.sol\":5571:5631  if (owner == address(0)) revert BalanceQueryForZeroAddress() */\n    tag_402:\n      pop\n      sub(shl(0xa0, 0x01), 0x01)\n        /* \"ERC721A/ERC721AUpgradeable.sol\":5656:5675  _addressData[owner] */\n      and\n      0x00\n      swap1\n      dup2\n      mstore\n        /* \"ERC721A/ERC721AUpgradeable.sol\":5656:5668  _addressData */\n      0x9c\n        /* \"ERC721A/ERC721AUpgradeable.sol\":5656:5675  _addressData[owner] */\n      0x20\n      mstore\n      0x40\n      swap1\n      keccak256\n        /* \"ERC721A/ERC721AUpgradeable.sol\":5656:5683  _addressData[owner].balance */\n      sload\n      sub(shl(0x40, 0x01), 0x01)\n      and\n      swap1\n        /* \"ERC721A/ERC721AUpgradeable.sol\":5488:5691  function balanceOf(address owner) public view override returns (uint256) {... */\n      jump\t// out\n        /* \"@openzeppelin/contracts-upgradeable/access/OwnableUpgradeable.sol\":1908:2009  function renounceOwnership() public virtual onlyOwner {... */\n    tag_167:\n        /* \"@openzeppelin/contracts-upgradeable/access/OwnableUpgradeable.sol\":1348:1354  _owner */\n      and(sub(shl(0xa0, 0x01), 0x01), sload(0x33))\n        /* \"@openzeppelin/contracts-upgradeable/utils/ContextUpgradeable.sol\":929:939  msg.sender */\n      caller\n        /* \"@openzeppelin/contracts-upgradeable/access/OwnableUpgradeable.sol\":1488:1511  owner() == _msgSender() */\n      eq\n        /* \"@openzeppelin/contracts-upgradeable/access/OwnableUpgradeable.sol\":1480:1548  require(owner() == _msgSender(), \"Ownable: caller is not the owner\") */\n      tag_406\n      jumpi\n      mload(0x40)\n      shl(0xe5, 0x461bcd)\n      dup2\n      mstore\n      0x04\n      add\n      tag_364\n      swap1\n      tag_365\n      jump\t// in\n    tag_406:\n        /* \"@openzeppelin/contracts-upgradeable/access/OwnableUpgradeable.sol\":1972:2002  _transferOwnership(address(0)) */\n      tag_409\n        /* \"@openzeppelin/contracts-upgradeable/access/OwnableUpgradeable.sol\":1999:2000  0 */\n      0x00\n        /* \"@openzeppelin/contracts-upgradeable/access/OwnableUpgradeable.sol\":1972:1990  _transferOwnership */\n      tag_410\n        /* \"@openzeppelin/contracts-upgradeable/access/OwnableUpgradeable.sol\":1972:2002  _transferOwnership(address(0)) */\n      jump\t// in\n    tag_409:\n        /* \"@openzeppelin/contracts-upgradeable/access/OwnableUpgradeable.sol\":1908:2009  function renounceOwnership() public virtual onlyOwner {... */\n      jump\t// out\n        /* \"CandyCreator721AUpgradeable.sol\":15337:15561  function disableMinting() external onlyOwner {... */\n    tag_170:\n        /* \"@openzeppelin/contracts-upgradeable/access/OwnableUpgradeable.sol\":1348:1354  _owner */\n      and(sub(shl(0xa0, 0x01), 0x01), sload(0x33))\n        /* \"@openzeppelin/contracts-upgradeable/utils/ContextUpgradeable.sol\":929:939  msg.sender */\n      caller\n        /* \"@openzeppelin/contracts-upgradeable/access/OwnableUpgradeable.sol\":1488:1511  owner() == _msgSender() */\n      eq\n        /* \"@openzeppelin/contracts-upgradeable/access/OwnableUpgradeable.sol\":1480:1548  require(owner() == _msgSender(), \"Ownable: caller is not the owner\") */\n      tag_414\n      jumpi\n      mload(0x40)\n      shl(0xe5, 0x461bcd)\n      dup2\n      mstore\n      0x04\n      add\n      tag_364\n      swap1\n      tag_365\n      jump\t// in\n    tag_414:\n        /* \"CandyCreator721AUpgradeable.sol\":15397:15410  mintingActive */\n      sload(0x0102)\n      shl(0x48, 0x01)\n      swap1\n      div\n      0xff\n      and\n        /* \"CandyCreator721AUpgradeable.sol\":15392:15437  if (!mintingActive) revert MintingNotActive() */\n      tag_417\n      jumpi\n        /* \"CandyCreator721AUpgradeable.sol\":15419:15437  MintingNotActive() */\n      mload(0x40)\n      shl(0xe0, 0x73020e4b)\n      dup2\n      mstore\n      0x04\n      add\n      mload(0x40)\n      dup1\n      swap2\n      sub\n      swap1\n      revert\n        /* \"CandyCreator721AUpgradeable.sol\":15392:15437  if (!mintingActive) revert MintingNotActive() */\n    tag_417:\n        /* \"CandyCreator721AUpgradeable.sol\":15458:15471  mintingActive */\n      0x0102\n      dup1\n      sload\n      not(shl(0x48, 0xff))\n        /* \"CandyCreator721AUpgradeable.sol\":15481:15502  mintingActive = false */\n      dup2\n      and\n      swap2\n      dup3\n      swap1\n      sstore\n        /* \"CandyCreator721AUpgradeable.sol\":15517:15554  UpdatedMintStatus(old, mintingActive) */\n      0x40\n      dup1\n      mload\n        /* \"CandyCreator721AUpgradeable.sol\":15458:15471  mintingActive */\n      0xff\n      shl(0x48, 0x01)\n      swap4\n      dup5\n      swap1\n      div\n      dup2\n      and\n        /* \"#utility.yul\":13706:13720   */\n      dup1\n      iszero\n        /* \"#utility.yul\":13699:13721   */\n      iszero\n        /* \"#utility.yul\":13681:13722   */\n      dup4\n      mstore\n        /* \"CandyCreator721AUpgradeable.sol\":15540:15553  mintingActive */\n      swap4\n      swap1\n      swap5\n      div\n      swap1\n      swap4\n      and\n        /* \"#utility.yul\":13765:13779   */\n      iszero\n        /* \"#utility.yul\":13758:13780   */\n      iszero\n        /* \"#utility.yul\":13753:13755   */\n      0x20\n        /* \"#utility.yul\":13738:13756   */\n      dup5\n      add\n        /* \"#utility.yul\":13731:13781   */\n      mstore\n        /* \"CandyCreator721AUpgradeable.sol\":15458:15471  mintingActive */\n      swap1\n      swap2\n        /* \"CandyCreator721AUpgradeable.sol\":15517:15554  UpdatedMintStatus(old, mintingActive) */\n      0x1ab1d89be1fd19dcd21c73f1d6e927e3f148097e8691bbba925bd85e34e1f0e3\n      swap2\n        /* \"#utility.yul\":13654:13672   */\n      add\n        /* \"CandyCreator721AUpgradeable.sol\":15517:15554  UpdatedMintStatus(old, mintingActive) */\n    tag_418:\n      mload(0x40)\n      dup1\n      swap2\n      sub\n      swap1\n      log1\n        /* \"CandyCreator721AUpgradeable.sol\":15382:15561  {... */\n      pop\n        /* \"CandyCreator721AUpgradeable.sol\":15337:15561  function disableMinting() external onlyOwner {... */\n      jump\t// out\n        /* \"CandyCreator721AUpgradeable.sol\":11921:11986  function release() external onlyOwner {... */\n    tag_173:\n        /* \"@openzeppelin/contracts-upgradeable/access/OwnableUpgradeable.sol\":1348:1354  _owner */\n      and(sub(shl(0xa0, 0x01), 0x01), sload(0x33))\n        /* \"@openzeppelin/contracts-upgradeable/utils/ContextUpgradeable.sol\":929:939  msg.sender */\n      caller\n        /* \"@openzeppelin/contracts-upgradeable/access/OwnableUpgradeable.sol\":1488:1511  owner() == _msgSender() */\n      eq\n        /* \"@openzeppelin/contracts-upgradeable/access/OwnableUpgradeable.sol\":1480:1548  require(owner() == _msgSender(), \"Ownable: caller is not the owner\") */\n      tag_423\n      jumpi\n      mload(0x40)\n      shl(0xe5, 0x461bcd)\n      dup2\n      mstore\n      0x04\n      add\n      tag_364\n      swap1\n      tag_365\n      jump\t// in\n    tag_423:\n        /* \"CandyCreator721AUpgradeable.sol\":11969:11979  _release() */\n      tag_409\n        /* \"CandyCreator721AUpgradeable.sol\":11969:11977  _release */\n      tag_427\n        /* \"CandyCreator721AUpgradeable.sol\":11969:11979  _release() */\n      jump\t// in\n        /* \"PaymentSplitter/CandyPaymentSplitterUpgradeable.sol\":5782:5880  function payee(uint256 index) public view returns (address) {... */\n    tag_177:\n        /* \"PaymentSplitter/CandyPaymentSplitterUpgradeable.sol\":5833:5840  address */\n      0x00\n        /* \"PaymentSplitter/CandyPaymentSplitterUpgradeable.sol\":5859:5866  _payees */\n      0xce\n        /* \"PaymentSplitter/CandyPaymentSplitterUpgradeable.sol\":5867:5872  index */\n      dup3\n        /* \"PaymentSplitter/CandyPaymentSplitterUpgradeable.sol\":5859:5873  _payees[index] */\n      dup2\n      sload\n      dup2\n      lt\n      tag_430\n      jumpi\n      tag_430\n      tag_431\n      jump\t// in\n    tag_430:\n      0x00\n      swap2\n      dup3\n      mstore\n      0x20\n      swap1\n      swap2\n      keccak256\n      add\n      sload\n      sub(shl(0xa0, 0x01), 0x01)\n      and\n      swap3\n        /* \"PaymentSplitter/CandyPaymentSplitterUpgradeable.sol\":5782:5880  function payee(uint256 index) public view returns (address) {... */\n      swap2\n      pop\n      pop\n      jump\t// out\n        /* \"CandyCreator721AUpgradeable.sol\":14910:15038  function updatePlaceholder(string calldata _placeholderURI) external onlyOwner {... */\n    tag_187:\n        /* \"@openzeppelin/contracts-upgradeable/access/OwnableUpgradeable.sol\":1348:1354  _owner */\n      and(sub(shl(0xa0, 0x01), 0x01), sload(0x33))\n        /* \"@openzeppelin/contracts-upgradeable/utils/ContextUpgradeable.sol\":929:939  msg.sender */\n      caller\n        /* \"@openzeppelin/contracts-upgradeable/access/OwnableUpgradeable.sol\":1488:1511  owner() == _msgSender() */\n      eq\n        /* \"@openzeppelin/contracts-upgradeable/access/OwnableUpgradeable.sol\":1480:1548  require(owner() == _msgSender(), \"Ownable: caller is not the owner\") */\n      tag_437\n      jumpi\n      mload(0x40)\n      shl(0xe5, 0x461bcd)\n      dup2\n      mstore\n      0x04\n      add\n      tag_364\n      swap1\n      tag_365\n      jump\t// in\n    tag_437:\n        /* \"CandyCreator721AUpgradeable.sol\":14999:15031  placeholderURI = _placeholderURI */\n      tag_300\n        /* \"CandyCreator721AUpgradeable.sol\":14999:15013  placeholderURI */\n      0xfd\n        /* \"CandyCreator721AUpgradeable.sol\":15016:15031  _placeholderURI */\n      dup4\n      dup4\n        /* \"CandyCreator721AUpgradeable.sol\":14999:15031  placeholderURI = _placeholderURI */\n      tag_441\n      jump\t// in\n        /* \"CandyCreator721AUpgradeable.sol\":16878:17101  function setMaxWhitelistMints(uint64 _amount) public onlyOwner {... */\n    tag_192:\n        /* \"@openzeppelin/contracts-upgradeable/access/OwnableUpgradeable.sol\":1348:1354  _owner */\n      and(sub(shl(0xa0, 0x01), 0x01), sload(0x33))\n        /* \"@openzeppelin/contracts-upgradeable/utils/ContextUpgradeable.sol\":929:939  msg.sender */\n      caller\n        /* \"@openzeppelin/contracts-upgradeable/access/OwnableUpgradeable.sol\":1488:1511  owner() == _msgSender() */\n      eq\n        /* \"@openzeppelin/contracts-upgradeable/access/OwnableUpgradeable.sol\":1480:1548  require(owner() == _msgSender(), \"Ownable: caller is not the owner\") */\n      tag_445\n      jumpi\n      mload(0x40)\n      shl(0xe5, 0x461bcd)\n      dup2\n      mstore\n      0x04\n      add\n      tag_364\n      swap1\n      tag_365\n      jump\t// in\n    tag_445:\n        /* \"CandyCreator721AUpgradeable.sol\":16971:16988  maxWhitelistMints */\n      0x0102\n      dup1\n      sload\n      sub(shl(0x40, 0x01), 0x01)\n        /* \"CandyCreator721AUpgradeable.sol\":16998:17025  maxWhitelistMints = _amount */\n      dup4\n      dup2\n      and\n      not(0xffffffffffffffff)\n      dup4\n      and\n      dup2\n      or\n      swap1\n      swap4\n      sstore\n        /* \"CandyCreator721AUpgradeable.sol\":17040:17094  UpdatedMaxWhitelistMints(oldAmount, maxWhitelistMints) */\n      mload(0x40)\n        /* \"CandyCreator721AUpgradeable.sol\":16971:16988  maxWhitelistMints */\n      swap2\n      and\n      swap2\n        /* \"CandyCreator721AUpgradeable.sol\":17040:17094  UpdatedMaxWhitelistMints(oldAmount, maxWhitelistMints) */\n      0x3851f4a3ce1c8adce98754722ff6f348f4714fd4850d154c71045447d3042468\n      swap2\n      tag_369\n      swap2\n        /* \"CandyCreator721AUpgradeable.sol\":16971:16988  maxWhitelistMints */\n      dup5\n        /* \"#utility.yul\":14097:14122   */\n      dup3\n      mstore\n      sub(shl(0x40, 0x01), 0x01)\n        /* \"#utility.yul\":14158:14189   */\n      and\n        /* \"#utility.yul\":14153:14155   */\n      0x20\n        /* \"#utility.yul\":14138:14156   */\n      dup3\n      add\n        /* \"#utility.yul\":14131:14190   */\n      mstore\n        /* \"#utility.yul\":14085:14087   */\n      0x40\n        /* \"#utility.yul\":14070:14088   */\n      add\n      swap1\n        /* \"#utility.yul\":13924:14196   */\n      jump\n        /* \"ERC721A/ERC721AUpgradeable.sol\":8319:8421  function symbol() public view virtual override returns (string memory) {... */\n    tag_195:\n        /* \"ERC721A/ERC721AUpgradeable.sol\":8375:8388  string memory */\n      0x60\n        /* \"ERC721A/ERC721AUpgradeable.sol\":8407:8414  _symbol */\n      0x9a\n        /* \"ERC721A/ERC721AUpgradeable.sol\":8400:8414  return _symbol */\n      dup1\n      sload\n      tag_282\n      swap1\n      tag_283\n      jump\t// in\n        /* \"ERC721A/ERC721AUpgradeable.sol\":9891:10173  function setApprovalForAll(address operator, bool approved) public virtual override {... */\n    tag_214:\n        /* \"@openzeppelin/contracts-upgradeable/utils/ContextUpgradeable.sol\":929:939  msg.sender */\n      caller\n      sub(shl(0xa0, 0x01), 0x01)\n        /* \"ERC721A/ERC721AUpgradeable.sol\":9989:10013  operator == _msgSender() */\n      dup4\n      and\n      sub\n        /* \"ERC721A/ERC721AUpgradeable.sol\":9985:10039  if (operator == _msgSender()) revert ApproveToCaller() */\n      tag_461\n      jumpi\n        /* \"ERC721A/ERC721AUpgradeable.sol\":10022:10039  ApproveToCaller() */\n      mload(0x40)\n      shl(0xe0, 0xb06307db)\n      dup2\n      mstore\n      0x04\n      add\n      mload(0x40)\n      dup1\n      swap2\n      sub\n      swap1\n      revert\n        /* \"ERC721A/ERC721AUpgradeable.sol\":9985:10039  if (operator == _msgSender()) revert ApproveToCaller() */\n    tag_461:\n        /* \"@openzeppelin/contracts-upgradeable/utils/ContextUpgradeable.sol\":929:939  msg.sender */\n      caller\n        /* \"ERC721A/ERC721AUpgradeable.sol\":10050:10082  _operatorApprovals[_msgSender()] */\n      0x00\n      dup2\n      dup2\n      mstore\n        /* \"ERC721A/ERC721AUpgradeable.sol\":10050:10068  _operatorApprovals */\n      0x9e\n        /* \"ERC721A/ERC721AUpgradeable.sol\":10050:10082  _operatorApprovals[_msgSender()] */\n      0x20\n      swap1\n      dup2\n      mstore\n      0x40\n      dup1\n      dup4\n      keccak256\n      sub(shl(0xa0, 0x01), 0x01)\n        /* \"ERC721A/ERC721AUpgradeable.sol\":10050:10092  _operatorApprovals[_msgSender()][operator] */\n      dup8\n      and\n      dup1\n      dup6\n      mstore\n      swap1\n      dup4\n      mstore\n      swap3\n      dup2\n      swap1\n      keccak256\n        /* \"ERC721A/ERC721AUpgradeable.sol\":10050:10103  _operatorApprovals[_msgSender()][operator] = approved */\n      dup1\n      sload\n      not(0xff)\n      and\n      dup7\n      iszero\n      iszero\n      swap1\n      dup2\n      or\n      swap1\n      swap2\n      sstore\n        /* \"ERC721A/ERC721AUpgradeable.sol\":10118:10166  ApprovalForAll(_msgSender(), operator, approved) */\n      swap1\n      mload\n        /* \"#utility.yul\":819:860   */\n      swap1\n      dup2\n      mstore\n        /* \"ERC721A/ERC721AUpgradeable.sol\":10050:10092  _operatorApprovals[_msgSender()][operator] */\n      swap2\n      swap3\n        /* \"@openzeppelin/contracts-upgradeable/utils/ContextUpgradeable.sol\":929:939  msg.sender */\n      swap2\n        /* \"ERC721A/ERC721AUpgradeable.sol\":10118:10166  ApprovalForAll(_msgSender(), operator, approved) */\n      0x17307eab39ab6107e8899845ad3d59bd9653f200f220920489ca2b5937696c31\n      swap2\n        /* \"#utility.yul\":792:810   */\n      add\n        /* \"ERC721A/ERC721AUpgradeable.sol\":10118:10166  ApprovalForAll(_msgSender(), operator, approved) */\n      mload(0x40)\n      dup1\n      swap2\n      sub\n      swap1\n      log3\n        /* \"ERC721A/ERC721AUpgradeable.sol\":9891:10173  function setApprovalForAll(address operator, bool approved) public virtual override {... */\n      pop\n      pop\n      jump\t// out\n        /* \"CandyCreator721AUpgradeable.sol\":17498:17710  function setMaxPublicMints(uint256 _amount) public onlyOwner {... */\n    tag_218:\n        /* \"@openzeppelin/contracts-upgradeable/access/OwnableUpgradeable.sol\":1348:1354  _owner */\n      and(sub(shl(0xa0, 0x01), 0x01), sload(0x33))\n        /* \"@openzeppelin/contracts-upgradeable/utils/ContextUpgradeable.sol\":929:939  msg.sender */\n      caller\n        /* \"@openzeppelin/contracts-upgradeable/access/OwnableUpgradeable.sol\":1488:1511  owner() == _msgSender() */\n      eq\n        /* \"@openzeppelin/contracts-upgradeable/access/OwnableUpgradeable.sol\":1480:1548  require(owner() == _msgSender(), \"Ownable: caller is not the owner\") */\n      tag_468\n      jumpi\n      mload(0x40)\n      shl(0xe5, 0x461bcd)\n      dup2\n      mstore\n      0x04\n      add\n      tag_364\n      swap1\n      tag_365\n      jump\t// in\n    tag_468:\n        /* \"CandyCreator721AUpgradeable.sol\":17589:17603  maxPublicMints */\n      0xff\n      dup1\n      sload\n        /* \"CandyCreator721AUpgradeable.sol\":17613:17637  maxPublicMints = _amount */\n      swap1\n      dup3\n      swap1\n      sstore\n        /* \"CandyCreator721AUpgradeable.sol\":17685:17702  maxWhitelistMints */\n      sload(0x0102)\n        /* \"CandyCreator721AUpgradeable.sol\":17652:17703  UpdatedMaxPublicMints(oldAmount, maxWhitelistMints) */\n      0x40\n      dup1\n      mload\n        /* \"#utility.yul\":14097:14122   */\n      dup4\n      dup2\n      mstore\n      sub(shl(0x40, 0x01), 0x01)\n        /* \"CandyCreator721AUpgradeable.sol\":17685:17702  maxWhitelistMints */\n      swap1\n      swap3\n      and\n        /* \"#utility.yul\":14153:14155   */\n      0x20\n        /* \"#utility.yul\":14138:14156   */\n      dup4\n      add\n        /* \"#utility.yul\":14131:14190   */\n      mstore\n        /* \"CandyCreator721AUpgradeable.sol\":17652:17703  UpdatedMaxPublicMints(oldAmount, maxWhitelistMints) */\n      0x439b8b0b530562f8413db2651ab1e8dcae2719da0a2d2d3d3c068ca25c29969f\n      swap2\n        /* \"#utility.yul\":14070:14088   */\n      add\n        /* \"CandyCreator721AUpgradeable.sol\":17652:17703  UpdatedMaxPublicMints(oldAmount, maxWhitelistMints) */\n      tag_369\n        /* \"#utility.yul\":13924:14196   */\n      jump\n        /* \"ERC721A/ERC721AUpgradeable.sol\":10938:11297  function safeTransferFrom(... */\n    tag_223:\n        /* \"ERC721A/ERC721AUpgradeable.sol\":11099:11127  _transfer(from, to, tokenId) */\n      tag_473\n        /* \"ERC721A/ERC721AUpgradeable.sol\":11109:11113  from */\n      dup5\n        /* \"ERC721A/ERC721AUpgradeable.sol\":11115:11117  to */\n      dup5\n        /* \"ERC721A/ERC721AUpgradeable.sol\":11119:11126  tokenId */\n      dup5\n        /* \"ERC721A/ERC721AUpgradeable.sol\":11099:11108  _transfer */\n      tag_338\n        /* \"ERC721A/ERC721AUpgradeable.sol\":11099:11127  _transfer(from, to, tokenId) */\n      jump\t// in\n    tag_473:\n      sub(shl(0xa0, 0x01), 0x01)\n        /* \"ERC721A/ERC721AUpgradeable.sol\":11141:11154  to.isContract */\n      dup4\n      and\n        /* \"@openzeppelin/contracts-upgradeable/utils/AddressUpgradeable.sol\":1476:1495  account.code.length */\n      extcodesize\n        /* \"@openzeppelin/contracts-upgradeable/utils/AddressUpgradeable.sol\":1476:1499  account.code.length > 0 */\n      iszero\n      iszero\n        /* \"ERC721A/ERC721AUpgradeable.sol\":11141:11217  to.isContract() && !_checkContractOnERC721Received(from, to, tokenId, _data) */\n      dup1\n      iszero\n      tag_476\n      jumpi\n      pop\n        /* \"ERC721A/ERC721AUpgradeable.sol\":11161:11217  _checkContractOnERC721Received(from, to, tokenId, _data) */\n      tag_477\n        /* \"ERC721A/ERC721AUpgradeable.sol\":11192:11196  from */\n      dup5\n        /* \"ERC721A/ERC721AUpgradeable.sol\":11198:11200  to */\n      dup5\n        /* \"ERC721A/ERC721AUpgradeable.sol\":11202:11209  tokenId */\n      dup5\n        /* \"ERC721A/ERC721AUpgradeable.sol\":11211:11216  _data */\n      dup5\n        /* \"ERC721A/ERC721AUpgradeable.sol\":11161:11191  _checkContractOnERC721Received */\n      tag_478\n        /* \"ERC721A/ERC721AUpgradeable.sol\":11161:11217  _checkContractOnERC721Received(from, to, tokenId, _data) */\n      jump\t// in\n    tag_477:\n        /* \"ERC721A/ERC721AUpgradeable.sol\":11160:11217  !_checkContractOnERC721Received(from, to, tokenId, _data) */\n      iszero\n        /* \"ERC721A/ERC721AUpgradeable.sol\":11141:11217  to.isContract() && !_checkContractOnERC721Received(from, to, tokenId, _data) */\n    tag_476:\n        /* \"ERC721A/ERC721AUpgradeable.sol\":11137:11291  if (to.isContract() && !_checkContractOnERC721Received(from, to, tokenId, _data)) {... */\n      iszero\n      tag_333\n      jumpi\n        /* \"ERC721A/ERC721AUpgradeable.sol\":11240:11280  TransferToNonERC721ReceiverImplementer() */\n      mload(0x40)\n      shl(0xe1, 0x68d2bf6b)\n      dup2\n      mstore\n      0x04\n      add\n      mload(0x40)\n      dup1\n      swap2\n      sub\n      swap1\n      revert\n        /* \"CandyCreator721AUpgradeable.sol\":16492:16712  function setWhitelistMerkleRoot(bytes32 _merkleRoot) public onlyOwner {... */\n    tag_228:\n        /* \"@openzeppelin/contracts-upgradeable/access/OwnableUpgradeable.sol\":1348:1354  _owner */\n      and(sub(shl(0xa0, 0x01), 0x01), sload(0x33))\n        /* \"@openzeppelin/contracts-upgradeable/utils/ContextUpgradeable.sol\":929:939  msg.sender */\n      caller\n        /* \"@openzeppelin/contracts-upgradeable/access/OwnableUpgradeable.sol\":1488:1511  owner() == _msgSender() */\n      eq\n        /* \"@openzeppelin/contracts-upgradeable/access/OwnableUpgradeable.sol\":1480:1548  require(owner() == _msgSender(), \"Ownable: caller is not the owner\") */\n      tag_483\n      jumpi\n      mload(0x40)\n      shl(0xe5, 0x461bcd)\n      dup2\n      mstore\n      0x04\n      add\n      tag_364\n      swap1\n      tag_365\n      jump\t// in\n    tag_483:\n        /* \"CandyCreator721AUpgradeable.sol\":16586:16605  whitelistMerkleRoot */\n      0xfe\n      dup1\n      sload\n        /* \"CandyCreator721AUpgradeable.sol\":16615:16648  whitelistMerkleRoot = _merkleRoot */\n      swap1\n      dup3\n      swap1\n      sstore\n        /* \"CandyCreator721AUpgradeable.sol\":16663:16705  UpdatedWhitelist(old, whitelistMerkleRoot) */\n      0x40\n      dup1\n      mload\n        /* \"#utility.yul\":13025:13050   */\n      dup3\n      dup2\n      mstore\n        /* \"#utility.yul\":13081:13083   */\n      0x20\n        /* \"#utility.yul\":13066:13084   */\n      dup2\n      add\n        /* \"#utility.yul\":13059:13093   */\n      dup5\n      swap1\n      mstore\n        /* \"CandyCreator721AUpgradeable.sol\":16663:16705  UpdatedWhitelist(old, whitelistMerkleRoot) */\n      0x1e5d0194158313989f8568b586deb425fcd9a6b46a4e6e2c43f9becc480c6bc0\n      swap2\n        /* \"#utility.yul\":12998:13016   */\n      add\n        /* \"CandyCreator721AUpgradeable.sol\":16663:16705  UpdatedWhitelist(old, whitelistMerkleRoot) */\n      tag_369\n        /* \"#utility.yul\":12851:13099   */\n      jump\n        /* \"CandyCreator721AUpgradeable.sol\":23444:24032  function tokenURI(uint256 tokenId)... */\n    tag_232:\n        /* \"CandyCreator721AUpgradeable.sol\":23557:23570  string memory */\n      0x60\n        /* \"CandyCreator721AUpgradeable.sol\":23591:23607  _exists(tokenId) */\n      tag_489\n        /* \"CandyCreator721AUpgradeable.sol\":23599:23606  tokenId */\n      dup3\n        /* \"CandyCreator721AUpgradeable.sol\":23591:23598  _exists */\n      tag_290\n        /* \"CandyCreator721AUpgradeable.sol\":23591:23607  _exists(tokenId) */\n      jump\t// in\n    tag_489:\n        /* \"CandyCreator721AUpgradeable.sol\":23586:23634  if (!_exists(tokenId)) revert NonExistentToken() */\n      tag_490\n      jumpi\n        /* \"CandyCreator721AUpgradeable.sol\":23616:23634  NonExistentToken() */\n      mload(0x40)\n      shl(0xe1, 0x4a1850bf)\n      dup2\n      mstore\n      0x04\n      add\n      mload(0x40)\n      dup1\n      swap2\n      sub\n      swap1\n      revert\n        /* \"CandyCreator721AUpgradeable.sol\":23586:23634  if (!_exists(tokenId)) revert NonExistentToken() */\n    tag_490:\n        /* \"CandyCreator721AUpgradeable.sol\":23644:23665  string memory baseURI */\n      0x00\n        /* \"CandyCreator721AUpgradeable.sol\":23668:23678  _baseURI() */\n      tag_491\n        /* \"CandyCreator721AUpgradeable.sol\":23668:23676  _baseURI */\n      tag_492\n        /* \"CandyCreator721AUpgradeable.sol\":23668:23678  _baseURI() */\n      jump\t// in\n    tag_491:\n        /* \"CandyCreator721AUpgradeable.sol\":23644:23678  string memory baseURI = _baseURI() */\n      swap1\n      pop\n        /* \"CandyCreator721AUpgradeable.sol\":23731:23732  0 */\n      0x00\n        /* \"CandyCreator721AUpgradeable.sol\":23713:23720  baseURI */\n      dup2\n        /* \"CandyCreator721AUpgradeable.sol\":23707:23728  bytes(baseURI).length */\n      mload\n        /* \"CandyCreator721AUpgradeable.sol\":23707:23732  bytes(baseURI).length > 0 */\n      gt\n        /* \"CandyCreator721AUpgradeable.sol\":23707:24025  bytes(baseURI).length > 0... */\n      tag_493\n      jumpi\n        /* \"CandyCreator721AUpgradeable.sol\":24011:24025  placeholderURI */\n      0xfd\n        /* \"CandyCreator721AUpgradeable.sol\":23707:24025  bytes(baseURI).length > 0... */\n      dup1\n      sload\n      tag_494\n      swap1\n      tag_283\n      jump\t// in\n    tag_494:\n      dup1\n      0x1f\n      add\n      0x20\n      dup1\n      swap2\n      div\n      mul\n      0x20\n      add\n      mload(0x40)\n      swap1\n      dup2\n      add\n      0x40\n      mstore\n      dup1\n      swap3\n      swap2\n      swap1\n      dup2\n      dup2\n      mstore\n      0x20\n      add\n      dup3\n      dup1\n      sload\n      tag_495\n      swap1\n      tag_283\n      jump\t// in\n    tag_495:\n      dup1\n      iszero\n      tag_496\n      jumpi\n      dup1\n      0x1f\n      lt\n      tag_497\n      jumpi\n      0x0100\n      dup1\n      dup4\n      sload\n      div\n      mul\n      dup4\n      mstore\n      swap2\n      0x20\n      add\n      swap2\n      jump(tag_496)\n    tag_497:\n      dup3\n      add\n      swap2\n      swap1\n      0x00\n      mstore\n      keccak256(0x00, 0x20)\n      swap1\n    tag_498:\n      dup2\n      sload\n      dup2\n      mstore\n      swap1\n      0x01\n      add\n      swap1\n      0x20\n      add\n      dup1\n      dup4\n      gt\n      tag_498\n      jumpi\n      dup3\n      swap1\n      sub\n      0x1f\n      and\n      dup3\n      add\n      swap2\n    tag_496:\n      pop\n      pop\n      pop\n      pop\n      pop\n      jump(tag_499)\n    tag_493:\n        /* \"CandyCreator721AUpgradeable.sol\":23821:23828  baseURI */\n      dup1\n        /* \"CandyCreator721AUpgradeable.sol\":23883:23919  StringsUpgradeable.toString(tokenId) */\n      tag_500\n        /* \"CandyCreator721AUpgradeable.sol\":23911:23918  tokenId */\n      dup5\n        /* \"CandyCreator721AUpgradeable.sol\":23883:23910  StringsUpgradeable.toString */\n      tag_501\n        /* \"CandyCreator721AUpgradeable.sol\":23883:23919  StringsUpgradeable.toString(tokenId) */\n      jump\t// in\n    tag_500:\n        /* \"CandyCreator721AUpgradeable.sol\":23779:23974  abi.encodePacked(... */\n      add(0x20, mload(0x40))\n      tag_502\n      swap3\n      swap2\n      swap1\n      tag_503\n      jump\t// in\n    tag_502:\n      mload(0x40)\n      0x20\n      dup2\n      dup4\n      sub\n      sub\n      dup2\n      mstore\n      swap1\n      0x40\n      mstore\n        /* \"CandyCreator721AUpgradeable.sol\":23707:24025  bytes(baseURI).length > 0... */\n    tag_499:\n        /* \"CandyCreator721AUpgradeable.sol\":23688:24025  return... */\n      swap4\n        /* \"CandyCreator721AUpgradeable.sol\":23444:24032  function tokenURI(uint256 tokenId)... */\n      swap3\n      pop\n      pop\n      pop\n      jump\t// out\n        /* \"CandyCreator721AUpgradeable.sol\":15708:15943  function enableWhitelist() public onlyOwner {... */\n    tag_236:\n        /* \"@openzeppelin/contracts-upgradeable/access/OwnableUpgradeable.sol\":1348:1354  _owner */\n      and(sub(shl(0xa0, 0x01), 0x01), sload(0x33))\n        /* \"@openzeppelin/contracts-upgradeable/utils/ContextUpgradeable.sol\":929:939  msg.sender */\n      caller\n        /* \"@openzeppelin/contracts-upgradeable/access/OwnableUpgradeable.sol\":1488:1511  owner() == _msgSender() */\n      eq\n        /* \"@openzeppelin/contracts-upgradeable/access/OwnableUpgradeable.sol\":1480:1548  require(owner() == _msgSender(), \"Ownable: caller is not the owner\") */\n      tag_507\n      jumpi\n      mload(0x40)\n      shl(0xe5, 0x461bcd)\n      dup2\n      mstore\n      0x04\n      add\n      tag_364\n      swap1\n      tag_365\n      jump\t// in\n    tag_507:\n        /* \"CandyCreator721AUpgradeable.sol\":15766:15781  whitelistActive */\n      sload(0x0102)\n      shl(0x40, 0x01)\n      swap1\n      div\n      0xff\n      and\n        /* \"CandyCreator721AUpgradeable.sol\":15762:15809  if (whitelistActive) revert WhitelistRequired() */\n      iszero\n      tag_510\n      jumpi\n        /* \"CandyCreator721AUpgradeable.sol\":15790:15809  WhitelistRequired() */\n      mload(0x40)\n      shl(0xe0, 0x3c664d67)\n      dup2\n      mstore\n      0x04\n      add\n      mload(0x40)\n      dup1\n      swap2\n      sub\n      swap1\n      revert\n        /* \"CandyCreator721AUpgradeable.sol\":15762:15809  if (whitelistActive) revert WhitelistRequired() */\n    tag_510:\n        /* \"CandyCreator721AUpgradeable.sol\":15830:15845  whitelistActive */\n      0x0102\n      dup1\n      sload\n      shl(0x40, 0x01)\n      not(shl(0x40, 0xff))\n        /* \"CandyCreator721AUpgradeable.sol\":15855:15877  whitelistActive = true */\n      dup3\n      and\n      dup2\n      or\n      swap3\n      dup4\n      swap1\n      sstore\n        /* \"CandyCreator721AUpgradeable.sol\":15892:15936  UpdatedWhitelistStatus(old, whitelistActive) */\n      0x40\n      dup1\n      mload\n        /* \"CandyCreator721AUpgradeable.sol\":15830:15845  whitelistActive */\n      swap3\n      dup3\n      swap1\n      div\n      0xff\n      swap1\n      dup2\n      and\n        /* \"#utility.yul\":13706:13720   */\n      dup1\n      iszero\n        /* \"#utility.yul\":13699:13721   */\n      iszero\n        /* \"#utility.yul\":13681:13722   */\n      dup6\n      mstore\n        /* \"CandyCreator721AUpgradeable.sol\":15920:15935  whitelistActive */\n      swap3\n      swap1\n      swap5\n      div\n      swap1\n      swap4\n      and\n        /* \"#utility.yul\":13765:13779   */\n      iszero\n        /* \"#utility.yul\":13758:13780   */\n      iszero\n        /* \"#utility.yul\":13753:13755   */\n      0x20\n        /* \"#utility.yul\":13738:13756   */\n      dup4\n      add\n        /* \"#utility.yul\":13731:13781   */\n      mstore\n        /* \"CandyCreator721AUpgradeable.sol\":15830:15845  whitelistActive */\n      swap2\n        /* \"CandyCreator721AUpgradeable.sol\":15892:15936  UpdatedWhitelistStatus(old, whitelistActive) */\n      0x5045eea7e64af4d857464a8347a5bbce05a99fe1e1f08a3f1ebbc61aa782b21b\n      swap2\n        /* \"#utility.yul\":13654:13672   */\n      add\n        /* \"CandyCreator721AUpgradeable.sol\":15892:15936  UpdatedWhitelistStatus(old, whitelistActive) */\n      tag_418\n        /* \"#utility.yul\":13519:13787   */\n      jump\n        /* \"CandyCreator721AUpgradeable.sol\":16013:16256  function disableWhitelist() external onlyOwner {... */\n    tag_244:\n        /* \"@openzeppelin/contracts-upgradeable/access/OwnableUpgradeable.sol\":1348:1354  _owner */\n      and(sub(shl(0xa0, 0x01), 0x01), sload(0x33))\n        /* \"@openzeppelin/contracts-upgradeable/utils/ContextUpgradeable.sol\":929:939  msg.sender */\n      caller\n        /* \"@openzeppelin/contracts-upgradeable/access/OwnableUpgradeable.sol\":1488:1511  owner() == _msgSender() */\n      eq\n        /* \"@openzeppelin/contracts-upgradeable/access/OwnableUpgradeable.sol\":1480:1548  require(owner() == _msgSender(), \"Ownable: caller is not the owner\") */\n      tag_516\n      jumpi\n      mload(0x40)\n      shl(0xe5, 0x461bcd)\n      dup2\n      mstore\n      0x04\n      add\n      tag_364\n      swap1\n      tag_365\n      jump\t// in\n    tag_516:\n        /* \"CandyCreator721AUpgradeable.sol\":16075:16090  whitelistActive */\n      sload(0x0102)\n      shl(0x40, 0x01)\n      swap1\n      div\n      0xff\n      and\n        /* \"CandyCreator721AUpgradeable.sol\":16070:16121  if (!whitelistActive) revert WhitelistNotRequired() */\n      tag_519\n      jumpi\n        /* \"CandyCreator721AUpgradeable.sol\":16099:16121  WhitelistNotRequired() */\n      mload(0x40)\n      shl(0xe1, 0x41a334cd)\n      dup2\n      mstore\n      0x04\n      add\n      mload(0x40)\n      dup1\n      swap2\n      sub\n      swap1\n      revert\n        /* \"CandyCreator721AUpgradeable.sol\":16070:16121  if (!whitelistActive) revert WhitelistNotRequired() */\n    tag_519:\n        /* \"CandyCreator721AUpgradeable.sol\":16142:16157  whitelistActive */\n      0x0102\n      dup1\n      sload\n      not(shl(0x40, 0xff))\n        /* \"CandyCreator721AUpgradeable.sol\":16167:16190  whitelistActive = false */\n      dup2\n      and\n      swap2\n      dup3\n      swap1\n      sstore\n        /* \"CandyCreator721AUpgradeable.sol\":16205:16249  UpdatedWhitelistStatus(old, whitelistActive) */\n      0x40\n      dup1\n      mload\n        /* \"CandyCreator721AUpgradeable.sol\":16142:16157  whitelistActive */\n      0xff\n      shl(0x40, 0x01)\n      swap4\n      dup5\n      swap1\n      div\n      dup2\n      and\n        /* \"#utility.yul\":13706:13720   */\n      dup1\n      iszero\n        /* \"#utility.yul\":13699:13721   */\n      iszero\n        /* \"#utility.yul\":13681:13722   */\n      dup4\n      mstore\n        /* \"CandyCreator721AUpgradeable.sol\":16233:16248  whitelistActive */\n      swap4\n      swap1\n      swap5\n      div\n      swap1\n      swap4\n      and\n        /* \"#utility.yul\":13765:13779   */\n      iszero\n        /* \"#utility.yul\":13758:13780   */\n      iszero\n        /* \"#utility.yul\":13753:13755   */\n      0x20\n        /* \"#utility.yul\":13738:13756   */\n      dup5\n      add\n        /* \"#utility.yul\":13731:13781   */\n      mstore\n        /* \"CandyCreator721AUpgradeable.sol\":16142:16157  whitelistActive */\n      swap1\n      swap2\n        /* \"CandyCreator721AUpgradeable.sol\":16205:16249  UpdatedWhitelistStatus(old, whitelistActive) */\n      0x5045eea7e64af4d857464a8347a5bbce05a99fe1e1f08a3f1ebbc61aa782b21b\n      swap2\n        /* \"#utility.yul\":13654:13672   */\n      add\n        /* \"CandyCreator721AUpgradeable.sol\":16205:16249  UpdatedWhitelistStatus(old, whitelistActive) */\n      tag_418\n        /* \"#utility.yul\":13519:13787   */\n      jump\n        /* \"CandyCreator721AUpgradeable.sol\":12423:12654  function setRoyaltyInfo(address _royaltyAddress, uint256 _basisPoints)... */\n    tag_248:\n        /* \"@openzeppelin/contracts-upgradeable/access/OwnableUpgradeable.sol\":1348:1354  _owner */\n      and(sub(shl(0xa0, 0x01), 0x01), sload(0x33))\n        /* \"@openzeppelin/contracts-upgradeable/utils/ContextUpgradeable.sol\":929:939  msg.sender */\n      caller\n        /* \"@openzeppelin/contracts-upgradeable/access/OwnableUpgradeable.sol\":1488:1511  owner() == _msgSender() */\n      eq\n        /* \"@openzeppelin/contracts-upgradeable/access/OwnableUpgradeable.sol\":1480:1548  require(owner() == _msgSender(), \"Ownable: caller is not the owner\") */\n      tag_524\n      jumpi\n      mload(0x40)\n      shl(0xe5, 0x461bcd)\n      dup2\n      mstore\n      0x04\n      add\n      tag_364\n      swap1\n      tag_365\n      jump\t// in\n    tag_524:\n        /* \"Royalties/CandyCollection2981RoyaltiesUpgradeable.sol\":2985:2999  royaltyAddress */\n      0xfa\n        /* \"Royalties/CandyCollection2981RoyaltiesUpgradeable.sol\":2985:3011  royaltyAddress = _receiver */\n      dup1\n      sload\n      not(sub(shl(0xa0, 0x01), 0x01))\n      and\n      sub(shl(0xa0, 0x01), 0x01)\n      dup5\n      and\n      or\n      swap1\n      sstore\n        /* \"Royalties/CandyCollection2981RoyaltiesUpgradeable.sol\":3017:3035  royaltyBasisPoints */\n      0xfb\n        /* \"Royalties/CandyCollection2981RoyaltiesUpgradeable.sol\":3017:3050  royaltyBasisPoints = _basisPoints */\n      dup2\n      swap1\n      sstore\n        /* \"CandyCreator721AUpgradeable.sol\":12600:12647  UpdatedRoyalties(_royaltyAddress, _basisPoints) */\n      0x40\n      dup1\n      mload\n      sub(shl(0xa0, 0x01), 0x01)\n        /* \"#utility.yul\":206:238   */\n      dup5\n      and\n        /* \"#utility.yul\":188:239   */\n      dup2\n      mstore\n        /* \"#utility.yul\":270:272   */\n      0x20\n        /* \"#utility.yul\":255:273   */\n      dup2\n      add\n        /* \"#utility.yul\":248:282   */\n      dup4\n      swap1\n      mstore\n        /* \"CandyCreator721AUpgradeable.sol\":12600:12647  UpdatedRoyalties(_royaltyAddress, _basisPoints) */\n      0x37b261884b0718cab93d62e6fe3bef710b5a1da58190a859f842d6e8b2b0b70b\n      swap2\n        /* \"#utility.yul\":161:179   */\n      add\n        /* \"CandyCreator721AUpgradeable.sol\":12600:12647  UpdatedRoyalties(_royaltyAddress, _basisPoints) */\n      tag_369\n        /* \"#utility.yul\":14:288   */\n      jump\n        /* \"CandyCreator721AUpgradeable.sol\":15078:15296  function enableMinting() external onlyOwner {... */\n    tag_255:\n        /* \"@openzeppelin/contracts-upgradeable/access/OwnableUpgradeable.sol\":1348:1354  _owner */\n      and(sub(shl(0xa0, 0x01), 0x01), sload(0x33))\n        /* \"@openzeppelin/contracts-upgradeable/utils/ContextUpgradeable.sol\":929:939  msg.sender */\n      caller\n        /* \"@openzeppelin/contracts-upgradeable/access/OwnableUpgradeable.sol\":1488:1511  owner() == _msgSender() */\n      eq\n        /* \"@openzeppelin/contracts-upgradeable/access/OwnableUpgradeable.sol\":1480:1548  require(owner() == _msgSender(), \"Ownable: caller is not the owner\") */\n      tag_534\n      jumpi\n      mload(0x40)\n      shl(0xe5, 0x461bcd)\n      dup2\n      mstore\n      0x04\n      add\n      tag_364\n      swap1\n      tag_365\n      jump\t// in\n    tag_534:\n        /* \"CandyCreator721AUpgradeable.sol\":15136:15149  mintingActive */\n      sload(0x0102)\n      shl(0x48, 0x01)\n      swap1\n      div\n      0xff\n      and\n        /* \"CandyCreator721AUpgradeable.sol\":15132:15173  if (mintingActive) revert MintingActive() */\n      iszero\n      tag_537\n      jumpi\n        /* \"CandyCreator721AUpgradeable.sol\":15158:15173  MintingActive() */\n      mload(0x40)\n      shl(0xe2, 0x3f19d529)\n      dup2\n      mstore\n      0x04\n      add\n      mload(0x40)\n      dup1\n      swap2\n      sub\n      swap1\n      revert\n        /* \"CandyCreator721AUpgradeable.sol\":15132:15173  if (mintingActive) revert MintingActive() */\n    tag_537:\n        /* \"CandyCreator721AUpgradeable.sol\":15194:15207  mintingActive */\n      0x0102\n      dup1\n      sload\n      shl(0x48, 0x01)\n      not(shl(0x48, 0xff))\n        /* \"CandyCreator721AUpgradeable.sol\":15217:15237  mintingActive = true */\n      dup3\n      and\n      dup2\n      or\n      swap3\n      dup4\n      swap1\n      sstore\n        /* \"CandyCreator721AUpgradeable.sol\":15252:15289  UpdatedMintStatus(old, mintingActive) */\n      0x40\n      dup1\n      mload\n        /* \"CandyCreator721AUpgradeable.sol\":15194:15207  mintingActive */\n      swap3\n      dup3\n      swap1\n      div\n      0xff\n      swap1\n      dup2\n      and\n        /* \"#utility.yul\":13706:13720   */\n      dup1\n      iszero\n        /* \"#utility.yul\":13699:13721   */\n      iszero\n        /* \"#utility.yul\":13681:13722   */\n      dup6\n      mstore\n        /* \"CandyCreator721AUpgradeable.sol\":15275:15288  mintingActive */\n      swap3\n      swap1\n      swap5\n      div\n      swap1\n      swap4\n      and\n        /* \"#utility.yul\":13765:13779   */\n      iszero\n        /* \"#utility.yul\":13758:13780   */\n      iszero\n        /* \"#utility.yul\":13753:13755   */\n      0x20\n        /* \"#utility.yul\":13738:13756   */\n      dup4\n      add\n        /* \"#utility.yul\":13731:13781   */\n      mstore\n        /* \"CandyCreator721AUpgradeable.sol\":15194:15207  mintingActive */\n      swap2\n        /* \"CandyCreator721AUpgradeable.sol\":15252:15289  UpdatedMintStatus(old, mintingActive) */\n      0x1ab1d89be1fd19dcd21c73f1d6e927e3f148097e8691bbba925bd85e34e1f0e3\n      swap2\n        /* \"#utility.yul\":13654:13672   */\n      add\n        /* \"CandyCreator721AUpgradeable.sol\":15252:15289  UpdatedMintStatus(old, mintingActive) */\n      tag_418\n        /* \"#utility.yul\":13519:13787   */\n      jump\n        /* \"@openzeppelin/contracts-upgradeable/access/OwnableUpgradeable.sol\":2158:2356  function transferOwnership(address newOwner) public virtual onlyOwner {... */\n    tag_265:\n        /* \"@openzeppelin/contracts-upgradeable/access/OwnableUpgradeable.sol\":1348:1354  _owner */\n      and(sub(shl(0xa0, 0x01), 0x01), sload(0x33))\n        /* \"@openzeppelin/contracts-upgradeable/utils/ContextUpgradeable.sol\":929:939  msg.sender */\n      caller\n        /* \"@openzeppelin/contracts-upgradeable/access/OwnableUpgradeable.sol\":1488:1511  owner() == _msgSender() */\n      eq\n        /* \"@openzeppelin/contracts-upgradeable/access/OwnableUpgradeable.sol\":1480:1548  require(owner() == _msgSender(), \"Ownable: caller is not the owner\") */\n      tag_543\n      jumpi\n      mload(0x40)\n      shl(0xe5, 0x461bcd)\n      dup2\n      mstore\n      0x04\n      add\n      tag_364\n      swap1\n      tag_365\n      jump\t// in\n    tag_543:\n      sub(shl(0xa0, 0x01), 0x01)\n        /* \"@openzeppelin/contracts-upgradeable/access/OwnableUpgradeable.sol\":2246:2268  newOwner != address(0) */\n      dup2\n      and\n        /* \"@openzeppelin/contracts-upgradeable/access/OwnableUpgradeable.sol\":2238:2311  require(newOwner != address(0), \"Ownable: new owner is the zero address\") */\n      tag_546\n      jumpi\n      mload(0x40)\n      shl(0xe5, 0x461bcd)\n      dup2\n      mstore\n        /* \"#utility.yul\":15433:15435   */\n      0x20\n        /* \"@openzeppelin/contracts-upgradeable/access/OwnableUpgradeable.sol\":2238:2311  require(newOwner != address(0), \"Ownable: new owner is the zero address\") */\n      0x04\n      dup3\n      add\n        /* \"#utility.yul\":15415:15436   */\n      mstore\n        /* \"#utility.yul\":15472:15474   */\n      0x26\n        /* \"#utility.yul\":15452:15470   */\n      0x24\n      dup3\n      add\n        /* \"#utility.yul\":15445:15475   */\n      mstore\n        /* \"#utility.yul\":15511:15545   */\n      0x4f776e61626c653a206e6577206f776e657220697320746865207a65726f2061\n        /* \"#utility.yul\":15491:15509   */\n      0x44\n      dup3\n      add\n        /* \"#utility.yul\":15484:15546   */\n      mstore\n      shl(0xd0, 0x646472657373)\n        /* \"#utility.yul\":15562:15580   */\n      0x64\n      dup3\n      add\n        /* \"#utility.yul\":15555:15591   */\n      mstore\n        /* \"#utility.yul\":15608:15627   */\n      0x84\n      add\n        /* \"@openzeppelin/contracts-upgradeable/access/OwnableUpgradeable.sol\":2238:2311  require(newOwner != address(0), \"Ownable: new owner is the zero address\") */\n      tag_364\n        /* \"#utility.yul\":15231:15633   */\n      jump\n        /* \"@openzeppelin/contracts-upgradeable/access/OwnableUpgradeable.sol\":2238:2311  require(newOwner != address(0), \"Ownable: new owner is the zero address\") */\n    tag_546:\n        /* \"@openzeppelin/contracts-upgradeable/access/OwnableUpgradeable.sol\":2321:2349  _transferOwnership(newOwner) */\n      tag_353\n        /* \"@openzeppelin/contracts-upgradeable/access/OwnableUpgradeable.sol\":2340:2348  newOwner */\n      dup2\n        /* \"@openzeppelin/contracts-upgradeable/access/OwnableUpgradeable.sol\":2321:2339  _transferOwnership */\n      tag_410\n        /* \"@openzeppelin/contracts-upgradeable/access/OwnableUpgradeable.sol\":2321:2349  _transferOwnership(newOwner) */\n      jump\t// in\n        /* \"CandyCreator721AUpgradeable.sol\":12893:13071  function setMintPrice(uint256 _newFee) public onlyOwner {... */\n    tag_269:\n        /* \"@openzeppelin/contracts-upgradeable/access/OwnableUpgradeable.sol\":1348:1354  _owner */\n      and(sub(shl(0xa0, 0x01), 0x01), sload(0x33))\n        /* \"@openzeppelin/contracts-upgradeable/utils/ContextUpgradeable.sol\":929:939  msg.sender */\n      caller\n        /* \"@openzeppelin/contracts-upgradeable/access/OwnableUpgradeable.sol\":1488:1511  owner() == _msgSender() */\n      eq\n        /* \"@openzeppelin/contracts-upgradeable/access/OwnableUpgradeable.sol\":1480:1548  require(owner() == _msgSender(), \"Ownable: caller is not the owner\") */\n      tag_553\n      jumpi\n      mload(0x40)\n      shl(0xe5, 0x461bcd)\n      dup2\n      mstore\n      0x04\n      add\n      tag_364\n      swap1\n      tag_365\n      jump\t// in\n    tag_553:\n        /* \"CandyCreator721AUpgradeable.sol\":12976:12985  mintPrice */\n      0x0100\n      dup1\n      sload\n        /* \"CandyCreator721AUpgradeable.sol\":12995:13014  mintPrice = _newFee */\n      swap1\n      dup3\n      swap1\n      sstore\n        /* \"CandyCreator721AUpgradeable.sol\":13029:13064  UpdatedMintPrice(oldFee, mintPrice) */\n      0x40\n      dup1\n      mload\n        /* \"#utility.yul\":13025:13050   */\n      dup3\n      dup2\n      mstore\n        /* \"#utility.yul\":13081:13083   */\n      0x20\n        /* \"#utility.yul\":13066:13084   */\n      dup2\n      add\n        /* \"#utility.yul\":13059:13093   */\n      dup5\n      swap1\n      mstore\n        /* \"CandyCreator721AUpgradeable.sol\":13029:13064  UpdatedMintPrice(oldFee, mintPrice) */\n      0x79f142b9bcccc417646eead59c29526ac8437fccd19a5368532b2648349adce1\n      swap2\n        /* \"#utility.yul\":12998:13016   */\n      add\n        /* \"CandyCreator721AUpgradeable.sol\":13029:13064  UpdatedMintPrice(oldFee, mintPrice) */\n      tag_369\n        /* \"#utility.yul\":12851:13099   */\n      jump\n        /* \"ERC721A/ERC721AUpgradeable.sol\":5085:5429  function supportsInterface(bytes4 interfaceId) public view virtual override(ERC165Upgradeable, IERC165Upgradeable) returns (bool) {... */\n    tag_280:\n        /* \"ERC721A/ERC721AUpgradeable.sol\":5209:5213  bool */\n      0x00\n      not(sub(shl(0xe0, 0x01), 0x01))\n        /* \"ERC721A/ERC721AUpgradeable.sol\":5244:5295  interfaceId == type(IERC721Upgradeable).interfaceId */\n      dup3\n      and\n      shl(0xe0, 0x80ac58cd)\n      eq\n      dup1\n        /* \"ERC721A/ERC721AUpgradeable.sol\":5244:5370  interfaceId == type(IERC721Upgradeable).interfaceId ||... */\n      tag_559\n      jumpi\n      pop\n      not(sub(shl(0xe0, 0x01), 0x01))\n        /* \"ERC721A/ERC721AUpgradeable.sol\":5311:5370  interfaceId == type(IERC721MetadataUpgradeable).interfaceId */\n      dup3\n      and\n      shl(0xe0, 0x5b5e139f)\n      eq\n        /* \"ERC721A/ERC721AUpgradeable.sol\":5244:5370  interfaceId == type(IERC721Upgradeable).interfaceId ||... */\n    tag_559:\n        /* \"ERC721A/ERC721AUpgradeable.sol\":5244:5422  interfaceId == type(IERC721Upgradeable).interfaceId ||... */\n      dup1\n      tag_279\n      jumpi\n      pop\n      shl(0xe0, 0x01ffc9a7)\n      not(sub(shl(0xe0, 0x01), 0x01))\n        /* \"@openzeppelin/contracts-upgradeable/utils/introspection/ERC165Upgradeable.sol\":1168:1219  interfaceId == type(IERC165Upgradeable).interfaceId */\n      dup4\n      and\n      eq\n        /* \"ERC721A/ERC721AUpgradeable.sol\":5386:5422  super.supportsInterface(interfaceId) */\n      tag_279\n        /* \"@openzeppelin/contracts-upgradeable/utils/introspection/ERC165Upgradeable.sol\":1060:1226  function supportsInterface(bytes4 interfaceId) public view virtual override returns (bool) {... */\n      jump\n        /* \"ERC721A/ERC721AUpgradeable.sol\":11543:11727  function _exists(uint256 tokenId) internal view returns (bool) {... */\n    tag_290:\n        /* \"ERC721A/ERC721AUpgradeable.sol\":11600:11604  bool */\n      0x00\n        /* \"ERC721A/ERC721AUpgradeable.sol\":11642:11649  tokenId */\n      dup2\n        /* \"CandyCreator721AUpgradeable.sol\":23168:23169  1 */\n      0x01\n        /* \"ERC721A/ERC721AUpgradeable.sol\":11623:11649  _startTokenId() <= tokenId */\n      gt\n      iszero\n        /* \"ERC721A/ERC721AUpgradeable.sol\":11623:11676  _startTokenId() <= tokenId && tokenId < _currentIndex */\n      dup1\n      iszero\n      tag_565\n      jumpi\n      pop\n        /* \"ERC721A/ERC721AUpgradeable.sol\":11663:11676  _currentIndex */\n      sload(0x97)\n        /* \"ERC721A/ERC721AUpgradeable.sol\":11653:11660  tokenId */\n      dup3\n        /* \"ERC721A/ERC721AUpgradeable.sol\":11653:11676  tokenId < _currentIndex */\n      lt\n        /* \"ERC721A/ERC721AUpgradeable.sol\":11623:11676  _startTokenId() <= tokenId && tokenId < _currentIndex */\n    tag_565:\n        /* \"ERC721A/ERC721AUpgradeable.sol\":11623:11720  _startTokenId() <= tokenId && tokenId < _currentIndex &&... */\n      dup1\n      iszero\n      tag_279\n      jumpi\n      pop\n      pop\n        /* \"ERC721A/ERC721AUpgradeable.sol\":11693:11713  _ownerships[tokenId] */\n      0x00\n      swap1\n      dup2\n      mstore\n        /* \"ERC721A/ERC721AUpgradeable.sol\":11693:11704  _ownerships */\n      0x9b\n        /* \"ERC721A/ERC721AUpgradeable.sol\":11693:11713  _ownerships[tokenId] */\n      0x20\n      mstore\n      0x40\n      swap1\n      keccak256\n        /* \"ERC721A/ERC721AUpgradeable.sol\":11693:11720  _ownerships[tokenId].burned */\n      sload\n      shl(0xe0, 0x01)\n      swap1\n      div\n      0xff\n      and\n        /* \"ERC721A/ERC721AUpgradeable.sol\":11692:11720  !_ownerships[tokenId].burned */\n      iszero\n      swap1\n        /* \"ERC721A/ERC721AUpgradeable.sol\":11543:11727  function _exists(uint256 tokenId) internal view returns (bool) {... */\n      jump\t// out\n        /* \"ERC721A/ERC721AUpgradeable.sol\":19495:19684  function _approve(... */\n    tag_301:\n        /* \"ERC721A/ERC721AUpgradeable.sol\":19605:19629  _tokenApprovals[tokenId] */\n      0x00\n      dup3\n      dup2\n      mstore\n        /* \"ERC721A/ERC721AUpgradeable.sol\":19605:19620  _tokenApprovals */\n      0x9d\n        /* \"ERC721A/ERC721AUpgradeable.sol\":19605:19629  _tokenApprovals[tokenId] */\n      0x20\n      mstore\n      0x40\n      dup1\n      dup3\n      keccak256\n        /* \"ERC721A/ERC721AUpgradeable.sol\":19605:19634  _tokenApprovals[tokenId] = to */\n      dup1\n      sload\n      not(sub(shl(0xa0, 0x01), 0x01))\n      and\n      sub(shl(0xa0, 0x01), 0x01)\n      dup8\n      dup2\n      and\n      swap2\n      dup3\n      or\n      swap1\n      swap3\n      sstore\n        /* \"ERC721A/ERC721AUpgradeable.sol\":19649:19677  Approval(owner, to, tokenId) */\n      swap2\n      mload\n        /* \"ERC721A/ERC721AUpgradeable.sol\":19605:19629  _tokenApprovals[tokenId] */\n      dup6\n      swap4\n        /* \"ERC721A/ERC721AUpgradeable.sol\":19649:19677  Approval(owner, to, tokenId) */\n      swap2\n      dup6\n      and\n      swap2\n      0x8c5be1e5ebec7d5bd14f71427d1e84f3dd0314c0f7b2291e5b200ac8c7c3b925\n      swap2\n      log4\n        /* \"ERC721A/ERC721AUpgradeable.sol\":19495:19684  function _approve(... */\n      pop\n      pop\n      pop\n      jump\t// out\n        /* \"@openzeppelin/contracts-upgradeable/utils/cryptography/MerkleProofUpgradeable.sol\":873:1057  function verify(... */\n    tag_322:\n        /* \"@openzeppelin/contracts-upgradeable/utils/cryptography/MerkleProofUpgradeable.sol\":994:998  bool */\n      0x00\n        /* \"@openzeppelin/contracts-upgradeable/utils/cryptography/MerkleProofUpgradeable.sol\":1046:1050  root */\n      dup3\n        /* \"@openzeppelin/contracts-upgradeable/utils/cryptography/MerkleProofUpgradeable.sol\":1017:1042  processProof(proof, leaf) */\n      tag_570\n        /* \"@openzeppelin/contracts-upgradeable/utils/cryptography/MerkleProofUpgradeable.sol\":1030:1035  proof */\n      dup6\n        /* \"@openzeppelin/contracts-upgradeable/utils/cryptography/MerkleProofUpgradeable.sol\":1037:1041  leaf */\n      dup5\n        /* \"@openzeppelin/contracts-upgradeable/utils/cryptography/MerkleProofUpgradeable.sol\":1017:1029  processProof */\n      tag_571\n        /* \"@openzeppelin/contracts-upgradeable/utils/cryptography/MerkleProofUpgradeable.sol\":1017:1042  processProof(proof, leaf) */\n      jump\t// in\n    tag_570:\n        /* \"@openzeppelin/contracts-upgradeable/utils/cryptography/MerkleProofUpgradeable.sol\":1017:1050  processProof(proof, leaf) == root */\n      eq\n      swap5\n        /* \"@openzeppelin/contracts-upgradeable/utils/cryptography/MerkleProofUpgradeable.sol\":873:1057  function verify(... */\n      swap4\n      pop\n      pop\n      pop\n      pop\n      jump\t// out\n        /* \"ERC721A/ERC721AUpgradeable.sol\":11733:11835  function _safeMint(address to, uint256 quantity) internal {... */\n    tag_332:\n        /* \"ERC721A/ERC721AUpgradeable.sol\":11801:11828  _safeMint(to, quantity, '') */\n      tag_377\n        /* \"ERC721A/ERC721AUpgradeable.sol\":11811:11813  to */\n      dup3\n        /* \"ERC721A/ERC721AUpgradeable.sol\":11815:11823  quantity */\n      dup3\n        /* \"ERC721A/ERC721AUpgradeable.sol\":11801:11828  _safeMint(to, quantity, '') */\n      mload(0x40)\n      dup1\n      0x20\n      add\n      0x40\n      mstore\n      dup1\n      0x00\n      dup2\n      mstore\n      pop\n        /* \"ERC721A/ERC721AUpgradeable.sol\":11801:11810  _safeMint */\n      tag_575\n        /* \"ERC721A/ERC721AUpgradeable.sol\":11801:11828  _safeMint(to, quantity, '') */\n      jump\t// in\n        /* \"ERC721A/ERC721AUpgradeable.sol\":14565:16647  function _transfer(... */\n    tag_338:\n        /* \"ERC721A/ERC721AUpgradeable.sol\":14675:14710  TokenOwnership memory prevOwnership */\n      0x00\n        /* \"ERC721A/ERC721AUpgradeable.sol\":14713:14734  _ownershipOf(tokenId) */\n      tag_578\n        /* \"ERC721A/ERC721AUpgradeable.sol\":14726:14733  tokenId */\n      dup3\n        /* \"ERC721A/ERC721AUpgradeable.sol\":14713:14725  _ownershipOf */\n      tag_382\n        /* \"ERC721A/ERC721AUpgradeable.sol\":14713:14734  _ownershipOf(tokenId) */\n      jump\t// in\n    tag_578:\n        /* \"ERC721A/ERC721AUpgradeable.sol\":14675:14734  TokenOwnership memory prevOwnership = _ownershipOf(tokenId) */\n      swap1\n      pop\n        /* \"ERC721A/ERC721AUpgradeable.sol\":14771:14775  from */\n      dup4\n      sub(shl(0xa0, 0x01), 0x01)\n        /* \"ERC721A/ERC721AUpgradeable.sol\":14749:14775  prevOwnership.addr != from */\n      and\n        /* \"ERC721A/ERC721AUpgradeable.sol\":14749:14762  prevOwnership */\n      dup2\n        /* \"ERC721A/ERC721AUpgradeable.sol\":14749:14767  prevOwnership.addr */\n      0x00\n      add\n      mload\n      sub(shl(0xa0, 0x01), 0x01)\n        /* \"ERC721A/ERC721AUpgradeable.sol\":14749:14775  prevOwnership.addr != from */\n      and\n      eq\n        /* \"ERC721A/ERC721AUpgradeable.sol\":14745:14812  if (prevOwnership.addr != from) revert TransferFromIncorrectOwner() */\n      tag_579\n      jumpi\n        /* \"ERC721A/ERC721AUpgradeable.sol\":14784:14812  TransferFromIncorrectOwner() */\n      mload(0x40)\n      shl(0xe8, 0xa11481)\n      dup2\n      mstore\n      0x04\n      add\n      mload(0x40)\n      dup1\n      swap2\n      sub\n      swap1\n      revert\n        /* \"ERC721A/ERC721AUpgradeable.sol\":14745:14812  if (prevOwnership.addr != from) revert TransferFromIncorrectOwner() */\n    tag_579:\n        /* \"ERC721A/ERC721AUpgradeable.sol\":14823:14845  bool isApprovedOrOwner */\n      0x00\n        /* \"@openzeppelin/contracts-upgradeable/utils/ContextUpgradeable.sol\":929:939  msg.sender */\n      caller\n      sub(shl(0xa0, 0x01), 0x01)\n        /* \"ERC721A/ERC721AUpgradeable.sol\":14849:14869  _msgSender() == from */\n      dup7\n      and\n      eq\n      dup1\n        /* \"ERC721A/ERC721AUpgradeable.sol\":14849:14921  _msgSender() == from ||... */\n      tag_582\n      jumpi\n      pop\n        /* \"ERC721A/ERC721AUpgradeable.sol\":14885:14921  isApprovedForAll(from, _msgSender()) */\n      tag_582\n        /* \"ERC721A/ERC721AUpgradeable.sol\":14902:14906  from */\n      dup6\n        /* \"@openzeppelin/contracts-upgradeable/utils/ContextUpgradeable.sol\":929:939  msg.sender */\n      caller\n        /* \"ERC721A/ERC721AUpgradeable.sol\":10239:10401  function isApprovedForAll(address owner, address operator) public view virtual override returns (bool) {... */\n      tag_258\n      jump\t// in\n        /* \"ERC721A/ERC721AUpgradeable.sol\":14885:14921  isApprovedForAll(from, _msgSender()) */\n    tag_582:\n        /* \"ERC721A/ERC721AUpgradeable.sol\":14849:14973  _msgSender() == from ||... */\n      dup1\n      tag_584\n      jumpi\n      pop\n        /* \"@openzeppelin/contracts-upgradeable/utils/ContextUpgradeable.sol\":929:939  msg.sender */\n      caller\n        /* \"ERC721A/ERC721AUpgradeable.sol\":14937:14957  getApproved(tokenId) */\n      tag_586\n        /* \"ERC721A/ERC721AUpgradeable.sol\":14949:14956  tokenId */\n      dup5\n        /* \"ERC721A/ERC721AUpgradeable.sol\":14937:14948  getApproved */\n      tag_85\n        /* \"ERC721A/ERC721AUpgradeable.sol\":14937:14957  getApproved(tokenId) */\n      jump\t// in\n    tag_586:\n      sub(shl(0xa0, 0x01), 0x01)\n        /* \"ERC721A/ERC721AUpgradeable.sol\":14937:14973  getApproved(tokenId) == _msgSender() */\n      and\n      eq\n        /* \"ERC721A/ERC721AUpgradeable.sol\":14849:14973  _msgSender() == from ||... */\n    tag_584:\n        /* \"ERC721A/ERC721AUpgradeable.sol\":14823:14974  bool isApprovedOrOwner = (_msgSender() == from ||... */\n      swap1\n      pop\n        /* \"ERC721A/ERC721AUpgradeable.sol\":14990:15007  isApprovedOrOwner */\n      dup1\n        /* \"ERC721A/ERC721AUpgradeable.sol\":14985:15051  if (!isApprovedOrOwner) revert TransferCallerNotOwnerNorApproved() */\n      tag_587\n      jumpi\n        /* \"ERC721A/ERC721AUpgradeable.sol\":15016:15051  TransferCallerNotOwnerNorApproved() */\n      mload(0x40)\n      shl(0xe1, 0x2ce44b5f)\n      dup2\n      mstore\n      0x04\n      add\n      mload(0x40)\n      dup1\n      swap2\n      sub\n      swap1\n      revert\n        /* \"ERC721A/ERC721AUpgradeable.sol\":14985:15051  if (!isApprovedOrOwner) revert TransferCallerNotOwnerNorApproved() */\n    tag_587:\n      sub(shl(0xa0, 0x01), 0x01)\n        /* \"ERC721A/ERC721AUpgradeable.sol\":15065:15081  to == address(0) */\n      dup5\n      and\n        /* \"ERC721A/ERC721AUpgradeable.sol\":15061:15113  if (to == address(0)) revert TransferToZeroAddress() */\n      tag_588\n      jumpi\n        /* \"ERC721A/ERC721AUpgradeable.sol\":15090:15113  TransferToZeroAddress() */\n      mload(0x40)\n      shl(0xe2, 0x3a954ecd)\n      dup2\n      mstore\n      0x04\n      add\n      mload(0x40)\n      dup1\n      swap2\n      sub\n      swap1\n      revert\n        /* \"ERC721A/ERC721AUpgradeable.sol\":15061:15113  if (to == address(0)) revert TransferToZeroAddress() */\n    tag_588:\n        /* \"ERC721A/ERC721AUpgradeable.sol\":15229:15264  _approve(address(0), tokenId, from) */\n      tag_591\n        /* \"ERC721A/ERC721AUpgradeable.sol\":15246:15247  0 */\n      0x00\n        /* \"ERC721A/ERC721AUpgradeable.sol\":15250:15257  tokenId */\n      dup5\n        /* \"ERC721A/ERC721AUpgradeable.sol\":15259:15263  from */\n      dup8\n        /* \"ERC721A/ERC721AUpgradeable.sol\":15229:15237  _approve */\n      tag_301\n        /* \"ERC721A/ERC721AUpgradeable.sol\":15229:15264  _approve(address(0), tokenId, from) */\n      jump\t// in\n    tag_591:\n      sub(shl(0xa0, 0x01), 0x01)\n        /* \"ERC721A/ERC721AUpgradeable.sol\":15554:15572  _addressData[from] */\n      dup6\n      dup2\n      and\n      0x00\n      swap1\n      dup2\n      mstore\n        /* \"ERC721A/ERC721AUpgradeable.sol\":15554:15566  _addressData */\n      0x9c\n        /* \"ERC721A/ERC721AUpgradeable.sol\":15554:15572  _addressData[from] */\n      0x20\n      swap1\n      dup2\n      mstore\n      0x40\n      dup1\n      dup4\n      keccak256\n        /* \"ERC721A/ERC721AUpgradeable.sol\":15554:15585  _addressData[from].balance -= 1 */\n      dup1\n      sload\n      not(0xffffffffffffffff)\n      dup1\n      dup3\n      and\n      sub(shl(0x40, 0x01), 0x01)\n      swap3\n      dup4\n      and\n      not(0x00)\n      add\n      dup4\n      and\n      or\n      swap1\n      swap3\n      sstore\n        /* \"ERC721A/ERC721AUpgradeable.sol\":15599:15615  _addressData[to] */\n      dup10\n      dup7\n      and\n      dup1\n      dup7\n      mstore\n      dup4\n      dup7\n      keccak256\n        /* \"ERC721A/ERC721AUpgradeable.sol\":15599:15628  _addressData[to].balance += 1 */\n      dup1\n      sload\n      swap4\n      dup5\n      and\n      swap4\n      dup4\n      and\n      0x01\n      swap1\n      dup2\n      add\n      dup5\n      and\n      swap5\n      swap1\n      swap5\n      or\n      swap1\n      sstore\n        /* \"ERC721A/ERC721AUpgradeable.sol\":15677:15697  _ownerships[tokenId] */\n      dup10\n      dup7\n      mstore\n        /* \"ERC721A/ERC721AUpgradeable.sol\":15677:15688  _ownerships */\n      0x9b\n        /* \"ERC721A/ERC721AUpgradeable.sol\":15677:15697  _ownerships[tokenId] */\n      swap1\n      swap5\n      mstore\n      dup3\n      dup6\n      keccak256\n        /* \"ERC721A/ERC721AUpgradeable.sol\":15711:15729  currSlot.addr = to */\n      dup1\n      sload\n      not(sub(shl(0xe0, 0x01), 0x01))\n        /* \"ERC721A/ERC721AUpgradeable.sol\":15743:15792  currSlot.startTimestamp = uint64(block.timestamp) */\n      and\n      swap1\n      swap5\n      or\n      shl(0xa0, 0x01)\n        /* \"ERC721A/ERC721AUpgradeable.sol\":15776:15791  block.timestamp */\n      timestamp\n        /* \"ERC721A/ERC721AUpgradeable.sol\":15743:15792  currSlot.startTimestamp = uint64(block.timestamp) */\n      swap1\n      swap3\n      and\n      swap2\n      swap1\n      swap2\n      mul\n      or\n      dup4\n      sstore\n        /* \"ERC721A/ERC721AUpgradeable.sol\":16062:16073  tokenId + 1 */\n      dup8\n      add\n        /* \"ERC721A/ERC721AUpgradeable.sol\":16121:16145  _ownerships[nextTokenId] */\n      dup1\n      dup5\n      mstore\n      swap3\n      keccak256\n        /* \"ERC721A/ERC721AUpgradeable.sol\":16163:16176  nextSlot.addr */\n      dup1\n      sload\n        /* \"ERC721A/ERC721AUpgradeable.sol\":15677:15697  _ownerships[tokenId] */\n      swap2\n      swap4\n        /* \"ERC721A/ERC721AUpgradeable.sol\":16121:16145  _ownerships[nextTokenId] */\n      swap1\n      swap2\n        /* \"ERC721A/ERC721AUpgradeable.sol\":16163:16176  nextSlot.addr */\n      and\n        /* \"ERC721A/ERC721AUpgradeable.sol\":16159:16536  if (nextSlot.addr == address(0)) {... */\n      tag_593\n      jumpi\n        /* \"ERC721A/ERC721AUpgradeable.sol\":16370:16383  _currentIndex */\n      sload(0x97)\n        /* \"ERC721A/ERC721AUpgradeable.sol\":16355:16366  nextTokenId */\n      dup3\n        /* \"ERC721A/ERC721AUpgradeable.sol\":16355:16383  nextTokenId != _currentIndex */\n      eq\n        /* \"ERC721A/ERC721AUpgradeable.sol\":16351:16522  if (nextTokenId != _currentIndex) {... */\n      tag_593\n      jumpi\n        /* \"ERC721A/ERC721AUpgradeable.sol\":16407:16427  nextSlot.addr = from */\n      dup1\n      sload\n        /* \"ERC721A/ERC721AUpgradeable.sol\":16475:16503  prevOwnership.startTimestamp */\n      0x20\n      dup7\n      add\n      mload\n      sub(shl(0x40, 0x01), 0x01)\n        /* \"ERC721A/ERC721AUpgradeable.sol\":16449:16503  nextSlot.startTimestamp = prevOwnership.startTimestamp */\n      and\n      shl(0xa0, 0x01)\n      mul\n      not(sub(shl(0xe0, 0x01), 0x01))\n      swap1\n      swap2\n      and\n      sub(shl(0xa0, 0x01), 0x01)\n        /* \"ERC721A/ERC721AUpgradeable.sol\":16407:16427  nextSlot.addr = from */\n      dup11\n      and\n        /* \"ERC721A/ERC721AUpgradeable.sol\":16449:16503  nextSlot.startTimestamp = prevOwnership.startTimestamp */\n      or\n      or\n      dup2\n      sstore\n        /* \"ERC721A/ERC721AUpgradeable.sol\":16351:16522  if (nextTokenId != _currentIndex) {... */\n    tag_593:\n        /* \"ERC721A/ERC721AUpgradeable.sol\":15530:16546  unchecked {... */\n      pop\n      pop\n      pop\n        /* \"ERC721A/ERC721AUpgradeable.sol\":16580:16587  tokenId */\n      dup3\n        /* \"ERC721A/ERC721AUpgradeable.sol\":16576:16578  to */\n      dup5\n      sub(shl(0xa0, 0x01), 0x01)\n        /* \"ERC721A/ERC721AUpgradeable.sol\":16561:16588  Transfer(from, to, tokenId) */\n      and\n        /* \"ERC721A/ERC721AUpgradeable.sol\":16570:16574  from */\n      dup7\n      sub(shl(0xa0, 0x01), 0x01)\n        /* \"ERC721A/ERC721AUpgradeable.sol\":16561:16588  Transfer(from, to, tokenId) */\n      and\n      0xddf252ad1be2c89b69c2b068fc378daa952ba7f163c4a11628f55a4df523b3ef\n      mload(0x40)\n      mload(0x40)\n      dup1\n      swap2\n      sub\n      swap1\n      log4\n        /* \"ERC721A/ERC721AUpgradeable.sol\":16598:16640  _afterTokenTransfers(from, to, tokenId, 1) */\n    tag_594:\n        /* \"ERC721A/ERC721AUpgradeable.sol\":14665:16647  {... */\n      pop\n      pop\n        /* \"ERC721A/ERC721AUpgradeable.sol\":14565:16647  function _transfer(... */\n      pop\n      pop\n      pop\n      jump\t// out\n        /* \"ERC721A/ERC721AUpgradeable.sol\":6831:7915  function _ownershipOf(uint256 tokenId) internal view returns (TokenOwnership memory) {... */\n    tag_382:\n      0x40\n      dup1\n      mload\n      0x60\n      dup2\n      add\n      dup3\n      mstore\n      0x00\n      dup1\n      dup3\n      mstore\n      0x20\n      dup3\n      add\n      dup2\n      swap1\n      mstore\n      swap2\n      dup2\n      add\n      swap2\n      swap1\n      swap2\n      mstore\n        /* \"ERC721A/ERC721AUpgradeable.sol\":6941:6948  tokenId */\n      dup2\n      dup1\n        /* \"CandyCreator721AUpgradeable.sol\":23168:23169  1 */\n      0x01\n        /* \"ERC721A/ERC721AUpgradeable.sol\":6987:7010  _startTokenId() <= curr */\n      gt\n      iszero\n        /* \"ERC721A/ERC721AUpgradeable.sol\":6987:7034  _startTokenId() <= curr && curr < _currentIndex */\n      dup1\n      iszero\n      tag_600\n      jumpi\n      pop\n        /* \"ERC721A/ERC721AUpgradeable.sol\":7021:7034  _currentIndex */\n      sload(0x97)\n        /* \"ERC721A/ERC721AUpgradeable.sol\":7014:7018  curr */\n      dup2\n        /* \"ERC721A/ERC721AUpgradeable.sol\":7014:7034  curr < _currentIndex */\n      lt\n        /* \"ERC721A/ERC721AUpgradeable.sol\":6987:7034  _startTokenId() <= curr && curr < _currentIndex */\n    tag_600:\n        /* \"ERC721A/ERC721AUpgradeable.sol\":6983:7851  if (_startTokenId() <= curr && curr < _currentIndex) {... */\n      iszero\n      tag_601\n      jumpi\n        /* \"ERC721A/ERC721AUpgradeable.sol\":7054:7085  TokenOwnership memory ownership */\n      0x00\n        /* \"ERC721A/ERC721AUpgradeable.sol\":7088:7105  _ownerships[curr] */\n      dup2\n      dup2\n      mstore\n        /* \"ERC721A/ERC721AUpgradeable.sol\":7088:7099  _ownerships */\n      0x9b\n        /* \"ERC721A/ERC721AUpgradeable.sol\":7088:7105  _ownerships[curr] */\n      0x20\n      swap1\n      dup2\n      mstore\n      0x40\n      swap2\n      dup3\n      swap1\n      keccak256\n        /* \"ERC721A/ERC721AUpgradeable.sol\":7054:7105  TokenOwnership memory ownership = _ownerships[curr] */\n      dup3\n      mload\n      0x60\n      dup2\n      add\n      dup5\n      mstore\n      swap1\n      sload\n      sub(shl(0xa0, 0x01), 0x01)\n      dup2\n      and\n      dup3\n      mstore\n      shl(0xa0, 0x01)\n      dup2\n      div\n      sub(shl(0x40, 0x01), 0x01)\n      and\n      swap3\n      dup3\n      add\n      swap3\n      swap1\n      swap3\n      mstore\n      shl(0xe0, 0x01)\n      swap1\n      swap2\n      div\n      0xff\n      and\n      iszero\n      iszero\n      swap2\n      dup2\n      add\n      dup3\n      swap1\n      mstore\n      swap1\n        /* \"ERC721A/ERC721AUpgradeable.sol\":7123:7837  if (!ownership.burned) {... */\n      tag_605\n      jumpi\n        /* \"ERC721A/ERC721AUpgradeable.sol\":7172:7186  ownership.addr */\n      dup1\n      mload\n      sub(shl(0xa0, 0x01), 0x01)\n        /* \"ERC721A/ERC721AUpgradeable.sol\":7172:7200  ownership.addr != address(0) */\n      and\n      iszero\n        /* \"ERC721A/ERC721AUpgradeable.sol\":7168:7267  if (ownership.addr != address(0)) {... */\n      tag_603\n      jumpi\n        /* \"ERC721A/ERC721AUpgradeable.sol\":7235:7244  ownership */\n      swap4\n        /* \"ERC721A/ERC721AUpgradeable.sol\":6831:7915  function _ownershipOf(uint256 tokenId) internal view returns (TokenOwnership memory) {... */\n      swap3\n      pop\n      pop\n      pop\n      jump\t// out\n        /* \"ERC721A/ERC721AUpgradeable.sol\":7168:7267  if (ownership.addr != address(0)) {... */\n    tag_603:\n      pop\n      not(0x00)\n        /* \"ERC721A/ERC721AUpgradeable.sol\":7603:7609  curr-- */\n      add\n        /* \"ERC721A/ERC721AUpgradeable.sol\":7647:7664  _ownerships[curr] */\n      0x00\n      dup2\n      dup2\n      mstore\n        /* \"ERC721A/ERC721AUpgradeable.sol\":7647:7658  _ownerships */\n      0x9b\n        /* \"ERC721A/ERC721AUpgradeable.sol\":7647:7664  _ownerships[curr] */\n      0x20\n      swap1\n      dup2\n      mstore\n      0x40\n      swap2\n      dup3\n      swap1\n      keccak256\n        /* \"ERC721A/ERC721AUpgradeable.sol\":7635:7664  ownership = _ownerships[curr] */\n      dup3\n      mload\n      0x60\n      dup2\n      add\n      dup5\n      mstore\n      swap1\n      sload\n      sub(shl(0xa0, 0x01), 0x01)\n      dup2\n      and\n      dup1\n      dup4\n      mstore\n      shl(0xa0, 0x01)\n      dup3\n      div\n      sub(shl(0x40, 0x01), 0x01)\n      and\n      swap4\n      dup4\n      add\n      swap4\n      swap1\n      swap4\n      mstore\n      shl(0xe0, 0x01)\n      swap1\n      div\n      0xff\n      and\n      iszero\n      iszero\n      swap3\n      dup2\n      add\n      swap3\n      swap1\n      swap3\n      mstore\n        /* \"ERC721A/ERC721AUpgradeable.sol\":7694:7722  ownership.addr != address(0) */\n      iszero\n        /* \"ERC721A/ERC721AUpgradeable.sol\":7690:7797  if (ownership.addr != address(0)) {... */\n      tag_606\n      jumpi\n        /* \"ERC721A/ERC721AUpgradeable.sol\":7761:7770  ownership */\n      swap4\n        /* \"ERC721A/ERC721AUpgradeable.sol\":6831:7915  function _ownershipOf(uint256 tokenId) internal view returns (TokenOwnership memory) {... */\n      swap3\n      pop\n      pop\n      pop\n      jump\t// out\n        /* \"ERC721A/ERC721AUpgradeable.sol\":7690:7797  if (ownership.addr != address(0)) {... */\n    tag_606:\n        /* \"ERC721A/ERC721AUpgradeable.sol\":7564:7819  while (true) {... */\n      jump(tag_603)\n    tag_605:\n        /* \"ERC721A/ERC721AUpgradeable.sol\":7036:7851  {... */\n      pop\n        /* \"ERC721A/ERC721AUpgradeable.sol\":6983:7851  if (_startTokenId() <= curr && curr < _currentIndex) {... */\n    tag_601:\n        /* \"ERC721A/ERC721AUpgradeable.sol\":7877:7908  OwnerQueryForNonexistentToken() */\n      mload(0x40)\n      shl(0xe1, 0x6f96cda1)\n      dup2\n      mstore\n      0x04\n      add\n      mload(0x40)\n      dup1\n      swap2\n      sub\n      swap1\n      revert\n        /* \"ERC721A/ERC721AUpgradeable.sol\":3686:3837  function __ERC721A_init(string memory name_, string memory symbol_) internal onlyInitializing {... */\n    tag_394:\n        /* \"@openzeppelin/contracts-upgradeable/proxy/utils/Initializable.sol\":2952:2965  _initializing */\n      sload(0x00)\n      0x0100\n      swap1\n      div\n      0xff\n      and\n        /* \"@openzeppelin/contracts-upgradeable/proxy/utils/Initializable.sol\":2944:3013  require(_initializing, \"Initializable: contract is not initializing\") */\n      tag_610\n      jumpi\n      mload(0x40)\n      shl(0xe5, 0x461bcd)\n      dup2\n      mstore\n      0x04\n      add\n      tag_364\n      swap1\n      tag_612\n      jump\t// in\n    tag_610:\n        /* \"ERC721A/ERC721AUpgradeable.sol\":3790:3830  __ERC721A_init_unchained(name_, symbol_) */\n      tag_377\n        /* \"ERC721A/ERC721AUpgradeable.sol\":3815:3820  name_ */\n      dup3\n        /* \"ERC721A/ERC721AUpgradeable.sol\":3822:3829  symbol_ */\n      dup3\n        /* \"ERC721A/ERC721AUpgradeable.sol\":3790:3814  __ERC721A_init_unchained */\n      tag_615\n        /* \"ERC721A/ERC721AUpgradeable.sol\":3790:3830  __ERC721A_init_unchained(name_, symbol_) */\n      jump\t// in\n        /* \"CandyCreator721AUpgradeable.sol\":7043:7536  function setupPaymentSplit(address candyWallet, address[] memory splitAddresses, uint256[] memory splitBasisPoints) private onlyInitializing {... */\n    tag_396:\n        /* \"@openzeppelin/contracts-upgradeable/proxy/utils/Initializable.sol\":2952:2965  _initializing */\n      sload(0x00)\n      0x0100\n      swap1\n      div\n      0xff\n      and\n        /* \"@openzeppelin/contracts-upgradeable/proxy/utils/Initializable.sol\":2944:3013  require(_initializing, \"Initializable: contract is not initializing\") */\n      tag_617\n      jumpi\n      mload(0x40)\n      shl(0xe5, 0x461bcd)\n      dup2\n      mstore\n      0x04\n      add\n      tag_364\n      swap1\n      tag_612\n      jump\t// in\n    tag_617:\n        /* \"CandyCreator721AUpgradeable.sol\":7194:7220  addPayee(candyWallet, 500) */\n      tag_620\n        /* \"CandyCreator721AUpgradeable.sol\":7203:7214  candyWallet */\n      dup4\n        /* \"CandyCreator721AUpgradeable.sol\":7216:7219  500 */\n      0x01f4\n        /* \"CandyCreator721AUpgradeable.sol\":7194:7202  addPayee */\n      tag_621\n        /* \"CandyCreator721AUpgradeable.sol\":7194:7220  addPayee(candyWallet, 500) */\n      jump\t// in\n    tag_620:\n        /* \"CandyCreator721AUpgradeable.sol\":7234:7248  splitAddresses */\n      dup2\n        /* \"CandyCreator721AUpgradeable.sol\":7234:7255  splitAddresses.length */\n      mload\n        /* \"CandyCreator721AUpgradeable.sol\":7259:7260  0 */\n      0x00\n        /* \"CandyCreator721AUpgradeable.sol\":7234:7260  splitAddresses.length == 0 */\n      sub\n        /* \"CandyCreator721AUpgradeable.sol\":7230:7530  if (splitAddresses.length == 0) {... */\n      tag_622\n      jumpi\n        /* \"CandyCreator721AUpgradeable.sol\":7276:7304  addPayee(_msgSender(), 9500) */\n      tag_623\n        /* \"@openzeppelin/contracts-upgradeable/utils/ContextUpgradeable.sol\":929:939  msg.sender */\n      caller\n        /* \"CandyCreator721AUpgradeable.sol\":7299:7303  9500 */\n      0x251c\n        /* \"CandyCreator721AUpgradeable.sol\":7276:7284  addPayee */\n      tag_621\n        /* \"CandyCreator721AUpgradeable.sol\":7276:7304  addPayee(_msgSender(), 9500) */\n      jump\t// in\n    tag_623:\n        /* \"CandyCreator721AUpgradeable.sol\":7318:7330  lockPayees() */\n      tag_300\n        /* \"CandyCreator721AUpgradeable.sol\":7318:7328  lockPayees */\n      tag_626\n        /* \"CandyCreator721AUpgradeable.sol\":7318:7330  lockPayees() */\n      jump\t// in\n        /* \"CandyCreator721AUpgradeable.sol\":7230:7530  if (splitAddresses.length == 0) {... */\n    tag_622:\n        /* \"CandyCreator721AUpgradeable.sol\":7366:7375  uint256 i */\n      0x00\n        /* \"CandyCreator721AUpgradeable.sol\":7361:7494  for (uint256 i = 0; i < splitAddresses.length; i++) {... */\n    tag_628:\n        /* \"CandyCreator721AUpgradeable.sol\":7385:7399  splitAddresses */\n      dup3\n        /* \"CandyCreator721AUpgradeable.sol\":7385:7406  splitAddresses.length */\n      mload\n        /* \"CandyCreator721AUpgradeable.sol\":7381:7382  i */\n      dup2\n        /* \"CandyCreator721AUpgradeable.sol\":7381:7406  i < splitAddresses.length */\n      lt\n        /* \"CandyCreator721AUpgradeable.sol\":7361:7494  for (uint256 i = 0; i < splitAddresses.length; i++) {... */\n      iszero\n      tag_629\n      jumpi\n        /* \"CandyCreator721AUpgradeable.sol\":7431:7479  addPayee(splitAddresses[i], splitBasisPoints[i]) */\n      tag_631\n        /* \"CandyCreator721AUpgradeable.sol\":7440:7454  splitAddresses */\n      dup4\n        /* \"CandyCreator721AUpgradeable.sol\":7455:7456  i */\n      dup3\n        /* \"CandyCreator721AUpgradeable.sol\":7440:7457  splitAddresses[i] */\n      dup2\n      mload\n      dup2\n      lt\n      tag_633\n      jumpi\n      tag_633\n      tag_431\n      jump\t// in\n    tag_633:\n      0x20\n      mul\n      0x20\n      add\n      add\n      mload\n        /* \"CandyCreator721AUpgradeable.sol\":7459:7475  splitBasisPoints */\n      dup4\n        /* \"CandyCreator721AUpgradeable.sol\":7476:7477  i */\n      dup4\n        /* \"CandyCreator721AUpgradeable.sol\":7459:7478  splitBasisPoints[i] */\n      dup2\n      mload\n      dup2\n      lt\n      tag_635\n      jumpi\n      tag_635\n      tag_431\n      jump\t// in\n    tag_635:\n      0x20\n      mul\n      0x20\n      add\n      add\n      mload\n        /* \"CandyCreator721AUpgradeable.sol\":7431:7439  addPayee */\n      tag_621\n        /* \"CandyCreator721AUpgradeable.sol\":7431:7479  addPayee(splitAddresses[i], splitBasisPoints[i]) */\n      jump\t// in\n    tag_631:\n        /* \"CandyCreator721AUpgradeable.sol\":7408:7411  i++ */\n      dup1\n      tag_636\n      dup2\n      tag_637\n      jump\t// in\n    tag_636:\n      swap2\n      pop\n      pop\n        /* \"CandyCreator721AUpgradeable.sol\":7361:7494  for (uint256 i = 0; i < splitAddresses.length; i++) {... */\n      jump(tag_628)\n    tag_629:\n      pop\n        /* \"CandyCreator721AUpgradeable.sol\":7507:7519  lockPayees() */\n      tag_300\n        /* \"CandyCreator721AUpgradeable.sol\":7507:7517  lockPayees */\n      tag_626\n        /* \"CandyCreator721AUpgradeable.sol\":7507:7519  lockPayees() */\n      jump\t// in\n        /* \"@openzeppelin/contracts-upgradeable/access/OwnableUpgradeable.sol\":2510:2697  function _transferOwnership(address newOwner) internal virtual {... */\n    tag_410:\n        /* \"@openzeppelin/contracts-upgradeable/access/OwnableUpgradeable.sol\":2602:2608  _owner */\n      0x33\n      dup1\n      sload\n      sub(shl(0xa0, 0x01), 0x01)\n        /* \"@openzeppelin/contracts-upgradeable/access/OwnableUpgradeable.sol\":2618:2635  _owner = newOwner */\n      dup4\n      dup2\n      and\n      not(sub(shl(0xa0, 0x01), 0x01))\n      dup4\n      and\n      dup2\n      or\n      swap1\n      swap4\n      sstore\n        /* \"@openzeppelin/contracts-upgradeable/access/OwnableUpgradeable.sol\":2650:2690  OwnershipTransferred(oldOwner, newOwner) */\n      mload(0x40)\n        /* \"@openzeppelin/contracts-upgradeable/access/OwnableUpgradeable.sol\":2602:2608  _owner */\n      swap2\n      and\n      swap2\n        /* \"@openzeppelin/contracts-upgradeable/access/OwnableUpgradeable.sol\":2618:2635  _owner = newOwner */\n      swap1\n        /* \"@openzeppelin/contracts-upgradeable/access/OwnableUpgradeable.sol\":2602:2608  _owner */\n      dup3\n      swap1\n        /* \"@openzeppelin/contracts-upgradeable/access/OwnableUpgradeable.sol\":2650:2690  OwnershipTransferred(oldOwner, newOwner) */\n      0x8be0079c531659141344cd1fd0a4f28419497f9722a3daafe3b4186f6b6457e0\n      swap1\n        /* \"@openzeppelin/contracts-upgradeable/access/OwnableUpgradeable.sol\":2583:2599  address oldOwner */\n      0x00\n      swap1\n        /* \"@openzeppelin/contracts-upgradeable/access/OwnableUpgradeable.sol\":2650:2690  OwnershipTransferred(oldOwner, newOwner) */\n      log3\n        /* \"@openzeppelin/contracts-upgradeable/access/OwnableUpgradeable.sol\":2573:2697  {... */\n      pop\n        /* \"@openzeppelin/contracts-upgradeable/access/OwnableUpgradeable.sol\":2510:2697  function _transferOwnership(address newOwner) internal virtual {... */\n      pop\n      jump\t// out\n        /* \"PaymentSplitter/CandyPaymentSplitterUpgradeable.sol\":5978:6636  function _release() internal {... */\n    tag_427:\n        /* \"PaymentSplitter/CandyPaymentSplitterUpgradeable.sol\":6021:6042  address(this).balance */\n      selfbalance\n        /* \"PaymentSplitter/CandyPaymentSplitterUpgradeable.sol\":6046:6047  0 */\n      0x00\n        /* \"PaymentSplitter/CandyPaymentSplitterUpgradeable.sol\":6021:6047  address(this).balance == 0 */\n      sub\n        /* \"PaymentSplitter/CandyPaymentSplitterUpgradeable.sol\":6017:6069  if (address(this).balance == 0) revert ZeroBalance() */\n      tag_641\n      jumpi\n        /* \"PaymentSplitter/CandyPaymentSplitterUpgradeable.sol\":6056:6069  ZeroBalance() */\n      mload(0x40)\n      shl(0xe1, 0x334ab3f5)\n      dup2\n      mstore\n      0x04\n      add\n      mload(0x40)\n      dup1\n      swap2\n      sub\n      swap1\n      revert\n        /* \"PaymentSplitter/CandyPaymentSplitterUpgradeable.sol\":6017:6069  if (address(this).balance == 0) revert ZeroBalance() */\n    tag_641:\n        /* \"PaymentSplitter/CandyPaymentSplitterUpgradeable.sol\":6084:6093  uint256 i */\n      0x00\n        /* \"PaymentSplitter/CandyPaymentSplitterUpgradeable.sol\":6079:6630  for (uint256 i = 0; i < _numPayees.current(); i++) {... */\n    tag_642:\n        /* \"PaymentSplitter/CandyPaymentSplitterUpgradeable.sol\":6103:6113  _numPayees */\n      0xc9\n        /* \"@openzeppelin/contracts-upgradeable/utils/CountersUpgradeable.sol\":929:943  counter._value */\n      sload\n        /* \"PaymentSplitter/CandyPaymentSplitterUpgradeable.sol\":6099:6100  i */\n      dup2\n        /* \"PaymentSplitter/CandyPaymentSplitterUpgradeable.sol\":6099:6123  i < _numPayees.current() */\n      lt\n        /* \"PaymentSplitter/CandyPaymentSplitterUpgradeable.sol\":6079:6630  for (uint256 i = 0; i < _numPayees.current(); i++) {... */\n      iszero\n      tag_353\n      jumpi\n        /* \"PaymentSplitter/CandyPaymentSplitterUpgradeable.sol\":6144:6159  address account */\n      0x00\n        /* \"PaymentSplitter/CandyPaymentSplitterUpgradeable.sol\":6162:6170  payee(i) */\n      tag_647\n        /* \"PaymentSplitter/CandyPaymentSplitterUpgradeable.sol\":6168:6169  i */\n      dup3\n        /* \"PaymentSplitter/CandyPaymentSplitterUpgradeable.sol\":6162:6167  payee */\n      tag_177\n        /* \"PaymentSplitter/CandyPaymentSplitterUpgradeable.sol\":6162:6170  payee(i) */\n      jump\t// in\n    tag_647:\n        /* \"PaymentSplitter/CandyPaymentSplitterUpgradeable.sol\":6144:6170  address account = payee(i) */\n      swap1\n      pop\n        /* \"PaymentSplitter/CandyPaymentSplitterUpgradeable.sol\":6184:6205  uint256 totalReceived */\n      0x00\n        /* \"PaymentSplitter/CandyPaymentSplitterUpgradeable.sol\":6232:6246  _totalReleased */\n      sload(0xcb)\n        /* \"PaymentSplitter/CandyPaymentSplitterUpgradeable.sol\":6208:6229  address(this).balance */\n      selfbalance\n        /* \"PaymentSplitter/CandyPaymentSplitterUpgradeable.sol\":6208:6246  address(this).balance + _totalReleased */\n      tag_648\n      swap2\n      swap1\n      tag_315\n      jump\t// in\n    tag_648:\n      sub(shl(0xa0, 0x01), 0x01)\n        /* \"PaymentSplitter/CandyPaymentSplitterUpgradeable.sol\":6362:6380  _released[account] */\n      dup4\n      and\n        /* \"PaymentSplitter/CandyPaymentSplitterUpgradeable.sol\":6260:6275  uint256 payment */\n      0x00\n        /* \"PaymentSplitter/CandyPaymentSplitterUpgradeable.sol\":6362:6380  _released[account] */\n      swap1\n      dup2\n      mstore\n        /* \"PaymentSplitter/CandyPaymentSplitterUpgradeable.sol\":6362:6371  _released */\n      0xcd\n        /* \"PaymentSplitter/CandyPaymentSplitterUpgradeable.sol\":6362:6380  _released[account] */\n      0x20\n      swap1\n      dup2\n      mstore\n      0x40\n      dup1\n      dup4\n      keccak256\n      sload\n        /* \"PaymentSplitter/CandyPaymentSplitterUpgradeable.sol\":6331:6343  _totalShares */\n      sload(0xca)\n        /* \"PaymentSplitter/CandyPaymentSplitterUpgradeable.sol\":6295:6302  _shares */\n      0xcc\n        /* \"PaymentSplitter/CandyPaymentSplitterUpgradeable.sol\":6295:6311  _shares[account] */\n      swap1\n      swap4\n      mstore\n      swap1\n      dup4\n      keccak256\n      sload\n        /* \"PaymentSplitter/CandyPaymentSplitterUpgradeable.sol\":6184:6246  uint256 totalReceived = address(this).balance + _totalReleased */\n      swap4\n      swap5\n      pop\n        /* \"PaymentSplitter/CandyPaymentSplitterUpgradeable.sol\":6260:6275  uint256 payment */\n      swap2\n      swap3\n        /* \"PaymentSplitter/CandyPaymentSplitterUpgradeable.sol\":6279:6311  totalReceived * _shares[account] */\n      tag_649\n      swap1\n        /* \"PaymentSplitter/CandyPaymentSplitterUpgradeable.sol\":6184:6246  uint256 totalReceived = address(this).balance + _totalReleased */\n      dup6\n        /* \"PaymentSplitter/CandyPaymentSplitterUpgradeable.sol\":6279:6311  totalReceived * _shares[account] */\n      tag_310\n      jump\t// in\n    tag_649:\n        /* \"PaymentSplitter/CandyPaymentSplitterUpgradeable.sol\":6278:6343  (totalReceived * _shares[account]) /... */\n      tag_650\n      swap2\n      swap1\n      tag_342\n      jump\t// in\n    tag_650:\n        /* \"PaymentSplitter/CandyPaymentSplitterUpgradeable.sol\":6278:6380  (totalReceived * _shares[account]) /... */\n      tag_651\n      swap2\n      swap1\n      tag_652\n      jump\t// in\n    tag_651:\n      sub(shl(0xa0, 0x01), 0x01)\n        /* \"PaymentSplitter/CandyPaymentSplitterUpgradeable.sol\":6415:6433  _released[account] */\n      dup5\n      and\n      0x00\n      swap1\n      dup2\n      mstore\n        /* \"PaymentSplitter/CandyPaymentSplitterUpgradeable.sol\":6415:6424  _released */\n      0xcd\n        /* \"PaymentSplitter/CandyPaymentSplitterUpgradeable.sol\":6415:6433  _released[account] */\n      0x20\n      mstore\n      0x40\n      swap1\n      keccak256\n      sload\n        /* \"PaymentSplitter/CandyPaymentSplitterUpgradeable.sol\":6260:6380  uint256 payment = (totalReceived * _shares[account]) /... */\n      swap1\n      swap2\n      pop\n        /* \"PaymentSplitter/CandyPaymentSplitterUpgradeable.sol\":6415:6443  _released[account] + payment */\n      tag_653\n      swap1\n        /* \"PaymentSplitter/CandyPaymentSplitterUpgradeable.sol\":6260:6380  uint256 payment = (totalReceived * _shares[account]) /... */\n      dup3\n      swap1\n        /* \"PaymentSplitter/CandyPaymentSplitterUpgradeable.sol\":6415:6443  _released[account] + payment */\n      tag_315\n      jump\t// in\n    tag_653:\n      sub(shl(0xa0, 0x01), 0x01)\n        /* \"PaymentSplitter/CandyPaymentSplitterUpgradeable.sol\":6394:6412  _released[account] */\n      dup5\n      and\n      0x00\n      swap1\n      dup2\n      mstore\n        /* \"PaymentSplitter/CandyPaymentSplitterUpgradeable.sol\":6394:6403  _released */\n      0xcd\n        /* \"PaymentSplitter/CandyPaymentSplitterUpgradeable.sol\":6394:6412  _released[account] */\n      0x20\n      mstore\n      0x40\n      swap1\n      keccak256\n        /* \"PaymentSplitter/CandyPaymentSplitterUpgradeable.sol\":6394:6443  _released[account] = _released[account] + payment */\n      sstore\n        /* \"PaymentSplitter/CandyPaymentSplitterUpgradeable.sol\":6474:6488  _totalReleased */\n      sload(0xcb)\n        /* \"PaymentSplitter/CandyPaymentSplitterUpgradeable.sol\":6474:6498  _totalReleased + payment */\n      tag_654\n      swap1\n        /* \"PaymentSplitter/CandyPaymentSplitterUpgradeable.sol\":6491:6498  payment */\n      dup3\n      swap1\n        /* \"PaymentSplitter/CandyPaymentSplitterUpgradeable.sol\":6474:6498  _totalReleased + payment */\n      tag_315\n      jump\t// in\n    tag_654:\n        /* \"PaymentSplitter/CandyPaymentSplitterUpgradeable.sol\":6457:6471  _totalReleased */\n      0xcb\n        /* \"PaymentSplitter/CandyPaymentSplitterUpgradeable.sol\":6457:6498  _totalReleased = _totalReleased + payment */\n      sstore\n        /* \"PaymentSplitter/CandyPaymentSplitterUpgradeable.sol\":6512:6567  AddressUpgradeable.sendValue(payable(account), payment) */\n      tag_655\n        /* \"PaymentSplitter/CandyPaymentSplitterUpgradeable.sol\":6549:6556  account */\n      dup4\n        /* \"PaymentSplitter/CandyPaymentSplitterUpgradeable.sol\":6559:6566  payment */\n      dup3\n        /* \"PaymentSplitter/CandyPaymentSplitterUpgradeable.sol\":6512:6540  AddressUpgradeable.sendValue */\n      tag_656\n        /* \"PaymentSplitter/CandyPaymentSplitterUpgradeable.sol\":6512:6567  AddressUpgradeable.sendValue(payable(account), payment) */\n      jump\t// in\n    tag_655:\n        /* \"PaymentSplitter/CandyPaymentSplitterUpgradeable.sol\":6586:6619  PaymentReleased(account, payment) */\n      0x40\n      dup1\n      mload\n      sub(shl(0xa0, 0x01), 0x01)\n        /* \"#utility.yul\":206:238   */\n      dup6\n      and\n        /* \"#utility.yul\":188:239   */\n      dup2\n      mstore\n        /* \"#utility.yul\":270:272   */\n      0x20\n        /* \"#utility.yul\":255:273   */\n      dup2\n      add\n        /* \"#utility.yul\":248:282   */\n      dup4\n      swap1\n      mstore\n        /* \"PaymentSplitter/CandyPaymentSplitterUpgradeable.sol\":6586:6619  PaymentReleased(account, payment) */\n      0xdf20fd1e76bc69d672e4814fafb2c449bba3a5369d8359adf9e05e6fde87b056\n      swap2\n        /* \"#utility.yul\":161:179   */\n      add\n        /* \"PaymentSplitter/CandyPaymentSplitterUpgradeable.sol\":6586:6619  PaymentReleased(account, payment) */\n      mload(0x40)\n      dup1\n      swap2\n      sub\n      swap1\n      log1\n        /* \"PaymentSplitter/CandyPaymentSplitterUpgradeable.sol\":6130:6630  {... */\n      pop\n      pop\n      pop\n        /* \"PaymentSplitter/CandyPaymentSplitterUpgradeable.sol\":6125:6128  i++ */\n      dup1\n      dup1\n      tag_658\n      swap1\n      tag_637\n      jump\t// in\n    tag_658:\n      swap2\n      pop\n      pop\n        /* \"PaymentSplitter/CandyPaymentSplitterUpgradeable.sol\":6079:6630  for (uint256 i = 0; i < _numPayees.current(); i++) {... */\n      jump(tag_642)\n        /* \"ERC721A/ERC721AUpgradeable.sol\":20165:20837  function _checkContractOnERC721Received(... */\n    tag_478:\n        /* \"ERC721A/ERC721AUpgradeable.sol\":20343:20426  IERC721ReceiverUpgradeable(to).onERC721Received(_msgSender(), from, tokenId, _data) */\n      mload(0x40)\n      shl(0xe1, 0x0a85bd01)\n      dup2\n      mstore\n        /* \"ERC721A/ERC721AUpgradeable.sol\":20323:20327  bool */\n      0x00\n      swap1\n      sub(shl(0xa0, 0x01), 0x01)\n        /* \"ERC721A/ERC721AUpgradeable.sol\":20343:20390  IERC721ReceiverUpgradeable(to).onERC721Received */\n      dup6\n      and\n      swap1\n      0x150b7a02\n      swap1\n        /* \"ERC721A/ERC721AUpgradeable.sol\":20343:20426  IERC721ReceiverUpgradeable(to).onERC721Received(_msgSender(), from, tokenId, _data) */\n      tag_662\n      swap1\n        /* \"@openzeppelin/contracts-upgradeable/utils/ContextUpgradeable.sol\":929:939  msg.sender */\n      caller\n      swap1\n        /* \"ERC721A/ERC721AUpgradeable.sol\":20405:20409  from */\n      dup10\n      swap1\n        /* \"ERC721A/ERC721AUpgradeable.sol\":20411:20418  tokenId */\n      dup9\n      swap1\n        /* \"ERC721A/ERC721AUpgradeable.sol\":20420:20425  _data */\n      dup9\n      swap1\n        /* \"ERC721A/ERC721AUpgradeable.sol\":20343:20426  IERC721ReceiverUpgradeable(to).onERC721Received(_msgSender(), from, tokenId, _data) */\n      0x04\n      add\n      tag_663\n      jump\t// in\n    tag_662:\n      0x20\n      mload(0x40)\n      dup1\n      dup4\n      sub\n      dup2\n      0x00\n      dup8\n      gas\n      call\n      swap3\n      pop\n      pop\n      pop\n      dup1\n      iszero\n      tag_664\n      jumpi\n      pop\n      0x40\n      dup1\n      mload\n      0x1f\n      returndatasize\n      swap1\n      dup2\n      add\n      not(0x1f)\n      and\n      dup3\n      add\n      swap1\n      swap3\n      mstore\n      tag_665\n      swap2\n      dup2\n      add\n      swap1\n      tag_666\n      jump\t// in\n    tag_665:\n      0x01\n    tag_664:\n        /* \"ERC721A/ERC721AUpgradeable.sol\":20339:20831  try IERC721ReceiverUpgradeable(to).onERC721Received(_msgSender(), from, tokenId, _data) returns (bytes4 retval) {... */\n      tag_667\n      jumpi\n      returndatasize\n      dup1\n      dup1\n      iszero\n      tag_672\n      jumpi\n      mload(0x40)\n      swap2\n      pop\n      and(add(returndatasize, 0x3f), not(0x1f))\n      dup3\n      add\n      0x40\n      mstore\n      returndatasize\n      dup3\n      mstore\n      returndatasize\n      0x00\n      0x20\n      dup5\n      add\n      returndatacopy\n      jump(tag_671)\n    tag_672:\n      0x60\n      swap2\n      pop\n    tag_671:\n      pop\n        /* \"ERC721A/ERC721AUpgradeable.sol\":20596:20602  reason */\n      dup1\n        /* \"ERC721A/ERC721AUpgradeable.sol\":20596:20609  reason.length */\n      mload\n        /* \"ERC721A/ERC721AUpgradeable.sol\":20613:20614  0 */\n      0x00\n        /* \"ERC721A/ERC721AUpgradeable.sol\":20596:20614  reason.length == 0 */\n      sub\n        /* \"ERC721A/ERC721AUpgradeable.sol\":20592:20821  if (reason.length == 0) {... */\n      tag_673\n      jumpi\n        /* \"ERC721A/ERC721AUpgradeable.sol\":20641:20681  TransferToNonERC721ReceiverImplementer() */\n      mload(0x40)\n      shl(0xe1, 0x68d2bf6b)\n      dup2\n      mstore\n      0x04\n      add\n      mload(0x40)\n      dup1\n      swap2\n      sub\n      swap1\n      revert\n        /* \"ERC721A/ERC721AUpgradeable.sol\":20592:20821  if (reason.length == 0) {... */\n    tag_673:\n        /* \"ERC721A/ERC721AUpgradeable.sol\":20781:20787  reason */\n      dup1\n        /* \"ERC721A/ERC721AUpgradeable.sol\":20775:20788  mload(reason) */\n      mload\n        /* \"ERC721A/ERC721AUpgradeable.sol\":20766:20772  reason */\n      dup2\n        /* \"ERC721A/ERC721AUpgradeable.sol\":20762:20764  32 */\n      0x20\n        /* \"ERC721A/ERC721AUpgradeable.sol\":20758:20773  add(32, reason) */\n      add\n        /* \"ERC721A/ERC721AUpgradeable.sol\":20751:20789  revert(add(32, reason), mload(reason)) */\n      revert\n        /* \"ERC721A/ERC721AUpgradeable.sol\":20339:20831  try IERC721ReceiverUpgradeable(to).onERC721Received(_msgSender(), from, tokenId, _data) returns (bytes4 retval) {... */\n    tag_667:\n      not(sub(shl(0xe0, 0x01), 0x01))\n        /* \"ERC721A/ERC721AUpgradeable.sol\":20472:20538  retval == IERC721ReceiverUpgradeable(to).onERC721Received.selector */\n      and\n      shl(0xe1, 0x0a85bd01)\n      eq\n      swap1\n      pop\n        /* \"ERC721A/ERC721AUpgradeable.sol\":20339:20831  try IERC721ReceiverUpgradeable(to).onERC721Received(_msgSender(), from, tokenId, _data) returns (bytes4 retval) {... */\n    tag_675:\n        /* \"ERC721A/ERC721AUpgradeable.sol\":20165:20837  function _checkContractOnERC721Received(... */\n      swap5\n      swap4\n      pop\n      pop\n      pop\n      pop\n      jump\t// out\n        /* \"CandyCreator721AUpgradeable.sol\":22846:22941  function _baseURI() internal view override returns (string memory) {... */\n    tag_492:\n        /* \"CandyCreator721AUpgradeable.sol\":22898:22911  string memory */\n      0x60\n        /* \"CandyCreator721AUpgradeable.sol\":22930:22934  base */\n      0xfc\n        /* \"CandyCreator721AUpgradeable.sol\":22923:22934  return base */\n      dup1\n      sload\n      tag_282\n      swap1\n      tag_283\n      jump\t// in\n        /* \"@openzeppelin/contracts-upgradeable/utils/StringsUpgradeable.sol\":339:1042  function toString(uint256 value) internal pure returns (string memory) {... */\n    tag_501:\n        /* \"@openzeppelin/contracts-upgradeable/utils/StringsUpgradeable.sol\":395:408  string memory */\n      0x60\n        /* \"@openzeppelin/contracts-upgradeable/utils/StringsUpgradeable.sol\":612:617  value */\n      dup2\n        /* \"@openzeppelin/contracts-upgradeable/utils/StringsUpgradeable.sol\":621:622  0 */\n      0x00\n        /* \"@openzeppelin/contracts-upgradeable/utils/StringsUpgradeable.sol\":612:622  value == 0 */\n      sub\n        /* \"@openzeppelin/contracts-upgradeable/utils/StringsUpgradeable.sol\":608:659  if (value == 0) {... */\n      tag_683\n      jumpi\n      pop\n      pop\n        /* \"@openzeppelin/contracts-upgradeable/utils/StringsUpgradeable.sol\":638:648  return \"0\" */\n      0x40\n      dup1\n      mload\n      dup1\n      dup3\n      add\n      swap1\n      swap2\n      mstore\n      0x01\n      dup2\n      mstore\n      shl(0xfc, 0x03)\n      0x20\n      dup3\n      add\n      mstore\n      swap1\n        /* \"@openzeppelin/contracts-upgradeable/utils/StringsUpgradeable.sol\":339:1042  function toString(uint256 value) internal pure returns (string memory) {... */\n      jump\t// out\n        /* \"@openzeppelin/contracts-upgradeable/utils/StringsUpgradeable.sol\":608:659  if (value == 0) {... */\n    tag_683:\n        /* \"@openzeppelin/contracts-upgradeable/utils/StringsUpgradeable.sol\":683:688  value */\n      dup2\n        /* \"@openzeppelin/contracts-upgradeable/utils/StringsUpgradeable.sol\":668:680  uint256 temp */\n      0x00\n        /* \"@openzeppelin/contracts-upgradeable/utils/StringsUpgradeable.sol\":722:797  while (temp != 0) {... */\n    tag_684:\n        /* \"@openzeppelin/contracts-upgradeable/utils/StringsUpgradeable.sol\":729:738  temp != 0 */\n      dup2\n      iszero\n        /* \"@openzeppelin/contracts-upgradeable/utils/StringsUpgradeable.sol\":722:797  while (temp != 0) {... */\n      tag_685\n      jumpi\n        /* \"@openzeppelin/contracts-upgradeable/utils/StringsUpgradeable.sol\":754:762  digits++ */\n      dup1\n      tag_686\n      dup2\n      tag_637\n      jump\t// in\n    tag_686:\n      swap2\n      pop\n        /* \"@openzeppelin/contracts-upgradeable/utils/StringsUpgradeable.sol\":776:786  temp /= 10 */\n      tag_687\n      swap1\n      pop\n        /* \"@openzeppelin/contracts-upgradeable/utils/StringsUpgradeable.sol\":784:786  10 */\n      0x0a\n        /* \"@openzeppelin/contracts-upgradeable/utils/StringsUpgradeable.sol\":776:786  temp /= 10 */\n      dup4\n      tag_342\n      jump\t// in\n    tag_687:\n      swap2\n      pop\n        /* \"@openzeppelin/contracts-upgradeable/utils/StringsUpgradeable.sol\":722:797  while (temp != 0) {... */\n      jump(tag_684)\n    tag_685:\n        /* \"@openzeppelin/contracts-upgradeable/utils/StringsUpgradeable.sol\":806:825  bytes memory buffer */\n      0x00\n        /* \"@openzeppelin/contracts-upgradeable/utils/StringsUpgradeable.sol\":838:844  digits */\n      dup2\n      sub(shl(0x40, 0x01), 0x01)\n        /* \"@openzeppelin/contracts-upgradeable/utils/StringsUpgradeable.sol\":828:845  new bytes(digits) */\n      dup2\n      gt\n      iszero\n      tag_689\n      jumpi\n      tag_689\n      tag_690\n      jump\t// in\n    tag_689:\n      mload(0x40)\n      swap1\n      dup1\n      dup3\n      mstore\n      dup1\n      0x1f\n      add\n      not(0x1f)\n      and\n      0x20\n      add\n      dup3\n      add\n      0x40\n      mstore\n      dup1\n      iszero\n      tag_691\n      jumpi\n      0x20\n      dup3\n      add\n      dup2\n      dup1\n      calldatasize\n      dup4\n      calldatacopy\n      add\n      swap1\n      pop\n    tag_691:\n      pop\n        /* \"@openzeppelin/contracts-upgradeable/utils/StringsUpgradeable.sol\":806:845  bytes memory buffer = new bytes(digits) */\n      swap1\n      pop\n        /* \"@openzeppelin/contracts-upgradeable/utils/StringsUpgradeable.sol\":855:1005  while (value != 0) {... */\n    tag_692:\n        /* \"@openzeppelin/contracts-upgradeable/utils/StringsUpgradeable.sol\":862:872  value != 0 */\n      dup5\n      iszero\n        /* \"@openzeppelin/contracts-upgradeable/utils/StringsUpgradeable.sol\":855:1005  while (value != 0) {... */\n      tag_675\n      jumpi\n        /* \"@openzeppelin/contracts-upgradeable/utils/StringsUpgradeable.sol\":888:899  digits -= 1 */\n      tag_694\n        /* \"@openzeppelin/contracts-upgradeable/utils/StringsUpgradeable.sol\":898:899  1 */\n      0x01\n        /* \"@openzeppelin/contracts-upgradeable/utils/StringsUpgradeable.sol\":888:899  digits -= 1 */\n      dup4\n      tag_652\n      jump\t// in\n    tag_694:\n      swap2\n      pop\n        /* \"@openzeppelin/contracts-upgradeable/utils/StringsUpgradeable.sol\":956:966  value % 10 */\n      tag_695\n        /* \"@openzeppelin/contracts-upgradeable/utils/StringsUpgradeable.sol\":964:966  10 */\n      0x0a\n        /* \"@openzeppelin/contracts-upgradeable/utils/StringsUpgradeable.sol\":956:961  value */\n      dup7\n        /* \"@openzeppelin/contracts-upgradeable/utils/StringsUpgradeable.sol\":956:966  value % 10 */\n      tag_696\n      jump\t// in\n    tag_695:\n        /* \"@openzeppelin/contracts-upgradeable/utils/StringsUpgradeable.sol\":943:967  48 + uint256(value % 10) */\n      tag_697\n      swap1\n        /* \"@openzeppelin/contracts-upgradeable/utils/StringsUpgradeable.sol\":943:945  48 */\n      0x30\n        /* \"@openzeppelin/contracts-upgradeable/utils/StringsUpgradeable.sol\":943:967  48 + uint256(value % 10) */\n      tag_315\n      jump\t// in\n    tag_697:\n        /* \"@openzeppelin/contracts-upgradeable/utils/StringsUpgradeable.sol\":930:969  bytes1(uint8(48 + uint256(value % 10))) */\n      0xf8\n      shl\n        /* \"@openzeppelin/contracts-upgradeable/utils/StringsUpgradeable.sol\":913:919  buffer */\n      dup2\n        /* \"@openzeppelin/contracts-upgradeable/utils/StringsUpgradeable.sol\":920:926  digits */\n      dup4\n        /* \"@openzeppelin/contracts-upgradeable/utils/StringsUpgradeable.sol\":913:927  buffer[digits] */\n      dup2\n      mload\n      dup2\n      lt\n      tag_699\n      jumpi\n      tag_699\n      tag_431\n      jump\t// in\n    tag_699:\n      0x20\n      add\n      add\n        /* \"@openzeppelin/contracts-upgradeable/utils/StringsUpgradeable.sol\":913:969  buffer[digits] = bytes1(uint8(48 + uint256(value % 10))) */\n      swap1\n      not(sub(shl(0xf8, 0x01), 0x01))\n      and\n      swap1\n      dup2\n      0x00\n      byte\n      swap1\n      mstore8\n      pop\n        /* \"@openzeppelin/contracts-upgradeable/utils/StringsUpgradeable.sol\":983:994  value /= 10 */\n      tag_700\n        /* \"@openzeppelin/contracts-upgradeable/utils/StringsUpgradeable.sol\":992:994  10 */\n      0x0a\n        /* \"@openzeppelin/contracts-upgradeable/utils/StringsUpgradeable.sol\":983:994  value /= 10 */\n      dup7\n      tag_342\n      jump\t// in\n    tag_700:\n      swap5\n      pop\n        /* \"@openzeppelin/contracts-upgradeable/utils/StringsUpgradeable.sol\":855:1005  while (value != 0) {... */\n      jump(tag_692)\n        /* \"@openzeppelin/contracts-upgradeable/utils/cryptography/MerkleProofUpgradeable.sol\":1409:2071  function processProof(bytes32[] memory proof, bytes32 leaf) internal pure returns (bytes32) {... */\n    tag_571:\n        /* \"@openzeppelin/contracts-upgradeable/utils/cryptography/MerkleProofUpgradeable.sol\":1492:1499  bytes32 */\n      0x00\n        /* \"@openzeppelin/contracts-upgradeable/utils/cryptography/MerkleProofUpgradeable.sol\":1534:1538  leaf */\n      dup2\n        /* \"@openzeppelin/contracts-upgradeable/utils/cryptography/MerkleProofUpgradeable.sol\":1492:1499  bytes32 */\n      dup2\n        /* \"@openzeppelin/contracts-upgradeable/utils/cryptography/MerkleProofUpgradeable.sol\":1548:2036  for (uint256 i = 0; i < proof.length; i++) {... */\n    tag_704:\n        /* \"@openzeppelin/contracts-upgradeable/utils/cryptography/MerkleProofUpgradeable.sol\":1572:1577  proof */\n      dup5\n        /* \"@openzeppelin/contracts-upgradeable/utils/cryptography/MerkleProofUpgradeable.sol\":1572:1584  proof.length */\n      mload\n        /* \"@openzeppelin/contracts-upgradeable/utils/cryptography/MerkleProofUpgradeable.sol\":1568:1569  i */\n      dup2\n        /* \"@openzeppelin/contracts-upgradeable/utils/cryptography/MerkleProofUpgradeable.sol\":1568:1584  i < proof.length */\n      lt\n        /* \"@openzeppelin/contracts-upgradeable/utils/cryptography/MerkleProofUpgradeable.sol\":1548:2036  for (uint256 i = 0; i < proof.length; i++) {... */\n      iszero\n      tag_705\n      jumpi\n        /* \"@openzeppelin/contracts-upgradeable/utils/cryptography/MerkleProofUpgradeable.sol\":1605:1625  bytes32 proofElement */\n      0x00\n        /* \"@openzeppelin/contracts-upgradeable/utils/cryptography/MerkleProofUpgradeable.sol\":1628:1633  proof */\n      dup6\n        /* \"@openzeppelin/contracts-upgradeable/utils/cryptography/MerkleProofUpgradeable.sol\":1634:1635  i */\n      dup3\n        /* \"@openzeppelin/contracts-upgradeable/utils/cryptography/MerkleProofUpgradeable.sol\":1628:1636  proof[i] */\n      dup2\n      mload\n      dup2\n      lt\n      tag_708\n      jumpi\n      tag_708\n      tag_431\n      jump\t// in\n    tag_708:\n      0x20\n      mul\n      0x20\n      add\n      add\n      mload\n        /* \"@openzeppelin/contracts-upgradeable/utils/cryptography/MerkleProofUpgradeable.sol\":1605:1636  bytes32 proofElement = proof[i] */\n      swap1\n      pop\n        /* \"@openzeppelin/contracts-upgradeable/utils/cryptography/MerkleProofUpgradeable.sol\":1670:1682  proofElement */\n      dup1\n        /* \"@openzeppelin/contracts-upgradeable/utils/cryptography/MerkleProofUpgradeable.sol\":1654:1666  computedHash */\n      dup4\n        /* \"@openzeppelin/contracts-upgradeable/utils/cryptography/MerkleProofUpgradeable.sol\":1654:1682  computedHash <= proofElement */\n      gt\n        /* \"@openzeppelin/contracts-upgradeable/utils/cryptography/MerkleProofUpgradeable.sol\":1650:2026  if (computedHash <= proofElement) {... */\n      tag_709\n      jumpi\n        /* \"@openzeppelin/contracts-upgradeable/utils/cryptography/MerkleProofUpgradeable.sol\":2145:2158  bytes32 value */\n      0x00\n        /* \"@openzeppelin/contracts-upgradeable/utils/cryptography/MerkleProofUpgradeable.sol\":2193:2208  mstore(0x00, a) */\n      dup4\n      dup2\n      mstore\n        /* \"@openzeppelin/contracts-upgradeable/utils/cryptography/MerkleProofUpgradeable.sol\":2228:2232  0x20 */\n      0x20\n        /* \"@openzeppelin/contracts-upgradeable/utils/cryptography/MerkleProofUpgradeable.sol\":2221:2236  mstore(0x20, b) */\n      dup3\n      swap1\n      mstore\n        /* \"@openzeppelin/contracts-upgradeable/utils/cryptography/MerkleProofUpgradeable.sol\":2274:2278  0x40 */\n      0x40\n        /* \"@openzeppelin/contracts-upgradeable/utils/cryptography/MerkleProofUpgradeable.sol\":2258:2279  keccak256(0x00, 0x40) */\n      swap1\n      keccak256\n        /* \"@openzeppelin/contracts-upgradeable/utils/cryptography/MerkleProofUpgradeable.sol\":1780:1837  computedHash = _efficientHash(computedHash, proofElement) */\n      swap3\n      pop\n        /* \"@openzeppelin/contracts-upgradeable/utils/cryptography/MerkleProofUpgradeable.sol\":1650:2026  if (computedHash <= proofElement) {... */\n      jump(tag_712)\n    tag_709:\n        /* \"@openzeppelin/contracts-upgradeable/utils/cryptography/MerkleProofUpgradeable.sol\":2145:2158  bytes32 value */\n      0x00\n        /* \"@openzeppelin/contracts-upgradeable/utils/cryptography/MerkleProofUpgradeable.sol\":2193:2208  mstore(0x00, a) */\n      dup2\n      dup2\n      mstore\n        /* \"@openzeppelin/contracts-upgradeable/utils/cryptography/MerkleProofUpgradeable.sol\":2228:2232  0x20 */\n      0x20\n        /* \"@openzeppelin/contracts-upgradeable/utils/cryptography/MerkleProofUpgradeable.sol\":2221:2236  mstore(0x20, b) */\n      dup5\n      swap1\n      mstore\n        /* \"@openzeppelin/contracts-upgradeable/utils/cryptography/MerkleProofUpgradeable.sol\":2274:2278  0x40 */\n      0x40\n        /* \"@openzeppelin/contracts-upgradeable/utils/cryptography/MerkleProofUpgradeable.sol\":2258:2279  keccak256(0x00, 0x40) */\n      swap1\n      keccak256\n        /* \"@openzeppelin/contracts-upgradeable/utils/cryptography/MerkleProofUpgradeable.sol\":1954:2011  computedHash = _efficientHash(proofElement, computedHash) */\n      swap3\n      pop\n        /* \"@openzeppelin/contracts-upgradeable/utils/cryptography/MerkleProofUpgradeable.sol\":1650:2026  if (computedHash <= proofElement) {... */\n    tag_712:\n      pop\n        /* \"@openzeppelin/contracts-upgradeable/utils/cryptography/MerkleProofUpgradeable.sol\":1586:1589  i++ */\n      dup1\n      tag_714\n      dup2\n      tag_637\n      jump\t// in\n    tag_714:\n      swap2\n      pop\n      pop\n        /* \"@openzeppelin/contracts-upgradeable/utils/cryptography/MerkleProofUpgradeable.sol\":1548:2036  for (uint256 i = 0; i < proof.length; i++) {... */\n      jump(tag_704)\n    tag_705:\n      pop\n        /* \"@openzeppelin/contracts-upgradeable/utils/cryptography/MerkleProofUpgradeable.sol\":2052:2064  computedHash */\n      swap4\n        /* \"@openzeppelin/contracts-upgradeable/utils/cryptography/MerkleProofUpgradeable.sol\":1409:2071  function processProof(bytes32[] memory proof, bytes32 leaf) internal pure returns (bytes32) {... */\n      swap3\n      pop\n      pop\n      pop\n      jump\t// out\n        /* \"ERC721A/ERC721AUpgradeable.sol\":12186:12343  function _safeMint(... */\n    tag_575:\n        /* \"ERC721A/ERC721AUpgradeable.sol\":12304:12336  _mint(to, quantity, _data, true) */\n      tag_300\n        /* \"ERC721A/ERC721AUpgradeable.sol\":12310:12312  to */\n      dup4\n        /* \"ERC721A/ERC721AUpgradeable.sol\":12314:12322  quantity */\n      dup4\n        /* \"ERC721A/ERC721AUpgradeable.sol\":12324:12329  _data */\n      dup4\n        /* \"ERC721A/ERC721AUpgradeable.sol\":12331:12335  true */\n      0x01\n        /* \"ERC721A/ERC721AUpgradeable.sol\":12304:12309  _mint */\n      tag_717\n        /* \"ERC721A/ERC721AUpgradeable.sol\":12304:12336  _mint(to, quantity, _data, true) */\n      jump\t// in\n        /* \"ERC721A/ERC721AUpgradeable.sol\":3843:4045  function __ERC721A_init_unchained(string memory name_, string memory symbol_) internal onlyInitializing {... */\n    tag_615:\n        /* \"@openzeppelin/contracts-upgradeable/proxy/utils/Initializable.sol\":2952:2965  _initializing */\n      sload(0x00)\n      0x0100\n      swap1\n      div\n      0xff\n      and\n        /* \"@openzeppelin/contracts-upgradeable/proxy/utils/Initializable.sol\":2944:3013  require(_initializing, \"Initializable: contract is not initializing\") */\n      tag_721\n      jumpi\n      mload(0x40)\n      shl(0xe5, 0x461bcd)\n      dup2\n      mstore\n      0x04\n      add\n      tag_364\n      swap1\n      tag_612\n      jump\t// in\n    tag_721:\n        /* \"ERC721A/ERC721AUpgradeable.sol\":3957:3970  _name = name_ */\n      dup2\n      mload\n      tag_724\n      swap1\n        /* \"ERC721A/ERC721AUpgradeable.sol\":3957:3962  _name */\n      0x99\n      swap1\n        /* \"ERC721A/ERC721AUpgradeable.sol\":3957:3970  _name = name_ */\n      0x20\n      dup6\n      add\n      swap1\n      tag_378\n      jump\t// in\n    tag_724:\n      pop\n        /* \"ERC721A/ERC721AUpgradeable.sol\":3980:3997  _symbol = symbol_ */\n      dup1\n      mload\n      tag_725\n      swap1\n        /* \"ERC721A/ERC721AUpgradeable.sol\":3980:3987  _symbol */\n      0x9a\n      swap1\n        /* \"ERC721A/ERC721AUpgradeable.sol\":3980:3997  _symbol = symbol_ */\n      0x20\n      dup5\n      add\n      swap1\n      tag_378\n      jump\t// in\n    tag_725:\n      pop\n        /* \"CandyCreator721AUpgradeable.sol\":23168:23169  1 */\n      0x01\n        /* \"ERC721A/ERC721AUpgradeable.sol\":4007:4020  _currentIndex */\n      0x97\n        /* \"ERC721A/ERC721AUpgradeable.sol\":4007:4038  _currentIndex = _startTokenId() */\n      sstore\n      pop\n      pop\n        /* \"ERC721A/ERC721AUpgradeable.sol\":3843:4045  function __ERC721A_init_unchained(string memory name_, string memory symbol_) internal onlyInitializing {... */\n      jump\t// out\n        /* \"CandyCreator721AUpgradeable.sol\":13403:13585  function addPayee(address newAddress, uint256 _basisPoints) private {... */\n    tag_621:\n        /* \"CandyCreator721AUpgradeable.sol\":13490:13502  lockedPayees */\n      sload(0x0102)\n      shl(0x50, 0x01)\n      swap1\n      div\n      0xff\n      and\n        /* \"CandyCreator721AUpgradeable.sol\":13489:13502  !lockedPayees */\n      iszero\n        /* \"CandyCreator721AUpgradeable.sol\":13481:13533  require(!lockedPayees, \"Can not set, payees locked\") */\n      tag_728\n      jumpi\n      mload(0x40)\n      shl(0xe5, 0x461bcd)\n      dup2\n      mstore\n        /* \"#utility.yul\":17387:17389   */\n      0x20\n        /* \"CandyCreator721AUpgradeable.sol\":13481:13533  require(!lockedPayees, \"Can not set, payees locked\") */\n      0x04\n      dup3\n      add\n        /* \"#utility.yul\":17369:17390   */\n      mstore\n        /* \"#utility.yul\":17426:17428   */\n      0x1a\n        /* \"#utility.yul\":17406:17424   */\n      0x24\n      dup3\n      add\n        /* \"#utility.yul\":17399:17429   */\n      mstore\n        /* \"#utility.yul\":17465:17493   */\n      0x43616e206e6f74207365742c20706179656573206c6f636b6564000000000000\n        /* \"#utility.yul\":17445:17463   */\n      0x44\n      dup3\n      add\n        /* \"#utility.yul\":17438:17494   */\n      mstore\n        /* \"#utility.yul\":17511:17529   */\n      0x64\n      add\n        /* \"CandyCreator721AUpgradeable.sol\":13481:13533  require(!lockedPayees, \"Can not set, payees locked\") */\n      tag_364\n        /* \"#utility.yul\":17185:17535   */\n      jump\n        /* \"CandyCreator721AUpgradeable.sol\":13481:13533  require(!lockedPayees, \"Can not set, payees locked\") */\n    tag_728:\n        /* \"CandyCreator721AUpgradeable.sol\":13543:13578  _addPayee(newAddress, _basisPoints) */\n      tag_377\n        /* \"CandyCreator721AUpgradeable.sol\":13553:13563  newAddress */\n      dup3\n        /* \"CandyCreator721AUpgradeable.sol\":13565:13577  _basisPoints */\n      dup3\n        /* \"CandyCreator721AUpgradeable.sol\":13543:13552  _addPayee */\n      tag_732\n        /* \"CandyCreator721AUpgradeable.sol\":13543:13578  _addPayee(newAddress, _basisPoints) */\n      jump\t// in\n        /* \"CandyCreator721AUpgradeable.sol\":13675:13844  function lockPayees() private {... */\n    tag_626:\n        /* \"CandyCreator721AUpgradeable.sol\":13724:13736  lockedPayees */\n      sload(0x0102)\n      shl(0x50, 0x01)\n      swap1\n      div\n      0xff\n      and\n        /* \"CandyCreator721AUpgradeable.sol\":13723:13736  !lockedPayees */\n      iszero\n        /* \"CandyCreator721AUpgradeable.sol\":13715:13767  require(!lockedPayees, \"Can not set, payees locked\") */\n      tag_734\n      jumpi\n      mload(0x40)\n      shl(0xe5, 0x461bcd)\n      dup2\n      mstore\n        /* \"#utility.yul\":17387:17389   */\n      0x20\n        /* \"CandyCreator721AUpgradeable.sol\":13715:13767  require(!lockedPayees, \"Can not set, payees locked\") */\n      0x04\n      dup3\n      add\n        /* \"#utility.yul\":17369:17390   */\n      mstore\n        /* \"#utility.yul\":17426:17428   */\n      0x1a\n        /* \"#utility.yul\":17406:17424   */\n      0x24\n      dup3\n      add\n        /* \"#utility.yul\":17399:17429   */\n      mstore\n        /* \"#utility.yul\":17465:17493   */\n      0x43616e206e6f74207365742c20706179656573206c6f636b6564000000000000\n        /* \"#utility.yul\":17445:17463   */\n      0x44\n      dup3\n      add\n        /* \"#utility.yul\":17438:17494   */\n      mstore\n        /* \"#utility.yul\":17511:17529   */\n      0x64\n      add\n        /* \"CandyCreator721AUpgradeable.sol\":13715:13767  require(!lockedPayees, \"Can not set, payees locked\") */\n      tag_364\n        /* \"#utility.yul\":17185:17535   */\n      jump\n        /* \"CandyCreator721AUpgradeable.sol\":13715:13767  require(!lockedPayees, \"Can not set, payees locked\") */\n    tag_734:\n        /* \"CandyCreator721AUpgradeable.sol\":13777:13789  lockedPayees */\n      0x0102\n        /* \"CandyCreator721AUpgradeable.sol\":13777:13796  lockedPayees = true */\n      dup1\n      sload\n      not(shl(0x50, 0xff))\n      and\n      shl(0x50, 0x01)\n      swap1\n      dup2\n      or\n      swap2\n      dup3\n      swap1\n      sstore\n        /* \"CandyCreator721AUpgradeable.sol\":13811:13837  PayeesLocked(lockedPayees) */\n      mload(0x40)\n      0x07fe2f03bd4fa149b9d8918fb57a6e2a3b1fbbb29a4d4536df7e6cd9edf02ed8\n      swap3\n      tag_736\n      swap3\n        /* \"CandyCreator721AUpgradeable.sol\":13824:13836  lockedPayees */\n      swap1\n      div\n        /* \"CandyCreator721AUpgradeable.sol\":13777:13796  lockedPayees = true */\n      0xff\n        /* \"CandyCreator721AUpgradeable.sol\":13824:13836  lockedPayees */\n      and\n        /* \"#utility.yul\":844:858   */\n      iszero\n        /* \"#utility.yul\":837:859   */\n      iszero\n        /* \"#utility.yul\":819:860   */\n      dup2\n      mstore\n        /* \"#utility.yul\":807:809   */\n      0x20\n        /* \"#utility.yul\":792:810   */\n      add\n      swap1\n        /* \"#utility.yul\":679:866   */\n      jump\n        /* \"CandyCreator721AUpgradeable.sol\":13811:13837  PayeesLocked(lockedPayees) */\n    tag_736:\n      mload(0x40)\n      dup1\n      swap2\n      sub\n      swap1\n      log1\n        /* \"CandyCreator721AUpgradeable.sol\":13675:13844  function lockPayees() private {... */\n      jump\t// out\n        /* \"@openzeppelin/contracts-upgradeable/utils/AddressUpgradeable.sol\":2423:2735  function sendValue(address payable recipient, uint256 amount) internal {... */\n    tag_656:\n        /* \"@openzeppelin/contracts-upgradeable/utils/AddressUpgradeable.sol\":2537:2543  amount */\n      dup1\n        /* \"@openzeppelin/contracts-upgradeable/utils/AddressUpgradeable.sol\":2512:2533  address(this).balance */\n      selfbalance\n        /* \"@openzeppelin/contracts-upgradeable/utils/AddressUpgradeable.sol\":2512:2543  address(this).balance >= amount */\n      lt\n      iszero\n        /* \"@openzeppelin/contracts-upgradeable/utils/AddressUpgradeable.sol\":2504:2577  require(address(this).balance >= amount, \"Address: insufficient balance\") */\n      tag_739\n      jumpi\n      mload(0x40)\n      shl(0xe5, 0x461bcd)\n      dup2\n      mstore\n        /* \"#utility.yul\":17742:17744   */\n      0x20\n        /* \"@openzeppelin/contracts-upgradeable/utils/AddressUpgradeable.sol\":2504:2577  require(address(this).balance >= amount, \"Address: insufficient balance\") */\n      0x04\n      dup3\n      add\n        /* \"#utility.yul\":17724:17745   */\n      mstore\n        /* \"#utility.yul\":17781:17783   */\n      0x1d\n        /* \"#utility.yul\":17761:17779   */\n      0x24\n      dup3\n      add\n        /* \"#utility.yul\":17754:17784   */\n      mstore\n        /* \"#utility.yul\":17820:17851   */\n      0x416464726573733a20696e73756666696369656e742062616c616e6365000000\n        /* \"#utility.yul\":17800:17818   */\n      0x44\n      dup3\n      add\n        /* \"#utility.yul\":17793:17852   */\n      mstore\n        /* \"#utility.yul\":17869:17887   */\n      0x64\n      add\n        /* \"@openzeppelin/contracts-upgradeable/utils/AddressUpgradeable.sol\":2504:2577  require(address(this).balance >= amount, \"Address: insufficient balance\") */\n      tag_364\n        /* \"#utility.yul\":17540:17893   */\n      jump\n        /* \"@openzeppelin/contracts-upgradeable/utils/AddressUpgradeable.sol\":2504:2577  require(address(this).balance >= amount, \"Address: insufficient balance\") */\n    tag_739:\n        /* \"@openzeppelin/contracts-upgradeable/utils/AddressUpgradeable.sol\":2589:2601  bool success */\n      0x00\n        /* \"@openzeppelin/contracts-upgradeable/utils/AddressUpgradeable.sol\":2607:2616  recipient */\n      dup3\n      sub(shl(0xa0, 0x01), 0x01)\n        /* \"@openzeppelin/contracts-upgradeable/utils/AddressUpgradeable.sol\":2607:2621  recipient.call */\n      and\n        /* \"@openzeppelin/contracts-upgradeable/utils/AddressUpgradeable.sol\":2629:2635  amount */\n      dup3\n        /* \"@openzeppelin/contracts-upgradeable/utils/AddressUpgradeable.sol\":2607:2640  recipient.call{value: amount}(\"\") */\n      mload(0x40)\n      0x00\n      mload(0x40)\n      dup1\n      dup4\n      sub\n      dup2\n      dup6\n      dup8\n      gas\n      call\n      swap3\n      pop\n      pop\n      pop\n      returndatasize\n      dup1\n      0x00\n      dup2\n      eq\n      tag_746\n      jumpi\n      mload(0x40)\n      swap2\n      pop\n      and(add(returndatasize, 0x3f), not(0x1f))\n      dup3\n      add\n      0x40\n      mstore\n      returndatasize\n      dup3\n      mstore\n      returndatasize\n      0x00\n      0x20\n      dup5\n      add\n      returndatacopy\n      jump(tag_745)\n    tag_746:\n      0x60\n      swap2\n      pop\n    tag_745:\n      pop\n        /* \"@openzeppelin/contracts-upgradeable/utils/AddressUpgradeable.sol\":2588:2640  (bool success, ) = recipient.call{value: amount}(\"\") */\n      pop\n      swap1\n      pop\n        /* \"@openzeppelin/contracts-upgradeable/utils/AddressUpgradeable.sol\":2658:2665  success */\n      dup1\n        /* \"@openzeppelin/contracts-upgradeable/utils/AddressUpgradeable.sol\":2650:2728  require(success, \"Address: unable to send value, recipient may have reverted\") */\n      tag_300\n      jumpi\n      mload(0x40)\n      shl(0xe5, 0x461bcd)\n      dup2\n      mstore\n        /* \"#utility.yul\":18310:18312   */\n      0x20\n        /* \"@openzeppelin/contracts-upgradeable/utils/AddressUpgradeable.sol\":2650:2728  require(success, \"Address: unable to send value, recipient may have reverted\") */\n      0x04\n      dup3\n      add\n        /* \"#utility.yul\":18292:18313   */\n      mstore\n        /* \"#utility.yul\":18349:18351   */\n      0x3a\n        /* \"#utility.yul\":18329:18347   */\n      0x24\n      dup3\n      add\n        /* \"#utility.yul\":18322:18352   */\n      mstore\n        /* \"#utility.yul\":18388:18422   */\n      0x416464726573733a20756e61626c6520746f2073656e642076616c75652c2072\n        /* \"#utility.yul\":18368:18386   */\n      0x44\n      dup3\n      add\n        /* \"#utility.yul\":18361:18423   */\n      mstore\n        /* \"#utility.yul\":18459:18487   */\n      0x6563697069656e74206d61792068617665207265766572746564000000000000\n        /* \"#utility.yul\":18439:18457   */\n      0x64\n      dup3\n      add\n        /* \"#utility.yul\":18432:18488   */\n      mstore\n        /* \"#utility.yul\":18505:18524   */\n      0x84\n      add\n        /* \"@openzeppelin/contracts-upgradeable/utils/AddressUpgradeable.sol\":2650:2728  require(success, \"Address: unable to send value, recipient may have reverted\") */\n      tag_364\n        /* \"#utility.yul\":18108:18530   */\n      jump\n        /* \"ERC721A/ERC721AUpgradeable.sol\":12590:14323  function _mint(... */\n    tag_717:\n        /* \"ERC721A/ERC721AUpgradeable.sol\":12746:12759  _currentIndex */\n      sload(0x97)\n      sub(shl(0xa0, 0x01), 0x01)\n        /* \"ERC721A/ERC721AUpgradeable.sol\":12773:12789  to == address(0) */\n      dup6\n      and\n        /* \"ERC721A/ERC721AUpgradeable.sol\":12769:12817  if (to == address(0)) revert MintToZeroAddress() */\n      tag_752\n      jumpi\n        /* \"ERC721A/ERC721AUpgradeable.sol\":12798:12817  MintToZeroAddress() */\n      mload(0x40)\n      shl(0xe8, 0x2e0763)\n      dup2\n      mstore\n      0x04\n      add\n      mload(0x40)\n      dup1\n      swap2\n      sub\n      swap1\n      revert\n        /* \"ERC721A/ERC721AUpgradeable.sol\":12769:12817  if (to == address(0)) revert MintToZeroAddress() */\n    tag_752:\n        /* \"ERC721A/ERC721AUpgradeable.sol\":12831:12839  quantity */\n      dup4\n        /* \"ERC721A/ERC721AUpgradeable.sol\":12843:12844  0 */\n      0x00\n        /* \"ERC721A/ERC721AUpgradeable.sol\":12831:12844  quantity == 0 */\n      sub\n        /* \"ERC721A/ERC721AUpgradeable.sol\":12827:12871  if (quantity == 0) revert MintZeroQuantity() */\n      tag_753\n      jumpi\n        /* \"ERC721A/ERC721AUpgradeable.sol\":12853:12871  MintZeroQuantity() */\n      mload(0x40)\n      shl(0xe0, 0xb562e8dd)\n      dup2\n      mstore\n      0x04\n      add\n      mload(0x40)\n      dup1\n      swap2\n      sub\n      swap1\n      revert\n        /* \"ERC721A/ERC721AUpgradeable.sol\":12827:12871  if (quantity == 0) revert MintZeroQuantity() */\n    tag_753:\n      sub(shl(0xa0, 0x01), 0x01)\n        /* \"ERC721A/ERC721AUpgradeable.sol\":13214:13230  _addressData[to] */\n      dup6\n      and\n      0x00\n      dup2\n      dup2\n      mstore\n        /* \"ERC721A/ERC721AUpgradeable.sol\":13214:13226  _addressData */\n      0x9c\n        /* \"ERC721A/ERC721AUpgradeable.sol\":13214:13230  _addressData[to] */\n      0x20\n      swap1\n      dup2\n      mstore\n      0x40\n      dup1\n      dup4\n      keccak256\n        /* \"ERC721A/ERC721AUpgradeable.sol\":13214:13258  _addressData[to].balance += uint64(quantity) */\n      dup1\n      sload\n      not(0xffffffffffffffffffffffffffffffff)\n        /* \"ERC721A/ERC721AUpgradeable.sol\":13272:13321  _addressData[to].numberMinted += uint64(quantity) */\n      dup2\n      and\n      sub(shl(0x40, 0x01), 0x01)\n        /* \"ERC721A/ERC721AUpgradeable.sol\":13214:13258  _addressData[to].balance += uint64(quantity) */\n      dup1\n      dup4\n      and\n      dup13\n      add\n      dup2\n      and\n        /* \"ERC721A/ERC721AUpgradeable.sol\":13272:13321  _addressData[to].numberMinted += uint64(quantity) */\n      swap2\n      dup3\n      or\n      shl(0x40, 0x01)\n      not(0xffffffffffffffff)\n        /* \"ERC721A/ERC721AUpgradeable.sol\":13214:13258  _addressData[to].balance += uint64(quantity) */\n      swap1\n      swap5\n      and\n      swap1\n      swap3\n      or\n        /* \"ERC721A/ERC721AUpgradeable.sol\":13272:13321  _addressData[to].numberMinted += uint64(quantity) */\n      dup4\n      swap1\n      div\n      dup2\n      and\n      dup13\n      add\n      dup2\n      and\n      swap1\n      swap3\n      mul\n      or\n      swap1\n      swap2\n      sstore\n        /* \"ERC721A/ERC721AUpgradeable.sol\":13336:13361  _ownerships[startTokenId] */\n      dup6\n      dup5\n      mstore\n        /* \"ERC721A/ERC721AUpgradeable.sol\":13336:13347  _ownerships */\n      0x9b\n        /* \"ERC721A/ERC721AUpgradeable.sol\":13336:13361  _ownerships[startTokenId] */\n      swap1\n      swap3\n      mstore\n      swap1\n      swap2\n      keccak256\n        /* \"ERC721A/ERC721AUpgradeable.sol\":13336:13371  _ownerships[startTokenId].addr = to */\n      dup1\n      sload\n      not(sub(shl(0xe0, 0x01), 0x01))\n        /* \"ERC721A/ERC721AUpgradeable.sol\":13385:13451  _ownerships[startTokenId].startTimestamp = uint64(block.timestamp) */\n      and\n      swap1\n      swap3\n      or\n      shl(0xa0, 0x01)\n        /* \"ERC721A/ERC721AUpgradeable.sol\":13435:13450  block.timestamp */\n      timestamp\n        /* \"ERC721A/ERC721AUpgradeable.sol\":13385:13451  _ownerships[startTokenId].startTimestamp = uint64(block.timestamp) */\n      swap1\n      swap3\n      and\n      swap2\n      swap1\n      swap2\n      mul\n      or\n      swap1\n      sstore\n        /* \"ERC721A/ERC721AUpgradeable.sol\":13336:13361  _ownerships[startTokenId] */\n      dup1\n        /* \"ERC721A/ERC721AUpgradeable.sol\":13529:13552  updatedIndex + quantity */\n      dup1\n      dup6\n      add\n        /* \"ERC721A/ERC721AUpgradeable.sol\":13571:13575  safe */\n      dup4\n        /* \"ERC721A/ERC721AUpgradeable.sol\":13571:13594  safe && to.isContract() */\n      dup1\n      iszero\n      tag_756\n      jumpi\n      pop\n      sub(shl(0xa0, 0x01), 0x01)\n        /* \"ERC721A/ERC721AUpgradeable.sol\":13579:13592  to.isContract */\n      dup8\n      and\n        /* \"@openzeppelin/contracts-upgradeable/utils/AddressUpgradeable.sol\":1476:1495  account.code.length */\n      extcodesize\n        /* \"@openzeppelin/contracts-upgradeable/utils/AddressUpgradeable.sol\":1476:1499  account.code.length > 0 */\n      iszero\n      iszero\n        /* \"ERC721A/ERC721AUpgradeable.sol\":13579:13594  to.isContract() */\n    tag_756:\n        /* \"ERC721A/ERC721AUpgradeable.sol\":13567:14195  if (safe && to.isContract()) {... */\n      iszero\n      tag_757\n      jumpi\n        /* \"ERC721A/ERC721AUpgradeable.sol\":13614:13923  do {... */\n    tag_758:\n        /* \"ERC721A/ERC721AUpgradeable.sol\":13644:13682  Transfer(address(0), to, updatedIndex) */\n      mload(0x40)\n        /* \"ERC721A/ERC721AUpgradeable.sol\":13669:13681  updatedIndex */\n      dup3\n      swap1\n      sub(shl(0xa0, 0x01), 0x01)\n        /* \"ERC721A/ERC721AUpgradeable.sol\":13644:13682  Transfer(address(0), to, updatedIndex) */\n      dup10\n      and\n      swap1\n        /* \"ERC721A/ERC721AUpgradeable.sol\":13661:13662  0 */\n      0x00\n      swap1\n        /* \"ERC721A/ERC721AUpgradeable.sol\":13644:13682  Transfer(address(0), to, updatedIndex) */\n      0xddf252ad1be2c89b69c2b068fc378daa952ba7f163c4a11628f55a4df523b3ef\n      swap1\n        /* \"ERC721A/ERC721AUpgradeable.sol\":13661:13662  0 */\n      dup3\n      swap1\n        /* \"ERC721A/ERC721AUpgradeable.sol\":13644:13682  Transfer(address(0), to, updatedIndex) */\n      log4\n        /* \"ERC721A/ERC721AUpgradeable.sol\":13709:13778  _checkContractOnERC721Received(address(0), to, updatedIndex++, _data) */\n      tag_761\n        /* \"ERC721A/ERC721AUpgradeable.sol\":13748:13749  0 */\n      0x00\n        /* \"ERC721A/ERC721AUpgradeable.sol\":13752:13754  to */\n      dup9\n        /* \"ERC721A/ERC721AUpgradeable.sol\":13756:13770  updatedIndex++ */\n      dup5\n      dup1\n      0x01\n      add\n      swap6\n      pop\n        /* \"ERC721A/ERC721AUpgradeable.sol\":13772:13777  _data */\n      dup9\n        /* \"ERC721A/ERC721AUpgradeable.sol\":13709:13739  _checkContractOnERC721Received */\n      tag_478\n        /* \"ERC721A/ERC721AUpgradeable.sol\":13709:13778  _checkContractOnERC721Received(address(0), to, updatedIndex++, _data) */\n      jump\t// in\n    tag_761:\n        /* \"ERC721A/ERC721AUpgradeable.sol\":13704:13876  if (!_checkContractOnERC721Received(address(0), to, updatedIndex++, _data)) {... */\n      tag_762\n      jumpi\n        /* \"ERC721A/ERC721AUpgradeable.sol\":13813:13853  TransferToNonERC721ReceiverImplementer() */\n      mload(0x40)\n      shl(0xe1, 0x68d2bf6b)\n      dup2\n      mstore\n      0x04\n      add\n      mload(0x40)\n      dup1\n      swap2\n      sub\n      swap1\n      revert\n        /* \"ERC721A/ERC721AUpgradeable.sol\":13704:13876  if (!_checkContractOnERC721Received(address(0), to, updatedIndex++, _data)) {... */\n    tag_762:\n        /* \"ERC721A/ERC721AUpgradeable.sol\":13918:13921  end */\n      dup1\n        /* \"ERC721A/ERC721AUpgradeable.sol\":13902:13914  updatedIndex */\n      dup3\n        /* \"ERC721A/ERC721AUpgradeable.sol\":13902:13921  updatedIndex != end */\n      sub\n        /* \"ERC721A/ERC721AUpgradeable.sol\":13614:13923  do {... */\n      tag_758\n      jumpi\n        /* \"ERC721A/ERC721AUpgradeable.sol\":14002:14014  startTokenId */\n      dup3\n        /* \"ERC721A/ERC721AUpgradeable.sol\":13985:13998  _currentIndex */\n      sload(0x97)\n        /* \"ERC721A/ERC721AUpgradeable.sol\":13985:14014  _currentIndex != startTokenId */\n      eq\n        /* \"ERC721A/ERC721AUpgradeable.sol\":13981:14024  if (_currentIndex != startTokenId) revert() */\n      tag_763\n      jumpi\n        /* \"ERC721A/ERC721AUpgradeable.sol\":14016:14024  revert() */\n      0x00\n      dup1\n      revert\n        /* \"ERC721A/ERC721AUpgradeable.sol\":13981:14024  if (_currentIndex != startTokenId) revert() */\n    tag_763:\n        /* \"ERC721A/ERC721AUpgradeable.sol\":13567:14195  if (safe && to.isContract()) {... */\n      jump(tag_764)\n    tag_757:\n        /* \"ERC721A/ERC721AUpgradeable.sol\":14063:14181  do {... */\n    tag_765:\n        /* \"ERC721A/ERC721AUpgradeable.sol\":14093:14133  Transfer(address(0), to, updatedIndex++) */\n      mload(0x40)\n        /* \"ERC721A/ERC721AUpgradeable.sol\":14118:14132  updatedIndex++ */\n      0x01\n      dup4\n      add\n      swap3\n      swap1\n      sub(shl(0xa0, 0x01), 0x01)\n        /* \"ERC721A/ERC721AUpgradeable.sol\":14093:14133  Transfer(address(0), to, updatedIndex++) */\n      dup10\n      and\n      swap1\n        /* \"ERC721A/ERC721AUpgradeable.sol\":14110:14111  0 */\n      0x00\n      swap1\n        /* \"ERC721A/ERC721AUpgradeable.sol\":14093:14133  Transfer(address(0), to, updatedIndex++) */\n      0xddf252ad1be2c89b69c2b068fc378daa952ba7f163c4a11628f55a4df523b3ef\n      swap1\n        /* \"ERC721A/ERC721AUpgradeable.sol\":14110:14111  0 */\n      dup3\n      swap1\n        /* \"ERC721A/ERC721AUpgradeable.sol\":14093:14133  Transfer(address(0), to, updatedIndex++) */\n      log4\n        /* \"ERC721A/ERC721AUpgradeable.sol\":14176:14179  end */\n      dup1\n        /* \"ERC721A/ERC721AUpgradeable.sol\":14160:14172  updatedIndex */\n      dup3\n        /* \"ERC721A/ERC721AUpgradeable.sol\":14160:14179  updatedIndex != end */\n      sub\n        /* \"ERC721A/ERC721AUpgradeable.sol\":14063:14181  do {... */\n      tag_765\n      jumpi\n        /* \"ERC721A/ERC721AUpgradeable.sol\":13567:14195  if (safe && to.isContract()) {... */\n    tag_764:\n      pop\n        /* \"ERC721A/ERC721AUpgradeable.sol\":14208:14221  _currentIndex */\n      0x97\n        /* \"ERC721A/ERC721AUpgradeable.sol\":14208:14236  _currentIndex = updatedIndex */\n      sstore\n        /* \"ERC721A/ERC721AUpgradeable.sol\":14256:14316  _afterTokenTransfers(address(0), to, startTokenId, quantity) */\n      tag_594\n        /* \"CandyCreator721AUpgradeable.sol\":8463:9403  function whitelistMint(bytes32[] calldata merkleProof, uint64 amount)... */\n      jump\n        /* \"PaymentSplitter/CandyPaymentSplitterUpgradeable.sol\":6822:7263  function _addPayee(address account, uint256 shares_) internal {... */\n    tag_732:\n      sub(shl(0xa0, 0x01), 0x01)\n        /* \"PaymentSplitter/CandyPaymentSplitterUpgradeable.sol\":6898:6919  account == address(0) */\n      dup3\n      and\n        /* \"PaymentSplitter/CandyPaymentSplitterUpgradeable.sol\":6894:6949  if (account == address(0)) revert SharesToZeroAddress() */\n      tag_770\n      jumpi\n        /* \"PaymentSplitter/CandyPaymentSplitterUpgradeable.sol\":6928:6949  SharesToZeroAddress() */\n      mload(0x40)\n      shl(0xe0, 0xab387169)\n      dup2\n      mstore\n      0x04\n      add\n      mload(0x40)\n      dup1\n      swap2\n      sub\n      swap1\n      revert\n        /* \"PaymentSplitter/CandyPaymentSplitterUpgradeable.sol\":6894:6949  if (account == address(0)) revert SharesToZeroAddress() */\n    tag_770:\n        /* \"PaymentSplitter/CandyPaymentSplitterUpgradeable.sol\":6974:6975  0 */\n      0x00\n        /* \"PaymentSplitter/CandyPaymentSplitterUpgradeable.sol\":6963:6970  shares_ */\n      dup2\n        /* \"PaymentSplitter/CandyPaymentSplitterUpgradeable.sol\":6963:6975  shares_ <= 0 */\n      gt\n        /* \"PaymentSplitter/CandyPaymentSplitterUpgradeable.sol\":6959:6999  if (shares_ <= 0) revert InvalidShares() */\n      tag_771\n      jumpi\n        /* \"PaymentSplitter/CandyPaymentSplitterUpgradeable.sol\":6984:6999  InvalidShares() */\n      mload(0x40)\n      shl(0xe0, 0x6edcc523)\n      dup2\n      mstore\n      0x04\n      add\n      mload(0x40)\n      dup1\n      swap2\n      sub\n      swap1\n      revert\n        /* \"PaymentSplitter/CandyPaymentSplitterUpgradeable.sol\":6959:6999  if (shares_ <= 0) revert InvalidShares() */\n    tag_771:\n      sub(shl(0xa0, 0x01), 0x01)\n        /* \"PaymentSplitter/CandyPaymentSplitterUpgradeable.sol\":7013:7029  _shares[account] */\n      dup3\n      and\n      0x00\n      swap1\n      dup2\n      mstore\n        /* \"PaymentSplitter/CandyPaymentSplitterUpgradeable.sol\":7013:7020  _shares */\n      0xcc\n        /* \"PaymentSplitter/CandyPaymentSplitterUpgradeable.sol\":7013:7029  _shares[account] */\n      0x20\n      mstore\n      0x40\n      swap1\n      keccak256\n      sload\n        /* \"PaymentSplitter/CandyPaymentSplitterUpgradeable.sol\":7013:7034  _shares[account] != 0 */\n      iszero\n        /* \"PaymentSplitter/CandyPaymentSplitterUpgradeable.sol\":7009:7067  if (_shares[account] != 0) revert AddressAlreadyAssigned() */\n      tag_772\n      jumpi\n        /* \"PaymentSplitter/CandyPaymentSplitterUpgradeable.sol\":7043:7067  AddressAlreadyAssigned() */\n      mload(0x40)\n      shl(0xe0, 0xb3f5cfa5)\n      dup2\n      mstore\n      0x04\n      add\n      mload(0x40)\n      dup1\n      swap2\n      sub\n      swap1\n      revert\n        /* \"PaymentSplitter/CandyPaymentSplitterUpgradeable.sol\":7009:7067  if (_shares[account] != 0) revert AddressAlreadyAssigned() */\n    tag_772:\n        /* \"PaymentSplitter/CandyPaymentSplitterUpgradeable.sol\":7077:7099  _numPayees.increment() */\n      tag_773\n        /* \"PaymentSplitter/CandyPaymentSplitterUpgradeable.sol\":7077:7087  _numPayees */\n      0xc9\n        /* \"@openzeppelin/contracts-upgradeable/utils/CountersUpgradeable.sol\":1043:1062  counter._value += 1 */\n      dup1\n      sload\n        /* \"@openzeppelin/contracts-upgradeable/utils/CountersUpgradeable.sol\":1061:1062  1 */\n      0x01\n        /* \"@openzeppelin/contracts-upgradeable/utils/CountersUpgradeable.sol\":1043:1062  counter._value += 1 */\n      add\n      swap1\n      sstore\n        /* \"@openzeppelin/contracts-upgradeable/utils/CountersUpgradeable.sol\":956:1079  function increment(Counter storage counter) internal {... */\n      jump\n        /* \"PaymentSplitter/CandyPaymentSplitterUpgradeable.sol\":7077:7099  _numPayees.increment() */\n    tag_773:\n        /* \"PaymentSplitter/CandyPaymentSplitterUpgradeable.sol\":7109:7116  _payees */\n      0xce\n        /* \"PaymentSplitter/CandyPaymentSplitterUpgradeable.sol\":7109:7130  _payees.push(account) */\n      dup1\n      sload\n      0x01\n      dup2\n      add\n      swap1\n      swap2\n      sstore\n      0xd36cd1c74ef8d7326d8021b776c18fb5a5724b7f7bc93c2f42e43e10ef27d12a\n      add\n      dup1\n      sload\n      not(sub(shl(0xa0, 0x01), 0x01))\n      and\n      sub(shl(0xa0, 0x01), 0x01)\n      dup5\n      and\n      swap1\n      dup2\n      or\n      swap1\n      swap2\n      sstore\n      0x00\n        /* \"PaymentSplitter/CandyPaymentSplitterUpgradeable.sol\":7140:7156  _shares[account] */\n      swap1\n      dup2\n      mstore\n        /* \"PaymentSplitter/CandyPaymentSplitterUpgradeable.sol\":7140:7147  _shares */\n      0xcc\n        /* \"PaymentSplitter/CandyPaymentSplitterUpgradeable.sol\":7109:7130  _payees.push(account) */\n      0x20\n        /* \"PaymentSplitter/CandyPaymentSplitterUpgradeable.sol\":7140:7156  _shares[account] */\n      mstore\n      0x40\n      swap1\n      keccak256\n        /* \"PaymentSplitter/CandyPaymentSplitterUpgradeable.sol\":7140:7166  _shares[account] = shares_ */\n      dup2\n      swap1\n      sstore\n        /* \"PaymentSplitter/CandyPaymentSplitterUpgradeable.sol\":7191:7203  _totalShares */\n      sload(0xca)\n        /* \"PaymentSplitter/CandyPaymentSplitterUpgradeable.sol\":7191:7213  _totalShares + shares_ */\n      tag_776\n      swap1\n        /* \"PaymentSplitter/CandyPaymentSplitterUpgradeable.sol\":7140:7166  _shares[account] = shares_ */\n      dup3\n      swap1\n        /* \"PaymentSplitter/CandyPaymentSplitterUpgradeable.sol\":7191:7213  _totalShares + shares_ */\n      tag_315\n      jump\t// in\n    tag_776:\n        /* \"PaymentSplitter/CandyPaymentSplitterUpgradeable.sol\":7176:7188  _totalShares */\n      0xca\n        /* \"PaymentSplitter/CandyPaymentSplitterUpgradeable.sol\":7176:7213  _totalShares = _totalShares + shares_ */\n      sstore\n        /* \"PaymentSplitter/CandyPaymentSplitterUpgradeable.sol\":7228:7256  PayeeAdded(account, shares_) */\n      0x40\n      dup1\n      mload\n      sub(shl(0xa0, 0x01), 0x01)\n        /* \"#utility.yul\":206:238   */\n      dup5\n      and\n        /* \"#utility.yul\":188:239   */\n      dup2\n      mstore\n        /* \"#utility.yul\":270:272   */\n      0x20\n        /* \"#utility.yul\":255:273   */\n      dup2\n      add\n        /* \"#utility.yul\":248:282   */\n      dup4\n      swap1\n      mstore\n        /* \"PaymentSplitter/CandyPaymentSplitterUpgradeable.sol\":7228:7256  PayeeAdded(account, shares_) */\n      0x40c340f65e17194d14ddddb073d3c9f888e3cb52b5aae0c6c7706b4fbc905fac\n      swap2\n        /* \"#utility.yul\":161:179   */\n      add\n        /* \"PaymentSplitter/CandyPaymentSplitterUpgradeable.sol\":7228:7256  PayeeAdded(account, shares_) */\n      tag_369\n        /* \"#utility.yul\":14:288   */\n      jump\n    tag_378:\n      dup3\n      dup1\n      sload\n      tag_779\n      swap1\n      tag_283\n      jump\t// in\n    tag_779:\n      swap1\n      0x00\n      mstore\n      keccak256(0x00, 0x20)\n      swap1\n      0x1f\n      add\n      0x20\n      swap1\n      div\n      dup2\n      add\n      swap3\n      dup3\n      tag_781\n      jumpi\n      0x00\n      dup6\n      sstore\n      jump(tag_784)\n    tag_781:\n      dup3\n      0x1f\n      lt\n      tag_782\n      jumpi\n      dup1\n      mload\n      not(0xff)\n      and\n      dup4\n      dup1\n      add\n      or\n      dup6\n      sstore\n      jump(tag_784)\n    tag_782:\n      dup3\n      dup1\n      add\n      0x01\n      add\n      dup6\n      sstore\n      dup3\n      iszero\n      tag_784\n      jumpi\n      swap2\n      dup3\n      add\n    tag_783:\n      dup3\n      dup2\n      gt\n      iszero\n      tag_784\n      jumpi\n      dup3\n      mload\n      dup3\n      sstore\n      swap2\n      0x20\n      add\n      swap2\n      swap1\n      0x01\n      add\n      swap1\n      jump(tag_783)\n    tag_784:\n      pop\n      tag_785\n      swap3\n      swap2\n      pop\n      tag_786\n      jump\t// in\n    tag_785:\n      pop\n      swap1\n      jump\t// out\n    tag_441:\n      dup3\n      dup1\n      sload\n      tag_787\n      swap1\n      tag_283\n      jump\t// in\n    tag_787:\n      swap1\n      0x00\n      mstore\n      keccak256(0x00, 0x20)\n      swap1\n      0x1f\n      add\n      0x20\n      swap1\n      div\n      dup2\n      add\n      swap3\n      dup3\n      tag_789\n      jumpi\n      0x00\n      dup6\n      sstore\n      jump(tag_784)\n    tag_789:\n      dup3\n      0x1f\n      lt\n      tag_790\n      jumpi\n      dup3\n      dup1\n      add\n      not(0xff)\n      dup3\n      calldataload\n      and\n      or\n      dup6\n      sstore\n      jump(tag_784)\n    tag_790:\n      dup3\n      dup1\n      add\n      0x01\n      add\n      dup6\n      sstore\n      dup3\n      iszero\n      tag_784\n      jumpi\n      swap2\n      dup3\n      add\n    tag_791:\n      dup3\n      dup2\n      gt\n      iszero\n      tag_784\n      jumpi\n      dup3\n      calldataload\n      dup3\n      sstore\n      swap2\n      0x20\n      add\n      swap2\n      swap1\n      0x01\n      add\n      swap1\n      jump(tag_791)\n    tag_786:\n    tag_794:\n      dup1\n      dup3\n      gt\n      iszero\n      tag_785\n      jumpi\n      0x00\n      dup2\n      sstore\n      0x01\n      add\n      jump(tag_794)\n        /* \"#utility.yul\":293:424   */\n    tag_796:\n      not(sub(shl(0xe0, 0x01), 0x01))\n        /* \"#utility.yul\":367:399   */\n      dup2\n      and\n        /* \"#utility.yul\":357:400   */\n      dup2\n      eq\n        /* \"#utility.yul\":347:418   */\n      tag_353\n      jumpi\n        /* \"#utility.yul\":414:415   */\n      0x00\n        /* \"#utility.yul\":411:412   */\n      dup1\n        /* \"#utility.yul\":404:416   */\n      revert\n        /* \"#utility.yul\":429:674   */\n    tag_72:\n        /* \"#utility.yul\":487:493   */\n      0x00\n        /* \"#utility.yul\":540:542   */\n      0x20\n        /* \"#utility.yul\":528:537   */\n      dup3\n        /* \"#utility.yul\":519:526   */\n      dup5\n        /* \"#utility.yul\":515:538   */\n      sub\n        /* \"#utility.yul\":511:543   */\n      slt\n        /* \"#utility.yul\":508:560   */\n      iszero\n      tag_814\n      jumpi\n        /* \"#utility.yul\":556:557   */\n      0x00\n        /* \"#utility.yul\":553:554   */\n      dup1\n        /* \"#utility.yul\":546:558   */\n      revert\n        /* \"#utility.yul\":508:560   */\n    tag_814:\n        /* \"#utility.yul\":595:604   */\n      dup2\n        /* \"#utility.yul\":582:605   */\n      calldataload\n        /* \"#utility.yul\":614:644   */\n      tag_499\n        /* \"#utility.yul\":638:643   */\n      dup2\n        /* \"#utility.yul\":614:644   */\n      tag_796\n      jump\t// in\n        /* \"#utility.yul\":871:1129   */\n    tag_797:\n        /* \"#utility.yul\":943:944   */\n      0x00\n        /* \"#utility.yul\":953:1066   */\n    tag_818:\n        /* \"#utility.yul\":967:973   */\n      dup4\n        /* \"#utility.yul\":964:965   */\n      dup2\n        /* \"#utility.yul\":961:974   */\n      lt\n        /* \"#utility.yul\":953:1066   */\n      iszero\n      tag_820\n      jumpi\n        /* \"#utility.yul\":1043:1054   */\n      dup2\n      dup2\n      add\n        /* \"#utility.yul\":1037:1055   */\n      mload\n        /* \"#utility.yul\":1024:1035   */\n      dup4\n      dup3\n      add\n        /* \"#utility.yul\":1017:1056   */\n      mstore\n        /* \"#utility.yul\":989:991   */\n      0x20\n        /* \"#utility.yul\":982:992   */\n      add\n        /* \"#utility.yul\":953:1066   */\n      jump(tag_818)\n    tag_820:\n        /* \"#utility.yul\":1084:1090   */\n      dup4\n        /* \"#utility.yul\":1081:1082   */\n      dup2\n        /* \"#utility.yul\":1078:1091   */\n      gt\n        /* \"#utility.yul\":1075:1123   */\n      iszero\n      tag_333\n      jumpi\n      pop\n      pop\n        /* \"#utility.yul\":1119:1120   */\n      0x00\n        /* \"#utility.yul\":1101:1117   */\n      swap2\n      add\n        /* \"#utility.yul\":1094:1121   */\n      mstore\n        /* \"#utility.yul\":871:1129   */\n      jump\t// out\n        /* \"#utility.yul\":1134:1392   */\n    tag_798:\n        /* \"#utility.yul\":1176:1179   */\n      0x00\n        /* \"#utility.yul\":1214:1219   */\n      dup2\n        /* \"#utility.yul\":1208:1220   */\n      mload\n        /* \"#utility.yul\":1241:1247   */\n      dup1\n        /* \"#utility.yul\":1236:1239   */\n      dup5\n        /* \"#utility.yul\":1229:1248   */\n      mstore\n        /* \"#utility.yul\":1257:1320   */\n      tag_823\n        /* \"#utility.yul\":1313:1319   */\n      dup2\n        /* \"#utility.yul\":1306:1310   */\n      0x20\n        /* \"#utility.yul\":1301:1304   */\n      dup7\n        /* \"#utility.yul\":1297:1311   */\n      add\n        /* \"#utility.yul\":1290:1294   */\n      0x20\n        /* \"#utility.yul\":1283:1288   */\n      dup7\n        /* \"#utility.yul\":1279:1295   */\n      add\n        /* \"#utility.yul\":1257:1320   */\n      tag_797\n      jump\t// in\n    tag_823:\n        /* \"#utility.yul\":1374:1376   */\n      0x1f\n        /* \"#utility.yul\":1353:1368   */\n      add\n      not(0x1f)\n        /* \"#utility.yul\":1349:1378   */\n      and\n        /* \"#utility.yul\":1340:1379   */\n      swap3\n      swap1\n      swap3\n      add\n        /* \"#utility.yul\":1381:1385   */\n      0x20\n        /* \"#utility.yul\":1336:1386   */\n      add\n      swap3\n        /* \"#utility.yul\":1134:1392   */\n      swap2\n      pop\n      pop\n      jump\t// out\n        /* \"#utility.yul\":1397:1617   */\n    tag_80:\n        /* \"#utility.yul\":1546:1548   */\n      0x20\n        /* \"#utility.yul\":1535:1544   */\n      dup2\n        /* \"#utility.yul\":1528:1549   */\n      mstore\n        /* \"#utility.yul\":1509:1513   */\n      0x00\n        /* \"#utility.yul\":1566:1611   */\n      tag_499\n        /* \"#utility.yul\":1607:1609   */\n      0x20\n        /* \"#utility.yul\":1596:1605   */\n      dup4\n        /* \"#utility.yul\":1592:1610   */\n      add\n        /* \"#utility.yul\":1584:1590   */\n      dup5\n        /* \"#utility.yul\":1566:1611   */\n      tag_798\n      jump\t// in\n        /* \"#utility.yul\":1622:1802   */\n    tag_84:\n        /* \"#utility.yul\":1681:1687   */\n      0x00\n        /* \"#utility.yul\":1734:1736   */\n      0x20\n        /* \"#utility.yul\":1722:1731   */\n      dup3\n        /* \"#utility.yul\":1713:1720   */\n      dup5\n        /* \"#utility.yul\":1709:1732   */\n      sub\n        /* \"#utility.yul\":1705:1737   */\n      slt\n        /* \"#utility.yul\":1702:1754   */\n      iszero\n      tag_827\n      jumpi\n        /* \"#utility.yul\":1750:1751   */\n      0x00\n        /* \"#utility.yul\":1747:1748   */\n      dup1\n        /* \"#utility.yul\":1740:1752   */\n      revert\n        /* \"#utility.yul\":1702:1754   */\n    tag_827:\n      pop\n        /* \"#utility.yul\":1773:1796   */\n      calldataload\n      swap2\n        /* \"#utility.yul\":1622:1802   */\n      swap1\n      pop\n      jump\t// out\n        /* \"#utility.yul\":2015:2188   */\n    tag_799:\n        /* \"#utility.yul\":2083:2103   */\n      dup1\n      calldataload\n      sub(shl(0xa0, 0x01), 0x01)\n        /* \"#utility.yul\":2132:2163   */\n      dup2\n      and\n        /* \"#utility.yul\":2122:2164   */\n      dup2\n      eq\n        /* \"#utility.yul\":2112:2182   */\n      tag_830\n      jumpi\n        /* \"#utility.yul\":2178:2179   */\n      0x00\n        /* \"#utility.yul\":2175:2176   */\n      dup1\n        /* \"#utility.yul\":2168:2180   */\n      revert\n        /* \"#utility.yul\":2112:2182   */\n    tag_830:\n        /* \"#utility.yul\":2015:2188   */\n      swap2\n      swap1\n      pop\n      jump\t// out\n        /* \"#utility.yul\":2193:2447   */\n    tag_91:\n        /* \"#utility.yul\":2261:2267   */\n      0x00\n        /* \"#utility.yul\":2269:2275   */\n      dup1\n        /* \"#utility.yul\":2322:2324   */\n      0x40\n        /* \"#utility.yul\":2310:2319   */\n      dup4\n        /* \"#utility.yul\":2301:2308   */\n      dup6\n        /* \"#utility.yul\":2297:2320   */\n      sub\n        /* \"#utility.yul\":2293:2325   */\n      slt\n        /* \"#utility.yul\":2290:2342   */\n      iszero\n      tag_832\n      jumpi\n        /* \"#utility.yul\":2338:2339   */\n      0x00\n        /* \"#utility.yul\":2335:2336   */\n      dup1\n        /* \"#utility.yul\":2328:2340   */\n      revert\n        /* \"#utility.yul\":2290:2342   */\n    tag_832:\n        /* \"#utility.yul\":2361:2390   */\n      tag_833\n        /* \"#utility.yul\":2380:2389   */\n      dup4\n        /* \"#utility.yul\":2361:2390   */\n      tag_799\n      jump\t// in\n    tag_833:\n        /* \"#utility.yul\":2351:2390   */\n      swap5\n        /* \"#utility.yul\":2437:2439   */\n      0x20\n        /* \"#utility.yul\":2422:2440   */\n      swap4\n      swap1\n      swap4\n      add\n        /* \"#utility.yul\":2409:2441   */\n      calldataload\n      swap4\n      pop\n      pop\n      pop\n        /* \"#utility.yul\":2193:2447   */\n      jump\t// out\n        /* \"#utility.yul\":2634:2805   */\n    tag_800:\n        /* \"#utility.yul\":2701:2721   */\n      dup1\n      calldataload\n      sub(shl(0x40, 0x01), 0x01)\n        /* \"#utility.yul\":2750:2780   */\n      dup2\n      and\n        /* \"#utility.yul\":2740:2781   */\n      dup2\n      eq\n        /* \"#utility.yul\":2730:2799   */\n      tag_830\n      jumpi\n        /* \"#utility.yul\":2795:2796   */\n      0x00\n        /* \"#utility.yul\":2792:2793   */\n      dup1\n        /* \"#utility.yul\":2785:2797   */\n      revert\n        /* \"#utility.yul\":2810:3503   */\n    tag_104:\n        /* \"#utility.yul\":2904:2910   */\n      0x00\n        /* \"#utility.yul\":2912:2918   */\n      dup1\n        /* \"#utility.yul\":2920:2926   */\n      0x00\n        /* \"#utility.yul\":2973:2975   */\n      0x40\n        /* \"#utility.yul\":2961:2970   */\n      dup5\n        /* \"#utility.yul\":2952:2959   */\n      dup7\n        /* \"#utility.yul\":2948:2971   */\n      sub\n        /* \"#utility.yul\":2944:2976   */\n      slt\n        /* \"#utility.yul\":2941:2993   */\n      iszero\n      tag_838\n      jumpi\n        /* \"#utility.yul\":2989:2990   */\n      0x00\n        /* \"#utility.yul\":2986:2987   */\n      dup1\n        /* \"#utility.yul\":2979:2991   */\n      revert\n        /* \"#utility.yul\":2941:2993   */\n    tag_838:\n        /* \"#utility.yul\":3029:3038   */\n      dup4\n        /* \"#utility.yul\":3016:3039   */\n      calldataload\n      sub(shl(0x40, 0x01), 0x01)\n        /* \"#utility.yul\":3099:3101   */\n      dup1\n        /* \"#utility.yul\":3091:3097   */\n      dup3\n        /* \"#utility.yul\":3088:3102   */\n      gt\n        /* \"#utility.yul\":3085:3119   */\n      iszero\n      tag_839\n      jumpi\n        /* \"#utility.yul\":3115:3116   */\n      0x00\n        /* \"#utility.yul\":3112:3113   */\n      dup1\n        /* \"#utility.yul\":3105:3117   */\n      revert\n        /* \"#utility.yul\":3085:3119   */\n    tag_839:\n        /* \"#utility.yul\":3153:3159   */\n      dup2\n        /* \"#utility.yul\":3142:3151   */\n      dup7\n        /* \"#utility.yul\":3138:3160   */\n      add\n        /* \"#utility.yul\":3128:3160   */\n      swap2\n      pop\n        /* \"#utility.yul\":3198:3205   */\n      dup7\n        /* \"#utility.yul\":3191:3195   */\n      0x1f\n        /* \"#utility.yul\":3187:3189   */\n      dup4\n        /* \"#utility.yul\":3183:3196   */\n      add\n        /* \"#utility.yul\":3179:3206   */\n      slt\n        /* \"#utility.yul\":3169:3224   */\n      tag_840\n      jumpi\n        /* \"#utility.yul\":3220:3221   */\n      0x00\n        /* \"#utility.yul\":3217:3218   */\n      dup1\n        /* \"#utility.yul\":3210:3222   */\n      revert\n        /* \"#utility.yul\":3169:3224   */\n    tag_840:\n        /* \"#utility.yul\":3260:3262   */\n      dup2\n        /* \"#utility.yul\":3247:3263   */\n      calldataload\n        /* \"#utility.yul\":3286:3288   */\n      dup2\n        /* \"#utility.yul\":3278:3284   */\n      dup2\n        /* \"#utility.yul\":3275:3289   */\n      gt\n        /* \"#utility.yul\":3272:3306   */\n      iszero\n      tag_841\n      jumpi\n        /* \"#utility.yul\":3302:3303   */\n      0x00\n        /* \"#utility.yul\":3299:3300   */\n      dup1\n        /* \"#utility.yul\":3292:3304   */\n      revert\n        /* \"#utility.yul\":3272:3306   */\n    tag_841:\n        /* \"#utility.yul\":3357:3364   */\n      dup8\n        /* \"#utility.yul\":3350:3354   */\n      0x20\n        /* \"#utility.yul\":3340:3346   */\n      dup3\n        /* \"#utility.yul\":3337:3338   */\n      0x05\n        /* \"#utility.yul\":3333:3347   */\n      shl\n        /* \"#utility.yul\":3329:3331   */\n      dup6\n        /* \"#utility.yul\":3325:3348   */\n      add\n        /* \"#utility.yul\":3321:3355   */\n      add\n        /* \"#utility.yul\":3318:3365   */\n      gt\n        /* \"#utility.yul\":3315:3382   */\n      iszero\n      tag_842\n      jumpi\n        /* \"#utility.yul\":3378:3379   */\n      0x00\n        /* \"#utility.yul\":3375:3376   */\n      dup1\n        /* \"#utility.yul\":3368:3380   */\n      revert\n        /* \"#utility.yul\":3315:3382   */\n    tag_842:\n        /* \"#utility.yul\":3409:3413   */\n      0x20\n        /* \"#utility.yul\":3401:3414   */\n      swap3\n      dup4\n      add\n      swap6\n      pop\n        /* \"#utility.yul\":3433:3439   */\n      swap4\n      pop\n        /* \"#utility.yul\":3458:3497   */\n      tag_843\n      swap2\n        /* \"#utility.yul\":3476:3496   */\n      dup7\n      add\n      swap1\n      pop\n        /* \"#utility.yul\":3458:3497   */\n      tag_800\n      jump\t// in\n    tag_843:\n        /* \"#utility.yul\":3448:3497   */\n      swap1\n      pop\n        /* \"#utility.yul\":2810:3503   */\n      swap3\n      pop\n      swap3\n      pop\n      swap3\n      jump\t// out\n        /* \"#utility.yul\":3508:3836   */\n    tag_109:\n        /* \"#utility.yul\":3585:3591   */\n      0x00\n        /* \"#utility.yul\":3593:3599   */\n      dup1\n        /* \"#utility.yul\":3601:3607   */\n      0x00\n        /* \"#utility.yul\":3654:3656   */\n      0x60\n        /* \"#utility.yul\":3642:3651   */\n      dup5\n        /* \"#utility.yul\":3633:3640   */\n      dup7\n        /* \"#utility.yul\":3629:3652   */\n      sub\n        /* \"#utility.yul\":3625:3657   */\n      slt\n        /* \"#utility.yul\":3622:3674   */\n      iszero\n      tag_845\n      jumpi\n        /* \"#utility.yul\":3670:3671   */\n      0x00\n        /* \"#utility.yul\":3667:3668   */\n      dup1\n        /* \"#utility.yul\":3660:3672   */\n      revert\n        /* \"#utility.yul\":3622:3674   */\n    tag_845:\n        /* \"#utility.yul\":3693:3722   */\n      tag_846\n        /* \"#utility.yul\":3712:3721   */\n      dup5\n        /* \"#utility.yul\":3693:3722   */\n      tag_799\n      jump\t// in\n    tag_846:\n        /* \"#utility.yul\":3683:3722   */\n      swap3\n      pop\n        /* \"#utility.yul\":3741:3779   */\n      tag_847\n        /* \"#utility.yul\":3775:3777   */\n      0x20\n        /* \"#utility.yul\":3764:3773   */\n      dup6\n        /* \"#utility.yul\":3760:3778   */\n      add\n        /* \"#utility.yul\":3741:3779   */\n      tag_799\n      jump\t// in\n    tag_847:\n        /* \"#utility.yul\":3731:3779   */\n      swap2\n      pop\n        /* \"#utility.yul\":3826:3828   */\n      0x40\n        /* \"#utility.yul\":3815:3824   */\n      dup5\n        /* \"#utility.yul\":3811:3829   */\n      add\n        /* \"#utility.yul\":3798:3830   */\n      calldataload\n        /* \"#utility.yul\":3788:3830   */\n      swap1\n      pop\n        /* \"#utility.yul\":3508:3836   */\n      swap3\n      pop\n      swap3\n      pop\n      swap3\n      jump\t// out\n        /* \"#utility.yul\":3841:4089   */\n    tag_114:\n        /* \"#utility.yul\":3909:3915   */\n      0x00\n        /* \"#utility.yul\":3917:3923   */\n      dup1\n        /* \"#utility.yul\":3970:3972   */\n      0x40\n        /* \"#utility.yul\":3958:3967   */\n      dup4\n        /* \"#utility.yul\":3949:3956   */\n      dup6\n        /* \"#utility.yul\":3945:3968   */\n      sub\n        /* \"#utility.yul\":3941:3973   */\n      slt\n        /* \"#utility.yul\":3938:3990   */\n      iszero\n      tag_849\n      jumpi\n        /* \"#utility.yul\":3986:3987   */\n      0x00\n        /* \"#utility.yul\":3983:3984   */\n      dup1\n        /* \"#utility.yul\":3976:3988   */\n      revert\n        /* \"#utility.yul\":3938:3990   */\n    tag_849:\n      pop\n      pop\n        /* \"#utility.yul\":4009:4032   */\n      dup1\n      calldataload\n      swap3\n        /* \"#utility.yul\":4079:4081   */\n      0x20\n        /* \"#utility.yul\":4064:4082   */\n      swap1\n      swap2\n      add\n        /* \"#utility.yul\":4051:4083   */\n      calldataload\n      swap2\n      pop\n        /* \"#utility.yul\":3841:4089   */\n      jump\t// out\n        /* \"#utility.yul\":4094:4221   */\n    tag_690:\n        /* \"#utility.yul\":4155:4165   */\n      0x4e487b71\n        /* \"#utility.yul\":4150:4153   */\n      0xe0\n        /* \"#utility.yul\":4146:4166   */\n      shl\n        /* \"#utility.yul\":4143:4144   */\n      0x00\n        /* \"#utility.yul\":4136:4167   */\n      mstore\n        /* \"#utility.yul\":4186:4190   */\n      0x41\n        /* \"#utility.yul\":4183:4184   */\n      0x04\n        /* \"#utility.yul\":4176:4191   */\n      mstore\n        /* \"#utility.yul\":4210:4214   */\n      0x24\n        /* \"#utility.yul\":4207:4208   */\n      0x00\n        /* \"#utility.yul\":4200:4215   */\n      revert\n        /* \"#utility.yul\":4226:4501   */\n    tag_801:\n        /* \"#utility.yul\":4297:4299   */\n      0x40\n        /* \"#utility.yul\":4291:4300   */\n      mload\n        /* \"#utility.yul\":4362:4364   */\n      0x1f\n        /* \"#utility.yul\":4343:4356   */\n      dup3\n      add\n      not(0x1f)\n        /* \"#utility.yul\":4339:4366   */\n      and\n        /* \"#utility.yul\":4327:4367   */\n      dup2\n      add\n      sub(shl(0x40, 0x01), 0x01)\n        /* \"#utility.yul\":4382:4416   */\n      dup2\n      gt\n        /* \"#utility.yul\":4418:4440   */\n      dup3\n      dup3\n      lt\n        /* \"#utility.yul\":4379:4441   */\n      or\n        /* \"#utility.yul\":4376:4464   */\n      iszero\n      tag_853\n      jumpi\n        /* \"#utility.yul\":4444:4462   */\n      tag_853\n      tag_690\n      jump\t// in\n    tag_853:\n        /* \"#utility.yul\":4480:4482   */\n      0x40\n        /* \"#utility.yul\":4473:4495   */\n      mstore\n        /* \"#utility.yul\":4226:4501   */\n      swap2\n      swap1\n      pop\n      jump\t// out\n        /* \"#utility.yul\":4506:4913   */\n    tag_802:\n        /* \"#utility.yul\":4571:4576   */\n      0x00\n      sub(shl(0x40, 0x01), 0x01)\n        /* \"#utility.yul\":4597:4603   */\n      dup4\n        /* \"#utility.yul\":4594:4624   */\n      gt\n        /* \"#utility.yul\":4591:4647   */\n      iszero\n      tag_856\n      jumpi\n        /* \"#utility.yul\":4627:4645   */\n      tag_856\n      tag_690\n      jump\t// in\n    tag_856:\n        /* \"#utility.yul\":4665:4722   */\n      tag_857\n        /* \"#utility.yul\":4710:4712   */\n      0x1f\n        /* \"#utility.yul\":4689:4704   */\n      dup5\n      add\n      not(0x1f)\n        /* \"#utility.yul\":4685:4714   */\n      and\n        /* \"#utility.yul\":4716:4720   */\n      0x20\n        /* \"#utility.yul\":4681:4721   */\n      add\n        /* \"#utility.yul\":4665:4722   */\n      tag_801\n      jump\t// in\n    tag_857:\n        /* \"#utility.yul\":4656:4722   */\n      swap1\n      pop\n        /* \"#utility.yul\":4745:4751   */\n      dup3\n        /* \"#utility.yul\":4738:4743   */\n      dup2\n        /* \"#utility.yul\":4731:4752   */\n      mstore\n        /* \"#utility.yul\":4785:4788   */\n      dup4\n        /* \"#utility.yul\":4776:4782   */\n      dup4\n        /* \"#utility.yul\":4771:4774   */\n      dup4\n        /* \"#utility.yul\":4767:4783   */\n      add\n        /* \"#utility.yul\":4764:4789   */\n      gt\n        /* \"#utility.yul\":4761:4806   */\n      iszero\n      tag_858\n      jumpi\n        /* \"#utility.yul\":4802:4803   */\n      0x00\n        /* \"#utility.yul\":4799:4800   */\n      dup1\n        /* \"#utility.yul\":4792:4804   */\n      revert\n        /* \"#utility.yul\":4761:4806   */\n    tag_858:\n        /* \"#utility.yul\":4851:4857   */\n      dup3\n        /* \"#utility.yul\":4846:4849   */\n      dup3\n        /* \"#utility.yul\":4839:4843   */\n      0x20\n        /* \"#utility.yul\":4832:4837   */\n      dup4\n        /* \"#utility.yul\":4828:4844   */\n      add\n        /* \"#utility.yul\":4815:4858   */\n      calldatacopy\n        /* \"#utility.yul\":4905:4906   */\n      0x00\n        /* \"#utility.yul\":4898:4902   */\n      0x20\n        /* \"#utility.yul\":4889:4895   */\n      dup5\n        /* \"#utility.yul\":4882:4887   */\n      dup4\n        /* \"#utility.yul\":4878:4896   */\n      add\n        /* \"#utility.yul\":4874:4903   */\n      add\n        /* \"#utility.yul\":4867:4907   */\n      mstore\n        /* \"#utility.yul\":4506:4913   */\n      swap4\n      swap3\n      pop\n      pop\n      pop\n      jump\t// out\n        /* \"#utility.yul\":4918:5140   */\n    tag_803:\n        /* \"#utility.yul\":4961:4966   */\n      0x00\n        /* \"#utility.yul\":5014:5017   */\n      dup3\n        /* \"#utility.yul\":5007:5011   */\n      0x1f\n        /* \"#utility.yul\":4999:5005   */\n      dup4\n        /* \"#utility.yul\":4995:5012   */\n      add\n        /* \"#utility.yul\":4991:5018   */\n      slt\n        /* \"#utility.yul\":4981:5036   */\n      tag_860\n      jumpi\n        /* \"#utility.yul\":5032:5033   */\n      0x00\n        /* \"#utility.yul\":5029:5030   */\n      dup1\n        /* \"#utility.yul\":5022:5034   */\n      revert\n        /* \"#utility.yul\":4981:5036   */\n    tag_860:\n        /* \"#utility.yul\":5054:5134   */\n      tag_499\n        /* \"#utility.yul\":5130:5133   */\n      dup4\n        /* \"#utility.yul\":5121:5127   */\n      dup4\n        /* \"#utility.yul\":5108:5128   */\n      calldataload\n        /* \"#utility.yul\":5101:5105   */\n      0x20\n        /* \"#utility.yul\":5093:5099   */\n      dup6\n        /* \"#utility.yul\":5089:5106   */\n      add\n        /* \"#utility.yul\":5054:5134   */\n      tag_802\n      jump\t// in\n        /* \"#utility.yul\":5145:5467   */\n    tag_143:\n        /* \"#utility.yul\":5214:5220   */\n      0x00\n        /* \"#utility.yul\":5267:5269   */\n      0x20\n        /* \"#utility.yul\":5255:5264   */\n      dup3\n        /* \"#utility.yul\":5246:5253   */\n      dup5\n        /* \"#utility.yul\":5242:5265   */\n      sub\n        /* \"#utility.yul\":5238:5270   */\n      slt\n        /* \"#utility.yul\":5235:5287   */\n      iszero\n      tag_863\n      jumpi\n        /* \"#utility.yul\":5283:5284   */\n      0x00\n        /* \"#utility.yul\":5280:5281   */\n      dup1\n        /* \"#utility.yul\":5273:5285   */\n      revert\n        /* \"#utility.yul\":5235:5287   */\n    tag_863:\n        /* \"#utility.yul\":5323:5332   */\n      dup2\n        /* \"#utility.yul\":5310:5333   */\n      calldataload\n      sub(shl(0x40, 0x01), 0x01)\n        /* \"#utility.yul\":5348:5354   */\n      dup2\n        /* \"#utility.yul\":5345:5375   */\n      gt\n        /* \"#utility.yul\":5342:5392   */\n      iszero\n      tag_864\n      jumpi\n        /* \"#utility.yul\":5388:5389   */\n      0x00\n        /* \"#utility.yul\":5385:5386   */\n      dup1\n        /* \"#utility.yul\":5378:5390   */\n      revert\n        /* \"#utility.yul\":5342:5392   */\n    tag_864:\n        /* \"#utility.yul\":5411:5461   */\n      tag_675\n        /* \"#utility.yul\":5453:5460   */\n      dup5\n        /* \"#utility.yul\":5444:5450   */\n      dup3\n        /* \"#utility.yul\":5433:5442   */\n      dup6\n        /* \"#utility.yul\":5429:5451   */\n      add\n        /* \"#utility.yul\":5411:5461   */\n      tag_803\n      jump\t// in\n        /* \"#utility.yul\":5472:5655   */\n    tag_804:\n        /* \"#utility.yul\":5532:5536   */\n      0x00\n      sub(shl(0x40, 0x01), 0x01)\n        /* \"#utility.yul\":5557:5563   */\n      dup3\n        /* \"#utility.yul\":5554:5584   */\n      gt\n        /* \"#utility.yul\":5551:5607   */\n      iszero\n      tag_868\n      jumpi\n        /* \"#utility.yul\":5587:5605   */\n      tag_868\n      tag_690\n      jump\t// in\n    tag_868:\n      pop\n        /* \"#utility.yul\":5632:5633   */\n      0x05\n        /* \"#utility.yul\":5628:5642   */\n      shl\n        /* \"#utility.yul\":5644:5648   */\n      0x20\n        /* \"#utility.yul\":5624:5649   */\n      add\n      swap1\n        /* \"#utility.yul\":5472:5655   */\n      jump\t// out\n        /* \"#utility.yul\":5660:6328   */\n    tag_805:\n        /* \"#utility.yul\":5714:5719   */\n      0x00\n        /* \"#utility.yul\":5767:5770   */\n      dup3\n        /* \"#utility.yul\":5760:5764   */\n      0x1f\n        /* \"#utility.yul\":5752:5758   */\n      dup4\n        /* \"#utility.yul\":5748:5765   */\n      add\n        /* \"#utility.yul\":5744:5771   */\n      slt\n        /* \"#utility.yul\":5734:5789   */\n      tag_870\n      jumpi\n        /* \"#utility.yul\":5785:5786   */\n      0x00\n        /* \"#utility.yul\":5782:5783   */\n      dup1\n        /* \"#utility.yul\":5775:5787   */\n      revert\n        /* \"#utility.yul\":5734:5789   */\n    tag_870:\n        /* \"#utility.yul\":5821:5827   */\n      dup2\n        /* \"#utility.yul\":5808:5828   */\n      calldataload\n        /* \"#utility.yul\":5847:5851   */\n      0x20\n        /* \"#utility.yul\":5871:5931   */\n      tag_871\n        /* \"#utility.yul\":5887:5930   */\n      tag_872\n        /* \"#utility.yul\":5927:5929   */\n      dup4\n        /* \"#utility.yul\":5887:5930   */\n      tag_804\n      jump\t// in\n    tag_872:\n        /* \"#utility.yul\":5871:5931   */\n      tag_801\n      jump\t// in\n    tag_871:\n        /* \"#utility.yul\":5965:5980   */\n      dup3\n      dup2\n      mstore\n        /* \"#utility.yul\":6051:6052   */\n      0x05\n        /* \"#utility.yul\":6047:6057   */\n      swap3\n      swap1\n      swap3\n      shl\n        /* \"#utility.yul\":6035:6058   */\n      dup5\n      add\n        /* \"#utility.yul\":6031:6063   */\n      dup2\n      add\n      swap2\n        /* \"#utility.yul\":5996:6008   */\n      dup2\n      dup2\n      add\n      swap1\n        /* \"#utility.yul\":6075:6090   */\n      dup7\n      dup5\n      gt\n        /* \"#utility.yul\":6072:6107   */\n      iszero\n      tag_873\n      jumpi\n        /* \"#utility.yul\":6103:6104   */\n      0x00\n        /* \"#utility.yul\":6100:6101   */\n      dup1\n        /* \"#utility.yul\":6093:6105   */\n      revert\n        /* \"#utility.yul\":6072:6107   */\n    tag_873:\n        /* \"#utility.yul\":6139:6141   */\n      dup3\n        /* \"#utility.yul\":6131:6137   */\n      dup7\n        /* \"#utility.yul\":6127:6142   */\n      add\n        /* \"#utility.yul\":6151:6299   */\n    tag_874:\n        /* \"#utility.yul\":6167:6173   */\n      dup5\n        /* \"#utility.yul\":6162:6165   */\n      dup2\n        /* \"#utility.yul\":6159:6174   */\n      lt\n        /* \"#utility.yul\":6151:6299   */\n      iszero\n      tag_876\n      jumpi\n        /* \"#utility.yul\":6233:6256   */\n      tag_877\n        /* \"#utility.yul\":6252:6255   */\n      dup2\n        /* \"#utility.yul\":6233:6256   */\n      tag_799\n      jump\t// in\n    tag_877:\n        /* \"#utility.yul\":6221:6257   */\n      dup4\n      mstore\n        /* \"#utility.yul\":6277:6289   */\n      swap2\n      dup4\n      add\n      swap2\n        /* \"#utility.yul\":6184:6196   */\n      dup4\n      add\n        /* \"#utility.yul\":6151:6299   */\n      jump(tag_874)\n    tag_876:\n      pop\n        /* \"#utility.yul\":6317:6322   */\n      swap7\n        /* \"#utility.yul\":5660:6328   */\n      swap6\n      pop\n      pop\n      pop\n      pop\n      pop\n      pop\n      jump\t// out\n        /* \"#utility.yul\":6333:6995   */\n    tag_806:\n        /* \"#utility.yul\":6387:6392   */\n      0x00\n        /* \"#utility.yul\":6440:6443   */\n      dup3\n        /* \"#utility.yul\":6433:6437   */\n      0x1f\n        /* \"#utility.yul\":6425:6431   */\n      dup4\n        /* \"#utility.yul\":6421:6438   */\n      add\n        /* \"#utility.yul\":6417:6444   */\n      slt\n        /* \"#utility.yul\":6407:6462   */\n      tag_879\n      jumpi\n        /* \"#utility.yul\":6458:6459   */\n      0x00\n        /* \"#utility.yul\":6455:6456   */\n      dup1\n        /* \"#utility.yul\":6448:6460   */\n      revert\n        /* \"#utility.yul\":6407:6462   */\n    tag_879:\n        /* \"#utility.yul\":6494:6500   */\n      dup2\n        /* \"#utility.yul\":6481:6501   */\n      calldataload\n        /* \"#utility.yul\":6520:6524   */\n      0x20\n        /* \"#utility.yul\":6544:6604   */\n      tag_880\n        /* \"#utility.yul\":6560:6603   */\n      tag_872\n        /* \"#utility.yul\":6600:6602   */\n      dup4\n        /* \"#utility.yul\":6560:6603   */\n      tag_804\n      jump\t// in\n        /* \"#utility.yul\":6544:6604   */\n    tag_880:\n        /* \"#utility.yul\":6638:6653   */\n      dup3\n      dup2\n      mstore\n        /* \"#utility.yul\":6724:6725   */\n      0x05\n        /* \"#utility.yul\":6720:6730   */\n      swap3\n      swap1\n      swap3\n      shl\n        /* \"#utility.yul\":6708:6731   */\n      dup5\n      add\n        /* \"#utility.yul\":6704:6736   */\n      dup2\n      add\n      swap2\n        /* \"#utility.yul\":6669:6681   */\n      dup2\n      dup2\n      add\n      swap1\n        /* \"#utility.yul\":6748:6763   */\n      dup7\n      dup5\n      gt\n        /* \"#utility.yul\":6745:6780   */\n      iszero\n      tag_882\n      jumpi\n        /* \"#utility.yul\":6776:6777   */\n      0x00\n        /* \"#utility.yul\":6773:6774   */\n      dup1\n        /* \"#utility.yul\":6766:6778   */\n      revert\n        /* \"#utility.yul\":6745:6780   */\n    tag_882:\n        /* \"#utility.yul\":6812:6814   */\n      dup3\n        /* \"#utility.yul\":6804:6810   */\n      dup7\n        /* \"#utility.yul\":6800:6815   */\n      add\n        /* \"#utility.yul\":6824:6966   */\n    tag_883:\n        /* \"#utility.yul\":6840:6846   */\n      dup5\n        /* \"#utility.yul\":6835:6838   */\n      dup2\n        /* \"#utility.yul\":6832:6847   */\n      lt\n        /* \"#utility.yul\":6824:6966   */\n      iszero\n      tag_876\n      jumpi\n        /* \"#utility.yul\":6906:6923   */\n      dup1\n      calldataload\n        /* \"#utility.yul\":6894:6924   */\n      dup4\n      mstore\n        /* \"#utility.yul\":6944:6956   */\n      swap2\n      dup4\n      add\n      swap2\n        /* \"#utility.yul\":6857:6869   */\n      dup4\n      add\n        /* \"#utility.yul\":6824:6966   */\n      jump(tag_883)\n        /* \"#utility.yul\":7000:8479   */\n    tag_157:\n        /* \"#utility.yul\":7211:7217   */\n      0x00\n        /* \"#utility.yul\":7219:7225   */\n      dup1\n        /* \"#utility.yul\":7227:7233   */\n      0x00\n        /* \"#utility.yul\":7235:7241   */\n      dup1\n        /* \"#utility.yul\":7243:7249   */\n      0x00\n        /* \"#utility.yul\":7251:7257   */\n      dup1\n        /* \"#utility.yul\":7259:7265   */\n      0x00\n        /* \"#utility.yul\":7267:7273   */\n      dup1\n        /* \"#utility.yul\":7275:7281   */\n      0x00\n        /* \"#utility.yul\":7328:7331   */\n      0x0120\n        /* \"#utility.yul\":7316:7325   */\n      dup11\n        /* \"#utility.yul\":7307:7314   */\n      dup13\n        /* \"#utility.yul\":7303:7326   */\n      sub\n        /* \"#utility.yul\":7299:7332   */\n      slt\n        /* \"#utility.yul\":7296:7349   */\n      iszero\n      tag_887\n      jumpi\n        /* \"#utility.yul\":7345:7346   */\n      0x00\n        /* \"#utility.yul\":7342:7343   */\n      dup1\n        /* \"#utility.yul\":7335:7347   */\n      revert\n        /* \"#utility.yul\":7296:7349   */\n    tag_887:\n        /* \"#utility.yul\":7385:7394   */\n      dup10\n        /* \"#utility.yul\":7372:7395   */\n      calldataload\n      sub(shl(0x40, 0x01), 0x01)\n        /* \"#utility.yul\":7455:7457   */\n      dup1\n        /* \"#utility.yul\":7447:7453   */\n      dup3\n        /* \"#utility.yul\":7444:7458   */\n      gt\n        /* \"#utility.yul\":7441:7475   */\n      iszero\n      tag_888\n      jumpi\n        /* \"#utility.yul\":7471:7472   */\n      0x00\n        /* \"#utility.yul\":7468:7469   */\n      dup1\n        /* \"#utility.yul\":7461:7473   */\n      revert\n        /* \"#utility.yul\":7441:7475   */\n    tag_888:\n        /* \"#utility.yul\":7494:7544   */\n      tag_889\n        /* \"#utility.yul\":7536:7543   */\n      dup14\n        /* \"#utility.yul\":7527:7533   */\n      dup4\n        /* \"#utility.yul\":7516:7525   */\n      dup15\n        /* \"#utility.yul\":7512:7534   */\n      add\n        /* \"#utility.yul\":7494:7544   */\n      tag_803\n      jump\t// in\n    tag_889:\n        /* \"#utility.yul\":7484:7544   */\n      swap11\n      pop\n        /* \"#utility.yul\":7597:7599   */\n      0x20\n        /* \"#utility.yul\":7586:7595   */\n      dup13\n        /* \"#utility.yul\":7582:7600   */\n      add\n        /* \"#utility.yul\":7569:7601   */\n      calldataload\n        /* \"#utility.yul\":7553:7601   */\n      swap2\n      pop\n        /* \"#utility.yul\":7626:7628   */\n      dup1\n        /* \"#utility.yul\":7616:7624   */\n      dup3\n        /* \"#utility.yul\":7613:7629   */\n      gt\n        /* \"#utility.yul\":7610:7646   */\n      iszero\n      tag_890\n      jumpi\n        /* \"#utility.yul\":7642:7643   */\n      0x00\n        /* \"#utility.yul\":7639:7640   */\n      dup1\n        /* \"#utility.yul\":7632:7644   */\n      revert\n        /* \"#utility.yul\":7610:7646   */\n    tag_890:\n        /* \"#utility.yul\":7665:7717   */\n      tag_891\n        /* \"#utility.yul\":7709:7716   */\n      dup14\n        /* \"#utility.yul\":7698:7706   */\n      dup4\n        /* \"#utility.yul\":7687:7696   */\n      dup15\n        /* \"#utility.yul\":7683:7707   */\n      add\n        /* \"#utility.yul\":7665:7717   */\n      tag_803\n      jump\t// in\n    tag_891:\n        /* \"#utility.yul\":7655:7717   */\n      swap10\n      pop\n        /* \"#utility.yul\":7770:7772   */\n      0x40\n        /* \"#utility.yul\":7759:7768   */\n      dup13\n        /* \"#utility.yul\":7755:7773   */\n      add\n        /* \"#utility.yul\":7742:7774   */\n      calldataload\n        /* \"#utility.yul\":7726:7774   */\n      swap2\n      pop\n        /* \"#utility.yul\":7799:7801   */\n      dup1\n        /* \"#utility.yul\":7789:7797   */\n      dup3\n        /* \"#utility.yul\":7786:7802   */\n      gt\n        /* \"#utility.yul\":7783:7819   */\n      iszero\n      tag_892\n      jumpi\n        /* \"#utility.yul\":7815:7816   */\n      0x00\n        /* \"#utility.yul\":7812:7813   */\n      dup1\n        /* \"#utility.yul\":7805:7817   */\n      revert\n        /* \"#utility.yul\":7783:7819   */\n    tag_892:\n        /* \"#utility.yul\":7838:7890   */\n      tag_893\n        /* \"#utility.yul\":7882:7889   */\n      dup14\n        /* \"#utility.yul\":7871:7879   */\n      dup4\n        /* \"#utility.yul\":7860:7869   */\n      dup15\n        /* \"#utility.yul\":7856:7880   */\n      add\n        /* \"#utility.yul\":7838:7890   */\n      tag_803\n      jump\t// in\n    tag_893:\n        /* \"#utility.yul\":7828:7890   */\n      swap9\n      pop\n        /* \"#utility.yul\":7937:7939   */\n      0x60\n        /* \"#utility.yul\":7926:7935   */\n      dup13\n        /* \"#utility.yul\":7922:7940   */\n      add\n        /* \"#utility.yul\":7909:7941   */\n      calldataload\n        /* \"#utility.yul\":7899:7941   */\n      swap8\n      pop\n        /* \"#utility.yul\":7988:7991   */\n      0x80\n        /* \"#utility.yul\":7977:7986   */\n      dup13\n        /* \"#utility.yul\":7973:7992   */\n      add\n        /* \"#utility.yul\":7960:7993   */\n      calldataload\n        /* \"#utility.yul\":7950:7993   */\n      swap7\n      pop\n        /* \"#utility.yul\":8046:8049   */\n      0xa0\n        /* \"#utility.yul\":8035:8044   */\n      dup13\n        /* \"#utility.yul\":8031:8050   */\n      add\n        /* \"#utility.yul\":8018:8051   */\n      calldataload\n        /* \"#utility.yul\":8002:8051   */\n      swap2\n      pop\n        /* \"#utility.yul\":8076:8078   */\n      dup1\n        /* \"#utility.yul\":8066:8074   */\n      dup3\n        /* \"#utility.yul\":8063:8079   */\n      gt\n        /* \"#utility.yul\":8060:8096   */\n      iszero\n      tag_894\n      jumpi\n        /* \"#utility.yul\":8092:8093   */\n      0x00\n        /* \"#utility.yul\":8089:8090   */\n      dup1\n        /* \"#utility.yul\":8082:8094   */\n      revert\n        /* \"#utility.yul\":8060:8096   */\n    tag_894:\n        /* \"#utility.yul\":8115:8178   */\n      tag_895\n        /* \"#utility.yul\":8170:8177   */\n      dup14\n        /* \"#utility.yul\":8159:8167   */\n      dup4\n        /* \"#utility.yul\":8148:8157   */\n      dup15\n        /* \"#utility.yul\":8144:8168   */\n      add\n        /* \"#utility.yul\":8115:8178   */\n      tag_805\n      jump\t// in\n    tag_895:\n        /* \"#utility.yul\":8105:8178   */\n      swap6\n      pop\n        /* \"#utility.yul\":8231:8234   */\n      0xc0\n        /* \"#utility.yul\":8220:8229   */\n      dup13\n        /* \"#utility.yul\":8216:8235   */\n      add\n        /* \"#utility.yul\":8203:8236   */\n      calldataload\n        /* \"#utility.yul\":8187:8236   */\n      swap2\n      pop\n        /* \"#utility.yul\":8261:8263   */\n      dup1\n        /* \"#utility.yul\":8251:8259   */\n      dup3\n        /* \"#utility.yul\":8248:8264   */\n      gt\n        /* \"#utility.yul\":8245:8281   */\n      iszero\n      tag_896\n      jumpi\n        /* \"#utility.yul\":8277:8278   */\n      0x00\n        /* \"#utility.yul\":8274:8275   */\n      dup1\n        /* \"#utility.yul\":8267:8279   */\n      revert\n        /* \"#utility.yul\":8245:8281   */\n    tag_896:\n      pop\n        /* \"#utility.yul\":8300:8363   */\n      tag_897\n        /* \"#utility.yul\":8355:8362   */\n      dup13\n        /* \"#utility.yul\":8344:8352   */\n      dup3\n        /* \"#utility.yul\":8333:8342   */\n      dup14\n        /* \"#utility.yul\":8329:8353   */\n      add\n        /* \"#utility.yul\":8300:8363   */\n      tag_806\n      jump\t// in\n    tag_897:\n        /* \"#utility.yul\":8290:8363   */\n      swap4\n      pop\n      pop\n        /* \"#utility.yul\":8410:8413   */\n      0xe0\n        /* \"#utility.yul\":8399:8408   */\n      dup11\n        /* \"#utility.yul\":8395:8414   */\n      add\n        /* \"#utility.yul\":8382:8415   */\n      calldataload\n        /* \"#utility.yul\":8372:8415   */\n      swap2\n      pop\n        /* \"#utility.yul\":8434:8473   */\n      tag_898\n        /* \"#utility.yul\":8468:8471   */\n      0x0100\n        /* \"#utility.yul\":8457:8466   */\n      dup12\n        /* \"#utility.yul\":8453:8472   */\n      add\n        /* \"#utility.yul\":8434:8473   */\n      tag_799\n      jump\t// in\n    tag_898:\n        /* \"#utility.yul\":8424:8473   */\n      swap1\n      pop\n        /* \"#utility.yul\":7000:8479   */\n      swap3\n      swap6\n      swap9\n      pop\n      swap3\n      swap6\n      swap9\n      pop\n      swap3\n      swap6\n      swap9\n      jump\t// out\n        /* \"#utility.yul\":8484:8670   */\n    tag_162:\n        /* \"#utility.yul\":8543:8549   */\n      0x00\n        /* \"#utility.yul\":8596:8598   */\n      0x20\n        /* \"#utility.yul\":8584:8593   */\n      dup3\n        /* \"#utility.yul\":8575:8582   */\n      dup5\n        /* \"#utility.yul\":8571:8594   */\n      sub\n        /* \"#utility.yul\":8567:8599   */\n      slt\n        /* \"#utility.yul\":8564:8616   */\n      iszero\n      tag_900\n      jumpi\n        /* \"#utility.yul\":8612:8613   */\n      0x00\n        /* \"#utility.yul\":8609:8610   */\n      dup1\n        /* \"#utility.yul\":8602:8614   */\n      revert\n        /* \"#utility.yul\":8564:8616   */\n    tag_900:\n        /* \"#utility.yul\":8635:8664   */\n      tag_499\n        /* \"#utility.yul\":8654:8663   */\n      dup3\n        /* \"#utility.yul\":8635:8664   */\n      tag_799\n      jump\t// in\n        /* \"#utility.yul\":8675:9267   */\n    tag_186:\n        /* \"#utility.yul\":8746:8752   */\n      0x00\n        /* \"#utility.yul\":8754:8760   */\n      dup1\n        /* \"#utility.yul\":8807:8809   */\n      0x20\n        /* \"#utility.yul\":8795:8804   */\n      dup4\n        /* \"#utility.yul\":8786:8793   */\n      dup6\n        /* \"#utility.yul\":8782:8805   */\n      sub\n        /* \"#utility.yul\":8778:8810   */\n      slt\n        /* \"#utility.yul\":8775:8827   */\n      iszero\n      tag_903\n      jumpi\n        /* \"#utility.yul\":8823:8824   */\n      0x00\n        /* \"#utility.yul\":8820:8821   */\n      dup1\n        /* \"#utility.yul\":8813:8825   */\n      revert\n        /* \"#utility.yul\":8775:8827   */\n    tag_903:\n        /* \"#utility.yul\":8863:8872   */\n      dup3\n        /* \"#utility.yul\":8850:8873   */\n      calldataload\n      sub(shl(0x40, 0x01), 0x01)\n        /* \"#utility.yul\":8933:8935   */\n      dup1\n        /* \"#utility.yul\":8925:8931   */\n      dup3\n        /* \"#utility.yul\":8922:8936   */\n      gt\n        /* \"#utility.yul\":8919:8953   */\n      iszero\n      tag_904\n      jumpi\n        /* \"#utility.yul\":8949:8950   */\n      0x00\n        /* \"#utility.yul\":8946:8947   */\n      dup1\n        /* \"#utility.yul\":8939:8951   */\n      revert\n        /* \"#utility.yul\":8919:8953   */\n    tag_904:\n        /* \"#utility.yul\":8987:8993   */\n      dup2\n        /* \"#utility.yul\":8976:8985   */\n      dup6\n        /* \"#utility.yul\":8972:8994   */\n      add\n        /* \"#utility.yul\":8962:8994   */\n      swap2\n      pop\n        /* \"#utility.yul\":9032:9039   */\n      dup6\n        /* \"#utility.yul\":9025:9029   */\n      0x1f\n        /* \"#utility.yul\":9021:9023   */\n      dup4\n        /* \"#utility.yul\":9017:9030   */\n      add\n        /* \"#utility.yul\":9013:9040   */\n      slt\n        /* \"#utility.yul\":9003:9058   */\n      tag_905\n      jumpi\n        /* \"#utility.yul\":9054:9055   */\n      0x00\n        /* \"#utility.yul\":9051:9052   */\n      dup1\n        /* \"#utility.yul\":9044:9056   */\n      revert\n        /* \"#utility.yul\":9003:9058   */\n    tag_905:\n        /* \"#utility.yul\":9094:9096   */\n      dup2\n        /* \"#utility.yul\":9081:9097   */\n      calldataload\n        /* \"#utility.yul\":9120:9122   */\n      dup2\n        /* \"#utility.yul\":9112:9118   */\n      dup2\n        /* \"#utility.yul\":9109:9123   */\n      gt\n        /* \"#utility.yul\":9106:9140   */\n      iszero\n      tag_906\n      jumpi\n        /* \"#utility.yul\":9136:9137   */\n      0x00\n        /* \"#utility.yul\":9133:9134   */\n      dup1\n        /* \"#utility.yul\":9126:9138   */\n      revert\n        /* \"#utility.yul\":9106:9140   */\n    tag_906:\n        /* \"#utility.yul\":9181:9188   */\n      dup7\n        /* \"#utility.yul\":9176:9178   */\n      0x20\n        /* \"#utility.yul\":9167:9173   */\n      dup3\n        /* \"#utility.yul\":9163:9165   */\n      dup6\n        /* \"#utility.yul\":9159:9174   */\n      add\n        /* \"#utility.yul\":9155:9179   */\n      add\n        /* \"#utility.yul\":9152:9189   */\n      gt\n        /* \"#utility.yul\":9149:9206   */\n      iszero\n      tag_907\n      jumpi\n        /* \"#utility.yul\":9202:9203   */\n      0x00\n        /* \"#utility.yul\":9199:9200   */\n      dup1\n        /* \"#utility.yul\":9192:9204   */\n      revert\n        /* \"#utility.yul\":9149:9206   */\n    tag_907:\n        /* \"#utility.yul\":9233:9235   */\n      0x20\n        /* \"#utility.yul\":9225:9236   */\n      swap3\n      swap1\n      swap3\n      add\n      swap7\n        /* \"#utility.yul\":9255:9261   */\n      swap2\n      swap6\n      pop\n        /* \"#utility.yul\":8675:9267   */\n      swap1\n      swap4\n      pop\n      pop\n      pop\n      pop\n      jump\t// out\n        /* \"#utility.yul\":9272:9456   */\n    tag_191:\n        /* \"#utility.yul\":9330:9336   */\n      0x00\n        /* \"#utility.yul\":9383:9385   */\n      0x20\n        /* \"#utility.yul\":9371:9380   */\n      dup3\n        /* \"#utility.yul\":9362:9369   */\n      dup5\n        /* \"#utility.yul\":9358:9381   */\n      sub\n        /* \"#utility.yul\":9354:9386   */\n      slt\n        /* \"#utility.yul\":9351:9403   */\n      iszero\n      tag_909\n      jumpi\n        /* \"#utility.yul\":9399:9400   */\n      0x00\n        /* \"#utility.yul\":9396:9397   */\n      dup1\n        /* \"#utility.yul\":9389:9401   */\n      revert\n        /* \"#utility.yul\":9351:9403   */\n    tag_909:\n        /* \"#utility.yul\":9422:9450   */\n      tag_499\n        /* \"#utility.yul\":9440:9449   */\n      dup3\n        /* \"#utility.yul\":9422:9450   */\n      tag_800\n      jump\t// in\n        /* \"#utility.yul\":9461:9808   */\n    tag_213:\n        /* \"#utility.yul\":9526:9532   */\n      0x00\n        /* \"#utility.yul\":9534:9540   */\n      dup1\n        /* \"#utility.yul\":9587:9589   */\n      0x40\n        /* \"#utility.yul\":9575:9584   */\n      dup4\n        /* \"#utility.yul\":9566:9573   */\n      dup6\n        /* \"#utility.yul\":9562:9585   */\n      sub\n        /* \"#utility.yul\":9558:9590   */\n      slt\n        /* \"#utility.yul\":9555:9607   */\n      iszero\n      tag_912\n      jumpi\n        /* \"#utility.yul\":9603:9604   */\n      0x00\n        /* \"#utility.yul\":9600:9601   */\n      dup1\n        /* \"#utility.yul\":9593:9605   */\n      revert\n        /* \"#utility.yul\":9555:9607   */\n    tag_912:\n        /* \"#utility.yul\":9626:9655   */\n      tag_913\n        /* \"#utility.yul\":9645:9654   */\n      dup4\n        /* \"#utility.yul\":9626:9655   */\n      tag_799\n      jump\t// in\n    tag_913:\n        /* \"#utility.yul\":9616:9655   */\n      swap2\n      pop\n        /* \"#utility.yul\":9705:9707   */\n      0x20\n        /* \"#utility.yul\":9694:9703   */\n      dup4\n        /* \"#utility.yul\":9690:9708   */\n      add\n        /* \"#utility.yul\":9677:9709   */\n      calldataload\n        /* \"#utility.yul\":9752:9757   */\n      dup1\n        /* \"#utility.yul\":9745:9758   */\n      iszero\n        /* \"#utility.yul\":9738:9759   */\n      iszero\n        /* \"#utility.yul\":9731:9736   */\n      dup2\n        /* \"#utility.yul\":9728:9760   */\n      eq\n        /* \"#utility.yul\":9718:9778   */\n      tag_914\n      jumpi\n        /* \"#utility.yul\":9774:9775   */\n      0x00\n        /* \"#utility.yul\":9771:9772   */\n      dup1\n        /* \"#utility.yul\":9764:9776   */\n      revert\n        /* \"#utility.yul\":9718:9778   */\n    tag_914:\n        /* \"#utility.yul\":9797:9802   */\n      dup1\n        /* \"#utility.yul\":9787:9802   */\n      swap2\n      pop\n      pop\n        /* \"#utility.yul\":9461:9808   */\n      swap3\n      pop\n      swap3\n      swap1\n      pop\n      jump\t// out\n        /* \"#utility.yul\":9813:10480   */\n    tag_222:\n        /* \"#utility.yul\":9908:9914   */\n      0x00\n        /* \"#utility.yul\":9916:9922   */\n      dup1\n        /* \"#utility.yul\":9924:9930   */\n      0x00\n        /* \"#utility.yul\":9932:9938   */\n      dup1\n        /* \"#utility.yul\":9985:9988   */\n      0x80\n        /* \"#utility.yul\":9973:9982   */\n      dup6\n        /* \"#utility.yul\":9964:9971   */\n      dup8\n        /* \"#utility.yul\":9960:9983   */\n      sub\n        /* \"#utility.yul\":9956:9989   */\n      slt\n        /* \"#utility.yul\":9953:10006   */\n      iszero\n      tag_916\n      jumpi\n        /* \"#utility.yul\":10002:10003   */\n      0x00\n        /* \"#utility.yul\":9999:10000   */\n      dup1\n        /* \"#utility.yul\":9992:10004   */\n      revert\n        /* \"#utility.yul\":9953:10006   */\n    tag_916:\n        /* \"#utility.yul\":10025:10054   */\n      tag_917\n        /* \"#utility.yul\":10044:10053   */\n      dup6\n        /* \"#utility.yul\":10025:10054   */\n      tag_799\n      jump\t// in\n    tag_917:\n        /* \"#utility.yul\":10015:10054   */\n      swap4\n      pop\n        /* \"#utility.yul\":10073:10111   */\n      tag_918\n        /* \"#utility.yul\":10107:10109   */\n      0x20\n        /* \"#utility.yul\":10096:10105   */\n      dup7\n        /* \"#utility.yul\":10092:10110   */\n      add\n        /* \"#utility.yul\":10073:10111   */\n      tag_799\n      jump\t// in\n    tag_918:\n        /* \"#utility.yul\":10063:10111   */\n      swap3\n      pop\n        /* \"#utility.yul\":10158:10160   */\n      0x40\n        /* \"#utility.yul\":10147:10156   */\n      dup6\n        /* \"#utility.yul\":10143:10161   */\n      add\n        /* \"#utility.yul\":10130:10162   */\n      calldataload\n        /* \"#utility.yul\":10120:10162   */\n      swap2\n      pop\n        /* \"#utility.yul\":10213:10215   */\n      0x60\n        /* \"#utility.yul\":10202:10211   */\n      dup6\n        /* \"#utility.yul\":10198:10216   */\n      add\n        /* \"#utility.yul\":10185:10217   */\n      calldataload\n      sub(shl(0x40, 0x01), 0x01)\n        /* \"#utility.yul\":10232:10238   */\n      dup2\n        /* \"#utility.yul\":10229:10259   */\n      gt\n        /* \"#utility.yul\":10226:10276   */\n      iszero\n      tag_919\n      jumpi\n        /* \"#utility.yul\":10272:10273   */\n      0x00\n        /* \"#utility.yul\":10269:10270   */\n      dup1\n        /* \"#utility.yul\":10262:10274   */\n      revert\n        /* \"#utility.yul\":10226:10276   */\n    tag_919:\n        /* \"#utility.yul\":10295:10317   */\n      dup6\n      add\n        /* \"#utility.yul\":10348:10352   */\n      0x1f\n        /* \"#utility.yul\":10340:10353   */\n      dup2\n      add\n        /* \"#utility.yul\":10336:10363   */\n      dup8\n      sgt\n        /* \"#utility.yul\":10326:10381   */\n      tag_920\n      jumpi\n        /* \"#utility.yul\":10377:10378   */\n      0x00\n        /* \"#utility.yul\":10374:10375   */\n      dup1\n        /* \"#utility.yul\":10367:10379   */\n      revert\n        /* \"#utility.yul\":10326:10381   */\n    tag_920:\n        /* \"#utility.yul\":10400:10474   */\n      tag_921\n        /* \"#utility.yul\":10466:10473   */\n      dup8\n        /* \"#utility.yul\":10461:10463   */\n      dup3\n        /* \"#utility.yul\":10448:10464   */\n      calldataload\n        /* \"#utility.yul\":10443:10445   */\n      0x20\n        /* \"#utility.yul\":10439:10441   */\n      dup5\n        /* \"#utility.yul\":10435:10446   */\n      add\n        /* \"#utility.yul\":10400:10474   */\n      tag_802\n      jump\t// in\n    tag_921:\n        /* \"#utility.yul\":10390:10474   */\n      swap2\n      pop\n      pop\n        /* \"#utility.yul\":9813:10480   */\n      swap3\n      swap6\n      swap2\n      swap5\n      pop\n      swap3\n      pop\n      jump\t// out\n        /* \"#utility.yul\":10670:10930   */\n    tag_259:\n        /* \"#utility.yul\":10738:10744   */\n      0x00\n        /* \"#utility.yul\":10746:10752   */\n      dup1\n        /* \"#utility.yul\":10799:10801   */\n      0x40\n        /* \"#utility.yul\":10787:10796   */\n      dup4\n        /* \"#utility.yul\":10778:10785   */\n      dup6\n        /* \"#utility.yul\":10774:10797   */\n      sub\n        /* \"#utility.yul\":10770:10802   */\n      slt\n        /* \"#utility.yul\":10767:10819   */\n      iszero\n      tag_925\n      jumpi\n        /* \"#utility.yul\":10815:10816   */\n      0x00\n        /* \"#utility.yul\":10812:10813   */\n      dup1\n        /* \"#utility.yul\":10805:10817   */\n      revert\n        /* \"#utility.yul\":10767:10819   */\n    tag_925:\n        /* \"#utility.yul\":10838:10867   */\n      tag_926\n        /* \"#utility.yul\":10857:10866   */\n      dup4\n        /* \"#utility.yul\":10838:10867   */\n      tag_799\n      jump\t// in\n    tag_926:\n        /* \"#utility.yul\":10828:10867   */\n      swap2\n      pop\n        /* \"#utility.yul\":10886:10924   */\n      tag_341\n        /* \"#utility.yul\":10920:10922   */\n      0x20\n        /* \"#utility.yul\":10909:10918   */\n      dup5\n        /* \"#utility.yul\":10905:10923   */\n      add\n        /* \"#utility.yul\":10886:10924   */\n      tag_799\n      jump\t// in\n        /* \"#utility.yul\":10935:11315   */\n    tag_283:\n        /* \"#utility.yul\":11014:11015   */\n      0x01\n        /* \"#utility.yul\":11010:11022   */\n      dup2\n      dup2\n      shr\n      swap1\n        /* \"#utility.yul\":11057:11069   */\n      dup3\n      and\n      dup1\n        /* \"#utility.yul\":11078:11139   */\n      tag_929\n      jumpi\n        /* \"#utility.yul\":11132:11136   */\n      0x7f\n        /* \"#utility.yul\":11124:11130   */\n      dup3\n        /* \"#utility.yul\":11120:11137   */\n      and\n        /* \"#utility.yul\":11110:11137   */\n      swap2\n      pop\n        /* \"#utility.yul\":11078:11139   */\n    tag_929:\n        /* \"#utility.yul\":11185:11187   */\n      0x20\n        /* \"#utility.yul\":11177:11183   */\n      dup3\n        /* \"#utility.yul\":11174:11188   */\n      lt\n        /* \"#utility.yul\":11154:11172   */\n      dup2\n        /* \"#utility.yul\":11151:11189   */\n      sub\n        /* \"#utility.yul\":11148:11309   */\n      tag_930\n      jumpi\n        /* \"#utility.yul\":11231:11241   */\n      0x4e487b71\n        /* \"#utility.yul\":11226:11229   */\n      0xe0\n        /* \"#utility.yul\":11222:11242   */\n      shl\n        /* \"#utility.yul\":11219:11220   */\n      0x00\n        /* \"#utility.yul\":11212:11243   */\n      mstore\n        /* \"#utility.yul\":11266:11270   */\n      0x22\n        /* \"#utility.yul\":11263:11264   */\n      0x04\n        /* \"#utility.yul\":11256:11271   */\n      mstore\n        /* \"#utility.yul\":11294:11298   */\n      0x24\n        /* \"#utility.yul\":11291:11292   */\n      0x00\n        /* \"#utility.yul\":11284:11299   */\n      revert\n        /* \"#utility.yul\":11148:11309   */\n    tag_930:\n      pop\n        /* \"#utility.yul\":10935:11315   */\n      swap2\n      swap1\n      pop\n      jump\t// out\n        /* \"#utility.yul\":11320:11447   */\n    tag_807:\n        /* \"#utility.yul\":11381:11391   */\n      0x4e487b71\n        /* \"#utility.yul\":11376:11379   */\n      0xe0\n        /* \"#utility.yul\":11372:11392   */\n      shl\n        /* \"#utility.yul\":11369:11370   */\n      0x00\n        /* \"#utility.yul\":11362:11393   */\n      mstore\n        /* \"#utility.yul\":11412:11416   */\n      0x11\n        /* \"#utility.yul\":11409:11410   */\n      0x04\n        /* \"#utility.yul\":11402:11417   */\n      mstore\n        /* \"#utility.yul\":11436:11440   */\n      0x24\n        /* \"#utility.yul\":11433:11434   */\n      0x00\n        /* \"#utility.yul\":11426:11441   */\n      revert\n        /* \"#utility.yul\":11452:11620   */\n    tag_310:\n        /* \"#utility.yul\":11492:11499   */\n      0x00\n        /* \"#utility.yul\":11558:11559   */\n      dup2\n        /* \"#utility.yul\":11554:11555   */\n      0x00\n        /* \"#utility.yul\":11550:11556   */\n      not\n        /* \"#utility.yul\":11546:11560   */\n      div\n        /* \"#utility.yul\":11543:11544   */\n      dup4\n        /* \"#utility.yul\":11540:11561   */\n      gt\n        /* \"#utility.yul\":11535:11536   */\n      dup3\n        /* \"#utility.yul\":11528:11537   */\n      iszero\n        /* \"#utility.yul\":11521:11538   */\n      iszero\n        /* \"#utility.yul\":11517:11562   */\n      and\n        /* \"#utility.yul\":11514:11585   */\n      iszero\n      tag_934\n      jumpi\n        /* \"#utility.yul\":11565:11583   */\n      tag_934\n      tag_807\n      jump\t// in\n    tag_934:\n      pop\n        /* \"#utility.yul\":11605:11614   */\n      mul\n      swap1\n        /* \"#utility.yul\":11452:11620   */\n      jump\t// out\n        /* \"#utility.yul\":11625:11753   */\n    tag_315:\n        /* \"#utility.yul\":11665:11668   */\n      0x00\n        /* \"#utility.yul\":11696:11697   */\n      dup3\n        /* \"#utility.yul\":11692:11698   */\n      not\n        /* \"#utility.yul\":11689:11690   */\n      dup3\n        /* \"#utility.yul\":11686:11699   */\n      gt\n        /* \"#utility.yul\":11683:11722   */\n      iszero\n      tag_937\n      jumpi\n        /* \"#utility.yul\":11702:11720   */\n      tag_937\n      tag_807\n      jump\t// in\n    tag_937:\n      pop\n        /* \"#utility.yul\":11738:11747   */\n      add\n      swap1\n        /* \"#utility.yul\":11625:11753   */\n      jump\t// out\n        /* \"#utility.yul\":11992:12228   */\n    tag_328:\n        /* \"#utility.yul\":12031:12034   */\n      0x00\n      sub(shl(0x40, 0x01), 0x01)\n        /* \"#utility.yul\":12104:12106   */\n      dup1\n        /* \"#utility.yul\":12101:12102   */\n      dup4\n        /* \"#utility.yul\":12097:12107   */\n      and\n        /* \"#utility.yul\":12134:12136   */\n      dup2\n        /* \"#utility.yul\":12131:12132   */\n      dup6\n        /* \"#utility.yul\":12127:12137   */\n      and\n        /* \"#utility.yul\":12165:12168   */\n      dup1\n        /* \"#utility.yul\":12161:12163   */\n      dup4\n        /* \"#utility.yul\":12157:12169   */\n      sub\n        /* \"#utility.yul\":12152:12155   */\n      dup3\n        /* \"#utility.yul\":12149:12170   */\n      gt\n        /* \"#utility.yul\":12146:12193   */\n      iszero\n      tag_941\n      jumpi\n        /* \"#utility.yul\":12173:12191   */\n      tag_941\n      tag_807\n      jump\t// in\n    tag_941:\n        /* \"#utility.yul\":12209:12222   */\n      add\n      swap5\n        /* \"#utility.yul\":11992:12228   */\n      swap4\n      pop\n      pop\n      pop\n      pop\n      jump\t// out\n        /* \"#utility.yul\":12233:12360   */\n    tag_808:\n        /* \"#utility.yul\":12294:12304   */\n      0x4e487b71\n        /* \"#utility.yul\":12289:12292   */\n      0xe0\n        /* \"#utility.yul\":12285:12305   */\n      shl\n        /* \"#utility.yul\":12282:12283   */\n      0x00\n        /* \"#utility.yul\":12275:12306   */\n      mstore\n        /* \"#utility.yul\":12325:12329   */\n      0x12\n        /* \"#utility.yul\":12322:12323   */\n      0x04\n        /* \"#utility.yul\":12315:12330   */\n      mstore\n        /* \"#utility.yul\":12349:12353   */\n      0x24\n        /* \"#utility.yul\":12346:12347   */\n      0x00\n        /* \"#utility.yul\":12339:12354   */\n      revert\n        /* \"#utility.yul\":12365:12485   */\n    tag_342:\n        /* \"#utility.yul\":12405:12406   */\n      0x00\n        /* \"#utility.yul\":12431:12432   */\n      dup3\n        /* \"#utility.yul\":12421:12456   */\n      tag_945\n      jumpi\n        /* \"#utility.yul\":12436:12454   */\n      tag_945\n      tag_808\n      jump\t// in\n    tag_945:\n      pop\n        /* \"#utility.yul\":12470:12479   */\n      div\n      swap1\n        /* \"#utility.yul\":12365:12485   */\n      jump\t// out\n        /* \"#utility.yul\":12490:12846   */\n    tag_365:\n        /* \"#utility.yul\":12692:12694   */\n      0x20\n        /* \"#utility.yul\":12674:12695   */\n      dup1\n      dup3\n      mstore\n        /* \"#utility.yul\":12711:12729   */\n      dup2\n      dup2\n      add\n        /* \"#utility.yul\":12704:12734   */\n      mstore\n        /* \"#utility.yul\":12770:12804   */\n      0x4f776e61626c653a2063616c6c6572206973206e6f7420746865206f776e6572\n        /* \"#utility.yul\":12765:12767   */\n      0x40\n        /* \"#utility.yul\":12750:12768   */\n      dup3\n      add\n        /* \"#utility.yul\":12743:12805   */\n      mstore\n        /* \"#utility.yul\":12837:12839   */\n      0x60\n        /* \"#utility.yul\":12822:12840   */\n      add\n      swap1\n        /* \"#utility.yul\":12490:12846   */\n      jump\t// out\n        /* \"#utility.yul\":13792:13919   */\n    tag_431:\n        /* \"#utility.yul\":13853:13863   */\n      0x4e487b71\n        /* \"#utility.yul\":13848:13851   */\n      0xe0\n        /* \"#utility.yul\":13844:13864   */\n      shl\n        /* \"#utility.yul\":13841:13842   */\n      0x00\n        /* \"#utility.yul\":13834:13865   */\n      mstore\n        /* \"#utility.yul\":13884:13888   */\n      0x32\n        /* \"#utility.yul\":13881:13882   */\n      0x04\n        /* \"#utility.yul\":13874:13889   */\n      mstore\n        /* \"#utility.yul\":13908:13912   */\n      0x24\n        /* \"#utility.yul\":13905:13906   */\n      0x00\n        /* \"#utility.yul\":13898:13913   */\n      revert\n        /* \"#utility.yul\":14454:15226   */\n    tag_503:\n        /* \"#utility.yul\":14835:14838   */\n      0x00\n        /* \"#utility.yul\":14873:14879   */\n      dup4\n        /* \"#utility.yul\":14867:14880   */\n      mload\n        /* \"#utility.yul\":14889:14942   */\n      tag_954\n        /* \"#utility.yul\":14935:14941   */\n      dup2\n        /* \"#utility.yul\":14930:14933   */\n      dup5\n        /* \"#utility.yul\":14923:14927   */\n      0x20\n        /* \"#utility.yul\":14915:14921   */\n      dup9\n        /* \"#utility.yul\":14911:14928   */\n      add\n        /* \"#utility.yul\":14889:14942   */\n      tag_797\n      jump\t// in\n    tag_954:\n      shl(0xf8, 0x2f)\n        /* \"#utility.yul\":14964:14980   */\n      swap1\n      dup4\n      add\n        /* \"#utility.yul\":14989:15007   */\n      swap1\n      dup2\n      mstore\n        /* \"#utility.yul\":15032:15045   */\n      dup4\n      mload\n        /* \"#utility.yul\":15054:15119   */\n      tag_955\n        /* \"#utility.yul\":15032:15045   */\n      dup2\n        /* \"#utility.yul\":15106:15107   */\n      0x01\n        /* \"#utility.yul\":15095:15108   */\n      dup5\n      add\n        /* \"#utility.yul\":15088:15092   */\n      0x20\n        /* \"#utility.yul\":15076:15093   */\n      dup9\n      add\n        /* \"#utility.yul\":15054:15119   */\n      tag_797\n      jump\t// in\n    tag_955:\n      shl(0xd9, 0x173539b7b7)\n        /* \"#utility.yul\":15182:15183   */\n      0x01\n        /* \"#utility.yul\":15138:15158   */\n      swap3\n      swap1\n      swap2\n      add\n        /* \"#utility.yul\":15174:15184   */\n      swap2\n      dup3\n      add\n        /* \"#utility.yul\":15167:15194   */\n      mstore\n        /* \"#utility.yul\":15218:15219   */\n      0x06\n        /* \"#utility.yul\":15210:15220   */\n      add\n      swap5\n        /* \"#utility.yul\":14454:15226   */\n      swap4\n      pop\n      pop\n      pop\n      pop\n      jump\t// out\n        /* \"#utility.yul\":15638:16045   */\n    tag_612:\n        /* \"#utility.yul\":15840:15842   */\n      0x20\n        /* \"#utility.yul\":15822:15843   */\n      dup1\n      dup3\n      mstore\n        /* \"#utility.yul\":15879:15881   */\n      0x2b\n        /* \"#utility.yul\":15859:15877   */\n      swap1\n      dup3\n      add\n        /* \"#utility.yul\":15852:15882   */\n      mstore\n        /* \"#utility.yul\":15918:15952   */\n      0x496e697469616c697a61626c653a20636f6e7472616374206973206e6f742069\n        /* \"#utility.yul\":15913:15915   */\n      0x40\n        /* \"#utility.yul\":15898:15916   */\n      dup3\n      add\n        /* \"#utility.yul\":15891:15953   */\n      mstore\n      shl(0xa8, 0x6e697469616c697a696e67)\n        /* \"#utility.yul\":15984:15986   */\n      0x60\n        /* \"#utility.yul\":15969:15987   */\n      dup3\n      add\n        /* \"#utility.yul\":15962:16003   */\n      mstore\n        /* \"#utility.yul\":16035:16038   */\n      0x80\n        /* \"#utility.yul\":16020:16039   */\n      add\n      swap1\n        /* \"#utility.yul\":15638:16045   */\n      jump\t// out\n        /* \"#utility.yul\":16050:16185   */\n    tag_637:\n        /* \"#utility.yul\":16089:16092   */\n      0x00\n        /* \"#utility.yul\":16110:16127   */\n      0x01\n      dup3\n      add\n        /* \"#utility.yul\":16107:16150   */\n      tag_960\n      jumpi\n        /* \"#utility.yul\":16130:16148   */\n      tag_960\n      tag_807\n      jump\t// in\n    tag_960:\n      pop\n        /* \"#utility.yul\":16177:16178   */\n      0x01\n        /* \"#utility.yul\":16166:16179   */\n      add\n      swap1\n        /* \"#utility.yul\":16050:16185   */\n      jump\t// out\n        /* \"#utility.yul\":16190:16315   */\n    tag_652:\n        /* \"#utility.yul\":16230:16234   */\n      0x00\n        /* \"#utility.yul\":16258:16259   */\n      dup3\n        /* \"#utility.yul\":16255:16256   */\n      dup3\n        /* \"#utility.yul\":16252:16260   */\n      lt\n        /* \"#utility.yul\":16249:16283   */\n      iszero\n      tag_963\n      jumpi\n        /* \"#utility.yul\":16263:16281   */\n      tag_963\n      tag_807\n      jump\t// in\n    tag_963:\n      pop\n        /* \"#utility.yul\":16300:16309   */\n      sub\n      swap1\n        /* \"#utility.yul\":16190:16315   */\n      jump\t// out\n        /* \"#utility.yul\":16320:16809   */\n    tag_663:\n      sub(shl(0xa0, 0x01), 0x01)\n        /* \"#utility.yul\":16589:16604   */\n      dup6\n      dup2\n      and\n        /* \"#utility.yul\":16571:16605   */\n      dup3\n      mstore\n        /* \"#utility.yul\":16641:16656   */\n      dup5\n      and\n        /* \"#utility.yul\":16636:16638   */\n      0x20\n        /* \"#utility.yul\":16621:16639   */\n      dup3\n      add\n        /* \"#utility.yul\":16614:16657   */\n      mstore\n        /* \"#utility.yul\":16688:16690   */\n      0x40\n        /* \"#utility.yul\":16673:16691   */\n      dup2\n      add\n        /* \"#utility.yul\":16666:16700   */\n      dup4\n      swap1\n      mstore\n        /* \"#utility.yul\":16736:16739   */\n      0x80\n        /* \"#utility.yul\":16731:16733   */\n      0x60\n        /* \"#utility.yul\":16716:16734   */\n      dup3\n      add\n        /* \"#utility.yul\":16709:16740   */\n      dup2\n      swap1\n      mstore\n        /* \"#utility.yul\":16514:16518   */\n      0x00\n      swap1\n        /* \"#utility.yul\":16757:16803   */\n      tag_965\n      swap1\n        /* \"#utility.yul\":16783:16802   */\n      dup4\n      add\n        /* \"#utility.yul\":16775:16781   */\n      dup5\n        /* \"#utility.yul\":16757:16803   */\n      tag_798\n      jump\t// in\n    tag_965:\n        /* \"#utility.yul\":16749:16803   */\n      swap7\n        /* \"#utility.yul\":16320:16809   */\n      swap6\n      pop\n      pop\n      pop\n      pop\n      pop\n      pop\n      jump\t// out\n        /* \"#utility.yul\":16814:17063   */\n    tag_666:\n        /* \"#utility.yul\":16883:16889   */\n      0x00\n        /* \"#utility.yul\":16936:16938   */\n      0x20\n        /* \"#utility.yul\":16924:16933   */\n      dup3\n        /* \"#utility.yul\":16915:16922   */\n      dup5\n        /* \"#utility.yul\":16911:16934   */\n      sub\n        /* \"#utility.yul\":16907:16939   */\n      slt\n        /* \"#utility.yul\":16904:16956   */\n      iszero\n      tag_967\n      jumpi\n        /* \"#utility.yul\":16952:16953   */\n      0x00\n        /* \"#utility.yul\":16949:16950   */\n      dup1\n        /* \"#utility.yul\":16942:16954   */\n      revert\n        /* \"#utility.yul\":16904:16956   */\n    tag_967:\n        /* \"#utility.yul\":16984:16993   */\n      dup2\n        /* \"#utility.yul\":16978:16994   */\n      mload\n        /* \"#utility.yul\":17003:17033   */\n      tag_499\n        /* \"#utility.yul\":17027:17032   */\n      dup2\n        /* \"#utility.yul\":17003:17033   */\n      tag_796\n      jump\t// in\n        /* \"#utility.yul\":17068:17180   */\n    tag_696:\n        /* \"#utility.yul\":17100:17101   */\n      0x00\n        /* \"#utility.yul\":17126:17127   */\n      dup3\n        /* \"#utility.yul\":17116:17151   */\n      tag_971\n      jumpi\n        /* \"#utility.yul\":17131:17149   */\n      tag_971\n      tag_808\n      jump\t// in\n    tag_971:\n      pop\n        /* \"#utility.yul\":17165:17174   */\n      mod\n      swap1\n        /* \"#utility.yul\":17068:17180   */\n      jump\t// out\n\n    auxdata: 0xa2646970667358221220ccf8ac7b578d8dee11990be47b64e028131231b72c9efbb1ce6150352daf168064736f6c634300080d0033\n}\n","bytecode":{"linkReferences":{},"object":"608060405234801561001057600080fd5b506131a9806100206000396000f3fe6080604052600436106102815760003560e01c80638b83209b1161014f578063bd32fb66116100c1578063e33b7de31161007a578063e33b7de3146107e2578063e797ec1b146107f7578063e985e9c51461080c578063f2fde38b14610855578063f4a0a52814610875578063fbee812114610895576102cc565b8063bd32fb6614610722578063c87b56dd14610742578063cdfb2b4e14610762578063ce7c2ac214610777578063d6b0f484146107ad578063e2e784d5146107c2576102cc565b80639852595c116101135780639852595c1461064c5780639da3f8fd146106825780639ddf7ad3146106a2578063a22cb465146106c2578063a93fef3b146106e2578063b88d4fde14610702576102cc565b80638b83209b146105b95780638da5cb5b146105d95780638f5d737c146105f75780639342e6e41461061757806395d89b4114610637576102cc565b806342842e0e116101f35780636352211e116101ac5780636352211e1461051a578063666b1fb81461053a57806370a082311461055a578063715018a61461057a5780637e5cd5c11461058f57806386d1a69f146105a4576102cc565b806342842e0e14610479578063459470761461049957806345c0f533146104ae5780634a886ad2146104c457806355f804b3146104e45780635a64ad9514610504576102cc565b806318160ddd1161024557806318160ddd146103c15780631b004d25146103df57806323b872dd146103f25780632a55205a146104125780632db11544146104515780633a98ef3914610464576102cc565b806301ffc9a7146102f357806306fdde0314610328578063081812fc1461034a578063095ea7b31461038257806312065fe0146103a4576102cc565b366102cc577f6ef95f06320e7a25a04a175ca677b7052bdd97131872c2192525a629f51be770335b604080516001600160a01b039290921682523460208301528051918290030190a1005b7f6ef95f06320e7a25a04a175ca677b7052bdd97131872c2192525a629f51be770336102a9565b3480156102ff57600080fd5b5061031361030e3660046128ce565b6108b4565b60405190151581526020015b60405180910390f35b34801561033457600080fd5b5061033d6108fa565b60405161031f9190612943565b34801561035657600080fd5b5061036a610365366004612956565b61098c565b6040516001600160a01b03909116815260200161031f565b34801561038e57600080fd5b506103a261039d36600461298b565b6109d0565b005b3480156103b057600080fd5b50475b60405190815260200161031f565b3480156103cd57600080fd5b506103b3609854609754036000190190565b6103a26103ed3660046129cc565b610a5d565b3480156103fe57600080fd5b506103a261040d366004612a4f565b610ca9565b34801561041e57600080fd5b5061043261042d366004612a8b565b610cb4565b604080516001600160a01b03909316835260208301919091520161031f565b6103a261045f366004612956565b610cea565b34801561047057600080fd5b5060ca546103b3565b34801561048557600080fd5b506103a2610494366004612a4f565b610dde565b3480156104a557600080fd5b5060ff546103b3565b3480156104ba57600080fd5b50610101546103b3565b3480156104d057600080fd5b506103a26104df366004612956565b610df9565b3480156104f057600080fd5b506103a26104ff366004612b6a565b610ea4565b34801561051057600080fd5b50610100546103b3565b34801561052657600080fd5b5061036a610535366004612956565b610ee5565b34801561054657600080fd5b506103a2610555366004612c8e565b610ef7565b34801561056657600080fd5b506103b3610575366004612d8d565b61101c565b34801561058657600080fd5b506103a261106a565b34801561059b57600080fd5b506103a26110a0565b3480156105b057600080fd5b506103a261115b565b3480156105c557600080fd5b5061036a6105d4366004612956565b61118d565b3480156105e557600080fd5b506033546001600160a01b031661036a565b34801561060357600080fd5b506103a2610612366004612da8565b6111bd565b34801561062357600080fd5b506103a2610632366004612e19565b6111f3565b34801561064357600080fd5b5061033d611281565b34801561065857600080fd5b506103b3610667366004612d8d565b6001600160a01b0316600090815260cd602052604090205490565b34801561068e57600080fd5b5061010254600160481b900460ff16610313565b3480156106ae57600080fd5b5061010254600160401b900460ff16610313565b3480156106ce57600080fd5b506103a26106dd366004612e34565b611290565b3480156106ee57600080fd5b506103a26106fd366004612956565b611325565b34801561070e57600080fd5b506103a261071d366004612e70565b61139a565b34801561072e57600080fd5b506103a261073d366004612956565b6113e5565b34801561074e57600080fd5b5061033d61075d366004612956565b61144d565b34801561076e57600080fd5b506103a261154c565b34801561078357600080fd5b506103b3610792366004612d8d565b6001600160a01b0316600090815260cc602052604090205490565b3480156107b957600080fd5b506103a2611603565b3480156107ce57600080fd5b506103a26107dd36600461298b565b6116b7565b3480156107ee57600080fd5b5060cb546103b3565b34801561080357600080fd5b506103a2611740565b34801561081857600080fd5b50610313610827366004612eeb565b6001600160a01b039182166000908152609e6020908152604080832093909416825291909152205460ff1690565b34801561086157600080fd5b506103a2610870366004612d8d565b6117f7565b34801561088157600080fd5b506103a2610890366004612956565b61188f565b3480156108a157600080fd5b50610102546001600160401b03166103b3565b60006001600160e01b0319821663152a902d60e11b14806108e557506001600160e01b03198216630704183b60e11b145b806108f457506108f4826118f8565b92915050565b60606099805461090990612f15565b80601f016020809104026020016040519081016040528092919081815260200182805461093590612f15565b80156109825780601f1061095757610100808354040283529160200191610982565b820191906000526020600020905b81548152906001019060200180831161096557829003601f168201915b5050505050905090565b600061099782611948565b6109b4576040516333d1c03960e21b815260040160405180910390fd5b506000908152609d60205260409020546001600160a01b031690565b60006109db82610ee5565b9050806001600160a01b0316836001600160a01b031603610a0f5760405163250fdee360e21b815260040160405180910390fd5b336001600160a01b03821614801590610a2f5750610a2d8133610827565b155b15610a4d576040516367d9dca160e11b815260040160405180910390fd5b610a58838383611981565b505050565b61010254600160481b900460ff16610a88576040516373020e4b60e01b815260040160405180910390fd5b61010254600160401b900460ff16610ab3576040516341a334cd60e11b815260040160405180910390fd5b806001600160401b031661010054610acb9190612f65565b3414610aea5760405163788a686f60e01b815260040160405180910390fd5b61010154816001600160401b0316610b09609854609754036000190190565b610b139190612f84565b1115610b3257604051633b1e37bd60e21b815260040160405180910390fd5b610102546001600160401b039081169082161115610b6357604051630e7b98a560e11b815260040160405180910390fd5b610bd88383808060200260200160405190810160405280939291908181526020018383602002808284376000920191909152505060fe546040516bffffffffffffffffffffffff193360601b1660208201529092506034019050604051602081830303815290604052805190602001206119dd565b610bf557604051630b094f2760e31b815260040160405180910390fd5b336000908152609c60205260408120548290600160c01b90046001600160401b0316610c219190612f9c565b610102549091506001600160401b039081169082161115610c5557604051634026a7cf60e11b815260040160405180910390fd5b610c6833836001600160401b03166119f3565b610ca3336001600160a01b03166000908152609c6020526040902080546001600160c01b0316600160c01b6001600160401b03851602179055565b50505050565b610a58838383611a0d565b60fa5460fb546001600160a01b039091169060009061271090610cd79085612f65565b610ce19190612fdd565b90509250929050565b61010254600160401b900460ff1615610d1657604051633c664d6760e01b815260040160405180910390fd5b61010254600160481b900460ff16610d41576040516373020e4b60e01b815260040160405180910390fd5b8061010054610d509190612f65565b3414610d6f5760405163788a686f60e01b815260040160405180910390fd5b6101015481610d85609854609754036000190190565b610d8f9190612f84565b1115610dae57604051633b1e37bd60e21b815260040160405180910390fd5b60ff54811115610dd157604051632193c2c560e11b815260040160405180910390fd5b610ddb33826119f3565b50565b610a588383836040518060200160405280600081525061139a565b6033546001600160a01b03163314610e2c5760405162461bcd60e51b8152600401610e2390612ff1565b60405180910390fd5b610e3d609854609754036000190190565b811015610e5d5760405163351b51d760e11b815260040160405180910390fd5b61010180549082905560408051828152602081018490527f8d9cfb0dea274a0a02ddad1fc52c90100a28462c6421daa25fb101c740cf585191015b60405180910390a15050565b6033546001600160a01b03163314610ece5760405162461bcd60e51b8152600401610e2390612ff1565b8051610ee19060fc9060208401906127ab565b5050565b6000610ef082611bfb565b5192915050565b600054610100900460ff16610f125760005460ff1615610f16565b303b155b610f795760405162461bcd60e51b815260206004820152602e60248201527f496e697469616c697a61626c653a20636f6e747261637420697320616c72656160448201526d191e481a5b9a5d1a585b1a5e995960921b6064820152608401610e23565b600054610100900460ff16158015610f9b576000805461ffff19166101011790555b610fa58a8a611d22565b610fb0828686611d53565b8215610fc35760fe839055610fc361154c565b8751610fd69060fd9060208b01906127ab565b50610100879055610101869055610102805467ffffffffffffffff1916600290811790915560ff558015611010576000805461ff00191690555b50505050505050505050565b60006001600160a01b038216611045576040516323d3ad8160e21b815260040160405180910390fd5b506001600160a01b03166000908152609c60205260409020546001600160401b031690565b6033546001600160a01b031633146110945760405162461bcd60e51b8152600401610e2390612ff1565b61109e6000611e06565b565b6033546001600160a01b031633146110ca5760405162461bcd60e51b8152600401610e2390612ff1565b61010254600160481b900460ff166110f5576040516373020e4b60e01b815260040160405180910390fd5b610102805460ff60481b198116918290556040805160ff600160481b9384900481168015158352939094049093161515602084015290917f1ab1d89be1fd19dcd21c73f1d6e927e3f148097e8691bbba925bd85e34e1f0e391015b60405180910390a150565b6033546001600160a01b031633146111855760405162461bcd60e51b8152600401610e2390612ff1565b61109e611e58565b600060ce82815481106111a2576111a2613026565b6000918252602090912001546001600160a01b031692915050565b6033546001600160a01b031633146111e75760405162461bcd60e51b8152600401610e2390612ff1565b610a5860fd838361282f565b6033546001600160a01b0316331461121d5760405162461bcd60e51b8152600401610e2390612ff1565b61010280546001600160401b0383811667ffffffffffffffff19831681179093556040519116917f3851f4a3ce1c8adce98754722ff6f348f4714fd4850d154c71045447d304246891610e98918482526001600160401b0316602082015260400190565b6060609a805461090990612f15565b336001600160a01b038316036112b95760405163b06307db60e01b815260040160405180910390fd5b336000818152609e602090815260408083206001600160a01b03871680855290835292819020805460ff191686151590811790915590519081529192917f17307eab39ab6107e8899845ad3d59bd9653f200f220920489ca2b5937696c31910160405180910390a35050565b6033546001600160a01b0316331461134f5760405162461bcd60e51b8152600401610e2390612ff1565b60ff80549082905561010254604080518381526001600160401b0390921660208301527f439b8b0b530562f8413db2651ab1e8dcae2719da0a2d2d3d3c068ca25c29969f9101610e98565b6113a5848484611a0d565b6001600160a01b0383163b151580156113c757506113c584848484611fa1565b155b15610ca3576040516368d2bf6b60e11b815260040160405180910390fd5b6033546001600160a01b0316331461140f5760405162461bcd60e51b8152600401610e2390612ff1565b60fe80549082905560408051828152602081018490527f1e5d0194158313989f8568b586deb425fcd9a6b46a4e6e2c43f9becc480c6bc09101610e98565b606061145882611948565b61147557604051634a1850bf60e11b815260040160405180910390fd5b600061147f61208d565b9050600081511161151a5760fd805461149790612f15565b80601f01602080910402602001604051908101604052809291908181526020018280546114c390612f15565b80156115105780601f106114e557610100808354040283529160200191611510565b820191906000526020600020905b8154815290600101906020018083116114f357829003601f168201915b5050505050611545565b806115248461209c565b60405160200161153592919061303c565b6040516020818303038152906040525b9392505050565b6033546001600160a01b031633146115765760405162461bcd60e51b8152600401610e2390612ff1565b61010254600160401b900460ff16156115a257604051633c664d6760e01b815260040160405180910390fd5b6101028054600160401b60ff60401b198216811792839055604080519282900460ff90811680151585529290940490931615156020830152917f5045eea7e64af4d857464a8347a5bbce05a99fe1e1f08a3f1ebbc61aa782b21b9101611150565b6033546001600160a01b0316331461162d5760405162461bcd60e51b8152600401610e2390612ff1565b61010254600160401b900460ff16611658576040516341a334cd60e11b815260040160405180910390fd5b610102805460ff60401b198116918290556040805160ff600160401b9384900481168015158352939094049093161515602084015290917f5045eea7e64af4d857464a8347a5bbce05a99fe1e1f08a3f1ebbc61aa782b21b9101611150565b6033546001600160a01b031633146116e15760405162461bcd60e51b8152600401610e2390612ff1565b60fa80546001600160a01b0319166001600160a01b03841617905560fb819055604080516001600160a01b0384168152602081018390527f37b261884b0718cab93d62e6fe3bef710b5a1da58190a859f842d6e8b2b0b70b9101610e98565b6033546001600160a01b0316331461176a5760405162461bcd60e51b8152600401610e2390612ff1565b61010254600160481b900460ff161561179657604051633f19d52960e21b815260040160405180910390fd5b6101028054600160481b60ff60481b198216811792839055604080519282900460ff90811680151585529290940490931615156020830152917f1ab1d89be1fd19dcd21c73f1d6e927e3f148097e8691bbba925bd85e34e1f0e39101611150565b6033546001600160a01b031633146118215760405162461bcd60e51b8152600401610e2390612ff1565b6001600160a01b0381166118865760405162461bcd60e51b815260206004820152602660248201527f4f776e61626c653a206e6577206f776e657220697320746865207a65726f206160448201526564647265737360d01b6064820152608401610e23565b610ddb81611e06565b6033546001600160a01b031633146118b95760405162461bcd60e51b8152600401610e2390612ff1565b61010080549082905560408051828152602081018490527f79f142b9bcccc417646eead59c29526ac8437fccd19a5368532b2648349adce19101610e98565b60006001600160e01b031982166380ac58cd60e01b148061192957506001600160e01b03198216635b5e139f60e01b145b806108f457506301ffc9a760e01b6001600160e01b03198316146108f4565b60008160011115801561195c575060975482105b80156108f45750506000908152609b6020526040902054600160e01b900460ff161590565b6000828152609d602052604080822080546001600160a01b0319166001600160a01b0387811691821790925591518593918516917f8c5be1e5ebec7d5bd14f71427d1e84f3dd0314c0f7b2291e5b200ac8c7c3b92591a4505050565b6000826119ea858461219c565b14949350505050565b610ee1828260405180602001604052806000815250612210565b6000611a1882611bfb565b9050836001600160a01b031681600001516001600160a01b031614611a4f5760405162a1148160e81b815260040160405180910390fd5b6000336001600160a01b0386161480611a6d5750611a6d8533610827565b80611a88575033611a7d8461098c565b6001600160a01b0316145b905080611aa857604051632ce44b5f60e11b815260040160405180910390fd5b6001600160a01b038416611acf57604051633a954ecd60e21b815260040160405180910390fd5b611adb60008487611981565b6001600160a01b038581166000908152609c60209081526040808320805467ffffffffffffffff198082166001600160401b0392831660001901831617909255898616808652838620805493841693831660019081018416949094179055898652609b90945282852080546001600160e01b031916909417600160a01b42909216919091021783558701808452922080549193909116611baf576097548214611baf57805460208601516001600160401b0316600160a01b026001600160e01b03199091166001600160a01b038a16171781555b50505082846001600160a01b0316866001600160a01b03167fddf252ad1be2c89b69c2b068fc378daa952ba7f163c4a11628f55a4df523b3ef60405160405180910390a45b5050505050565b60408051606081018252600080825260208201819052918101919091528180600111158015611c2b575060975481105b15611d09576000818152609b6020908152604091829020825160608101845290546001600160a01b0381168252600160a01b81046001600160401b031692820192909252600160e01b90910460ff16151591810182905290611d075780516001600160a01b031615611c9e579392505050565b50600019016000818152609b6020908152604091829020825160608101845290546001600160a01b038116808352600160a01b82046001600160401b031693830193909352600160e01b900460ff1615159281019290925215611d02579392505050565b611c9e565b505b604051636f96cda160e11b815260040160405180910390fd5b600054610100900460ff16611d495760405162461bcd60e51b8152600401610e239061308a565b610ee1828261221d565b600054610100900460ff16611d7a5760405162461bcd60e51b8152600401610e239061308a565b611d86836101f4612275565b8151600003611da357611d9b3361251c612275565b610a586122da565b60005b8251811015611dfd57611deb838281518110611dc457611dc4613026565b6020026020010151838381518110611dde57611dde613026565b6020026020010151612275565b80611df5816130d5565b915050611da6565b50610a586122da565b603380546001600160a01b038381166001600160a01b0319831681179093556040519116919082907f8be0079c531659141344cd1fd0a4f28419497f9722a3daafe3b4186f6b6457e090600090a35050565b47600003611e795760405163334ab3f560e11b815260040160405180910390fd5b60005b60c954811015610ddb576000611e918261118d565b9050600060cb5447611ea39190612f84565b6001600160a01b038316600090815260cd602090815260408083205460ca5460cc909352908320549394509192611eda9085612f65565b611ee49190612fdd565b611eee91906130ee565b6001600160a01b038416600090815260cd6020526040902054909150611f15908290612f84565b6001600160a01b038416600090815260cd602052604090205560cb54611f3c908290612f84565b60cb55611f49838261238f565b604080516001600160a01b0385168152602081018390527fdf20fd1e76bc69d672e4814fafb2c449bba3a5369d8359adf9e05e6fde87b056910160405180910390a15050508080611f99906130d5565b915050611e7c565b604051630a85bd0160e11b81526000906001600160a01b0385169063150b7a0290611fd6903390899088908890600401613105565b6020604051808303816000875af1925050508015612011575060408051601f3d908101601f1916820190925261200e91810190613142565b60015b61206f573d80801561203f576040519150601f19603f3d011682016040523d82523d6000602084013e612044565b606091505b508051600003612067576040516368d2bf6b60e11b815260040160405180910390fd5b805181602001fd5b6001600160e01b031916630a85bd0160e11b1490505b949350505050565b606060fc805461090990612f15565b6060816000036120c35750506040805180820190915260018152600360fc1b602082015290565b8160005b81156120ed57806120d7816130d5565b91506120e69050600a83612fdd565b91506120c7565b6000816001600160401b0381111561210757612107612aad565b6040519080825280601f01601f191660200182016040528015612131576020820181803683370190505b5090505b8415612085576121466001836130ee565b9150612153600a8661315f565b61215e906030612f84565b60f81b81838151811061217357612173613026565b60200101906001600160f81b031916908160001a905350612195600a86612fdd565b9450612135565b600081815b84518110156122085760008582815181106121be576121be613026565b602002602001015190508083116121e457600083815260208290526040902092506121f5565b600081815260208490526040902092505b5080612200816130d5565b9150506121a1565b509392505050565b610a5883838360016124a8565b600054610100900460ff166122445760405162461bcd60e51b8152600401610e239061308a565b81516122579060999060208501906127ab565b50805161226b90609a9060208401906127ab565b5060016097555050565b61010254600160501b900460ff16156122d05760405162461bcd60e51b815260206004820152601a60248201527f43616e206e6f74207365742c20706179656573206c6f636b65640000000000006044820152606401610e23565b610ee18282612674565b61010254600160501b900460ff16156123355760405162461bcd60e51b815260206004820152601a60248201527f43616e206e6f74207365742c20706179656573206c6f636b65640000000000006044820152606401610e23565b610102805460ff60501b1916600160501b908117918290556040517f07fe2f03bd4fa149b9d8918fb57a6e2a3b1fbbb29a4d4536df7e6cd9edf02ed89261238592900460ff161515815260200190565b60405180910390a1565b804710156123df5760405162461bcd60e51b815260206004820152601d60248201527f416464726573733a20696e73756666696369656e742062616c616e63650000006044820152606401610e23565b6000826001600160a01b03168260405160006040518083038185875af1925050503d806000811461242c576040519150601f19603f3d011682016040523d82523d6000602084013e612431565b606091505b5050905080610a585760405162461bcd60e51b815260206004820152603a60248201527f416464726573733a20756e61626c6520746f2073656e642076616c75652c207260448201527f6563697069656e74206d617920686176652072657665727465640000000000006064820152608401610e23565b6097546001600160a01b0385166124d157604051622e076360e81b815260040160405180910390fd5b836000036124f25760405163b562e8dd60e01b815260040160405180910390fd5b6001600160a01b0385166000818152609c6020908152604080832080546fffffffffffffffffffffffffffffffff1981166001600160401b038083168c018116918217600160401b67ffffffffffffffff1990941690921783900481168c01811690920217909155858452609b90925290912080546001600160e01b031916909217600160a01b42909216919091021790558080850183801561259e57506001600160a01b0387163b15155b15612626575b60405182906001600160a01b038916906000907fddf252ad1be2c89b69c2b068fc378daa952ba7f163c4a11628f55a4df523b3ef908290a46125ef6000888480600101955088611fa1565b61260c576040516368d2bf6b60e11b815260040160405180910390fd5b8082036125a457826097541461262157600080fd5b61266b565b5b6040516001830192906001600160a01b038916906000907fddf252ad1be2c89b69c2b068fc378daa952ba7f163c4a11628f55a4df523b3ef908290a4808203612627575b50609755611bf4565b6001600160a01b03821661269b5760405163ab38716960e01b815260040160405180910390fd5b600081116126bc57604051636edcc52360e01b815260040160405180910390fd5b6001600160a01b038216600090815260cc6020526040902054156126f35760405163b3f5cfa560e01b815260040160405180910390fd5b61270160c980546001019055565b60ce8054600181019091557fd36cd1c74ef8d7326d8021b776c18fb5a5724b7f7bc93c2f42e43e10ef27d12a0180546001600160a01b0319166001600160a01b038416908117909155600090815260cc6020526040902081905560ca54612769908290612f84565b60ca55604080516001600160a01b0384168152602081018390527f40c340f65e17194d14ddddb073d3c9f888e3cb52b5aae0c6c7706b4fbc905fac9101610e98565b8280546127b790612f15565b90600052602060002090601f0160209004810192826127d9576000855561281f565b82601f106127f257805160ff191683800117855561281f565b8280016001018555821561281f579182015b8281111561281f578251825591602001919060010190612804565b5061282b9291506128a3565b5090565b82805461283b90612f15565b90600052602060002090601f01602090048101928261285d576000855561281f565b82601f106128765782800160ff1982351617855561281f565b8280016001018555821561281f579182015b8281111561281f578235825591602001919060010190612888565b5b8082111561282b57600081556001016128a4565b6001600160e01b031981168114610ddb57600080fd5b6000602082840312156128e057600080fd5b8135611545816128b8565b60005b838110156129065781810151838201526020016128ee565b83811115610ca35750506000910152565b6000815180845261292f8160208601602086016128eb565b601f01601f19169290920160200192915050565b6020815260006115456020830184612917565b60006020828403121561296857600080fd5b5035919050565b80356001600160a01b038116811461298657600080fd5b919050565b6000806040838503121561299e57600080fd5b6129a78361296f565b946020939093013593505050565b80356001600160401b038116811461298657600080fd5b6000806000604084860312156129e157600080fd5b83356001600160401b03808211156129f857600080fd5b818601915086601f830112612a0c57600080fd5b813581811115612a1b57600080fd5b8760208260051b8501011115612a3057600080fd5b602092830195509350612a4691860190506129b5565b90509250925092565b600080600060608486031215612a6457600080fd5b612a6d8461296f565b9250612a7b6020850161296f565b9150604084013590509250925092565b60008060408385031215612a9e57600080fd5b50508035926020909101359150565b634e487b7160e01b600052604160045260246000fd5b604051601f8201601f191681016001600160401b0381118282101715612aeb57612aeb612aad565b604052919050565b60006001600160401b03831115612b0c57612b0c612aad565b612b1f601f8401601f1916602001612ac3565b9050828152838383011115612b3357600080fd5b828260208301376000602084830101529392505050565b600082601f830112612b5b57600080fd5b61154583833560208501612af3565b600060208284031215612b7c57600080fd5b81356001600160401b03811115612b9257600080fd5b61208584828501612b4a565b60006001600160401b03821115612bb757612bb7612aad565b5060051b60200190565b600082601f830112612bd257600080fd5b81356020612be7612be283612b9e565b612ac3565b82815260059290921b84018101918181019086841115612c0657600080fd5b8286015b84811015612c2857612c1b8161296f565b8352918301918301612c0a565b509695505050505050565b600082601f830112612c4457600080fd5b81356020612c54612be283612b9e565b82815260059290921b84018101918181019086841115612c7357600080fd5b8286015b84811015612c285780358352918301918301612c77565b60008060008060008060008060006101208a8c031215612cad57600080fd5b89356001600160401b0380821115612cc457600080fd5b612cd08d838e01612b4a565b9a5060208c0135915080821115612ce657600080fd5b612cf28d838e01612b4a565b995060408c0135915080821115612d0857600080fd5b612d148d838e01612b4a565b985060608c0135975060808c0135965060a08c0135915080821115612d3857600080fd5b612d448d838e01612bc1565b955060c08c0135915080821115612d5a57600080fd5b50612d678c828d01612c33565b93505060e08a01359150612d7e6101008b0161296f565b90509295985092959850929598565b600060208284031215612d9f57600080fd5b6115458261296f565b60008060208385031215612dbb57600080fd5b82356001600160401b0380821115612dd257600080fd5b818501915085601f830112612de657600080fd5b813581811115612df557600080fd5b866020828501011115612e0757600080fd5b60209290920196919550909350505050565b600060208284031215612e2b57600080fd5b611545826129b5565b60008060408385031215612e4757600080fd5b612e508361296f565b915060208301358015158114612e6557600080fd5b809150509250929050565b60008060008060808587031215612e8657600080fd5b612e8f8561296f565b9350612e9d6020860161296f565b92506040850135915060608501356001600160401b03811115612ebf57600080fd5b8501601f81018713612ed057600080fd5b612edf87823560208401612af3565b91505092959194509250565b60008060408385031215612efe57600080fd5b612f078361296f565b9150610ce16020840161296f565b600181811c90821680612f2957607f821691505b602082108103612f4957634e487b7160e01b600052602260045260246000fd5b50919050565b634e487b7160e01b600052601160045260246000fd5b6000816000190483118215151615612f7f57612f7f612f4f565b500290565b60008219821115612f9757612f97612f4f565b500190565b60006001600160401b03808316818516808303821115612fbe57612fbe612f4f565b01949350505050565b634e487b7160e01b600052601260045260246000fd5b600082612fec57612fec612fc7565b500490565b6020808252818101527f4f776e61626c653a2063616c6c6572206973206e6f7420746865206f776e6572604082015260600190565b634e487b7160e01b600052603260045260246000fd5b6000835161304e8184602088016128eb565b602f60f81b908301908152835161306c8160018401602088016128eb565b64173539b7b760d91b60019290910191820152600601949350505050565b6020808252602b908201527f496e697469616c697a61626c653a20636f6e7472616374206973206e6f74206960408201526a6e697469616c697a696e6760a81b606082015260800190565b6000600182016130e7576130e7612f4f565b5060010190565b60008282101561310057613100612f4f565b500390565b6001600160a01b038581168252841660208201526040810183905260806060820181905260009061313890830184612917565b9695505050505050565b60006020828403121561315457600080fd5b8151611545816128b8565b60008261316e5761316e612fc7565b50069056fea2646970667358221220ccf8ac7b578d8dee11990be47b64e028131231b72c9efbb1ce6150352daf168064736f6c634300080d0033","opcodes":"PUSH1 0x80 PUSH1 0x40 MSTORE CALLVALUE DUP1 ISZERO PUSH2 0x10 JUMPI PUSH1 0x0 DUP1 REVERT JUMPDEST POP PUSH2 0x31A9 DUP1 PUSH2 0x20 PUSH1 0x0 CODECOPY PUSH1 0x0 RETURN INVALID PUSH1 0x80 PUSH1 0x40 MSTORE PUSH1 0x4 CALLDATASIZE LT PUSH2 0x281 JUMPI PUSH1 0x0 CALLDATALOAD PUSH1 0xE0 SHR DUP1 PUSH4 0x8B83209B GT PUSH2 0x14F JUMPI DUP1 PUSH4 0xBD32FB66 GT PUSH2 0xC1 JUMPI DUP1 PUSH4 0xE33B7DE3 GT PUSH2 0x7A JUMPI DUP1 PUSH4 0xE33B7DE3 EQ PUSH2 0x7E2 JUMPI DUP1 PUSH4 0xE797EC1B EQ PUSH2 0x7F7 JUMPI DUP1 PUSH4 0xE985E9C5 EQ PUSH2 0x80C JUMPI DUP1 PUSH4 0xF2FDE38B EQ PUSH2 0x855 JUMPI DUP1 PUSH4 0xF4A0A528 EQ PUSH2 0x875 JUMPI DUP1 PUSH4 0xFBEE8121 EQ PUSH2 0x895 JUMPI PUSH2 0x2CC JUMP JUMPDEST DUP1 PUSH4 0xBD32FB66 EQ PUSH2 0x722 JUMPI DUP1 PUSH4 0xC87B56DD EQ PUSH2 0x742 JUMPI DUP1 PUSH4 0xCDFB2B4E EQ PUSH2 0x762 JUMPI DUP1 PUSH4 0xCE7C2AC2 EQ PUSH2 0x777 JUMPI DUP1 PUSH4 0xD6B0F484 EQ PUSH2 0x7AD JUMPI DUP1 PUSH4 0xE2E784D5 EQ PUSH2 0x7C2 JUMPI PUSH2 0x2CC JUMP JUMPDEST DUP1 PUSH4 0x9852595C GT PUSH2 0x113 JUMPI DUP1 PUSH4 0x9852595C EQ PUSH2 0x64C JUMPI DUP1 PUSH4 0x9DA3F8FD EQ PUSH2 0x682 JUMPI DUP1 PUSH4 0x9DDF7AD3 EQ PUSH2 0x6A2 JUMPI DUP1 PUSH4 0xA22CB465 EQ PUSH2 0x6C2 JUMPI DUP1 PUSH4 0xA93FEF3B EQ PUSH2 0x6E2 JUMPI DUP1 PUSH4 0xB88D4FDE EQ PUSH2 0x702 JUMPI PUSH2 0x2CC JUMP JUMPDEST DUP1 PUSH4 0x8B83209B EQ PUSH2 0x5B9 JUMPI DUP1 PUSH4 0x8DA5CB5B EQ PUSH2 0x5D9 JUMPI DUP1 PUSH4 0x8F5D737C EQ PUSH2 0x5F7 JUMPI DUP1 PUSH4 0x9342E6E4 EQ PUSH2 0x617 JUMPI DUP1 PUSH4 0x95D89B41 EQ PUSH2 0x637 JUMPI PUSH2 0x2CC JUMP JUMPDEST DUP1 PUSH4 0x42842E0E GT PUSH2 0x1F3 JUMPI DUP1 PUSH4 0x6352211E GT PUSH2 0x1AC JUMPI DUP1 PUSH4 0x6352211E EQ PUSH2 0x51A JUMPI DUP1 PUSH4 0x666B1FB8 EQ PUSH2 0x53A JUMPI DUP1 PUSH4 0x70A08231 EQ PUSH2 0x55A JUMPI DUP1 PUSH4 0x715018A6 EQ PUSH2 0x57A JUMPI DUP1 PUSH4 0x7E5CD5C1 EQ PUSH2 0x58F JUMPI DUP1 PUSH4 0x86D1A69F EQ PUSH2 0x5A4 JUMPI PUSH2 0x2CC JUMP JUMPDEST DUP1 PUSH4 0x42842E0E EQ PUSH2 0x479 JUMPI DUP1 PUSH4 0x45947076 EQ PUSH2 0x499 JUMPI DUP1 PUSH4 0x45C0F533 EQ PUSH2 0x4AE JUMPI DUP1 PUSH4 0x4A886AD2 EQ PUSH2 0x4C4 JUMPI DUP1 PUSH4 0x55F804B3 EQ PUSH2 0x4E4 JUMPI DUP1 PUSH4 0x5A64AD95 EQ PUSH2 0x504 JUMPI PUSH2 0x2CC JUMP JUMPDEST DUP1 PUSH4 0x18160DDD GT PUSH2 0x245 JUMPI DUP1 PUSH4 0x18160DDD EQ PUSH2 0x3C1 JUMPI DUP1 PUSH4 0x1B004D25 EQ PUSH2 0x3DF JUMPI DUP1 PUSH4 0x23B872DD EQ PUSH2 0x3F2 JUMPI DUP1 PUSH4 0x2A55205A EQ PUSH2 0x412 JUMPI DUP1 PUSH4 0x2DB11544 EQ PUSH2 0x451 JUMPI DUP1 PUSH4 0x3A98EF39 EQ PUSH2 0x464 JUMPI PUSH2 0x2CC JUMP JUMPDEST DUP1 PUSH4 0x1FFC9A7 EQ PUSH2 0x2F3 JUMPI DUP1 PUSH4 0x6FDDE03 EQ PUSH2 0x328 JUMPI DUP1 PUSH4 0x81812FC EQ PUSH2 0x34A JUMPI DUP1 PUSH4 0x95EA7B3 EQ PUSH2 0x382 JUMPI DUP1 PUSH4 0x12065FE0 EQ PUSH2 0x3A4 JUMPI PUSH2 0x2CC JUMP JUMPDEST CALLDATASIZE PUSH2 0x2CC JUMPI PUSH32 0x6EF95F06320E7A25A04A175CA677B7052BDD97131872C2192525A629F51BE770 CALLER JUMPDEST PUSH1 0x40 DUP1 MLOAD PUSH1 0x1 PUSH1 0x1 PUSH1 0xA0 SHL SUB SWAP3 SWAP1 SWAP3 AND DUP3 MSTORE CALLVALUE PUSH1 0x20 DUP4 ADD MSTORE DUP1 MLOAD SWAP2 DUP3 SWAP1 SUB ADD SWAP1 LOG1 STOP JUMPDEST PUSH32 0x6EF95F06320E7A25A04A175CA677B7052BDD97131872C2192525A629F51BE770 CALLER PUSH2 0x2A9 JUMP JUMPDEST CALLVALUE DUP1 ISZERO PUSH2 0x2FF JUMPI PUSH1 0x0 DUP1 REVERT JUMPDEST POP PUSH2 0x313 PUSH2 0x30E CALLDATASIZE PUSH1 0x4 PUSH2 0x28CE JUMP JUMPDEST PUSH2 0x8B4 JUMP JUMPDEST PUSH1 0x40 MLOAD SWAP1 ISZERO ISZERO DUP2 MSTORE PUSH1 0x20 ADD JUMPDEST PUSH1 0x40 MLOAD DUP1 SWAP2 SUB SWAP1 RETURN JUMPDEST CALLVALUE DUP1 ISZERO PUSH2 0x334 JUMPI PUSH1 0x0 DUP1 REVERT JUMPDEST POP PUSH2 0x33D PUSH2 0x8FA JUMP JUMPDEST PUSH1 0x40 MLOAD PUSH2 0x31F SWAP2 SWAP1 PUSH2 0x2943 JUMP JUMPDEST CALLVALUE DUP1 ISZERO PUSH2 0x356 JUMPI PUSH1 0x0 DUP1 REVERT JUMPDEST POP PUSH2 0x36A PUSH2 0x365 CALLDATASIZE PUSH1 0x4 PUSH2 0x2956 JUMP JUMPDEST PUSH2 0x98C JUMP JUMPDEST PUSH1 0x40 MLOAD PUSH1 0x1 PUSH1 0x1 PUSH1 0xA0 SHL SUB SWAP1 SWAP2 AND DUP2 MSTORE PUSH1 0x20 ADD PUSH2 0x31F JUMP JUMPDEST CALLVALUE DUP1 ISZERO PUSH2 0x38E JUMPI PUSH1 0x0 DUP1 REVERT JUMPDEST POP PUSH2 0x3A2 PUSH2 0x39D CALLDATASIZE PUSH1 0x4 PUSH2 0x298B JUMP JUMPDEST PUSH2 0x9D0 JUMP JUMPDEST STOP JUMPDEST CALLVALUE DUP1 ISZERO PUSH2 0x3B0 JUMPI PUSH1 0x0 DUP1 REVERT JUMPDEST POP SELFBALANCE JUMPDEST PUSH1 0x40 MLOAD SWAP1 DUP2 MSTORE PUSH1 0x20 ADD PUSH2 0x31F JUMP JUMPDEST CALLVALUE DUP1 ISZERO PUSH2 0x3CD JUMPI PUSH1 0x0 DUP1 REVERT JUMPDEST POP PUSH2 0x3B3 PUSH1 0x98 SLOAD PUSH1 0x97 SLOAD SUB PUSH1 0x0 NOT ADD SWAP1 JUMP JUMPDEST PUSH2 0x3A2 PUSH2 0x3ED CALLDATASIZE PUSH1 0x4 PUSH2 0x29CC JUMP JUMPDEST PUSH2 0xA5D JUMP JUMPDEST CALLVALUE DUP1 ISZERO PUSH2 0x3FE JUMPI PUSH1 0x0 DUP1 REVERT JUMPDEST POP PUSH2 0x3A2 PUSH2 0x40D CALLDATASIZE PUSH1 0x4 PUSH2 0x2A4F JUMP JUMPDEST PUSH2 0xCA9 JUMP JUMPDEST CALLVALUE DUP1 ISZERO PUSH2 0x41E JUMPI PUSH1 0x0 DUP1 REVERT JUMPDEST POP PUSH2 0x432 PUSH2 0x42D CALLDATASIZE PUSH1 0x4 PUSH2 0x2A8B JUMP JUMPDEST PUSH2 0xCB4 JUMP JUMPDEST PUSH1 0x40 DUP1 MLOAD PUSH1 0x1 PUSH1 0x1 PUSH1 0xA0 SHL SUB SWAP1 SWAP4 AND DUP4 MSTORE PUSH1 0x20 DUP4 ADD SWAP2 SWAP1 SWAP2 MSTORE ADD PUSH2 0x31F JUMP JUMPDEST PUSH2 0x3A2 PUSH2 0x45F CALLDATASIZE PUSH1 0x4 PUSH2 0x2956 JUMP JUMPDEST PUSH2 0xCEA JUMP JUMPDEST CALLVALUE DUP1 ISZERO PUSH2 0x470 JUMPI PUSH1 0x0 DUP1 REVERT JUMPDEST POP PUSH1 0xCA SLOAD PUSH2 0x3B3 JUMP JUMPDEST CALLVALUE DUP1 ISZERO PUSH2 0x485 JUMPI PUSH1 0x0 DUP1 REVERT JUMPDEST POP PUSH2 0x3A2 PUSH2 0x494 CALLDATASIZE PUSH1 0x4 PUSH2 0x2A4F JUMP JUMPDEST PUSH2 0xDDE JUMP JUMPDEST CALLVALUE DUP1 ISZERO PUSH2 0x4A5 JUMPI PUSH1 0x0 DUP1 REVERT JUMPDEST POP PUSH1 0xFF SLOAD PUSH2 0x3B3 JUMP JUMPDEST CALLVALUE DUP1 ISZERO PUSH2 0x4BA JUMPI PUSH1 0x0 DUP1 REVERT JUMPDEST POP PUSH2 0x101 SLOAD PUSH2 0x3B3 JUMP JUMPDEST CALLVALUE DUP1 ISZERO PUSH2 0x4D0 JUMPI PUSH1 0x0 DUP1 REVERT JUMPDEST POP PUSH2 0x3A2 PUSH2 0x4DF CALLDATASIZE PUSH1 0x4 PUSH2 0x2956 JUMP JUMPDEST PUSH2 0xDF9 JUMP JUMPDEST CALLVALUE DUP1 ISZERO PUSH2 0x4F0 JUMPI PUSH1 0x0 DUP1 REVERT JUMPDEST POP PUSH2 0x3A2 PUSH2 0x4FF CALLDATASIZE PUSH1 0x4 PUSH2 0x2B6A JUMP JUMPDEST PUSH2 0xEA4 JUMP JUMPDEST CALLVALUE DUP1 ISZERO PUSH2 0x510 JUMPI PUSH1 0x0 DUP1 REVERT JUMPDEST POP PUSH2 0x100 SLOAD PUSH2 0x3B3 JUMP JUMPDEST CALLVALUE DUP1 ISZERO PUSH2 0x526 JUMPI PUSH1 0x0 DUP1 REVERT JUMPDEST POP PUSH2 0x36A PUSH2 0x535 CALLDATASIZE PUSH1 0x4 PUSH2 0x2956 JUMP JUMPDEST PUSH2 0xEE5 JUMP JUMPDEST CALLVALUE DUP1 ISZERO PUSH2 0x546 JUMPI PUSH1 0x0 DUP1 REVERT JUMPDEST POP PUSH2 0x3A2 PUSH2 0x555 CALLDATASIZE PUSH1 0x4 PUSH2 0x2C8E JUMP JUMPDEST PUSH2 0xEF7 JUMP JUMPDEST CALLVALUE DUP1 ISZERO PUSH2 0x566 JUMPI PUSH1 0x0 DUP1 REVERT JUMPDEST POP PUSH2 0x3B3 PUSH2 0x575 CALLDATASIZE PUSH1 0x4 PUSH2 0x2D8D JUMP JUMPDEST PUSH2 0x101C JUMP JUMPDEST CALLVALUE DUP1 ISZERO PUSH2 0x586 JUMPI PUSH1 0x0 DUP1 REVERT JUMPDEST POP PUSH2 0x3A2 PUSH2 0x106A JUMP JUMPDEST CALLVALUE DUP1 ISZERO PUSH2 0x59B JUMPI PUSH1 0x0 DUP1 REVERT JUMPDEST POP PUSH2 0x3A2 PUSH2 0x10A0 JUMP JUMPDEST CALLVALUE DUP1 ISZERO PUSH2 0x5B0 JUMPI PUSH1 0x0 DUP1 REVERT JUMPDEST POP PUSH2 0x3A2 PUSH2 0x115B JUMP JUMPDEST CALLVALUE DUP1 ISZERO PUSH2 0x5C5 JUMPI PUSH1 0x0 DUP1 REVERT JUMPDEST POP PUSH2 0x36A PUSH2 0x5D4 CALLDATASIZE PUSH1 0x4 PUSH2 0x2956 JUMP JUMPDEST PUSH2 0x118D JUMP JUMPDEST CALLVALUE DUP1 ISZERO PUSH2 0x5E5 JUMPI PUSH1 0x0 DUP1 REVERT JUMPDEST POP PUSH1 0x33 SLOAD PUSH1 0x1 PUSH1 0x1 PUSH1 0xA0 SHL SUB AND PUSH2 0x36A JUMP JUMPDEST CALLVALUE DUP1 ISZERO PUSH2 0x603 JUMPI PUSH1 0x0 DUP1 REVERT JUMPDEST POP PUSH2 0x3A2 PUSH2 0x612 CALLDATASIZE PUSH1 0x4 PUSH2 0x2DA8 JUMP JUMPDEST PUSH2 0x11BD JUMP JUMPDEST CALLVALUE DUP1 ISZERO PUSH2 0x623 JUMPI PUSH1 0x0 DUP1 REVERT JUMPDEST POP PUSH2 0x3A2 PUSH2 0x632 CALLDATASIZE PUSH1 0x4 PUSH2 0x2E19 JUMP JUMPDEST PUSH2 0x11F3 JUMP JUMPDEST CALLVALUE DUP1 ISZERO PUSH2 0x643 JUMPI PUSH1 0x0 DUP1 REVERT JUMPDEST POP PUSH2 0x33D PUSH2 0x1281 JUMP JUMPDEST CALLVALUE DUP1 ISZERO PUSH2 0x658 JUMPI PUSH1 0x0 DUP1 REVERT JUMPDEST POP PUSH2 0x3B3 PUSH2 0x667 CALLDATASIZE PUSH1 0x4 PUSH2 0x2D8D JUMP JUMPDEST PUSH1 0x1 PUSH1 0x1 PUSH1 0xA0 SHL SUB AND PUSH1 0x0 SWAP1 DUP2 MSTORE PUSH1 0xCD PUSH1 0x20 MSTORE PUSH1 0x40 SWAP1 KECCAK256 SLOAD SWAP1 JUMP JUMPDEST CALLVALUE DUP1 ISZERO PUSH2 0x68E JUMPI PUSH1 0x0 DUP1 REVERT JUMPDEST POP PUSH2 0x102 SLOAD PUSH1 0x1 PUSH1 0x48 SHL SWAP1 DIV PUSH1 0xFF AND PUSH2 0x313 JUMP JUMPDEST CALLVALUE DUP1 ISZERO PUSH2 0x6AE JUMPI PUSH1 0x0 DUP1 REVERT JUMPDEST POP PUSH2 0x102 SLOAD PUSH1 0x1 PUSH1 0x40 SHL SWAP1 DIV PUSH1 0xFF AND PUSH2 0x313 JUMP JUMPDEST CALLVALUE DUP1 ISZERO PUSH2 0x6CE JUMPI PUSH1 0x0 DUP1 REVERT JUMPDEST POP PUSH2 0x3A2 PUSH2 0x6DD CALLDATASIZE PUSH1 0x4 PUSH2 0x2E34 JUMP JUMPDEST PUSH2 0x1290 JUMP JUMPDEST CALLVALUE DUP1 ISZERO PUSH2 0x6EE JUMPI PUSH1 0x0 DUP1 REVERT JUMPDEST POP PUSH2 0x3A2 PUSH2 0x6FD CALLDATASIZE PUSH1 0x4 PUSH2 0x2956 JUMP JUMPDEST PUSH2 0x1325 JUMP JUMPDEST CALLVALUE DUP1 ISZERO PUSH2 0x70E JUMPI PUSH1 0x0 DUP1 REVERT JUMPDEST POP PUSH2 0x3A2 PUSH2 0x71D CALLDATASIZE PUSH1 0x4 PUSH2 0x2E70 JUMP JUMPDEST PUSH2 0x139A JUMP JUMPDEST CALLVALUE DUP1 ISZERO PUSH2 0x72E JUMPI PUSH1 0x0 DUP1 REVERT JUMPDEST POP PUSH2 0x3A2 PUSH2 0x73D CALLDATASIZE PUSH1 0x4 PUSH2 0x2956 JUMP JUMPDEST PUSH2 0x13E5 JUMP JUMPDEST CALLVALUE DUP1 ISZERO PUSH2 0x74E JUMPI PUSH1 0x0 DUP1 REVERT JUMPDEST POP PUSH2 0x33D PUSH2 0x75D CALLDATASIZE PUSH1 0x4 PUSH2 0x2956 JUMP JUMPDEST PUSH2 0x144D JUMP JUMPDEST CALLVALUE DUP1 ISZERO PUSH2 0x76E JUMPI PUSH1 0x0 DUP1 REVERT JUMPDEST POP PUSH2 0x3A2 PUSH2 0x154C JUMP JUMPDEST CALLVALUE DUP1 ISZERO PUSH2 0x783 JUMPI PUSH1 0x0 DUP1 REVERT JUMPDEST POP PUSH2 0x3B3 PUSH2 0x792 CALLDATASIZE PUSH1 0x4 PUSH2 0x2D8D JUMP JUMPDEST PUSH1 0x1 PUSH1 0x1 PUSH1 0xA0 SHL SUB AND PUSH1 0x0 SWAP1 DUP2 MSTORE PUSH1 0xCC PUSH1 0x20 MSTORE PUSH1 0x40 SWAP1 KECCAK256 SLOAD SWAP1 JUMP JUMPDEST CALLVALUE DUP1 ISZERO PUSH2 0x7B9 JUMPI PUSH1 0x0 DUP1 REVERT JUMPDEST POP PUSH2 0x3A2 PUSH2 0x1603 JUMP JUMPDEST CALLVALUE DUP1 ISZERO PUSH2 0x7CE JUMPI PUSH1 0x0 DUP1 REVERT JUMPDEST POP PUSH2 0x3A2 PUSH2 0x7DD CALLDATASIZE PUSH1 0x4 PUSH2 0x298B JUMP JUMPDEST PUSH2 0x16B7 JUMP JUMPDEST CALLVALUE DUP1 ISZERO PUSH2 0x7EE JUMPI PUSH1 0x0 DUP1 REVERT JUMPDEST POP PUSH1 0xCB SLOAD PUSH2 0x3B3 JUMP JUMPDEST CALLVALUE DUP1 ISZERO PUSH2 0x803 JUMPI PUSH1 0x0 DUP1 REVERT JUMPDEST POP PUSH2 0x3A2 PUSH2 0x1740 JUMP JUMPDEST CALLVALUE DUP1 ISZERO PUSH2 0x818 JUMPI PUSH1 0x0 DUP1 REVERT JUMPDEST POP PUSH2 0x313 PUSH2 0x827 CALLDATASIZE PUSH1 0x4 PUSH2 0x2EEB JUMP JUMPDEST PUSH1 0x1 PUSH1 0x1 PUSH1 0xA0 SHL SUB SWAP2 DUP3 AND PUSH1 0x0 SWAP1 DUP2 MSTORE PUSH1 0x9E PUSH1 0x20 SWAP1 DUP2 MSTORE PUSH1 0x40 DUP1 DUP4 KECCAK256 SWAP4 SWAP1 SWAP5 AND DUP3 MSTORE SWAP2 SWAP1 SWAP2 MSTORE KECCAK256 SLOAD PUSH1 0xFF AND SWAP1 JUMP JUMPDEST CALLVALUE DUP1 ISZERO PUSH2 0x861 JUMPI PUSH1 0x0 DUP1 REVERT JUMPDEST POP PUSH2 0x3A2 PUSH2 0x870 CALLDATASIZE PUSH1 0x4 PUSH2 0x2D8D JUMP JUMPDEST PUSH2 0x17F7 JUMP JUMPDEST CALLVALUE DUP1 ISZERO PUSH2 0x881 JUMPI PUSH1 0x0 DUP1 REVERT JUMPDEST POP PUSH2 0x3A2 PUSH2 0x890 CALLDATASIZE PUSH1 0x4 PUSH2 0x2956 JUMP JUMPDEST PUSH2 0x188F JUMP JUMPDEST CALLVALUE DUP1 ISZERO PUSH2 0x8A1 JUMPI PUSH1 0x0 DUP1 REVERT JUMPDEST POP PUSH2 0x102 SLOAD PUSH1 0x1 PUSH1 0x1 PUSH1 0x40 SHL SUB AND PUSH2 0x3B3 JUMP JUMPDEST PUSH1 0x0 PUSH1 0x1 PUSH1 0x1 PUSH1 0xE0 SHL SUB NOT DUP3 AND PUSH4 0x152A902D PUSH1 0xE1 SHL EQ DUP1 PUSH2 0x8E5 JUMPI POP PUSH1 0x1 PUSH1 0x1 PUSH1 0xE0 SHL SUB NOT DUP3 AND PUSH4 0x704183B PUSH1 0xE1 SHL EQ JUMPDEST DUP1 PUSH2 0x8F4 JUMPI POP PUSH2 0x8F4 DUP3 PUSH2 0x18F8 JUMP JUMPDEST SWAP3 SWAP2 POP POP JUMP JUMPDEST PUSH1 0x60 PUSH1 0x99 DUP1 SLOAD PUSH2 0x909 SWAP1 PUSH2 0x2F15 JUMP JUMPDEST DUP1 PUSH1 0x1F ADD PUSH1 0x20 DUP1 SWAP2 DIV MUL PUSH1 0x20 ADD PUSH1 0x40 MLOAD SWAP1 DUP2 ADD PUSH1 0x40 MSTORE DUP1 SWAP3 SWAP2 SWAP1 DUP2 DUP2 MSTORE PUSH1 0x20 ADD DUP3 DUP1 SLOAD PUSH2 0x935 SWAP1 PUSH2 0x2F15 JUMP JUMPDEST DUP1 ISZERO PUSH2 0x982 JUMPI DUP1 PUSH1 0x1F LT PUSH2 0x957 JUMPI PUSH2 0x100 DUP1 DUP4 SLOAD DIV MUL DUP4 MSTORE SWAP2 PUSH1 0x20 ADD SWAP2 PUSH2 0x982 JUMP JUMPDEST DUP3 ADD SWAP2 SWAP1 PUSH1 0x0 MSTORE PUSH1 0x20 PUSH1 0x0 KECCAK256 SWAP1 JUMPDEST DUP2 SLOAD DUP2 MSTORE SWAP1 PUSH1 0x1 ADD SWAP1 PUSH1 0x20 ADD DUP1 DUP4 GT PUSH2 0x965 JUMPI DUP3 SWAP1 SUB PUSH1 0x1F AND DUP3 ADD SWAP2 JUMPDEST POP POP POP POP POP SWAP1 POP SWAP1 JUMP JUMPDEST PUSH1 0x0 PUSH2 0x997 DUP3 PUSH2 0x1948 JUMP JUMPDEST PUSH2 0x9B4 JUMPI PUSH1 0x40 MLOAD PUSH4 0x33D1C039 PUSH1 0xE2 SHL DUP2 MSTORE PUSH1 0x4 ADD PUSH1 0x40 MLOAD DUP1 SWAP2 SUB SWAP1 REVERT JUMPDEST POP PUSH1 0x0 SWAP1 DUP2 MSTORE PUSH1 0x9D PUSH1 0x20 MSTORE PUSH1 0x40 SWAP1 KECCAK256 SLOAD PUSH1 0x1 PUSH1 0x1 PUSH1 0xA0 SHL SUB AND SWAP1 JUMP JUMPDEST PUSH1 0x0 PUSH2 0x9DB DUP3 PUSH2 0xEE5 JUMP JUMPDEST SWAP1 POP DUP1 PUSH1 0x1 PUSH1 0x1 PUSH1 0xA0 SHL SUB AND DUP4 PUSH1 0x1 PUSH1 0x1 PUSH1 0xA0 SHL SUB AND SUB PUSH2 0xA0F JUMPI PUSH1 0x40 MLOAD PUSH4 0x250FDEE3 PUSH1 0xE2 SHL DUP2 MSTORE PUSH1 0x4 ADD PUSH1 0x40 MLOAD DUP1 SWAP2 SUB SWAP1 REVERT JUMPDEST CALLER PUSH1 0x1 PUSH1 0x1 PUSH1 0xA0 SHL SUB DUP3 AND EQ DUP1 ISZERO SWAP1 PUSH2 0xA2F JUMPI POP PUSH2 0xA2D DUP2 CALLER PUSH2 0x827 JUMP JUMPDEST ISZERO JUMPDEST ISZERO PUSH2 0xA4D JUMPI PUSH1 0x40 MLOAD PUSH4 0x67D9DCA1 PUSH1 0xE1 SHL DUP2 MSTORE PUSH1 0x4 ADD PUSH1 0x40 MLOAD DUP1 SWAP2 SUB SWAP1 REVERT JUMPDEST PUSH2 0xA58 DUP4 DUP4 DUP4 PUSH2 0x1981 JUMP JUMPDEST POP POP POP JUMP JUMPDEST PUSH2 0x102 SLOAD PUSH1 0x1 PUSH1 0x48 SHL SWAP1 DIV PUSH1 0xFF AND PUSH2 0xA88 JUMPI PUSH1 0x40 MLOAD PUSH4 0x73020E4B PUSH1 0xE0 SHL DUP2 MSTORE PUSH1 0x4 ADD PUSH1 0x40 MLOAD DUP1 SWAP2 SUB SWAP1 REVERT JUMPDEST PUSH2 0x102 SLOAD PUSH1 0x1 PUSH1 0x40 SHL SWAP1 DIV PUSH1 0xFF AND PUSH2 0xAB3 JUMPI PUSH1 0x40 MLOAD PUSH4 0x41A334CD PUSH1 0xE1 SHL DUP2 MSTORE PUSH1 0x4 ADD PUSH1 0x40 MLOAD DUP1 SWAP2 SUB SWAP1 REVERT JUMPDEST DUP1 PUSH1 0x1 PUSH1 0x1 PUSH1 0x40 SHL SUB AND PUSH2 0x100 SLOAD PUSH2 0xACB SWAP2 SWAP1 PUSH2 0x2F65 JUMP JUMPDEST CALLVALUE EQ PUSH2 0xAEA JUMPI PUSH1 0x40 MLOAD PUSH4 0x788A686F PUSH1 0xE0 SHL DUP2 MSTORE PUSH1 0x4 ADD PUSH1 0x40 MLOAD DUP1 SWAP2 SUB SWAP1 REVERT JUMPDEST PUSH2 0x101 SLOAD DUP2 PUSH1 0x1 PUSH1 0x1 PUSH1 0x40 SHL SUB AND PUSH2 0xB09 PUSH1 0x98 SLOAD PUSH1 0x97 SLOAD SUB PUSH1 0x0 NOT ADD SWAP1 JUMP JUMPDEST PUSH2 0xB13 SWAP2 SWAP1 PUSH2 0x2F84 JUMP JUMPDEST GT ISZERO PUSH2 0xB32 JUMPI PUSH1 0x40 MLOAD PUSH4 0x3B1E37BD PUSH1 0xE2 SHL DUP2 MSTORE PUSH1 0x4 ADD PUSH1 0x40 MLOAD DUP1 SWAP2 SUB SWAP1 REVERT JUMPDEST PUSH2 0x102 SLOAD PUSH1 0x1 PUSH1 0x1 PUSH1 0x40 SHL SUB SWAP1 DUP2 AND SWAP1 DUP3 AND GT ISZERO PUSH2 0xB63 JUMPI PUSH1 0x40 MLOAD PUSH4 0xE7B98A5 PUSH1 0xE1 SHL DUP2 MSTORE PUSH1 0x4 ADD PUSH1 0x40 MLOAD DUP1 SWAP2 SUB SWAP1 REVERT JUMPDEST PUSH2 0xBD8 DUP4 DUP4 DUP1 DUP1 PUSH1 0x20 MUL PUSH1 0x20 ADD PUSH1 0x40 MLOAD SWAP1 DUP2 ADD PUSH1 0x40 MSTORE DUP1 SWAP4 SWAP3 SWAP2 SWAP1 DUP2 DUP2 MSTORE PUSH1 0x20 ADD DUP4 DUP4 PUSH1 0x20 MUL DUP1 DUP3 DUP5 CALLDATACOPY PUSH1 0x0 SWAP3 ADD SWAP2 SWAP1 SWAP2 MSTORE POP POP PUSH1 0xFE SLOAD PUSH1 0x40 MLOAD PUSH12 0xFFFFFFFFFFFFFFFFFFFFFFFF NOT CALLER PUSH1 0x60 SHL AND PUSH1 0x20 DUP3 ADD MSTORE SWAP1 SWAP3 POP PUSH1 0x34 ADD SWAP1 POP PUSH1 0x40 MLOAD PUSH1 0x20 DUP2 DUP4 SUB SUB DUP2 MSTORE SWAP1 PUSH1 0x40 MSTORE DUP1 MLOAD SWAP1 PUSH1 0x20 ADD KECCAK256 PUSH2 0x19DD JUMP JUMPDEST PUSH2 0xBF5 JUMPI PUSH1 0x40 MLOAD PUSH4 0xB094F27 PUSH1 0xE3 SHL DUP2 MSTORE PUSH1 0x4 ADD PUSH1 0x40 MLOAD DUP1 SWAP2 SUB SWAP1 REVERT JUMPDEST CALLER PUSH1 0x0 SWAP1 DUP2 MSTORE PUSH1 0x9C PUSH1 0x20 MSTORE PUSH1 0x40 DUP2 KECCAK256 SLOAD DUP3 SWAP1 PUSH1 0x1 PUSH1 0xC0 SHL SWAP1 DIV PUSH1 0x1 PUSH1 0x1 PUSH1 0x40 SHL SUB AND PUSH2 0xC21 SWAP2 SWAP1 PUSH2 0x2F9C JUMP JUMPDEST PUSH2 0x102 SLOAD SWAP1 SWAP2 POP PUSH1 0x1 PUSH1 0x1 PUSH1 0x40 SHL SUB SWAP1 DUP2 AND SWAP1 DUP3 AND GT ISZERO PUSH2 0xC55 JUMPI PUSH1 0x40 MLOAD PUSH4 0x4026A7CF PUSH1 0xE1 SHL DUP2 MSTORE PUSH1 0x4 ADD PUSH1 0x40 MLOAD DUP1 SWAP2 SUB SWAP1 REVERT JUMPDEST PUSH2 0xC68 CALLER DUP4 PUSH1 0x1 PUSH1 0x1 PUSH1 0x40 SHL SUB AND PUSH2 0x19F3 JUMP JUMPDEST PUSH2 0xCA3 CALLER PUSH1 0x1 PUSH1 0x1 PUSH1 0xA0 SHL SUB AND PUSH1 0x0 SWAP1 DUP2 MSTORE PUSH1 0x9C PUSH1 0x20 MSTORE PUSH1 0x40 SWAP1 KECCAK256 DUP1 SLOAD PUSH1 0x1 PUSH1 0x1 PUSH1 0xC0 SHL SUB AND PUSH1 0x1 PUSH1 0xC0 SHL PUSH1 0x1 PUSH1 0x1 PUSH1 0x40 SHL SUB DUP6 AND MUL OR SWAP1 SSTORE JUMP JUMPDEST POP POP POP POP JUMP JUMPDEST PUSH2 0xA58 DUP4 DUP4 DUP4 PUSH2 0x1A0D JUMP JUMPDEST PUSH1 0xFA SLOAD PUSH1 0xFB SLOAD PUSH1 0x1 PUSH1 0x1 PUSH1 0xA0 SHL SUB SWAP1 SWAP2 AND SWAP1 PUSH1 0x0 SWAP1 PUSH2 0x2710 SWAP1 PUSH2 0xCD7 SWAP1 DUP6 PUSH2 0x2F65 JUMP JUMPDEST PUSH2 0xCE1 SWAP2 SWAP1 PUSH2 0x2FDD JUMP JUMPDEST SWAP1 POP SWAP3 POP SWAP3 SWAP1 POP JUMP JUMPDEST PUSH2 0x102 SLOAD PUSH1 0x1 PUSH1 0x40 SHL SWAP1 DIV PUSH1 0xFF AND ISZERO PUSH2 0xD16 JUMPI PUSH1 0x40 MLOAD PUSH4 0x3C664D67 PUSH1 0xE0 SHL DUP2 MSTORE PUSH1 0x4 ADD PUSH1 0x40 MLOAD DUP1 SWAP2 SUB SWAP1 REVERT JUMPDEST PUSH2 0x102 SLOAD PUSH1 0x1 PUSH1 0x48 SHL SWAP1 DIV PUSH1 0xFF AND PUSH2 0xD41 JUMPI PUSH1 0x40 MLOAD PUSH4 0x73020E4B PUSH1 0xE0 SHL DUP2 MSTORE PUSH1 0x4 ADD PUSH1 0x40 MLOAD DUP1 SWAP2 SUB SWAP1 REVERT JUMPDEST DUP1 PUSH2 0x100 SLOAD PUSH2 0xD50 SWAP2 SWAP1 PUSH2 0x2F65 JUMP JUMPDEST CALLVALUE EQ PUSH2 0xD6F JUMPI PUSH1 0x40 MLOAD PUSH4 0x788A686F PUSH1 0xE0 SHL DUP2 MSTORE PUSH1 0x4 ADD PUSH1 0x40 MLOAD DUP1 SWAP2 SUB SWAP1 REVERT JUMPDEST PUSH2 0x101 SLOAD DUP2 PUSH2 0xD85 PUSH1 0x98 SLOAD PUSH1 0x97 SLOAD SUB PUSH1 0x0 NOT ADD SWAP1 JUMP JUMPDEST PUSH2 0xD8F SWAP2 SWAP1 PUSH2 0x2F84 JUMP JUMPDEST GT ISZERO PUSH2 0xDAE JUMPI PUSH1 0x40 MLOAD PUSH4 0x3B1E37BD PUSH1 0xE2 SHL DUP2 MSTORE PUSH1 0x4 ADD PUSH1 0x40 MLOAD DUP1 SWAP2 SUB SWAP1 REVERT JUMPDEST PUSH1 0xFF SLOAD DUP2 GT ISZERO PUSH2 0xDD1 JUMPI PUSH1 0x40 MLOAD PUSH4 0x2193C2C5 PUSH1 0xE1 SHL DUP2 MSTORE PUSH1 0x4 ADD PUSH1 0x40 MLOAD DUP1 SWAP2 SUB SWAP1 REVERT JUMPDEST PUSH2 0xDDB CALLER DUP3 PUSH2 0x19F3 JUMP JUMPDEST POP JUMP JUMPDEST PUSH2 0xA58 DUP4 DUP4 DUP4 PUSH1 0x40 MLOAD DUP1 PUSH1 0x20 ADD PUSH1 0x40 MSTORE DUP1 PUSH1 0x0 DUP2 MSTORE POP PUSH2 0x139A JUMP JUMPDEST PUSH1 0x33 SLOAD PUSH1 0x1 PUSH1 0x1 PUSH1 0xA0 SHL SUB AND CALLER EQ PUSH2 0xE2C JUMPI PUSH1 0x40 MLOAD PUSH3 0x461BCD PUSH1 0xE5 SHL DUP2 MSTORE PUSH1 0x4 ADD PUSH2 0xE23 SWAP1 PUSH2 0x2FF1 JUMP JUMPDEST PUSH1 0x40 MLOAD DUP1 SWAP2 SUB SWAP1 REVERT JUMPDEST PUSH2 0xE3D PUSH1 0x98 SLOAD PUSH1 0x97 SLOAD SUB PUSH1 0x0 NOT ADD SWAP1 JUMP JUMPDEST DUP2 LT ISZERO PUSH2 0xE5D JUMPI PUSH1 0x40 MLOAD PUSH4 0x351B51D7 PUSH1 0xE1 SHL DUP2 MSTORE PUSH1 0x4 ADD PUSH1 0x40 MLOAD DUP1 SWAP2 SUB SWAP1 REVERT JUMPDEST PUSH2 0x101 DUP1 SLOAD SWAP1 DUP3 SWAP1 SSTORE PUSH1 0x40 DUP1 MLOAD DUP3 DUP2 MSTORE PUSH1 0x20 DUP2 ADD DUP5 SWAP1 MSTORE PUSH32 0x8D9CFB0DEA274A0A02DDAD1FC52C90100A28462C6421DAA25FB101C740CF5851 SWAP2 ADD JUMPDEST PUSH1 0x40 MLOAD DUP1 SWAP2 SUB SWAP1 LOG1 POP POP JUMP JUMPDEST PUSH1 0x33 SLOAD PUSH1 0x1 PUSH1 0x1 PUSH1 0xA0 SHL SUB AND CALLER EQ PUSH2 0xECE JUMPI PUSH1 0x40 MLOAD PUSH3 0x461BCD PUSH1 0xE5 SHL DUP2 MSTORE PUSH1 0x4 ADD PUSH2 0xE23 SWAP1 PUSH2 0x2FF1 JUMP JUMPDEST DUP1 MLOAD PUSH2 0xEE1 SWAP1 PUSH1 0xFC SWAP1 PUSH1 0x20 DUP5 ADD SWAP1 PUSH2 0x27AB JUMP JUMPDEST POP POP JUMP JUMPDEST PUSH1 0x0 PUSH2 0xEF0 DUP3 PUSH2 0x1BFB JUMP JUMPDEST MLOAD SWAP3 SWAP2 POP POP JUMP JUMPDEST PUSH1 0x0 SLOAD PUSH2 0x100 SWAP1 DIV PUSH1 0xFF AND PUSH2 0xF12 JUMPI PUSH1 0x0 SLOAD PUSH1 0xFF AND ISZERO PUSH2 0xF16 JUMP JUMPDEST ADDRESS EXTCODESIZE ISZERO JUMPDEST PUSH2 0xF79 JUMPI PUSH1 0x40 MLOAD PUSH3 0x461BCD PUSH1 0xE5 SHL DUP2 MSTORE PUSH1 0x20 PUSH1 0x4 DUP3 ADD MSTORE PUSH1 0x2E PUSH1 0x24 DUP3 ADD MSTORE PUSH32 0x496E697469616C697A61626C653A20636F6E747261637420697320616C726561 PUSH1 0x44 DUP3 ADD MSTORE PUSH14 0x191E481A5B9A5D1A585B1A5E9959 PUSH1 0x92 SHL PUSH1 0x64 DUP3 ADD MSTORE PUSH1 0x84 ADD PUSH2 0xE23 JUMP JUMPDEST PUSH1 0x0 SLOAD PUSH2 0x100 SWAP1 DIV PUSH1 0xFF AND ISZERO DUP1 ISZERO PUSH2 0xF9B JUMPI PUSH1 0x0 DUP1 SLOAD PUSH2 0xFFFF NOT AND PUSH2 0x101 OR SWAP1 SSTORE JUMPDEST PUSH2 0xFA5 DUP11 DUP11 PUSH2 0x1D22 JUMP JUMPDEST PUSH2 0xFB0 DUP3 DUP7 DUP7 PUSH2 0x1D53 JUMP JUMPDEST DUP3 ISZERO PUSH2 0xFC3 JUMPI PUSH1 0xFE DUP4 SWAP1 SSTORE PUSH2 0xFC3 PUSH2 0x154C JUMP JUMPDEST DUP8 MLOAD PUSH2 0xFD6 SWAP1 PUSH1 0xFD SWAP1 PUSH1 0x20 DUP12 ADD SWAP1 PUSH2 0x27AB JUMP JUMPDEST POP PUSH2 0x100 DUP8 SWAP1 SSTORE PUSH2 0x101 DUP7 SWAP1 SSTORE PUSH2 0x102 DUP1 SLOAD PUSH8 0xFFFFFFFFFFFFFFFF NOT AND PUSH1 0x2 SWAP1 DUP2 OR SWAP1 SWAP2 SSTORE PUSH1 0xFF SSTORE DUP1 ISZERO PUSH2 0x1010 JUMPI PUSH1 0x0 DUP1 SLOAD PUSH2 0xFF00 NOT AND SWAP1 SSTORE JUMPDEST POP POP POP POP POP POP POP POP POP POP JUMP JUMPDEST PUSH1 0x0 PUSH1 0x1 PUSH1 0x1 PUSH1 0xA0 SHL SUB DUP3 AND PUSH2 0x1045 JUMPI PUSH1 0x40 MLOAD PUSH4 0x23D3AD81 PUSH1 0xE2 SHL DUP2 MSTORE PUSH1 0x4 ADD PUSH1 0x40 MLOAD DUP1 SWAP2 SUB SWAP1 REVERT JUMPDEST POP PUSH1 0x1 PUSH1 0x1 PUSH1 0xA0 SHL SUB AND PUSH1 0x0 SWAP1 DUP2 MSTORE PUSH1 0x9C PUSH1 0x20 MSTORE PUSH1 0x40 SWAP1 KECCAK256 SLOAD PUSH1 0x1 PUSH1 0x1 PUSH1 0x40 SHL SUB AND SWAP1 JUMP JUMPDEST PUSH1 0x33 SLOAD PUSH1 0x1 PUSH1 0x1 PUSH1 0xA0 SHL SUB AND CALLER EQ PUSH2 0x1094 JUMPI PUSH1 0x40 MLOAD PUSH3 0x461BCD PUSH1 0xE5 SHL DUP2 MSTORE PUSH1 0x4 ADD PUSH2 0xE23 SWAP1 PUSH2 0x2FF1 JUMP JUMPDEST PUSH2 0x109E PUSH1 0x0 PUSH2 0x1E06 JUMP JUMPDEST JUMP JUMPDEST PUSH1 0x33 SLOAD PUSH1 0x1 PUSH1 0x1 PUSH1 0xA0 SHL SUB AND CALLER EQ PUSH2 0x10CA JUMPI PUSH1 0x40 MLOAD PUSH3 0x461BCD PUSH1 0xE5 SHL DUP2 MSTORE PUSH1 0x4 ADD PUSH2 0xE23 SWAP1 PUSH2 0x2FF1 JUMP JUMPDEST PUSH2 0x102 SLOAD PUSH1 0x1 PUSH1 0x48 SHL SWAP1 DIV PUSH1 0xFF AND PUSH2 0x10F5 JUMPI PUSH1 0x40 MLOAD PUSH4 0x73020E4B PUSH1 0xE0 SHL DUP2 MSTORE PUSH1 0x4 ADD PUSH1 0x40 MLOAD DUP1 SWAP2 SUB SWAP1 REVERT JUMPDEST PUSH2 0x102 DUP1 SLOAD PUSH1 0xFF PUSH1 0x48 SHL NOT DUP2 AND SWAP2 DUP3 SWAP1 SSTORE PUSH1 0x40 DUP1 MLOAD PUSH1 0xFF PUSH1 0x1 PUSH1 0x48 SHL SWAP4 DUP5 SWAP1 DIV DUP2 AND DUP1 ISZERO ISZERO DUP4 MSTORE SWAP4 SWAP1 SWAP5 DIV SWAP1 SWAP4 AND ISZERO ISZERO PUSH1 0x20 DUP5 ADD MSTORE SWAP1 SWAP2 PUSH32 0x1AB1D89BE1FD19DCD21C73F1D6E927E3F148097E8691BBBA925BD85E34E1F0E3 SWAP2 ADD JUMPDEST PUSH1 0x40 MLOAD DUP1 SWAP2 SUB SWAP1 LOG1 POP JUMP JUMPDEST PUSH1 0x33 SLOAD PUSH1 0x1 PUSH1 0x1 PUSH1 0xA0 SHL SUB AND CALLER EQ PUSH2 0x1185 JUMPI PUSH1 0x40 MLOAD PUSH3 0x461BCD PUSH1 0xE5 SHL DUP2 MSTORE PUSH1 0x4 ADD PUSH2 0xE23 SWAP1 PUSH2 0x2FF1 JUMP JUMPDEST PUSH2 0x109E PUSH2 0x1E58 JUMP JUMPDEST PUSH1 0x0 PUSH1 0xCE DUP3 DUP2 SLOAD DUP2 LT PUSH2 0x11A2 JUMPI PUSH2 0x11A2 PUSH2 0x3026 JUMP JUMPDEST PUSH1 0x0 SWAP2 DUP3 MSTORE PUSH1 0x20 SWAP1 SWAP2 KECCAK256 ADD SLOAD PUSH1 0x1 PUSH1 0x1 PUSH1 0xA0 SHL SUB AND SWAP3 SWAP2 POP POP JUMP JUMPDEST PUSH1 0x33 SLOAD PUSH1 0x1 PUSH1 0x1 PUSH1 0xA0 SHL SUB AND CALLER EQ PUSH2 0x11E7 JUMPI PUSH1 0x40 MLOAD PUSH3 0x461BCD PUSH1 0xE5 SHL DUP2 MSTORE PUSH1 0x4 ADD PUSH2 0xE23 SWAP1 PUSH2 0x2FF1 JUMP JUMPDEST PUSH2 0xA58 PUSH1 0xFD DUP4 DUP4 PUSH2 0x282F JUMP JUMPDEST PUSH1 0x33 SLOAD PUSH1 0x1 PUSH1 0x1 PUSH1 0xA0 SHL SUB AND CALLER EQ PUSH2 0x121D JUMPI PUSH1 0x40 MLOAD PUSH3 0x461BCD PUSH1 0xE5 SHL DUP2 MSTORE PUSH1 0x4 ADD PUSH2 0xE23 SWAP1 PUSH2 0x2FF1 JUMP JUMPDEST PUSH2 0x102 DUP1 SLOAD PUSH1 0x1 PUSH1 0x1 PUSH1 0x40 SHL SUB DUP4 DUP2 AND PUSH8 0xFFFFFFFFFFFFFFFF NOT DUP4 AND DUP2 OR SWAP1 SWAP4 SSTORE PUSH1 0x40 MLOAD SWAP2 AND SWAP2 PUSH32 0x3851F4A3CE1C8ADCE98754722FF6F348F4714FD4850D154C71045447D3042468 SWAP2 PUSH2 0xE98 SWAP2 DUP5 DUP3 MSTORE PUSH1 0x1 PUSH1 0x1 PUSH1 0x40 SHL SUB AND PUSH1 0x20 DUP3 ADD MSTORE PUSH1 0x40 ADD SWAP1 JUMP JUMPDEST PUSH1 0x60 PUSH1 0x9A DUP1 SLOAD PUSH2 0x909 SWAP1 PUSH2 0x2F15 JUMP JUMPDEST CALLER PUSH1 0x1 PUSH1 0x1 PUSH1 0xA0 SHL SUB DUP4 AND SUB PUSH2 0x12B9 JUMPI PUSH1 0x40 MLOAD PUSH4 0xB06307DB PUSH1 0xE0 SHL DUP2 MSTORE PUSH1 0x4 ADD PUSH1 0x40 MLOAD DUP1 SWAP2 SUB SWAP1 REVERT JUMPDEST CALLER PUSH1 0x0 DUP2 DUP2 MSTORE PUSH1 0x9E PUSH1 0x20 SWAP1 DUP2 MSTORE PUSH1 0x40 DUP1 DUP4 KECCAK256 PUSH1 0x1 PUSH1 0x1 PUSH1 0xA0 SHL SUB DUP8 AND DUP1 DUP6 MSTORE SWAP1 DUP4 MSTORE SWAP3 DUP2 SWAP1 KECCAK256 DUP1 SLOAD PUSH1 0xFF NOT AND DUP7 ISZERO ISZERO SWAP1 DUP2 OR SWAP1 SWAP2 SSTORE SWAP1 MLOAD SWAP1 DUP2 MSTORE SWAP2 SWAP3 SWAP2 PUSH32 0x17307EAB39AB6107E8899845AD3D59BD9653F200F220920489CA2B5937696C31 SWAP2 ADD PUSH1 0x40 MLOAD DUP1 SWAP2 SUB SWAP1 LOG3 POP POP JUMP JUMPDEST PUSH1 0x33 SLOAD PUSH1 0x1 PUSH1 0x1 PUSH1 0xA0 SHL SUB AND CALLER EQ PUSH2 0x134F JUMPI PUSH1 0x40 MLOAD PUSH3 0x461BCD PUSH1 0xE5 SHL DUP2 MSTORE PUSH1 0x4 ADD PUSH2 0xE23 SWAP1 PUSH2 0x2FF1 JUMP JUMPDEST PUSH1 0xFF DUP1 SLOAD SWAP1 DUP3 SWAP1 SSTORE PUSH2 0x102 SLOAD PUSH1 0x40 DUP1 MLOAD DUP4 DUP2 MSTORE PUSH1 0x1 PUSH1 0x1 PUSH1 0x40 SHL SUB SWAP1 SWAP3 AND PUSH1 0x20 DUP4 ADD MSTORE PUSH32 0x439B8B0B530562F8413DB2651AB1E8DCAE2719DA0A2D2D3D3C068CA25C29969F SWAP2 ADD PUSH2 0xE98 JUMP JUMPDEST PUSH2 0x13A5 DUP5 DUP5 DUP5 PUSH2 0x1A0D JUMP JUMPDEST PUSH1 0x1 PUSH1 0x1 PUSH1 0xA0 SHL SUB DUP4 AND EXTCODESIZE ISZERO ISZERO DUP1 ISZERO PUSH2 0x13C7 JUMPI POP PUSH2 0x13C5 DUP5 DUP5 DUP5 DUP5 PUSH2 0x1FA1 JUMP JUMPDEST ISZERO JUMPDEST ISZERO PUSH2 0xCA3 JUMPI PUSH1 0x40 MLOAD PUSH4 0x68D2BF6B PUSH1 0xE1 SHL DUP2 MSTORE PUSH1 0x4 ADD PUSH1 0x40 MLOAD DUP1 SWAP2 SUB SWAP1 REVERT JUMPDEST PUSH1 0x33 SLOAD PUSH1 0x1 PUSH1 0x1 PUSH1 0xA0 SHL SUB AND CALLER EQ PUSH2 0x140F JUMPI PUSH1 0x40 MLOAD PUSH3 0x461BCD PUSH1 0xE5 SHL DUP2 MSTORE PUSH1 0x4 ADD PUSH2 0xE23 SWAP1 PUSH2 0x2FF1 JUMP JUMPDEST PUSH1 0xFE DUP1 SLOAD SWAP1 DUP3 SWAP1 SSTORE PUSH1 0x40 DUP1 MLOAD DUP3 DUP2 MSTORE PUSH1 0x20 DUP2 ADD DUP5 SWAP1 MSTORE PUSH32 0x1E5D0194158313989F8568B586DEB425FCD9A6B46A4E6E2C43F9BECC480C6BC0 SWAP2 ADD PUSH2 0xE98 JUMP JUMPDEST PUSH1 0x60 PUSH2 0x1458 DUP3 PUSH2 0x1948 JUMP JUMPDEST PUSH2 0x1475 JUMPI PUSH1 0x40 MLOAD PUSH4 0x4A1850BF PUSH1 0xE1 SHL DUP2 MSTORE PUSH1 0x4 ADD PUSH1 0x40 MLOAD DUP1 SWAP2 SUB SWAP1 REVERT JUMPDEST PUSH1 0x0 PUSH2 0x147F PUSH2 0x208D JUMP JUMPDEST SWAP1 POP PUSH1 0x0 DUP2 MLOAD GT PUSH2 0x151A JUMPI PUSH1 0xFD DUP1 SLOAD PUSH2 0x1497 SWAP1 PUSH2 0x2F15 JUMP JUMPDEST DUP1 PUSH1 0x1F ADD PUSH1 0x20 DUP1 SWAP2 DIV MUL PUSH1 0x20 ADD PUSH1 0x40 MLOAD SWAP1 DUP2 ADD PUSH1 0x40 MSTORE DUP1 SWAP3 SWAP2 SWAP1 DUP2 DUP2 MSTORE PUSH1 0x20 ADD DUP3 DUP1 SLOAD PUSH2 0x14C3 SWAP1 PUSH2 0x2F15 JUMP JUMPDEST DUP1 ISZERO PUSH2 0x1510 JUMPI DUP1 PUSH1 0x1F LT PUSH2 0x14E5 JUMPI PUSH2 0x100 DUP1 DUP4 SLOAD DIV MUL DUP4 MSTORE SWAP2 PUSH1 0x20 ADD SWAP2 PUSH2 0x1510 JUMP JUMPDEST DUP3 ADD SWAP2 SWAP1 PUSH1 0x0 MSTORE PUSH1 0x20 PUSH1 0x0 KECCAK256 SWAP1 JUMPDEST DUP2 SLOAD DUP2 MSTORE SWAP1 PUSH1 0x1 ADD SWAP1 PUSH1 0x20 ADD DUP1 DUP4 GT PUSH2 0x14F3 JUMPI DUP3 SWAP1 SUB PUSH1 0x1F AND DUP3 ADD SWAP2 JUMPDEST POP POP POP POP POP PUSH2 0x1545 JUMP JUMPDEST DUP1 PUSH2 0x1524 DUP5 PUSH2 0x209C JUMP JUMPDEST PUSH1 0x40 MLOAD PUSH1 0x20 ADD PUSH2 0x1535 SWAP3 SWAP2 SWAP1 PUSH2 0x303C JUMP JUMPDEST PUSH1 0x40 MLOAD PUSH1 0x20 DUP2 DUP4 SUB SUB DUP2 MSTORE SWAP1 PUSH1 0x40 MSTORE JUMPDEST SWAP4 SWAP3 POP POP POP JUMP JUMPDEST PUSH1 0x33 SLOAD PUSH1 0x1 PUSH1 0x1 PUSH1 0xA0 SHL SUB AND CALLER EQ PUSH2 0x1576 JUMPI PUSH1 0x40 MLOAD PUSH3 0x461BCD PUSH1 0xE5 SHL DUP2 MSTORE PUSH1 0x4 ADD PUSH2 0xE23 SWAP1 PUSH2 0x2FF1 JUMP JUMPDEST PUSH2 0x102 SLOAD PUSH1 0x1 PUSH1 0x40 SHL SWAP1 DIV PUSH1 0xFF AND ISZERO PUSH2 0x15A2 JUMPI PUSH1 0x40 MLOAD PUSH4 0x3C664D67 PUSH1 0xE0 SHL DUP2 MSTORE PUSH1 0x4 ADD PUSH1 0x40 MLOAD DUP1 SWAP2 SUB SWAP1 REVERT JUMPDEST PUSH2 0x102 DUP1 SLOAD PUSH1 0x1 PUSH1 0x40 SHL PUSH1 0xFF PUSH1 0x40 SHL NOT DUP3 AND DUP2 OR SWAP3 DUP4 SWAP1 SSTORE PUSH1 0x40 DUP1 MLOAD SWAP3 DUP3 SWAP1 DIV PUSH1 0xFF SWAP1 DUP2 AND DUP1 ISZERO ISZERO DUP6 MSTORE SWAP3 SWAP1 SWAP5 DIV SWAP1 SWAP4 AND ISZERO ISZERO PUSH1 0x20 DUP4 ADD MSTORE SWAP2 PUSH32 0x5045EEA7E64AF4D857464A8347A5BBCE05A99FE1E1F08A3F1EBBC61AA782B21B SWAP2 ADD PUSH2 0x1150 JUMP JUMPDEST PUSH1 0x33 SLOAD PUSH1 0x1 PUSH1 0x1 PUSH1 0xA0 SHL SUB AND CALLER EQ PUSH2 0x162D JUMPI PUSH1 0x40 MLOAD PUSH3 0x461BCD PUSH1 0xE5 SHL DUP2 MSTORE PUSH1 0x4 ADD PUSH2 0xE23 SWAP1 PUSH2 0x2FF1 JUMP JUMPDEST PUSH2 0x102 SLOAD PUSH1 0x1 PUSH1 0x40 SHL SWAP1 DIV PUSH1 0xFF AND PUSH2 0x1658 JUMPI PUSH1 0x40 MLOAD PUSH4 0x41A334CD PUSH1 0xE1 SHL DUP2 MSTORE PUSH1 0x4 ADD PUSH1 0x40 MLOAD DUP1 SWAP2 SUB SWAP1 REVERT JUMPDEST PUSH2 0x102 DUP1 SLOAD PUSH1 0xFF PUSH1 0x40 SHL NOT DUP2 AND SWAP2 DUP3 SWAP1 SSTORE PUSH1 0x40 DUP1 MLOAD PUSH1 0xFF PUSH1 0x1 PUSH1 0x40 SHL SWAP4 DUP5 SWAP1 DIV DUP2 AND DUP1 ISZERO ISZERO DUP4 MSTORE SWAP4 SWAP1 SWAP5 DIV SWAP1 SWAP4 AND ISZERO ISZERO PUSH1 0x20 DUP5 ADD MSTORE SWAP1 SWAP2 PUSH32 0x5045EEA7E64AF4D857464A8347A5BBCE05A99FE1E1F08A3F1EBBC61AA782B21B SWAP2 ADD PUSH2 0x1150 JUMP JUMPDEST PUSH1 0x33 SLOAD PUSH1 0x1 PUSH1 0x1 PUSH1 0xA0 SHL SUB AND CALLER EQ PUSH2 0x16E1 JUMPI PUSH1 0x40 MLOAD PUSH3 0x461BCD PUSH1 0xE5 SHL DUP2 MSTORE PUSH1 0x4 ADD PUSH2 0xE23 SWAP1 PUSH2 0x2FF1 JUMP JUMPDEST PUSH1 0xFA DUP1 SLOAD PUSH1 0x1 PUSH1 0x1 PUSH1 0xA0 SHL SUB NOT AND PUSH1 0x1 PUSH1 0x1 PUSH1 0xA0 SHL SUB DUP5 AND OR SWAP1 SSTORE PUSH1 0xFB DUP2 SWAP1 SSTORE PUSH1 0x40 DUP1 MLOAD PUSH1 0x1 PUSH1 0x1 PUSH1 0xA0 SHL SUB DUP5 AND DUP2 MSTORE PUSH1 0x20 DUP2 ADD DUP4 SWAP1 MSTORE PUSH32 0x37B261884B0718CAB93D62E6FE3BEF710B5A1DA58190A859F842D6E8B2B0B70B SWAP2 ADD PUSH2 0xE98 JUMP JUMPDEST PUSH1 0x33 SLOAD PUSH1 0x1 PUSH1 0x1 PUSH1 0xA0 SHL SUB AND CALLER EQ PUSH2 0x176A JUMPI PUSH1 0x40 MLOAD PUSH3 0x461BCD PUSH1 0xE5 SHL DUP2 MSTORE PUSH1 0x4 ADD PUSH2 0xE23 SWAP1 PUSH2 0x2FF1 JUMP JUMPDEST PUSH2 0x102 SLOAD PUSH1 0x1 PUSH1 0x48 SHL SWAP1 DIV PUSH1 0xFF AND ISZERO PUSH2 0x1796 JUMPI PUSH1 0x40 MLOAD PUSH4 0x3F19D529 PUSH1 0xE2 SHL DUP2 MSTORE PUSH1 0x4 ADD PUSH1 0x40 MLOAD DUP1 SWAP2 SUB SWAP1 REVERT JUMPDEST PUSH2 0x102 DUP1 SLOAD PUSH1 0x1 PUSH1 0x48 SHL PUSH1 0xFF PUSH1 0x48 SHL NOT DUP3 AND DUP2 OR SWAP3 DUP4 SWAP1 SSTORE PUSH1 0x40 DUP1 MLOAD SWAP3 DUP3 SWAP1 DIV PUSH1 0xFF SWAP1 DUP2 AND DUP1 ISZERO ISZERO DUP6 MSTORE SWAP3 SWAP1 SWAP5 DIV SWAP1 SWAP4 AND ISZERO ISZERO PUSH1 0x20 DUP4 ADD MSTORE SWAP2 PUSH32 0x1AB1D89BE1FD19DCD21C73F1D6E927E3F148097E8691BBBA925BD85E34E1F0E3 SWAP2 ADD PUSH2 0x1150 JUMP JUMPDEST PUSH1 0x33 SLOAD PUSH1 0x1 PUSH1 0x1 PUSH1 0xA0 SHL SUB AND CALLER EQ PUSH2 0x1821 JUMPI PUSH1 0x40 MLOAD PUSH3 0x461BCD PUSH1 0xE5 SHL DUP2 MSTORE PUSH1 0x4 ADD PUSH2 0xE23 SWAP1 PUSH2 0x2FF1 JUMP JUMPDEST PUSH1 0x1 PUSH1 0x1 PUSH1 0xA0 SHL SUB DUP2 AND PUSH2 0x1886 JUMPI PUSH1 0x40 MLOAD PUSH3 0x461BCD PUSH1 0xE5 SHL DUP2 MSTORE PUSH1 0x20 PUSH1 0x4 DUP3 ADD MSTORE PUSH1 0x26 PUSH1 0x24 DUP3 ADD MSTORE PUSH32 0x4F776E61626C653A206E6577206F776E657220697320746865207A65726F2061 PUSH1 0x44 DUP3 ADD MSTORE PUSH6 0x646472657373 PUSH1 0xD0 SHL PUSH1 0x64 DUP3 ADD MSTORE PUSH1 0x84 ADD PUSH2 0xE23 JUMP JUMPDEST PUSH2 0xDDB DUP2 PUSH2 0x1E06 JUMP JUMPDEST PUSH1 0x33 SLOAD PUSH1 0x1 PUSH1 0x1 PUSH1 0xA0 SHL SUB AND CALLER EQ PUSH2 0x18B9 JUMPI PUSH1 0x40 MLOAD PUSH3 0x461BCD PUSH1 0xE5 SHL DUP2 MSTORE PUSH1 0x4 ADD PUSH2 0xE23 SWAP1 PUSH2 0x2FF1 JUMP JUMPDEST PUSH2 0x100 DUP1 SLOAD SWAP1 DUP3 SWAP1 SSTORE PUSH1 0x40 DUP1 MLOAD DUP3 DUP2 MSTORE PUSH1 0x20 DUP2 ADD DUP5 SWAP1 MSTORE PUSH32 0x79F142B9BCCCC417646EEAD59C29526AC8437FCCD19A5368532B2648349ADCE1 SWAP2 ADD PUSH2 0xE98 JUMP JUMPDEST PUSH1 0x0 PUSH1 0x1 PUSH1 0x1 PUSH1 0xE0 SHL SUB NOT DUP3 AND PUSH4 0x80AC58CD PUSH1 0xE0 SHL EQ DUP1 PUSH2 0x1929 JUMPI POP PUSH1 0x1 PUSH1 0x1 PUSH1 0xE0 SHL SUB NOT DUP3 AND PUSH4 0x5B5E139F PUSH1 0xE0 SHL EQ JUMPDEST DUP1 PUSH2 0x8F4 JUMPI POP PUSH4 0x1FFC9A7 PUSH1 0xE0 SHL PUSH1 0x1 PUSH1 0x1 PUSH1 0xE0 SHL SUB NOT DUP4 AND EQ PUSH2 0x8F4 JUMP JUMPDEST PUSH1 0x0 DUP2 PUSH1 0x1 GT ISZERO DUP1 ISZERO PUSH2 0x195C JUMPI POP PUSH1 0x97 SLOAD DUP3 LT JUMPDEST DUP1 ISZERO PUSH2 0x8F4 JUMPI POP POP PUSH1 0x0 SWAP1 DUP2 MSTORE PUSH1 0x9B PUSH1 0x20 MSTORE PUSH1 0x40 SWAP1 KECCAK256 SLOAD PUSH1 0x1 PUSH1 0xE0 SHL SWAP1 DIV PUSH1 0xFF AND ISZERO SWAP1 JUMP JUMPDEST PUSH1 0x0 DUP3 DUP2 MSTORE PUSH1 0x9D PUSH1 0x20 MSTORE PUSH1 0x40 DUP1 DUP3 KECCAK256 DUP1 SLOAD PUSH1 0x1 PUSH1 0x1 PUSH1 0xA0 SHL SUB NOT AND PUSH1 0x1 PUSH1 0x1 PUSH1 0xA0 SHL SUB DUP8 DUP2 AND SWAP2 DUP3 OR SWAP1 SWAP3 SSTORE SWAP2 MLOAD DUP6 SWAP4 SWAP2 DUP6 AND SWAP2 PUSH32 0x8C5BE1E5EBEC7D5BD14F71427D1E84F3DD0314C0F7B2291E5B200AC8C7C3B925 SWAP2 LOG4 POP POP POP JUMP JUMPDEST PUSH1 0x0 DUP3 PUSH2 0x19EA DUP6 DUP5 PUSH2 0x219C JUMP JUMPDEST EQ SWAP5 SWAP4 POP POP POP POP JUMP JUMPDEST PUSH2 0xEE1 DUP3 DUP3 PUSH1 0x40 MLOAD DUP1 PUSH1 0x20 ADD PUSH1 0x40 MSTORE DUP1 PUSH1 0x0 DUP2 MSTORE POP PUSH2 0x2210 JUMP JUMPDEST PUSH1 0x0 PUSH2 0x1A18 DUP3 PUSH2 0x1BFB JUMP JUMPDEST SWAP1 POP DUP4 PUSH1 0x1 PUSH1 0x1 PUSH1 0xA0 SHL SUB AND DUP2 PUSH1 0x0 ADD MLOAD PUSH1 0x1 PUSH1 0x1 PUSH1 0xA0 SHL SUB AND EQ PUSH2 0x1A4F JUMPI PUSH1 0x40 MLOAD PUSH3 0xA11481 PUSH1 0xE8 SHL DUP2 MSTORE PUSH1 0x4 ADD PUSH1 0x40 MLOAD DUP1 SWAP2 SUB SWAP1 REVERT JUMPDEST PUSH1 0x0 CALLER PUSH1 0x1 PUSH1 0x1 PUSH1 0xA0 SHL SUB DUP7 AND EQ DUP1 PUSH2 0x1A6D JUMPI POP PUSH2 0x1A6D DUP6 CALLER PUSH2 0x827 JUMP JUMPDEST DUP1 PUSH2 0x1A88 JUMPI POP CALLER PUSH2 0x1A7D DUP5 PUSH2 0x98C JUMP JUMPDEST PUSH1 0x1 PUSH1 0x1 PUSH1 0xA0 SHL SUB AND EQ JUMPDEST SWAP1 POP DUP1 PUSH2 0x1AA8 JUMPI PUSH1 0x40 MLOAD PUSH4 0x2CE44B5F PUSH1 0xE1 SHL DUP2 MSTORE PUSH1 0x4 ADD PUSH1 0x40 MLOAD DUP1 SWAP2 SUB SWAP1 REVERT JUMPDEST PUSH1 0x1 PUSH1 0x1 PUSH1 0xA0 SHL SUB DUP5 AND PUSH2 0x1ACF JUMPI PUSH1 0x40 MLOAD PUSH4 0x3A954ECD PUSH1 0xE2 SHL DUP2 MSTORE PUSH1 0x4 ADD PUSH1 0x40 MLOAD DUP1 SWAP2 SUB SWAP1 REVERT JUMPDEST PUSH2 0x1ADB PUSH1 0x0 DUP5 DUP8 PUSH2 0x1981 JUMP JUMPDEST PUSH1 0x1 PUSH1 0x1 PUSH1 0xA0 SHL SUB DUP6 DUP2 AND PUSH1 0x0 SWAP1 DUP2 MSTORE PUSH1 0x9C PUSH1 0x20 SWAP1 DUP2 MSTORE PUSH1 0x40 DUP1 DUP4 KECCAK256 DUP1 SLOAD PUSH8 0xFFFFFFFFFFFFFFFF NOT DUP1 DUP3 AND PUSH1 0x1 PUSH1 0x1 PUSH1 0x40 SHL SUB SWAP3 DUP4 AND PUSH1 0x0 NOT ADD DUP4 AND OR SWAP1 SWAP3 SSTORE DUP10 DUP7 AND DUP1 DUP7 MSTORE DUP4 DUP7 KECCAK256 DUP1 SLOAD SWAP4 DUP5 AND SWAP4 DUP4 AND PUSH1 0x1 SWAP1 DUP2 ADD DUP5 AND SWAP5 SWAP1 SWAP5 OR SWAP1 SSTORE DUP10 DUP7 MSTORE PUSH1 0x9B SWAP1 SWAP5 MSTORE DUP3 DUP6 KECCAK256 DUP1 SLOAD PUSH1 0x1 PUSH1 0x1 PUSH1 0xE0 SHL SUB NOT AND SWAP1 SWAP5 OR PUSH1 0x1 PUSH1 0xA0 SHL TIMESTAMP SWAP1 SWAP3 AND SWAP2 SWAP1 SWAP2 MUL OR DUP4 SSTORE DUP8 ADD DUP1 DUP5 MSTORE SWAP3 KECCAK256 DUP1 SLOAD SWAP2 SWAP4 SWAP1 SWAP2 AND PUSH2 0x1BAF JUMPI PUSH1 0x97 SLOAD DUP3 EQ PUSH2 0x1BAF JUMPI DUP1 SLOAD PUSH1 0x20 DUP7 ADD MLOAD PUSH1 0x1 PUSH1 0x1 PUSH1 0x40 SHL SUB AND PUSH1 0x1 PUSH1 0xA0 SHL MUL PUSH1 0x1 PUSH1 0x1 PUSH1 0xE0 SHL SUB NOT SWAP1 SWAP2 AND PUSH1 0x1 PUSH1 0x1 PUSH1 0xA0 SHL SUB DUP11 AND OR OR DUP2 SSTORE JUMPDEST POP POP POP DUP3 DUP5 PUSH1 0x1 PUSH1 0x1 PUSH1 0xA0 SHL SUB AND DUP7 PUSH1 0x1 PUSH1 0x1 PUSH1 0xA0 SHL SUB AND PUSH32 0xDDF252AD1BE2C89B69C2B068FC378DAA952BA7F163C4A11628F55A4DF523B3EF PUSH1 0x40 MLOAD PUSH1 0x40 MLOAD DUP1 SWAP2 SUB SWAP1 LOG4 JUMPDEST POP POP POP POP POP JUMP JUMPDEST PUSH1 0x40 DUP1 MLOAD PUSH1 0x60 DUP2 ADD DUP3 MSTORE PUSH1 0x0 DUP1 DUP3 MSTORE PUSH1 0x20 DUP3 ADD DUP2 SWAP1 MSTORE SWAP2 DUP2 ADD SWAP2 SWAP1 SWAP2 MSTORE DUP2 DUP1 PUSH1 0x1 GT ISZERO DUP1 ISZERO PUSH2 0x1C2B JUMPI POP PUSH1 0x97 SLOAD DUP2 LT JUMPDEST ISZERO PUSH2 0x1D09 JUMPI PUSH1 0x0 DUP2 DUP2 MSTORE PUSH1 0x9B PUSH1 0x20 SWAP1 DUP2 MSTORE PUSH1 0x40 SWAP2 DUP3 SWAP1 KECCAK256 DUP3 MLOAD PUSH1 0x60 DUP2 ADD DUP5 MSTORE SWAP1 SLOAD PUSH1 0x1 PUSH1 0x1 PUSH1 0xA0 SHL SUB DUP2 AND DUP3 MSTORE PUSH1 0x1 PUSH1 0xA0 SHL DUP2 DIV PUSH1 0x1 PUSH1 0x1 PUSH1 0x40 SHL SUB AND SWAP3 DUP3 ADD SWAP3 SWAP1 SWAP3 MSTORE PUSH1 0x1 PUSH1 0xE0 SHL SWAP1 SWAP2 DIV PUSH1 0xFF AND ISZERO ISZERO SWAP2 DUP2 ADD DUP3 SWAP1 MSTORE SWAP1 PUSH2 0x1D07 JUMPI DUP1 MLOAD PUSH1 0x1 PUSH1 0x1 PUSH1 0xA0 SHL SUB AND ISZERO PUSH2 0x1C9E JUMPI SWAP4 SWAP3 POP POP POP JUMP JUMPDEST POP PUSH1 0x0 NOT ADD PUSH1 0x0 DUP2 DUP2 MSTORE PUSH1 0x9B PUSH1 0x20 SWAP1 DUP2 MSTORE PUSH1 0x40 SWAP2 DUP3 SWAP1 KECCAK256 DUP3 MLOAD PUSH1 0x60 DUP2 ADD DUP5 MSTORE SWAP1 SLOAD PUSH1 0x1 PUSH1 0x1 PUSH1 0xA0 SHL SUB DUP2 AND DUP1 DUP4 MSTORE PUSH1 0x1 PUSH1 0xA0 SHL DUP3 DIV PUSH1 0x1 PUSH1 0x1 PUSH1 0x40 SHL SUB AND SWAP4 DUP4 ADD SWAP4 SWAP1 SWAP4 MSTORE PUSH1 0x1 PUSH1 0xE0 SHL SWAP1 DIV PUSH1 0xFF AND ISZERO ISZERO SWAP3 DUP2 ADD SWAP3 SWAP1 SWAP3 MSTORE ISZERO PUSH2 0x1D02 JUMPI SWAP4 SWAP3 POP POP POP JUMP JUMPDEST PUSH2 0x1C9E JUMP JUMPDEST POP JUMPDEST PUSH1 0x40 MLOAD PUSH4 0x6F96CDA1 PUSH1 0xE1 SHL DUP2 MSTORE PUSH1 0x4 ADD PUSH1 0x40 MLOAD DUP1 SWAP2 SUB SWAP1 REVERT JUMPDEST PUSH1 0x0 SLOAD PUSH2 0x100 SWAP1 DIV PUSH1 0xFF AND PUSH2 0x1D49 JUMPI PUSH1 0x40 MLOAD PUSH3 0x461BCD PUSH1 0xE5 SHL DUP2 MSTORE PUSH1 0x4 ADD PUSH2 0xE23 SWAP1 PUSH2 0x308A JUMP JUMPDEST PUSH2 0xEE1 DUP3 DUP3 PUSH2 0x221D JUMP JUMPDEST PUSH1 0x0 SLOAD PUSH2 0x100 SWAP1 DIV PUSH1 0xFF AND PUSH2 0x1D7A JUMPI PUSH1 0x40 MLOAD PUSH3 0x461BCD PUSH1 0xE5 SHL DUP2 MSTORE PUSH1 0x4 ADD PUSH2 0xE23 SWAP1 PUSH2 0x308A JUMP JUMPDEST PUSH2 0x1D86 DUP4 PUSH2 0x1F4 PUSH2 0x2275 JUMP JUMPDEST DUP2 MLOAD PUSH1 0x0 SUB PUSH2 0x1DA3 JUMPI PUSH2 0x1D9B CALLER PUSH2 0x251C PUSH2 0x2275 JUMP JUMPDEST PUSH2 0xA58 PUSH2 0x22DA JUMP JUMPDEST PUSH1 0x0 JUMPDEST DUP3 MLOAD DUP2 LT ISZERO PUSH2 0x1DFD JUMPI PUSH2 0x1DEB DUP4 DUP3 DUP2 MLOAD DUP2 LT PUSH2 0x1DC4 JUMPI PUSH2 0x1DC4 PUSH2 0x3026 JUMP JUMPDEST PUSH1 0x20 MUL PUSH1 0x20 ADD ADD MLOAD DUP4 DUP4 DUP2 MLOAD DUP2 LT PUSH2 0x1DDE JUMPI PUSH2 0x1DDE PUSH2 0x3026 JUMP JUMPDEST PUSH1 0x20 MUL PUSH1 0x20 ADD ADD MLOAD PUSH2 0x2275 JUMP JUMPDEST DUP1 PUSH2 0x1DF5 DUP2 PUSH2 0x30D5 JUMP JUMPDEST SWAP2 POP POP PUSH2 0x1DA6 JUMP JUMPDEST POP PUSH2 0xA58 PUSH2 0x22DA JUMP JUMPDEST PUSH1 0x33 DUP1 SLOAD PUSH1 0x1 PUSH1 0x1 PUSH1 0xA0 SHL SUB DUP4 DUP2 AND PUSH1 0x1 PUSH1 0x1 PUSH1 0xA0 SHL SUB NOT DUP4 AND DUP2 OR SWAP1 SWAP4 SSTORE PUSH1 0x40 MLOAD SWAP2 AND SWAP2 SWAP1 DUP3 SWAP1 PUSH32 0x8BE0079C531659141344CD1FD0A4F28419497F9722A3DAAFE3B4186F6B6457E0 SWAP1 PUSH1 0x0 SWAP1 LOG3 POP POP JUMP JUMPDEST SELFBALANCE PUSH1 0x0 SUB PUSH2 0x1E79 JUMPI PUSH1 0x40 MLOAD PUSH4 0x334AB3F5 PUSH1 0xE1 SHL DUP2 MSTORE PUSH1 0x4 ADD PUSH1 0x40 MLOAD DUP1 SWAP2 SUB SWAP1 REVERT JUMPDEST PUSH1 0x0 JUMPDEST PUSH1 0xC9 SLOAD DUP2 LT ISZERO PUSH2 0xDDB JUMPI PUSH1 0x0 PUSH2 0x1E91 DUP3 PUSH2 0x118D JUMP JUMPDEST SWAP1 POP PUSH1 0x0 PUSH1 0xCB SLOAD SELFBALANCE PUSH2 0x1EA3 SWAP2 SWAP1 PUSH2 0x2F84 JUMP JUMPDEST PUSH1 0x1 PUSH1 0x1 PUSH1 0xA0 SHL SUB DUP4 AND PUSH1 0x0 SWAP1 DUP2 MSTORE PUSH1 0xCD PUSH1 0x20 SWAP1 DUP2 MSTORE PUSH1 0x40 DUP1 DUP4 KECCAK256 SLOAD PUSH1 0xCA SLOAD PUSH1 0xCC SWAP1 SWAP4 MSTORE SWAP1 DUP4 KECCAK256 SLOAD SWAP4 SWAP5 POP SWAP2 SWAP3 PUSH2 0x1EDA SWAP1 DUP6 PUSH2 0x2F65 JUMP JUMPDEST PUSH2 0x1EE4 SWAP2 SWAP1 PUSH2 0x2FDD JUMP JUMPDEST PUSH2 0x1EEE SWAP2 SWAP1 PUSH2 0x30EE JUMP JUMPDEST PUSH1 0x1 PUSH1 0x1 PUSH1 0xA0 SHL SUB DUP5 AND PUSH1 0x0 SWAP1 DUP2 MSTORE PUSH1 0xCD PUSH1 0x20 MSTORE PUSH1 0x40 SWAP1 KECCAK256 SLOAD SWAP1 SWAP2 POP PUSH2 0x1F15 SWAP1 DUP3 SWAP1 PUSH2 0x2F84 JUMP JUMPDEST PUSH1 0x1 PUSH1 0x1 PUSH1 0xA0 SHL SUB DUP5 AND PUSH1 0x0 SWAP1 DUP2 MSTORE PUSH1 0xCD PUSH1 0x20 MSTORE PUSH1 0x40 SWAP1 KECCAK256 SSTORE PUSH1 0xCB SLOAD PUSH2 0x1F3C SWAP1 DUP3 SWAP1 PUSH2 0x2F84 JUMP JUMPDEST PUSH1 0xCB SSTORE PUSH2 0x1F49 DUP4 DUP3 PUSH2 0x238F JUMP JUMPDEST PUSH1 0x40 DUP1 MLOAD PUSH1 0x1 PUSH1 0x1 PUSH1 0xA0 SHL SUB DUP6 AND DUP2 MSTORE PUSH1 0x20 DUP2 ADD DUP4 SWAP1 MSTORE PUSH32 0xDF20FD1E76BC69D672E4814FAFB2C449BBA3A5369D8359ADF9E05E6FDE87B056 SWAP2 ADD PUSH1 0x40 MLOAD DUP1 SWAP2 SUB SWAP1 LOG1 POP POP POP DUP1 DUP1 PUSH2 0x1F99 SWAP1 PUSH2 0x30D5 JUMP JUMPDEST SWAP2 POP POP PUSH2 0x1E7C JUMP JUMPDEST PUSH1 0x40 MLOAD PUSH4 0xA85BD01 PUSH1 0xE1 SHL DUP2 MSTORE PUSH1 0x0 SWAP1 PUSH1 0x1 PUSH1 0x1 PUSH1 0xA0 SHL SUB DUP6 AND SWAP1 PUSH4 0x150B7A02 SWAP1 PUSH2 0x1FD6 SWAP1 CALLER SWAP1 DUP10 SWAP1 DUP9 SWAP1 DUP9 SWAP1 PUSH1 0x4 ADD PUSH2 0x3105 JUMP JUMPDEST PUSH1 0x20 PUSH1 0x40 MLOAD DUP1 DUP4 SUB DUP2 PUSH1 0x0 DUP8 GAS CALL SWAP3 POP POP POP DUP1 ISZERO PUSH2 0x2011 JUMPI POP PUSH1 0x40 DUP1 MLOAD PUSH1 0x1F RETURNDATASIZE SWAP1 DUP2 ADD PUSH1 0x1F NOT AND DUP3 ADD SWAP1 SWAP3 MSTORE PUSH2 0x200E SWAP2 DUP2 ADD SWAP1 PUSH2 0x3142 JUMP JUMPDEST PUSH1 0x1 JUMPDEST PUSH2 0x206F JUMPI RETURNDATASIZE DUP1 DUP1 ISZERO PUSH2 0x203F JUMPI PUSH1 0x40 MLOAD SWAP2 POP PUSH1 0x1F NOT PUSH1 0x3F RETURNDATASIZE ADD AND DUP3 ADD PUSH1 0x40 MSTORE RETURNDATASIZE DUP3 MSTORE RETURNDATASIZE PUSH1 0x0 PUSH1 0x20 DUP5 ADD RETURNDATACOPY PUSH2 0x2044 JUMP JUMPDEST PUSH1 0x60 SWAP2 POP JUMPDEST POP DUP1 MLOAD PUSH1 0x0 SUB PUSH2 0x2067 JUMPI PUSH1 0x40 MLOAD PUSH4 0x68D2BF6B PUSH1 0xE1 SHL DUP2 MSTORE PUSH1 0x4 ADD PUSH1 0x40 MLOAD DUP1 SWAP2 SUB SWAP1 REVERT JUMPDEST DUP1 MLOAD DUP2 PUSH1 0x20 ADD REVERT JUMPDEST PUSH1 0x1 PUSH1 0x1 PUSH1 0xE0 SHL SUB NOT AND PUSH4 0xA85BD01 PUSH1 0xE1 SHL EQ SWAP1 POP JUMPDEST SWAP5 SWAP4 POP POP POP POP JUMP JUMPDEST PUSH1 0x60 PUSH1 0xFC DUP1 SLOAD PUSH2 0x909 SWAP1 PUSH2 0x2F15 JUMP JUMPDEST PUSH1 0x60 DUP2 PUSH1 0x0 SUB PUSH2 0x20C3 JUMPI POP POP PUSH1 0x40 DUP1 MLOAD DUP1 DUP3 ADD SWAP1 SWAP2 MSTORE PUSH1 0x1 DUP2 MSTORE PUSH1 0x3 PUSH1 0xFC SHL PUSH1 0x20 DUP3 ADD MSTORE SWAP1 JUMP JUMPDEST DUP2 PUSH1 0x0 JUMPDEST DUP2 ISZERO PUSH2 0x20ED JUMPI DUP1 PUSH2 0x20D7 DUP2 PUSH2 0x30D5 JUMP JUMPDEST SWAP2 POP PUSH2 0x20E6 SWAP1 POP PUSH1 0xA DUP4 PUSH2 0x2FDD JUMP JUMPDEST SWAP2 POP PUSH2 0x20C7 JUMP JUMPDEST PUSH1 0x0 DUP2 PUSH1 0x1 PUSH1 0x1 PUSH1 0x40 SHL SUB DUP2 GT ISZERO PUSH2 0x2107 JUMPI PUSH2 0x2107 PUSH2 0x2AAD JUMP JUMPDEST PUSH1 0x40 MLOAD SWAP1 DUP1 DUP3 MSTORE DUP1 PUSH1 0x1F ADD PUSH1 0x1F NOT AND PUSH1 0x20 ADD DUP3 ADD PUSH1 0x40 MSTORE DUP1 ISZERO PUSH2 0x2131 JUMPI PUSH1 0x20 DUP3 ADD DUP2 DUP1 CALLDATASIZE DUP4 CALLDATACOPY ADD SWAP1 POP JUMPDEST POP SWAP1 POP JUMPDEST DUP5 ISZERO PUSH2 0x2085 JUMPI PUSH2 0x2146 PUSH1 0x1 DUP4 PUSH2 0x30EE JUMP JUMPDEST SWAP2 POP PUSH2 0x2153 PUSH1 0xA DUP7 PUSH2 0x315F JUMP JUMPDEST PUSH2 0x215E SWAP1 PUSH1 0x30 PUSH2 0x2F84 JUMP JUMPDEST PUSH1 0xF8 SHL DUP2 DUP4 DUP2 MLOAD DUP2 LT PUSH2 0x2173 JUMPI PUSH2 0x2173 PUSH2 0x3026 JUMP JUMPDEST PUSH1 0x20 ADD ADD SWAP1 PUSH1 0x1 PUSH1 0x1 PUSH1 0xF8 SHL SUB NOT AND SWAP1 DUP2 PUSH1 0x0 BYTE SWAP1 MSTORE8 POP PUSH2 0x2195 PUSH1 0xA DUP7 PUSH2 0x2FDD JUMP JUMPDEST SWAP5 POP PUSH2 0x2135 JUMP JUMPDEST PUSH1 0x0 DUP2 DUP2 JUMPDEST DUP5 MLOAD DUP2 LT ISZERO PUSH2 0x2208 JUMPI PUSH1 0x0 DUP6 DUP3 DUP2 MLOAD DUP2 LT PUSH2 0x21BE JUMPI PUSH2 0x21BE PUSH2 0x3026 JUMP JUMPDEST PUSH1 0x20 MUL PUSH1 0x20 ADD ADD MLOAD SWAP1 POP DUP1 DUP4 GT PUSH2 0x21E4 JUMPI PUSH1 0x0 DUP4 DUP2 MSTORE PUSH1 0x20 DUP3 SWAP1 MSTORE PUSH1 0x40 SWAP1 KECCAK256 SWAP3 POP PUSH2 0x21F5 JUMP JUMPDEST PUSH1 0x0 DUP2 DUP2 MSTORE PUSH1 0x20 DUP5 SWAP1 MSTORE PUSH1 0x40 SWAP1 KECCAK256 SWAP3 POP JUMPDEST POP DUP1 PUSH2 0x2200 DUP2 PUSH2 0x30D5 JUMP JUMPDEST SWAP2 POP POP PUSH2 0x21A1 JUMP JUMPDEST POP SWAP4 SWAP3 POP POP POP JUMP JUMPDEST PUSH2 0xA58 DUP4 DUP4 DUP4 PUSH1 0x1 PUSH2 0x24A8 JUMP JUMPDEST PUSH1 0x0 SLOAD PUSH2 0x100 SWAP1 DIV PUSH1 0xFF AND PUSH2 0x2244 JUMPI PUSH1 0x40 MLOAD PUSH3 0x461BCD PUSH1 0xE5 SHL DUP2 MSTORE PUSH1 0x4 ADD PUSH2 0xE23 SWAP1 PUSH2 0x308A JUMP JUMPDEST DUP2 MLOAD PUSH2 0x2257 SWAP1 PUSH1 0x99 SWAP1 PUSH1 0x20 DUP6 ADD SWAP1 PUSH2 0x27AB JUMP JUMPDEST POP DUP1 MLOAD PUSH2 0x226B SWAP1 PUSH1 0x9A SWAP1 PUSH1 0x20 DUP5 ADD SWAP1 PUSH2 0x27AB JUMP JUMPDEST POP PUSH1 0x1 PUSH1 0x97 SSTORE POP POP JUMP JUMPDEST PUSH2 0x102 SLOAD PUSH1 0x1 PUSH1 0x50 SHL SWAP1 DIV PUSH1 0xFF AND ISZERO PUSH2 0x22D0 JUMPI PUSH1 0x40 MLOAD PUSH3 0x461BCD PUSH1 0xE5 SHL DUP2 MSTORE PUSH1 0x20 PUSH1 0x4 DUP3 ADD MSTORE PUSH1 0x1A PUSH1 0x24 DUP3 ADD MSTORE PUSH32 0x43616E206E6F74207365742C20706179656573206C6F636B6564000000000000 PUSH1 0x44 DUP3 ADD MSTORE PUSH1 0x64 ADD PUSH2 0xE23 JUMP JUMPDEST PUSH2 0xEE1 DUP3 DUP3 PUSH2 0x2674 JUMP JUMPDEST PUSH2 0x102 SLOAD PUSH1 0x1 PUSH1 0x50 SHL SWAP1 DIV PUSH1 0xFF AND ISZERO PUSH2 0x2335 JUMPI PUSH1 0x40 MLOAD PUSH3 0x461BCD PUSH1 0xE5 SHL DUP2 MSTORE PUSH1 0x20 PUSH1 0x4 DUP3 ADD MSTORE PUSH1 0x1A PUSH1 0x24 DUP3 ADD MSTORE PUSH32 0x43616E206E6F74207365742C20706179656573206C6F636B6564000000000000 PUSH1 0x44 DUP3 ADD MSTORE PUSH1 0x64 ADD PUSH2 0xE23 JUMP JUMPDEST PUSH2 0x102 DUP1 SLOAD PUSH1 0xFF PUSH1 0x50 SHL NOT AND PUSH1 0x1 PUSH1 0x50 SHL SWAP1 DUP2 OR SWAP2 DUP3 SWAP1 SSTORE PUSH1 0x40 MLOAD PUSH32 0x7FE2F03BD4FA149B9D8918FB57A6E2A3B1FBBB29A4D4536DF7E6CD9EDF02ED8 SWAP3 PUSH2 0x2385 SWAP3 SWAP1 DIV PUSH1 0xFF AND ISZERO ISZERO DUP2 MSTORE PUSH1 0x20 ADD SWAP1 JUMP JUMPDEST PUSH1 0x40 MLOAD DUP1 SWAP2 SUB SWAP1 LOG1 JUMP JUMPDEST DUP1 SELFBALANCE LT ISZERO PUSH2 0x23DF JUMPI PUSH1 0x40 MLOAD PUSH3 0x461BCD PUSH1 0xE5 SHL DUP2 MSTORE PUSH1 0x20 PUSH1 0x4 DUP3 ADD MSTORE PUSH1 0x1D PUSH1 0x24 DUP3 ADD MSTORE PUSH32 0x416464726573733A20696E73756666696369656E742062616C616E6365000000 PUSH1 0x44 DUP3 ADD MSTORE PUSH1 0x64 ADD PUSH2 0xE23 JUMP JUMPDEST PUSH1 0x0 DUP3 PUSH1 0x1 PUSH1 0x1 PUSH1 0xA0 SHL SUB AND DUP3 PUSH1 0x40 MLOAD PUSH1 0x0 PUSH1 0x40 MLOAD DUP1 DUP4 SUB DUP2 DUP6 DUP8 GAS CALL SWAP3 POP POP POP RETURNDATASIZE DUP1 PUSH1 0x0 DUP2 EQ PUSH2 0x242C JUMPI PUSH1 0x40 MLOAD SWAP2 POP PUSH1 0x1F NOT PUSH1 0x3F RETURNDATASIZE ADD AND DUP3 ADD PUSH1 0x40 MSTORE RETURNDATASIZE DUP3 MSTORE RETURNDATASIZE PUSH1 0x0 PUSH1 0x20 DUP5 ADD RETURNDATACOPY PUSH2 0x2431 JUMP JUMPDEST PUSH1 0x60 SWAP2 POP JUMPDEST POP POP SWAP1 POP DUP1 PUSH2 0xA58 JUMPI PUSH1 0x40 MLOAD PUSH3 0x461BCD PUSH1 0xE5 SHL DUP2 MSTORE PUSH1 0x20 PUSH1 0x4 DUP3 ADD MSTORE PUSH1 0x3A PUSH1 0x24 DUP3 ADD MSTORE PUSH32 0x416464726573733A20756E61626C6520746F2073656E642076616C75652C2072 PUSH1 0x44 DUP3 ADD MSTORE PUSH32 0x6563697069656E74206D61792068617665207265766572746564000000000000 PUSH1 0x64 DUP3 ADD MSTORE PUSH1 0x84 ADD PUSH2 0xE23 JUMP JUMPDEST PUSH1 0x97 SLOAD PUSH1 0x1 PUSH1 0x1 PUSH1 0xA0 SHL SUB DUP6 AND PUSH2 0x24D1 JUMPI PUSH1 0x40 MLOAD PUSH3 0x2E0763 PUSH1 0xE8 SHL DUP2 MSTORE PUSH1 0x4 ADD PUSH1 0x40 MLOAD DUP1 SWAP2 SUB SWAP1 REVERT JUMPDEST DUP4 PUSH1 0x0 SUB PUSH2 0x24F2 JUMPI PUSH1 0x40 MLOAD PUSH4 0xB562E8DD PUSH1 0xE0 SHL DUP2 MSTORE PUSH1 0x4 ADD PUSH1 0x40 MLOAD DUP1 SWAP2 SUB SWAP1 REVERT JUMPDEST PUSH1 0x1 PUSH1 0x1 PUSH1 0xA0 SHL SUB DUP6 AND PUSH1 0x0 DUP2 DUP2 MSTORE PUSH1 0x9C PUSH1 0x20 SWAP1 DUP2 MSTORE PUSH1 0x40 DUP1 DUP4 KECCAK256 DUP1 SLOAD PUSH16 0xFFFFFFFFFFFFFFFFFFFFFFFFFFFFFFFF NOT DUP2 AND PUSH1 0x1 PUSH1 0x1 PUSH1 0x40 SHL SUB DUP1 DUP4 AND DUP13 ADD DUP2 AND SWAP2 DUP3 OR PUSH1 0x1 PUSH1 0x40 SHL PUSH8 0xFFFFFFFFFFFFFFFF NOT SWAP1 SWAP5 AND SWAP1 SWAP3 OR DUP4 SWAP1 DIV DUP2 AND DUP13 ADD DUP2 AND SWAP1 SWAP3 MUL OR SWAP1 SWAP2 SSTORE DUP6 DUP5 MSTORE PUSH1 0x9B SWAP1 SWAP3 MSTORE SWAP1 SWAP2 KECCAK256 DUP1 SLOAD PUSH1 0x1 PUSH1 0x1 PUSH1 0xE0 SHL SUB NOT AND SWAP1 SWAP3 OR PUSH1 0x1 PUSH1 0xA0 SHL TIMESTAMP SWAP1 SWAP3 AND SWAP2 SWAP1 SWAP2 MUL OR SWAP1 SSTORE DUP1 DUP1 DUP6 ADD DUP4 DUP1 ISZERO PUSH2 0x259E JUMPI POP PUSH1 0x1 PUSH1 0x1 PUSH1 0xA0 SHL SUB DUP8 AND EXTCODESIZE ISZERO ISZERO JUMPDEST ISZERO PUSH2 0x2626 JUMPI JUMPDEST PUSH1 0x40 MLOAD DUP3 SWAP1 PUSH1 0x1 PUSH1 0x1 PUSH1 0xA0 SHL SUB DUP10 AND SWAP1 PUSH1 0x0 SWAP1 PUSH32 0xDDF252AD1BE2C89B69C2B068FC378DAA952BA7F163C4A11628F55A4DF523B3EF SWAP1 DUP3 SWAP1 LOG4 PUSH2 0x25EF PUSH1 0x0 DUP9 DUP5 DUP1 PUSH1 0x1 ADD SWAP6 POP DUP9 PUSH2 0x1FA1 JUMP JUMPDEST PUSH2 0x260C JUMPI PUSH1 0x40 MLOAD PUSH4 0x68D2BF6B PUSH1 0xE1 SHL DUP2 MSTORE PUSH1 0x4 ADD PUSH1 0x40 MLOAD DUP1 SWAP2 SUB SWAP1 REVERT JUMPDEST DUP1 DUP3 SUB PUSH2 0x25A4 JUMPI DUP3 PUSH1 0x97 SLOAD EQ PUSH2 0x2621 JUMPI PUSH1 0x0 DUP1 REVERT JUMPDEST PUSH2 0x266B JUMP JUMPDEST JUMPDEST PUSH1 0x40 MLOAD PUSH1 0x1 DUP4 ADD SWAP3 SWAP1 PUSH1 0x1 PUSH1 0x1 PUSH1 0xA0 SHL SUB DUP10 AND SWAP1 PUSH1 0x0 SWAP1 PUSH32 0xDDF252AD1BE2C89B69C2B068FC378DAA952BA7F163C4A11628F55A4DF523B3EF SWAP1 DUP3 SWAP1 LOG4 DUP1 DUP3 SUB PUSH2 0x2627 JUMPI JUMPDEST POP PUSH1 0x97 SSTORE PUSH2 0x1BF4 JUMP JUMPDEST PUSH1 0x1 PUSH1 0x1 PUSH1 0xA0 SHL SUB DUP3 AND PUSH2 0x269B JUMPI PUSH1 0x40 MLOAD PUSH4 0xAB387169 PUSH1 0xE0 SHL DUP2 MSTORE PUSH1 0x4 ADD PUSH1 0x40 MLOAD DUP1 SWAP2 SUB SWAP1 REVERT JUMPDEST PUSH1 0x0 DUP2 GT PUSH2 0x26BC JUMPI PUSH1 0x40 MLOAD PUSH4 0x6EDCC523 PUSH1 0xE0 SHL DUP2 MSTORE PUSH1 0x4 ADD PUSH1 0x40 MLOAD DUP1 SWAP2 SUB SWAP1 REVERT JUMPDEST PUSH1 0x1 PUSH1 0x1 PUSH1 0xA0 SHL SUB DUP3 AND PUSH1 0x0 SWAP1 DUP2 MSTORE PUSH1 0xCC PUSH1 0x20 MSTORE PUSH1 0x40 SWAP1 KECCAK256 SLOAD ISZERO PUSH2 0x26F3 JUMPI PUSH1 0x40 MLOAD PUSH4 0xB3F5CFA5 PUSH1 0xE0 SHL DUP2 MSTORE PUSH1 0x4 ADD PUSH1 0x40 MLOAD DUP1 SWAP2 SUB SWAP1 REVERT JUMPDEST PUSH2 0x2701 PUSH1 0xC9 DUP1 SLOAD PUSH1 0x1 ADD SWAP1 SSTORE JUMP JUMPDEST PUSH1 0xCE DUP1 SLOAD PUSH1 0x1 DUP2 ADD SWAP1 SWAP2 SSTORE PUSH32 0xD36CD1C74EF8D7326D8021B776C18FB5A5724B7F7BC93C2F42E43E10EF27D12A ADD DUP1 SLOAD PUSH1 0x1 PUSH1 0x1 PUSH1 0xA0 SHL SUB NOT AND PUSH1 0x1 PUSH1 0x1 PUSH1 0xA0 SHL SUB DUP5 AND SWAP1 DUP2 OR SWAP1 SWAP2 SSTORE PUSH1 0x0 SWAP1 DUP2 MSTORE PUSH1 0xCC PUSH1 0x20 MSTORE PUSH1 0x40 SWAP1 KECCAK256 DUP2 SWAP1 SSTORE PUSH1 0xCA SLOAD PUSH2 0x2769 SWAP1 DUP3 SWAP1 PUSH2 0x2F84 JUMP JUMPDEST PUSH1 0xCA SSTORE PUSH1 0x40 DUP1 MLOAD PUSH1 0x1 PUSH1 0x1 PUSH1 0xA0 SHL SUB DUP5 AND DUP2 MSTORE PUSH1 0x20 DUP2 ADD DUP4 SWAP1 MSTORE PUSH32 0x40C340F65E17194D14DDDDB073D3C9F888E3CB52B5AAE0C6C7706B4FBC905FAC SWAP2 ADD PUSH2 0xE98 JUMP JUMPDEST DUP3 DUP1 SLOAD PUSH2 0x27B7 SWAP1 PUSH2 0x2F15 JUMP JUMPDEST SWAP1 PUSH1 0x0 MSTORE PUSH1 0x20 PUSH1 0x0 KECCAK256 SWAP1 PUSH1 0x1F ADD PUSH1 0x20 SWAP1 DIV DUP2 ADD SWAP3 DUP3 PUSH2 0x27D9 JUMPI PUSH1 0x0 DUP6 SSTORE PUSH2 0x281F JUMP JUMPDEST DUP3 PUSH1 0x1F LT PUSH2 0x27F2 JUMPI DUP1 MLOAD PUSH1 0xFF NOT AND DUP4 DUP1 ADD OR DUP6 SSTORE PUSH2 0x281F JUMP JUMPDEST DUP3 DUP1 ADD PUSH1 0x1 ADD DUP6 SSTORE DUP3 ISZERO PUSH2 0x281F JUMPI SWAP2 DUP3 ADD JUMPDEST DUP3 DUP2 GT ISZERO PUSH2 0x281F JUMPI DUP3 MLOAD DUP3 SSTORE SWAP2 PUSH1 0x20 ADD SWAP2 SWAP1 PUSH1 0x1 ADD SWAP1 PUSH2 0x2804 JUMP JUMPDEST POP PUSH2 0x282B SWAP3 SWAP2 POP PUSH2 0x28A3 JUMP JUMPDEST POP SWAP1 JUMP JUMPDEST DUP3 DUP1 SLOAD PUSH2 0x283B SWAP1 PUSH2 0x2F15 JUMP JUMPDEST SWAP1 PUSH1 0x0 MSTORE PUSH1 0x20 PUSH1 0x0 KECCAK256 SWAP1 PUSH1 0x1F ADD PUSH1 0x20 SWAP1 DIV DUP2 ADD SWAP3 DUP3 PUSH2 0x285D JUMPI PUSH1 0x0 DUP6 SSTORE PUSH2 0x281F JUMP JUMPDEST DUP3 PUSH1 0x1F LT PUSH2 0x2876 JUMPI DUP3 DUP1 ADD PUSH1 0xFF NOT DUP3 CALLDATALOAD AND OR DUP6 SSTORE PUSH2 0x281F JUMP JUMPDEST DUP3 DUP1 ADD PUSH1 0x1 ADD DUP6 SSTORE DUP3 ISZERO PUSH2 0x281F JUMPI SWAP2 DUP3 ADD JUMPDEST DUP3 DUP2 GT ISZERO PUSH2 0x281F JUMPI DUP3 CALLDATALOAD DUP3 SSTORE SWAP2 PUSH1 0x20 ADD SWAP2 SWAP1 PUSH1 0x1 ADD SWAP1 PUSH2 0x2888 JUMP JUMPDEST JUMPDEST DUP1 DUP3 GT ISZERO PUSH2 0x282B JUMPI PUSH1 0x0 DUP2 SSTORE PUSH1 0x1 ADD PUSH2 0x28A4 JUMP JUMPDEST PUSH1 0x1 PUSH1 0x1 PUSH1 0xE0 SHL SUB NOT DUP2 AND DUP2 EQ PUSH2 0xDDB JUMPI PUSH1 0x0 DUP1 REVERT JUMPDEST PUSH1 0x0 PUSH1 0x20 DUP3 DUP5 SUB SLT ISZERO PUSH2 0x28E0 JUMPI PUSH1 0x0 DUP1 REVERT JUMPDEST DUP2 CALLDATALOAD PUSH2 0x1545 DUP2 PUSH2 0x28B8 JUMP JUMPDEST PUSH1 0x0 JUMPDEST DUP4 DUP2 LT ISZERO PUSH2 0x2906 JUMPI DUP2 DUP2 ADD MLOAD DUP4 DUP3 ADD MSTORE PUSH1 0x20 ADD PUSH2 0x28EE JUMP JUMPDEST DUP4 DUP2 GT ISZERO PUSH2 0xCA3 JUMPI POP POP PUSH1 0x0 SWAP2 ADD MSTORE JUMP JUMPDEST PUSH1 0x0 DUP2 MLOAD DUP1 DUP5 MSTORE PUSH2 0x292F DUP2 PUSH1 0x20 DUP7 ADD PUSH1 0x20 DUP7 ADD PUSH2 0x28EB JUMP JUMPDEST PUSH1 0x1F ADD PUSH1 0x1F NOT AND SWAP3 SWAP1 SWAP3 ADD PUSH1 0x20 ADD SWAP3 SWAP2 POP POP JUMP JUMPDEST PUSH1 0x20 DUP2 MSTORE PUSH1 0x0 PUSH2 0x1545 PUSH1 0x20 DUP4 ADD DUP5 PUSH2 0x2917 JUMP JUMPDEST PUSH1 0x0 PUSH1 0x20 DUP3 DUP5 SUB SLT ISZERO PUSH2 0x2968 JUMPI PUSH1 0x0 DUP1 REVERT JUMPDEST POP CALLDATALOAD SWAP2 SWAP1 POP JUMP JUMPDEST DUP1 CALLDATALOAD PUSH1 0x1 PUSH1 0x1 PUSH1 0xA0 SHL SUB DUP2 AND DUP2 EQ PUSH2 0x2986 JUMPI PUSH1 0x0 DUP1 REVERT JUMPDEST SWAP2 SWAP1 POP JUMP JUMPDEST PUSH1 0x0 DUP1 PUSH1 0x40 DUP4 DUP6 SUB SLT ISZERO PUSH2 0x299E JUMPI PUSH1 0x0 DUP1 REVERT JUMPDEST PUSH2 0x29A7 DUP4 PUSH2 0x296F JUMP JUMPDEST SWAP5 PUSH1 0x20 SWAP4 SWAP1 SWAP4 ADD CALLDATALOAD SWAP4 POP POP POP JUMP JUMPDEST DUP1 CALLDATALOAD PUSH1 0x1 PUSH1 0x1 PUSH1 0x40 SHL SUB DUP2 AND DUP2 EQ PUSH2 0x2986 JUMPI PUSH1 0x0 DUP1 REVERT JUMPDEST PUSH1 0x0 DUP1 PUSH1 0x0 PUSH1 0x40 DUP5 DUP7 SUB SLT ISZERO PUSH2 0x29E1 JUMPI PUSH1 0x0 DUP1 REVERT JUMPDEST DUP4 CALLDATALOAD PUSH1 0x1 PUSH1 0x1 PUSH1 0x40 SHL SUB DUP1 DUP3 GT ISZERO PUSH2 0x29F8 JUMPI PUSH1 0x0 DUP1 REVERT JUMPDEST DUP2 DUP7 ADD SWAP2 POP DUP7 PUSH1 0x1F DUP4 ADD SLT PUSH2 0x2A0C JUMPI PUSH1 0x0 DUP1 REVERT JUMPDEST DUP2 CALLDATALOAD DUP2 DUP2 GT ISZERO PUSH2 0x2A1B JUMPI PUSH1 0x0 DUP1 REVERT JUMPDEST DUP8 PUSH1 0x20 DUP3 PUSH1 0x5 SHL DUP6 ADD ADD GT ISZERO PUSH2 0x2A30 JUMPI PUSH1 0x0 DUP1 REVERT JUMPDEST PUSH1 0x20 SWAP3 DUP4 ADD SWAP6 POP SWAP4 POP PUSH2 0x2A46 SWAP2 DUP7 ADD SWAP1 POP PUSH2 0x29B5 JUMP JUMPDEST SWAP1 POP SWAP3 POP SWAP3 POP SWAP3 JUMP JUMPDEST PUSH1 0x0 DUP1 PUSH1 0x0 PUSH1 0x60 DUP5 DUP7 SUB SLT ISZERO PUSH2 0x2A64 JUMPI PUSH1 0x0 DUP1 REVERT JUMPDEST PUSH2 0x2A6D DUP5 PUSH2 0x296F JUMP JUMPDEST SWAP3 POP PUSH2 0x2A7B PUSH1 0x20 DUP6 ADD PUSH2 0x296F JUMP JUMPDEST SWAP2 POP PUSH1 0x40 DUP5 ADD CALLDATALOAD SWAP1 POP SWAP3 POP SWAP3 POP SWAP3 JUMP JUMPDEST PUSH1 0x0 DUP1 PUSH1 0x40 DUP4 DUP6 SUB SLT ISZERO PUSH2 0x2A9E JUMPI PUSH1 0x0 DUP1 REVERT JUMPDEST POP POP DUP1 CALLDATALOAD SWAP3 PUSH1 0x20 SWAP1 SWAP2 ADD CALLDATALOAD SWAP2 POP JUMP JUMPDEST PUSH4 0x4E487B71 PUSH1 0xE0 SHL PUSH1 0x0 MSTORE PUSH1 0x41 PUSH1 0x4 MSTORE PUSH1 0x24 PUSH1 0x0 REVERT JUMPDEST PUSH1 0x40 MLOAD PUSH1 0x1F DUP3 ADD PUSH1 0x1F NOT AND DUP2 ADD PUSH1 0x1 PUSH1 0x1 PUSH1 0x40 SHL SUB DUP2 GT DUP3 DUP3 LT OR ISZERO PUSH2 0x2AEB JUMPI PUSH2 0x2AEB PUSH2 0x2AAD JUMP JUMPDEST PUSH1 0x40 MSTORE SWAP2 SWAP1 POP JUMP JUMPDEST PUSH1 0x0 PUSH1 0x1 PUSH1 0x1 PUSH1 0x40 SHL SUB DUP4 GT ISZERO PUSH2 0x2B0C JUMPI PUSH2 0x2B0C PUSH2 0x2AAD JUMP JUMPDEST PUSH2 0x2B1F PUSH1 0x1F DUP5 ADD PUSH1 0x1F NOT AND PUSH1 0x20 ADD PUSH2 0x2AC3 JUMP JUMPDEST SWAP1 POP DUP3 DUP2 MSTORE DUP4 DUP4 DUP4 ADD GT ISZERO PUSH2 0x2B33 JUMPI PUSH1 0x0 DUP1 REVERT JUMPDEST DUP3 DUP3 PUSH1 0x20 DUP4 ADD CALLDATACOPY PUSH1 0x0 PUSH1 0x20 DUP5 DUP4 ADD ADD MSTORE SWAP4 SWAP3 POP POP POP JUMP JUMPDEST PUSH1 0x0 DUP3 PUSH1 0x1F DUP4 ADD SLT PUSH2 0x2B5B JUMPI PUSH1 0x0 DUP1 REVERT JUMPDEST PUSH2 0x1545 DUP4 DUP4 CALLDATALOAD PUSH1 0x20 DUP6 ADD PUSH2 0x2AF3 JUMP JUMPDEST PUSH1 0x0 PUSH1 0x20 DUP3 DUP5 SUB SLT ISZERO PUSH2 0x2B7C JUMPI PUSH1 0x0 DUP1 REVERT JUMPDEST DUP2 CALLDATALOAD PUSH1 0x1 PUSH1 0x1 PUSH1 0x40 SHL SUB DUP2 GT ISZERO PUSH2 0x2B92 JUMPI PUSH1 0x0 DUP1 REVERT JUMPDEST PUSH2 0x2085 DUP5 DUP3 DUP6 ADD PUSH2 0x2B4A JUMP JUMPDEST PUSH1 0x0 PUSH1 0x1 PUSH1 0x1 PUSH1 0x40 SHL SUB DUP3 GT ISZERO PUSH2 0x2BB7 JUMPI PUSH2 0x2BB7 PUSH2 0x2AAD JUMP JUMPDEST POP PUSH1 0x5 SHL PUSH1 0x20 ADD SWAP1 JUMP JUMPDEST PUSH1 0x0 DUP3 PUSH1 0x1F DUP4 ADD SLT PUSH2 0x2BD2 JUMPI PUSH1 0x0 DUP1 REVERT JUMPDEST DUP2 CALLDATALOAD PUSH1 0x20 PUSH2 0x2BE7 PUSH2 0x2BE2 DUP4 PUSH2 0x2B9E JUMP JUMPDEST PUSH2 0x2AC3 JUMP JUMPDEST DUP3 DUP2 MSTORE PUSH1 0x5 SWAP3 SWAP1 SWAP3 SHL DUP5 ADD DUP2 ADD SWAP2 DUP2 DUP2 ADD SWAP1 DUP7 DUP5 GT ISZERO PUSH2 0x2C06 JUMPI PUSH1 0x0 DUP1 REVERT JUMPDEST DUP3 DUP7 ADD JUMPDEST DUP5 DUP2 LT ISZERO PUSH2 0x2C28 JUMPI PUSH2 0x2C1B DUP2 PUSH2 0x296F JUMP JUMPDEST DUP4 MSTORE SWAP2 DUP4 ADD SWAP2 DUP4 ADD PUSH2 0x2C0A JUMP JUMPDEST POP SWAP7 SWAP6 POP POP POP POP POP POP JUMP JUMPDEST PUSH1 0x0 DUP3 PUSH1 0x1F DUP4 ADD SLT PUSH2 0x2C44 JUMPI PUSH1 0x0 DUP1 REVERT JUMPDEST DUP2 CALLDATALOAD PUSH1 0x20 PUSH2 0x2C54 PUSH2 0x2BE2 DUP4 PUSH2 0x2B9E JUMP JUMPDEST DUP3 DUP2 MSTORE PUSH1 0x5 SWAP3 SWAP1 SWAP3 SHL DUP5 ADD DUP2 ADD SWAP2 DUP2 DUP2 ADD SWAP1 DUP7 DUP5 GT ISZERO PUSH2 0x2C73 JUMPI PUSH1 0x0 DUP1 REVERT JUMPDEST DUP3 DUP7 ADD JUMPDEST DUP5 DUP2 LT ISZERO PUSH2 0x2C28 JUMPI DUP1 CALLDATALOAD DUP4 MSTORE SWAP2 DUP4 ADD SWAP2 DUP4 ADD PUSH2 0x2C77 JUMP JUMPDEST PUSH1 0x0 DUP1 PUSH1 0x0 DUP1 PUSH1 0x0 DUP1 PUSH1 0x0 DUP1 PUSH1 0x0 PUSH2 0x120 DUP11 DUP13 SUB SLT ISZERO PUSH2 0x2CAD JUMPI PUSH1 0x0 DUP1 REVERT JUMPDEST DUP10 CALLDATALOAD PUSH1 0x1 PUSH1 0x1 PUSH1 0x40 SHL SUB DUP1 DUP3 GT ISZERO PUSH2 0x2CC4 JUMPI PUSH1 0x0 DUP1 REVERT JUMPDEST PUSH2 0x2CD0 DUP14 DUP4 DUP15 ADD PUSH2 0x2B4A JUMP JUMPDEST SWAP11 POP PUSH1 0x20 DUP13 ADD CALLDATALOAD SWAP2 POP DUP1 DUP3 GT ISZERO PUSH2 0x2CE6 JUMPI PUSH1 0x0 DUP1 REVERT JUMPDEST PUSH2 0x2CF2 DUP14 DUP4 DUP15 ADD PUSH2 0x2B4A JUMP JUMPDEST SWAP10 POP PUSH1 0x40 DUP13 ADD CALLDATALOAD SWAP2 POP DUP1 DUP3 GT ISZERO PUSH2 0x2D08 JUMPI PUSH1 0x0 DUP1 REVERT JUMPDEST PUSH2 0x2D14 DUP14 DUP4 DUP15 ADD PUSH2 0x2B4A JUMP JUMPDEST SWAP9 POP PUSH1 0x60 DUP13 ADD CALLDATALOAD SWAP8 POP PUSH1 0x80 DUP13 ADD CALLDATALOAD SWAP7 POP PUSH1 0xA0 DUP13 ADD CALLDATALOAD SWAP2 POP DUP1 DUP3 GT ISZERO PUSH2 0x2D38 JUMPI PUSH1 0x0 DUP1 REVERT JUMPDEST PUSH2 0x2D44 DUP14 DUP4 DUP15 ADD PUSH2 0x2BC1 JUMP JUMPDEST SWAP6 POP PUSH1 0xC0 DUP13 ADD CALLDATALOAD SWAP2 POP DUP1 DUP3 GT ISZERO PUSH2 0x2D5A JUMPI PUSH1 0x0 DUP1 REVERT JUMPDEST POP PUSH2 0x2D67 DUP13 DUP3 DUP14 ADD PUSH2 0x2C33 JUMP JUMPDEST SWAP4 POP POP PUSH1 0xE0 DUP11 ADD CALLDATALOAD SWAP2 POP PUSH2 0x2D7E PUSH2 0x100 DUP12 ADD PUSH2 0x296F JUMP JUMPDEST SWAP1 POP SWAP3 SWAP6 SWAP9 POP SWAP3 SWAP6 SWAP9 POP SWAP3 SWAP6 SWAP9 JUMP JUMPDEST PUSH1 0x0 PUSH1 0x20 DUP3 DUP5 SUB SLT ISZERO PUSH2 0x2D9F JUMPI PUSH1 0x0 DUP1 REVERT JUMPDEST PUSH2 0x1545 DUP3 PUSH2 0x296F JUMP JUMPDEST PUSH1 0x0 DUP1 PUSH1 0x20 DUP4 DUP6 SUB SLT ISZERO PUSH2 0x2DBB JUMPI PUSH1 0x0 DUP1 REVERT JUMPDEST DUP3 CALLDATALOAD PUSH1 0x1 PUSH1 0x1 PUSH1 0x40 SHL SUB DUP1 DUP3 GT ISZERO PUSH2 0x2DD2 JUMPI PUSH1 0x0 DUP1 REVERT JUMPDEST DUP2 DUP6 ADD SWAP2 POP DUP6 PUSH1 0x1F DUP4 ADD SLT PUSH2 0x2DE6 JUMPI PUSH1 0x0 DUP1 REVERT JUMPDEST DUP2 CALLDATALOAD DUP2 DUP2 GT ISZERO PUSH2 0x2DF5 JUMPI PUSH1 0x0 DUP1 REVERT JUMPDEST DUP7 PUSH1 0x20 DUP3 DUP6 ADD ADD GT ISZERO PUSH2 0x2E07 JUMPI PUSH1 0x0 DUP1 REVERT JUMPDEST PUSH1 0x20 SWAP3 SWAP1 SWAP3 ADD SWAP7 SWAP2 SWAP6 POP SWAP1 SWAP4 POP POP POP POP JUMP JUMPDEST PUSH1 0x0 PUSH1 0x20 DUP3 DUP5 SUB SLT ISZERO PUSH2 0x2E2B JUMPI PUSH1 0x0 DUP1 REVERT JUMPDEST PUSH2 0x1545 DUP3 PUSH2 0x29B5 JUMP JUMPDEST PUSH1 0x0 DUP1 PUSH1 0x40 DUP4 DUP6 SUB SLT ISZERO PUSH2 0x2E47 JUMPI PUSH1 0x0 DUP1 REVERT JUMPDEST PUSH2 0x2E50 DUP4 PUSH2 0x296F JUMP JUMPDEST SWAP2 POP PUSH1 0x20 DUP4 ADD CALLDATALOAD DUP1 ISZERO ISZERO DUP2 EQ PUSH2 0x2E65 JUMPI PUSH1 0x0 DUP1 REVERT JUMPDEST DUP1 SWAP2 POP POP SWAP3 POP SWAP3 SWAP1 POP JUMP JUMPDEST PUSH1 0x0 DUP1 PUSH1 0x0 DUP1 PUSH1 0x80 DUP6 DUP8 SUB SLT ISZERO PUSH2 0x2E86 JUMPI PUSH1 0x0 DUP1 REVERT JUMPDEST PUSH2 0x2E8F DUP6 PUSH2 0x296F JUMP JUMPDEST SWAP4 POP PUSH2 0x2E9D PUSH1 0x20 DUP7 ADD PUSH2 0x296F JUMP JUMPDEST SWAP3 POP PUSH1 0x40 DUP6 ADD CALLDATALOAD SWAP2 POP PUSH1 0x60 DUP6 ADD CALLDATALOAD PUSH1 0x1 PUSH1 0x1 PUSH1 0x40 SHL SUB DUP2 GT ISZERO PUSH2 0x2EBF JUMPI PUSH1 0x0 DUP1 REVERT JUMPDEST DUP6 ADD PUSH1 0x1F DUP2 ADD DUP8 SGT PUSH2 0x2ED0 JUMPI PUSH1 0x0 DUP1 REVERT JUMPDEST PUSH2 0x2EDF DUP8 DUP3 CALLDATALOAD PUSH1 0x20 DUP5 ADD PUSH2 0x2AF3 JUMP JUMPDEST SWAP2 POP POP SWAP3 SWAP6 SWAP2 SWAP5 POP SWAP3 POP JUMP JUMPDEST PUSH1 0x0 DUP1 PUSH1 0x40 DUP4 DUP6 SUB SLT ISZERO PUSH2 0x2EFE JUMPI PUSH1 0x0 DUP1 REVERT JUMPDEST PUSH2 0x2F07 DUP4 PUSH2 0x296F JUMP JUMPDEST SWAP2 POP PUSH2 0xCE1 PUSH1 0x20 DUP5 ADD PUSH2 0x296F JUMP JUMPDEST PUSH1 0x1 DUP2 DUP2 SHR SWAP1 DUP3 AND DUP1 PUSH2 0x2F29 JUMPI PUSH1 0x7F DUP3 AND SWAP2 POP JUMPDEST PUSH1 0x20 DUP3 LT DUP2 SUB PUSH2 0x2F49 JUMPI PUSH4 0x4E487B71 PUSH1 0xE0 SHL PUSH1 0x0 MSTORE PUSH1 0x22 PUSH1 0x4 MSTORE PUSH1 0x24 PUSH1 0x0 REVERT JUMPDEST POP SWAP2 SWAP1 POP JUMP JUMPDEST PUSH4 0x4E487B71 PUSH1 0xE0 SHL PUSH1 0x0 MSTORE PUSH1 0x11 PUSH1 0x4 MSTORE PUSH1 0x24 PUSH1 0x0 REVERT JUMPDEST PUSH1 0x0 DUP2 PUSH1 0x0 NOT DIV DUP4 GT DUP3 ISZERO ISZERO AND ISZERO PUSH2 0x2F7F JUMPI PUSH2 0x2F7F PUSH2 0x2F4F JUMP JUMPDEST POP MUL SWAP1 JUMP JUMPDEST PUSH1 0x0 DUP3 NOT DUP3 GT ISZERO PUSH2 0x2F97 JUMPI PUSH2 0x2F97 PUSH2 0x2F4F JUMP JUMPDEST POP ADD SWAP1 JUMP JUMPDEST PUSH1 0x0 PUSH1 0x1 PUSH1 0x1 PUSH1 0x40 SHL SUB DUP1 DUP4 AND DUP2 DUP6 AND DUP1 DUP4 SUB DUP3 GT ISZERO PUSH2 0x2FBE JUMPI PUSH2 0x2FBE PUSH2 0x2F4F JUMP JUMPDEST ADD SWAP5 SWAP4 POP POP POP POP JUMP JUMPDEST PUSH4 0x4E487B71 PUSH1 0xE0 SHL PUSH1 0x0 MSTORE PUSH1 0x12 PUSH1 0x4 MSTORE PUSH1 0x24 PUSH1 0x0 REVERT JUMPDEST PUSH1 0x0 DUP3 PUSH2 0x2FEC JUMPI PUSH2 0x2FEC PUSH2 0x2FC7 JUMP JUMPDEST POP DIV SWAP1 JUMP JUMPDEST PUSH1 0x20 DUP1 DUP3 MSTORE DUP2 DUP2 ADD MSTORE PUSH32 0x4F776E61626C653A2063616C6C6572206973206E6F7420746865206F776E6572 PUSH1 0x40 DUP3 ADD MSTORE PUSH1 0x60 ADD SWAP1 JUMP JUMPDEST PUSH4 0x4E487B71 PUSH1 0xE0 SHL PUSH1 0x0 MSTORE PUSH1 0x32 PUSH1 0x4 MSTORE PUSH1 0x24 PUSH1 0x0 REVERT JUMPDEST PUSH1 0x0 DUP4 MLOAD PUSH2 0x304E DUP2 DUP5 PUSH1 0x20 DUP9 ADD PUSH2 0x28EB JUMP JUMPDEST PUSH1 0x2F PUSH1 0xF8 SHL SWAP1 DUP4 ADD SWAP1 DUP2 MSTORE DUP4 MLOAD PUSH2 0x306C DUP2 PUSH1 0x1 DUP5 ADD PUSH1 0x20 DUP9 ADD PUSH2 0x28EB JUMP JUMPDEST PUSH5 0x173539B7B7 PUSH1 0xD9 SHL PUSH1 0x1 SWAP3 SWAP1 SWAP2 ADD SWAP2 DUP3 ADD MSTORE PUSH1 0x6 ADD SWAP5 SWAP4 POP POP POP POP JUMP JUMPDEST PUSH1 0x20 DUP1 DUP3 MSTORE PUSH1 0x2B SWAP1 DUP3 ADD MSTORE PUSH32 0x496E697469616C697A61626C653A20636F6E7472616374206973206E6F742069 PUSH1 0x40 DUP3 ADD MSTORE PUSH11 0x6E697469616C697A696E67 PUSH1 0xA8 SHL PUSH1 0x60 DUP3 ADD MSTORE PUSH1 0x80 ADD SWAP1 JUMP JUMPDEST PUSH1 0x0 PUSH1 0x1 DUP3 ADD PUSH2 0x30E7 JUMPI PUSH2 0x30E7 PUSH2 0x2F4F JUMP JUMPDEST POP PUSH1 0x1 ADD SWAP1 JUMP JUMPDEST PUSH1 0x0 DUP3 DUP3 LT ISZERO PUSH2 0x3100 JUMPI PUSH2 0x3100 PUSH2 0x2F4F JUMP JUMPDEST POP SUB SWAP1 JUMP JUMPDEST PUSH1 0x1 PUSH1 0x1 PUSH1 0xA0 SHL SUB DUP6 DUP2 AND DUP3 MSTORE DUP5 AND PUSH1 0x20 DUP3 ADD MSTORE PUSH1 0x40 DUP2 ADD DUP4 SWAP1 MSTORE PUSH1 0x80 PUSH1 0x60 DUP3 ADD DUP2 SWAP1 MSTORE PUSH1 0x0 SWAP1 PUSH2 0x3138 SWAP1 DUP4 ADD DUP5 PUSH2 0x2917 JUMP JUMPDEST SWAP7 SWAP6 POP POP POP POP POP POP JUMP JUMPDEST PUSH1 0x0 PUSH1 0x20 DUP3 DUP5 SUB SLT ISZERO PUSH2 0x3154 JUMPI PUSH1 0x0 DUP1 REVERT JUMPDEST DUP2 MLOAD PUSH2 0x1545 DUP2 PUSH2 0x28B8 JUMP JUMPDEST PUSH1 0x0 DUP3 PUSH2 0x316E JUMPI PUSH2 0x316E PUSH2 0x2FC7 JUMP JUMPDEST POP MOD SWAP1 JUMP INVALID LOG2 PUSH5 0x6970667358 0x22 SLT KECCAK256 0xCC 0xF8 0xAC PUSH28 0x578D8DEE11990BE47B64E028131231B72C9EFBB1CE6150352DAF1680 PUSH5 0x736F6C6343 STOP ADDMOD 0xD STOP CALLER "},"gasEstimates":{"creation":{"codeDepositCost":"2542600","executionCost":"2748","totalCost":"2545348"},"external":{"":"1610","approve(address,uint256)":"infinite","balanceOf(address)":"2696","collectionSize()":"2382","disableMinting()":"30194","disableWhitelist()":"30205","enableMinting()":"30147","enableWhitelist()":"30170","getApproved(uint256)":"6993","getBalance()":"318","initialize(string,string,string,uint256,uint256,address[],uint256[],bytes32,address)":"infinite","isApprovedForAll(address,address)":"infinite","mintStatus()":"2377","mintingFee()":"2448","name()":"infinite","owner()":"2399","ownerOf(uint256)":"infinite","payee(uint256)":"4665","publicMaxMints()":"2360","publicMint(uint256)":"infinite","release()":"infinite","released(address)":"2582","renounceOwnership()":"28228","royaltyInfo(uint256,uint256)":"4873","safeTransferFrom(address,address,uint256)":"infinite","safeTransferFrom(address,address,uint256,bytes)":"infinite","setApprovalForAll(address,bool)":"26736","setBaseURI(string)":"infinite","setMaxPublicMints(uint256)":"30180","setMaxWhitelistMints(uint64)":"28185","setMintPrice(uint256)":"28058","setMintSize(uint256)":"32283","setRoyaltyInfo(address,uint256)":"50349","setWhitelistMerkleRoot(bytes32)":"27971","shares(address)":"2648","supportsInterface(bytes4)":"infinite","symbol()":"infinite","tokenURI(uint256)":"infinite","totalReleased()":"2336","totalShares()":"2448","totalSupply()":"4456","transferFrom(address,address,uint256)":"infinite","transferOwnership(address)":"28422","updatePlaceholder(string)":"infinite","whitelistMaxMints()":"2464","whitelistMint(bytes32[],uint64)":"infinite","whitelistStatus()":"2399"},"internal":{"_baseURI()":"infinite","_startTokenId()":"infinite","addPayee(address,uint256)":"infinite","lockPayees()":"infinite","setupPaymentSplit(address,address[] memory,uint256[] memory)":"infinite"}},"methodIdentifiers":{"approve(address,uint256)":"095ea7b3","balanceOf(address)":"70a08231","collectionSize()":"45c0f533","disableMinting()":"7e5cd5c1","disableWhitelist()":"d6b0f484","enableMinting()":"e797ec1b","enableWhitelist()":"cdfb2b4e","getApproved(uint256)":"081812fc","getBalance()":"12065fe0","initialize(string,string,string,uint256,uint256,address[],uint256[],bytes32,address)":"666b1fb8","isApprovedForAll(address,address)":"e985e9c5","mintStatus()":"9da3f8fd","mintingFee()":"5a64ad95","name()":"06fdde03","owner()":"8da5cb5b","ownerOf(uint256)":"6352211e","payee(uint256)":"8b83209b","publicMaxMints()":"45947076","publicMint(uint256)":"2db11544","release()":"86d1a69f","released(address)":"9852595c","renounceOwnership()":"715018a6","royaltyInfo(uint256,uint256)":"2a55205a","safeTransferFrom(address,address,uint256)":"42842e0e","safeTransferFrom(address,address,uint256,bytes)":"b88d4fde","setApprovalForAll(address,bool)":"a22cb465","setBaseURI(string)":"55f804b3","setMaxPublicMints(uint256)":"a93fef3b","setMaxWhitelistMints(uint64)":"9342e6e4","setMintPrice(uint256)":"f4a0a528","setMintSize(uint256)":"4a886ad2","setRoyaltyInfo(address,uint256)":"e2e784d5","setWhitelistMerkleRoot(bytes32)":"bd32fb66","shares(address)":"ce7c2ac2","supportsInterface(bytes4)":"01ffc9a7","symbol()":"95d89b41","tokenURI(uint256)":"c87b56dd","totalReleased()":"e33b7de3","totalShares()":"3a98ef39","totalSupply()":"18160ddd","transferFrom(address,address,uint256)":"23b872dd","transferOwnership(address)":"f2fde38b","updatePlaceholder(string)":"8f5d737c","whitelistMaxMints()":"fbee8121","whitelistMint(bytes32[],uint64)":"1b004d25","whitelistStatus()":"9ddf7ad3"}},"storageLayout":{"storage":[{"astId":149,"contract":"CandyCreator721AUpgradeable.sol:CandyCreator721AUpgradeable","label":"_initialized","offset":0,"slot":"0","type":"t_bool"},{"astId":152,"contract":"CandyCreator721AUpgradeable.sol:CandyCreator721AUpgradeable","label":"_initializing","offset":1,"slot":"0","type":"t_bool"},{"astId":679,"contract":"CandyCreator721AUpgradeable.sol:CandyCreator721AUpgradeable","label":"__gap","offset":0,"slot":"1","type":"t_array(t_uint256)50_storage"},{"astId":10,"contract":"CandyCreator721AUpgradeable.sol:CandyCreator721AUpgradeable","label":"_owner","offset":0,"slot":"51","type":"t_address"},{"astId":122,"contract":"CandyCreator721AUpgradeable.sol:CandyCreator721AUpgradeable","label":"__gap","offset":0,"slot":"52","type":"t_array(t_uint256)49_storage"},{"astId":1093,"contract":"CandyCreator721AUpgradeable.sol:CandyCreator721AUpgradeable","label":"__gap","offset":0,"slot":"101","type":"t_array(t_uint256)50_storage"},{"astId":2078,"contract":"CandyCreator721AUpgradeable.sol:CandyCreator721AUpgradeable","label":"_currentIndex","offset":0,"slot":"151","type":"t_uint256"},{"astId":2080,"contract":"CandyCreator721AUpgradeable.sol:CandyCreator721AUpgradeable","label":"_burnCounter","offset":0,"slot":"152","type":"t_uint256"},{"astId":2082,"contract":"CandyCreator721AUpgradeable.sol:CandyCreator721AUpgradeable","label":"_name","offset":0,"slot":"153","type":"t_string_storage"},{"astId":2084,"contract":"CandyCreator721AUpgradeable.sol:CandyCreator721AUpgradeable","label":"_symbol","offset":0,"slot":"154","type":"t_string_storage"},{"astId":2089,"contract":"CandyCreator721AUpgradeable.sol:CandyCreator721AUpgradeable","label":"_ownerships","offset":0,"slot":"155","type":"t_mapping(t_uint256,t_struct(TokenOwnership)2067_storage)"},{"astId":2094,"contract":"CandyCreator721AUpgradeable.sol:CandyCreator721AUpgradeable","label":"_addressData","offset":0,"slot":"156","type":"t_mapping(t_address,t_struct(AddressData)2076_storage)"},{"astId":2098,"contract":"CandyCreator721AUpgradeable.sol:CandyCreator721AUpgradeable","label":"_tokenApprovals","offset":0,"slot":"157","type":"t_mapping(t_uint256,t_address)"},{"astId":2104,"contract":"CandyCreator721AUpgradeable.sol:CandyCreator721AUpgradeable","label":"_operatorApprovals","offset":0,"slot":"158","type":"t_mapping(t_address,t_mapping(t_address,t_bool))"},{"astId":3352,"contract":"CandyCreator721AUpgradeable.sol:CandyCreator721AUpgradeable","label":"__gap","offset":0,"slot":"159","type":"t_array(t_uint256)42_storage"},{"astId":3379,"contract":"CandyCreator721AUpgradeable.sol:CandyCreator721AUpgradeable","label":"_numPayees","offset":0,"slot":"201","type":"t_struct(Counter)686_storage"},{"astId":3405,"contract":"CandyCreator721AUpgradeable.sol:CandyCreator721AUpgradeable","label":"_totalShares","offset":0,"slot":"202","type":"t_uint256"},{"astId":3407,"contract":"CandyCreator721AUpgradeable.sol:CandyCreator721AUpgradeable","label":"_totalReleased","offset":0,"slot":"203","type":"t_uint256"},{"astId":3411,"contract":"CandyCreator721AUpgradeable.sol:CandyCreator721AUpgradeable","label":"_shares","offset":0,"slot":"204","type":"t_mapping(t_address,t_uint256)"},{"astId":3415,"contract":"CandyCreator721AUpgradeable.sol:CandyCreator721AUpgradeable","label":"_released","offset":0,"slot":"205","type":"t_mapping(t_address,t_uint256)"},{"astId":3418,"contract":"CandyCreator721AUpgradeable.sol:CandyCreator721AUpgradeable","label":"_payees","offset":0,"slot":"206","type":"t_array(t_address)dyn_storage"},{"astId":3658,"contract":"CandyCreator721AUpgradeable.sol:CandyCreator721AUpgradeable","label":"__gap","offset":0,"slot":"207","type":"t_array(t_uint256)43_storage"},{"astId":3669,"contract":"CandyCreator721AUpgradeable.sol:CandyCreator721AUpgradeable","label":"royaltyAddress","offset":0,"slot":"250","type":"t_address"},{"astId":3671,"contract":"CandyCreator721AUpgradeable.sol:CandyCreator721AUpgradeable","label":"royaltyBasisPoints","offset":0,"slot":"251","type":"t_uint256"},{"astId":1152,"contract":"CandyCreator721AUpgradeable.sol:CandyCreator721AUpgradeable","label":"base","offset":0,"slot":"252","type":"t_string_storage"},{"astId":1154,"contract":"CandyCreator721AUpgradeable.sol:CandyCreator721AUpgradeable","label":"placeholderURI","offset":0,"slot":"253","type":"t_string_storage"},{"astId":1156,"contract":"CandyCreator721AUpgradeable.sol:CandyCreator721AUpgradeable","label":"whitelistMerkleRoot","offset":0,"slot":"254","type":"t_bytes32"},{"astId":1158,"contract":"CandyCreator721AUpgradeable.sol:CandyCreator721AUpgradeable","label":"maxPublicMints","offset":0,"slot":"255","type":"t_uint256"},{"astId":1160,"contract":"CandyCreator721AUpgradeable.sol:CandyCreator721AUpgradeable","label":"mintPrice","offset":0,"slot":"256","type":"t_uint256"},{"astId":1162,"contract":"CandyCreator721AUpgradeable.sol:CandyCreator721AUpgradeable","label":"mintSize","offset":0,"slot":"257","type":"t_uint256"},{"astId":1164,"contract":"CandyCreator721AUpgradeable.sol:CandyCreator721AUpgradeable","label":"maxWhitelistMints","offset":0,"slot":"258","type":"t_uint64"},{"astId":1166,"contract":"CandyCreator721AUpgradeable.sol:CandyCreator721AUpgradeable","label":"whitelistActive","offset":8,"slot":"258","type":"t_bool"},{"astId":1168,"contract":"CandyCreator721AUpgradeable.sol:CandyCreator721AUpgradeable","label":"mintingActive","offset":9,"slot":"258","type":"t_bool"},{"astId":1170,"contract":"CandyCreator721AUpgradeable.sol:CandyCreator721AUpgradeable","label":"lockedPayees","offset":10,"slot":"258","type":"t_bool"}],"types":{"t_address":{"encoding":"inplace","label":"address","numberOfBytes":"20"},"t_array(t_address)dyn_storage":{"base":"t_address","encoding":"dynamic_array","label":"address[]","numberOfBytes":"32"},"t_array(t_uint256)42_storage":{"base":"t_uint256","encoding":"inplace","label":"uint256[42]","numberOfBytes":"1344"},"t_array(t_uint256)43_storage":{"base":"t_uint256","encoding":"inplace","label":"uint256[43]","numberOfBytes":"1376"},"t_array(t_uint256)49_storage":{"base":"t_uint256","encoding":"inplace","label":"uint256[49]","numberOfBytes":"1568"},"t_array(t_uint256)50_storage":{"base":"t_uint256","encoding":"inplace","label":"uint256[50]","numberOfBytes":"1600"},"t_bool":{"encoding":"inplace","label":"bool","numberOfBytes":"1"},"t_bytes32":{"encoding":"inplace","label":"bytes32","numberOfBytes":"32"},"t_mapping(t_address,t_bool)":{"encoding":"mapping","key":"t_address","label":"mapping(address => bool)","numberOfBytes":"32","value":"t_bool"},"t_mapping(t_address,t_mapping(t_address,t_bool))":{"encoding":"mapping","key":"t_address","label":"mapping(address => mapping(address => bool))","numberOfBytes":"32","value":"t_mapping(t_address,t_bool)"},"t_mapping(t_address,t_struct(AddressData)2076_storage)":{"encoding":"mapping","key":"t_address","label":"mapping(address => struct ERC721AUpgradeable.AddressData)","numberOfBytes":"32","value":"t_struct(AddressData)2076_storage"},"t_mapping(t_address,t_uint256)":{"encoding":"mapping","key":"t_address","label":"mapping(address => uint256)","numberOfBytes":"32","value":"t_uint256"},"t_mapping(t_uint256,t_address)":{"encoding":"mapping","key":"t_uint256","label":"mapping(uint256 => address)","numberOfBytes":"32","value":"t_address"},"t_mapping(t_uint256,t_struct(TokenOwnership)2067_storage)":{"encoding":"mapping","key":"t_uint256","label":"mapping(uint256 => struct ERC721AUpgradeable.TokenOwnership)","numberOfBytes":"32","value":"t_struct(TokenOwnership)2067_storage"},"t_string_storage":{"encoding":"bytes","label":"string","numberOfBytes":"32"},"t_struct(AddressData)2076_storage":{"encoding":"inplace","label":"struct ERC721AUpgradeable.AddressData","members":[{"astId":2069,"contract":"CandyCreator721AUpgradeable.sol:CandyCreator721AUpgradeable","label":"balance","offset":0,"slot":"0","type":"t_uint64"},{"astId":2071,"contract":"CandyCreator721AUpgradeable.sol:CandyCreator721AUpgradeable","label":"numberMinted","offset":8,"slot":"0","type":"t_uint64"},{"astId":2073,"contract":"CandyCreator721AUpgradeable.sol:CandyCreator721AUpgradeable","label":"numberBurned","offset":16,"slot":"0","type":"t_uint64"},{"astId":2075,"contract":"CandyCreator721AUpgradeable.sol:CandyCreator721AUpgradeable","label":"aux","offset":24,"slot":"0","type":"t_uint64"}],"numberOfBytes":"32"},"t_struct(Counter)686_storage":{"encoding":"inplace","label":"struct CountersUpgradeable.Counter","members":[{"astId":685,"contract":"CandyCreator721AUpgradeable.sol:CandyCreator721AUpgradeable","label":"_value","offset":0,"slot":"0","type":"t_uint256"}],"numberOfBytes":"32"},"t_struct(TokenOwnership)2067_storage":{"encoding":"inplace","label":"struct ERC721AUpgradeable.TokenOwnership","members":[{"astId":2062,"contract":"CandyCreator721AUpgradeable.sol:CandyCreator721AUpgradeable","label":"addr","offset":0,"slot":"0","type":"t_address"},{"astId":2064,"contract":"CandyCreator721AUpgradeable.sol:CandyCreator721AUpgradeable","label":"startTimestamp","offset":20,"slot":"0","type":"t_uint64"},{"astId":2066,"contract":"CandyCreator721AUpgradeable.sol:CandyCreator721AUpgradeable","label":"burned","offset":28,"slot":"0","type":"t_bool"}],"numberOfBytes":"32"},"t_uint256":{"encoding":"inplace","label":"uint256","numberOfBytes":"32"},"t_uint64":{"encoding":"inplace","label":"uint64","numberOfBytes":"8"}}},"userdoc":{"kind":"user","methods":{"collectionSize()":{"notice":"The size of the collection."},"disableMinting()":{"notice":"Disables minting. "},"disableWhitelist()":{"notice":"Removes the whitelist requirement for minting. "},"enableMinting()":{"notice":"Enables minting. "},"enableWhitelist()":{"notice":"Requires whitelist membership for minting. "},"getBalance()":{"notice":"The current contract balance. "},"mintStatus()":{"notice":"True/False value indicating whether minting is enabled."},"mintingFee()":{"notice":"The fee to mint each token in this collection. "},"publicMaxMints()":{"notice":"The maximum tokens that are allowed to be minted during  a single publicMint transaction."},"publicMint(uint256)":{"notice":"Mint function for use with public minting sales. Mint Fees in native token,  requires amount * mintPrice to be sent by caller."},"release()":{"notice":"Releases funds from the contract to the addresses owed payment.  Only the owner can call this function."},"setBaseURI(string)":{"notice":"Updates the base URI for the token metadata  it does not emit an event so that it can be set invisibly to purchasers  and avoid token sniping."},"setMaxPublicMints(uint256)":{"notice":"Sets the maximum number of tokens a single address can mint AT A TIME  during the public mint period. Keep in mind that regardless of the number set, during public  minting any user will still be able to call the publicMint function an unlimited number of times"},"setMaxWhitelistMints(uint64)":{"notice":"Sets the maximum number of tokens a whitelisted user can mint."},"setMintPrice(uint256)":{"notice":"this will set the fees required to mint using  publicMint(), must enter in wei. So 1 ETH = 10**18."},"setMintSize(uint256)":{"notice":"Sets the mint size. Cannot be smaller than the totalSupply()."},"setRoyaltyInfo(address,uint256)":{"notice":"Sets single address EIP-2981 royalty information for this collection."},"setWhitelistMerkleRoot(bytes32)":{"notice":"Sets a new Merkle root used to verify whitelist membership  in combination with a proof submitted to the whitelistMint function."},"supportsInterface(bytes4)":{"notice":"Required override for supportsInterface(bytes4)."},"tokenURI(uint256)":{"notice":"Returns the metadata URI for a given token."},"updatePlaceholder(string)":{"notice":"Updates the placeholderURI."},"whitelistMaxMints()":{"notice":"The maximum tokens that are allowed to be minted   by a whitelisted address."},"whitelistMint(bytes32[],uint64)":{"notice":"Mint function for use with whitelist minting sales. Mint fees in native token,  requires amount * mintPrice to be sent by caller."},"whitelistStatus()":{"notice":"True/False value indicating that the whitelist is currenly required for minting."}},"version":1}}