{"abi":[{"inputs":[],"name":"ApprovalCallerNotOwnerNorApproved","type":"error"},{"inputs":[],"name":"ApprovalQueryForNonexistentToken","type":"error"},{"inputs":[],"name":"ApprovalToCurrentOwner","type":"error"},{"inputs":[],"name":"ApproveToCaller","type":"error"},{"inputs":[],"name":"BalanceQueryForZeroAddress","type":"error"},{"inputs":[],"name":"MintToZeroAddress","type":"error"},{"inputs":[],"name":"MintZeroQuantity","type":"error"},{"inputs":[],"name":"OwnerQueryForNonexistentToken","type":"error"},{"inputs":[],"name":"TransferCallerNotOwnerNorApproved","type":"error"},{"inputs":[],"name":"TransferFromIncorrectOwner","type":"error"},{"inputs":[],"name":"TransferToNonERC721ReceiverImplementer","type":"error"},{"inputs":[],"name":"TransferToZeroAddress","type":"error"},{"inputs":[],"name":"URIQueryForNonexistentToken","type":"error"},{"anonymous":false,"inputs":[{"indexed":true,"internalType":"address","name":"owner","type":"address"},{"indexed":true,"internalType":"address","name":"approved","type":"address"},{"indexed":true,"internalType":"uint256","name":"tokenId","type":"uint256"}],"name":"Approval","type":"event"},{"anonymous":false,"inputs":[{"indexed":true,"internalType":"address","name":"owner","type":"address"},{"indexed":true,"internalType":"address","name":"operator","type":"address"},{"indexed":false,"internalType":"bool","name":"approved","type":"bool"}],"name":"ApprovalForAll","type":"event"},{"anonymous":false,"inputs":[{"indexed":true,"internalType":"address","name":"from","type":"address"},{"indexed":true,"internalType":"address","name":"to","type":"address"},{"indexed":true,"internalType":"uint256","name":"tokenId","type":"uint256"}],"name":"Transfer","type":"event"},{"inputs":[{"internalType":"address","name":"to","type":"address"},{"internalType":"uint256","name":"tokenId","type":"uint256"}],"name":"approve","outputs":[],"stateMutability":"nonpayable","type":"function"},{"inputs":[{"internalType":"address","name":"owner","type":"address"}],"name":"balanceOf","outputs":[{"internalType":"uint256","name":"","type":"uint256"}],"stateMutability":"view","type":"function"},{"inputs":[{"internalType":"uint256","name":"tokenId","type":"uint256"}],"name":"getApproved","outputs":[{"internalType":"address","name":"","type":"address"}],"stateMutability":"view","type":"function"},{"inputs":[{"internalType":"address","name":"owner","type":"address"},{"internalType":"address","name":"operator","type":"address"}],"name":"isApprovedForAll","outputs":[{"internalType":"bool","name":"","type":"bool"}],"stateMutability":"view","type":"function"},{"inputs":[],"name":"name","outputs":[{"internalType":"string","name":"","type":"string"}],"stateMutability":"view","type":"function"},{"inputs":[{"internalType":"uint256","name":"tokenId","type":"uint256"}],"name":"ownerOf","outputs":[{"internalType":"address","name":"","type":"address"}],"stateMutability":"view","type":"function"},{"inputs":[{"internalType":"address","name":"from","type":"address"},{"internalType":"address","name":"to","type":"address"},{"internalType":"uint256","name":"tokenId","type":"uint256"}],"name":"safeTransferFrom","outputs":[],"stateMutability":"nonpayable","type":"function"},{"inputs":[{"internalType":"address","name":"from","type":"address"},{"internalType":"address","name":"to","type":"address"},{"internalType":"uint256","name":"tokenId","type":"uint256"},{"internalType":"bytes","name":"_data","type":"bytes"}],"name":"safeTransferFrom","outputs":[],"stateMutability":"nonpayable","type":"function"},{"inputs":[{"internalType":"address","name":"operator","type":"address"},{"internalType":"bool","name":"approved","type":"bool"}],"name":"setApprovalForAll","outputs":[],"stateMutability":"nonpayable","type":"function"},{"inputs":[{"internalType":"bytes4","name":"interfaceId","type":"bytes4"}],"name":"supportsInterface","outputs":[{"internalType":"bool","name":"","type":"bool"}],"stateMutability":"view","type":"function"},{"inputs":[],"name":"symbol","outputs":[{"internalType":"string","name":"","type":"string"}],"stateMutability":"view","type":"function"},{"inputs":[{"internalType":"uint256","name":"tokenId","type":"uint256"}],"name":"tokenURI","outputs":[{"internalType":"string","name":"","type":"string"}],"stateMutability":"view","type":"function"},{"inputs":[],"name":"totalSupply","outputs":[{"internalType":"uint256","name":"","type":"uint256"}],"stateMutability":"view","type":"function"},{"inputs":[{"internalType":"address","name":"from","type":"address"},{"internalType":"address","name":"to","type":"address"},{"internalType":"uint256","name":"tokenId","type":"uint256"}],"name":"transferFrom","outputs":[],"stateMutability":"nonpayable","type":"function"}],"devdoc":{"details":"Implementation of https://eips.ethereum.org/EIPS/eip-721[ERC721] Non-Fungible Token Standard, including the Metadata extension. Built to optimize for lower gas during batch mints. Assumes serials are sequentially minted starting at _startTokenId() (defaults to 0, e.g. 0, 1, 2, 3..). Assumes that an owner cannot have more than 2**64 - 1 (max value of uint64) of supply. Assumes that the maximum token id cannot exceed 2**256 - 1 (max value of uint256).","kind":"dev","methods":{"approve(address,uint256)":{"details":"See {IERC721-approve}."},"balanceOf(address)":{"details":"See {IERC721-balanceOf}."},"getApproved(uint256)":{"details":"See {IERC721-getApproved}."},"isApprovedForAll(address,address)":{"details":"See {IERC721-isApprovedForAll}."},"name()":{"details":"See {IERC721Metadata-name}."},"ownerOf(uint256)":{"details":"See {IERC721-ownerOf}."},"safeTransferFrom(address,address,uint256)":{"details":"See {IERC721-safeTransferFrom}."},"safeTransferFrom(address,address,uint256,bytes)":{"details":"See {IERC721-safeTransferFrom}."},"setApprovalForAll(address,bool)":{"details":"See {IERC721-setApprovalForAll}."},"supportsInterface(bytes4)":{"details":"See {IERC165-supportsInterface}."},"symbol()":{"details":"See {IERC721Metadata-symbol}."},"tokenURI(uint256)":{"details":"See {IERC721Metadata-tokenURI}."},"totalSupply()":{"details":"Burned tokens are calculated here, use _totalMinted() if you want to count just minted tokens."},"transferFrom(address,address,uint256)":{"details":"See {IERC721-transferFrom}."}},"stateVariables":{"__gap":{"details":"This empty reserved space is put in place to allow future versions to add new variables without shifting down storage in the inheritance chain. See https://docs.openzeppelin.com/contracts/4.x/upgradeable#storage_gaps"}},"version":1},"evm":{"assembly":"    /* \"Base/Token/ERC721A/ERC721AUpgradeable.sol\":1088:22164  contract ERC721AUpgradeable is Initializable, ContextUpgradeable, ERC165Upgradeable, IERC721AUpgradeable {... */\n  mstore(0x40, 0x80)\n  callvalue\n  dup1\n  iszero\n  tag_1\n  jumpi\n  0x00\n  dup1\n  revert\ntag_1:\n  pop\n  dataSize(sub_0)\n  dup1\n  dataOffset(sub_0)\n  0x00\n  codecopy\n  0x00\n  return\nstop\n\nsub_0: assembly {\n        /* \"Base/Token/ERC721A/ERC721AUpgradeable.sol\":1088:22164  contract ERC721AUpgradeable is Initializable, ContextUpgradeable, ERC165Upgradeable, IERC721AUpgradeable {... */\n      mstore(0x40, 0x80)\n      callvalue\n      dup1\n      iszero\n      tag_1\n      jumpi\n      0x00\n      dup1\n      revert\n    tag_1:\n      pop\n      jumpi(tag_2, lt(calldatasize, 0x04))\n      shr(0xe0, calldataload(0x00))\n      dup1\n      0x6352211e\n      gt\n      tag_17\n      jumpi\n      dup1\n      0xa22cb465\n      gt\n      tag_18\n      jumpi\n      dup1\n      0xa22cb465\n      eq\n      tag_13\n      jumpi\n      dup1\n      0xb88d4fde\n      eq\n      tag_14\n      jumpi\n      dup1\n      0xc87b56dd\n      eq\n      tag_15\n      jumpi\n      dup1\n      0xe985e9c5\n      eq\n      tag_16\n      jumpi\n      0x00\n      dup1\n      revert\n    tag_18:\n      dup1\n      0x6352211e\n      eq\n      tag_10\n      jumpi\n      dup1\n      0x70a08231\n      eq\n      tag_11\n      jumpi\n      dup1\n      0x95d89b41\n      eq\n      tag_12\n      jumpi\n      0x00\n      dup1\n      revert\n    tag_17:\n      dup1\n      0x095ea7b3\n      gt\n      tag_19\n      jumpi\n      dup1\n      0x095ea7b3\n      eq\n      tag_6\n      jumpi\n      dup1\n      0x18160ddd\n      eq\n      tag_7\n      jumpi\n      dup1\n      0x23b872dd\n      eq\n      tag_8\n      jumpi\n      dup1\n      0x42842e0e\n      eq\n      tag_9\n      jumpi\n      0x00\n      dup1\n      revert\n    tag_19:\n      dup1\n      0x01ffc9a7\n      eq\n      tag_3\n      jumpi\n      dup1\n      0x06fdde03\n      eq\n      tag_4\n      jumpi\n      dup1\n      0x081812fc\n      eq\n      tag_5\n      jumpi\n    tag_2:\n      0x00\n      dup1\n      revert\n        /* \"Base/Token/ERC721A/ERC721AUpgradeable.sol\":3508:3852  function supportsInterface(bytes4 interfaceId) public view virtual override(ERC165Upgradeable, IERC165Upgradeable) returns (bool) {... */\n    tag_3:\n      tag_20\n      tag_21\n      calldatasize\n      0x04\n      tag_22\n      jump\t// in\n    tag_21:\n      tag_23\n      jump\t// in\n    tag_20:\n      mload(0x40)\n        /* \"#utility.yul\":565:579   */\n      swap1\n      iszero\n        /* \"#utility.yul\":558:580   */\n      iszero\n        /* \"#utility.yul\":540:581   */\n      dup2\n      mstore\n        /* \"#utility.yul\":528:530   */\n      0x20\n        /* \"#utility.yul\":513:531   */\n      add\n        /* \"Base/Token/ERC721A/ERC721AUpgradeable.sol\":3508:3852  function supportsInterface(bytes4 interfaceId) public view virtual override(ERC165Upgradeable, IERC165Upgradeable) returns (bool) {... */\n    tag_24:\n      mload(0x40)\n      dup1\n      swap2\n      sub\n      swap1\n      return\n        /* \"Base/Token/ERC721A/ERC721AUpgradeable.sol\":6580:6678  function name() public view virtual override returns (string memory) {... */\n    tag_4:\n      tag_26\n      tag_27\n      jump\t// in\n    tag_26:\n      mload(0x40)\n      tag_24\n      swap2\n      swap1\n      tag_29\n      jump\t// in\n        /* \"Base/Token/ERC721A/ERC721AUpgradeable.sol\":8047:8247  function getApproved(uint256 tokenId) public view override returns (address) {... */\n    tag_5:\n      tag_30\n      tag_31\n      calldatasize\n      0x04\n      tag_32\n      jump\t// in\n    tag_31:\n      tag_33\n      jump\t// in\n    tag_30:\n      mload(0x40)\n      sub(shl(0xa0, 0x01), 0x01)\n        /* \"#utility.yul\":1692:1724   */\n      swap1\n      swap2\n      and\n        /* \"#utility.yul\":1674:1725   */\n      dup2\n      mstore\n        /* \"#utility.yul\":1662:1664   */\n      0x20\n        /* \"#utility.yul\":1647:1665   */\n      add\n        /* \"Base/Token/ERC721A/ERC721AUpgradeable.sol\":8047:8247  function getApproved(uint256 tokenId) public view override returns (address) {... */\n      tag_24\n        /* \"#utility.yul\":1528:1731   */\n      jump\n        /* \"Base/Token/ERC721A/ERC721AUpgradeable.sol\":7613:7986  function approve(address to, uint256 tokenId) public override {... */\n    tag_6:\n      tag_36\n      tag_37\n      calldatasize\n      0x04\n      tag_38\n      jump\t// in\n    tag_37:\n      tag_39\n      jump\t// in\n    tag_36:\n      stop\n        /* \"Base/Token/ERC721A/ERC721AUpgradeable.sol\":2779:3076  function totalSupply() public view returns (uint256) {... */\n    tag_7:\n        /* \"Base/Token/ERC721A/ERC721AUpgradeable.sol\":3029:3041  _burnCounter */\n      sload(0x66)\n        /* \"Base/Token/ERC721A/ERC721AUpgradeable.sol\":3013:3026  _currentIndex */\n      sload(0x65)\n        /* \"Base/Token/ERC721A/ERC721AUpgradeable.sol\":3013:3041  _currentIndex - _burnCounter */\n      sub\n        /* \"Base/Token/ERC721A/ERC721AUpgradeable.sol\":2779:3076  function totalSupply() public view returns (uint256) {... */\n    tag_40:\n      mload(0x40)\n        /* \"#utility.yul\":2319:2344   */\n      swap1\n      dup2\n      mstore\n        /* \"#utility.yul\":2307:2309   */\n      0x20\n        /* \"#utility.yul\":2292:2310   */\n      add\n        /* \"Base/Token/ERC721A/ERC721AUpgradeable.sol\":2779:3076  function totalSupply() public view returns (uint256) {... */\n      tag_24\n        /* \"#utility.yul\":2173:2350   */\n      jump\n        /* \"Base/Token/ERC721A/ERC721AUpgradeable.sol\":8886:9050  function transferFrom(... */\n    tag_8:\n      tag_36\n      tag_45\n      calldatasize\n      0x04\n      tag_46\n      jump\t// in\n    tag_45:\n      tag_47\n      jump\t// in\n        /* \"Base/Token/ERC721A/ERC721AUpgradeable.sol\":9116:9295  function safeTransferFrom(... */\n    tag_9:\n      tag_36\n      tag_49\n      calldatasize\n      0x04\n      tag_46\n      jump\t// in\n    tag_49:\n      tag_50\n      jump\t// in\n        /* \"Base/Token/ERC721A/ERC721AUpgradeable.sol\":6395:6518  function ownerOf(uint256 tokenId) public view override returns (address) {... */\n    tag_10:\n      tag_30\n      tag_52\n      calldatasize\n      0x04\n      tag_32\n      jump\t// in\n    tag_52:\n      tag_53\n      jump\t// in\n        /* \"Base/Token/ERC721A/ERC721AUpgradeable.sol\":3911:4114  function balanceOf(address owner) public view override returns (uint256) {... */\n    tag_11:\n      tag_40\n      tag_56\n      calldatasize\n      0x04\n      tag_57\n      jump\t// in\n    tag_56:\n      tag_58\n      jump\t// in\n        /* \"Base/Token/ERC721A/ERC721AUpgradeable.sol\":6742:6844  function symbol() public view virtual override returns (string memory) {... */\n    tag_12:\n      tag_26\n      tag_61\n      jump\t// in\n        /* \"Base/Token/ERC721A/ERC721AUpgradeable.sol\":8314:8596  function setApprovalForAll(address operator, bool approved) public virtual override {... */\n    tag_13:\n      tag_36\n      tag_64\n      calldatasize\n      0x04\n      tag_65\n      jump\t// in\n    tag_64:\n      tag_66\n      jump\t// in\n        /* \"Base/Token/ERC721A/ERC721AUpgradeable.sol\":9361:9720  function safeTransferFrom(... */\n    tag_14:\n      tag_36\n      tag_68\n      calldatasize\n      0x04\n      tag_69\n      jump\t// in\n    tag_68:\n      tag_70\n      jump\t// in\n        /* \"Base/Token/ERC721A/ERC721AUpgradeable.sol\":6910:7223  function tokenURI(uint256 tokenId) public view virtual override returns (string memory) {... */\n    tag_15:\n      tag_26\n      tag_72\n      calldatasize\n      0x04\n      tag_32\n      jump\t// in\n    tag_72:\n      tag_73\n      jump\t// in\n        /* \"Base/Token/ERC721A/ERC721AUpgradeable.sol\":8662:8824  function isApprovedForAll(address owner, address operator) public view virtual override returns (bool) {... */\n    tag_16:\n      tag_20\n      tag_76\n      calldatasize\n      0x04\n      tag_77\n      jump\t// in\n    tag_76:\n      sub(shl(0xa0, 0x01), 0x01)\n        /* \"Base/Token/ERC721A/ERC721AUpgradeable.sol\":8782:8807  _operatorApprovals[owner] */\n      swap2\n      dup3\n      and\n        /* \"Base/Token/ERC721A/ERC721AUpgradeable.sol\":8759:8763  bool */\n      0x00\n        /* \"Base/Token/ERC721A/ERC721AUpgradeable.sol\":8782:8807  _operatorApprovals[owner] */\n      swap1\n      dup2\n      mstore\n        /* \"Base/Token/ERC721A/ERC721AUpgradeable.sol\":8782:8800  _operatorApprovals */\n      0x6c\n        /* \"Base/Token/ERC721A/ERC721AUpgradeable.sol\":8782:8807  _operatorApprovals[owner] */\n      0x20\n      swap1\n      dup2\n      mstore\n      0x40\n      dup1\n      dup4\n      keccak256\n        /* \"Base/Token/ERC721A/ERC721AUpgradeable.sol\":8782:8817  _operatorApprovals[owner][operator] */\n      swap4\n      swap1\n      swap5\n      and\n      dup3\n      mstore\n      swap2\n      swap1\n      swap2\n      mstore\n      keccak256\n      sload\n      0xff\n      and\n      swap1\n        /* \"Base/Token/ERC721A/ERC721AUpgradeable.sol\":8662:8824  function isApprovedForAll(address owner, address operator) public view virtual override returns (bool) {... */\n      jump\n        /* \"Base/Token/ERC721A/ERC721AUpgradeable.sol\":3508:3852  function supportsInterface(bytes4 interfaceId) public view virtual override(ERC165Upgradeable, IERC165Upgradeable) returns (bool) {... */\n    tag_23:\n        /* \"Base/Token/ERC721A/ERC721AUpgradeable.sol\":3632:3636  bool */\n      0x00\n      not(sub(shl(0xe0, 0x01), 0x01))\n        /* \"Base/Token/ERC721A/ERC721AUpgradeable.sol\":3667:3718  interfaceId == type(IERC721Upgradeable).interfaceId */\n      dup3\n      and\n      shl(0xe0, 0x80ac58cd)\n      eq\n      dup1\n        /* \"Base/Token/ERC721A/ERC721AUpgradeable.sol\":3667:3793  interfaceId == type(IERC721Upgradeable).interfaceId ||... */\n      tag_81\n      jumpi\n      pop\n      not(sub(shl(0xe0, 0x01), 0x01))\n        /* \"Base/Token/ERC721A/ERC721AUpgradeable.sol\":3734:3793  interfaceId == type(IERC721MetadataUpgradeable).interfaceId */\n      dup3\n      and\n      shl(0xe0, 0x5b5e139f)\n      eq\n        /* \"Base/Token/ERC721A/ERC721AUpgradeable.sol\":3667:3793  interfaceId == type(IERC721Upgradeable).interfaceId ||... */\n    tag_81:\n        /* \"Base/Token/ERC721A/ERC721AUpgradeable.sol\":3667:3845  interfaceId == type(IERC721Upgradeable).interfaceId ||... */\n      dup1\n      tag_83\n      jumpi\n      pop\n      shl(0xe0, 0x01ffc9a7)\n      not(sub(shl(0xe0, 0x01), 0x01))\n        /* \"@openzeppelin/contracts-upgradeable/utils/introspection/ERC165Upgradeable.sol\":1168:1219  interfaceId == type(IERC165Upgradeable).interfaceId */\n      dup4\n      and\n      eq\n        /* \"Base/Token/ERC721A/ERC721AUpgradeable.sol\":3809:3845  super.supportsInterface(interfaceId) */\n    tag_83:\n        /* \"Base/Token/ERC721A/ERC721AUpgradeable.sol\":3648:3845  return... */\n      swap3\n        /* \"Base/Token/ERC721A/ERC721AUpgradeable.sol\":3508:3852  function supportsInterface(bytes4 interfaceId) public view virtual override(ERC165Upgradeable, IERC165Upgradeable) returns (bool) {... */\n      swap2\n      pop\n      pop\n      jump\t// out\n        /* \"Base/Token/ERC721A/ERC721AUpgradeable.sol\":6580:6678  function name() public view virtual override returns (string memory) {... */\n    tag_27:\n        /* \"Base/Token/ERC721A/ERC721AUpgradeable.sol\":6634:6647  string memory */\n      0x60\n        /* \"Base/Token/ERC721A/ERC721AUpgradeable.sol\":6666:6671  _name */\n      0x67\n        /* \"Base/Token/ERC721A/ERC721AUpgradeable.sol\":6659:6671  return _name */\n      dup1\n      sload\n      tag_86\n      swap1\n      tag_87\n      jump\t// in\n    tag_86:\n      dup1\n      0x1f\n      add\n      0x20\n      dup1\n      swap2\n      div\n      mul\n      0x20\n      add\n      mload(0x40)\n      swap1\n      dup2\n      add\n      0x40\n      mstore\n      dup1\n      swap3\n      swap2\n      swap1\n      dup2\n      dup2\n      mstore\n      0x20\n      add\n      dup3\n      dup1\n      sload\n      tag_88\n      swap1\n      tag_87\n      jump\t// in\n    tag_88:\n      dup1\n      iszero\n      tag_89\n      jumpi\n      dup1\n      0x1f\n      lt\n      tag_90\n      jumpi\n      0x0100\n      dup1\n      dup4\n      sload\n      div\n      mul\n      dup4\n      mstore\n      swap2\n      0x20\n      add\n      swap2\n      jump(tag_89)\n    tag_90:\n      dup3\n      add\n      swap2\n      swap1\n      0x00\n      mstore\n      keccak256(0x00, 0x20)\n      swap1\n    tag_91:\n      dup2\n      sload\n      dup2\n      mstore\n      swap1\n      0x01\n      add\n      swap1\n      0x20\n      add\n      dup1\n      dup4\n      gt\n      tag_91\n      jumpi\n      dup3\n      swap1\n      sub\n      0x1f\n      and\n      dup3\n      add\n      swap2\n    tag_89:\n      pop\n      pop\n      pop\n      pop\n      pop\n      swap1\n      pop\n        /* \"Base/Token/ERC721A/ERC721AUpgradeable.sol\":6580:6678  function name() public view virtual override returns (string memory) {... */\n      swap1\n      jump\t// out\n        /* \"Base/Token/ERC721A/ERC721AUpgradeable.sol\":8047:8247  function getApproved(uint256 tokenId) public view override returns (address) {... */\n    tag_33:\n        /* \"Base/Token/ERC721A/ERC721AUpgradeable.sol\":8115:8122  address */\n      0x00\n        /* \"Base/Token/ERC721A/ERC721AUpgradeable.sol\":8139:8155  _exists(tokenId) */\n      tag_93\n        /* \"Base/Token/ERC721A/ERC721AUpgradeable.sol\":8147:8154  tokenId */\n      dup3\n        /* \"Base/Token/ERC721A/ERC721AUpgradeable.sol\":8139:8146  _exists */\n      tag_94\n        /* \"Base/Token/ERC721A/ERC721AUpgradeable.sol\":8139:8155  _exists(tokenId) */\n      jump\t// in\n    tag_93:\n        /* \"Base/Token/ERC721A/ERC721AUpgradeable.sol\":8134:8198  if (!_exists(tokenId)) revert ApprovalQueryForNonexistentToken() */\n      tag_95\n      jumpi\n        /* \"Base/Token/ERC721A/ERC721AUpgradeable.sol\":8164:8198  ApprovalQueryForNonexistentToken() */\n      mload(0x40)\n      shl(0xe2, 0x33d1c039)\n      dup2\n      mstore\n      0x04\n      add\n      mload(0x40)\n      dup1\n      swap2\n      sub\n      swap1\n      revert\n        /* \"Base/Token/ERC721A/ERC721AUpgradeable.sol\":8134:8198  if (!_exists(tokenId)) revert ApprovalQueryForNonexistentToken() */\n    tag_95:\n      pop\n        /* \"Base/Token/ERC721A/ERC721AUpgradeable.sol\":8216:8240  _tokenApprovals[tokenId] */\n      0x00\n      swap1\n      dup2\n      mstore\n        /* \"Base/Token/ERC721A/ERC721AUpgradeable.sol\":8216:8231  _tokenApprovals */\n      0x6b\n        /* \"Base/Token/ERC721A/ERC721AUpgradeable.sol\":8216:8240  _tokenApprovals[tokenId] */\n      0x20\n      mstore\n      0x40\n      swap1\n      keccak256\n      sload\n      sub(shl(0xa0, 0x01), 0x01)\n      and\n      swap1\n        /* \"Base/Token/ERC721A/ERC721AUpgradeable.sol\":8047:8247  function getApproved(uint256 tokenId) public view override returns (address) {... */\n      jump\t// out\n        /* \"Base/Token/ERC721A/ERC721AUpgradeable.sol\":7613:7986  function approve(address to, uint256 tokenId) public override {... */\n    tag_39:\n        /* \"Base/Token/ERC721A/ERC721AUpgradeable.sol\":7685:7698  address owner */\n      0x00\n        /* \"Base/Token/ERC721A/ERC721AUpgradeable.sol\":7701:7736  ERC721AUpgradeable.ownerOf(tokenId) */\n      tag_97\n        /* \"Base/Token/ERC721A/ERC721AUpgradeable.sol\":7728:7735  tokenId */\n      dup3\n        /* \"Base/Token/ERC721A/ERC721AUpgradeable.sol\":7701:7727  ERC721AUpgradeable.ownerOf */\n      tag_53\n        /* \"Base/Token/ERC721A/ERC721AUpgradeable.sol\":7701:7736  ERC721AUpgradeable.ownerOf(tokenId) */\n      jump\t// in\n    tag_97:\n        /* \"Base/Token/ERC721A/ERC721AUpgradeable.sol\":7685:7736  address owner = ERC721AUpgradeable.ownerOf(tokenId) */\n      swap1\n      pop\n        /* \"Base/Token/ERC721A/ERC721AUpgradeable.sol\":7756:7761  owner */\n      dup1\n      sub(shl(0xa0, 0x01), 0x01)\n        /* \"Base/Token/ERC721A/ERC721AUpgradeable.sol\":7750:7761  to == owner */\n      and\n        /* \"Base/Token/ERC721A/ERC721AUpgradeable.sol\":7750:7752  to */\n      dup4\n      sub(shl(0xa0, 0x01), 0x01)\n        /* \"Base/Token/ERC721A/ERC721AUpgradeable.sol\":7750:7761  to == owner */\n      and\n      sub\n        /* \"Base/Token/ERC721A/ERC721AUpgradeable.sol\":7746:7794  if (to == owner) revert ApprovalToCurrentOwner() */\n      tag_98\n      jumpi\n        /* \"Base/Token/ERC721A/ERC721AUpgradeable.sol\":7770:7794  ApprovalToCurrentOwner() */\n      mload(0x40)\n      shl(0xe2, 0x250fdee3)\n      dup2\n      mstore\n      0x04\n      add\n      mload(0x40)\n      dup1\n      swap2\n      sub\n      swap1\n      revert\n        /* \"Base/Token/ERC721A/ERC721AUpgradeable.sol\":7746:7794  if (to == owner) revert ApprovalToCurrentOwner() */\n    tag_98:\n        /* \"@openzeppelin/contracts-upgradeable/utils/ContextUpgradeable.sol\":929:939  msg.sender */\n      caller\n      sub(shl(0xa0, 0x01), 0x01)\n        /* \"Base/Token/ERC721A/ERC721AUpgradeable.sol\":7809:7830  _msgSender() != owner */\n      dup3\n      and\n      eq\n      dup1\n      iszero\n      swap1\n        /* \"Base/Token/ERC721A/ERC721AUpgradeable.sol\":7809:7872  _msgSender() != owner && !isApprovedForAll(owner, _msgSender()) */\n      tag_101\n      jumpi\n      pop\n        /* \"Base/Token/ERC721A/ERC721AUpgradeable.sol\":7835:7872  isApprovedForAll(owner, _msgSender()) */\n      tag_102\n        /* \"Base/Token/ERC721A/ERC721AUpgradeable.sol\":7852:7857  owner */\n      dup2\n        /* \"@openzeppelin/contracts-upgradeable/utils/ContextUpgradeable.sol\":929:939  msg.sender */\n      caller\n        /* \"Base/Token/ERC721A/ERC721AUpgradeable.sol\":8662:8824  function isApprovedForAll(address owner, address operator) public view virtual override returns (bool) {... */\n      tag_76\n      jump\t// in\n        /* \"Base/Token/ERC721A/ERC721AUpgradeable.sol\":7835:7872  isApprovedForAll(owner, _msgSender()) */\n    tag_102:\n        /* \"Base/Token/ERC721A/ERC721AUpgradeable.sol\":7834:7872  !isApprovedForAll(owner, _msgSender()) */\n      iszero\n        /* \"Base/Token/ERC721A/ERC721AUpgradeable.sol\":7809:7872  _msgSender() != owner && !isApprovedForAll(owner, _msgSender()) */\n    tag_101:\n        /* \"Base/Token/ERC721A/ERC721AUpgradeable.sol\":7805:7941  if (_msgSender() != owner && !isApprovedForAll(owner, _msgSender())) {... */\n      iszero\n      tag_104\n      jumpi\n        /* \"Base/Token/ERC721A/ERC721AUpgradeable.sol\":7895:7930  ApprovalCallerNotOwnerNorApproved() */\n      mload(0x40)\n      shl(0xe1, 0x67d9dca1)\n      dup2\n      mstore\n      0x04\n      add\n      mload(0x40)\n      dup1\n      swap2\n      sub\n      swap1\n      revert\n        /* \"Base/Token/ERC721A/ERC721AUpgradeable.sol\":7805:7941  if (_msgSender() != owner && !isApprovedForAll(owner, _msgSender())) {... */\n    tag_104:\n        /* \"Base/Token/ERC721A/ERC721AUpgradeable.sol\":7951:7979  _approve(to, tokenId, owner) */\n      tag_105\n        /* \"Base/Token/ERC721A/ERC721AUpgradeable.sol\":7960:7962  to */\n      dup4\n        /* \"Base/Token/ERC721A/ERC721AUpgradeable.sol\":7964:7971  tokenId */\n      dup4\n        /* \"Base/Token/ERC721A/ERC721AUpgradeable.sol\":7973:7978  owner */\n      dup4\n        /* \"Base/Token/ERC721A/ERC721AUpgradeable.sol\":7951:7959  _approve */\n      tag_106\n        /* \"Base/Token/ERC721A/ERC721AUpgradeable.sol\":7951:7979  _approve(to, tokenId, owner) */\n      jump\t// in\n    tag_105:\n        /* \"Base/Token/ERC721A/ERC721AUpgradeable.sol\":7675:7986  {... */\n      pop\n        /* \"Base/Token/ERC721A/ERC721AUpgradeable.sol\":7613:7986  function approve(address to, uint256 tokenId) public override {... */\n      pop\n      pop\n      jump\t// out\n        /* \"Base/Token/ERC721A/ERC721AUpgradeable.sol\":8886:9050  function transferFrom(... */\n    tag_47:\n        /* \"Base/Token/ERC721A/ERC721AUpgradeable.sol\":9015:9043  _transfer(from, to, tokenId) */\n      tag_105\n        /* \"Base/Token/ERC721A/ERC721AUpgradeable.sol\":9025:9029  from */\n      dup4\n        /* \"Base/Token/ERC721A/ERC721AUpgradeable.sol\":9031:9033  to */\n      dup4\n        /* \"Base/Token/ERC721A/ERC721AUpgradeable.sol\":9035:9042  tokenId */\n      dup4\n        /* \"Base/Token/ERC721A/ERC721AUpgradeable.sol\":9015:9024  _transfer */\n      tag_112\n        /* \"Base/Token/ERC721A/ERC721AUpgradeable.sol\":9015:9043  _transfer(from, to, tokenId) */\n      jump\t// in\n        /* \"Base/Token/ERC721A/ERC721AUpgradeable.sol\":9116:9295  function safeTransferFrom(... */\n    tag_50:\n        /* \"Base/Token/ERC721A/ERC721AUpgradeable.sol\":9249:9288  safeTransferFrom(from, to, tokenId, '') */\n      tag_105\n        /* \"Base/Token/ERC721A/ERC721AUpgradeable.sol\":9266:9270  from */\n      dup4\n        /* \"Base/Token/ERC721A/ERC721AUpgradeable.sol\":9272:9274  to */\n      dup4\n        /* \"Base/Token/ERC721A/ERC721AUpgradeable.sol\":9276:9283  tokenId */\n      dup4\n        /* \"Base/Token/ERC721A/ERC721AUpgradeable.sol\":9249:9288  safeTransferFrom(from, to, tokenId, '') */\n      mload(0x40)\n      dup1\n      0x20\n      add\n      0x40\n      mstore\n      dup1\n      0x00\n      dup2\n      mstore\n      pop\n        /* \"Base/Token/ERC721A/ERC721AUpgradeable.sol\":9249:9265  safeTransferFrom */\n      tag_70\n        /* \"Base/Token/ERC721A/ERC721AUpgradeable.sol\":9249:9288  safeTransferFrom(from, to, tokenId, '') */\n      jump\t// in\n        /* \"Base/Token/ERC721A/ERC721AUpgradeable.sol\":6395:6518  function ownerOf(uint256 tokenId) public view override returns (address) {... */\n    tag_53:\n        /* \"Base/Token/ERC721A/ERC721AUpgradeable.sol\":6459:6466  address */\n      0x00\n        /* \"Base/Token/ERC721A/ERC721AUpgradeable.sol\":6485:6506  _ownershipOf(tokenId) */\n      tag_116\n        /* \"Base/Token/ERC721A/ERC721AUpgradeable.sol\":6498:6505  tokenId */\n      dup3\n        /* \"Base/Token/ERC721A/ERC721AUpgradeable.sol\":6485:6497  _ownershipOf */\n      tag_117\n        /* \"Base/Token/ERC721A/ERC721AUpgradeable.sol\":6485:6506  _ownershipOf(tokenId) */\n      jump\t// in\n    tag_116:\n        /* \"Base/Token/ERC721A/ERC721AUpgradeable.sol\":6485:6511  _ownershipOf(tokenId).addr */\n      mload\n      swap3\n        /* \"Base/Token/ERC721A/ERC721AUpgradeable.sol\":6395:6518  function ownerOf(uint256 tokenId) public view override returns (address) {... */\n      swap2\n      pop\n      pop\n      jump\t// out\n        /* \"Base/Token/ERC721A/ERC721AUpgradeable.sol\":3911:4114  function balanceOf(address owner) public view override returns (uint256) {... */\n    tag_58:\n        /* \"Base/Token/ERC721A/ERC721AUpgradeable.sol\":3975:3982  uint256 */\n      0x00\n      sub(shl(0xa0, 0x01), 0x01)\n        /* \"Base/Token/ERC721A/ERC721AUpgradeable.sol\":3998:4017  owner == address(0) */\n      dup3\n      and\n        /* \"Base/Token/ERC721A/ERC721AUpgradeable.sol\":3994:4054  if (owner == address(0)) revert BalanceQueryForZeroAddress() */\n      tag_119\n      jumpi\n        /* \"Base/Token/ERC721A/ERC721AUpgradeable.sol\":4026:4054  BalanceQueryForZeroAddress() */\n      mload(0x40)\n      shl(0xe2, 0x23d3ad81)\n      dup2\n      mstore\n      0x04\n      add\n      mload(0x40)\n      dup1\n      swap2\n      sub\n      swap1\n      revert\n        /* \"Base/Token/ERC721A/ERC721AUpgradeable.sol\":3994:4054  if (owner == address(0)) revert BalanceQueryForZeroAddress() */\n    tag_119:\n      pop\n      sub(shl(0xa0, 0x01), 0x01)\n        /* \"Base/Token/ERC721A/ERC721AUpgradeable.sol\":4079:4098  _addressData[owner] */\n      and\n      0x00\n      swap1\n      dup2\n      mstore\n        /* \"Base/Token/ERC721A/ERC721AUpgradeable.sol\":4079:4091  _addressData */\n      0x6a\n        /* \"Base/Token/ERC721A/ERC721AUpgradeable.sol\":4079:4098  _addressData[owner] */\n      0x20\n      mstore\n      0x40\n      swap1\n      keccak256\n        /* \"Base/Token/ERC721A/ERC721AUpgradeable.sol\":4079:4106  _addressData[owner].balance */\n      sload\n      0xffffffffffffffff\n      and\n      swap1\n        /* \"Base/Token/ERC721A/ERC721AUpgradeable.sol\":3911:4114  function balanceOf(address owner) public view override returns (uint256) {... */\n      jump\t// out\n        /* \"Base/Token/ERC721A/ERC721AUpgradeable.sol\":6742:6844  function symbol() public view virtual override returns (string memory) {... */\n    tag_61:\n        /* \"Base/Token/ERC721A/ERC721AUpgradeable.sol\":6798:6811  string memory */\n      0x60\n        /* \"Base/Token/ERC721A/ERC721AUpgradeable.sol\":6830:6837  _symbol */\n      0x68\n        /* \"Base/Token/ERC721A/ERC721AUpgradeable.sol\":6823:6837  return _symbol */\n      dup1\n      sload\n      tag_86\n      swap1\n      tag_87\n      jump\t// in\n        /* \"Base/Token/ERC721A/ERC721AUpgradeable.sol\":8314:8596  function setApprovalForAll(address operator, bool approved) public virtual override {... */\n    tag_66:\n        /* \"@openzeppelin/contracts-upgradeable/utils/ContextUpgradeable.sol\":929:939  msg.sender */\n      caller\n      sub(shl(0xa0, 0x01), 0x01)\n        /* \"Base/Token/ERC721A/ERC721AUpgradeable.sol\":8412:8436  operator == _msgSender() */\n      dup4\n      and\n      sub\n        /* \"Base/Token/ERC721A/ERC721AUpgradeable.sol\":8408:8462  if (operator == _msgSender()) revert ApproveToCaller() */\n      tag_128\n      jumpi\n        /* \"Base/Token/ERC721A/ERC721AUpgradeable.sol\":8445:8462  ApproveToCaller() */\n      mload(0x40)\n      shl(0xe0, 0xb06307db)\n      dup2\n      mstore\n      0x04\n      add\n      mload(0x40)\n      dup1\n      swap2\n      sub\n      swap1\n      revert\n        /* \"Base/Token/ERC721A/ERC721AUpgradeable.sol\":8408:8462  if (operator == _msgSender()) revert ApproveToCaller() */\n    tag_128:\n        /* \"@openzeppelin/contracts-upgradeable/utils/ContextUpgradeable.sol\":929:939  msg.sender */\n      caller\n        /* \"Base/Token/ERC721A/ERC721AUpgradeable.sol\":8473:8505  _operatorApprovals[_msgSender()] */\n      0x00\n      dup2\n      dup2\n      mstore\n        /* \"Base/Token/ERC721A/ERC721AUpgradeable.sol\":8473:8491  _operatorApprovals */\n      0x6c\n        /* \"Base/Token/ERC721A/ERC721AUpgradeable.sol\":8473:8505  _operatorApprovals[_msgSender()] */\n      0x20\n      swap1\n      dup2\n      mstore\n      0x40\n      dup1\n      dup4\n      keccak256\n      sub(shl(0xa0, 0x01), 0x01)\n        /* \"Base/Token/ERC721A/ERC721AUpgradeable.sol\":8473:8515  _operatorApprovals[_msgSender()][operator] */\n      dup8\n      and\n      dup1\n      dup6\n      mstore\n      swap1\n      dup4\n      mstore\n      swap3\n      dup2\n      swap1\n      keccak256\n        /* \"Base/Token/ERC721A/ERC721AUpgradeable.sol\":8473:8526  _operatorApprovals[_msgSender()][operator] = approved */\n      dup1\n      sload\n      not(0xff)\n      and\n      dup7\n      iszero\n      iszero\n      swap1\n      dup2\n      or\n      swap1\n      swap2\n      sstore\n        /* \"Base/Token/ERC721A/ERC721AUpgradeable.sol\":8541:8589  ApprovalForAll(_msgSender(), operator, approved) */\n      swap1\n      mload\n        /* \"#utility.yul\":540:581   */\n      swap1\n      dup2\n      mstore\n        /* \"Base/Token/ERC721A/ERC721AUpgradeable.sol\":8473:8515  _operatorApprovals[_msgSender()][operator] */\n      swap2\n      swap3\n        /* \"@openzeppelin/contracts-upgradeable/utils/ContextUpgradeable.sol\":929:939  msg.sender */\n      swap2\n        /* \"Base/Token/ERC721A/ERC721AUpgradeable.sol\":8541:8589  ApprovalForAll(_msgSender(), operator, approved) */\n      0x17307eab39ab6107e8899845ad3d59bd9653f200f220920489ca2b5937696c31\n      swap2\n        /* \"#utility.yul\":513:531   */\n      add\n        /* \"Base/Token/ERC721A/ERC721AUpgradeable.sol\":8541:8589  ApprovalForAll(_msgSender(), operator, approved) */\n      mload(0x40)\n      dup1\n      swap2\n      sub\n      swap1\n      log3\n        /* \"Base/Token/ERC721A/ERC721AUpgradeable.sol\":8314:8596  function setApprovalForAll(address operator, bool approved) public virtual override {... */\n      pop\n      pop\n      jump\t// out\n        /* \"Base/Token/ERC721A/ERC721AUpgradeable.sol\":9361:9720  function safeTransferFrom(... */\n    tag_70:\n        /* \"Base/Token/ERC721A/ERC721AUpgradeable.sol\":9522:9550  _transfer(from, to, tokenId) */\n      tag_133\n        /* \"Base/Token/ERC721A/ERC721AUpgradeable.sol\":9532:9536  from */\n      dup5\n        /* \"Base/Token/ERC721A/ERC721AUpgradeable.sol\":9538:9540  to */\n      dup5\n        /* \"Base/Token/ERC721A/ERC721AUpgradeable.sol\":9542:9549  tokenId */\n      dup5\n        /* \"Base/Token/ERC721A/ERC721AUpgradeable.sol\":9522:9531  _transfer */\n      tag_112\n        /* \"Base/Token/ERC721A/ERC721AUpgradeable.sol\":9522:9550  _transfer(from, to, tokenId) */\n      jump\t// in\n    tag_133:\n      sub(shl(0xa0, 0x01), 0x01)\n        /* \"Base/Token/ERC721A/ERC721AUpgradeable.sol\":9564:9577  to.isContract */\n      dup4\n      and\n        /* \"@openzeppelin/contracts-upgradeable/utils/AddressUpgradeable.sol\":1476:1495  account.code.length */\n      extcodesize\n        /* \"@openzeppelin/contracts-upgradeable/utils/AddressUpgradeable.sol\":1476:1499  account.code.length > 0 */\n      iszero\n      iszero\n        /* \"Base/Token/ERC721A/ERC721AUpgradeable.sol\":9564:9640  to.isContract() && !_checkContractOnERC721Received(from, to, tokenId, _data) */\n      dup1\n      iszero\n      tag_136\n      jumpi\n      pop\n        /* \"Base/Token/ERC721A/ERC721AUpgradeable.sol\":9584:9640  _checkContractOnERC721Received(from, to, tokenId, _data) */\n      tag_137\n        /* \"Base/Token/ERC721A/ERC721AUpgradeable.sol\":9615:9619  from */\n      dup5\n        /* \"Base/Token/ERC721A/ERC721AUpgradeable.sol\":9621:9623  to */\n      dup5\n        /* \"Base/Token/ERC721A/ERC721AUpgradeable.sol\":9625:9632  tokenId */\n      dup5\n        /* \"Base/Token/ERC721A/ERC721AUpgradeable.sol\":9634:9639  _data */\n      dup5\n        /* \"Base/Token/ERC721A/ERC721AUpgradeable.sol\":9584:9614  _checkContractOnERC721Received */\n      tag_138\n        /* \"Base/Token/ERC721A/ERC721AUpgradeable.sol\":9584:9640  _checkContractOnERC721Received(from, to, tokenId, _data) */\n      jump\t// in\n    tag_137:\n        /* \"Base/Token/ERC721A/ERC721AUpgradeable.sol\":9583:9640  !_checkContractOnERC721Received(from, to, tokenId, _data) */\n      iszero\n        /* \"Base/Token/ERC721A/ERC721AUpgradeable.sol\":9564:9640  to.isContract() && !_checkContractOnERC721Received(from, to, tokenId, _data) */\n    tag_136:\n        /* \"Base/Token/ERC721A/ERC721AUpgradeable.sol\":9560:9714  if (to.isContract() && !_checkContractOnERC721Received(from, to, tokenId, _data)) {... */\n      iszero\n      tag_139\n      jumpi\n        /* \"Base/Token/ERC721A/ERC721AUpgradeable.sol\":9663:9703  TransferToNonERC721ReceiverImplementer() */\n      mload(0x40)\n      shl(0xe1, 0x68d2bf6b)\n      dup2\n      mstore\n      0x04\n      add\n      mload(0x40)\n      dup1\n      swap2\n      sub\n      swap1\n      revert\n        /* \"Base/Token/ERC721A/ERC721AUpgradeable.sol\":9560:9714  if (to.isContract() && !_checkContractOnERC721Received(from, to, tokenId, _data)) {... */\n    tag_139:\n        /* \"Base/Token/ERC721A/ERC721AUpgradeable.sol\":9361:9720  function safeTransferFrom(... */\n      pop\n      pop\n      pop\n      pop\n      jump\t// out\n        /* \"Base/Token/ERC721A/ERC721AUpgradeable.sol\":6910:7223  function tokenURI(uint256 tokenId) public view virtual override returns (string memory) {... */\n    tag_73:\n        /* \"Base/Token/ERC721A/ERC721AUpgradeable.sol\":6983:6996  string memory */\n      0x60\n        /* \"Base/Token/ERC721A/ERC721AUpgradeable.sol\":7013:7029  _exists(tokenId) */\n      tag_141\n        /* \"Base/Token/ERC721A/ERC721AUpgradeable.sol\":7021:7028  tokenId */\n      dup3\n        /* \"Base/Token/ERC721A/ERC721AUpgradeable.sol\":7013:7020  _exists */\n      tag_94\n        /* \"Base/Token/ERC721A/ERC721AUpgradeable.sol\":7013:7029  _exists(tokenId) */\n      jump\t// in\n    tag_141:\n        /* \"Base/Token/ERC721A/ERC721AUpgradeable.sol\":7008:7067  if (!_exists(tokenId)) revert URIQueryForNonexistentToken() */\n      tag_142\n      jumpi\n        /* \"Base/Token/ERC721A/ERC721AUpgradeable.sol\":7038:7067  URIQueryForNonexistentToken() */\n      mload(0x40)\n      shl(0xe4, 0x0a14c4b5)\n      dup2\n      mstore\n      0x04\n      add\n      mload(0x40)\n      dup1\n      swap2\n      sub\n      swap1\n      revert\n        /* \"Base/Token/ERC721A/ERC721AUpgradeable.sol\":7008:7067  if (!_exists(tokenId)) revert URIQueryForNonexistentToken() */\n    tag_142:\n        /* \"Base/Token/ERC721A/ERC721AUpgradeable.sol\":7078:7099  string memory baseURI */\n      0x00\n        /* \"Base/Token/ERC721A/ERC721AUpgradeable.sol\":7102:7112  _baseURI() */\n      tag_143\n        /* \"Base/Token/ERC721A/ERC721AUpgradeable.sol\":7540:7549  return '' */\n      0x40\n      dup1\n      mload\n      0x20\n      dup2\n      add\n      swap1\n      swap2\n      mstore\n      0x00\n      dup2\n      mstore\n      swap1\n        /* \"Base/Token/ERC721A/ERC721AUpgradeable.sol\":7464:7556  function _baseURI() internal view virtual returns (string memory) {... */\n      jump\n        /* \"Base/Token/ERC721A/ERC721AUpgradeable.sol\":7102:7112  _baseURI() */\n    tag_143:\n        /* \"Base/Token/ERC721A/ERC721AUpgradeable.sol\":7078:7112  string memory baseURI = _baseURI() */\n      swap1\n      pop\n        /* \"Base/Token/ERC721A/ERC721AUpgradeable.sol\":7135:7142  baseURI */\n      dup1\n        /* \"Base/Token/ERC721A/ERC721AUpgradeable.sol\":7129:7150  bytes(baseURI).length */\n      mload\n        /* \"Base/Token/ERC721A/ERC721AUpgradeable.sol\":7154:7155  0 */\n      0x00\n        /* \"Base/Token/ERC721A/ERC721AUpgradeable.sol\":7129:7155  bytes(baseURI).length != 0 */\n      sub\n        /* \"Base/Token/ERC721A/ERC721AUpgradeable.sol\":7129:7216  bytes(baseURI).length != 0 ? string(abi.encodePacked(baseURI, tokenId.toString())) : '' */\n      tag_145\n      jumpi\n      mload(0x40)\n      dup1\n      0x20\n      add\n      0x40\n      mstore\n      dup1\n      0x00\n      dup2\n      mstore\n      pop\n      jump(tag_146)\n    tag_145:\n        /* \"Base/Token/ERC721A/ERC721AUpgradeable.sol\":7182:7189  baseURI */\n      dup1\n        /* \"Base/Token/ERC721A/ERC721AUpgradeable.sol\":7191:7209  tokenId.toString() */\n      tag_147\n        /* \"Base/Token/ERC721A/ERC721AUpgradeable.sol\":7191:7198  tokenId */\n      dup5\n        /* \"Base/Token/ERC721A/ERC721AUpgradeable.sol\":7191:7207  tokenId.toString */\n      tag_148\n        /* \"Base/Token/ERC721A/ERC721AUpgradeable.sol\":7191:7209  tokenId.toString() */\n      jump\t// in\n    tag_147:\n        /* \"Base/Token/ERC721A/ERC721AUpgradeable.sol\":7165:7210  abi.encodePacked(baseURI, tokenId.toString()) */\n      add(0x20, mload(0x40))\n      tag_149\n      swap3\n      swap2\n      swap1\n      tag_150\n      jump\t// in\n    tag_149:\n      mload(0x40)\n      0x20\n      dup2\n      dup4\n      sub\n      sub\n      dup2\n      mstore\n      swap1\n      0x40\n      mstore\n        /* \"Base/Token/ERC721A/ERC721AUpgradeable.sol\":7129:7216  bytes(baseURI).length != 0 ? string(abi.encodePacked(baseURI, tokenId.toString())) : '' */\n    tag_146:\n        /* \"Base/Token/ERC721A/ERC721AUpgradeable.sol\":7122:7216  return bytes(baseURI).length != 0 ? string(abi.encodePacked(baseURI, tokenId.toString())) : '' */\n      swap4\n        /* \"Base/Token/ERC721A/ERC721AUpgradeable.sol\":6910:7223  function tokenURI(uint256 tokenId) public view virtual override returns (string memory) {... */\n      swap3\n      pop\n      pop\n      pop\n      jump\t// out\n        /* \"Base/Token/ERC721A/ERC721AUpgradeable.sol\":9966:10138  function _exists(uint256 tokenId) internal view returns (bool) {... */\n    tag_94:\n        /* \"Base/Token/ERC721A/ERC721AUpgradeable.sol\":10023:10027  bool */\n      0x00\n        /* \"Base/Token/ERC721A/ERC721AUpgradeable.sol\":10086:10099  _currentIndex */\n      sload(0x65)\n        /* \"Base/Token/ERC721A/ERC721AUpgradeable.sol\":10076:10083  tokenId */\n      dup3\n        /* \"Base/Token/ERC721A/ERC721AUpgradeable.sol\":10076:10099  tokenId < _currentIndex */\n      lt\n        /* \"Base/Token/ERC721A/ERC721AUpgradeable.sol\":10046:10131  _startTokenId() <= tokenId && tokenId < _currentIndex && !_ownerships[tokenId].burned */\n      dup1\n      iszero\n      tag_83\n      jumpi\n      pop\n      pop\n        /* \"Base/Token/ERC721A/ERC721AUpgradeable.sol\":10104:10124  _ownerships[tokenId] */\n      0x00\n      swap1\n      dup2\n      mstore\n        /* \"Base/Token/ERC721A/ERC721AUpgradeable.sol\":10104:10115  _ownerships */\n      0x69\n        /* \"Base/Token/ERC721A/ERC721AUpgradeable.sol\":10104:10124  _ownerships[tokenId] */\n      0x20\n      mstore\n      0x40\n      swap1\n      keccak256\n        /* \"Base/Token/ERC721A/ERC721AUpgradeable.sol\":10104:10131  _ownerships[tokenId].burned */\n      sload\n      shl(0xe0, 0x01)\n      swap1\n      div\n      0xff\n      and\n        /* \"Base/Token/ERC721A/ERC721AUpgradeable.sol\":10103:10131  !_ownerships[tokenId].burned */\n      iszero\n      swap1\n        /* \"Base/Token/ERC721A/ERC721AUpgradeable.sol\":9966:10138  function _exists(uint256 tokenId) internal view returns (bool) {... */\n      jump\t// out\n        /* \"Base/Token/ERC721A/ERC721AUpgradeable.sol\":18950:19139  function _approve(... */\n    tag_106:\n        /* \"Base/Token/ERC721A/ERC721AUpgradeable.sol\":19060:19084  _tokenApprovals[tokenId] */\n      0x00\n      dup3\n      dup2\n      mstore\n        /* \"Base/Token/ERC721A/ERC721AUpgradeable.sol\":19060:19075  _tokenApprovals */\n      0x6b\n        /* \"Base/Token/ERC721A/ERC721AUpgradeable.sol\":19060:19084  _tokenApprovals[tokenId] */\n      0x20\n      mstore\n      0x40\n      dup1\n      dup3\n      keccak256\n        /* \"Base/Token/ERC721A/ERC721AUpgradeable.sol\":19060:19089  _tokenApprovals[tokenId] = to */\n      dup1\n      sload\n      not(sub(shl(0xa0, 0x01), 0x01))\n      and\n      sub(shl(0xa0, 0x01), 0x01)\n      dup8\n      dup2\n      and\n      swap2\n      dup3\n      or\n      swap1\n      swap3\n      sstore\n        /* \"Base/Token/ERC721A/ERC721AUpgradeable.sol\":19104:19132  Approval(owner, to, tokenId) */\n      swap2\n      mload\n        /* \"Base/Token/ERC721A/ERC721AUpgradeable.sol\":19060:19084  _tokenApprovals[tokenId] */\n      dup6\n      swap4\n        /* \"Base/Token/ERC721A/ERC721AUpgradeable.sol\":19104:19132  Approval(owner, to, tokenId) */\n      swap2\n      dup6\n      and\n      swap2\n      0x8c5be1e5ebec7d5bd14f71427d1e84f3dd0314c0f7b2291e5b200ac8c7c3b925\n      swap2\n      log4\n        /* \"Base/Token/ERC721A/ERC721AUpgradeable.sol\":18950:19139  function _approve(... */\n      pop\n      pop\n      pop\n      jump\t// out\n        /* \"Base/Token/ERC721A/ERC721AUpgradeable.sol\":14025:16107  function _transfer(... */\n    tag_112:\n        /* \"Base/Token/ERC721A/ERC721AUpgradeable.sol\":14135:14170  TokenOwnership memory prevOwnership */\n      0x00\n        /* \"Base/Token/ERC721A/ERC721AUpgradeable.sol\":14173:14194  _ownershipOf(tokenId) */\n      tag_161\n        /* \"Base/Token/ERC721A/ERC721AUpgradeable.sol\":14186:14193  tokenId */\n      dup3\n        /* \"Base/Token/ERC721A/ERC721AUpgradeable.sol\":14173:14185  _ownershipOf */\n      tag_117\n        /* \"Base/Token/ERC721A/ERC721AUpgradeable.sol\":14173:14194  _ownershipOf(tokenId) */\n      jump\t// in\n    tag_161:\n        /* \"Base/Token/ERC721A/ERC721AUpgradeable.sol\":14135:14194  TokenOwnership memory prevOwnership = _ownershipOf(tokenId) */\n      swap1\n      pop\n        /* \"Base/Token/ERC721A/ERC721AUpgradeable.sol\":14231:14235  from */\n      dup4\n      sub(shl(0xa0, 0x01), 0x01)\n        /* \"Base/Token/ERC721A/ERC721AUpgradeable.sol\":14209:14235  prevOwnership.addr != from */\n      and\n        /* \"Base/Token/ERC721A/ERC721AUpgradeable.sol\":14209:14222  prevOwnership */\n      dup2\n        /* \"Base/Token/ERC721A/ERC721AUpgradeable.sol\":14209:14227  prevOwnership.addr */\n      0x00\n      add\n      mload\n      sub(shl(0xa0, 0x01), 0x01)\n        /* \"Base/Token/ERC721A/ERC721AUpgradeable.sol\":14209:14235  prevOwnership.addr != from */\n      and\n      eq\n        /* \"Base/Token/ERC721A/ERC721AUpgradeable.sol\":14205:14272  if (prevOwnership.addr != from) revert TransferFromIncorrectOwner() */\n      tag_162\n      jumpi\n        /* \"Base/Token/ERC721A/ERC721AUpgradeable.sol\":14244:14272  TransferFromIncorrectOwner() */\n      mload(0x40)\n      shl(0xe8, 0xa11481)\n      dup2\n      mstore\n      0x04\n      add\n      mload(0x40)\n      dup1\n      swap2\n      sub\n      swap1\n      revert\n        /* \"Base/Token/ERC721A/ERC721AUpgradeable.sol\":14205:14272  if (prevOwnership.addr != from) revert TransferFromIncorrectOwner() */\n    tag_162:\n        /* \"Base/Token/ERC721A/ERC721AUpgradeable.sol\":14283:14305  bool isApprovedOrOwner */\n      0x00\n        /* \"@openzeppelin/contracts-upgradeable/utils/ContextUpgradeable.sol\":929:939  msg.sender */\n      caller\n      sub(shl(0xa0, 0x01), 0x01)\n        /* \"Base/Token/ERC721A/ERC721AUpgradeable.sol\":14309:14329  _msgSender() == from */\n      dup7\n      and\n      eq\n      dup1\n        /* \"Base/Token/ERC721A/ERC721AUpgradeable.sol\":14309:14381  _msgSender() == from ||... */\n      tag_165\n      jumpi\n      pop\n        /* \"Base/Token/ERC721A/ERC721AUpgradeable.sol\":14345:14381  isApprovedForAll(from, _msgSender()) */\n      tag_165\n        /* \"Base/Token/ERC721A/ERC721AUpgradeable.sol\":14362:14366  from */\n      dup6\n        /* \"@openzeppelin/contracts-upgradeable/utils/ContextUpgradeable.sol\":929:939  msg.sender */\n      caller\n        /* \"Base/Token/ERC721A/ERC721AUpgradeable.sol\":8662:8824  function isApprovedForAll(address owner, address operator) public view virtual override returns (bool) {... */\n      tag_76\n      jump\t// in\n        /* \"Base/Token/ERC721A/ERC721AUpgradeable.sol\":14345:14381  isApprovedForAll(from, _msgSender()) */\n    tag_165:\n        /* \"Base/Token/ERC721A/ERC721AUpgradeable.sol\":14309:14433  _msgSender() == from ||... */\n      dup1\n      tag_167\n      jumpi\n      pop\n        /* \"@openzeppelin/contracts-upgradeable/utils/ContextUpgradeable.sol\":929:939  msg.sender */\n      caller\n        /* \"Base/Token/ERC721A/ERC721AUpgradeable.sol\":14397:14417  getApproved(tokenId) */\n      tag_169\n        /* \"Base/Token/ERC721A/ERC721AUpgradeable.sol\":14409:14416  tokenId */\n      dup5\n        /* \"Base/Token/ERC721A/ERC721AUpgradeable.sol\":14397:14408  getApproved */\n      tag_33\n        /* \"Base/Token/ERC721A/ERC721AUpgradeable.sol\":14397:14417  getApproved(tokenId) */\n      jump\t// in\n    tag_169:\n      sub(shl(0xa0, 0x01), 0x01)\n        /* \"Base/Token/ERC721A/ERC721AUpgradeable.sol\":14397:14433  getApproved(tokenId) == _msgSender() */\n      and\n      eq\n        /* \"Base/Token/ERC721A/ERC721AUpgradeable.sol\":14309:14433  _msgSender() == from ||... */\n    tag_167:\n        /* \"Base/Token/ERC721A/ERC721AUpgradeable.sol\":14283:14434  bool isApprovedOrOwner = (_msgSender() == from ||... */\n      swap1\n      pop\n        /* \"Base/Token/ERC721A/ERC721AUpgradeable.sol\":14450:14467  isApprovedOrOwner */\n      dup1\n        /* \"Base/Token/ERC721A/ERC721AUpgradeable.sol\":14445:14511  if (!isApprovedOrOwner) revert TransferCallerNotOwnerNorApproved() */\n      tag_170\n      jumpi\n        /* \"Base/Token/ERC721A/ERC721AUpgradeable.sol\":14476:14511  TransferCallerNotOwnerNorApproved() */\n      mload(0x40)\n      shl(0xe1, 0x2ce44b5f)\n      dup2\n      mstore\n      0x04\n      add\n      mload(0x40)\n      dup1\n      swap2\n      sub\n      swap1\n      revert\n        /* \"Base/Token/ERC721A/ERC721AUpgradeable.sol\":14445:14511  if (!isApprovedOrOwner) revert TransferCallerNotOwnerNorApproved() */\n    tag_170:\n      sub(shl(0xa0, 0x01), 0x01)\n        /* \"Base/Token/ERC721A/ERC721AUpgradeable.sol\":14525:14541  to == address(0) */\n      dup5\n      and\n        /* \"Base/Token/ERC721A/ERC721AUpgradeable.sol\":14521:14573  if (to == address(0)) revert TransferToZeroAddress() */\n      tag_171\n      jumpi\n        /* \"Base/Token/ERC721A/ERC721AUpgradeable.sol\":14550:14573  TransferToZeroAddress() */\n      mload(0x40)\n      shl(0xe2, 0x3a954ecd)\n      dup2\n      mstore\n      0x04\n      add\n      mload(0x40)\n      dup1\n      swap2\n      sub\n      swap1\n      revert\n        /* \"Base/Token/ERC721A/ERC721AUpgradeable.sol\":14521:14573  if (to == address(0)) revert TransferToZeroAddress() */\n    tag_171:\n        /* \"Base/Token/ERC721A/ERC721AUpgradeable.sol\":14689:14724  _approve(address(0), tokenId, from) */\n      tag_174\n        /* \"Base/Token/ERC721A/ERC721AUpgradeable.sol\":14706:14707  0 */\n      0x00\n        /* \"Base/Token/ERC721A/ERC721AUpgradeable.sol\":14710:14717  tokenId */\n      dup5\n        /* \"Base/Token/ERC721A/ERC721AUpgradeable.sol\":14719:14723  from */\n      dup8\n        /* \"Base/Token/ERC721A/ERC721AUpgradeable.sol\":14689:14697  _approve */\n      tag_106\n        /* \"Base/Token/ERC721A/ERC721AUpgradeable.sol\":14689:14724  _approve(address(0), tokenId, from) */\n      jump\t// in\n    tag_174:\n      sub(shl(0xa0, 0x01), 0x01)\n        /* \"Base/Token/ERC721A/ERC721AUpgradeable.sol\":15014:15032  _addressData[from] */\n      dup6\n      dup2\n      and\n      0x00\n      swap1\n      dup2\n      mstore\n        /* \"Base/Token/ERC721A/ERC721AUpgradeable.sol\":15014:15026  _addressData */\n      0x6a\n        /* \"Base/Token/ERC721A/ERC721AUpgradeable.sol\":15014:15032  _addressData[from] */\n      0x20\n      swap1\n      dup2\n      mstore\n      0x40\n      dup1\n      dup4\n      keccak256\n        /* \"Base/Token/ERC721A/ERC721AUpgradeable.sol\":15014:15045  _addressData[from].balance -= 1 */\n      dup1\n      sload\n      not(0xffffffffffffffff)\n      dup1\n      dup3\n      and\n      0xffffffffffffffff\n      swap3\n      dup4\n      and\n      not(0x00)\n      add\n      dup4\n      and\n      or\n      swap1\n      swap3\n      sstore\n        /* \"Base/Token/ERC721A/ERC721AUpgradeable.sol\":15059:15075  _addressData[to] */\n      dup10\n      dup7\n      and\n      dup1\n      dup7\n      mstore\n      dup4\n      dup7\n      keccak256\n        /* \"Base/Token/ERC721A/ERC721AUpgradeable.sol\":15059:15088  _addressData[to].balance += 1 */\n      dup1\n      sload\n      swap4\n      dup5\n      and\n      swap4\n      dup4\n      and\n      0x01\n      swap1\n      dup2\n      add\n      dup5\n      and\n      swap5\n      swap1\n      swap5\n      or\n      swap1\n      sstore\n        /* \"Base/Token/ERC721A/ERC721AUpgradeable.sol\":15137:15157  _ownerships[tokenId] */\n      dup10\n      dup7\n      mstore\n        /* \"Base/Token/ERC721A/ERC721AUpgradeable.sol\":15137:15148  _ownerships */\n      0x69\n        /* \"Base/Token/ERC721A/ERC721AUpgradeable.sol\":15137:15157  _ownerships[tokenId] */\n      swap1\n      swap5\n      mstore\n      dup3\n      dup6\n      keccak256\n        /* \"Base/Token/ERC721A/ERC721AUpgradeable.sol\":15171:15189  currSlot.addr = to */\n      dup1\n      sload\n      not(sub(shl(0xe0, 0x01), 0x01))\n        /* \"Base/Token/ERC721A/ERC721AUpgradeable.sol\":15203:15252  currSlot.startTimestamp = uint64(block.timestamp) */\n      and\n      swap1\n      swap5\n      or\n      shl(0xa0, 0x01)\n        /* \"Base/Token/ERC721A/ERC721AUpgradeable.sol\":15236:15251  block.timestamp */\n      timestamp\n        /* \"Base/Token/ERC721A/ERC721AUpgradeable.sol\":15203:15252  currSlot.startTimestamp = uint64(block.timestamp) */\n      swap1\n      swap3\n      and\n      swap2\n      swap1\n      swap2\n      mul\n      or\n      dup4\n      sstore\n        /* \"Base/Token/ERC721A/ERC721AUpgradeable.sol\":15522:15533  tokenId + 1 */\n      dup8\n      add\n        /* \"Base/Token/ERC721A/ERC721AUpgradeable.sol\":15581:15605  _ownerships[nextTokenId] */\n      dup1\n      dup5\n      mstore\n      swap3\n      keccak256\n        /* \"Base/Token/ERC721A/ERC721AUpgradeable.sol\":15623:15636  nextSlot.addr */\n      dup1\n      sload\n        /* \"Base/Token/ERC721A/ERC721AUpgradeable.sol\":15137:15157  _ownerships[tokenId] */\n      swap2\n      swap4\n        /* \"Base/Token/ERC721A/ERC721AUpgradeable.sol\":15581:15605  _ownerships[nextTokenId] */\n      swap1\n      swap2\n        /* \"Base/Token/ERC721A/ERC721AUpgradeable.sol\":15623:15636  nextSlot.addr */\n      and\n        /* \"Base/Token/ERC721A/ERC721AUpgradeable.sol\":15619:15996  if (nextSlot.addr == address(0)) {... */\n      tag_176\n      jumpi\n        /* \"Base/Token/ERC721A/ERC721AUpgradeable.sol\":15830:15843  _currentIndex */\n      sload(0x65)\n        /* \"Base/Token/ERC721A/ERC721AUpgradeable.sol\":15815:15826  nextTokenId */\n      dup3\n        /* \"Base/Token/ERC721A/ERC721AUpgradeable.sol\":15815:15843  nextTokenId != _currentIndex */\n      eq\n        /* \"Base/Token/ERC721A/ERC721AUpgradeable.sol\":15811:15982  if (nextTokenId != _currentIndex) {... */\n      tag_176\n      jumpi\n        /* \"Base/Token/ERC721A/ERC721AUpgradeable.sol\":15867:15887  nextSlot.addr = from */\n      dup1\n      sload\n        /* \"Base/Token/ERC721A/ERC721AUpgradeable.sol\":15935:15963  prevOwnership.startTimestamp */\n      0x20\n      dup7\n      add\n      mload\n        /* \"Base/Token/ERC721A/ERC721AUpgradeable.sol\":15909:15963  nextSlot.startTimestamp = prevOwnership.startTimestamp */\n      0xffffffffffffffff\n      and\n      shl(0xa0, 0x01)\n      mul\n      not(sub(shl(0xe0, 0x01), 0x01))\n      swap1\n      swap2\n      and\n      sub(shl(0xa0, 0x01), 0x01)\n        /* \"Base/Token/ERC721A/ERC721AUpgradeable.sol\":15867:15887  nextSlot.addr = from */\n      dup11\n      and\n        /* \"Base/Token/ERC721A/ERC721AUpgradeable.sol\":15909:15963  nextSlot.startTimestamp = prevOwnership.startTimestamp */\n      or\n      or\n      dup2\n      sstore\n        /* \"Base/Token/ERC721A/ERC721AUpgradeable.sol\":15811:15982  if (nextTokenId != _currentIndex) {... */\n    tag_176:\n        /* \"Base/Token/ERC721A/ERC721AUpgradeable.sol\":14990:16006  unchecked {... */\n      pop\n      pop\n      pop\n        /* \"Base/Token/ERC721A/ERC721AUpgradeable.sol\":16040:16047  tokenId */\n      dup3\n        /* \"Base/Token/ERC721A/ERC721AUpgradeable.sol\":16036:16038  to */\n      dup5\n      sub(shl(0xa0, 0x01), 0x01)\n        /* \"Base/Token/ERC721A/ERC721AUpgradeable.sol\":16021:16048  Transfer(from, to, tokenId) */\n      and\n        /* \"Base/Token/ERC721A/ERC721AUpgradeable.sol\":16030:16034  from */\n      dup7\n      sub(shl(0xa0, 0x01), 0x01)\n        /* \"Base/Token/ERC721A/ERC721AUpgradeable.sol\":16021:16048  Transfer(from, to, tokenId) */\n      and\n      0xddf252ad1be2c89b69c2b068fc378daa952ba7f163c4a11628f55a4df523b3ef\n      mload(0x40)\n      mload(0x40)\n      dup1\n      swap2\n      sub\n      swap1\n      log4\n        /* \"Base/Token/ERC721A/ERC721AUpgradeable.sol\":14125:16107  {... */\n      pop\n      pop\n        /* \"Base/Token/ERC721A/ERC721AUpgradeable.sol\":14025:16107  function _transfer(... */\n      pop\n      pop\n      pop\n      jump\t// out\n        /* \"Base/Token/ERC721A/ERC721AUpgradeable.sol\":5254:6338  function _ownershipOf(uint256 tokenId) internal view returns (TokenOwnership memory) {... */\n    tag_117:\n      0x40\n      dup1\n      mload\n      0x60\n      dup2\n      add\n      dup3\n      mstore\n      0x00\n      dup1\n      dup3\n      mstore\n      0x20\n      dup3\n      add\n      dup2\n      swap1\n      mstore\n      swap2\n      dup2\n      add\n      swap2\n      swap1\n      swap2\n      mstore\n        /* \"Base/Token/ERC721A/ERC721AUpgradeable.sol\":5364:5371  tokenId */\n      dup2\n        /* \"Base/Token/ERC721A/ERC721AUpgradeable.sol\":5444:5457  _currentIndex */\n      sload(0x65)\n        /* \"Base/Token/ERC721A/ERC721AUpgradeable.sol\":5437:5441  curr */\n      dup2\n        /* \"Base/Token/ERC721A/ERC721AUpgradeable.sol\":5437:5457  curr < _currentIndex */\n      lt\n        /* \"Base/Token/ERC721A/ERC721AUpgradeable.sol\":5406:6274  if (_startTokenId() <= curr && curr < _currentIndex) {... */\n      iszero\n      tag_184\n      jumpi\n        /* \"Base/Token/ERC721A/ERC721AUpgradeable.sol\":5477:5508  TokenOwnership memory ownership */\n      0x00\n        /* \"Base/Token/ERC721A/ERC721AUpgradeable.sol\":5511:5528  _ownerships[curr] */\n      dup2\n      dup2\n      mstore\n        /* \"Base/Token/ERC721A/ERC721AUpgradeable.sol\":5511:5522  _ownerships */\n      0x69\n        /* \"Base/Token/ERC721A/ERC721AUpgradeable.sol\":5511:5528  _ownerships[curr] */\n      0x20\n      swap1\n      dup2\n      mstore\n      0x40\n      swap2\n      dup3\n      swap1\n      keccak256\n        /* \"Base/Token/ERC721A/ERC721AUpgradeable.sol\":5477:5528  TokenOwnership memory ownership = _ownerships[curr] */\n      dup3\n      mload\n      0x60\n      dup2\n      add\n      dup5\n      mstore\n      swap1\n      sload\n      sub(shl(0xa0, 0x01), 0x01)\n      dup2\n      and\n      dup3\n      mstore\n      shl(0xa0, 0x01)\n      dup2\n      div\n      0xffffffffffffffff\n      and\n      swap3\n      dup3\n      add\n      swap3\n      swap1\n      swap3\n      mstore\n      shl(0xe0, 0x01)\n      swap1\n      swap2\n      div\n      0xff\n      and\n      iszero\n      iszero\n      swap2\n      dup2\n      add\n      dup3\n      swap1\n      mstore\n      swap1\n        /* \"Base/Token/ERC721A/ERC721AUpgradeable.sol\":5546:6260  if (!ownership.burned) {... */\n      tag_188\n      jumpi\n        /* \"Base/Token/ERC721A/ERC721AUpgradeable.sol\":5595:5609  ownership.addr */\n      dup1\n      mload\n      sub(shl(0xa0, 0x01), 0x01)\n        /* \"Base/Token/ERC721A/ERC721AUpgradeable.sol\":5595:5623  ownership.addr != address(0) */\n      and\n      iszero\n        /* \"Base/Token/ERC721A/ERC721AUpgradeable.sol\":5591:5690  if (ownership.addr != address(0)) {... */\n      tag_186\n      jumpi\n        /* \"Base/Token/ERC721A/ERC721AUpgradeable.sol\":5658:5667  ownership */\n      swap4\n        /* \"Base/Token/ERC721A/ERC721AUpgradeable.sol\":5254:6338  function _ownershipOf(uint256 tokenId) internal view returns (TokenOwnership memory) {... */\n      swap3\n      pop\n      pop\n      pop\n      jump\t// out\n        /* \"Base/Token/ERC721A/ERC721AUpgradeable.sol\":5591:5690  if (ownership.addr != address(0)) {... */\n    tag_186:\n      pop\n      not(0x00)\n        /* \"Base/Token/ERC721A/ERC721AUpgradeable.sol\":6026:6032  curr-- */\n      add\n        /* \"Base/Token/ERC721A/ERC721AUpgradeable.sol\":6070:6087  _ownerships[curr] */\n      0x00\n      dup2\n      dup2\n      mstore\n        /* \"Base/Token/ERC721A/ERC721AUpgradeable.sol\":6070:6081  _ownerships */\n      0x69\n        /* \"Base/Token/ERC721A/ERC721AUpgradeable.sol\":6070:6087  _ownerships[curr] */\n      0x20\n      swap1\n      dup2\n      mstore\n      0x40\n      swap2\n      dup3\n      swap1\n      keccak256\n        /* \"Base/Token/ERC721A/ERC721AUpgradeable.sol\":6058:6087  ownership = _ownerships[curr] */\n      dup3\n      mload\n      0x60\n      dup2\n      add\n      dup5\n      mstore\n      swap1\n      sload\n      sub(shl(0xa0, 0x01), 0x01)\n      dup2\n      and\n      dup1\n      dup4\n      mstore\n      shl(0xa0, 0x01)\n      dup3\n      div\n      0xffffffffffffffff\n      and\n      swap4\n      dup4\n      add\n      swap4\n      swap1\n      swap4\n      mstore\n      shl(0xe0, 0x01)\n      swap1\n      div\n      0xff\n      and\n      iszero\n      iszero\n      swap3\n      dup2\n      add\n      swap3\n      swap1\n      swap3\n      mstore\n        /* \"Base/Token/ERC721A/ERC721AUpgradeable.sol\":6117:6145  ownership.addr != address(0) */\n      iszero\n        /* \"Base/Token/ERC721A/ERC721AUpgradeable.sol\":6113:6220  if (ownership.addr != address(0)) {... */\n      tag_189\n      jumpi\n        /* \"Base/Token/ERC721A/ERC721AUpgradeable.sol\":6184:6193  ownership */\n      swap4\n        /* \"Base/Token/ERC721A/ERC721AUpgradeable.sol\":5254:6338  function _ownershipOf(uint256 tokenId) internal view returns (TokenOwnership memory) {... */\n      swap3\n      pop\n      pop\n      pop\n      jump\t// out\n        /* \"Base/Token/ERC721A/ERC721AUpgradeable.sol\":6113:6220  if (ownership.addr != address(0)) {... */\n    tag_189:\n        /* \"Base/Token/ERC721A/ERC721AUpgradeable.sol\":5987:6242  while (true) {... */\n      jump(tag_186)\n    tag_188:\n        /* \"Base/Token/ERC721A/ERC721AUpgradeable.sol\":5459:6274  {... */\n      pop\n        /* \"Base/Token/ERC721A/ERC721AUpgradeable.sol\":5406:6274  if (_startTokenId() <= curr && curr < _currentIndex) {... */\n    tag_184:\n        /* \"Base/Token/ERC721A/ERC721AUpgradeable.sol\":6300:6331  OwnerQueryForNonexistentToken() */\n      mload(0x40)\n      shl(0xe1, 0x6f96cda1)\n      dup2\n      mstore\n      0x04\n      add\n      mload(0x40)\n      dup1\n      swap2\n      sub\n      swap1\n      revert\n        /* \"Base/Token/ERC721A/ERC721AUpgradeable.sol\":19620:20292  function _checkContractOnERC721Received(... */\n    tag_138:\n        /* \"Base/Token/ERC721A/ERC721AUpgradeable.sol\":19798:19881  IERC721ReceiverUpgradeable(to).onERC721Received(_msgSender(), from, tokenId, _data) */\n      mload(0x40)\n      shl(0xe1, 0x0a85bd01)\n      dup2\n      mstore\n        /* \"Base/Token/ERC721A/ERC721AUpgradeable.sol\":19778:19782  bool */\n      0x00\n      swap1\n      sub(shl(0xa0, 0x01), 0x01)\n        /* \"Base/Token/ERC721A/ERC721AUpgradeable.sol\":19798:19845  IERC721ReceiverUpgradeable(to).onERC721Received */\n      dup6\n      and\n      swap1\n      0x150b7a02\n      swap1\n        /* \"Base/Token/ERC721A/ERC721AUpgradeable.sol\":19798:19881  IERC721ReceiverUpgradeable(to).onERC721Received(_msgSender(), from, tokenId, _data) */\n      tag_193\n      swap1\n        /* \"@openzeppelin/contracts-upgradeable/utils/ContextUpgradeable.sol\":929:939  msg.sender */\n      caller\n      swap1\n        /* \"Base/Token/ERC721A/ERC721AUpgradeable.sol\":19860:19864  from */\n      dup10\n      swap1\n        /* \"Base/Token/ERC721A/ERC721AUpgradeable.sol\":19866:19873  tokenId */\n      dup9\n      swap1\n        /* \"Base/Token/ERC721A/ERC721AUpgradeable.sol\":19875:19880  _data */\n      dup9\n      swap1\n        /* \"Base/Token/ERC721A/ERC721AUpgradeable.sol\":19798:19881  IERC721ReceiverUpgradeable(to).onERC721Received(_msgSender(), from, tokenId, _data) */\n      0x04\n      add\n      tag_194\n      jump\t// in\n    tag_193:\n      0x20\n      mload(0x40)\n      dup1\n      dup4\n      sub\n      dup2\n      0x00\n      dup8\n      gas\n      call\n      swap3\n      pop\n      pop\n      pop\n      dup1\n      iszero\n      tag_195\n      jumpi\n      pop\n      0x40\n      dup1\n      mload\n      0x1f\n      returndatasize\n      swap1\n      dup2\n      add\n      not(0x1f)\n      and\n      dup3\n      add\n      swap1\n      swap3\n      mstore\n      tag_196\n      swap2\n      dup2\n      add\n      swap1\n      tag_197\n      jump\t// in\n    tag_196:\n      0x01\n    tag_195:\n        /* \"Base/Token/ERC721A/ERC721AUpgradeable.sol\":19794:20286  try IERC721ReceiverUpgradeable(to).onERC721Received(_msgSender(), from, tokenId, _data) returns (bytes4 retval) {... */\n      tag_198\n      jumpi\n      returndatasize\n      dup1\n      dup1\n      iszero\n      tag_203\n      jumpi\n      mload(0x40)\n      swap2\n      pop\n      and(add(returndatasize, 0x3f), not(0x1f))\n      dup3\n      add\n      0x40\n      mstore\n      returndatasize\n      dup3\n      mstore\n      returndatasize\n      0x00\n      0x20\n      dup5\n      add\n      returndatacopy\n      jump(tag_202)\n    tag_203:\n      0x60\n      swap2\n      pop\n    tag_202:\n      pop\n        /* \"Base/Token/ERC721A/ERC721AUpgradeable.sol\":20051:20057  reason */\n      dup1\n        /* \"Base/Token/ERC721A/ERC721AUpgradeable.sol\":20051:20064  reason.length */\n      mload\n        /* \"Base/Token/ERC721A/ERC721AUpgradeable.sol\":20068:20069  0 */\n      0x00\n        /* \"Base/Token/ERC721A/ERC721AUpgradeable.sol\":20051:20069  reason.length == 0 */\n      sub\n        /* \"Base/Token/ERC721A/ERC721AUpgradeable.sol\":20047:20276  if (reason.length == 0) {... */\n      tag_204\n      jumpi\n        /* \"Base/Token/ERC721A/ERC721AUpgradeable.sol\":20096:20136  TransferToNonERC721ReceiverImplementer() */\n      mload(0x40)\n      shl(0xe1, 0x68d2bf6b)\n      dup2\n      mstore\n      0x04\n      add\n      mload(0x40)\n      dup1\n      swap2\n      sub\n      swap1\n      revert\n        /* \"Base/Token/ERC721A/ERC721AUpgradeable.sol\":20047:20276  if (reason.length == 0) {... */\n    tag_204:\n        /* \"Base/Token/ERC721A/ERC721AUpgradeable.sol\":20236:20242  reason */\n      dup1\n        /* \"Base/Token/ERC721A/ERC721AUpgradeable.sol\":20230:20243  mload(reason) */\n      mload\n        /* \"Base/Token/ERC721A/ERC721AUpgradeable.sol\":20221:20227  reason */\n      dup2\n        /* \"Base/Token/ERC721A/ERC721AUpgradeable.sol\":20217:20219  32 */\n      0x20\n        /* \"Base/Token/ERC721A/ERC721AUpgradeable.sol\":20213:20228  add(32, reason) */\n      add\n        /* \"Base/Token/ERC721A/ERC721AUpgradeable.sol\":20206:20244  revert(add(32, reason), mload(reason)) */\n      revert\n        /* \"Base/Token/ERC721A/ERC721AUpgradeable.sol\":19794:20286  try IERC721ReceiverUpgradeable(to).onERC721Received(_msgSender(), from, tokenId, _data) returns (bytes4 retval) {... */\n    tag_198:\n      not(sub(shl(0xe0, 0x01), 0x01))\n        /* \"Base/Token/ERC721A/ERC721AUpgradeable.sol\":19927:19993  retval == IERC721ReceiverUpgradeable(to).onERC721Received.selector */\n      and\n      shl(0xe1, 0x0a85bd01)\n      eq\n      swap1\n      pop\n        /* \"Base/Token/ERC721A/ERC721AUpgradeable.sol\":19794:20286  try IERC721ReceiverUpgradeable(to).onERC721Received(_msgSender(), from, tokenId, _data) returns (bytes4 retval) {... */\n    tag_206:\n        /* \"Base/Token/ERC721A/ERC721AUpgradeable.sol\":19620:20292  function _checkContractOnERC721Received(... */\n      swap5\n      swap4\n      pop\n      pop\n      pop\n      pop\n      jump\t// out\n        /* \"@openzeppelin/contracts-upgradeable/utils/StringsUpgradeable.sol\":339:1042  function toString(uint256 value) internal pure returns (string memory) {... */\n    tag_148:\n        /* \"@openzeppelin/contracts-upgradeable/utils/StringsUpgradeable.sol\":395:408  string memory */\n      0x60\n        /* \"@openzeppelin/contracts-upgradeable/utils/StringsUpgradeable.sol\":612:617  value */\n      dup2\n        /* \"@openzeppelin/contracts-upgradeable/utils/StringsUpgradeable.sol\":621:622  0 */\n      0x00\n        /* \"@openzeppelin/contracts-upgradeable/utils/StringsUpgradeable.sol\":612:622  value == 0 */\n      sub\n        /* \"@openzeppelin/contracts-upgradeable/utils/StringsUpgradeable.sol\":608:659  if (value == 0) {... */\n      tag_209\n      jumpi\n      pop\n      pop\n        /* \"@openzeppelin/contracts-upgradeable/utils/StringsUpgradeable.sol\":638:648  return \"0\" */\n      0x40\n      dup1\n      mload\n      dup1\n      dup3\n      add\n      swap1\n      swap2\n      mstore\n      0x01\n      dup2\n      mstore\n      shl(0xfc, 0x03)\n      0x20\n      dup3\n      add\n      mstore\n      swap1\n        /* \"@openzeppelin/contracts-upgradeable/utils/StringsUpgradeable.sol\":339:1042  function toString(uint256 value) internal pure returns (string memory) {... */\n      jump\t// out\n        /* \"@openzeppelin/contracts-upgradeable/utils/StringsUpgradeable.sol\":608:659  if (value == 0) {... */\n    tag_209:\n        /* \"@openzeppelin/contracts-upgradeable/utils/StringsUpgradeable.sol\":683:688  value */\n      dup2\n        /* \"@openzeppelin/contracts-upgradeable/utils/StringsUpgradeable.sol\":668:680  uint256 temp */\n      0x00\n        /* \"@openzeppelin/contracts-upgradeable/utils/StringsUpgradeable.sol\":722:797  while (temp != 0) {... */\n    tag_210:\n        /* \"@openzeppelin/contracts-upgradeable/utils/StringsUpgradeable.sol\":729:738  temp != 0 */\n      dup2\n      iszero\n        /* \"@openzeppelin/contracts-upgradeable/utils/StringsUpgradeable.sol\":722:797  while (temp != 0) {... */\n      tag_211\n      jumpi\n        /* \"@openzeppelin/contracts-upgradeable/utils/StringsUpgradeable.sol\":754:762  digits++ */\n      dup1\n      tag_212\n      dup2\n      tag_213\n      jump\t// in\n    tag_212:\n      swap2\n      pop\n        /* \"@openzeppelin/contracts-upgradeable/utils/StringsUpgradeable.sol\":776:786  temp /= 10 */\n      tag_214\n      swap1\n      pop\n        /* \"@openzeppelin/contracts-upgradeable/utils/StringsUpgradeable.sol\":784:786  10 */\n      0x0a\n        /* \"@openzeppelin/contracts-upgradeable/utils/StringsUpgradeable.sol\":776:786  temp /= 10 */\n      dup4\n      tag_215\n      jump\t// in\n    tag_214:\n      swap2\n      pop\n        /* \"@openzeppelin/contracts-upgradeable/utils/StringsUpgradeable.sol\":722:797  while (temp != 0) {... */\n      jump(tag_210)\n    tag_211:\n        /* \"@openzeppelin/contracts-upgradeable/utils/StringsUpgradeable.sol\":806:825  bytes memory buffer */\n      0x00\n        /* \"@openzeppelin/contracts-upgradeable/utils/StringsUpgradeable.sol\":838:844  digits */\n      dup2\n        /* \"@openzeppelin/contracts-upgradeable/utils/StringsUpgradeable.sol\":828:845  new bytes(digits) */\n      0xffffffffffffffff\n      dup2\n      gt\n      iszero\n      tag_217\n      jumpi\n      tag_217\n      tag_218\n      jump\t// in\n    tag_217:\n      mload(0x40)\n      swap1\n      dup1\n      dup3\n      mstore\n      dup1\n      0x1f\n      add\n      not(0x1f)\n      and\n      0x20\n      add\n      dup3\n      add\n      0x40\n      mstore\n      dup1\n      iszero\n      tag_219\n      jumpi\n      0x20\n      dup3\n      add\n      dup2\n      dup1\n      calldatasize\n      dup4\n      calldatacopy\n      add\n      swap1\n      pop\n    tag_219:\n      pop\n        /* \"@openzeppelin/contracts-upgradeable/utils/StringsUpgradeable.sol\":806:845  bytes memory buffer = new bytes(digits) */\n      swap1\n      pop\n        /* \"@openzeppelin/contracts-upgradeable/utils/StringsUpgradeable.sol\":855:1005  while (value != 0) {... */\n    tag_220:\n        /* \"@openzeppelin/contracts-upgradeable/utils/StringsUpgradeable.sol\":862:872  value != 0 */\n      dup5\n      iszero\n        /* \"@openzeppelin/contracts-upgradeable/utils/StringsUpgradeable.sol\":855:1005  while (value != 0) {... */\n      tag_206\n      jumpi\n        /* \"@openzeppelin/contracts-upgradeable/utils/StringsUpgradeable.sol\":888:899  digits -= 1 */\n      tag_222\n        /* \"@openzeppelin/contracts-upgradeable/utils/StringsUpgradeable.sol\":898:899  1 */\n      0x01\n        /* \"@openzeppelin/contracts-upgradeable/utils/StringsUpgradeable.sol\":888:899  digits -= 1 */\n      dup4\n      tag_223\n      jump\t// in\n    tag_222:\n      swap2\n      pop\n        /* \"@openzeppelin/contracts-upgradeable/utils/StringsUpgradeable.sol\":956:966  value % 10 */\n      tag_224\n        /* \"@openzeppelin/contracts-upgradeable/utils/StringsUpgradeable.sol\":964:966  10 */\n      0x0a\n        /* \"@openzeppelin/contracts-upgradeable/utils/StringsUpgradeable.sol\":956:961  value */\n      dup7\n        /* \"@openzeppelin/contracts-upgradeable/utils/StringsUpgradeable.sol\":956:966  value % 10 */\n      tag_225\n      jump\t// in\n    tag_224:\n        /* \"@openzeppelin/contracts-upgradeable/utils/StringsUpgradeable.sol\":943:967  48 + uint256(value % 10) */\n      tag_226\n      swap1\n        /* \"@openzeppelin/contracts-upgradeable/utils/StringsUpgradeable.sol\":943:945  48 */\n      0x30\n        /* \"@openzeppelin/contracts-upgradeable/utils/StringsUpgradeable.sol\":943:967  48 + uint256(value % 10) */\n      tag_227\n      jump\t// in\n    tag_226:\n        /* \"@openzeppelin/contracts-upgradeable/utils/StringsUpgradeable.sol\":930:969  bytes1(uint8(48 + uint256(value % 10))) */\n      0xf8\n      shl\n        /* \"@openzeppelin/contracts-upgradeable/utils/StringsUpgradeable.sol\":913:919  buffer */\n      dup2\n        /* \"@openzeppelin/contracts-upgradeable/utils/StringsUpgradeable.sol\":920:926  digits */\n      dup4\n        /* \"@openzeppelin/contracts-upgradeable/utils/StringsUpgradeable.sol\":913:927  buffer[digits] */\n      dup2\n      mload\n      dup2\n      lt\n      tag_229\n      jumpi\n      tag_229\n      tag_230\n      jump\t// in\n    tag_229:\n      0x20\n      add\n      add\n        /* \"@openzeppelin/contracts-upgradeable/utils/StringsUpgradeable.sol\":913:969  buffer[digits] = bytes1(uint8(48 + uint256(value % 10))) */\n      swap1\n      not(sub(shl(0xf8, 0x01), 0x01))\n      and\n      swap1\n      dup2\n      0x00\n      byte\n      swap1\n      mstore8\n      pop\n        /* \"@openzeppelin/contracts-upgradeable/utils/StringsUpgradeable.sol\":983:994  value /= 10 */\n      tag_231\n        /* \"@openzeppelin/contracts-upgradeable/utils/StringsUpgradeable.sol\":992:994  10 */\n      0x0a\n        /* \"@openzeppelin/contracts-upgradeable/utils/StringsUpgradeable.sol\":983:994  value /= 10 */\n      dup7\n      tag_215\n      jump\t// in\n    tag_231:\n      swap5\n      pop\n        /* \"@openzeppelin/contracts-upgradeable/utils/StringsUpgradeable.sol\":855:1005  while (value != 0) {... */\n      jump(tag_220)\n        /* \"#utility.yul\":14:145   */\n    tag_234:\n      not(sub(shl(0xe0, 0x01), 0x01))\n        /* \"#utility.yul\":88:120   */\n      dup2\n      and\n        /* \"#utility.yul\":78:121   */\n      dup2\n      eq\n        /* \"#utility.yul\":68:139   */\n      tag_242\n      jumpi\n        /* \"#utility.yul\":135:136   */\n      0x00\n        /* \"#utility.yul\":132:133   */\n      dup1\n        /* \"#utility.yul\":125:137   */\n      revert\n        /* \"#utility.yul\":68:139   */\n    tag_242:\n        /* \"#utility.yul\":14:145   */\n      pop\n      jump\t// out\n        /* \"#utility.yul\":150:395   */\n    tag_22:\n        /* \"#utility.yul\":208:214   */\n      0x00\n        /* \"#utility.yul\":261:263   */\n      0x20\n        /* \"#utility.yul\":249:258   */\n      dup3\n        /* \"#utility.yul\":240:247   */\n      dup5\n        /* \"#utility.yul\":236:259   */\n      sub\n        /* \"#utility.yul\":232:264   */\n      slt\n        /* \"#utility.yul\":229:281   */\n      iszero\n      tag_244\n      jumpi\n        /* \"#utility.yul\":277:278   */\n      0x00\n        /* \"#utility.yul\":274:275   */\n      dup1\n        /* \"#utility.yul\":267:279   */\n      revert\n        /* \"#utility.yul\":229:281   */\n    tag_244:\n        /* \"#utility.yul\":316:325   */\n      dup2\n        /* \"#utility.yul\":303:326   */\n      calldataload\n        /* \"#utility.yul\":335:365   */\n      tag_146\n        /* \"#utility.yul\":359:364   */\n      dup2\n        /* \"#utility.yul\":335:365   */\n      tag_234\n      jump\t// in\n        /* \"#utility.yul\":592:850   */\n    tag_235:\n        /* \"#utility.yul\":664:665   */\n      0x00\n        /* \"#utility.yul\":674:787   */\n    tag_248:\n        /* \"#utility.yul\":688:694   */\n      dup4\n        /* \"#utility.yul\":685:686   */\n      dup2\n        /* \"#utility.yul\":682:695   */\n      lt\n        /* \"#utility.yul\":674:787   */\n      iszero\n      tag_250\n      jumpi\n        /* \"#utility.yul\":764:775   */\n      dup2\n      dup2\n      add\n        /* \"#utility.yul\":758:776   */\n      mload\n        /* \"#utility.yul\":745:756   */\n      dup4\n      dup3\n      add\n        /* \"#utility.yul\":738:777   */\n      mstore\n        /* \"#utility.yul\":710:712   */\n      0x20\n        /* \"#utility.yul\":703:713   */\n      add\n        /* \"#utility.yul\":674:787   */\n      jump(tag_248)\n    tag_250:\n        /* \"#utility.yul\":805:811   */\n      dup4\n        /* \"#utility.yul\":802:803   */\n      dup2\n        /* \"#utility.yul\":799:812   */\n      gt\n        /* \"#utility.yul\":796:844   */\n      iszero\n      tag_139\n      jumpi\n      pop\n      pop\n        /* \"#utility.yul\":840:841   */\n      0x00\n        /* \"#utility.yul\":822:838   */\n      swap2\n      add\n        /* \"#utility.yul\":815:842   */\n      mstore\n        /* \"#utility.yul\":592:850   */\n      jump\t// out\n        /* \"#utility.yul\":855:1113   */\n    tag_236:\n        /* \"#utility.yul\":897:900   */\n      0x00\n        /* \"#utility.yul\":935:940   */\n      dup2\n        /* \"#utility.yul\":929:941   */\n      mload\n        /* \"#utility.yul\":962:968   */\n      dup1\n        /* \"#utility.yul\":957:960   */\n      dup5\n        /* \"#utility.yul\":950:969   */\n      mstore\n        /* \"#utility.yul\":978:1041   */\n      tag_253\n        /* \"#utility.yul\":1034:1040   */\n      dup2\n        /* \"#utility.yul\":1027:1031   */\n      0x20\n        /* \"#utility.yul\":1022:1025   */\n      dup7\n        /* \"#utility.yul\":1018:1032   */\n      add\n        /* \"#utility.yul\":1011:1015   */\n      0x20\n        /* \"#utility.yul\":1004:1009   */\n      dup7\n        /* \"#utility.yul\":1000:1016   */\n      add\n        /* \"#utility.yul\":978:1041   */\n      tag_235\n      jump\t// in\n    tag_253:\n        /* \"#utility.yul\":1095:1097   */\n      0x1f\n        /* \"#utility.yul\":1074:1089   */\n      add\n      not(0x1f)\n        /* \"#utility.yul\":1070:1099   */\n      and\n        /* \"#utility.yul\":1061:1100   */\n      swap3\n      swap1\n      swap3\n      add\n        /* \"#utility.yul\":1102:1106   */\n      0x20\n        /* \"#utility.yul\":1057:1107   */\n      add\n      swap3\n        /* \"#utility.yul\":855:1113   */\n      swap2\n      pop\n      pop\n      jump\t// out\n        /* \"#utility.yul\":1118:1338   */\n    tag_29:\n        /* \"#utility.yul\":1267:1269   */\n      0x20\n        /* \"#utility.yul\":1256:1265   */\n      dup2\n        /* \"#utility.yul\":1249:1270   */\n      mstore\n        /* \"#utility.yul\":1230:1234   */\n      0x00\n        /* \"#utility.yul\":1287:1332   */\n      tag_146\n        /* \"#utility.yul\":1328:1330   */\n      0x20\n        /* \"#utility.yul\":1317:1326   */\n      dup4\n        /* \"#utility.yul\":1313:1331   */\n      add\n        /* \"#utility.yul\":1305:1311   */\n      dup5\n        /* \"#utility.yul\":1287:1332   */\n      tag_236\n      jump\t// in\n        /* \"#utility.yul\":1343:1523   */\n    tag_32:\n        /* \"#utility.yul\":1402:1408   */\n      0x00\n        /* \"#utility.yul\":1455:1457   */\n      0x20\n        /* \"#utility.yul\":1443:1452   */\n      dup3\n        /* \"#utility.yul\":1434:1441   */\n      dup5\n        /* \"#utility.yul\":1430:1453   */\n      sub\n        /* \"#utility.yul\":1426:1458   */\n      slt\n        /* \"#utility.yul\":1423:1475   */\n      iszero\n      tag_257\n      jumpi\n        /* \"#utility.yul\":1471:1472   */\n      0x00\n        /* \"#utility.yul\":1468:1469   */\n      dup1\n        /* \"#utility.yul\":1461:1473   */\n      revert\n        /* \"#utility.yul\":1423:1475   */\n    tag_257:\n      pop\n        /* \"#utility.yul\":1494:1517   */\n      calldataload\n      swap2\n        /* \"#utility.yul\":1343:1523   */\n      swap1\n      pop\n      jump\t// out\n        /* \"#utility.yul\":1736:1909   */\n    tag_237:\n        /* \"#utility.yul\":1804:1824   */\n      dup1\n      calldataload\n      sub(shl(0xa0, 0x01), 0x01)\n        /* \"#utility.yul\":1853:1884   */\n      dup2\n      and\n        /* \"#utility.yul\":1843:1885   */\n      dup2\n      eq\n        /* \"#utility.yul\":1833:1903   */\n      tag_260\n      jumpi\n        /* \"#utility.yul\":1899:1900   */\n      0x00\n        /* \"#utility.yul\":1896:1897   */\n      dup1\n        /* \"#utility.yul\":1889:1901   */\n      revert\n        /* \"#utility.yul\":1833:1903   */\n    tag_260:\n        /* \"#utility.yul\":1736:1909   */\n      swap2\n      swap1\n      pop\n      jump\t// out\n        /* \"#utility.yul\":1914:2168   */\n    tag_38:\n        /* \"#utility.yul\":1982:1988   */\n      0x00\n        /* \"#utility.yul\":1990:1996   */\n      dup1\n        /* \"#utility.yul\":2043:2045   */\n      0x40\n        /* \"#utility.yul\":2031:2040   */\n      dup4\n        /* \"#utility.yul\":2022:2029   */\n      dup6\n        /* \"#utility.yul\":2018:2041   */\n      sub\n        /* \"#utility.yul\":2014:2046   */\n      slt\n        /* \"#utility.yul\":2011:2063   */\n      iszero\n      tag_262\n      jumpi\n        /* \"#utility.yul\":2059:2060   */\n      0x00\n        /* \"#utility.yul\":2056:2057   */\n      dup1\n        /* \"#utility.yul\":2049:2061   */\n      revert\n        /* \"#utility.yul\":2011:2063   */\n    tag_262:\n        /* \"#utility.yul\":2082:2111   */\n      tag_263\n        /* \"#utility.yul\":2101:2110   */\n      dup4\n        /* \"#utility.yul\":2082:2111   */\n      tag_237\n      jump\t// in\n    tag_263:\n        /* \"#utility.yul\":2072:2111   */\n      swap5\n        /* \"#utility.yul\":2158:2160   */\n      0x20\n        /* \"#utility.yul\":2143:2161   */\n      swap4\n      swap1\n      swap4\n      add\n        /* \"#utility.yul\":2130:2162   */\n      calldataload\n      swap4\n      pop\n      pop\n      pop\n        /* \"#utility.yul\":1914:2168   */\n      jump\t// out\n        /* \"#utility.yul\":2355:2683   */\n    tag_46:\n        /* \"#utility.yul\":2432:2438   */\n      0x00\n        /* \"#utility.yul\":2440:2446   */\n      dup1\n        /* \"#utility.yul\":2448:2454   */\n      0x00\n        /* \"#utility.yul\":2501:2503   */\n      0x60\n        /* \"#utility.yul\":2489:2498   */\n      dup5\n        /* \"#utility.yul\":2480:2487   */\n      dup7\n        /* \"#utility.yul\":2476:2499   */\n      sub\n        /* \"#utility.yul\":2472:2504   */\n      slt\n        /* \"#utility.yul\":2469:2521   */\n      iszero\n      tag_266\n      jumpi\n        /* \"#utility.yul\":2517:2518   */\n      0x00\n        /* \"#utility.yul\":2514:2515   */\n      dup1\n        /* \"#utility.yul\":2507:2519   */\n      revert\n        /* \"#utility.yul\":2469:2521   */\n    tag_266:\n        /* \"#utility.yul\":2540:2569   */\n      tag_267\n        /* \"#utility.yul\":2559:2568   */\n      dup5\n        /* \"#utility.yul\":2540:2569   */\n      tag_237\n      jump\t// in\n    tag_267:\n        /* \"#utility.yul\":2530:2569   */\n      swap3\n      pop\n        /* \"#utility.yul\":2588:2626   */\n      tag_268\n        /* \"#utility.yul\":2622:2624   */\n      0x20\n        /* \"#utility.yul\":2611:2620   */\n      dup6\n        /* \"#utility.yul\":2607:2625   */\n      add\n        /* \"#utility.yul\":2588:2626   */\n      tag_237\n      jump\t// in\n    tag_268:\n        /* \"#utility.yul\":2578:2626   */\n      swap2\n      pop\n        /* \"#utility.yul\":2673:2675   */\n      0x40\n        /* \"#utility.yul\":2662:2671   */\n      dup5\n        /* \"#utility.yul\":2658:2676   */\n      add\n        /* \"#utility.yul\":2645:2677   */\n      calldataload\n        /* \"#utility.yul\":2635:2677   */\n      swap1\n      pop\n        /* \"#utility.yul\":2355:2683   */\n      swap3\n      pop\n      swap3\n      pop\n      swap3\n      jump\t// out\n        /* \"#utility.yul\":2688:2874   */\n    tag_57:\n        /* \"#utility.yul\":2747:2753   */\n      0x00\n        /* \"#utility.yul\":2800:2802   */\n      0x20\n        /* \"#utility.yul\":2788:2797   */\n      dup3\n        /* \"#utility.yul\":2779:2786   */\n      dup5\n        /* \"#utility.yul\":2775:2798   */\n      sub\n        /* \"#utility.yul\":2771:2803   */\n      slt\n        /* \"#utility.yul\":2768:2820   */\n      iszero\n      tag_270\n      jumpi\n        /* \"#utility.yul\":2816:2817   */\n      0x00\n        /* \"#utility.yul\":2813:2814   */\n      dup1\n        /* \"#utility.yul\":2806:2818   */\n      revert\n        /* \"#utility.yul\":2768:2820   */\n    tag_270:\n        /* \"#utility.yul\":2839:2868   */\n      tag_146\n        /* \"#utility.yul\":2858:2867   */\n      dup3\n        /* \"#utility.yul\":2839:2868   */\n      tag_237\n      jump\t// in\n        /* \"#utility.yul\":2879:3226   */\n    tag_65:\n        /* \"#utility.yul\":2944:2950   */\n      0x00\n        /* \"#utility.yul\":2952:2958   */\n      dup1\n        /* \"#utility.yul\":3005:3007   */\n      0x40\n        /* \"#utility.yul\":2993:3002   */\n      dup4\n        /* \"#utility.yul\":2984:2991   */\n      dup6\n        /* \"#utility.yul\":2980:3003   */\n      sub\n        /* \"#utility.yul\":2976:3008   */\n      slt\n        /* \"#utility.yul\":2973:3025   */\n      iszero\n      tag_273\n      jumpi\n        /* \"#utility.yul\":3021:3022   */\n      0x00\n        /* \"#utility.yul\":3018:3019   */\n      dup1\n        /* \"#utility.yul\":3011:3023   */\n      revert\n        /* \"#utility.yul\":2973:3025   */\n    tag_273:\n        /* \"#utility.yul\":3044:3073   */\n      tag_274\n        /* \"#utility.yul\":3063:3072   */\n      dup4\n        /* \"#utility.yul\":3044:3073   */\n      tag_237\n      jump\t// in\n    tag_274:\n        /* \"#utility.yul\":3034:3073   */\n      swap2\n      pop\n        /* \"#utility.yul\":3123:3125   */\n      0x20\n        /* \"#utility.yul\":3112:3121   */\n      dup4\n        /* \"#utility.yul\":3108:3126   */\n      add\n        /* \"#utility.yul\":3095:3127   */\n      calldataload\n        /* \"#utility.yul\":3170:3175   */\n      dup1\n        /* \"#utility.yul\":3163:3176   */\n      iszero\n        /* \"#utility.yul\":3156:3177   */\n      iszero\n        /* \"#utility.yul\":3149:3154   */\n      dup2\n        /* \"#utility.yul\":3146:3178   */\n      eq\n        /* \"#utility.yul\":3136:3196   */\n      tag_275\n      jumpi\n        /* \"#utility.yul\":3192:3193   */\n      0x00\n        /* \"#utility.yul\":3189:3190   */\n      dup1\n        /* \"#utility.yul\":3182:3194   */\n      revert\n        /* \"#utility.yul\":3136:3196   */\n    tag_275:\n        /* \"#utility.yul\":3215:3220   */\n      dup1\n        /* \"#utility.yul\":3205:3220   */\n      swap2\n      pop\n      pop\n        /* \"#utility.yul\":2879:3226   */\n      swap3\n      pop\n      swap3\n      swap1\n      pop\n      jump\t// out\n        /* \"#utility.yul\":3231:3358   */\n    tag_218:\n        /* \"#utility.yul\":3292:3302   */\n      0x4e487b71\n        /* \"#utility.yul\":3287:3290   */\n      0xe0\n        /* \"#utility.yul\":3283:3303   */\n      shl\n        /* \"#utility.yul\":3280:3281   */\n      0x00\n        /* \"#utility.yul\":3273:3304   */\n      mstore\n        /* \"#utility.yul\":3323:3327   */\n      0x41\n        /* \"#utility.yul\":3320:3321   */\n      0x04\n        /* \"#utility.yul\":3313:3328   */\n      mstore\n        /* \"#utility.yul\":3347:3351   */\n      0x24\n        /* \"#utility.yul\":3344:3345   */\n      0x00\n        /* \"#utility.yul\":3337:3352   */\n      revert\n        /* \"#utility.yul\":3363:4501   */\n    tag_69:\n        /* \"#utility.yul\":3458:3464   */\n      0x00\n        /* \"#utility.yul\":3466:3472   */\n      dup1\n        /* \"#utility.yul\":3474:3480   */\n      0x00\n        /* \"#utility.yul\":3482:3488   */\n      dup1\n        /* \"#utility.yul\":3535:3538   */\n      0x80\n        /* \"#utility.yul\":3523:3532   */\n      dup6\n        /* \"#utility.yul\":3514:3521   */\n      dup8\n        /* \"#utility.yul\":3510:3533   */\n      sub\n        /* \"#utility.yul\":3506:3539   */\n      slt\n        /* \"#utility.yul\":3503:3556   */\n      iszero\n      tag_278\n      jumpi\n        /* \"#utility.yul\":3552:3553   */\n      0x00\n        /* \"#utility.yul\":3549:3550   */\n      dup1\n        /* \"#utility.yul\":3542:3554   */\n      revert\n        /* \"#utility.yul\":3503:3556   */\n    tag_278:\n        /* \"#utility.yul\":3575:3604   */\n      tag_279\n        /* \"#utility.yul\":3594:3603   */\n      dup6\n        /* \"#utility.yul\":3575:3604   */\n      tag_237\n      jump\t// in\n    tag_279:\n        /* \"#utility.yul\":3565:3604   */\n      swap4\n      pop\n        /* \"#utility.yul\":3623:3661   */\n      tag_280\n        /* \"#utility.yul\":3657:3659   */\n      0x20\n        /* \"#utility.yul\":3646:3655   */\n      dup7\n        /* \"#utility.yul\":3642:3660   */\n      add\n        /* \"#utility.yul\":3623:3661   */\n      tag_237\n      jump\t// in\n    tag_280:\n        /* \"#utility.yul\":3613:3661   */\n      swap3\n      pop\n        /* \"#utility.yul\":3708:3710   */\n      0x40\n        /* \"#utility.yul\":3697:3706   */\n      dup6\n        /* \"#utility.yul\":3693:3711   */\n      add\n        /* \"#utility.yul\":3680:3712   */\n      calldataload\n        /* \"#utility.yul\":3670:3712   */\n      swap2\n      pop\n        /* \"#utility.yul\":3763:3765   */\n      0x60\n        /* \"#utility.yul\":3752:3761   */\n      dup6\n        /* \"#utility.yul\":3748:3766   */\n      add\n        /* \"#utility.yul\":3735:3767   */\n      calldataload\n        /* \"#utility.yul\":3786:3804   */\n      0xffffffffffffffff\n        /* \"#utility.yul\":3827:3829   */\n      dup1\n        /* \"#utility.yul\":3819:3825   */\n      dup3\n        /* \"#utility.yul\":3816:3830   */\n      gt\n        /* \"#utility.yul\":3813:3847   */\n      iszero\n      tag_281\n      jumpi\n        /* \"#utility.yul\":3843:3844   */\n      0x00\n        /* \"#utility.yul\":3840:3841   */\n      dup1\n        /* \"#utility.yul\":3833:3845   */\n      revert\n        /* \"#utility.yul\":3813:3847   */\n    tag_281:\n        /* \"#utility.yul\":3881:3887   */\n      dup2\n        /* \"#utility.yul\":3870:3879   */\n      dup8\n        /* \"#utility.yul\":3866:3888   */\n      add\n        /* \"#utility.yul\":3856:3888   */\n      swap2\n      pop\n        /* \"#utility.yul\":3926:3933   */\n      dup8\n        /* \"#utility.yul\":3919:3923   */\n      0x1f\n        /* \"#utility.yul\":3915:3917   */\n      dup4\n        /* \"#utility.yul\":3911:3924   */\n      add\n        /* \"#utility.yul\":3907:3934   */\n      slt\n        /* \"#utility.yul\":3897:3952   */\n      tag_282\n      jumpi\n        /* \"#utility.yul\":3948:3949   */\n      0x00\n        /* \"#utility.yul\":3945:3946   */\n      dup1\n        /* \"#utility.yul\":3938:3950   */\n      revert\n        /* \"#utility.yul\":3897:3952   */\n    tag_282:\n        /* \"#utility.yul\":3984:3986   */\n      dup2\n        /* \"#utility.yul\":3971:3987   */\n      calldataload\n        /* \"#utility.yul\":4006:4008   */\n      dup2\n        /* \"#utility.yul\":4002:4004   */\n      dup2\n        /* \"#utility.yul\":3999:4009   */\n      gt\n        /* \"#utility.yul\":3996:4032   */\n      iszero\n      tag_284\n      jumpi\n        /* \"#utility.yul\":4012:4030   */\n      tag_284\n      tag_218\n      jump\t// in\n    tag_284:\n        /* \"#utility.yul\":4087:4089   */\n      0x40\n        /* \"#utility.yul\":4081:4090   */\n      mload\n        /* \"#utility.yul\":4055:4057   */\n      0x1f\n        /* \"#utility.yul\":4141:4154   */\n      dup3\n      add\n      not(0x1f)\n        /* \"#utility.yul\":4137:4159   */\n      swap1\n      dup2\n      and\n        /* \"#utility.yul\":4161:4163   */\n      0x3f\n        /* \"#utility.yul\":4133:4164   */\n      add\n        /* \"#utility.yul\":4129:4169   */\n      and\n        /* \"#utility.yul\":4117:4170   */\n      dup2\n      add\n      swap1\n        /* \"#utility.yul\":4185:4203   */\n      dup4\n      dup3\n      gt\n        /* \"#utility.yul\":4205:4227   */\n      dup2\n      dup4\n      lt\n        /* \"#utility.yul\":4182:4228   */\n      or\n        /* \"#utility.yul\":4179:4251   */\n      iszero\n      tag_286\n      jumpi\n        /* \"#utility.yul\":4231:4249   */\n      tag_286\n      tag_218\n      jump\t// in\n    tag_286:\n        /* \"#utility.yul\":4271:4281   */\n      dup2\n        /* \"#utility.yul\":4267:4269   */\n      0x40\n        /* \"#utility.yul\":4260:4282   */\n      mstore\n        /* \"#utility.yul\":4306:4308   */\n      dup3\n        /* \"#utility.yul\":4298:4304   */\n      dup2\n        /* \"#utility.yul\":4291:4309   */\n      mstore\n        /* \"#utility.yul\":4346:4353   */\n      dup11\n        /* \"#utility.yul\":4341:4343   */\n      0x20\n        /* \"#utility.yul\":4336:4338   */\n      dup5\n        /* \"#utility.yul\":4332:4334   */\n      dup8\n        /* \"#utility.yul\":4328:4339   */\n      add\n        /* \"#utility.yul\":4324:4344   */\n      add\n        /* \"#utility.yul\":4321:4354   */\n      gt\n        /* \"#utility.yul\":4318:4371   */\n      iszero\n      tag_287\n      jumpi\n        /* \"#utility.yul\":4367:4368   */\n      0x00\n        /* \"#utility.yul\":4364:4365   */\n      dup1\n        /* \"#utility.yul\":4357:4369   */\n      revert\n        /* \"#utility.yul\":4318:4371   */\n    tag_287:\n        /* \"#utility.yul\":4423:4425   */\n      dup3\n        /* \"#utility.yul\":4418:4420   */\n      0x20\n        /* \"#utility.yul\":4414:4416   */\n      dup7\n        /* \"#utility.yul\":4410:4421   */\n      add\n        /* \"#utility.yul\":4405:4407   */\n      0x20\n        /* \"#utility.yul\":4397:4403   */\n      dup4\n        /* \"#utility.yul\":4393:4408   */\n      add\n        /* \"#utility.yul\":4380:4426   */\n      calldatacopy\n        /* \"#utility.yul\":4468:4469   */\n      0x00\n        /* \"#utility.yul\":4463:4465   */\n      0x20\n        /* \"#utility.yul\":4458:4460   */\n      dup5\n        /* \"#utility.yul\":4450:4456   */\n      dup4\n        /* \"#utility.yul\":4446:4461   */\n      add\n        /* \"#utility.yul\":4442:4466   */\n      add\n        /* \"#utility.yul\":4435:4470   */\n      mstore\n        /* \"#utility.yul\":4489:4495   */\n      dup1\n        /* \"#utility.yul\":4479:4495   */\n      swap6\n      pop\n      pop\n      pop\n      pop\n      pop\n      pop\n        /* \"#utility.yul\":3363:4501   */\n      swap3\n      swap6\n      swap2\n      swap5\n      pop\n      swap3\n      pop\n      jump\t// out\n        /* \"#utility.yul\":4506:4766   */\n    tag_77:\n        /* \"#utility.yul\":4574:4580   */\n      0x00\n        /* \"#utility.yul\":4582:4588   */\n      dup1\n        /* \"#utility.yul\":4635:4637   */\n      0x40\n        /* \"#utility.yul\":4623:4632   */\n      dup4\n        /* \"#utility.yul\":4614:4621   */\n      dup6\n        /* \"#utility.yul\":4610:4633   */\n      sub\n        /* \"#utility.yul\":4606:4638   */\n      slt\n        /* \"#utility.yul\":4603:4655   */\n      iszero\n      tag_289\n      jumpi\n        /* \"#utility.yul\":4651:4652   */\n      0x00\n        /* \"#utility.yul\":4648:4649   */\n      dup1\n        /* \"#utility.yul\":4641:4653   */\n      revert\n        /* \"#utility.yul\":4603:4655   */\n    tag_289:\n        /* \"#utility.yul\":4674:4703   */\n      tag_290\n        /* \"#utility.yul\":4693:4702   */\n      dup4\n        /* \"#utility.yul\":4674:4703   */\n      tag_237\n      jump\t// in\n    tag_290:\n        /* \"#utility.yul\":4664:4703   */\n      swap2\n      pop\n        /* \"#utility.yul\":4722:4760   */\n      tag_291\n        /* \"#utility.yul\":4756:4758   */\n      0x20\n        /* \"#utility.yul\":4745:4754   */\n      dup5\n        /* \"#utility.yul\":4741:4759   */\n      add\n        /* \"#utility.yul\":4722:4760   */\n      tag_237\n      jump\t// in\n    tag_291:\n        /* \"#utility.yul\":4712:4760   */\n      swap1\n      pop\n        /* \"#utility.yul\":4506:4766   */\n      swap3\n      pop\n      swap3\n      swap1\n      pop\n      jump\t// out\n        /* \"#utility.yul\":4771:5151   */\n    tag_87:\n        /* \"#utility.yul\":4850:4851   */\n      0x01\n        /* \"#utility.yul\":4846:4858   */\n      dup2\n      dup2\n      shr\n      swap1\n        /* \"#utility.yul\":4893:4905   */\n      dup3\n      and\n      dup1\n        /* \"#utility.yul\":4914:4975   */\n      tag_293\n      jumpi\n        /* \"#utility.yul\":4968:4972   */\n      0x7f\n        /* \"#utility.yul\":4960:4966   */\n      dup3\n        /* \"#utility.yul\":4956:4973   */\n      and\n        /* \"#utility.yul\":4946:4973   */\n      swap2\n      pop\n        /* \"#utility.yul\":4914:4975   */\n    tag_293:\n        /* \"#utility.yul\":5021:5023   */\n      0x20\n        /* \"#utility.yul\":5013:5019   */\n      dup3\n        /* \"#utility.yul\":5010:5024   */\n      lt\n        /* \"#utility.yul\":4990:5008   */\n      dup2\n        /* \"#utility.yul\":4987:5025   */\n      sub\n        /* \"#utility.yul\":4984:5145   */\n      tag_294\n      jumpi\n        /* \"#utility.yul\":5067:5077   */\n      0x4e487b71\n        /* \"#utility.yul\":5062:5065   */\n      0xe0\n        /* \"#utility.yul\":5058:5078   */\n      shl\n        /* \"#utility.yul\":5055:5056   */\n      0x00\n        /* \"#utility.yul\":5048:5079   */\n      mstore\n        /* \"#utility.yul\":5102:5106   */\n      0x22\n        /* \"#utility.yul\":5099:5100   */\n      0x04\n        /* \"#utility.yul\":5092:5107   */\n      mstore\n        /* \"#utility.yul\":5130:5134   */\n      0x24\n        /* \"#utility.yul\":5127:5128   */\n      0x00\n        /* \"#utility.yul\":5120:5135   */\n      revert\n        /* \"#utility.yul\":4984:5145   */\n    tag_294:\n      pop\n        /* \"#utility.yul\":4771:5151   */\n      swap2\n      swap1\n      pop\n      jump\t// out\n        /* \"#utility.yul\":5156:5626   */\n    tag_150:\n        /* \"#utility.yul\":5335:5338   */\n      0x00\n        /* \"#utility.yul\":5373:5379   */\n      dup4\n        /* \"#utility.yul\":5367:5380   */\n      mload\n        /* \"#utility.yul\":5389:5442   */\n      tag_296\n        /* \"#utility.yul\":5435:5441   */\n      dup2\n        /* \"#utility.yul\":5430:5433   */\n      dup5\n        /* \"#utility.yul\":5423:5427   */\n      0x20\n        /* \"#utility.yul\":5415:5421   */\n      dup9\n        /* \"#utility.yul\":5411:5428   */\n      add\n        /* \"#utility.yul\":5389:5442   */\n      tag_235\n      jump\t// in\n    tag_296:\n        /* \"#utility.yul\":5505:5518   */\n      dup4\n      mload\n        /* \"#utility.yul\":5464:5480   */\n      swap1\n      dup4\n      add\n      swap1\n        /* \"#utility.yul\":5527:5584   */\n      tag_297\n        /* \"#utility.yul\":5505:5518   */\n      dup2\n        /* \"#utility.yul\":5464:5480   */\n      dup4\n        /* \"#utility.yul\":5561:5565   */\n      0x20\n        /* \"#utility.yul\":5549:5566   */\n      dup9\n      add\n        /* \"#utility.yul\":5527:5584   */\n      tag_235\n      jump\t// in\n    tag_297:\n        /* \"#utility.yul\":5600:5620   */\n      add\n      swap5\n        /* \"#utility.yul\":5156:5626   */\n      swap4\n      pop\n      pop\n      pop\n      pop\n      jump\t// out\n        /* \"#utility.yul\":5631:6120   */\n    tag_194:\n      sub(shl(0xa0, 0x01), 0x01)\n        /* \"#utility.yul\":5900:5915   */\n      dup6\n      dup2\n      and\n        /* \"#utility.yul\":5882:5916   */\n      dup3\n      mstore\n        /* \"#utility.yul\":5952:5967   */\n      dup5\n      and\n        /* \"#utility.yul\":5947:5949   */\n      0x20\n        /* \"#utility.yul\":5932:5950   */\n      dup3\n      add\n        /* \"#utility.yul\":5925:5968   */\n      mstore\n        /* \"#utility.yul\":5999:6001   */\n      0x40\n        /* \"#utility.yul\":5984:6002   */\n      dup2\n      add\n        /* \"#utility.yul\":5977:6011   */\n      dup4\n      swap1\n      mstore\n        /* \"#utility.yul\":6047:6050   */\n      0x80\n        /* \"#utility.yul\":6042:6044   */\n      0x60\n        /* \"#utility.yul\":6027:6045   */\n      dup3\n      add\n        /* \"#utility.yul\":6020:6051   */\n      dup2\n      swap1\n      mstore\n        /* \"#utility.yul\":5825:5829   */\n      0x00\n      swap1\n        /* \"#utility.yul\":6068:6114   */\n      tag_299\n      swap1\n        /* \"#utility.yul\":6094:6113   */\n      dup4\n      add\n        /* \"#utility.yul\":6086:6092   */\n      dup5\n        /* \"#utility.yul\":6068:6114   */\n      tag_236\n      jump\t// in\n    tag_299:\n        /* \"#utility.yul\":6060:6114   */\n      swap7\n        /* \"#utility.yul\":5631:6120   */\n      swap6\n      pop\n      pop\n      pop\n      pop\n      pop\n      pop\n      jump\t// out\n        /* \"#utility.yul\":6125:6374   */\n    tag_197:\n        /* \"#utility.yul\":6194:6200   */\n      0x00\n        /* \"#utility.yul\":6247:6249   */\n      0x20\n        /* \"#utility.yul\":6235:6244   */\n      dup3\n        /* \"#utility.yul\":6226:6233   */\n      dup5\n        /* \"#utility.yul\":6222:6245   */\n      sub\n        /* \"#utility.yul\":6218:6250   */\n      slt\n        /* \"#utility.yul\":6215:6267   */\n      iszero\n      tag_301\n      jumpi\n        /* \"#utility.yul\":6263:6264   */\n      0x00\n        /* \"#utility.yul\":6260:6261   */\n      dup1\n        /* \"#utility.yul\":6253:6265   */\n      revert\n        /* \"#utility.yul\":6215:6267   */\n    tag_301:\n        /* \"#utility.yul\":6295:6304   */\n      dup2\n        /* \"#utility.yul\":6289:6305   */\n      mload\n        /* \"#utility.yul\":6314:6344   */\n      tag_146\n        /* \"#utility.yul\":6338:6343   */\n      dup2\n        /* \"#utility.yul\":6314:6344   */\n      tag_234\n      jump\t// in\n        /* \"#utility.yul\":6379:6506   */\n    tag_238:\n        /* \"#utility.yul\":6440:6450   */\n      0x4e487b71\n        /* \"#utility.yul\":6435:6438   */\n      0xe0\n        /* \"#utility.yul\":6431:6451   */\n      shl\n        /* \"#utility.yul\":6428:6429   */\n      0x00\n        /* \"#utility.yul\":6421:6452   */\n      mstore\n        /* \"#utility.yul\":6471:6475   */\n      0x11\n        /* \"#utility.yul\":6468:6469   */\n      0x04\n        /* \"#utility.yul\":6461:6476   */\n      mstore\n        /* \"#utility.yul\":6495:6499   */\n      0x24\n        /* \"#utility.yul\":6492:6493   */\n      0x00\n        /* \"#utility.yul\":6485:6500   */\n      revert\n        /* \"#utility.yul\":6511:6646   */\n    tag_213:\n        /* \"#utility.yul\":6550:6553   */\n      0x00\n        /* \"#utility.yul\":6571:6588   */\n      0x01\n      dup3\n      add\n        /* \"#utility.yul\":6568:6611   */\n      tag_306\n      jumpi\n        /* \"#utility.yul\":6591:6609   */\n      tag_306\n      tag_238\n      jump\t// in\n    tag_306:\n      pop\n        /* \"#utility.yul\":6638:6639   */\n      0x01\n        /* \"#utility.yul\":6627:6640   */\n      add\n      swap1\n        /* \"#utility.yul\":6511:6646   */\n      jump\t// out\n        /* \"#utility.yul\":6651:6778   */\n    tag_239:\n        /* \"#utility.yul\":6712:6722   */\n      0x4e487b71\n        /* \"#utility.yul\":6707:6710   */\n      0xe0\n        /* \"#utility.yul\":6703:6723   */\n      shl\n        /* \"#utility.yul\":6700:6701   */\n      0x00\n        /* \"#utility.yul\":6693:6724   */\n      mstore\n        /* \"#utility.yul\":6743:6747   */\n      0x12\n        /* \"#utility.yul\":6740:6741   */\n      0x04\n        /* \"#utility.yul\":6733:6748   */\n      mstore\n        /* \"#utility.yul\":6767:6771   */\n      0x24\n        /* \"#utility.yul\":6764:6765   */\n      0x00\n        /* \"#utility.yul\":6757:6772   */\n      revert\n        /* \"#utility.yul\":6783:6903   */\n    tag_215:\n        /* \"#utility.yul\":6823:6824   */\n      0x00\n        /* \"#utility.yul\":6849:6850   */\n      dup3\n        /* \"#utility.yul\":6839:6874   */\n      tag_310\n      jumpi\n        /* \"#utility.yul\":6854:6872   */\n      tag_310\n      tag_239\n      jump\t// in\n    tag_310:\n      pop\n        /* \"#utility.yul\":6888:6897   */\n      div\n      swap1\n        /* \"#utility.yul\":6783:6903   */\n      jump\t// out\n        /* \"#utility.yul\":6908:7033   */\n    tag_223:\n        /* \"#utility.yul\":6948:6952   */\n      0x00\n        /* \"#utility.yul\":6976:6977   */\n      dup3\n        /* \"#utility.yul\":6973:6974   */\n      dup3\n        /* \"#utility.yul\":6970:6978   */\n      lt\n        /* \"#utility.yul\":6967:7001   */\n      iszero\n      tag_313\n      jumpi\n        /* \"#utility.yul\":6981:6999   */\n      tag_313\n      tag_238\n      jump\t// in\n    tag_313:\n      pop\n        /* \"#utility.yul\":7018:7027   */\n      sub\n      swap1\n        /* \"#utility.yul\":6908:7033   */\n      jump\t// out\n        /* \"#utility.yul\":7038:7150   */\n    tag_225:\n        /* \"#utility.yul\":7070:7071   */\n      0x00\n        /* \"#utility.yul\":7096:7097   */\n      dup3\n        /* \"#utility.yul\":7086:7121   */\n      tag_316\n      jumpi\n        /* \"#utility.yul\":7101:7119   */\n      tag_316\n      tag_239\n      jump\t// in\n    tag_316:\n      pop\n        /* \"#utility.yul\":7135:7144   */\n      mod\n      swap1\n        /* \"#utility.yul\":7038:7150   */\n      jump\t// out\n        /* \"#utility.yul\":7155:7283   */\n    tag_227:\n        /* \"#utility.yul\":7195:7198   */\n      0x00\n        /* \"#utility.yul\":7226:7227   */\n      dup3\n        /* \"#utility.yul\":7222:7228   */\n      not\n        /* \"#utility.yul\":7219:7220   */\n      dup3\n        /* \"#utility.yul\":7216:7229   */\n      gt\n        /* \"#utility.yul\":7213:7252   */\n      iszero\n      tag_319\n      jumpi\n        /* \"#utility.yul\":7232:7250   */\n      tag_319\n      tag_238\n      jump\t// in\n    tag_319:\n      pop\n        /* \"#utility.yul\":7268:7277   */\n      add\n      swap1\n        /* \"#utility.yul\":7155:7283   */\n      jump\t// out\n        /* \"#utility.yul\":7288:7415   */\n    tag_230:\n        /* \"#utility.yul\":7349:7359   */\n      0x4e487b71\n        /* \"#utility.yul\":7344:7347   */\n      0xe0\n        /* \"#utility.yul\":7340:7360   */\n      shl\n        /* \"#utility.yul\":7337:7338   */\n      0x00\n        /* \"#utility.yul\":7330:7361   */\n      mstore\n        /* \"#utility.yul\":7380:7384   */\n      0x32\n        /* \"#utility.yul\":7377:7378   */\n      0x04\n        /* \"#utility.yul\":7370:7385   */\n      mstore\n        /* \"#utility.yul\":7404:7408   */\n      0x24\n        /* \"#utility.yul\":7401:7402   */\n      0x00\n        /* \"#utility.yul\":7394:7409   */\n      revert\n\n    auxdata: 0xa26469706673582212203f340a6e50a6b25f6dece2c98ead9eedcd97999e3e3931ec01b5d0dc82f7136b64736f6c634300080d0033\n}\n","bytecode":{"linkReferences":{},"object":"608060405234801561001057600080fd5b50610ff0806100206000396000f3fe608060405234801561001057600080fd5b50600436106100ea5760003560e01c80636352211e1161008c578063a22cb46511610066578063a22cb465146101d6578063b88d4fde146101e9578063c87b56dd146101fc578063e985e9c51461020f57600080fd5b80636352211e146101a857806370a08231146101bb57806395d89b41146101ce57600080fd5b8063095ea7b3116100c8578063095ea7b31461015757806318160ddd1461016c57806323b872dd1461018257806342842e0e1461019557600080fd5b806301ffc9a7146100ef57806306fdde0314610117578063081812fc1461012c575b600080fd5b6101026100fd366004610ba6565b61024b565b60405190151581526020015b60405180910390f35b61011f61029d565b60405161010e9190610c1b565b61013f61013a366004610c2e565b61032f565b6040516001600160a01b03909116815260200161010e565b61016a610165366004610c63565b610373565b005b606654606554035b60405190815260200161010e565b61016a610190366004610c8d565b610400565b61016a6101a3366004610c8d565b61040b565b61013f6101b6366004610c2e565b610426565b6101746101c9366004610cc9565b610438565b61011f610487565b61016a6101e4366004610ce4565b610496565b61016a6101f7366004610d36565b61052b565b61011f61020a366004610c2e565b61057c565b61010261021d366004610e12565b6001600160a01b039182166000908152606c6020908152604080832093909416825291909152205460ff1690565b60006001600160e01b031982166380ac58cd60e01b148061027c57506001600160e01b03198216635b5e139f60e01b145b8061029757506301ffc9a760e01b6001600160e01b03198316145b92915050565b6060606780546102ac90610e45565b80601f01602080910402602001604051908101604052809291908181526020018280546102d890610e45565b80156103255780601f106102fa57610100808354040283529160200191610325565b820191906000526020600020905b81548152906001019060200180831161030857829003601f168201915b5050505050905090565b600061033a8261060d565b610357576040516333d1c03960e21b815260040160405180910390fd5b506000908152606b60205260409020546001600160a01b031690565b600061037e82610426565b9050806001600160a01b0316836001600160a01b0316036103b25760405163250fdee360e21b815260040160405180910390fd5b336001600160a01b038216148015906103d257506103d0813361021d565b155b156103f0576040516367d9dca160e11b815260040160405180910390fd5b6103fb838383610639565b505050565b6103fb838383610695565b6103fb8383836040518060200160405280600081525061052b565b600061043182610884565b5192915050565b60006001600160a01b038216610461576040516323d3ad8160e21b815260040160405180910390fd5b506001600160a01b03166000908152606a602052604090205467ffffffffffffffff1690565b6060606880546102ac90610e45565b336001600160a01b038316036104bf5760405163b06307db60e01b815260040160405180910390fd5b336000818152606c602090815260408083206001600160a01b03871680855290835292819020805460ff191686151590811790915590519081529192917f17307eab39ab6107e8899845ad3d59bd9653f200f220920489ca2b5937696c31910160405180910390a35050565b610536848484610695565b6001600160a01b0383163b151580156105585750610556848484846109a0565b155b15610576576040516368d2bf6b60e11b815260040160405180910390fd5b50505050565b60606105878261060d565b6105a457604051630a14c4b560e41b815260040160405180910390fd5b60006105bb60408051602081019091526000815290565b905080516000036105db5760405180602001604052806000815250610606565b806105e584610a8c565b6040516020016105f6929190610e7f565b6040516020818303038152906040525b9392505050565b600060655482108015610297575050600090815260696020526040902054600160e01b900460ff161590565b6000828152606b602052604080822080546001600160a01b0319166001600160a01b0387811691821790925591518593918516917f8c5be1e5ebec7d5bd14f71427d1e84f3dd0314c0f7b2291e5b200ac8c7c3b92591a4505050565b60006106a082610884565b9050836001600160a01b031681600001516001600160a01b0316146106d75760405162a1148160e81b815260040160405180910390fd5b6000336001600160a01b03861614806106f557506106f5853361021d565b806107105750336107058461032f565b6001600160a01b0316145b90508061073057604051632ce44b5f60e11b815260040160405180910390fd5b6001600160a01b03841661075757604051633a954ecd60e21b815260040160405180910390fd5b61076360008487610639565b6001600160a01b038581166000908152606a60209081526040808320805467ffffffffffffffff1980821667ffffffffffffffff92831660001901831617909255898616808652838620805493841693831660019081018416949094179055898652606990945282852080546001600160e01b031916909417600160a01b42909216919091021783558701808452922080549193909116610839576065548214610839578054602086015167ffffffffffffffff16600160a01b026001600160e01b03199091166001600160a01b038a16171781555b50505082846001600160a01b0316866001600160a01b03167fddf252ad1be2c89b69c2b068fc378daa952ba7f163c4a11628f55a4df523b3ef60405160405180910390a45050505050565b60408051606081018252600080825260208201819052918101919091528160655481101561098757600081815260696020908152604091829020825160608101845290546001600160a01b0381168252600160a01b810467ffffffffffffffff1692820192909252600160e01b90910460ff161515918101829052906109855780516001600160a01b03161561091b579392505050565b5060001901600081815260696020908152604091829020825160608101845290546001600160a01b038116808352600160a01b820467ffffffffffffffff1693830193909352600160e01b900460ff1615159281019290925215610980579392505050565b61091b565b505b604051636f96cda160e11b815260040160405180910390fd5b604051630a85bd0160e11b81526000906001600160a01b0385169063150b7a02906109d5903390899088908890600401610eae565b6020604051808303816000875af1925050508015610a10575060408051601f3d908101601f19168201909252610a0d91810190610eeb565b60015b610a6e573d808015610a3e576040519150601f19603f3d011682016040523d82523d6000602084013e610a43565b606091505b508051600003610a66576040516368d2bf6b60e11b815260040160405180910390fd5b805181602001fd5b6001600160e01b031916630a85bd0160e11b1490505b949350505050565b606081600003610ab35750506040805180820190915260018152600360fc1b602082015290565b8160005b8115610add5780610ac781610f1e565b9150610ad69050600a83610f4d565b9150610ab7565b60008167ffffffffffffffff811115610af857610af8610d20565b6040519080825280601f01601f191660200182016040528015610b22576020820181803683370190505b5090505b8415610a8457610b37600183610f61565b9150610b44600a86610f78565b610b4f906030610f8c565b60f81b818381518110610b6457610b64610fa4565b60200101906001600160f81b031916908160001a905350610b86600a86610f4d565b9450610b26565b6001600160e01b031981168114610ba357600080fd5b50565b600060208284031215610bb857600080fd5b813561060681610b8d565b60005b83811015610bde578181015183820152602001610bc6565b838111156105765750506000910152565b60008151808452610c07816020860160208601610bc3565b601f01601f19169290920160200192915050565b6020815260006106066020830184610bef565b600060208284031215610c4057600080fd5b5035919050565b80356001600160a01b0381168114610c5e57600080fd5b919050565b60008060408385031215610c7657600080fd5b610c7f83610c47565b946020939093013593505050565b600080600060608486031215610ca257600080fd5b610cab84610c47565b9250610cb960208501610c47565b9150604084013590509250925092565b600060208284031215610cdb57600080fd5b61060682610c47565b60008060408385031215610cf757600080fd5b610d0083610c47565b915060208301358015158114610d1557600080fd5b809150509250929050565b634e487b7160e01b600052604160045260246000fd5b60008060008060808587031215610d4c57600080fd5b610d5585610c47565b9350610d6360208601610c47565b925060408501359150606085013567ffffffffffffffff80821115610d8757600080fd5b818701915087601f830112610d9b57600080fd5b813581811115610dad57610dad610d20565b604051601f8201601f19908116603f01168101908382118183101715610dd557610dd5610d20565b816040528281528a6020848701011115610dee57600080fd5b82602086016020830137600060208483010152809550505050505092959194509250565b60008060408385031215610e2557600080fd5b610e2e83610c47565b9150610e3c60208401610c47565b90509250929050565b600181811c90821680610e5957607f821691505b602082108103610e7957634e487b7160e01b600052602260045260246000fd5b50919050565b60008351610e91818460208801610bc3565b835190830190610ea5818360208801610bc3565b01949350505050565b6001600160a01b0385811682528416602082015260408101839052608060608201819052600090610ee190830184610bef565b9695505050505050565b600060208284031215610efd57600080fd5b815161060681610b8d565b634e487b7160e01b600052601160045260246000fd5b600060018201610f3057610f30610f08565b5060010190565b634e487b7160e01b600052601260045260246000fd5b600082610f5c57610f5c610f37565b500490565b600082821015610f7357610f73610f08565b500390565b600082610f8757610f87610f37565b500690565b60008219821115610f9f57610f9f610f08565b500190565b634e487b7160e01b600052603260045260246000fdfea26469706673582212203f340a6e50a6b25f6dece2c98ead9eedcd97999e3e3931ec01b5d0dc82f7136b64736f6c634300080d0033","opcodes":"PUSH1 0x80 PUSH1 0x40 MSTORE CALLVALUE DUP1 ISZERO PUSH2 0x10 JUMPI PUSH1 0x0 DUP1 REVERT JUMPDEST POP PUSH2 0xFF0 DUP1 PUSH2 0x20 PUSH1 0x0 CODECOPY PUSH1 0x0 RETURN INVALID PUSH1 0x80 PUSH1 0x40 MSTORE CALLVALUE DUP1 ISZERO PUSH2 0x10 JUMPI PUSH1 0x0 DUP1 REVERT JUMPDEST POP PUSH1 0x4 CALLDATASIZE LT PUSH2 0xEA JUMPI PUSH1 0x0 CALLDATALOAD PUSH1 0xE0 SHR DUP1 PUSH4 0x6352211E GT PUSH2 0x8C JUMPI DUP1 PUSH4 0xA22CB465 GT PUSH2 0x66 JUMPI DUP1 PUSH4 0xA22CB465 EQ PUSH2 0x1D6 JUMPI DUP1 PUSH4 0xB88D4FDE EQ PUSH2 0x1E9 JUMPI DUP1 PUSH4 0xC87B56DD EQ PUSH2 0x1FC JUMPI DUP1 PUSH4 0xE985E9C5 EQ PUSH2 0x20F JUMPI PUSH1 0x0 DUP1 REVERT JUMPDEST DUP1 PUSH4 0x6352211E EQ PUSH2 0x1A8 JUMPI DUP1 PUSH4 0x70A08231 EQ PUSH2 0x1BB JUMPI DUP1 PUSH4 0x95D89B41 EQ PUSH2 0x1CE JUMPI PUSH1 0x0 DUP1 REVERT JUMPDEST DUP1 PUSH4 0x95EA7B3 GT PUSH2 0xC8 JUMPI DUP1 PUSH4 0x95EA7B3 EQ PUSH2 0x157 JUMPI DUP1 PUSH4 0x18160DDD EQ PUSH2 0x16C JUMPI DUP1 PUSH4 0x23B872DD EQ PUSH2 0x182 JUMPI DUP1 PUSH4 0x42842E0E EQ PUSH2 0x195 JUMPI PUSH1 0x0 DUP1 REVERT JUMPDEST DUP1 PUSH4 0x1FFC9A7 EQ PUSH2 0xEF JUMPI DUP1 PUSH4 0x6FDDE03 EQ PUSH2 0x117 JUMPI DUP1 PUSH4 0x81812FC EQ PUSH2 0x12C JUMPI JUMPDEST PUSH1 0x0 DUP1 REVERT JUMPDEST PUSH2 0x102 PUSH2 0xFD CALLDATASIZE PUSH1 0x4 PUSH2 0xBA6 JUMP JUMPDEST PUSH2 0x24B JUMP JUMPDEST PUSH1 0x40 MLOAD SWAP1 ISZERO ISZERO DUP2 MSTORE PUSH1 0x20 ADD JUMPDEST PUSH1 0x40 MLOAD DUP1 SWAP2 SUB SWAP1 RETURN JUMPDEST PUSH2 0x11F PUSH2 0x29D JUMP JUMPDEST PUSH1 0x40 MLOAD PUSH2 0x10E SWAP2 SWAP1 PUSH2 0xC1B JUMP JUMPDEST PUSH2 0x13F PUSH2 0x13A CALLDATASIZE PUSH1 0x4 PUSH2 0xC2E JUMP JUMPDEST PUSH2 0x32F JUMP JUMPDEST PUSH1 0x40 MLOAD PUSH1 0x1 PUSH1 0x1 PUSH1 0xA0 SHL SUB SWAP1 SWAP2 AND DUP2 MSTORE PUSH1 0x20 ADD PUSH2 0x10E JUMP JUMPDEST PUSH2 0x16A PUSH2 0x165 CALLDATASIZE PUSH1 0x4 PUSH2 0xC63 JUMP JUMPDEST PUSH2 0x373 JUMP JUMPDEST STOP JUMPDEST PUSH1 0x66 SLOAD PUSH1 0x65 SLOAD SUB JUMPDEST PUSH1 0x40 MLOAD SWAP1 DUP2 MSTORE PUSH1 0x20 ADD PUSH2 0x10E JUMP JUMPDEST PUSH2 0x16A PUSH2 0x190 CALLDATASIZE PUSH1 0x4 PUSH2 0xC8D JUMP JUMPDEST PUSH2 0x400 JUMP JUMPDEST PUSH2 0x16A PUSH2 0x1A3 CALLDATASIZE PUSH1 0x4 PUSH2 0xC8D JUMP JUMPDEST PUSH2 0x40B JUMP JUMPDEST PUSH2 0x13F PUSH2 0x1B6 CALLDATASIZE PUSH1 0x4 PUSH2 0xC2E JUMP JUMPDEST PUSH2 0x426 JUMP JUMPDEST PUSH2 0x174 PUSH2 0x1C9 CALLDATASIZE PUSH1 0x4 PUSH2 0xCC9 JUMP JUMPDEST PUSH2 0x438 JUMP JUMPDEST PUSH2 0x11F PUSH2 0x487 JUMP JUMPDEST PUSH2 0x16A PUSH2 0x1E4 CALLDATASIZE PUSH1 0x4 PUSH2 0xCE4 JUMP JUMPDEST PUSH2 0x496 JUMP JUMPDEST PUSH2 0x16A PUSH2 0x1F7 CALLDATASIZE PUSH1 0x4 PUSH2 0xD36 JUMP JUMPDEST PUSH2 0x52B JUMP JUMPDEST PUSH2 0x11F PUSH2 0x20A CALLDATASIZE PUSH1 0x4 PUSH2 0xC2E JUMP JUMPDEST PUSH2 0x57C JUMP JUMPDEST PUSH2 0x102 PUSH2 0x21D CALLDATASIZE PUSH1 0x4 PUSH2 0xE12 JUMP JUMPDEST PUSH1 0x1 PUSH1 0x1 PUSH1 0xA0 SHL SUB SWAP2 DUP3 AND PUSH1 0x0 SWAP1 DUP2 MSTORE PUSH1 0x6C PUSH1 0x20 SWAP1 DUP2 MSTORE PUSH1 0x40 DUP1 DUP4 KECCAK256 SWAP4 SWAP1 SWAP5 AND DUP3 MSTORE SWAP2 SWAP1 SWAP2 MSTORE KECCAK256 SLOAD PUSH1 0xFF AND SWAP1 JUMP JUMPDEST PUSH1 0x0 PUSH1 0x1 PUSH1 0x1 PUSH1 0xE0 SHL SUB NOT DUP3 AND PUSH4 0x80AC58CD PUSH1 0xE0 SHL EQ DUP1 PUSH2 0x27C JUMPI POP PUSH1 0x1 PUSH1 0x1 PUSH1 0xE0 SHL SUB NOT DUP3 AND PUSH4 0x5B5E139F PUSH1 0xE0 SHL EQ JUMPDEST DUP1 PUSH2 0x297 JUMPI POP PUSH4 0x1FFC9A7 PUSH1 0xE0 SHL PUSH1 0x1 PUSH1 0x1 PUSH1 0xE0 SHL SUB NOT DUP4 AND EQ JUMPDEST SWAP3 SWAP2 POP POP JUMP JUMPDEST PUSH1 0x60 PUSH1 0x67 DUP1 SLOAD PUSH2 0x2AC SWAP1 PUSH2 0xE45 JUMP JUMPDEST DUP1 PUSH1 0x1F ADD PUSH1 0x20 DUP1 SWAP2 DIV MUL PUSH1 0x20 ADD PUSH1 0x40 MLOAD SWAP1 DUP2 ADD PUSH1 0x40 MSTORE DUP1 SWAP3 SWAP2 SWAP1 DUP2 DUP2 MSTORE PUSH1 0x20 ADD DUP3 DUP1 SLOAD PUSH2 0x2D8 SWAP1 PUSH2 0xE45 JUMP JUMPDEST DUP1 ISZERO PUSH2 0x325 JUMPI DUP1 PUSH1 0x1F LT PUSH2 0x2FA JUMPI PUSH2 0x100 DUP1 DUP4 SLOAD DIV MUL DUP4 MSTORE SWAP2 PUSH1 0x20 ADD SWAP2 PUSH2 0x325 JUMP JUMPDEST DUP3 ADD SWAP2 SWAP1 PUSH1 0x0 MSTORE PUSH1 0x20 PUSH1 0x0 KECCAK256 SWAP1 JUMPDEST DUP2 SLOAD DUP2 MSTORE SWAP1 PUSH1 0x1 ADD SWAP1 PUSH1 0x20 ADD DUP1 DUP4 GT PUSH2 0x308 JUMPI DUP3 SWAP1 SUB PUSH1 0x1F AND DUP3 ADD SWAP2 JUMPDEST POP POP POP POP POP SWAP1 POP SWAP1 JUMP JUMPDEST PUSH1 0x0 PUSH2 0x33A DUP3 PUSH2 0x60D JUMP JUMPDEST PUSH2 0x357 JUMPI PUSH1 0x40 MLOAD PUSH4 0x33D1C039 PUSH1 0xE2 SHL DUP2 MSTORE PUSH1 0x4 ADD PUSH1 0x40 MLOAD DUP1 SWAP2 SUB SWAP1 REVERT JUMPDEST POP PUSH1 0x0 SWAP1 DUP2 MSTORE PUSH1 0x6B PUSH1 0x20 MSTORE PUSH1 0x40 SWAP1 KECCAK256 SLOAD PUSH1 0x1 PUSH1 0x1 PUSH1 0xA0 SHL SUB AND SWAP1 JUMP JUMPDEST PUSH1 0x0 PUSH2 0x37E DUP3 PUSH2 0x426 JUMP JUMPDEST SWAP1 POP DUP1 PUSH1 0x1 PUSH1 0x1 PUSH1 0xA0 SHL SUB AND DUP4 PUSH1 0x1 PUSH1 0x1 PUSH1 0xA0 SHL SUB AND SUB PUSH2 0x3B2 JUMPI PUSH1 0x40 MLOAD PUSH4 0x250FDEE3 PUSH1 0xE2 SHL DUP2 MSTORE PUSH1 0x4 ADD PUSH1 0x40 MLOAD DUP1 SWAP2 SUB SWAP1 REVERT JUMPDEST CALLER PUSH1 0x1 PUSH1 0x1 PUSH1 0xA0 SHL SUB DUP3 AND EQ DUP1 ISZERO SWAP1 PUSH2 0x3D2 JUMPI POP PUSH2 0x3D0 DUP2 CALLER PUSH2 0x21D JUMP JUMPDEST ISZERO JUMPDEST ISZERO PUSH2 0x3F0 JUMPI PUSH1 0x40 MLOAD PUSH4 0x67D9DCA1 PUSH1 0xE1 SHL DUP2 MSTORE PUSH1 0x4 ADD PUSH1 0x40 MLOAD DUP1 SWAP2 SUB SWAP1 REVERT JUMPDEST PUSH2 0x3FB DUP4 DUP4 DUP4 PUSH2 0x639 JUMP JUMPDEST POP POP POP JUMP JUMPDEST PUSH2 0x3FB DUP4 DUP4 DUP4 PUSH2 0x695 JUMP JUMPDEST PUSH2 0x3FB DUP4 DUP4 DUP4 PUSH1 0x40 MLOAD DUP1 PUSH1 0x20 ADD PUSH1 0x40 MSTORE DUP1 PUSH1 0x0 DUP2 MSTORE POP PUSH2 0x52B JUMP JUMPDEST PUSH1 0x0 PUSH2 0x431 DUP3 PUSH2 0x884 JUMP JUMPDEST MLOAD SWAP3 SWAP2 POP POP JUMP JUMPDEST PUSH1 0x0 PUSH1 0x1 PUSH1 0x1 PUSH1 0xA0 SHL SUB DUP3 AND PUSH2 0x461 JUMPI PUSH1 0x40 MLOAD PUSH4 0x23D3AD81 PUSH1 0xE2 SHL DUP2 MSTORE PUSH1 0x4 ADD PUSH1 0x40 MLOAD DUP1 SWAP2 SUB SWAP1 REVERT JUMPDEST POP PUSH1 0x1 PUSH1 0x1 PUSH1 0xA0 SHL SUB AND PUSH1 0x0 SWAP1 DUP2 MSTORE PUSH1 0x6A PUSH1 0x20 MSTORE PUSH1 0x40 SWAP1 KECCAK256 SLOAD PUSH8 0xFFFFFFFFFFFFFFFF AND SWAP1 JUMP JUMPDEST PUSH1 0x60 PUSH1 0x68 DUP1 SLOAD PUSH2 0x2AC SWAP1 PUSH2 0xE45 JUMP JUMPDEST CALLER PUSH1 0x1 PUSH1 0x1 PUSH1 0xA0 SHL SUB DUP4 AND SUB PUSH2 0x4BF JUMPI PUSH1 0x40 MLOAD PUSH4 0xB06307DB PUSH1 0xE0 SHL DUP2 MSTORE PUSH1 0x4 ADD PUSH1 0x40 MLOAD DUP1 SWAP2 SUB SWAP1 REVERT JUMPDEST CALLER PUSH1 0x0 DUP2 DUP2 MSTORE PUSH1 0x6C PUSH1 0x20 SWAP1 DUP2 MSTORE PUSH1 0x40 DUP1 DUP4 KECCAK256 PUSH1 0x1 PUSH1 0x1 PUSH1 0xA0 SHL SUB DUP8 AND DUP1 DUP6 MSTORE SWAP1 DUP4 MSTORE SWAP3 DUP2 SWAP1 KECCAK256 DUP1 SLOAD PUSH1 0xFF NOT AND DUP7 ISZERO ISZERO SWAP1 DUP2 OR SWAP1 SWAP2 SSTORE SWAP1 MLOAD SWAP1 DUP2 MSTORE SWAP2 SWAP3 SWAP2 PUSH32 0x17307EAB39AB6107E8899845AD3D59BD9653F200F220920489CA2B5937696C31 SWAP2 ADD PUSH1 0x40 MLOAD DUP1 SWAP2 SUB SWAP1 LOG3 POP POP JUMP JUMPDEST PUSH2 0x536 DUP5 DUP5 DUP5 PUSH2 0x695 JUMP JUMPDEST PUSH1 0x1 PUSH1 0x1 PUSH1 0xA0 SHL SUB DUP4 AND EXTCODESIZE ISZERO ISZERO DUP1 ISZERO PUSH2 0x558 JUMPI POP PUSH2 0x556 DUP5 DUP5 DUP5 DUP5 PUSH2 0x9A0 JUMP JUMPDEST ISZERO JUMPDEST ISZERO PUSH2 0x576 JUMPI PUSH1 0x40 MLOAD PUSH4 0x68D2BF6B PUSH1 0xE1 SHL DUP2 MSTORE PUSH1 0x4 ADD PUSH1 0x40 MLOAD DUP1 SWAP2 SUB SWAP1 REVERT JUMPDEST POP POP POP POP JUMP JUMPDEST PUSH1 0x60 PUSH2 0x587 DUP3 PUSH2 0x60D JUMP JUMPDEST PUSH2 0x5A4 JUMPI PUSH1 0x40 MLOAD PUSH4 0xA14C4B5 PUSH1 0xE4 SHL DUP2 MSTORE PUSH1 0x4 ADD PUSH1 0x40 MLOAD DUP1 SWAP2 SUB SWAP1 REVERT JUMPDEST PUSH1 0x0 PUSH2 0x5BB PUSH1 0x40 DUP1 MLOAD PUSH1 0x20 DUP2 ADD SWAP1 SWAP2 MSTORE PUSH1 0x0 DUP2 MSTORE SWAP1 JUMP JUMPDEST SWAP1 POP DUP1 MLOAD PUSH1 0x0 SUB PUSH2 0x5DB JUMPI PUSH1 0x40 MLOAD DUP1 PUSH1 0x20 ADD PUSH1 0x40 MSTORE DUP1 PUSH1 0x0 DUP2 MSTORE POP PUSH2 0x606 JUMP JUMPDEST DUP1 PUSH2 0x5E5 DUP5 PUSH2 0xA8C JUMP JUMPDEST PUSH1 0x40 MLOAD PUSH1 0x20 ADD PUSH2 0x5F6 SWAP3 SWAP2 SWAP1 PUSH2 0xE7F JUMP JUMPDEST PUSH1 0x40 MLOAD PUSH1 0x20 DUP2 DUP4 SUB SUB DUP2 MSTORE SWAP1 PUSH1 0x40 MSTORE JUMPDEST SWAP4 SWAP3 POP POP POP JUMP JUMPDEST PUSH1 0x0 PUSH1 0x65 SLOAD DUP3 LT DUP1 ISZERO PUSH2 0x297 JUMPI POP POP PUSH1 0x0 SWAP1 DUP2 MSTORE PUSH1 0x69 PUSH1 0x20 MSTORE PUSH1 0x40 SWAP1 KECCAK256 SLOAD PUSH1 0x1 PUSH1 0xE0 SHL SWAP1 DIV PUSH1 0xFF AND ISZERO SWAP1 JUMP JUMPDEST PUSH1 0x0 DUP3 DUP2 MSTORE PUSH1 0x6B PUSH1 0x20 MSTORE PUSH1 0x40 DUP1 DUP3 KECCAK256 DUP1 SLOAD PUSH1 0x1 PUSH1 0x1 PUSH1 0xA0 SHL SUB NOT AND PUSH1 0x1 PUSH1 0x1 PUSH1 0xA0 SHL SUB DUP8 DUP2 AND SWAP2 DUP3 OR SWAP1 SWAP3 SSTORE SWAP2 MLOAD DUP6 SWAP4 SWAP2 DUP6 AND SWAP2 PUSH32 0x8C5BE1E5EBEC7D5BD14F71427D1E84F3DD0314C0F7B2291E5B200AC8C7C3B925 SWAP2 LOG4 POP POP POP JUMP JUMPDEST PUSH1 0x0 PUSH2 0x6A0 DUP3 PUSH2 0x884 JUMP JUMPDEST SWAP1 POP DUP4 PUSH1 0x1 PUSH1 0x1 PUSH1 0xA0 SHL SUB AND DUP2 PUSH1 0x0 ADD MLOAD PUSH1 0x1 PUSH1 0x1 PUSH1 0xA0 SHL SUB AND EQ PUSH2 0x6D7 JUMPI PUSH1 0x40 MLOAD PUSH3 0xA11481 PUSH1 0xE8 SHL DUP2 MSTORE PUSH1 0x4 ADD PUSH1 0x40 MLOAD DUP1 SWAP2 SUB SWAP1 REVERT JUMPDEST PUSH1 0x0 CALLER PUSH1 0x1 PUSH1 0x1 PUSH1 0xA0 SHL SUB DUP7 AND EQ DUP1 PUSH2 0x6F5 JUMPI POP PUSH2 0x6F5 DUP6 CALLER PUSH2 0x21D JUMP JUMPDEST DUP1 PUSH2 0x710 JUMPI POP CALLER PUSH2 0x705 DUP5 PUSH2 0x32F JUMP JUMPDEST PUSH1 0x1 PUSH1 0x1 PUSH1 0xA0 SHL SUB AND EQ JUMPDEST SWAP1 POP DUP1 PUSH2 0x730 JUMPI PUSH1 0x40 MLOAD PUSH4 0x2CE44B5F PUSH1 0xE1 SHL DUP2 MSTORE PUSH1 0x4 ADD PUSH1 0x40 MLOAD DUP1 SWAP2 SUB SWAP1 REVERT JUMPDEST PUSH1 0x1 PUSH1 0x1 PUSH1 0xA0 SHL SUB DUP5 AND PUSH2 0x757 JUMPI PUSH1 0x40 MLOAD PUSH4 0x3A954ECD PUSH1 0xE2 SHL DUP2 MSTORE PUSH1 0x4 ADD PUSH1 0x40 MLOAD DUP1 SWAP2 SUB SWAP1 REVERT JUMPDEST PUSH2 0x763 PUSH1 0x0 DUP5 DUP8 PUSH2 0x639 JUMP JUMPDEST PUSH1 0x1 PUSH1 0x1 PUSH1 0xA0 SHL SUB DUP6 DUP2 AND PUSH1 0x0 SWAP1 DUP2 MSTORE PUSH1 0x6A PUSH1 0x20 SWAP1 DUP2 MSTORE PUSH1 0x40 DUP1 DUP4 KECCAK256 DUP1 SLOAD PUSH8 0xFFFFFFFFFFFFFFFF NOT DUP1 DUP3 AND PUSH8 0xFFFFFFFFFFFFFFFF SWAP3 DUP4 AND PUSH1 0x0 NOT ADD DUP4 AND OR SWAP1 SWAP3 SSTORE DUP10 DUP7 AND DUP1 DUP7 MSTORE DUP4 DUP7 KECCAK256 DUP1 SLOAD SWAP4 DUP5 AND SWAP4 DUP4 AND PUSH1 0x1 SWAP1 DUP2 ADD DUP5 AND SWAP5 SWAP1 SWAP5 OR SWAP1 SSTORE DUP10 DUP7 MSTORE PUSH1 0x69 SWAP1 SWAP5 MSTORE DUP3 DUP6 KECCAK256 DUP1 SLOAD PUSH1 0x1 PUSH1 0x1 PUSH1 0xE0 SHL SUB NOT AND SWAP1 SWAP5 OR PUSH1 0x1 PUSH1 0xA0 SHL TIMESTAMP SWAP1 SWAP3 AND SWAP2 SWAP1 SWAP2 MUL OR DUP4 SSTORE DUP8 ADD DUP1 DUP5 MSTORE SWAP3 KECCAK256 DUP1 SLOAD SWAP2 SWAP4 SWAP1 SWAP2 AND PUSH2 0x839 JUMPI PUSH1 0x65 SLOAD DUP3 EQ PUSH2 0x839 JUMPI DUP1 SLOAD PUSH1 0x20 DUP7 ADD MLOAD PUSH8 0xFFFFFFFFFFFFFFFF AND PUSH1 0x1 PUSH1 0xA0 SHL MUL PUSH1 0x1 PUSH1 0x1 PUSH1 0xE0 SHL SUB NOT SWAP1 SWAP2 AND PUSH1 0x1 PUSH1 0x1 PUSH1 0xA0 SHL SUB DUP11 AND OR OR DUP2 SSTORE JUMPDEST POP POP POP DUP3 DUP5 PUSH1 0x1 PUSH1 0x1 PUSH1 0xA0 SHL SUB AND DUP7 PUSH1 0x1 PUSH1 0x1 PUSH1 0xA0 SHL SUB AND PUSH32 0xDDF252AD1BE2C89B69C2B068FC378DAA952BA7F163C4A11628F55A4DF523B3EF PUSH1 0x40 MLOAD PUSH1 0x40 MLOAD DUP1 SWAP2 SUB SWAP1 LOG4 POP POP POP POP POP JUMP JUMPDEST PUSH1 0x40 DUP1 MLOAD PUSH1 0x60 DUP2 ADD DUP3 MSTORE PUSH1 0x0 DUP1 DUP3 MSTORE PUSH1 0x20 DUP3 ADD DUP2 SWAP1 MSTORE SWAP2 DUP2 ADD SWAP2 SWAP1 SWAP2 MSTORE DUP2 PUSH1 0x65 SLOAD DUP2 LT ISZERO PUSH2 0x987 JUMPI PUSH1 0x0 DUP2 DUP2 MSTORE PUSH1 0x69 PUSH1 0x20 SWAP1 DUP2 MSTORE PUSH1 0x40 SWAP2 DUP3 SWAP1 KECCAK256 DUP3 MLOAD PUSH1 0x60 DUP2 ADD DUP5 MSTORE SWAP1 SLOAD PUSH1 0x1 PUSH1 0x1 PUSH1 0xA0 SHL SUB DUP2 AND DUP3 MSTORE PUSH1 0x1 PUSH1 0xA0 SHL DUP2 DIV PUSH8 0xFFFFFFFFFFFFFFFF AND SWAP3 DUP3 ADD SWAP3 SWAP1 SWAP3 MSTORE PUSH1 0x1 PUSH1 0xE0 SHL SWAP1 SWAP2 DIV PUSH1 0xFF AND ISZERO ISZERO SWAP2 DUP2 ADD DUP3 SWAP1 MSTORE SWAP1 PUSH2 0x985 JUMPI DUP1 MLOAD PUSH1 0x1 PUSH1 0x1 PUSH1 0xA0 SHL SUB AND ISZERO PUSH2 0x91B JUMPI SWAP4 SWAP3 POP POP POP JUMP JUMPDEST POP PUSH1 0x0 NOT ADD PUSH1 0x0 DUP2 DUP2 MSTORE PUSH1 0x69 PUSH1 0x20 SWAP1 DUP2 MSTORE PUSH1 0x40 SWAP2 DUP3 SWAP1 KECCAK256 DUP3 MLOAD PUSH1 0x60 DUP2 ADD DUP5 MSTORE SWAP1 SLOAD PUSH1 0x1 PUSH1 0x1 PUSH1 0xA0 SHL SUB DUP2 AND DUP1 DUP4 MSTORE PUSH1 0x1 PUSH1 0xA0 SHL DUP3 DIV PUSH8 0xFFFFFFFFFFFFFFFF AND SWAP4 DUP4 ADD SWAP4 SWAP1 SWAP4 MSTORE PUSH1 0x1 PUSH1 0xE0 SHL SWAP1 DIV PUSH1 0xFF AND ISZERO ISZERO SWAP3 DUP2 ADD SWAP3 SWAP1 SWAP3 MSTORE ISZERO PUSH2 0x980 JUMPI SWAP4 SWAP3 POP POP POP JUMP JUMPDEST PUSH2 0x91B JUMP JUMPDEST POP JUMPDEST PUSH1 0x40 MLOAD PUSH4 0x6F96CDA1 PUSH1 0xE1 SHL DUP2 MSTORE PUSH1 0x4 ADD PUSH1 0x40 MLOAD DUP1 SWAP2 SUB SWAP1 REVERT JUMPDEST PUSH1 0x40 MLOAD PUSH4 0xA85BD01 PUSH1 0xE1 SHL DUP2 MSTORE PUSH1 0x0 SWAP1 PUSH1 0x1 PUSH1 0x1 PUSH1 0xA0 SHL SUB DUP6 AND SWAP1 PUSH4 0x150B7A02 SWAP1 PUSH2 0x9D5 SWAP1 CALLER SWAP1 DUP10 SWAP1 DUP9 SWAP1 DUP9 SWAP1 PUSH1 0x4 ADD PUSH2 0xEAE JUMP JUMPDEST PUSH1 0x20 PUSH1 0x40 MLOAD DUP1 DUP4 SUB DUP2 PUSH1 0x0 DUP8 GAS CALL SWAP3 POP POP POP DUP1 ISZERO PUSH2 0xA10 JUMPI POP PUSH1 0x40 DUP1 MLOAD PUSH1 0x1F RETURNDATASIZE SWAP1 DUP2 ADD PUSH1 0x1F NOT AND DUP3 ADD SWAP1 SWAP3 MSTORE PUSH2 0xA0D SWAP2 DUP2 ADD SWAP1 PUSH2 0xEEB JUMP JUMPDEST PUSH1 0x1 JUMPDEST PUSH2 0xA6E JUMPI RETURNDATASIZE DUP1 DUP1 ISZERO PUSH2 0xA3E JUMPI PUSH1 0x40 MLOAD SWAP2 POP PUSH1 0x1F NOT PUSH1 0x3F RETURNDATASIZE ADD AND DUP3 ADD PUSH1 0x40 MSTORE RETURNDATASIZE DUP3 MSTORE RETURNDATASIZE PUSH1 0x0 PUSH1 0x20 DUP5 ADD RETURNDATACOPY PUSH2 0xA43 JUMP JUMPDEST PUSH1 0x60 SWAP2 POP JUMPDEST POP DUP1 MLOAD PUSH1 0x0 SUB PUSH2 0xA66 JUMPI PUSH1 0x40 MLOAD PUSH4 0x68D2BF6B PUSH1 0xE1 SHL DUP2 MSTORE PUSH1 0x4 ADD PUSH1 0x40 MLOAD DUP1 SWAP2 SUB SWAP1 REVERT JUMPDEST DUP1 MLOAD DUP2 PUSH1 0x20 ADD REVERT JUMPDEST PUSH1 0x1 PUSH1 0x1 PUSH1 0xE0 SHL SUB NOT AND PUSH4 0xA85BD01 PUSH1 0xE1 SHL EQ SWAP1 POP JUMPDEST SWAP5 SWAP4 POP POP POP POP JUMP JUMPDEST PUSH1 0x60 DUP2 PUSH1 0x0 SUB PUSH2 0xAB3 JUMPI POP POP PUSH1 0x40 DUP1 MLOAD DUP1 DUP3 ADD SWAP1 SWAP2 MSTORE PUSH1 0x1 DUP2 MSTORE PUSH1 0x3 PUSH1 0xFC SHL PUSH1 0x20 DUP3 ADD MSTORE SWAP1 JUMP JUMPDEST DUP2 PUSH1 0x0 JUMPDEST DUP2 ISZERO PUSH2 0xADD JUMPI DUP1 PUSH2 0xAC7 DUP2 PUSH2 0xF1E JUMP JUMPDEST SWAP2 POP PUSH2 0xAD6 SWAP1 POP PUSH1 0xA DUP4 PUSH2 0xF4D JUMP JUMPDEST SWAP2 POP PUSH2 0xAB7 JUMP JUMPDEST PUSH1 0x0 DUP2 PUSH8 0xFFFFFFFFFFFFFFFF DUP2 GT ISZERO PUSH2 0xAF8 JUMPI PUSH2 0xAF8 PUSH2 0xD20 JUMP JUMPDEST PUSH1 0x40 MLOAD SWAP1 DUP1 DUP3 MSTORE DUP1 PUSH1 0x1F ADD PUSH1 0x1F NOT AND PUSH1 0x20 ADD DUP3 ADD PUSH1 0x40 MSTORE DUP1 ISZERO PUSH2 0xB22 JUMPI PUSH1 0x20 DUP3 ADD DUP2 DUP1 CALLDATASIZE DUP4 CALLDATACOPY ADD SWAP1 POP JUMPDEST POP SWAP1 POP JUMPDEST DUP5 ISZERO PUSH2 0xA84 JUMPI PUSH2 0xB37 PUSH1 0x1 DUP4 PUSH2 0xF61 JUMP JUMPDEST SWAP2 POP PUSH2 0xB44 PUSH1 0xA DUP7 PUSH2 0xF78 JUMP JUMPDEST PUSH2 0xB4F SWAP1 PUSH1 0x30 PUSH2 0xF8C JUMP JUMPDEST PUSH1 0xF8 SHL DUP2 DUP4 DUP2 MLOAD DUP2 LT PUSH2 0xB64 JUMPI PUSH2 0xB64 PUSH2 0xFA4 JUMP JUMPDEST PUSH1 0x20 ADD ADD SWAP1 PUSH1 0x1 PUSH1 0x1 PUSH1 0xF8 SHL SUB NOT AND SWAP1 DUP2 PUSH1 0x0 BYTE SWAP1 MSTORE8 POP PUSH2 0xB86 PUSH1 0xA DUP7 PUSH2 0xF4D JUMP JUMPDEST SWAP5 POP PUSH2 0xB26 JUMP JUMPDEST PUSH1 0x1 PUSH1 0x1 PUSH1 0xE0 SHL SUB NOT DUP2 AND DUP2 EQ PUSH2 0xBA3 JUMPI PUSH1 0x0 DUP1 REVERT JUMPDEST POP JUMP JUMPDEST PUSH1 0x0 PUSH1 0x20 DUP3 DUP5 SUB SLT ISZERO PUSH2 0xBB8 JUMPI PUSH1 0x0 DUP1 REVERT JUMPDEST DUP2 CALLDATALOAD PUSH2 0x606 DUP2 PUSH2 0xB8D JUMP JUMPDEST PUSH1 0x0 JUMPDEST DUP4 DUP2 LT ISZERO PUSH2 0xBDE JUMPI DUP2 DUP2 ADD MLOAD DUP4 DUP3 ADD MSTORE PUSH1 0x20 ADD PUSH2 0xBC6 JUMP JUMPDEST DUP4 DUP2 GT ISZERO PUSH2 0x576 JUMPI POP POP PUSH1 0x0 SWAP2 ADD MSTORE JUMP JUMPDEST PUSH1 0x0 DUP2 MLOAD DUP1 DUP5 MSTORE PUSH2 0xC07 DUP2 PUSH1 0x20 DUP7 ADD PUSH1 0x20 DUP7 ADD PUSH2 0xBC3 JUMP JUMPDEST PUSH1 0x1F ADD PUSH1 0x1F NOT AND SWAP3 SWAP1 SWAP3 ADD PUSH1 0x20 ADD SWAP3 SWAP2 POP POP JUMP JUMPDEST PUSH1 0x20 DUP2 MSTORE PUSH1 0x0 PUSH2 0x606 PUSH1 0x20 DUP4 ADD DUP5 PUSH2 0xBEF JUMP JUMPDEST PUSH1 0x0 PUSH1 0x20 DUP3 DUP5 SUB SLT ISZERO PUSH2 0xC40 JUMPI PUSH1 0x0 DUP1 REVERT JUMPDEST POP CALLDATALOAD SWAP2 SWAP1 POP JUMP JUMPDEST DUP1 CALLDATALOAD PUSH1 0x1 PUSH1 0x1 PUSH1 0xA0 SHL SUB DUP2 AND DUP2 EQ PUSH2 0xC5E JUMPI PUSH1 0x0 DUP1 REVERT JUMPDEST SWAP2 SWAP1 POP JUMP JUMPDEST PUSH1 0x0 DUP1 PUSH1 0x40 DUP4 DUP6 SUB SLT ISZERO PUSH2 0xC76 JUMPI PUSH1 0x0 DUP1 REVERT JUMPDEST PUSH2 0xC7F DUP4 PUSH2 0xC47 JUMP JUMPDEST SWAP5 PUSH1 0x20 SWAP4 SWAP1 SWAP4 ADD CALLDATALOAD SWAP4 POP POP POP JUMP JUMPDEST PUSH1 0x0 DUP1 PUSH1 0x0 PUSH1 0x60 DUP5 DUP7 SUB SLT ISZERO PUSH2 0xCA2 JUMPI PUSH1 0x0 DUP1 REVERT JUMPDEST PUSH2 0xCAB DUP5 PUSH2 0xC47 JUMP JUMPDEST SWAP3 POP PUSH2 0xCB9 PUSH1 0x20 DUP6 ADD PUSH2 0xC47 JUMP JUMPDEST SWAP2 POP PUSH1 0x40 DUP5 ADD CALLDATALOAD SWAP1 POP SWAP3 POP SWAP3 POP SWAP3 JUMP JUMPDEST PUSH1 0x0 PUSH1 0x20 DUP3 DUP5 SUB SLT ISZERO PUSH2 0xCDB JUMPI PUSH1 0x0 DUP1 REVERT JUMPDEST PUSH2 0x606 DUP3 PUSH2 0xC47 JUMP JUMPDEST PUSH1 0x0 DUP1 PUSH1 0x40 DUP4 DUP6 SUB SLT ISZERO PUSH2 0xCF7 JUMPI PUSH1 0x0 DUP1 REVERT JUMPDEST PUSH2 0xD00 DUP4 PUSH2 0xC47 JUMP JUMPDEST SWAP2 POP PUSH1 0x20 DUP4 ADD CALLDATALOAD DUP1 ISZERO ISZERO DUP2 EQ PUSH2 0xD15 JUMPI PUSH1 0x0 DUP1 REVERT JUMPDEST DUP1 SWAP2 POP POP SWAP3 POP SWAP3 SWAP1 POP JUMP JUMPDEST PUSH4 0x4E487B71 PUSH1 0xE0 SHL PUSH1 0x0 MSTORE PUSH1 0x41 PUSH1 0x4 MSTORE PUSH1 0x24 PUSH1 0x0 REVERT JUMPDEST PUSH1 0x0 DUP1 PUSH1 0x0 DUP1 PUSH1 0x80 DUP6 DUP8 SUB SLT ISZERO PUSH2 0xD4C JUMPI PUSH1 0x0 DUP1 REVERT JUMPDEST PUSH2 0xD55 DUP6 PUSH2 0xC47 JUMP JUMPDEST SWAP4 POP PUSH2 0xD63 PUSH1 0x20 DUP7 ADD PUSH2 0xC47 JUMP JUMPDEST SWAP3 POP PUSH1 0x40 DUP6 ADD CALLDATALOAD SWAP2 POP PUSH1 0x60 DUP6 ADD CALLDATALOAD PUSH8 0xFFFFFFFFFFFFFFFF DUP1 DUP3 GT ISZERO PUSH2 0xD87 JUMPI PUSH1 0x0 DUP1 REVERT JUMPDEST DUP2 DUP8 ADD SWAP2 POP DUP8 PUSH1 0x1F DUP4 ADD SLT PUSH2 0xD9B JUMPI PUSH1 0x0 DUP1 REVERT JUMPDEST DUP2 CALLDATALOAD DUP2 DUP2 GT ISZERO PUSH2 0xDAD JUMPI PUSH2 0xDAD PUSH2 0xD20 JUMP JUMPDEST PUSH1 0x40 MLOAD PUSH1 0x1F DUP3 ADD PUSH1 0x1F NOT SWAP1 DUP2 AND PUSH1 0x3F ADD AND DUP2 ADD SWAP1 DUP4 DUP3 GT DUP2 DUP4 LT OR ISZERO PUSH2 0xDD5 JUMPI PUSH2 0xDD5 PUSH2 0xD20 JUMP JUMPDEST DUP2 PUSH1 0x40 MSTORE DUP3 DUP2 MSTORE DUP11 PUSH1 0x20 DUP5 DUP8 ADD ADD GT ISZERO PUSH2 0xDEE JUMPI PUSH1 0x0 DUP1 REVERT JUMPDEST DUP3 PUSH1 0x20 DUP7 ADD PUSH1 0x20 DUP4 ADD CALLDATACOPY PUSH1 0x0 PUSH1 0x20 DUP5 DUP4 ADD ADD MSTORE DUP1 SWAP6 POP POP POP POP POP POP SWAP3 SWAP6 SWAP2 SWAP5 POP SWAP3 POP JUMP JUMPDEST PUSH1 0x0 DUP1 PUSH1 0x40 DUP4 DUP6 SUB SLT ISZERO PUSH2 0xE25 JUMPI PUSH1 0x0 DUP1 REVERT JUMPDEST PUSH2 0xE2E DUP4 PUSH2 0xC47 JUMP JUMPDEST SWAP2 POP PUSH2 0xE3C PUSH1 0x20 DUP5 ADD PUSH2 0xC47 JUMP JUMPDEST SWAP1 POP SWAP3 POP SWAP3 SWAP1 POP JUMP JUMPDEST PUSH1 0x1 DUP2 DUP2 SHR SWAP1 DUP3 AND DUP1 PUSH2 0xE59 JUMPI PUSH1 0x7F DUP3 AND SWAP2 POP JUMPDEST PUSH1 0x20 DUP3 LT DUP2 SUB PUSH2 0xE79 JUMPI PUSH4 0x4E487B71 PUSH1 0xE0 SHL PUSH1 0x0 MSTORE PUSH1 0x22 PUSH1 0x4 MSTORE PUSH1 0x24 PUSH1 0x0 REVERT JUMPDEST POP SWAP2 SWAP1 POP JUMP JUMPDEST PUSH1 0x0 DUP4 MLOAD PUSH2 0xE91 DUP2 DUP5 PUSH1 0x20 DUP9 ADD PUSH2 0xBC3 JUMP JUMPDEST DUP4 MLOAD SWAP1 DUP4 ADD SWAP1 PUSH2 0xEA5 DUP2 DUP4 PUSH1 0x20 DUP9 ADD PUSH2 0xBC3 JUMP JUMPDEST ADD SWAP5 SWAP4 POP POP POP POP JUMP JUMPDEST PUSH1 0x1 PUSH1 0x1 PUSH1 0xA0 SHL SUB DUP6 DUP2 AND DUP3 MSTORE DUP5 AND PUSH1 0x20 DUP3 ADD MSTORE PUSH1 0x40 DUP2 ADD DUP4 SWAP1 MSTORE PUSH1 0x80 PUSH1 0x60 DUP3 ADD DUP2 SWAP1 MSTORE PUSH1 0x0 SWAP1 PUSH2 0xEE1 SWAP1 DUP4 ADD DUP5 PUSH2 0xBEF JUMP JUMPDEST SWAP7 SWAP6 POP POP POP POP POP POP JUMP JUMPDEST PUSH1 0x0 PUSH1 0x20 DUP3 DUP5 SUB SLT ISZERO PUSH2 0xEFD JUMPI PUSH1 0x0 DUP1 REVERT JUMPDEST DUP2 MLOAD PUSH2 0x606 DUP2 PUSH2 0xB8D JUMP JUMPDEST PUSH4 0x4E487B71 PUSH1 0xE0 SHL PUSH1 0x0 MSTORE PUSH1 0x11 PUSH1 0x4 MSTORE PUSH1 0x24 PUSH1 0x0 REVERT JUMPDEST PUSH1 0x0 PUSH1 0x1 DUP3 ADD PUSH2 0xF30 JUMPI PUSH2 0xF30 PUSH2 0xF08 JUMP JUMPDEST POP PUSH1 0x1 ADD SWAP1 JUMP JUMPDEST PUSH4 0x4E487B71 PUSH1 0xE0 SHL PUSH1 0x0 MSTORE PUSH1 0x12 PUSH1 0x4 MSTORE PUSH1 0x24 PUSH1 0x0 REVERT JUMPDEST PUSH1 0x0 DUP3 PUSH2 0xF5C JUMPI PUSH2 0xF5C PUSH2 0xF37 JUMP JUMPDEST POP DIV SWAP1 JUMP JUMPDEST PUSH1 0x0 DUP3 DUP3 LT ISZERO PUSH2 0xF73 JUMPI PUSH2 0xF73 PUSH2 0xF08 JUMP JUMPDEST POP SUB SWAP1 JUMP JUMPDEST PUSH1 0x0 DUP3 PUSH2 0xF87 JUMPI PUSH2 0xF87 PUSH2 0xF37 JUMP JUMPDEST POP MOD SWAP1 JUMP JUMPDEST PUSH1 0x0 DUP3 NOT DUP3 GT ISZERO PUSH2 0xF9F JUMPI PUSH2 0xF9F PUSH2 0xF08 JUMP JUMPDEST POP ADD SWAP1 JUMP JUMPDEST PUSH4 0x4E487B71 PUSH1 0xE0 SHL PUSH1 0x0 MSTORE PUSH1 0x32 PUSH1 0x4 MSTORE PUSH1 0x24 PUSH1 0x0 REVERT INVALID LOG2 PUSH5 0x6970667358 0x22 SLT KECCAK256 EXTCODEHASH CALLVALUE EXP PUSH15 0x50A6B25F6DECE2C98EAD9EEDCD9799 SWAP15 RETURNDATACOPY CODECOPY BALANCE 0xEC ADD 0xB5 0xD0 0xDC DUP3 0xF7 SGT PUSH12 0x64736F6C634300080D003300 "},"gasEstimates":{"creation":{"codeDepositCost":"816000","executionCost":"851","totalCost":"816851"},"external":{"approve(address,uint256)":"infinite","balanceOf(address)":"2640","getApproved(uint256)":"6936","isApprovedForAll(address,address)":"infinite","name()":"infinite","ownerOf(uint256)":"infinite","safeTransferFrom(address,address,uint256)":"infinite","safeTransferFrom(address,address,uint256,bytes)":"infinite","setApprovalForAll(address,bool)":"26647","supportsInterface(bytes4)":"534","symbol()":"infinite","tokenURI(uint256)":"infinite","totalSupply()":"4432","transferFrom(address,address,uint256)":"infinite"},"internal":{"__ERC721A_init(string memory,string memory)":"infinite","__ERC721A_init_unchained(string memory,string memory)":"infinite","_afterTokenTransfers(address,address,uint256,uint256)":"infinite","_approve(address,uint256,address)":"26264","_baseURI()":"infinite","_beforeTokenTransfers(address,address,uint256,uint256)":"infinite","_burn(uint256)":"infinite","_burn(uint256,bool)":"infinite","_checkContractOnERC721Received(address,address,uint256,bytes memory)":"infinite","_exists(uint256)":"4348","_getAux(address)":"infinite","_mint(address,uint256)":"infinite","_numberBurned(address)":"infinite","_numberMinted(address)":"infinite","_ownershipOf(uint256)":"infinite","_safeMint(address,uint256)":"infinite","_safeMint(address,uint256,bytes memory)":"infinite","_setAux(address,uint64)":"infinite","_startTokenId()":"infinite","_totalMinted()":"infinite","_transfer(address,address,uint256)":"infinite"}},"methodIdentifiers":{"approve(address,uint256)":"095ea7b3","balanceOf(address)":"70a08231","getApproved(uint256)":"081812fc","isApprovedForAll(address,address)":"e985e9c5","name()":"06fdde03","ownerOf(uint256)":"6352211e","safeTransferFrom(address,address,uint256)":"42842e0e","safeTransferFrom(address,address,uint256,bytes)":"b88d4fde","setApprovalForAll(address,bool)":"a22cb465","supportsInterface(bytes4)":"01ffc9a7","symbol()":"95d89b41","tokenURI(uint256)":"c87b56dd","totalSupply()":"18160ddd","transferFrom(address,address,uint256)":"23b872dd"}},"storageLayout":{"storage":[{"astId":149,"contract":"Base/Token/ERC721A/ERC721AUpgradeable.sol:ERC721AUpgradeable","label":"_initialized","offset":0,"slot":"0","type":"t_bool"},{"astId":152,"contract":"Base/Token/ERC721A/ERC721AUpgradeable.sol:ERC721AUpgradeable","label":"_initializing","offset":1,"slot":"0","type":"t_bool"},{"astId":679,"contract":"Base/Token/ERC721A/ERC721AUpgradeable.sol:ERC721AUpgradeable","label":"__gap","offset":0,"slot":"1","type":"t_array(t_uint256)50_storage"},{"astId":1093,"contract":"Base/Token/ERC721A/ERC721AUpgradeable.sol:ERC721AUpgradeable","label":"__gap","offset":0,"slot":"51","type":"t_array(t_uint256)50_storage"},{"astId":2481,"contract":"Base/Token/ERC721A/ERC721AUpgradeable.sol:ERC721AUpgradeable","label":"_currentIndex","offset":0,"slot":"101","type":"t_uint256"},{"astId":2483,"contract":"Base/Token/ERC721A/ERC721AUpgradeable.sol:ERC721AUpgradeable","label":"_burnCounter","offset":0,"slot":"102","type":"t_uint256"},{"astId":2485,"contract":"Base/Token/ERC721A/ERC721AUpgradeable.sol:ERC721AUpgradeable","label":"_name","offset":0,"slot":"103","type":"t_string_storage"},{"astId":2487,"contract":"Base/Token/ERC721A/ERC721AUpgradeable.sol:ERC721AUpgradeable","label":"_symbol","offset":0,"slot":"104","type":"t_string_storage"},{"astId":2492,"contract":"Base/Token/ERC721A/ERC721AUpgradeable.sol:ERC721AUpgradeable","label":"_ownerships","offset":0,"slot":"105","type":"t_mapping(t_uint256,t_struct(TokenOwnership)3895_storage)"},{"astId":2497,"contract":"Base/Token/ERC721A/ERC721AUpgradeable.sol:ERC721AUpgradeable","label":"_addressData","offset":0,"slot":"106","type":"t_mapping(t_address,t_struct(AddressData)3904_storage)"},{"astId":2501,"contract":"Base/Token/ERC721A/ERC721AUpgradeable.sol:ERC721AUpgradeable","label":"_tokenApprovals","offset":0,"slot":"107","type":"t_mapping(t_uint256,t_address)"},{"astId":2507,"contract":"Base/Token/ERC721A/ERC721AUpgradeable.sol:ERC721AUpgradeable","label":"_operatorApprovals","offset":0,"slot":"108","type":"t_mapping(t_address,t_mapping(t_address,t_bool))"},{"astId":3852,"contract":"Base/Token/ERC721A/ERC721AUpgradeable.sol:ERC721AUpgradeable","label":"__gap","offset":0,"slot":"109","type":"t_array(t_uint256)42_storage"}],"types":{"t_address":{"encoding":"inplace","label":"address","numberOfBytes":"20"},"t_array(t_uint256)42_storage":{"base":"t_uint256","encoding":"inplace","label":"uint256[42]","numberOfBytes":"1344"},"t_array(t_uint256)50_storage":{"base":"t_uint256","encoding":"inplace","label":"uint256[50]","numberOfBytes":"1600"},"t_bool":{"encoding":"inplace","label":"bool","numberOfBytes":"1"},"t_mapping(t_address,t_bool)":{"encoding":"mapping","key":"t_address","label":"mapping(address => bool)","numberOfBytes":"32","value":"t_bool"},"t_mapping(t_address,t_mapping(t_address,t_bool))":{"encoding":"mapping","key":"t_address","label":"mapping(address => mapping(address => bool))","numberOfBytes":"32","value":"t_mapping(t_address,t_bool)"},"t_mapping(t_address,t_struct(AddressData)3904_storage)":{"encoding":"mapping","key":"t_address","label":"mapping(address => struct IERC721AUpgradeable.AddressData)","numberOfBytes":"32","value":"t_struct(AddressData)3904_storage"},"t_mapping(t_uint256,t_address)":{"encoding":"mapping","key":"t_uint256","label":"mapping(uint256 => address)","numberOfBytes":"32","value":"t_address"},"t_mapping(t_uint256,t_struct(TokenOwnership)3895_storage)":{"encoding":"mapping","key":"t_uint256","label":"mapping(uint256 => struct IERC721AUpgradeable.TokenOwnership)","numberOfBytes":"32","value":"t_struct(TokenOwnership)3895_storage"},"t_string_storage":{"encoding":"bytes","label":"string","numberOfBytes":"32"},"t_struct(AddressData)3904_storage":{"encoding":"inplace","label":"struct IERC721AUpgradeable.AddressData","members":[{"astId":3897,"contract":"Base/Token/ERC721A/ERC721AUpgradeable.sol:ERC721AUpgradeable","label":"balance","offset":0,"slot":"0","type":"t_uint64"},{"astId":3899,"contract":"Base/Token/ERC721A/ERC721AUpgradeable.sol:ERC721AUpgradeable","label":"numberMinted","offset":8,"slot":"0","type":"t_uint64"},{"astId":3901,"contract":"Base/Token/ERC721A/ERC721AUpgradeable.sol:ERC721AUpgradeable","label":"numberBurned","offset":16,"slot":"0","type":"t_uint64"},{"astId":3903,"contract":"Base/Token/ERC721A/ERC721AUpgradeable.sol:ERC721AUpgradeable","label":"aux","offset":24,"slot":"0","type":"t_uint64"}],"numberOfBytes":"32"},"t_struct(TokenOwnership)3895_storage":{"encoding":"inplace","label":"struct IERC721AUpgradeable.TokenOwnership","members":[{"astId":3890,"contract":"Base/Token/ERC721A/ERC721AUpgradeable.sol:ERC721AUpgradeable","label":"addr","offset":0,"slot":"0","type":"t_address"},{"astId":3892,"contract":"Base/Token/ERC721A/ERC721AUpgradeable.sol:ERC721AUpgradeable","label":"startTimestamp","offset":20,"slot":"0","type":"t_uint64"},{"astId":3894,"contract":"Base/Token/ERC721A/ERC721AUpgradeable.sol:ERC721AUpgradeable","label":"burned","offset":28,"slot":"0","type":"t_bool"}],"numberOfBytes":"32"},"t_uint256":{"encoding":"inplace","label":"uint256","numberOfBytes":"32"},"t_uint64":{"encoding":"inplace","label":"uint64","numberOfBytes":"8"}}},"userdoc":{"kind":"user","methods":{},"version":1}}