{
  "_format": "hh-sol-artifact-1",
  "contractName": "CandyCreatorV1A",
  "sourceName": "contracts/CandyCreatorV1A.sol",
  "abi": [
    {
      "inputs": [
        {
          "internalType": "string",
          "name": "name",
          "type": "string"
        },
        {
          "internalType": "string",
          "name": "symbol",
          "type": "string"
        },
        {
          "internalType": "string",
          "name": "_placeholderURI",
          "type": "string"
        },
        {
          "internalType": "uint256",
          "name": "_mintPrice",
          "type": "uint256"
        },
        {
          "internalType": "uint256",
          "name": "_mintSize",
          "type": "uint256"
        },
        {
          "internalType": "address",
          "name": "_candyWallet",
          "type": "address"
        },
        {
          "internalType": "bool",
          "name": "_multi",
          "type": "bool"
        },
        {
          "internalType": "address[]",
          "name": "splitAddresses",
          "type": "address[]"
        },
        {
          "internalType": "uint256[]",
          "name": "splitShares",
          "type": "uint256[]"
        }
      ],
      "stateMutability": "nonpayable",
      "type": "constructor"
    },
    {
      "inputs": [],
      "name": "ApprovalCallerNotOwnerNorApproved",
      "type": "error"
    },
    {
      "inputs": [],
      "name": "ApprovalQueryForNonexistentToken",
      "type": "error"
    },
    {
      "inputs": [],
      "name": "ApprovalToCurrentOwner",
      "type": "error"
    },
    {
      "inputs": [],
      "name": "ApproveToCaller",
      "type": "error"
    },
    {
      "inputs": [],
      "name": "AuxQueryForZeroAddress",
      "type": "error"
    },
    {
      "inputs": [],
      "name": "BalanceQueryForZeroAddress",
      "type": "error"
    },
    {
      "inputs": [],
      "name": "MintToZeroAddress",
      "type": "error"
    },
    {
      "inputs": [],
      "name": "MintZeroQuantity",
      "type": "error"
    },
    {
      "inputs": [],
      "name": "OwnerQueryForNonexistentToken",
      "type": "error"
    },
    {
      "inputs": [],
      "name": "TransferCallerNotOwnerNorApproved",
      "type": "error"
    },
    {
      "inputs": [],
      "name": "TransferFromIncorrectOwner",
      "type": "error"
    },
    {
      "inputs": [],
      "name": "TransferToNonERC721ReceiverImplementer",
      "type": "error"
    },
    {
      "inputs": [],
      "name": "TransferToZeroAddress",
      "type": "error"
    },
    {
      "inputs": [],
      "name": "URIQueryForNonexistentToken",
      "type": "error"
    },
    {
      "anonymous": false,
      "inputs": [
        {
          "indexed": true,
          "internalType": "address",
          "name": "owner",
          "type": "address"
        },
        {
          "indexed": true,
          "internalType": "address",
          "name": "approved",
          "type": "address"
        },
        {
          "indexed": true,
          "internalType": "uint256",
          "name": "tokenId",
          "type": "uint256"
        }
      ],
      "name": "Approval",
      "type": "event"
    },
    {
      "anonymous": false,
      "inputs": [
        {
          "indexed": true,
          "internalType": "address",
          "name": "owner",
          "type": "address"
        },
        {
          "indexed": true,
          "internalType": "address",
          "name": "operator",
          "type": "address"
        },
        {
          "indexed": false,
          "internalType": "bool",
          "name": "approved",
          "type": "bool"
        }
      ],
      "name": "ApprovalForAll",
      "type": "event"
    },
    {
      "anonymous": false,
      "inputs": [
        {
          "indexed": true,
          "internalType": "address",
          "name": "previousOwner",
          "type": "address"
        },
        {
          "indexed": true,
          "internalType": "address",
          "name": "newOwner",
          "type": "address"
        }
      ],
      "name": "OwnerTransferred",
      "type": "event"
    },
    {
      "anonymous": false,
      "inputs": [
        {
          "indexed": false,
          "internalType": "address",
          "name": "account",
          "type": "address"
        },
        {
          "indexed": false,
          "internalType": "uint256",
          "name": "shares",
          "type": "uint256"
        }
      ],
      "name": "PayeeAdded",
      "type": "event"
    },
    {
      "anonymous": false,
      "inputs": [
        {
          "indexed": false,
          "internalType": "bool",
          "name": "_status",
          "type": "bool"
        }
      ],
      "name": "PayeesLocked",
      "type": "event"
    },
    {
      "anonymous": false,
      "inputs": [
        {
          "indexed": false,
          "internalType": "address",
          "name": "from",
          "type": "address"
        },
        {
          "indexed": false,
          "internalType": "uint256",
          "name": "amount",
          "type": "uint256"
        }
      ],
      "name": "PaymentReceived",
      "type": "event"
    },
    {
      "anonymous": false,
      "inputs": [
        {
          "indexed": false,
          "internalType": "address",
          "name": "to",
          "type": "address"
        },
        {
          "indexed": false,
          "internalType": "uint256",
          "name": "amount",
          "type": "uint256"
        }
      ],
      "name": "PaymentReleased",
      "type": "event"
    },
    {
      "anonymous": false,
      "inputs": [
        {
          "indexed": true,
          "internalType": "address",
          "name": "from",
          "type": "address"
        },
        {
          "indexed": true,
          "internalType": "address",
          "name": "to",
          "type": "address"
        },
        {
          "indexed": true,
          "internalType": "uint256",
          "name": "tokenId",
          "type": "uint256"
        }
      ],
      "name": "Transfer",
      "type": "event"
    },
    {
      "anonymous": false,
      "inputs": [
        {
          "indexed": false,
          "internalType": "uint256",
          "name": "_old",
          "type": "uint256"
        },
        {
          "indexed": false,
          "internalType": "uint256",
          "name": "_new",
          "type": "uint256"
        }
      ],
      "name": "UpdatedMaxPublicMints",
      "type": "event"
    },
    {
      "anonymous": false,
      "inputs": [
        {
          "indexed": false,
          "internalType": "uint256",
          "name": "_old",
          "type": "uint256"
        },
        {
          "indexed": false,
          "internalType": "uint256",
          "name": "_new",
          "type": "uint256"
        }
      ],
      "name": "UpdatedMaxWhitelistMints",
      "type": "event"
    },
    {
      "anonymous": false,
      "inputs": [
        {
          "indexed": false,
          "internalType": "uint256",
          "name": "_old",
          "type": "uint256"
        },
        {
          "indexed": false,
          "internalType": "uint256",
          "name": "_new",
          "type": "uint256"
        }
      ],
      "name": "UpdatedMintPrice",
      "type": "event"
    },
    {
      "anonymous": false,
      "inputs": [
        {
          "indexed": false,
          "internalType": "uint256",
          "name": "_old",
          "type": "uint256"
        },
        {
          "indexed": false,
          "internalType": "uint256",
          "name": "_new",
          "type": "uint256"
        }
      ],
      "name": "UpdatedMintSize",
      "type": "event"
    },
    {
      "anonymous": false,
      "inputs": [
        {
          "indexed": false,
          "internalType": "bool",
          "name": "_old",
          "type": "bool"
        },
        {
          "indexed": false,
          "internalType": "bool",
          "name": "_new",
          "type": "bool"
        }
      ],
      "name": "UpdatedMintStatus",
      "type": "event"
    },
    {
      "anonymous": false,
      "inputs": [
        {
          "indexed": false,
          "internalType": "uint256",
          "name": "_old",
          "type": "uint256"
        },
        {
          "indexed": false,
          "internalType": "uint256",
          "name": "_new",
          "type": "uint256"
        }
      ],
      "name": "UpdatedPresaleEnd",
      "type": "event"
    },
    {
      "anonymous": false,
      "inputs": [
        {
          "indexed": false,
          "internalType": "uint256",
          "name": "_old",
          "type": "uint256"
        },
        {
          "indexed": false,
          "internalType": "uint256",
          "name": "_new",
          "type": "uint256"
        }
      ],
      "name": "UpdatedRevealTimestamp",
      "type": "event"
    },
    {
      "anonymous": false,
      "inputs": [
        {
          "indexed": false,
          "internalType": "address",
          "name": "newRoyaltyAddress",
          "type": "address"
        },
        {
          "indexed": false,
          "internalType": "uint256",
          "name": "newPercentage",
          "type": "uint256"
        }
      ],
      "name": "UpdatedRoyalties",
      "type": "event"
    },
    {
      "anonymous": false,
      "inputs": [
        {
          "indexed": false,
          "internalType": "bytes32",
          "name": "_old",
          "type": "bytes32"
        },
        {
          "indexed": false,
          "internalType": "bytes32",
          "name": "_new",
          "type": "bytes32"
        }
      ],
      "name": "UpdatedWhitelist",
      "type": "event"
    },
    {
      "anonymous": false,
      "inputs": [
        {
          "indexed": false,
          "internalType": "bool",
          "name": "_old",
          "type": "bool"
        },
        {
          "indexed": false,
          "internalType": "bool",
          "name": "_new",
          "type": "bool"
        }
      ],
      "name": "UpdatedWhitelistStatus",
      "type": "event"
    },
    {
      "stateMutability": "payable",
      "type": "fallback"
    },
    {
      "inputs": [],
      "name": "acceptOwner",
      "outputs": [],
      "stateMutability": "nonpayable",
      "type": "function"
    },
    {
      "inputs": [
        {
          "internalType": "address",
          "name": "to",
          "type": "address"
        },
        {
          "internalType": "uint256",
          "name": "tokenId",
          "type": "uint256"
        }
      ],
      "name": "approve",
      "outputs": [],
      "stateMutability": "nonpayable",
      "type": "function"
    },
    {
      "inputs": [
        {
          "internalType": "address",
          "name": "owner",
          "type": "address"
        }
      ],
      "name": "balanceOf",
      "outputs": [
        {
          "internalType": "uint256",
          "name": "",
          "type": "uint256"
        }
      ],
      "stateMutability": "view",
      "type": "function"
    },
    {
      "inputs": [],
      "name": "collectionSize",
      "outputs": [
        {
          "internalType": "uint256",
          "name": "",
          "type": "uint256"
        }
      ],
      "stateMutability": "view",
      "type": "function"
    },
    {
      "inputs": [],
      "name": "declineOwner",
      "outputs": [],
      "stateMutability": "nonpayable",
      "type": "function"
    },
    {
      "inputs": [],
      "name": "disableMinting",
      "outputs": [],
      "stateMutability": "nonpayable",
      "type": "function"
    },
    {
      "inputs": [],
      "name": "disableWhitelist",
      "outputs": [],
      "stateMutability": "nonpayable",
      "type": "function"
    },
    {
      "inputs": [],
      "name": "enableMinting",
      "outputs": [],
      "stateMutability": "nonpayable",
      "type": "function"
    },
    {
      "inputs": [],
      "name": "enableWhitelist",
      "outputs": [],
      "stateMutability": "nonpayable",
      "type": "function"
    },
    {
      "inputs": [
        {
          "internalType": "uint256",
          "name": "tokenId",
          "type": "uint256"
        }
      ],
      "name": "getApproved",
      "outputs": [
        {
          "internalType": "address",
          "name": "",
          "type": "address"
        }
      ],
      "stateMutability": "view",
      "type": "function"
    },
    {
      "inputs": [],
      "name": "getBalance",
      "outputs": [
        {
          "internalType": "uint256",
          "name": "",
          "type": "uint256"
        }
      ],
      "stateMutability": "view",
      "type": "function"
    },
    {
      "inputs": [
        {
          "internalType": "address",
          "name": "owner",
          "type": "address"
        },
        {
          "internalType": "address",
          "name": "operator",
          "type": "address"
        }
      ],
      "name": "isApprovedForAll",
      "outputs": [
        {
          "internalType": "bool",
          "name": "",
          "type": "bool"
        }
      ],
      "stateMutability": "view",
      "type": "function"
    },
    {
      "inputs": [],
      "name": "mintStatus",
      "outputs": [
        {
          "internalType": "bool",
          "name": "",
          "type": "bool"
        }
      ],
      "stateMutability": "view",
      "type": "function"
    },
    {
      "inputs": [],
      "name": "mintingFee",
      "outputs": [
        {
          "internalType": "uint256",
          "name": "",
          "type": "uint256"
        }
      ],
      "stateMutability": "view",
      "type": "function"
    },
    {
      "inputs": [],
      "name": "name",
      "outputs": [
        {
          "internalType": "string",
          "name": "",
          "type": "string"
        }
      ],
      "stateMutability": "view",
      "type": "function"
    },
    {
      "inputs": [],
      "name": "owner",
      "outputs": [
        {
          "internalType": "address",
          "name": "",
          "type": "address"
        }
      ],
      "stateMutability": "view",
      "type": "function"
    },
    {
      "inputs": [
        {
          "internalType": "uint256",
          "name": "tokenId",
          "type": "uint256"
        }
      ],
      "name": "ownerOf",
      "outputs": [
        {
          "internalType": "address",
          "name": "",
          "type": "address"
        }
      ],
      "stateMutability": "view",
      "type": "function"
    },
    {
      "inputs": [
        {
          "internalType": "uint256",
          "name": "index",
          "type": "uint256"
        }
      ],
      "name": "payee",
      "outputs": [
        {
          "internalType": "address",
          "name": "",
          "type": "address"
        }
      ],
      "stateMutability": "view",
      "type": "function"
    },
    {
      "inputs": [],
      "name": "publicMaxMints",
      "outputs": [
        {
          "internalType": "uint256",
          "name": "",
          "type": "uint256"
        }
      ],
      "stateMutability": "view",
      "type": "function"
    },
    {
      "inputs": [
        {
          "internalType": "uint256",
          "name": "amount",
          "type": "uint256"
        }
      ],
      "name": "publicMint",
      "outputs": [],
      "stateMutability": "payable",
      "type": "function"
    },
    {
      "inputs": [
        {
          "internalType": "address",
          "name": "newOwner",
          "type": "address"
        }
      ],
      "name": "pushOwner",
      "outputs": [],
      "stateMutability": "nonpayable",
      "type": "function"
    },
    {
      "inputs": [],
      "name": "release",
      "outputs": [],
      "stateMutability": "nonpayable",
      "type": "function"
    },
    {
      "inputs": [
        {
          "internalType": "address",
          "name": "account",
          "type": "address"
        }
      ],
      "name": "released",
      "outputs": [
        {
          "internalType": "uint256",
          "name": "",
          "type": "uint256"
        }
      ],
      "stateMutability": "view",
      "type": "function"
    },
    {
      "inputs": [],
      "name": "renounceOwner",
      "outputs": [],
      "stateMutability": "nonpayable",
      "type": "function"
    },
    {
      "inputs": [],
      "name": "revealTimestamp",
      "outputs": [
        {
          "internalType": "uint256",
          "name": "",
          "type": "uint256"
        }
      ],
      "stateMutability": "view",
      "type": "function"
    },
    {
      "inputs": [
        {
          "internalType": "uint256",
          "name": "_tokenId",
          "type": "uint256"
        },
        {
          "internalType": "uint256",
          "name": "_salePrice",
          "type": "uint256"
        }
      ],
      "name": "royaltyInfo",
      "outputs": [
        {
          "internalType": "address",
          "name": "receiver",
          "type": "address"
        },
        {
          "internalType": "uint256",
          "name": "royaltyAmount",
          "type": "uint256"
        }
      ],
      "stateMutability": "view",
      "type": "function"
    },
    {
      "inputs": [
        {
          "internalType": "address",
          "name": "from",
          "type": "address"
        },
        {
          "internalType": "address",
          "name": "to",
          "type": "address"
        },
        {
          "internalType": "uint256",
          "name": "tokenId",
          "type": "uint256"
        }
      ],
      "name": "safeTransferFrom",
      "outputs": [],
      "stateMutability": "nonpayable",
      "type": "function"
    },
    {
      "inputs": [
        {
          "internalType": "address",
          "name": "from",
          "type": "address"
        },
        {
          "internalType": "address",
          "name": "to",
          "type": "address"
        },
        {
          "internalType": "uint256",
          "name": "tokenId",
          "type": "uint256"
        },
        {
          "internalType": "bytes",
          "name": "_data",
          "type": "bytes"
        }
      ],
      "name": "safeTransferFrom",
      "outputs": [],
      "stateMutability": "nonpayable",
      "type": "function"
    },
    {
      "inputs": [
        {
          "internalType": "address",
          "name": "operator",
          "type": "address"
        },
        {
          "internalType": "bool",
          "name": "approved",
          "type": "bool"
        }
      ],
      "name": "setApprovalForAll",
      "outputs": [],
      "stateMutability": "nonpayable",
      "type": "function"
    },
    {
      "inputs": [
        {
          "internalType": "string",
          "name": "baseURI",
          "type": "string"
        }
      ],
      "name": "setBaseURI",
      "outputs": [],
      "stateMutability": "nonpayable",
      "type": "function"
    },
    {
      "inputs": [
        {
          "internalType": "uint256",
          "name": "_amount",
          "type": "uint256"
        }
      ],
      "name": "setMaxPublicMints",
      "outputs": [],
      "stateMutability": "nonpayable",
      "type": "function"
    },
    {
      "inputs": [
        {
          "internalType": "uint64",
          "name": "_amount",
          "type": "uint64"
        }
      ],
      "name": "setMaxWhitelistMints",
      "outputs": [],
      "stateMutability": "nonpayable",
      "type": "function"
    },
    {
      "inputs": [
        {
          "internalType": "uint256",
          "name": "_newFee",
          "type": "uint256"
        }
      ],
      "name": "setMintPrice",
      "outputs": [],
      "stateMutability": "nonpayable",
      "type": "function"
    },
    {
      "inputs": [
        {
          "internalType": "uint256",
          "name": "_amount",
          "type": "uint256"
        }
      ],
      "name": "setMintSize",
      "outputs": [],
      "stateMutability": "nonpayable",
      "type": "function"
    },
    {
      "inputs": [
        {
          "internalType": "uint256",
          "name": "_timestamp",
          "type": "uint256"
        }
      ],
      "name": "setRevealTimestamp",
      "outputs": [],
      "stateMutability": "nonpayable",
      "type": "function"
    },
    {
      "inputs": [
        {
          "internalType": "address",
          "name": "_royaltyAddress",
          "type": "address"
        },
        {
          "internalType": "uint256",
          "name": "_percentage",
          "type": "uint256"
        }
      ],
      "name": "setRoyaltyInfo",
      "outputs": [],
      "stateMutability": "nonpayable",
      "type": "function"
    },
    {
      "inputs": [
        {
          "internalType": "bytes32",
          "name": "_merkleRoot",
          "type": "bytes32"
        }
      ],
      "name": "setWhitelistMerkleRoot",
      "outputs": [],
      "stateMutability": "nonpayable",
      "type": "function"
    },
    {
      "inputs": [
        {
          "internalType": "address",
          "name": "account",
          "type": "address"
        }
      ],
      "name": "shares",
      "outputs": [
        {
          "internalType": "uint256",
          "name": "",
          "type": "uint256"
        }
      ],
      "stateMutability": "view",
      "type": "function"
    },
    {
      "inputs": [
        {
          "internalType": "bytes4",
          "name": "interfaceId",
          "type": "bytes4"
        }
      ],
      "name": "supportsInterface",
      "outputs": [
        {
          "internalType": "bool",
          "name": "",
          "type": "bool"
        }
      ],
      "stateMutability": "view",
      "type": "function"
    },
    {
      "inputs": [],
      "name": "symbol",
      "outputs": [
        {
          "internalType": "string",
          "name": "",
          "type": "string"
        }
      ],
      "stateMutability": "view",
      "type": "function"
    },
    {
      "inputs": [
        {
          "internalType": "uint256",
          "name": "tokenId",
          "type": "uint256"
        }
      ],
      "name": "tokenURI",
      "outputs": [
        {
          "internalType": "string",
          "name": "",
          "type": "string"
        }
      ],
      "stateMutability": "view",
      "type": "function"
    },
    {
      "inputs": [],
      "name": "totalReleased",
      "outputs": [
        {
          "internalType": "uint256",
          "name": "",
          "type": "uint256"
        }
      ],
      "stateMutability": "view",
      "type": "function"
    },
    {
      "inputs": [],
      "name": "totalShares",
      "outputs": [
        {
          "internalType": "uint256",
          "name": "",
          "type": "uint256"
        }
      ],
      "stateMutability": "view",
      "type": "function"
    },
    {
      "inputs": [],
      "name": "totalSupply",
      "outputs": [
        {
          "internalType": "uint256",
          "name": "",
          "type": "uint256"
        }
      ],
      "stateMutability": "view",
      "type": "function"
    },
    {
      "inputs": [
        {
          "internalType": "address",
          "name": "from",
          "type": "address"
        },
        {
          "internalType": "address",
          "name": "to",
          "type": "address"
        },
        {
          "internalType": "uint256",
          "name": "tokenId",
          "type": "uint256"
        }
      ],
      "name": "transferFrom",
      "outputs": [],
      "stateMutability": "nonpayable",
      "type": "function"
    },
    {
      "inputs": [
        {
          "internalType": "address",
          "name": "newOwner",
          "type": "address"
        }
      ],
      "name": "transferOwner",
      "outputs": [],
      "stateMutability": "nonpayable",
      "type": "function"
    },
    {
      "inputs": [],
      "name": "whitelistMaxMints",
      "outputs": [
        {
          "internalType": "uint256",
          "name": "",
          "type": "uint256"
        }
      ],
      "stateMutability": "view",
      "type": "function"
    },
    {
      "inputs": [],
      "name": "whitelistMerkleRoot",
      "outputs": [
        {
          "internalType": "bytes32",
          "name": "",
          "type": "bytes32"
        }
      ],
      "stateMutability": "view",
      "type": "function"
    },
    {
      "inputs": [
        {
          "internalType": "bytes32[]",
          "name": "merkleProof",
          "type": "bytes32[]"
        },
        {
          "internalType": "uint64",
          "name": "amount",
          "type": "uint64"
        }
      ],
      "name": "whitelistMint",
      "outputs": [],
      "stateMutability": "payable",
      "type": "function"
    },
    {
      "inputs": [],
      "name": "whitelistStatus",
      "outputs": [
        {
          "internalType": "bool",
          "name": "",
          "type": "bool"
        }
      ],
      "stateMutability": "view",
      "type": "function"
    },
    {
      "stateMutability": "payable",
      "type": "receive"
    }
  ],
  "bytecode": "0x6080604052600160005560016016556001601c60006101000a81548167ffffffffffffffff021916908367ffffffffffffffff1602179055503480156200004557600080fd5b5060405162006cfc38038062006cfc83398181016040528101906200006b919062000b18565b8888888260029080519060200190620000869291906200086d565b5081600390805190602001906200009f9291906200086d565b508060049080519060200190620000b89291906200086d565b505050506001600b81905550620000e4620000d86200023160201b60201c565b6200023960201b60201c565b620000f586620002ff60201b60201c565b6200010685620003dd60201b60201c565b6200011a846101f4620004bb60201b60201c565b82620001595762000143620001346200023160201b60201c565b61251c620004bb60201b60201c565b620001536200052460201b60201c565b62000222565b60005b82518110156200021057620001fa838281518110620001a4577f4e487b7100000000000000000000000000000000000000000000000000000000600052603260045260246000fd5b6020026020010151838381518110620001e6577f4e487b7100000000000000000000000000000000000000000000000000000000600052603260045260246000fd5b6020026020010151620004bb60201b60201c565b808062000207906200109c565b9150506200015c565b50620002216200052460201b60201c565b5b505050505050505050620012ef565b600033905090565b6000601260009054906101000a900473ffffffffffffffffffffffffffffffffffffffff16905081601260006101000a81548173ffffffffffffffffffffffffffffffffffffffff021916908373ffffffffffffffffffffffffffffffffffffffff1602179055508173ffffffffffffffffffffffffffffffffffffffff168173ffffffffffffffffffffffffffffffffffffffff167f8934ce4adea8d9ce0d714d2c22b86790e41b7731c84b926fbbdc1d40ff6533c960405160405180910390a35050565b6200030f6200023160201b60201c565b73ffffffffffffffffffffffffffffffffffffffff1662000335620005dc60201b60201c565b73ffffffffffffffffffffffffffffffffffffffff16146200038e576040517f08c379a0000000000000000000000000000000000000000000000000000000008152600401620003859062000dd0565b60405180910390fd5b60006017549050816017819055507f79f142b9bcccc417646eead59c29526ac8437fccd19a5368532b2648349adce181601754604051620003d192919062000e58565b60405180910390a15050565b620003ed6200023160201b60201c565b73ffffffffffffffffffffffffffffffffffffffff1662000413620005dc60201b60201c565b73ffffffffffffffffffffffffffffffffffffffff16146200046c576040517f08c379a0000000000000000000000000000000000000000000000000000000008152600401620004639062000dd0565b60405180910390fd5b60006018549050816018819055507f8d9cfb0dea274a0a02ddad1fc52c90100a28462c6421daa25fb101c740cf585181601854604051620004af92919062000e58565b60405180910390a15050565b601560019054906101000a900460ff16156200050e576040517f08c379a0000000000000000000000000000000000000000000000000000000008152600401620005059062000e14565b60405180910390fd5b6200052082826200060660201b60201c565b5050565b601560019054906101000a900460ff161562000577576040517f08c379a00000000000000000000000000000000000000000000000000000000081526004016200056e9062000e14565b60405180910390fd5b6001601560016101000a81548160ff0219169083151502179055507f07fe2f03bd4fa149b9d8918fb57a6e2a3b1fbbb29a4d4536df7e6cd9edf02ed8601560019054906101000a900460ff16604051620005d2919062000d91565b60405180910390a1565b6000601260009054906101000a900473ffffffffffffffffffffffffffffffffffffffff16905090565b600073ffffffffffffffffffffffffffffffffffffffff168273ffffffffffffffffffffffffffffffffffffffff16141562000679576040517f08c379a0000000000000000000000000000000000000000000000000000000008152600401620006709062000dae565b60405180910390fd5b60008111620006bf576040517f08c379a0000000000000000000000000000000000000000000000000000000008152600401620006b69062000e36565b60405180910390fd5b6000600f60008473ffffffffffffffffffffffffffffffffffffffff1673ffffffffffffffffffffffffffffffffffffffff168152602001908152602001600020541462000744576040517f08c379a00000000000000000000000000000000000000000000000000000000081526004016200073b9062000df2565b60405180910390fd5b6200075b600c6200085760201b62002b811760201c565b6011829080600181540180825580915050600190039060005260206000200160009091909190916101000a81548173ffffffffffffffffffffffffffffffffffffffff021916908373ffffffffffffffffffffffffffffffffffffffff16021790555080600f60008473ffffffffffffffffffffffffffffffffffffffff1673ffffffffffffffffffffffffffffffffffffffff1681526020019081526020016000208190555080600d5462000812919062000f53565b600d819055507f40c340f65e17194d14ddddb073d3c9f888e3cb52b5aae0c6c7706b4fbc905fac82826040516200084b92919062000d64565b60405180910390a15050565b6001816000016000828254019250508190555050565b8280546200087b9062001030565b90600052602060002090601f0160209004810192826200089f5760008555620008eb565b82601f10620008ba57805160ff1916838001178555620008eb565b82800160010185558215620008eb579182015b82811115620008ea578251825591602001919060010190620008cd565b5b509050620008fa9190620008fe565b5090565b5b8082111562000919576000816000905550600101620008ff565b5090565b6000620009346200092e8462000eae565b62000e85565b905080838252602082019050828560208602820111156200095457600080fd5b60005b858110156200098857816200096d888262000a4c565b84526020840193506020830192505060018101905062000957565b5050509392505050565b6000620009a9620009a38462000edd565b62000e85565b90508083825260208201905082856020860282011115620009c957600080fd5b60005b85811015620009fd5781620009e2888262000b01565b845260208401935060208301925050600181019050620009cc565b5050509392505050565b600062000a1e62000a188462000f0c565b62000e85565b90508281526020810184848401111562000a3757600080fd5b62000a4484828562000ffa565b509392505050565b60008151905062000a5d81620012a1565b92915050565b600082601f83011262000a7557600080fd5b815162000a878482602086016200091d565b91505092915050565b600082601f83011262000aa257600080fd5b815162000ab484826020860162000992565b91505092915050565b60008151905062000ace81620012bb565b92915050565b600082601f83011262000ae657600080fd5b815162000af884826020860162000a07565b91505092915050565b60008151905062000b1281620012d5565b92915050565b60008060008060008060008060006101208a8c03121562000b3857600080fd5b60008a015167ffffffffffffffff81111562000b5357600080fd5b62000b618c828d0162000ad4565b99505060208a015167ffffffffffffffff81111562000b7f57600080fd5b62000b8d8c828d0162000ad4565b98505060408a015167ffffffffffffffff81111562000bab57600080fd5b62000bb98c828d0162000ad4565b975050606062000bcc8c828d0162000b01565b965050608062000bdf8c828d0162000b01565b95505060a062000bf28c828d0162000a4c565b94505060c062000c058c828d0162000abd565b93505060e08a015167ffffffffffffffff81111562000c2357600080fd5b62000c318c828d0162000a63565b9250506101008a015167ffffffffffffffff81111562000c5057600080fd5b62000c5e8c828d0162000a90565b9150509295985092959850929598565b62000c798162000fb0565b82525050565b62000c8a8162000fc4565b82525050565b600062000c9f60248362000f42565b915062000cac8262001188565b604082019050919050565b600062000cc6601e8362000f42565b915062000cd382620011d7565b602082019050919050565b600062000ced60288362000f42565b915062000cfa8262001200565b604082019050919050565b600062000d14601a8362000f42565b915062000d21826200124f565b602082019050919050565b600062000d3b60208362000f42565b915062000d488262001278565b602082019050919050565b62000d5e8162000ff0565b82525050565b600060408201905062000d7b600083018562000c6e565b62000d8a602083018462000d53565b9392505050565b600060208201905062000da8600083018462000c7f565b92915050565b6000602082019050818103600083015262000dc98162000c90565b9050919050565b6000602082019050818103600083015262000deb8162000cb7565b9050919050565b6000602082019050818103600083015262000e0d8162000cde565b9050919050565b6000602082019050818103600083015262000e2f8162000d05565b9050919050565b6000602082019050818103600083015262000e518162000d2c565b9050919050565b600060408201905062000e6f600083018562000d53565b62000e7e602083018462000d53565b9392505050565b600062000e9162000ea4565b905062000e9f828262001066565b919050565b6000604051905090565b600067ffffffffffffffff82111562000ecc5762000ecb62001148565b5b602082029050602081019050919050565b600067ffffffffffffffff82111562000efb5762000efa62001148565b5b602082029050602081019050919050565b600067ffffffffffffffff82111562000f2a5762000f2962001148565b5b62000f358262001177565b9050602081019050919050565b600082825260208201905092915050565b600062000f608262000ff0565b915062000f6d8362000ff0565b9250827fffffffffffffffffffffffffffffffffffffffffffffffffffffffffffffffff0382111562000fa55762000fa4620010ea565b5b828201905092915050565b600062000fbd8262000fd0565b9050919050565b60008115159050919050565b600073ffffffffffffffffffffffffffffffffffffffff82169050919050565b6000819050919050565b60005b838110156200101a57808201518184015260208101905062000ffd565b838111156200102a576000848401525b50505050565b600060028204905060018216806200104957607f821691505b6020821081141562001060576200105f62001119565b5b50919050565b620010718262001177565b810181811067ffffffffffffffff8211171562001093576200109262001148565b5b80604052505050565b6000620010a98262000ff0565b91507fffffffffffffffffffffffffffffffffffffffffffffffffffffffffffffffff821415620010df57620010de620010ea565b5b600182019050919050565b7f4e487b7100000000000000000000000000000000000000000000000000000000600052601160045260246000fd5b7f4e487b7100000000000000000000000000000000000000000000000000000000600052602260045260246000fd5b7f4e487b7100000000000000000000000000000000000000000000000000000000600052604160045260246000fd5b6000601f19601f8301169050919050565b7f43616e2774206164642073686172657320746f20746865207a65726f2061646460008201527f7265737300000000000000000000000000000000000000000000000000000000602082015250565b7f4f776e65723a2063616c6c6572206973206e6f7420746865204f776e65720000600082015250565b7f416464726573732068617320616c7265616479206265656e2061737369676e6560008201527f6420736861726573000000000000000000000000000000000000000000000000602082015250565b7f43616e206e6f74207365742c20706179656573206c6f636b6564000000000000600082015250565b7f536861726573206d7573742062652067726561746572207468616e207a65726f600082015250565b620012ac8162000fb0565b8114620012b857600080fd5b50565b620012c68162000fc4565b8114620012d257600080fd5b50565b620012e08162000ff0565b8114620012ec57600080fd5b50565b6159fd80620012ff6000396000f3fe6080604052600436106102cd5760003560e01c80638da5cb5b11610175578063bd32fb66116100dc578063e33b7de311610095578063ebbc49651161006f578063ebbc496514610b0d578063f4a0a52814610b24578063f62f3c1114610b4d578063fbee812114610b785761031b565b8063e33b7de314610a8e578063e797ec1b14610ab9578063e985e9c514610ad05761031b565b8063bd32fb6614610994578063c87b56dd146109bd578063cdfb2b4e146109fa578063ce7c2ac214610a11578063d6b0f48414610a4e578063e2e784d514610a655761031b565b8063a22cb4651161012e578063a22cb465146108ae578063a93fef3b146108d7578063aa98e0c614610900578063ac5a7d5c1461092b578063b35c606814610954578063b88d4fde1461096b5761031b565b80638da5cb5b1461079c5780639342e6e4146107c757806395d89b41146107f05780639852595c1461081b5780639da3f8fd146108585780639ddf7ad3146108835761031b565b80633a98ef391161023457806355f804b3116101ed57806370a08231116101c757806370a08231146106f45780637e5cd5c11461073157806386d1a69f146107485780638b83209b1461075f5761031b565b806355f804b3146106635780635a64ad951461068c5780636352211e146106b75761031b565b80633a98ef391461056757806342842e0e1461059257806345947076146105bb57806345c0f533146105e65780634a886ad2146106115780634fb2e45d1461063a5761031b565b806318160ddd1161028657806318160ddd146104865780631b004d25146104b157806323b872dd146104cd57806328c23a45146104f65780632a55205a1461050d5780632db115441461054b5761031b565b8063018a2c371461036457806301ffc9a71461038d57806306fdde03146103ca578063081812fc146103f5578063095ea7b31461043257806312065fe01461045b5761031b565b3661031b577f6ef95f06320e7a25a04a175ca677b7052bdd97131872c2192525a629f51be7706102fb610ba3565b610303610bab565b604051610311929190614d4b565b60405180910390a1005b7f6ef95f06320e7a25a04a175ca677b7052bdd97131872c2192525a629f51be770610344610ba3565b61034c610bab565b60405161035a929190614d4b565b60405180910390a1005b34801561037057600080fd5b5061038b6004803603810190610386919061484e565b610bb3565b005b34801561039957600080fd5b506103b460048036038101906103af91906147bb565b610c7c565b6040516103c19190614d74565b60405180910390f35b3480156103d657600080fd5b506103df610e0f565b6040516103ec9190614dfc565b60405180910390f35b34801561040157600080fd5b5061041c6004803603810190610417919061484e565b610ea1565b6040516104299190614ce4565b60405180910390f35b34801561043e57600080fd5b50610459600480360381019061045491906146fe565b610f1d565b005b34801561046757600080fd5b50610470611028565b60405161047d919061501e565b60405180910390f35b34801561049257600080fd5b5061049b611030565b6040516104a8919061501e565b60405180910390f35b6104cb60048036038101906104c6919061473a565b611040565b005b3480156104d957600080fd5b506104f460048036038101906104ef91906145f8565b6113ec565b005b34801561050257600080fd5b5061050b6113fc565b005b34801561051957600080fd5b50610534600480360381019061052f9190614877565b611484565b604051610542929190614d4b565b60405180910390f35b6105656004803603810190610560919061484e565b6114cf565b005b34801561057357600080fd5b5061057c6116dc565b604051610589919061501e565b60405180910390f35b34801561059e57600080fd5b506105b960048036038101906105b491906145f8565b6116e6565b005b3480156105c757600080fd5b506105d0611706565b6040516105dd919061501e565b60405180910390f35b3480156105f257600080fd5b506105fb611710565b604051610608919061501e565b60405180910390f35b34801561061d57600080fd5b506106386004803603810190610633919061484e565b61171a565b005b34801561064657600080fd5b50610661600480360381019061065c9190614593565b6117e3565b005b34801561066f57600080fd5b5061068a6004803603810190610685919061480d565b611913565b005b34801561069857600080fd5b506106a16119a9565b6040516106ae919061501e565b60405180910390f35b3480156106c357600080fd5b506106de60048036038101906106d9919061484e565b6119b3565b6040516106eb9190614ce4565b60405180910390f35b34801561070057600080fd5b5061071b60048036038101906107169190614593565b6119c9565b604051610728919061501e565b60405180910390f35b34801561073d57600080fd5b50610746611a99565b005b34801561075457600080fd5b5061075d611b8f565b005b34801561076b57600080fd5b506107866004803603810190610781919061484e565b611c15565b6040516107939190614ce4565b60405180910390f35b3480156107a857600080fd5b506107b1611c83565b6040516107be9190614ce4565b60405180910390f35b3480156107d357600080fd5b506107ee60048036038101906107e991906148b3565b611cad565b005b3480156107fc57600080fd5b50610805611dca565b6040516108129190614dfc565b60405180910390f35b34801561082757600080fd5b50610842600480360381019061083d9190614593565b611e5c565b60405161084f919061501e565b60405180910390f35b34801561086457600080fd5b5061086d611ea5565b60405161087a9190614d74565b60405180910390f35b34801561088f57600080fd5b50610898611ebc565b6040516108a59190614d74565b60405180910390f35b3480156108ba57600080fd5b506108d560048036038101906108d091906146c2565b611ed3565b005b3480156108e357600080fd5b506108fe60048036038101906108f9919061484e565b61204b565b005b34801561090c57600080fd5b50610915612128565b6040516109229190614db8565b60405180910390f35b34801561093757600080fd5b50610952600480360381019061094d9190614593565b61212e565b005b34801561096057600080fd5b50610969612226565b005b34801561097757600080fd5b50610992600480360381019061098d9190614647565b612301565b005b3480156109a057600080fd5b506109bb60048036038101906109b69190614792565b612354565b005b3480156109c957600080fd5b506109e460048036038101906109df919061484e565b61241d565b6040516109f19190614dfc565b60405180910390f35b348015610a0657600080fd5b50610a0f612536565b005b348015610a1d57600080fd5b50610a386004803603810190610a339190614593565b61262c565b604051610a45919061501e565b60405180910390f35b348015610a5a57600080fd5b50610a63612675565b005b348015610a7157600080fd5b50610a8c6004803603810190610a8791906146fe565b61276b565b005b348015610a9a57600080fd5b50610aa361282e565b604051610ab0919061501e565b60405180910390f35b348015610ac557600080fd5b50610ace612838565b005b348015610adc57600080fd5b50610af76004803603810190610af291906145bc565b61292e565b604051610b049190614d74565b60405180910390f35b348015610b1957600080fd5b50610b226129c2565b005b348015610b3057600080fd5b50610b4b6004803603810190610b46919061484e565b612a86565b005b348015610b5957600080fd5b50610b62612b4f565b604051610b6f919061501e565b60405180910390f35b348015610b8457600080fd5b50610b8d612b59565b604051610b9a919061501e565b60405180910390f35b600033905090565b600034905090565b610bbb610ba3565b73ffffffffffffffffffffffffffffffffffffffff16610bd9611c83565b73ffffffffffffffffffffffffffffffffffffffff1614610c2f576040517f08c379a0000000000000000000000000000000000000000000000000000000008152600401610c2690614efe565b60405180910390fd5b60006019549050816019819055507fd21a7a8dc9842e420c430f131049af7b5faa7049ca72c5ccd9c6cbab9dad70cb81601954604051610c70929190615039565b60405180910390a15050565b60007f2a55205a000000000000000000000000000000000000000000000000000000007bffffffffffffffffffffffffffffffffffffffffffffffffffffffff1916827bffffffffffffffffffffffffffffffffffffffffffffffffffffffff19161480610d28575060007bffffffffffffffffffffffffffffffffffffffffffffffffffffffff1916827bffffffffffffffffffffffffffffffffffffffffffffffffffffffff1916145b80610d9057507f040ec1df000000000000000000000000000000000000000000000000000000007bffffffffffffffffffffffffffffffffffffffffffffffffffffffff1916827bffffffffffffffffffffffffffffffffffffffffffffffffffffffff1916145b80610df857507f1e6f4112000000000000000000000000000000000000000000000000000000007bffffffffffffffffffffffffffffffffffffffffffffffffffffffff1916827bffffffffffffffffffffffffffffffffffffffffffffffffffffffff1916145b80610e085750610e0782612b97565b5b9050919050565b606060028054610e1e90615399565b80601f0160208091040260200160405190810160405280929190818152602001828054610e4a90615399565b8015610e975780601f10610e6c57610100808354040283529160200191610e97565b820191906000526020600020905b815481529060010190602001808311610e7a57829003601f168201915b5050505050905090565b6000610eac82612c79565b610ee2576040517fcf4700e400000000000000000000000000000000000000000000000000000000815260040160405180910390fd5b6007600083815260200190815260200160002060009054906101000a900473ffffffffffffffffffffffffffffffffffffffff169050919050565b6000610f28826119b3565b90508073ffffffffffffffffffffffffffffffffffffffff168373ffffffffffffffffffffffffffffffffffffffff161415610f90576040517f943f7b8c00000000000000000000000000000000000000000000000000000000815260040160405180910390fd5b8073ffffffffffffffffffffffffffffffffffffffff16610faf610ba3565b73ffffffffffffffffffffffffffffffffffffffff1614158015610fe15750610fdf81610fda610ba3565b61292e565b155b15611018576040517fcfb3b94200000000000000000000000000000000000000000000000000000000815260040160405180910390fd5b611023838383612cb3565b505050565b600047905090565b6000600180546000540303905090565b6002600b541415611086576040517f08c379a000000000000000000000000000000000000000000000000000000000815260040161107d90614ffe565b60405180910390fd5b6002600b81905550601560009054906101000a900460ff166110dd576040517f08c379a00000000000000000000000000000000000000000000000000000000081526004016110d490614f1e565b60405180910390fd5b601a60009054906101000a900460ff1661112c576040517f08c379a000000000000000000000000000000000000000000000000000000000815260040161112390614fde565b60405180910390fd5b8067ffffffffffffffff166017546111449190615225565b61114c610bab565b1461118c576040517f08c379a000000000000000000000000000000000000000000000000000000000815260040161118390614f7e565b60405180910390fd5b6018548167ffffffffffffffff166111a2611030565b6111ac9190615160565b11156111ed576040517f08c379a00000000000000000000000000000000000000000000000000000000081526004016111e490614e3e565b60405180910390fd5b601c60009054906101000a900467ffffffffffffffff1667ffffffffffffffff168167ffffffffffffffff16111561125a576040517f08c379a000000000000000000000000000000000000000000000000000000000815260040161125190614e7e565b60405180910390fd5b6112d5838380806020026020016040519081016040528093929190818152602001838360200280828437600081840152601f19601f82011690508083019250505050505050601b546112aa610ba3565b6040516020016112ba9190614c7a565b60405160208183030381529060405280519060200120612d65565b611314576040517f08c379a000000000000000000000000000000000000000000000000000000000815260040161130b90614f3e565b60405180910390fd5b600081611327611322610ba3565b612d7c565b61133191906151b6565b9050601c60009054906101000a900467ffffffffffffffff1667ffffffffffffffff168167ffffffffffffffff1611156113a0576040517f08c379a000000000000000000000000000000000000000000000000000000000815260040161139790614fbe565b60405180910390fd5b6113cd6113ab610ba3565b8367ffffffffffffffff16604051806020016040528060008152506000612e42565b6113de6113d8610ba3565b82613179565b506001600b81905550505050565b6113f783838361324d565b505050565b611404610ba3565b73ffffffffffffffffffffffffffffffffffffffff16611422611c83565b73ffffffffffffffffffffffffffffffffffffffff1614611478576040517f08c379a000000000000000000000000000000000000000000000000000000000815260040161146f90614efe565b60405180910390fd5b611482600061373e565b565b600080600960009054906101000a900473ffffffffffffffffffffffffffffffffffffffff1691506064600a54846114bc9190615225565b6114c691906151f4565b90509250929050565b6002600b541415611515576040517f08c379a000000000000000000000000000000000000000000000000000000000815260040161150c90614ffe565b60405180910390fd5b6002600b81905550601a60009054906101000a900460ff161561156d576040517f08c379a000000000000000000000000000000000000000000000000000000000815260040161156490614f5e565b60405180910390fd5b601560009054906101000a900460ff166115bc576040517f08c379a00000000000000000000000000000000000000000000000000000000081526004016115b390614f1e565b60405180910390fd5b806017546115ca9190615225565b6115d2610bab565b14611612576040517f08c379a000000000000000000000000000000000000000000000000000000000815260040161160990614f7e565b60405180910390fd5b6018548161161e611030565b6116289190615160565b1115611669576040517f08c379a000000000000000000000000000000000000000000000000000000000815260040161166090614e3e565b60405180910390fd5b6016548111156116ae576040517f08c379a00000000000000000000000000000000000000000000000000000000081526004016116a590614e5e565b60405180910390fd5b6116d16116b9610ba3565b82604051806020016040528060008152506000612e42565b6001600b8190555050565b6000600d54905090565b61170183838360405180602001604052806000815250612301565b505050565b6000601654905090565b6000601854905090565b611722610ba3565b73ffffffffffffffffffffffffffffffffffffffff16611740611c83565b73ffffffffffffffffffffffffffffffffffffffff1614611796576040517f08c379a000000000000000000000000000000000000000000000000000000000815260040161178d90614efe565b60405180910390fd5b60006018549050816018819055507f8d9cfb0dea274a0a02ddad1fc52c90100a28462c6421daa25fb101c740cf5851816018546040516117d7929190615039565b60405180910390a15050565b6117eb610ba3565b73ffffffffffffffffffffffffffffffffffffffff16611809611c83565b73ffffffffffffffffffffffffffffffffffffffff161461185f576040517f08c379a000000000000000000000000000000000000000000000000000000000815260040161185690614efe565b60405180910390fd5b600073ffffffffffffffffffffffffffffffffffffffff168173ffffffffffffffffffffffffffffffffffffffff1614156118cf576040517f08c379a00000000000000000000000000000000000000000000000000000000081526004016118c690614f9e565b60405180910390fd5b80601360006101000a81548173ffffffffffffffffffffffffffffffffffffffff021916908373ffffffffffffffffffffffffffffffffffffffff16021790555050565b61191b610ba3565b73ffffffffffffffffffffffffffffffffffffffff16611939611c83565b73ffffffffffffffffffffffffffffffffffffffff161461198f576040517f08c379a000000000000000000000000000000000000000000000000000000000815260040161198690614efe565b60405180910390fd5b80601490805190602001906119a5929190614300565b5050565b6000601754905090565b60006119be82613804565b600001519050919050565b60008073ffffffffffffffffffffffffffffffffffffffff168273ffffffffffffffffffffffffffffffffffffffff161415611a31576040517f8f4eb60400000000000000000000000000000000000000000000000000000000815260040160405180910390fd5b600660008373ffffffffffffffffffffffffffffffffffffffff1673ffffffffffffffffffffffffffffffffffffffff16815260200190815260200160002060000160009054906101000a900467ffffffffffffffff1667ffffffffffffffff169050919050565b611aa1610ba3565b73ffffffffffffffffffffffffffffffffffffffff16611abf611c83565b73ffffffffffffffffffffffffffffffffffffffff1614611b15576040517f08c379a0000000000000000000000000000000000000000000000000000000008152600401611b0c90614efe565b60405180910390fd5b6000601560009054906101000a900460ff1690506000601560006101000a81548160ff0219169083151502179055507f1ab1d89be1fd19dcd21c73f1d6e927e3f148097e8691bbba925bd85e34e1f0e381601560009054906101000a900460ff16604051611b84929190614d8f565b60405180910390a150565b611b97610ba3565b73ffffffffffffffffffffffffffffffffffffffff16611bb5611c83565b73ffffffffffffffffffffffffffffffffffffffff1614611c0b576040517f08c379a0000000000000000000000000000000000000000000000000000000008152600401611c0290614efe565b60405180910390fd5b611c13613a80565b565b600060118281548110611c51577f4e487b7100000000000000000000000000000000000000000000000000000000600052603260045260246000fd5b9060005260206000200160009054906101000a900473ffffffffffffffffffffffffffffffffffffffff169050919050565b6000601260009054906101000a900473ffffffffffffffffffffffffffffffffffffffff16905090565b611cb5610ba3565b73ffffffffffffffffffffffffffffffffffffffff16611cd3611c83565b73ffffffffffffffffffffffffffffffffffffffff1614611d29576040517f08c379a0000000000000000000000000000000000000000000000000000000008152600401611d2090614efe565b60405180910390fd5b6000601c60009054906101000a900467ffffffffffffffff1667ffffffffffffffff16905081601c60006101000a81548167ffffffffffffffff021916908367ffffffffffffffff1602179055507f3851f4a3ce1c8adce98754722ff6f348f4714fd4850d154c71045447d304246881601c60009054906101000a900467ffffffffffffffff16604051611dbe929190615062565b60405180910390a15050565b606060038054611dd990615399565b80601f0160208091040260200160405190810160405280929190818152602001828054611e0590615399565b8015611e525780601f10611e2757610100808354040283529160200191611e52565b820191906000526020600020905b815481529060010190602001808311611e3557829003601f168201915b5050505050905090565b6000601060008373ffffffffffffffffffffffffffffffffffffffff1673ffffffffffffffffffffffffffffffffffffffff168152602001908152602001600020549050919050565b6000601560009054906101000a900460ff16905090565b6000601a60009054906101000a900460ff16905090565b611edb610ba3565b73ffffffffffffffffffffffffffffffffffffffff168273ffffffffffffffffffffffffffffffffffffffff161415611f40576040517fb06307db00000000000000000000000000000000000000000000000000000000815260040160405180910390fd5b8060086000611f4d610ba3565b73ffffffffffffffffffffffffffffffffffffffff1673ffffffffffffffffffffffffffffffffffffffff16815260200190815260200160002060008473ffffffffffffffffffffffffffffffffffffffff1673ffffffffffffffffffffffffffffffffffffffff16815260200190815260200160002060006101000a81548160ff0219169083151502179055508173ffffffffffffffffffffffffffffffffffffffff16611ffa610ba3565b73ffffffffffffffffffffffffffffffffffffffff167f17307eab39ab6107e8899845ad3d59bd9653f200f220920489ca2b5937696c318360405161203f9190614d74565b60405180910390a35050565b612053610ba3565b73ffffffffffffffffffffffffffffffffffffffff16612071611c83565b73ffffffffffffffffffffffffffffffffffffffff16146120c7576040517f08c379a00000000000000000000000000000000000000000000000000000000081526004016120be90614efe565b60405180910390fd5b60006016549050816016819055507f439b8b0b530562f8413db2651ab1e8dcae2719da0a2d2d3d3c068ca25c29969f81601c60009054906101000a900467ffffffffffffffff1660405161211c929190615062565b60405180910390a15050565b601b5481565b612136610ba3565b73ffffffffffffffffffffffffffffffffffffffff16612154611c83565b73ffffffffffffffffffffffffffffffffffffffff16146121aa576040517f08c379a00000000000000000000000000000000000000000000000000000000081526004016121a190614efe565b60405180910390fd5b600073ffffffffffffffffffffffffffffffffffffffff168173ffffffffffffffffffffffffffffffffffffffff16141561221a576040517f08c379a000000000000000000000000000000000000000000000000000000000815260040161221190614f9e565b60405180910390fd5b6122238161373e565b50565b61222e610ba3565b73ffffffffffffffffffffffffffffffffffffffff16601360009054906101000a900473ffffffffffffffffffffffffffffffffffffffff1673ffffffffffffffffffffffffffffffffffffffff16146122bd576040517f08c379a00000000000000000000000000000000000000000000000000000000081526004016122b490614ede565b60405180910390fd5b6000601360006101000a81548173ffffffffffffffffffffffffffffffffffffffff021916908373ffffffffffffffffffffffffffffffffffffffff160217905550565b61230c84848461324d565b61231884848484613c9a565b61234e576040517fd1a57ed600000000000000000000000000000000000000000000000000000000815260040160405180910390fd5b50505050565b61235c610ba3565b73ffffffffffffffffffffffffffffffffffffffff1661237a611c83565b73ffffffffffffffffffffffffffffffffffffffff16146123d0576040517f08c379a00000000000000000000000000000000000000000000000000000000081526004016123c790614efe565b60405180910390fd5b6000601b54905081601b819055507f1e5d0194158313989f8568b586deb425fcd9a6b46a4e6e2c43f9becc480c6bc081601b54604051612411929190614dd3565b60405180910390a15050565b606061242882612c79565b61245e576040517fa14c4b5000000000000000000000000000000000000000000000000000000000815260040160405180910390fd5b6000612468613e28565b90506000815111612503576004805461248090615399565b80601f01602080910402602001604051908101604052809291908181526020018280546124ac90615399565b80156124f95780601f106124ce576101008083540402835291602001916124f9565b820191906000526020600020905b8154815290600101906020018083116124dc57829003601f168201915b505050505061252e565b8061250d84613eba565b60405160200161251e929190614c95565b6040516020818303038152906040525b915050919050565b61253e610ba3565b73ffffffffffffffffffffffffffffffffffffffff1661255c611c83565b73ffffffffffffffffffffffffffffffffffffffff16146125b2576040517f08c379a00000000000000000000000000000000000000000000000000000000081526004016125a990614efe565b60405180910390fd5b6000601a60009054906101000a900460ff1690506001601a60006101000a81548160ff0219169083151502179055507f5045eea7e64af4d857464a8347a5bbce05a99fe1e1f08a3f1ebbc61aa782b21b81601a60009054906101000a900460ff16604051612621929190614d8f565b60405180910390a150565b6000600f60008373ffffffffffffffffffffffffffffffffffffffff1673ffffffffffffffffffffffffffffffffffffffff168152602001908152602001600020549050919050565b61267d610ba3565b73ffffffffffffffffffffffffffffffffffffffff1661269b611c83565b73ffffffffffffffffffffffffffffffffffffffff16146126f1576040517f08c379a00000000000000000000000000000000000000000000000000000000081526004016126e890614efe565b60405180910390fd5b6000601a60009054906101000a900460ff1690506000601a60006101000a81548160ff0219169083151502179055507f5045eea7e64af4d857464a8347a5bbce05a99fe1e1f08a3f1ebbc61aa782b21b81601a60009054906101000a900460ff16604051612760929190614d8f565b60405180910390a150565b612773610ba3565b73ffffffffffffffffffffffffffffffffffffffff16612791611c83565b73ffffffffffffffffffffffffffffffffffffffff16146127e7576040517f08c379a00000000000000000000000000000000000000000000000000000000081526004016127de90614efe565b60405180910390fd5b6127f18282614067565b7f37b261884b0718cab93d62e6fe3bef710b5a1da58190a859f842d6e8b2b0b70b8282604051612822929190614d4b565b60405180910390a15050565b6000600e54905090565b612840610ba3565b73ffffffffffffffffffffffffffffffffffffffff1661285e611c83565b73ffffffffffffffffffffffffffffffffffffffff16146128b4576040517f08c379a00000000000000000000000000000000000000000000000000000000081526004016128ab90614efe565b60405180910390fd5b6000601560009054906101000a900460ff1690506001601560006101000a81548160ff0219169083151502179055507f1ab1d89be1fd19dcd21c73f1d6e927e3f148097e8691bbba925bd85e34e1f0e381601560009054906101000a900460ff16604051612923929190614d8f565b60405180910390a150565b6000600860008473ffffffffffffffffffffffffffffffffffffffff1673ffffffffffffffffffffffffffffffffffffffff16815260200190815260200160002060008373ffffffffffffffffffffffffffffffffffffffff1673ffffffffffffffffffffffffffffffffffffffff16815260200190815260200160002060009054906101000a900460ff16905092915050565b6129ca610ba3565b73ffffffffffffffffffffffffffffffffffffffff16601360009054906101000a900473ffffffffffffffffffffffffffffffffffffffff1673ffffffffffffffffffffffffffffffffffffffff1614612a59576040517f08c379a0000000000000000000000000000000000000000000000000000000008152600401612a5090614ede565b60405180910390fd5b612a84601360009054906101000a900473ffffffffffffffffffffffffffffffffffffffff1661373e565b565b612a8e610ba3565b73ffffffffffffffffffffffffffffffffffffffff16612aac611c83565b73ffffffffffffffffffffffffffffffffffffffff1614612b02576040517f08c379a0000000000000000000000000000000000000000000000000000000008152600401612af990614efe565b60405180910390fd5b60006017549050816017819055507f79f142b9bcccc417646eead59c29526ac8437fccd19a5368532b2648349adce181601754604051612b43929190615039565b60405180910390a15050565b6000601954905090565b6000601c60009054906101000a900467ffffffffffffffff1667ffffffffffffffff16905090565b6001816000016000828254019250508190555050565b60007f80ac58cd000000000000000000000000000000000000000000000000000000007bffffffffffffffffffffffffffffffffffffffffffffffffffffffff1916827bffffffffffffffffffffffffffffffffffffffffffffffffffffffff19161480612c6257507f5b5e139f000000000000000000000000000000000000000000000000000000007bffffffffffffffffffffffffffffffffffffffffffffffffffffffff1916827bffffffffffffffffffffffffffffffffffffffffffffffffffffffff1916145b80612c725750612c71826140b3565b5b9050919050565b6000805482108015612cac575060056000838152602001908152602001600020600001601c9054906101000a900460ff16155b9050919050565b826007600084815260200190815260200160002060006101000a81548173ffffffffffffffffffffffffffffffffffffffff021916908373ffffffffffffffffffffffffffffffffffffffff160217905550818373ffffffffffffffffffffffffffffffffffffffff168273ffffffffffffffffffffffffffffffffffffffff167f8c5be1e5ebec7d5bd14f71427d1e84f3dd0314c0f7b2291e5b200ac8c7c3b92560405160405180910390a4505050565b600082612d72858461411d565b1490509392505050565b60008073ffffffffffffffffffffffffffffffffffffffff168273ffffffffffffffffffffffffffffffffffffffff161415612de4576040517fac3727ba00000000000000000000000000000000000000000000000000000000815260040160405180910390fd5b600660008373ffffffffffffffffffffffffffffffffffffffff1673ffffffffffffffffffffffffffffffffffffffff16815260200190815260200160002060000160189054906101000a900467ffffffffffffffff169050919050565b600080549050600073ffffffffffffffffffffffffffffffffffffffff168573ffffffffffffffffffffffffffffffffffffffff161415612eaf576040517f2e07630000000000000000000000000000000000000000000000000000000000815260040160405180910390fd5b6000841415612eea576040517fb562e8dd00000000000000000000000000000000000000000000000000000000815260040160405180910390fd5b612ef760008683876141b8565b83600660008773ffffffffffffffffffffffffffffffffffffffff1673ffffffffffffffffffffffffffffffffffffffff16815260200190815260200160002060000160008282829054906101000a900467ffffffffffffffff160192506101000a81548167ffffffffffffffff021916908367ffffffffffffffff16021790555083600660008773ffffffffffffffffffffffffffffffffffffffff1673ffffffffffffffffffffffffffffffffffffffff16815260200190815260200160002060000160088282829054906101000a900467ffffffffffffffff160192506101000a81548167ffffffffffffffff021916908367ffffffffffffffff160217905550846005600083815260200190815260200160002060000160006101000a81548173ffffffffffffffffffffffffffffffffffffffff021916908373ffffffffffffffffffffffffffffffffffffffff160217905550426005600083815260200190815260200160002060000160146101000a81548167ffffffffffffffff021916908367ffffffffffffffff160217905550600081905060005b8581101561315c57818773ffffffffffffffffffffffffffffffffffffffff16600073ffffffffffffffffffffffffffffffffffffffff167fddf252ad1be2c89b69c2b068fc378daa952ba7f163c4a11628f55a4df523b3ef60405160405180910390a4838015613110575061310e6000888488613c9a565b155b15613147576040517fd1a57ed600000000000000000000000000000000000000000000000000000000815260040160405180910390fd5b81806001019250508080600101915050613095565b50806000819055505061317260008683876141be565b5050505050565b600073ffffffffffffffffffffffffffffffffffffffff168273ffffffffffffffffffffffffffffffffffffffff1614156131e0576040517fac3727ba00000000000000000000000000000000000000000000000000000000815260040160405180910390fd5b80600660008473ffffffffffffffffffffffffffffffffffffffff1673ffffffffffffffffffffffffffffffffffffffff16815260200190815260200160002060000160186101000a81548167ffffffffffffffff021916908367ffffffffffffffff1602179055505050565b600061325882613804565b90506000816000015173ffffffffffffffffffffffffffffffffffffffff1661327f610ba3565b73ffffffffffffffffffffffffffffffffffffffff1614806132b257506132b182600001516132ac610ba3565b61292e565b5b806132f757506132c0610ba3565b73ffffffffffffffffffffffffffffffffffffffff166132df84610ea1565b73ffffffffffffffffffffffffffffffffffffffff16145b905080613330576040517f59c896be00000000000000000000000000000000000000000000000000000000815260040160405180910390fd5b8473ffffffffffffffffffffffffffffffffffffffff16826000015173ffffffffffffffffffffffffffffffffffffffff1614613399576040517fa114810000000000000000000000000000000000000000000000000000000000815260040160405180910390fd5b600073ffffffffffffffffffffffffffffffffffffffff168473ffffffffffffffffffffffffffffffffffffffff161415613400576040517fea553b3400000000000000000000000000000000000000000000000000000000815260040160405180910390fd5b61340d85858560016141b8565b61341d6000848460000151612cb3565b6001600660008773ffffffffffffffffffffffffffffffffffffffff1673ffffffffffffffffffffffffffffffffffffffff16815260200190815260200160002060000160008282829054906101000a900467ffffffffffffffff160392506101000a81548167ffffffffffffffff021916908367ffffffffffffffff1602179055506001600660008673ffffffffffffffffffffffffffffffffffffffff1673ffffffffffffffffffffffffffffffffffffffff16815260200190815260200160002060000160008282829054906101000a900467ffffffffffffffff160192506101000a81548167ffffffffffffffff021916908367ffffffffffffffff160217905550836005600085815260200190815260200160002060000160006101000a81548173ffffffffffffffffffffffffffffffffffffffff021916908373ffffffffffffffffffffffffffffffffffffffff160217905550426005600085815260200190815260200160002060000160146101000a81548167ffffffffffffffff021916908367ffffffffffffffff1602179055506000600184019050600073ffffffffffffffffffffffffffffffffffffffff166005600083815260200190815260200160002060000160009054906101000a900473ffffffffffffffffffffffffffffffffffffffff1673ffffffffffffffffffffffffffffffffffffffff1614156136ce576000548110156136cd5782600001516005600083815260200190815260200160002060000160006101000a81548173ffffffffffffffffffffffffffffffffffffffff021916908373ffffffffffffffffffffffffffffffffffffffff16021790555082602001516005600083815260200190815260200160002060000160146101000a81548167ffffffffffffffff021916908367ffffffffffffffff1602179055505b5b50828473ffffffffffffffffffffffffffffffffffffffff168673ffffffffffffffffffffffffffffffffffffffff167fddf252ad1be2c89b69c2b068fc378daa952ba7f163c4a11628f55a4df523b3ef60405160405180910390a461373785858560016141be565b5050505050565b6000601260009054906101000a900473ffffffffffffffffffffffffffffffffffffffff16905081601260006101000a81548173ffffffffffffffffffffffffffffffffffffffff021916908373ffffffffffffffffffffffffffffffffffffffff1602179055508173ffffffffffffffffffffffffffffffffffffffff168173ffffffffffffffffffffffffffffffffffffffff167f8934ce4adea8d9ce0d714d2c22b86790e41b7731c84b926fbbdc1d40ff6533c960405160405180910390a35050565b61380c614386565b6000829050600054811015613a49576000600560008381526020019081526020016000206040518060600160405290816000820160009054906101000a900473ffffffffffffffffffffffffffffffffffffffff1673ffffffffffffffffffffffffffffffffffffffff1673ffffffffffffffffffffffffffffffffffffffff1681526020016000820160149054906101000a900467ffffffffffffffff1667ffffffffffffffff1667ffffffffffffffff16815260200160008201601c9054906101000a900460ff16151515158152505090508060400151613a4757600073ffffffffffffffffffffffffffffffffffffffff16816000015173ffffffffffffffffffffffffffffffffffffffff161461392b578092505050613a7b565b5b600115613a4657818060019003925050600560008381526020019081526020016000206040518060600160405290816000820160009054906101000a900473ffffffffffffffffffffffffffffffffffffffff1673ffffffffffffffffffffffffffffffffffffffff1673ffffffffffffffffffffffffffffffffffffffff1681526020016000820160149054906101000a900467ffffffffffffffff1667ffffffffffffffff1667ffffffffffffffff16815260200160008201601c9054906101000a900460ff1615151515815250509050600073ffffffffffffffffffffffffffffffffffffffff16816000015173ffffffffffffffffffffffffffffffffffffffff1614613a41578092505050613a7b565b61392c565b5b505b6040517fdf2d9b4200000000000000000000000000000000000000000000000000000000815260040160405180910390fd5b919050565b60004711613ac3576040517f08c379a0000000000000000000000000000000000000000000000000000000008152600401613aba90614e1e565b60405180910390fd5b60005b613ad0600c6141c4565b811015613c97576000613ae282611c15565b90506000600e5447613af49190615160565b90506000601060008473ffffffffffffffffffffffffffffffffffffffff1673ffffffffffffffffffffffffffffffffffffffff16815260200190815260200160002054600d54600f60008673ffffffffffffffffffffffffffffffffffffffff1673ffffffffffffffffffffffffffffffffffffffff1681526020019081526020016000205484613b869190615225565b613b9091906151f4565b613b9a919061527f565b905080601060008573ffffffffffffffffffffffffffffffffffffffff1673ffffffffffffffffffffffffffffffffffffffff16815260200190815260200160002054613be79190615160565b601060008573ffffffffffffffffffffffffffffffffffffffff1673ffffffffffffffffffffffffffffffffffffffff1681526020019081526020016000208190555080600e54613c389190615160565b600e81905550613c4883826141d2565b7fdf20fd1e76bc69d672e4814fafb2c449bba3a5369d8359adf9e05e6fde87b0568382604051613c79929190614d4b565b60405180910390a15050508080613c8f906153fc565b915050613ac6565b50565b6000613cbb8473ffffffffffffffffffffffffffffffffffffffff166142c6565b15613e1b578373ffffffffffffffffffffffffffffffffffffffff1663150b7a02613ce4610ba3565b8786866040518563ffffffff1660e01b8152600401613d069493929190614cff565b602060405180830381600087803b158015613d2057600080fd5b505af1925050508015613d5157506040513d601f19601f82011682018060405250810190613d4e91906147e4565b60015b613dcb573d8060008114613d81576040519150601f19603f3d011682016040523d82523d6000602084013e613d86565b606091505b50600081511415613dc3576040517fd1a57ed600000000000000000000000000000000000000000000000000000000815260040160405180910390fd5b805181602001fd5b63150b7a0260e01b7bffffffffffffffffffffffffffffffffffffffffffffffffffffffff1916817bffffffffffffffffffffffffffffffffffffffffffffffffffffffff191614915050613e20565b600190505b949350505050565b606060148054613e3790615399565b80601f0160208091040260200160405190810160405280929190818152602001828054613e6390615399565b8015613eb05780601f10613e8557610100808354040283529160200191613eb0565b820191906000526020600020905b815481529060010190602001808311613e9357829003601f168201915b5050505050905090565b60606000821415613f02576040518060400160405280600181526020017f30000000000000000000000000000000000000000000000000000000000000008152509050614062565b600082905060005b60008214613f34578080613f1d906153fc565b915050600a82613f2d91906151f4565b9150613f0a565b60008167ffffffffffffffff811115613f76577f4e487b7100000000000000000000000000000000000000000000000000000000600052604160045260246000fd5b6040519080825280601f01601f191660200182016040528015613fa85781602001600182028036833780820191505090505b5090505b6000851461405b57600182613fc1919061527f565b9150600a85613fd09190615469565b6030613fdc9190615160565b60f81b818381518110614018577f4e487b7100000000000000000000000000000000000000000000000000000000600052603260045260246000fd5b60200101907effffffffffffffffffffffffffffffffffffffffffffffffffffffffffffff1916908160001a905350600a8561405491906151f4565b9450613fac565b8093505050505b919050565b81600960006101000a81548173ffffffffffffffffffffffffffffffffffffffff021916908373ffffffffffffffffffffffffffffffffffffffff16021790555080600a819055505050565b60007f01ffc9a7000000000000000000000000000000000000000000000000000000007bffffffffffffffffffffffffffffffffffffffffffffffffffffffff1916827bffffffffffffffffffffffffffffffffffffffffffffffffffffffff1916149050919050565b60008082905060005b84518110156141ad57600085828151811061416a577f4e487b7100000000000000000000000000000000000000000000000000000000600052603260045260246000fd5b6020026020010151905080831161418c5761418583826142e9565b9250614199565b61419681846142e9565b92505b5080806141a5906153fc565b915050614126565b508091505092915050565b50505050565b50505050565b600081600001549050919050565b80471015614215576040517f08c379a000000000000000000000000000000000000000000000000000000000815260040161420c90614ebe565b60405180910390fd5b60008273ffffffffffffffffffffffffffffffffffffffff168260405161423b90614ccf565b60006040518083038185875af1925050503d8060008114614278576040519150601f19603f3d011682016040523d82523d6000602084013e61427d565b606091505b50509050806142c1576040517f08c379a00000000000000000000000000000000000000000000000000000000081526004016142b890614e9e565b60405180910390fd5b505050565b6000808273ffffffffffffffffffffffffffffffffffffffff163b119050919050565b600082600052816020526040600020905092915050565b82805461430c90615399565b90600052602060002090601f01602090048101928261432e5760008555614375565b82601f1061434757805160ff1916838001178555614375565b82800160010185558215614375579182015b82811115614374578251825591602001919060010190614359565b5b50905061438291906143c9565b5090565b6040518060600160405280600073ffffffffffffffffffffffffffffffffffffffff168152602001600067ffffffffffffffff1681526020016000151581525090565b5b808211156143e25760008160009055506001016143ca565b5090565b60006143f96143f4846150b0565b61508b565b90508281526020810184848401111561441157600080fd5b61441c848285615357565b509392505050565b6000614437614432846150e1565b61508b565b90508281526020810184848401111561444f57600080fd5b61445a848285615357565b509392505050565b6000813590506144718161593d565b92915050565b60008083601f84011261448957600080fd5b8235905067ffffffffffffffff8111156144a257600080fd5b6020830191508360208202830111156144ba57600080fd5b9250929050565b6000813590506144d081615954565b92915050565b6000813590506144e58161596b565b92915050565b6000813590506144fa81615982565b92915050565b60008151905061450f81615982565b92915050565b600082601f83011261452657600080fd5b81356145368482602086016143e6565b91505092915050565b600082601f83011261455057600080fd5b8135614560848260208601614424565b91505092915050565b60008135905061457881615999565b92915050565b60008135905061458d816159b0565b92915050565b6000602082840312156145a557600080fd5b60006145b384828501614462565b91505092915050565b600080604083850312156145cf57600080fd5b60006145dd85828601614462565b92505060206145ee85828601614462565b9150509250929050565b60008060006060848603121561460d57600080fd5b600061461b86828701614462565b935050602061462c86828701614462565b925050604061463d86828701614569565b9150509250925092565b6000806000806080858703121561465d57600080fd5b600061466b87828801614462565b945050602061467c87828801614462565b935050604061468d87828801614569565b925050606085013567ffffffffffffffff8111156146aa57600080fd5b6146b687828801614515565b91505092959194509250565b600080604083850312156146d557600080fd5b60006146e385828601614462565b92505060206146f4858286016144c1565b9150509250929050565b6000806040838503121561471157600080fd5b600061471f85828601614462565b925050602061473085828601614569565b9150509250929050565b60008060006040848603121561474f57600080fd5b600084013567ffffffffffffffff81111561476957600080fd5b61477586828701614477565b935093505060206147888682870161457e565b9150509250925092565b6000602082840312156147a457600080fd5b60006147b2848285016144d6565b91505092915050565b6000602082840312156147cd57600080fd5b60006147db848285016144eb565b91505092915050565b6000602082840312156147f657600080fd5b600061480484828501614500565b91505092915050565b60006020828403121561481f57600080fd5b600082013567ffffffffffffffff81111561483957600080fd5b6148458482850161453f565b91505092915050565b60006020828403121561486057600080fd5b600061486e84828501614569565b91505092915050565b6000806040838503121561488a57600080fd5b600061489885828601614569565b92505060206148a985828601614569565b9150509250929050565b6000602082840312156148c557600080fd5b60006148d38482850161457e565b91505092915050565b6148e5816152b3565b82525050565b6148fc6148f7826152b3565b615445565b82525050565b61490b816152c5565b82525050565b61491a816152d1565b82525050565b600061492b82615112565b6149358185615128565b9350614945818560208601615366565b61494e81615556565b840191505092915050565b60006149648261511d565b61496e8185615144565b935061497e818560208601615366565b61498781615556565b840191505092915050565b600061499d8261511d565b6149a78185615155565b93506149b7818560208601615366565b80840191505092915050565b60006149d0602d83615144565b91506149db82615574565b604082019050919050565b60006149f3601683615144565b91506149fe826155c3565b602082019050919050565b6000614a16602083615144565b9150614a21826155ec565b602082019050919050565b6000614a39601f83615144565b9150614a4482615615565b602082019050919050565b6000614a5c603a83615144565b9150614a678261563e565b604082019050919050565b6000614a7f601d83615144565b9150614a8a8261568d565b602082019050919050565b6000614aa2602783615144565b9150614aad826156b6565b604082019050919050565b6000614ac5600583615155565b9150614ad082615705565b600582019050919050565b6000614ae8601e83615144565b9150614af38261572e565b602082019050919050565b6000614b0b601383615144565b9150614b1682615757565b602082019050919050565b6000614b2e601783615144565b9150614b3982615780565b602082019050919050565b6000614b51603283615144565b9150614b5c826157a9565b604082019050919050565b6000614b74601c83615144565b9150614b7f826157f8565b602082019050919050565b6000614b97600083615139565b9150614ba282615821565b600082019050919050565b6000614bba602483615144565b9150614bc582615824565b604082019050919050565b6000614bdd601b83615144565b9150614be882615873565b602082019050919050565b6000614c00602883615144565b9150614c0b8261589c565b604082019050919050565b6000614c23601f83615144565b9150614c2e826158eb565b602082019050919050565b6000614c46600183615155565b9150614c5182615914565b600182019050919050565b614c6581615327565b82525050565b614c7481615345565b82525050565b6000614c8682846148eb565b60148201915081905092915050565b6000614ca18285614992565b9150614cac82614c39565b9150614cb88284614992565b9150614cc382614ab8565b91508190509392505050565b6000614cda82614b8a565b9150819050919050565b6000602082019050614cf960008301846148dc565b92915050565b6000608082019050614d1460008301876148dc565b614d2160208301866148dc565b614d2e6040830185614c5c565b8181036060830152614d408184614920565b905095945050505050565b6000604082019050614d6060008301856148dc565b614d6d6020830184614c5c565b9392505050565b6000602082019050614d896000830184614902565b92915050565b6000604082019050614da46000830185614902565b614db16020830184614902565b9392505050565b6000602082019050614dcd6000830184614911565b92915050565b6000604082019050614de86000830185614911565b614df56020830184614911565b9392505050565b60006020820190508181036000830152614e168184614959565b905092915050565b60006020820190508181036000830152614e37816149c3565b9050919050565b60006020820190508181036000830152614e57816149e6565b9050919050565b60006020820190508181036000830152614e7781614a09565b9050919050565b60006020820190508181036000830152614e9781614a2c565b9050919050565b60006020820190508181036000830152614eb781614a4f565b9050919050565b60006020820190508181036000830152614ed781614a72565b9050919050565b60006020820190508181036000830152614ef781614a95565b9050919050565b60006020820190508181036000830152614f1781614adb565b9050919050565b60006020820190508181036000830152614f3781614afe565b9050919050565b60006020820190508181036000830152614f5781614b21565b9050919050565b60006020820190508181036000830152614f7781614b44565b9050919050565b60006020820190508181036000830152614f9781614b67565b9050919050565b60006020820190508181036000830152614fb781614bad565b9050919050565b60006020820190508181036000830152614fd781614bd0565b9050919050565b60006020820190508181036000830152614ff781614bf3565b9050919050565b6000602082019050818103600083015261501781614c16565b9050919050565b60006020820190506150336000830184614c5c565b92915050565b600060408201905061504e6000830185614c5c565b61505b6020830184614c5c565b9392505050565b60006040820190506150776000830185614c5c565b6150846020830184614c6b565b9392505050565b60006150956150a6565b90506150a182826153cb565b919050565b6000604051905090565b600067ffffffffffffffff8211156150cb576150ca615527565b5b6150d482615556565b9050602081019050919050565b600067ffffffffffffffff8211156150fc576150fb615527565b5b61510582615556565b9050602081019050919050565b600081519050919050565b600081519050919050565b600082825260208201905092915050565b600081905092915050565b600082825260208201905092915050565b600081905092915050565b600061516b82615327565b915061517683615327565b9250827fffffffffffffffffffffffffffffffffffffffffffffffffffffffffffffffff038211156151ab576151aa61549a565b5b828201905092915050565b60006151c182615331565b91506151cc83615331565b92508267ffffffffffffffff038211156151e9576151e861549a565b5b828201905092915050565b60006151ff82615327565b915061520a83615327565b92508261521a576152196154c9565b5b828204905092915050565b600061523082615327565b915061523b83615327565b9250817fffffffffffffffffffffffffffffffffffffffffffffffffffffffffffffffff04831182151516156152745761527361549a565b5b828202905092915050565b600061528a82615327565b915061529583615327565b9250828210156152a8576152a761549a565b5b828203905092915050565b60006152be82615307565b9050919050565b60008115159050919050565b6000819050919050565b60007fffffffff0000000000000000000000000000000000000000000000000000000082169050919050565b600073ffffffffffffffffffffffffffffffffffffffff82169050919050565b6000819050919050565b600067ffffffffffffffff82169050919050565b600061535082615331565b9050919050565b82818337600083830152505050565b60005b83811015615384578082015181840152602081019050615369565b83811115615393576000848401525b50505050565b600060028204905060018216806153b157607f821691505b602082108114156153c5576153c46154f8565b5b50919050565b6153d482615556565b810181811067ffffffffffffffff821117156153f3576153f2615527565b5b80604052505050565b600061540782615327565b91507fffffffffffffffffffffffffffffffffffffffffffffffffffffffffffffffff82141561543a5761543961549a565b5b600182019050919050565b600061545082615457565b9050919050565b600061546282615567565b9050919050565b600061547482615327565b915061547f83615327565b92508261548f5761548e6154c9565b5b828206905092915050565b7f4e487b7100000000000000000000000000000000000000000000000000000000600052601160045260246000fd5b7f4e487b7100000000000000000000000000000000000000000000000000000000600052601260045260246000fd5b7f4e487b7100000000000000000000000000000000000000000000000000000000600052602260045260246000fd5b7f4e487b7100000000000000000000000000000000000000000000000000000000600052604160045260246000fd5b6000601f19601f8301169050919050565b60008160601b9050919050565b7f436f6e7472616374206d757374206861766520612062616c616e636520746f2060008201527f72656c656173652066756e647300000000000000000000000000000000000000602082015250565b7f43616e206e6f74206d696e742074686174206d616e7900000000000000000000600082015250565b7f45786365656473207075626c6963207472616e73616374696f6e206c696d6974600082015250565b7f45786365656473206d6178696d756d2077686974656c697374206d696e747300600082015250565b7f416464726573733a20756e61626c6520746f2073656e642076616c75652c207260008201527f6563697069656e74206d61792068617665207265766572746564000000000000602082015250565b7f416464726573733a20696e73756666696369656e742062616c616e6365000000600082015250565b7f4e6577204f776e65723a206e6577204f776e657220697320746865206f6e6c7960008201527f2063616c6c657200000000000000000000000000000000000000000000000000602082015250565b7f2e6a736f6e000000000000000000000000000000000000000000000000000000600082015250565b7f4f776e65723a2063616c6c6572206973206e6f7420746865204f776e65720000600082015250565b7f4d696e74696e67206e6f7420656e61626c656400000000000000000000000000600082015250565b7f41646472657373206e6f742077686974656c6973746564000000000000000000600082015250565b7f7075626c69634d696e7428292064697361626c6564206265636175736520776860008201527f6974656c69737420697320656e61626c65640000000000000000000000000000602082015250565b7f57726f6e6720616d6f756e74206f66204e617469766520546f6b656e00000000600082015250565b50565b7f4f776e65723a206e6577204f776e657220697320746865207a65726f2061646460008201527f7265737300000000000000000000000000000000000000000000000000000000602082015250565b7f4e6f7420656e6f7567682077686974656c69737420736c6f74732e0000000000600082015250565b7f57686974656c697374206e6f742072657175697265642c20757365207075626c60008201527f69634d696e742829000000000000000000000000000000000000000000000000602082015250565b7f5265656e7472616e637947756172643a207265656e7472616e742063616c6c00600082015250565b7f2f00000000000000000000000000000000000000000000000000000000000000600082015250565b615946816152b3565b811461595157600080fd5b50565b61595d816152c5565b811461596857600080fd5b50565b615974816152d1565b811461597f57600080fd5b50565b61598b816152db565b811461599657600080fd5b50565b6159a281615327565b81146159ad57600080fd5b50565b6159b981615331565b81146159c457600080fd5b5056fea264697066735822122082c419c7e164437e90780c967c78a25c7be9a7a7b1fcfc62ac2b91f23b9d252564736f6c63430008040033",
  "linkReferences": {},
  "deployedLinkReferences": {}
}