{
  "_format": "hh-sol-artifact-1",
  "contractName": "CandyCreatorV1A",
  "sourceName": "contracts/CandyCreatorV1A.sol",
  "abi": [
    {
      "inputs": [
        {
          "internalType": "string",
          "name": "name",
          "type": "string"
        },
        {
          "internalType": "string",
          "name": "symbol",
          "type": "string"
        },
        {
          "internalType": "string",
          "name": "_placeholderURI",
          "type": "string"
        },
        {
          "internalType": "uint256",
          "name": "_mintPrice",
          "type": "uint256"
        },
        {
          "internalType": "uint256",
          "name": "_mintSize",
          "type": "uint256"
        },
        {
          "internalType": "address",
          "name": "_candyWallet",
          "type": "address"
        },
        {
          "internalType": "bool",
          "name": "_multi",
          "type": "bool"
        },
        {
          "internalType": "address[]",
          "name": "splitAddresses",
          "type": "address[]"
        },
        {
          "internalType": "uint256[]",
          "name": "splitShares",
          "type": "uint256[]"
        }
      ],
      "stateMutability": "nonpayable",
      "type": "constructor"
    },
    {
      "inputs": [],
      "name": "ApprovalCallerNotOwnerNorApproved",
      "type": "error"
    },
    {
      "inputs": [],
      "name": "ApprovalQueryForNonexistentToken",
      "type": "error"
    },
    {
      "inputs": [],
      "name": "ApprovalToCurrentOwner",
      "type": "error"
    },
    {
      "inputs": [],
      "name": "ApproveToCaller",
      "type": "error"
    },
    {
      "inputs": [],
      "name": "BalanceQueryForZeroAddress",
      "type": "error"
    },
    {
      "inputs": [],
      "name": "MintToZeroAddress",
      "type": "error"
    },
    {
      "inputs": [],
      "name": "MintZeroQuantity",
      "type": "error"
    },
    {
      "inputs": [],
      "name": "OwnerQueryForNonexistentToken",
      "type": "error"
    },
    {
      "inputs": [],
      "name": "TransferCallerNotOwnerNorApproved",
      "type": "error"
    },
    {
      "inputs": [],
      "name": "TransferFromIncorrectOwner",
      "type": "error"
    },
    {
      "inputs": [],
      "name": "TransferToNonERC721ReceiverImplementer",
      "type": "error"
    },
    {
      "inputs": [],
      "name": "TransferToZeroAddress",
      "type": "error"
    },
    {
      "inputs": [],
      "name": "URIQueryForNonexistentToken",
      "type": "error"
    },
    {
      "anonymous": false,
      "inputs": [
        {
          "indexed": true,
          "internalType": "address",
          "name": "owner",
          "type": "address"
        },
        {
          "indexed": true,
          "internalType": "address",
          "name": "approved",
          "type": "address"
        },
        {
          "indexed": true,
          "internalType": "uint256",
          "name": "tokenId",
          "type": "uint256"
        }
      ],
      "name": "Approval",
      "type": "event"
    },
    {
      "anonymous": false,
      "inputs": [
        {
          "indexed": true,
          "internalType": "address",
          "name": "owner",
          "type": "address"
        },
        {
          "indexed": true,
          "internalType": "address",
          "name": "operator",
          "type": "address"
        },
        {
          "indexed": false,
          "internalType": "bool",
          "name": "approved",
          "type": "bool"
        }
      ],
      "name": "ApprovalForAll",
      "type": "event"
    },
    {
      "anonymous": false,
      "inputs": [
        {
          "indexed": true,
          "internalType": "address",
          "name": "previousOwner",
          "type": "address"
        },
        {
          "indexed": true,
          "internalType": "address",
          "name": "newOwner",
          "type": "address"
        }
      ],
      "name": "OwnerTransferred",
      "type": "event"
    },
    {
      "anonymous": false,
      "inputs": [
        {
          "indexed": false,
          "internalType": "address",
          "name": "account",
          "type": "address"
        },
        {
          "indexed": false,
          "internalType": "uint256",
          "name": "shares",
          "type": "uint256"
        }
      ],
      "name": "PayeeAdded",
      "type": "event"
    },
    {
      "anonymous": false,
      "inputs": [
        {
          "indexed": false,
          "internalType": "bool",
          "name": "_status",
          "type": "bool"
        }
      ],
      "name": "PayeesLocked",
      "type": "event"
    },
    {
      "anonymous": false,
      "inputs": [
        {
          "indexed": false,
          "internalType": "address",
          "name": "from",
          "type": "address"
        },
        {
          "indexed": false,
          "internalType": "uint256",
          "name": "amount",
          "type": "uint256"
        }
      ],
      "name": "PaymentReceived",
      "type": "event"
    },
    {
      "anonymous": false,
      "inputs": [
        {
          "indexed": false,
          "internalType": "address",
          "name": "to",
          "type": "address"
        },
        {
          "indexed": false,
          "internalType": "uint256",
          "name": "amount",
          "type": "uint256"
        }
      ],
      "name": "PaymentReleased",
      "type": "event"
    },
    {
      "anonymous": false,
      "inputs": [
        {
          "indexed": true,
          "internalType": "address",
          "name": "from",
          "type": "address"
        },
        {
          "indexed": true,
          "internalType": "address",
          "name": "to",
          "type": "address"
        },
        {
          "indexed": true,
          "internalType": "uint256",
          "name": "tokenId",
          "type": "uint256"
        }
      ],
      "name": "Transfer",
      "type": "event"
    },
    {
      "anonymous": false,
      "inputs": [
        {
          "indexed": false,
          "internalType": "uint256",
          "name": "_old",
          "type": "uint256"
        },
        {
          "indexed": false,
          "internalType": "uint256",
          "name": "_new",
          "type": "uint256"
        }
      ],
      "name": "UpdatedMaxPublicMints",
      "type": "event"
    },
    {
      "anonymous": false,
      "inputs": [
        {
          "indexed": false,
          "internalType": "uint256",
          "name": "_old",
          "type": "uint256"
        },
        {
          "indexed": false,
          "internalType": "uint256",
          "name": "_new",
          "type": "uint256"
        }
      ],
      "name": "UpdatedMaxWhitelistMints",
      "type": "event"
    },
    {
      "anonymous": false,
      "inputs": [
        {
          "indexed": false,
          "internalType": "uint256",
          "name": "_old",
          "type": "uint256"
        },
        {
          "indexed": false,
          "internalType": "uint256",
          "name": "_new",
          "type": "uint256"
        }
      ],
      "name": "UpdatedMintPrice",
      "type": "event"
    },
    {
      "anonymous": false,
      "inputs": [
        {
          "indexed": false,
          "internalType": "uint256",
          "name": "_old",
          "type": "uint256"
        },
        {
          "indexed": false,
          "internalType": "uint256",
          "name": "_new",
          "type": "uint256"
        }
      ],
      "name": "UpdatedMintSize",
      "type": "event"
    },
    {
      "anonymous": false,
      "inputs": [
        {
          "indexed": false,
          "internalType": "bool",
          "name": "_old",
          "type": "bool"
        },
        {
          "indexed": false,
          "internalType": "bool",
          "name": "_new",
          "type": "bool"
        }
      ],
      "name": "UpdatedMintStatus",
      "type": "event"
    },
    {
      "anonymous": false,
      "inputs": [
        {
          "indexed": false,
          "internalType": "uint256",
          "name": "_old",
          "type": "uint256"
        },
        {
          "indexed": false,
          "internalType": "uint256",
          "name": "_new",
          "type": "uint256"
        }
      ],
      "name": "UpdatedPresaleEnd",
      "type": "event"
    },
    {
      "anonymous": false,
      "inputs": [
        {
          "indexed": false,
          "internalType": "uint256",
          "name": "_old",
          "type": "uint256"
        },
        {
          "indexed": false,
          "internalType": "uint256",
          "name": "_new",
          "type": "uint256"
        }
      ],
      "name": "UpdatedRevealTimestamp",
      "type": "event"
    },
    {
      "anonymous": false,
      "inputs": [
        {
          "indexed": false,
          "internalType": "address",
          "name": "newRoyaltyAddress",
          "type": "address"
        },
        {
          "indexed": false,
          "internalType": "uint256",
          "name": "newPercentage",
          "type": "uint256"
        }
      ],
      "name": "UpdatedRoyalties",
      "type": "event"
    },
    {
      "anonymous": false,
      "inputs": [
        {
          "indexed": false,
          "internalType": "bytes32",
          "name": "_old",
          "type": "bytes32"
        },
        {
          "indexed": false,
          "internalType": "bytes32",
          "name": "_new",
          "type": "bytes32"
        }
      ],
      "name": "UpdatedWhitelist",
      "type": "event"
    },
    {
      "anonymous": false,
      "inputs": [
        {
          "indexed": false,
          "internalType": "bool",
          "name": "_old",
          "type": "bool"
        },
        {
          "indexed": false,
          "internalType": "bool",
          "name": "_new",
          "type": "bool"
        }
      ],
      "name": "UpdatedWhitelistStatus",
      "type": "event"
    },
    {
      "stateMutability": "payable",
      "type": "fallback"
    },
    {
      "inputs": [],
      "name": "acceptOwner",
      "outputs": [],
      "stateMutability": "nonpayable",
      "type": "function"
    },
    {
      "inputs": [
        {
          "internalType": "address",
          "name": "to",
          "type": "address"
        },
        {
          "internalType": "uint256",
          "name": "tokenId",
          "type": "uint256"
        }
      ],
      "name": "approve",
      "outputs": [],
      "stateMutability": "nonpayable",
      "type": "function"
    },
    {
      "inputs": [
        {
          "internalType": "address",
          "name": "owner",
          "type": "address"
        }
      ],
      "name": "balanceOf",
      "outputs": [
        {
          "internalType": "uint256",
          "name": "",
          "type": "uint256"
        }
      ],
      "stateMutability": "view",
      "type": "function"
    },
    {
      "inputs": [],
      "name": "collectionSize",
      "outputs": [
        {
          "internalType": "uint256",
          "name": "",
          "type": "uint256"
        }
      ],
      "stateMutability": "view",
      "type": "function"
    },
    {
      "inputs": [],
      "name": "declineOwner",
      "outputs": [],
      "stateMutability": "nonpayable",
      "type": "function"
    },
    {
      "inputs": [],
      "name": "disableMinting",
      "outputs": [],
      "stateMutability": "nonpayable",
      "type": "function"
    },
    {
      "inputs": [],
      "name": "disableWhitelist",
      "outputs": [],
      "stateMutability": "nonpayable",
      "type": "function"
    },
    {
      "inputs": [],
      "name": "enableMinting",
      "outputs": [],
      "stateMutability": "nonpayable",
      "type": "function"
    },
    {
      "inputs": [],
      "name": "enableWhitelist",
      "outputs": [],
      "stateMutability": "nonpayable",
      "type": "function"
    },
    {
      "inputs": [
        {
          "internalType": "uint256",
          "name": "tokenId",
          "type": "uint256"
        }
      ],
      "name": "getApproved",
      "outputs": [
        {
          "internalType": "address",
          "name": "",
          "type": "address"
        }
      ],
      "stateMutability": "view",
      "type": "function"
    },
    {
      "inputs": [],
      "name": "getBalance",
      "outputs": [
        {
          "internalType": "uint256",
          "name": "",
          "type": "uint256"
        }
      ],
      "stateMutability": "view",
      "type": "function"
    },
    {
      "inputs": [
        {
          "internalType": "address",
          "name": "owner",
          "type": "address"
        },
        {
          "internalType": "address",
          "name": "operator",
          "type": "address"
        }
      ],
      "name": "isApprovedForAll",
      "outputs": [
        {
          "internalType": "bool",
          "name": "",
          "type": "bool"
        }
      ],
      "stateMutability": "view",
      "type": "function"
    },
    {
      "inputs": [],
      "name": "mintStatus",
      "outputs": [
        {
          "internalType": "bool",
          "name": "",
          "type": "bool"
        }
      ],
      "stateMutability": "view",
      "type": "function"
    },
    {
      "inputs": [],
      "name": "mintingFee",
      "outputs": [
        {
          "internalType": "uint256",
          "name": "",
          "type": "uint256"
        }
      ],
      "stateMutability": "view",
      "type": "function"
    },
    {
      "inputs": [],
      "name": "name",
      "outputs": [
        {
          "internalType": "string",
          "name": "",
          "type": "string"
        }
      ],
      "stateMutability": "view",
      "type": "function"
    },
    {
      "inputs": [],
      "name": "owner",
      "outputs": [
        {
          "internalType": "address",
          "name": "",
          "type": "address"
        }
      ],
      "stateMutability": "view",
      "type": "function"
    },
    {
      "inputs": [
        {
          "internalType": "uint256",
          "name": "tokenId",
          "type": "uint256"
        }
      ],
      "name": "ownerOf",
      "outputs": [
        {
          "internalType": "address",
          "name": "",
          "type": "address"
        }
      ],
      "stateMutability": "view",
      "type": "function"
    },
    {
      "inputs": [
        {
          "internalType": "uint256",
          "name": "index",
          "type": "uint256"
        }
      ],
      "name": "payee",
      "outputs": [
        {
          "internalType": "address",
          "name": "",
          "type": "address"
        }
      ],
      "stateMutability": "view",
      "type": "function"
    },
    {
      "inputs": [],
      "name": "publicMaxMints",
      "outputs": [
        {
          "internalType": "uint256",
          "name": "",
          "type": "uint256"
        }
      ],
      "stateMutability": "view",
      "type": "function"
    },
    {
      "inputs": [
        {
          "internalType": "uint256",
          "name": "amount",
          "type": "uint256"
        }
      ],
      "name": "publicMint",
      "outputs": [],
      "stateMutability": "payable",
      "type": "function"
    },
    {
      "inputs": [
        {
          "internalType": "address",
          "name": "newOwner",
          "type": "address"
        }
      ],
      "name": "pushOwner",
      "outputs": [],
      "stateMutability": "nonpayable",
      "type": "function"
    },
    {
      "inputs": [],
      "name": "release",
      "outputs": [],
      "stateMutability": "nonpayable",
      "type": "function"
    },
    {
      "inputs": [
        {
          "internalType": "address",
          "name": "account",
          "type": "address"
        }
      ],
      "name": "released",
      "outputs": [
        {
          "internalType": "uint256",
          "name": "",
          "type": "uint256"
        }
      ],
      "stateMutability": "view",
      "type": "function"
    },
    {
      "inputs": [],
      "name": "renounceOwner",
      "outputs": [],
      "stateMutability": "nonpayable",
      "type": "function"
    },
    {
      "inputs": [],
      "name": "revealTimestamp",
      "outputs": [
        {
          "internalType": "uint256",
          "name": "",
          "type": "uint256"
        }
      ],
      "stateMutability": "view",
      "type": "function"
    },
    {
      "inputs": [
        {
          "internalType": "uint256",
          "name": "_tokenId",
          "type": "uint256"
        },
        {
          "internalType": "uint256",
          "name": "_salePrice",
          "type": "uint256"
        }
      ],
      "name": "royaltyInfo",
      "outputs": [
        {
          "internalType": "address",
          "name": "receiver",
          "type": "address"
        },
        {
          "internalType": "uint256",
          "name": "royaltyAmount",
          "type": "uint256"
        }
      ],
      "stateMutability": "view",
      "type": "function"
    },
    {
      "inputs": [
        {
          "internalType": "address",
          "name": "from",
          "type": "address"
        },
        {
          "internalType": "address",
          "name": "to",
          "type": "address"
        },
        {
          "internalType": "uint256",
          "name": "tokenId",
          "type": "uint256"
        }
      ],
      "name": "safeTransferFrom",
      "outputs": [],
      "stateMutability": "nonpayable",
      "type": "function"
    },
    {
      "inputs": [
        {
          "internalType": "address",
          "name": "from",
          "type": "address"
        },
        {
          "internalType": "address",
          "name": "to",
          "type": "address"
        },
        {
          "internalType": "uint256",
          "name": "tokenId",
          "type": "uint256"
        },
        {
          "internalType": "bytes",
          "name": "_data",
          "type": "bytes"
        }
      ],
      "name": "safeTransferFrom",
      "outputs": [],
      "stateMutability": "nonpayable",
      "type": "function"
    },
    {
      "inputs": [
        {
          "internalType": "address",
          "name": "operator",
          "type": "address"
        },
        {
          "internalType": "bool",
          "name": "approved",
          "type": "bool"
        }
      ],
      "name": "setApprovalForAll",
      "outputs": [],
      "stateMutability": "nonpayable",
      "type": "function"
    },
    {
      "inputs": [
        {
          "internalType": "string",
          "name": "baseURI",
          "type": "string"
        }
      ],
      "name": "setBaseURI",
      "outputs": [],
      "stateMutability": "nonpayable",
      "type": "function"
    },
    {
      "inputs": [
        {
          "internalType": "uint256",
          "name": "_amount",
          "type": "uint256"
        }
      ],
      "name": "setMaxPublicMints",
      "outputs": [],
      "stateMutability": "nonpayable",
      "type": "function"
    },
    {
      "inputs": [
        {
          "internalType": "uint256",
          "name": "_amount",
          "type": "uint256"
        }
      ],
      "name": "setMaxWhitelistMints",
      "outputs": [],
      "stateMutability": "nonpayable",
      "type": "function"
    },
    {
      "inputs": [
        {
          "internalType": "uint256",
          "name": "_newFee",
          "type": "uint256"
        }
      ],
      "name": "setMintPrice",
      "outputs": [],
      "stateMutability": "nonpayable",
      "type": "function"
    },
    {
      "inputs": [
        {
          "internalType": "uint256",
          "name": "_amount",
          "type": "uint256"
        }
      ],
      "name": "setMintSize",
      "outputs": [],
      "stateMutability": "nonpayable",
      "type": "function"
    },
    {
      "inputs": [
        {
          "internalType": "uint256",
          "name": "_timestamp",
          "type": "uint256"
        }
      ],
      "name": "setRevealTimestamp",
      "outputs": [],
      "stateMutability": "nonpayable",
      "type": "function"
    },
    {
      "inputs": [
        {
          "internalType": "address",
          "name": "_royaltyAddress",
          "type": "address"
        },
        {
          "internalType": "uint256",
          "name": "_percentage",
          "type": "uint256"
        }
      ],
      "name": "setRoyaltyInfo",
      "outputs": [],
      "stateMutability": "nonpayable",
      "type": "function"
    },
    {
      "inputs": [
        {
          "internalType": "bytes32",
          "name": "_merkleRoot",
          "type": "bytes32"
        }
      ],
      "name": "setWhitelistMerkleRoot",
      "outputs": [],
      "stateMutability": "nonpayable",
      "type": "function"
    },
    {
      "inputs": [
        {
          "internalType": "address",
          "name": "account",
          "type": "address"
        }
      ],
      "name": "shares",
      "outputs": [
        {
          "internalType": "uint256",
          "name": "",
          "type": "uint256"
        }
      ],
      "stateMutability": "view",
      "type": "function"
    },
    {
      "inputs": [
        {
          "internalType": "bytes4",
          "name": "interfaceId",
          "type": "bytes4"
        }
      ],
      "name": "supportsInterface",
      "outputs": [
        {
          "internalType": "bool",
          "name": "",
          "type": "bool"
        }
      ],
      "stateMutability": "view",
      "type": "function"
    },
    {
      "inputs": [],
      "name": "symbol",
      "outputs": [
        {
          "internalType": "string",
          "name": "",
          "type": "string"
        }
      ],
      "stateMutability": "view",
      "type": "function"
    },
    {
      "inputs": [
        {
          "internalType": "uint256",
          "name": "tokenId",
          "type": "uint256"
        }
      ],
      "name": "tokenURI",
      "outputs": [
        {
          "internalType": "string",
          "name": "",
          "type": "string"
        }
      ],
      "stateMutability": "view",
      "type": "function"
    },
    {
      "inputs": [],
      "name": "totalReleased",
      "outputs": [
        {
          "internalType": "uint256",
          "name": "",
          "type": "uint256"
        }
      ],
      "stateMutability": "view",
      "type": "function"
    },
    {
      "inputs": [],
      "name": "totalShares",
      "outputs": [
        {
          "internalType": "uint256",
          "name": "",
          "type": "uint256"
        }
      ],
      "stateMutability": "view",
      "type": "function"
    },
    {
      "inputs": [],
      "name": "totalSupply",
      "outputs": [
        {
          "internalType": "uint256",
          "name": "",
          "type": "uint256"
        }
      ],
      "stateMutability": "view",
      "type": "function"
    },
    {
      "inputs": [
        {
          "internalType": "address",
          "name": "from",
          "type": "address"
        },
        {
          "internalType": "address",
          "name": "to",
          "type": "address"
        },
        {
          "internalType": "uint256",
          "name": "tokenId",
          "type": "uint256"
        }
      ],
      "name": "transferFrom",
      "outputs": [],
      "stateMutability": "nonpayable",
      "type": "function"
    },
    {
      "inputs": [
        {
          "internalType": "address",
          "name": "newOwner",
          "type": "address"
        }
      ],
      "name": "transferOwner",
      "outputs": [],
      "stateMutability": "nonpayable",
      "type": "function"
    },
    {
      "inputs": [
        {
          "internalType": "address",
          "name": "",
          "type": "address"
        }
      ],
      "name": "whitelistClaimed",
      "outputs": [
        {
          "internalType": "bool",
          "name": "",
          "type": "bool"
        }
      ],
      "stateMutability": "view",
      "type": "function"
    },
    {
      "inputs": [],
      "name": "whitelistMaxMints",
      "outputs": [
        {
          "internalType": "uint256",
          "name": "",
          "type": "uint256"
        }
      ],
      "stateMutability": "view",
      "type": "function"
    },
    {
      "inputs": [],
      "name": "whitelistMerkleRoot",
      "outputs": [
        {
          "internalType": "bytes32",
          "name": "",
          "type": "bytes32"
        }
      ],
      "stateMutability": "view",
      "type": "function"
    },
    {
      "inputs": [
        {
          "internalType": "bytes32[]",
          "name": "merkleProof",
          "type": "bytes32[]"
        },
        {
          "internalType": "uint256",
          "name": "amount",
          "type": "uint256"
        }
      ],
      "name": "whitelistMint",
      "outputs": [],
      "stateMutability": "payable",
      "type": "function"
    },
    {
      "inputs": [],
      "name": "whitelistStatus",
      "outputs": [
        {
          "internalType": "bool",
          "name": "",
          "type": "bool"
        }
      ],
      "stateMutability": "view",
      "type": "function"
    },
    {
      "stateMutability": "payable",
      "type": "receive"
    }
  ],
  "bytecode": "0x6080604052600160005560016015556001601b553480156200002057600080fd5b50604051620069a3380380620069a3833981810160405281019062000046919062000af3565b88888882600190805190602001906200006192919062000848565b5081600290805190602001906200007a92919062000848565b5080600390805190602001906200009392919062000848565b505050506001600a81905550620000bf620000b36200020c60201b60201c565b6200021460201b60201c565b620000d086620002da60201b60201c565b620000e185620003b860201b60201c565b620000f5846101f46200049660201b60201c565b8262000134576200011e6200010f6200020c60201b60201c565b61251c6200049660201b60201c565b6200012e620004ff60201b60201c565b620001fd565b60005b8251811015620001eb57620001d58382815181106200017f577f4e487b7100000000000000000000000000000000000000000000000000000000600052603260045260246000fd5b6020026020010151838381518110620001c1577f4e487b7100000000000000000000000000000000000000000000000000000000600052603260045260246000fd5b60200260200101516200049660201b60201c565b8080620001e29062001077565b91505062000137565b50620001fc620004ff60201b60201c565b5b505050505050505050620012ca565b600033905090565b6000601160009054906101000a900473ffffffffffffffffffffffffffffffffffffffff16905081601160006101000a81548173ffffffffffffffffffffffffffffffffffffffff021916908373ffffffffffffffffffffffffffffffffffffffff1602179055508173ffffffffffffffffffffffffffffffffffffffff168173ffffffffffffffffffffffffffffffffffffffff167f8934ce4adea8d9ce0d714d2c22b86790e41b7731c84b926fbbdc1d40ff6533c960405160405180910390a35050565b620002ea6200020c60201b60201c565b73ffffffffffffffffffffffffffffffffffffffff1662000310620005b760201b60201c565b73ffffffffffffffffffffffffffffffffffffffff161462000369576040517f08c379a0000000000000000000000000000000000000000000000000000000008152600401620003609062000dab565b60405180910390fd5b60006016549050816016819055507f79f142b9bcccc417646eead59c29526ac8437fccd19a5368532b2648349adce181601654604051620003ac92919062000e33565b60405180910390a15050565b620003c86200020c60201b60201c565b73ffffffffffffffffffffffffffffffffffffffff16620003ee620005b760201b60201c565b73ffffffffffffffffffffffffffffffffffffffff161462000447576040517f08c379a00000000000000000000000000000000000000000000000000000000081526004016200043e9062000dab565b60405180910390fd5b60006017549050816017819055507f8d9cfb0dea274a0a02ddad1fc52c90100a28462c6421daa25fb101c740cf5851816017546040516200048a92919062000e33565b60405180910390a15050565b601460019054906101000a900460ff1615620004e9576040517f08c379a0000000000000000000000000000000000000000000000000000000008152600401620004e09062000def565b60405180910390fd5b620004fb8282620005e160201b60201c565b5050565b601460019054906101000a900460ff161562000552576040517f08c379a0000000000000000000000000000000000000000000000000000000008152600401620005499062000def565b60405180910390fd5b6001601460016101000a81548160ff0219169083151502179055507f07fe2f03bd4fa149b9d8918fb57a6e2a3b1fbbb29a4d4536df7e6cd9edf02ed8601460019054906101000a900460ff16604051620005ad919062000d6c565b60405180910390a1565b6000601160009054906101000a900473ffffffffffffffffffffffffffffffffffffffff16905090565b600073ffffffffffffffffffffffffffffffffffffffff168273ffffffffffffffffffffffffffffffffffffffff16141562000654576040517f08c379a00000000000000000000000000000000000000000000000000000000081526004016200064b9062000d89565b60405180910390fd5b600081116200069a576040517f08c379a0000000000000000000000000000000000000000000000000000000008152600401620006919062000e11565b60405180910390fd5b6000600e60008473ffffffffffffffffffffffffffffffffffffffff1673ffffffffffffffffffffffffffffffffffffffff16815260200190815260200160002054146200071f576040517f08c379a0000000000000000000000000000000000000000000000000000000008152600401620007169062000dcd565b60405180910390fd5b62000736600b6200083260201b62002b6d1760201c565b6010829080600181540180825580915050600190039060005260206000200160009091909190916101000a81548173ffffffffffffffffffffffffffffffffffffffff021916908373ffffffffffffffffffffffffffffffffffffffff16021790555080600e60008473ffffffffffffffffffffffffffffffffffffffff1673ffffffffffffffffffffffffffffffffffffffff1681526020019081526020016000208190555080600c54620007ed919062000f2e565b600c819055507f40c340f65e17194d14ddddb073d3c9f888e3cb52b5aae0c6c7706b4fbc905fac82826040516200082692919062000d3f565b60405180910390a15050565b6001816000016000828254019250508190555050565b82805462000856906200100b565b90600052602060002090601f0160209004810192826200087a5760008555620008c6565b82601f106200089557805160ff1916838001178555620008c6565b82800160010185558215620008c6579182015b82811115620008c5578251825591602001919060010190620008a8565b5b509050620008d59190620008d9565b5090565b5b80821115620008f4576000816000905550600101620008da565b5090565b60006200090f620009098462000e89565b62000e60565b905080838252602082019050828560208602820111156200092f57600080fd5b60005b8581101562000963578162000948888262000a27565b84526020840193506020830192505060018101905062000932565b5050509392505050565b6000620009846200097e8462000eb8565b62000e60565b90508083825260208201905082856020860282011115620009a457600080fd5b60005b85811015620009d85781620009bd888262000adc565b845260208401935060208301925050600181019050620009a7565b5050509392505050565b6000620009f9620009f38462000ee7565b62000e60565b90508281526020810184848401111562000a1257600080fd5b62000a1f84828562000fd5565b509392505050565b60008151905062000a38816200127c565b92915050565b600082601f83011262000a5057600080fd5b815162000a62848260208601620008f8565b91505092915050565b600082601f83011262000a7d57600080fd5b815162000a8f8482602086016200096d565b91505092915050565b60008151905062000aa98162001296565b92915050565b600082601f83011262000ac157600080fd5b815162000ad3848260208601620009e2565b91505092915050565b60008151905062000aed81620012b0565b92915050565b60008060008060008060008060006101208a8c03121562000b1357600080fd5b60008a015167ffffffffffffffff81111562000b2e57600080fd5b62000b3c8c828d0162000aaf565b99505060208a015167ffffffffffffffff81111562000b5a57600080fd5b62000b688c828d0162000aaf565b98505060408a015167ffffffffffffffff81111562000b8657600080fd5b62000b948c828d0162000aaf565b975050606062000ba78c828d0162000adc565b965050608062000bba8c828d0162000adc565b95505060a062000bcd8c828d0162000a27565b94505060c062000be08c828d0162000a98565b93505060e08a015167ffffffffffffffff81111562000bfe57600080fd5b62000c0c8c828d0162000a3e565b9250506101008a015167ffffffffffffffff81111562000c2b57600080fd5b62000c398c828d0162000a6b565b9150509295985092959850929598565b62000c548162000f8b565b82525050565b62000c658162000f9f565b82525050565b600062000c7a60248362000f1d565b915062000c878262001163565b604082019050919050565b600062000ca1601e8362000f1d565b915062000cae82620011b2565b602082019050919050565b600062000cc860288362000f1d565b915062000cd582620011db565b604082019050919050565b600062000cef601a8362000f1d565b915062000cfc826200122a565b602082019050919050565b600062000d1660208362000f1d565b915062000d238262001253565b602082019050919050565b62000d398162000fcb565b82525050565b600060408201905062000d56600083018562000c49565b62000d65602083018462000d2e565b9392505050565b600060208201905062000d83600083018462000c5a565b92915050565b6000602082019050818103600083015262000da48162000c6b565b9050919050565b6000602082019050818103600083015262000dc68162000c92565b9050919050565b6000602082019050818103600083015262000de88162000cb9565b9050919050565b6000602082019050818103600083015262000e0a8162000ce0565b9050919050565b6000602082019050818103600083015262000e2c8162000d07565b9050919050565b600060408201905062000e4a600083018562000d2e565b62000e59602083018462000d2e565b9392505050565b600062000e6c62000e7f565b905062000e7a828262001041565b919050565b6000604051905090565b600067ffffffffffffffff82111562000ea75762000ea662001123565b5b602082029050602081019050919050565b600067ffffffffffffffff82111562000ed65762000ed562001123565b5b602082029050602081019050919050565b600067ffffffffffffffff82111562000f055762000f0462001123565b5b62000f108262001152565b9050602081019050919050565b600082825260208201905092915050565b600062000f3b8262000fcb565b915062000f488362000fcb565b9250827fffffffffffffffffffffffffffffffffffffffffffffffffffffffffffffffff0382111562000f805762000f7f620010c5565b5b828201905092915050565b600062000f988262000fab565b9050919050565b60008115159050919050565b600073ffffffffffffffffffffffffffffffffffffffff82169050919050565b6000819050919050565b60005b8381101562000ff557808201518184015260208101905062000fd8565b8381111562001005576000848401525b50505050565b600060028204905060018216806200102457607f821691505b602082108114156200103b576200103a620010f4565b5b50919050565b6200104c8262001152565b810181811067ffffffffffffffff821117156200106e576200106d62001123565b5b80604052505050565b6000620010848262000fcb565b91507fffffffffffffffffffffffffffffffffffffffffffffffffffffffffffffffff821415620010ba57620010b9620010c5565b5b600182019050919050565b7f4e487b7100000000000000000000000000000000000000000000000000000000600052601160045260246000fd5b7f4e487b7100000000000000000000000000000000000000000000000000000000600052602260045260246000fd5b7f4e487b7100000000000000000000000000000000000000000000000000000000600052604160045260246000fd5b6000601f19601f8301169050919050565b7f43616e2774206164642073686172657320746f20746865207a65726f2061646460008201527f7265737300000000000000000000000000000000000000000000000000000000602082015250565b7f4f776e65723a2063616c6c6572206973206e6f7420746865204f776e65720000600082015250565b7f416464726573732068617320616c7265616479206265656e2061737369676e6560008201527f6420736861726573000000000000000000000000000000000000000000000000602082015250565b7f43616e206e6f74207365742c20706179656573206c6f636b6564000000000000600082015250565b7f536861726573206d7573742062652067726561746572207468616e207a65726f600082015250565b620012878162000f8b565b81146200129357600080fd5b50565b620012a18162000f9f565b8114620012ad57600080fd5b50565b620012bb8162000fcb565b8114620012c757600080fd5b50565b6156c980620012da6000396000f3fe6080604052600436106102e85760003560e01c80638da5cb5b11610190578063cdfb2b4e116100dc578063e797ec1b11610095578063f4a0a5281161006f578063f4a0a52814610b53578063f62f3c1114610b7c578063faf5316914610ba7578063fbee812114610bd057610336565b8063e797ec1b14610ae8578063e985e9c514610aff578063ebbc496514610b3c57610336565b8063cdfb2b4e146109ec578063ce7c2ac214610a03578063d6b0f48414610a40578063db4bec4414610a57578063e2e784d514610a94578063e33b7de314610abd57610336565b8063a93fef3b11610149578063b35c606811610123578063b35c606814610946578063b88d4fde1461095d578063bd32fb6614610986578063c87b56dd146109af57610336565b8063a93fef3b146108c9578063aa98e0c6146108f2578063ac5a7d5c1461091d57610336565b80638da5cb5b146107b757806395d89b41146107e25780639852595c1461080d5780639da3f8fd1461084a5780639ddf7ad314610875578063a22cb465146108a057610336565b80633a98ef391161024f57806355f804b31161020857806370a08231116101e257806370a082311461070f5780637e5cd5c11461074c57806386d1a69f146107635780638b83209b1461077a57610336565b806355f804b31461067e5780635a64ad95146106a75780636352211e146106d257610336565b80633a98ef391461058257806342842e0e146105ad57806345947076146105d657806345c0f533146106015780634a886ad21461062c5780634fb2e45d1461065557610336565b806318160ddd116102a157806318160ddd146104a157806323b872dd146104cc57806328c23a45146104f55780632904e6d91461050c5780632a55205a146105285780632db115441461056657610336565b8063018a2c371461037f57806301ffc9a7146103a857806306fdde03146103e5578063081812fc14610410578063095ea7b31461044d57806312065fe01461047657610336565b36610336577f6ef95f06320e7a25a04a175ca677b7052bdd97131872c2192525a629f51be770610316610bfb565b61031e610c03565b60405161032c929190614a95565b60405180910390a1005b7f6ef95f06320e7a25a04a175ca677b7052bdd97131872c2192525a629f51be77061035f610bfb565b610367610c03565b604051610375929190614a95565b60405180910390a1005b34801561038b57600080fd5b506103a660048036038101906103a191906145d0565b610c0b565b005b3480156103b457600080fd5b506103cf60048036038101906103ca919061453d565b610cd4565b6040516103dc9190614abe565b60405180910390f35b3480156103f157600080fd5b506103fa610e67565b6040516104079190614b46565b60405180910390f35b34801561041c57600080fd5b50610437600480360381019061043291906145d0565b610ef9565b6040516104449190614a2e565b60405180910390f35b34801561045957600080fd5b50610474600480360381019061046f9190614480565b610f75565b005b34801561048257600080fd5b5061048b611080565b6040516104989190614d68565b60405180910390f35b3480156104ad57600080fd5b506104b6611088565b6040516104c39190614d68565b60405180910390f35b3480156104d857600080fd5b506104f360048036038101906104ee919061437a565b611097565b005b34801561050157600080fd5b5061050a6110a7565b005b610526600480360381019061052191906144bc565b61112f565b005b34801561053457600080fd5b5061054f600480360381019061054a91906145f9565b6114d8565b60405161055d929190614a95565b60405180910390f35b610580600480360381019061057b91906145d0565b611523565b005b34801561058e57600080fd5b5061059761171e565b6040516105a49190614d68565b60405180910390f35b3480156105b957600080fd5b506105d460048036038101906105cf919061437a565b611728565b005b3480156105e257600080fd5b506105eb611748565b6040516105f89190614d68565b60405180910390f35b34801561060d57600080fd5b50610616611752565b6040516106239190614d68565b60405180910390f35b34801561063857600080fd5b50610653600480360381019061064e91906145d0565b61175c565b005b34801561066157600080fd5b5061067c60048036038101906106779190614315565b611825565b005b34801561068a57600080fd5b506106a560048036038101906106a0919061458f565b611955565b005b3480156106b357600080fd5b506106bc6119eb565b6040516106c99190614d68565b60405180910390f35b3480156106de57600080fd5b506106f960048036038101906106f491906145d0565b6119f5565b6040516107069190614a2e565b60405180910390f35b34801561071b57600080fd5b5061073660048036038101906107319190614315565b611a0b565b6040516107439190614d68565b60405180910390f35b34801561075857600080fd5b50610761611aeb565b005b34801561076f57600080fd5b50610778611be1565b005b34801561078657600080fd5b506107a1600480360381019061079c91906145d0565b611c67565b6040516107ae9190614a2e565b60405180910390f35b3480156107c357600080fd5b506107cc611cd5565b6040516107d99190614a2e565b60405180910390f35b3480156107ee57600080fd5b506107f7611cff565b6040516108049190614b46565b60405180910390f35b34801561081957600080fd5b50610834600480360381019061082f9190614315565b611d91565b6040516108419190614d68565b60405180910390f35b34801561085657600080fd5b5061085f611dda565b60405161086c9190614abe565b60405180910390f35b34801561088157600080fd5b5061088a611df1565b6040516108979190614abe565b60405180910390f35b3480156108ac57600080fd5b506108c760048036038101906108c29190614444565b611e08565b005b3480156108d557600080fd5b506108f060048036038101906108eb91906145d0565b611f80565b005b3480156108fe57600080fd5b50610907612049565b6040516109149190614b02565b60405180910390f35b34801561092957600080fd5b50610944600480360381019061093f9190614315565b61204f565b005b34801561095257600080fd5b5061095b612147565b005b34801561096957600080fd5b50610984600480360381019061097f91906143c9565b612222565b005b34801561099257600080fd5b506109ad60048036038101906109a89190614514565b612275565b005b3480156109bb57600080fd5b506109d660048036038101906109d191906145d0565b61233e565b6040516109e39190614b46565b60405180910390f35b3480156109f857600080fd5b50610a01612457565b005b348015610a0f57600080fd5b50610a2a6004803603810190610a259190614315565b61254d565b604051610a379190614d68565b60405180910390f35b348015610a4c57600080fd5b50610a55612596565b005b348015610a6357600080fd5b50610a7e6004803603810190610a799190614315565b61268c565b604051610a8b9190614abe565b60405180910390f35b348015610aa057600080fd5b50610abb6004803603810190610ab69190614480565b6126ac565b005b348015610ac957600080fd5b50610ad261276f565b604051610adf9190614d68565b60405180910390f35b348015610af457600080fd5b50610afd612779565b005b348015610b0b57600080fd5b50610b266004803603810190610b21919061433e565b61286f565b604051610b339190614abe565b60405180910390f35b348015610b4857600080fd5b50610b51612903565b005b348015610b5f57600080fd5b50610b7a6004803603810190610b7591906145d0565b6129c7565b005b348015610b8857600080fd5b50610b91612a90565b604051610b9e9190614d68565b60405180910390f35b348015610bb357600080fd5b50610bce6004803603810190610bc991906145d0565b612a9a565b005b348015610bdc57600080fd5b50610be5612b63565b604051610bf29190614d68565b60405180910390f35b600033905090565b600034905090565b610c13610bfb565b73ffffffffffffffffffffffffffffffffffffffff16610c31611cd5565b73ffffffffffffffffffffffffffffffffffffffff1614610c87576040517f08c379a0000000000000000000000000000000000000000000000000000000008152600401610c7e90614c48565b60405180910390fd5b60006018549050816018819055507fd21a7a8dc9842e420c430f131049af7b5faa7049ca72c5ccd9c6cbab9dad70cb81601854604051610cc8929190614d83565b60405180910390a15050565b60007f2a55205a000000000000000000000000000000000000000000000000000000007bffffffffffffffffffffffffffffffffffffffffffffffffffffffff1916827bffffffffffffffffffffffffffffffffffffffffffffffffffffffff19161480610d80575060007bffffffffffffffffffffffffffffffffffffffffffffffffffffffff1916827bffffffffffffffffffffffffffffffffffffffffffffffffffffffff1916145b80610de857507f040ec1df000000000000000000000000000000000000000000000000000000007bffffffffffffffffffffffffffffffffffffffffffffffffffffffff1916827bffffffffffffffffffffffffffffffffffffffffffffffffffffffff1916145b80610e5057507f1e6f4112000000000000000000000000000000000000000000000000000000007bffffffffffffffffffffffffffffffffffffffffffffffffffffffff1916827bffffffffffffffffffffffffffffffffffffffffffffffffffffffff1916145b80610e605750610e5f82612b83565b5b9050919050565b606060018054610e7690615056565b80601f0160208091040260200160405190810160405280929190818152602001828054610ea290615056565b8015610eef5780601f10610ec457610100808354040283529160200191610eef565b820191906000526020600020905b815481529060010190602001808311610ed257829003601f168201915b5050505050905090565b6000610f0482612c65565b610f3a576040517fcf4700e400000000000000000000000000000000000000000000000000000000815260040160405180910390fd5b6006600083815260200190815260200160002060009054906101000a900473ffffffffffffffffffffffffffffffffffffffff169050919050565b6000610f80826119f5565b90508073ffffffffffffffffffffffffffffffffffffffff168373ffffffffffffffffffffffffffffffffffffffff161415610fe8576040517f943f7b8c00000000000000000000000000000000000000000000000000000000815260040160405180910390fd5b8073ffffffffffffffffffffffffffffffffffffffff16611007610bfb565b73ffffffffffffffffffffffffffffffffffffffff1614158015611039575061103781611032610bfb565b61286f565b155b15611070576040517fcfb3b94200000000000000000000000000000000000000000000000000000000815260040160405180910390fd5b61107b838383612c72565b505050565b600047905090565b6000611092612d24565b905090565b6110a2838383612d3a565b505050565b6110af610bfb565b73ffffffffffffffffffffffffffffffffffffffff166110cd611cd5565b73ffffffffffffffffffffffffffffffffffffffff1614611123576040517f08c379a000000000000000000000000000000000000000000000000000000000815260040161111a90614c48565b60405180910390fd5b61112d600061325f565b565b6002600a541415611175576040517f08c379a000000000000000000000000000000000000000000000000000000000815260040161116c90614d48565b60405180910390fd5b6002600a81905550601460009054906101000a900460ff166111cc576040517f08c379a00000000000000000000000000000000000000000000000000000000081526004016111c390614c68565b60405180910390fd5b601960009054906101000a900460ff1661121b576040517f08c379a000000000000000000000000000000000000000000000000000000000815260040161121290614d28565b60405180910390fd5b806016546112299190614f08565b611231610c03565b14611271576040517f08c379a000000000000000000000000000000000000000000000000000000000815260040161126890614cc8565b60405180910390fd5b6017548161127d612d24565b6112879190614e81565b11156112c8576040517f08c379a00000000000000000000000000000000000000000000000000000000081526004016112bf90614b88565b60405180910390fd5b601b5481111561130d576040517f08c379a000000000000000000000000000000000000000000000000000000000815260040161130490614bc8565b60405180910390fd5b611388838380806020026020016040519081016040528093929190818152602001838360200280828437600081840152601f19601f82011690508083019250505050505050601a5461135d610bfb565b60405160200161136d91906149c4565b60405160208183030381529060405280519060200120613325565b6113c7576040517f08c379a00000000000000000000000000000000000000000000000000000000081526004016113be90614c88565b60405180910390fd5b601c60006113d3610bfb565b73ffffffffffffffffffffffffffffffffffffffff1673ffffffffffffffffffffffffffffffffffffffff16815260200190815260200160002060009054906101000a900460ff161561145b576040517f08c379a000000000000000000000000000000000000000000000000000000000815260040161145290614ce8565b60405180910390fd5b61146c611466610bfb565b8261333c565b6001601c600061147a610bfb565b73ffffffffffffffffffffffffffffffffffffffff1673ffffffffffffffffffffffffffffffffffffffff16815260200190815260200160002060006101000a81548160ff0219169083151502179055506001600a81905550505050565b600080600860009054906101000a900473ffffffffffffffffffffffffffffffffffffffff1691506064600954846115109190614f08565b61151a9190614ed7565b90509250929050565b6002600a541415611569576040517f08c379a000000000000000000000000000000000000000000000000000000000815260040161156090614d48565b60405180910390fd5b6002600a81905550601960009054906101000a900460ff16156115c1576040517f08c379a00000000000000000000000000000000000000000000000000000000081526004016115b890614ca8565b60405180910390fd5b601460009054906101000a900460ff16611610576040517f08c379a000000000000000000000000000000000000000000000000000000000815260040161160790614c68565b60405180910390fd5b8060165461161e9190614f08565b611626610c03565b14611666576040517f08c379a000000000000000000000000000000000000000000000000000000000815260040161165d90614cc8565b60405180910390fd5b60175481611672612d24565b61167c9190614e81565b11156116bd576040517f08c379a00000000000000000000000000000000000000000000000000000000081526004016116b490614b88565b60405180910390fd5b601554811115611702576040517f08c379a00000000000000000000000000000000000000000000000000000000081526004016116f990614ba8565b60405180910390fd5b61171361170d610bfb565b8261333c565b6001600a8190555050565b6000600c54905090565b61174383838360405180602001604052806000815250612222565b505050565b6000601554905090565b6000601754905090565b611764610bfb565b73ffffffffffffffffffffffffffffffffffffffff16611782611cd5565b73ffffffffffffffffffffffffffffffffffffffff16146117d8576040517f08c379a00000000000000000000000000000000000000000000000000000000081526004016117cf90614c48565b60405180910390fd5b60006017549050816017819055507f8d9cfb0dea274a0a02ddad1fc52c90100a28462c6421daa25fb101c740cf585181601754604051611819929190614d83565b60405180910390a15050565b61182d610bfb565b73ffffffffffffffffffffffffffffffffffffffff1661184b611cd5565b73ffffffffffffffffffffffffffffffffffffffff16146118a1576040517f08c379a000000000000000000000000000000000000000000000000000000000815260040161189890614c48565b60405180910390fd5b600073ffffffffffffffffffffffffffffffffffffffff168173ffffffffffffffffffffffffffffffffffffffff161415611911576040517f08c379a000000000000000000000000000000000000000000000000000000000815260040161190890614d08565b60405180910390fd5b80601260006101000a81548173ffffffffffffffffffffffffffffffffffffffff021916908373ffffffffffffffffffffffffffffffffffffffff16021790555050565b61195d610bfb565b73ffffffffffffffffffffffffffffffffffffffff1661197b611cd5565b73ffffffffffffffffffffffffffffffffffffffff16146119d1576040517f08c379a00000000000000000000000000000000000000000000000000000000081526004016119c890614c48565b60405180910390fd5b80601390805190602001906119e79291906140a0565b5050565b6000601654905090565b6000611a008261335a565b600001519050919050565b60008073ffffffffffffffffffffffffffffffffffffffff168273ffffffffffffffffffffffffffffffffffffffff161415611a73576040517f8f4eb60400000000000000000000000000000000000000000000000000000000815260040160405180910390fd5b600560008373ffffffffffffffffffffffffffffffffffffffff1673ffffffffffffffffffffffffffffffffffffffff16815260200190815260200160002060000160009054906101000a90046fffffffffffffffffffffffffffffffff166fffffffffffffffffffffffffffffffff169050919050565b611af3610bfb565b73ffffffffffffffffffffffffffffffffffffffff16611b11611cd5565b73ffffffffffffffffffffffffffffffffffffffff1614611b67576040517f08c379a0000000000000000000000000000000000000000000000000000000008152600401611b5e90614c48565b60405180910390fd5b6000601460009054906101000a900460ff1690506000601460006101000a81548160ff0219169083151502179055507f1ab1d89be1fd19dcd21c73f1d6e927e3f148097e8691bbba925bd85e34e1f0e381601460009054906101000a900460ff16604051611bd6929190614ad9565b60405180910390a150565b611be9610bfb565b73ffffffffffffffffffffffffffffffffffffffff16611c07611cd5565b73ffffffffffffffffffffffffffffffffffffffff1614611c5d576040517f08c379a0000000000000000000000000000000000000000000000000000000008152600401611c5490614c48565b60405180910390fd5b611c656134a7565b565b600060108281548110611ca3577f4e487b7100000000000000000000000000000000000000000000000000000000600052603260045260246000fd5b9060005260206000200160009054906101000a900473ffffffffffffffffffffffffffffffffffffffff169050919050565b6000601160009054906101000a900473ffffffffffffffffffffffffffffffffffffffff16905090565b606060028054611d0e90615056565b80601f0160208091040260200160405190810160405280929190818152602001828054611d3a90615056565b8015611d875780601f10611d5c57610100808354040283529160200191611d87565b820191906000526020600020905b815481529060010190602001808311611d6a57829003601f168201915b5050505050905090565b6000600f60008373ffffffffffffffffffffffffffffffffffffffff1673ffffffffffffffffffffffffffffffffffffffff168152602001908152602001600020549050919050565b6000601460009054906101000a900460ff16905090565b6000601960009054906101000a900460ff16905090565b611e10610bfb565b73ffffffffffffffffffffffffffffffffffffffff168273ffffffffffffffffffffffffffffffffffffffff161415611e75576040517fb06307db00000000000000000000000000000000000000000000000000000000815260040160405180910390fd5b8060076000611e82610bfb565b73ffffffffffffffffffffffffffffffffffffffff1673ffffffffffffffffffffffffffffffffffffffff16815260200190815260200160002060008473ffffffffffffffffffffffffffffffffffffffff1673ffffffffffffffffffffffffffffffffffffffff16815260200190815260200160002060006101000a81548160ff0219169083151502179055508173ffffffffffffffffffffffffffffffffffffffff16611f2f610bfb565b73ffffffffffffffffffffffffffffffffffffffff167f17307eab39ab6107e8899845ad3d59bd9653f200f220920489ca2b5937696c3183604051611f749190614abe565b60405180910390a35050565b611f88610bfb565b73ffffffffffffffffffffffffffffffffffffffff16611fa6611cd5565b73ffffffffffffffffffffffffffffffffffffffff1614611ffc576040517f08c379a0000000000000000000000000000000000000000000000000000000008152600401611ff390614c48565b60405180910390fd5b60006015549050816015819055507f439b8b0b530562f8413db2651ab1e8dcae2719da0a2d2d3d3c068ca25c29969f81601b5460405161203d929190614d83565b60405180910390a15050565b601a5481565b612057610bfb565b73ffffffffffffffffffffffffffffffffffffffff16612075611cd5565b73ffffffffffffffffffffffffffffffffffffffff16146120cb576040517f08c379a00000000000000000000000000000000000000000000000000000000081526004016120c290614c48565b60405180910390fd5b600073ffffffffffffffffffffffffffffffffffffffff168173ffffffffffffffffffffffffffffffffffffffff16141561213b576040517f08c379a000000000000000000000000000000000000000000000000000000000815260040161213290614d08565b60405180910390fd5b6121448161325f565b50565b61214f610bfb565b73ffffffffffffffffffffffffffffffffffffffff16601260009054906101000a900473ffffffffffffffffffffffffffffffffffffffff1673ffffffffffffffffffffffffffffffffffffffff16146121de576040517f08c379a00000000000000000000000000000000000000000000000000000000081526004016121d590614c28565b60405180910390fd5b6000601260006101000a81548173ffffffffffffffffffffffffffffffffffffffff021916908373ffffffffffffffffffffffffffffffffffffffff160217905550565b61222d848484612d3a565b612239848484846136c1565b61226f576040517fd1a57ed600000000000000000000000000000000000000000000000000000000815260040160405180910390fd5b50505050565b61227d610bfb565b73ffffffffffffffffffffffffffffffffffffffff1661229b611cd5565b73ffffffffffffffffffffffffffffffffffffffff16146122f1576040517f08c379a00000000000000000000000000000000000000000000000000000000081526004016122e890614c48565b60405180910390fd5b6000601a54905081601a819055507f1e5d0194158313989f8568b586deb425fcd9a6b46a4e6e2c43f9becc480c6bc081601a54604051612332929190614b1d565b60405180910390a15050565b606061234982612c65565b61237f576040517fa14c4b5000000000000000000000000000000000000000000000000000000000815260040160405180910390fd5b600061238961384f565b9050600081511161242457600380546123a190615056565b80601f01602080910402602001604051908101604052809291908181526020018280546123cd90615056565b801561241a5780601f106123ef5761010080835404028352916020019161241a565b820191906000526020600020905b8154815290600101906020018083116123fd57829003601f168201915b505050505061244f565b8061242e846138e1565b60405160200161243f9291906149df565b6040516020818303038152906040525b915050919050565b61245f610bfb565b73ffffffffffffffffffffffffffffffffffffffff1661247d611cd5565b73ffffffffffffffffffffffffffffffffffffffff16146124d3576040517f08c379a00000000000000000000000000000000000000000000000000000000081526004016124ca90614c48565b60405180910390fd5b6000601960009054906101000a900460ff1690506001601960006101000a81548160ff0219169083151502179055507f5045eea7e64af4d857464a8347a5bbce05a99fe1e1f08a3f1ebbc61aa782b21b81601960009054906101000a900460ff16604051612542929190614ad9565b60405180910390a150565b6000600e60008373ffffffffffffffffffffffffffffffffffffffff1673ffffffffffffffffffffffffffffffffffffffff168152602001908152602001600020549050919050565b61259e610bfb565b73ffffffffffffffffffffffffffffffffffffffff166125bc611cd5565b73ffffffffffffffffffffffffffffffffffffffff1614612612576040517f08c379a000000000000000000000000000000000000000000000000000000000815260040161260990614c48565b60405180910390fd5b6000601960009054906101000a900460ff1690506000601960006101000a81548160ff0219169083151502179055507f5045eea7e64af4d857464a8347a5bbce05a99fe1e1f08a3f1ebbc61aa782b21b81601960009054906101000a900460ff16604051612681929190614ad9565b60405180910390a150565b601c6020528060005260406000206000915054906101000a900460ff1681565b6126b4610bfb565b73ffffffffffffffffffffffffffffffffffffffff166126d2611cd5565b73ffffffffffffffffffffffffffffffffffffffff1614612728576040517f08c379a000000000000000000000000000000000000000000000000000000000815260040161271f90614c48565b60405180910390fd5b6127328282613a8e565b7f37b261884b0718cab93d62e6fe3bef710b5a1da58190a859f842d6e8b2b0b70b8282604051612763929190614a95565b60405180910390a15050565b6000600d54905090565b612781610bfb565b73ffffffffffffffffffffffffffffffffffffffff1661279f611cd5565b73ffffffffffffffffffffffffffffffffffffffff16146127f5576040517f08c379a00000000000000000000000000000000000000000000000000000000081526004016127ec90614c48565b60405180910390fd5b6000601460009054906101000a900460ff1690506001601460006101000a81548160ff0219169083151502179055507f1ab1d89be1fd19dcd21c73f1d6e927e3f148097e8691bbba925bd85e34e1f0e381601460009054906101000a900460ff16604051612864929190614ad9565b60405180910390a150565b6000600760008473ffffffffffffffffffffffffffffffffffffffff1673ffffffffffffffffffffffffffffffffffffffff16815260200190815260200160002060008373ffffffffffffffffffffffffffffffffffffffff1673ffffffffffffffffffffffffffffffffffffffff16815260200190815260200160002060009054906101000a900460ff16905092915050565b61290b610bfb565b73ffffffffffffffffffffffffffffffffffffffff16601260009054906101000a900473ffffffffffffffffffffffffffffffffffffffff1673ffffffffffffffffffffffffffffffffffffffff161461299a576040517f08c379a000000000000000000000000000000000000000000000000000000000815260040161299190614c28565b60405180910390fd5b6129c5601260009054906101000a900473ffffffffffffffffffffffffffffffffffffffff1661325f565b565b6129cf610bfb565b73ffffffffffffffffffffffffffffffffffffffff166129ed611cd5565b73ffffffffffffffffffffffffffffffffffffffff1614612a43576040517f08c379a0000000000000000000000000000000000000000000000000000000008152600401612a3a90614c48565b60405180910390fd5b60006016549050816016819055507f79f142b9bcccc417646eead59c29526ac8437fccd19a5368532b2648349adce181601654604051612a84929190614d83565b60405180910390a15050565b6000601854905090565b612aa2610bfb565b73ffffffffffffffffffffffffffffffffffffffff16612ac0611cd5565b73ffffffffffffffffffffffffffffffffffffffff1614612b16576040517f08c379a0000000000000000000000000000000000000000000000000000000008152600401612b0d90614c48565b60405180910390fd5b6000601b54905081601b819055507f3851f4a3ce1c8adce98754722ff6f348f4714fd4850d154c71045447d304246881601b54604051612b57929190614d83565b60405180910390a15050565b6000601b54905090565b6001816000016000828254019250508190555050565b60007f80ac58cd000000000000000000000000000000000000000000000000000000007bffffffffffffffffffffffffffffffffffffffffffffffffffffffff1916827bffffffffffffffffffffffffffffffffffffffffffffffffffffffff19161480612c4e57507f5b5e139f000000000000000000000000000000000000000000000000000000007bffffffffffffffffffffffffffffffffffffffffffffffffffffffff1916827bffffffffffffffffffffffffffffffffffffffffffffffffffffffff1916145b80612c5e5750612c5d82613ada565b5b9050919050565b6000805482109050919050565b826006600084815260200190815260200160002060006101000a81548173ffffffffffffffffffffffffffffffffffffffff021916908373ffffffffffffffffffffffffffffffffffffffff160217905550818373ffffffffffffffffffffffffffffffffffffffff168273ffffffffffffffffffffffffffffffffffffffff167f8c5be1e5ebec7d5bd14f71427d1e84f3dd0314c0f7b2291e5b200ac8c7c3b92560405160405180910390a4505050565b60006001600054612d359190614f62565b905090565b6000612d458261335a565b90506000816000015173ffffffffffffffffffffffffffffffffffffffff16612d6c610bfb565b73ffffffffffffffffffffffffffffffffffffffff161480612d9f5750612d9e8260000151612d99610bfb565b61286f565b5b80612de45750612dad610bfb565b73ffffffffffffffffffffffffffffffffffffffff16612dcc84610ef9565b73ffffffffffffffffffffffffffffffffffffffff16145b905080612e1d576040517f59c896be00000000000000000000000000000000000000000000000000000000815260040160405180910390fd5b8473ffffffffffffffffffffffffffffffffffffffff16826000015173ffffffffffffffffffffffffffffffffffffffff1614612e86576040517fa114810000000000000000000000000000000000000000000000000000000000815260040160405180910390fd5b600073ffffffffffffffffffffffffffffffffffffffff168473ffffffffffffffffffffffffffffffffffffffff161415612eed576040517fea553b3400000000000000000000000000000000000000000000000000000000815260040160405180910390fd5b612efa8585856001613b44565b612f0a6000848460000151612c72565b6001600560008773ffffffffffffffffffffffffffffffffffffffff1673ffffffffffffffffffffffffffffffffffffffff16815260200190815260200160002060000160008282829054906101000a90046fffffffffffffffffffffffffffffffff160392506101000a8154816fffffffffffffffffffffffffffffffff02191690836fffffffffffffffffffffffffffffffff1602179055506001600560008673ffffffffffffffffffffffffffffffffffffffff1673ffffffffffffffffffffffffffffffffffffffff16815260200190815260200160002060000160008282829054906101000a90046fffffffffffffffffffffffffffffffff160192506101000a8154816fffffffffffffffffffffffffffffffff02191690836fffffffffffffffffffffffffffffffff160217905550836004600085815260200190815260200160002060000160006101000a81548173ffffffffffffffffffffffffffffffffffffffff021916908373ffffffffffffffffffffffffffffffffffffffff160217905550426004600085815260200190815260200160002060000160146101000a81548167ffffffffffffffff021916908367ffffffffffffffff1602179055506000600184019050600073ffffffffffffffffffffffffffffffffffffffff166004600083815260200190815260200160002060000160009054906101000a900473ffffffffffffffffffffffffffffffffffffffff1673ffffffffffffffffffffffffffffffffffffffff1614156131ef5761314e81612c65565b156131ee5782600001516004600083815260200190815260200160002060000160006101000a81548173ffffffffffffffffffffffffffffffffffffffff021916908373ffffffffffffffffffffffffffffffffffffffff16021790555082602001516004600083815260200190815260200160002060000160146101000a81548167ffffffffffffffff021916908367ffffffffffffffff1602179055505b5b50828473ffffffffffffffffffffffffffffffffffffffff168673ffffffffffffffffffffffffffffffffffffffff167fddf252ad1be2c89b69c2b068fc378daa952ba7f163c4a11628f55a4df523b3ef60405160405180910390a46132588585856001613b4a565b5050505050565b6000601160009054906101000a900473ffffffffffffffffffffffffffffffffffffffff16905081601160006101000a81548173ffffffffffffffffffffffffffffffffffffffff021916908373ffffffffffffffffffffffffffffffffffffffff1602179055508173ffffffffffffffffffffffffffffffffffffffff168173ffffffffffffffffffffffffffffffffffffffff167f8934ce4adea8d9ce0d714d2c22b86790e41b7731c84b926fbbdc1d40ff6533c960405160405180910390a35050565b6000826133328584613b50565b1490509392505050565b613356828260405180602001604052806000815250613beb565b5050565b613362614126565b61336b82612c65565b6133a1576040517fdf2d9b4200000000000000000000000000000000000000000000000000000000815260040160405180910390fd5b60008290505b6000600460008381526020019081526020016000206040518060400160405290816000820160009054906101000a900473ffffffffffffffffffffffffffffffffffffffff1673ffffffffffffffffffffffffffffffffffffffff1673ffffffffffffffffffffffffffffffffffffffff1681526020016000820160149054906101000a900467ffffffffffffffff1667ffffffffffffffff1667ffffffffffffffff16815250509050600073ffffffffffffffffffffffffffffffffffffffff16816000015173ffffffffffffffffffffffffffffffffffffffff16146134935780925050506134a2565b508080600190039150506133a7565b919050565b600047116134ea576040517f08c379a00000000000000000000000000000000000000000000000000000000081526004016134e190614b68565b60405180910390fd5b60005b6134f7600b613bfd565b8110156136be57600061350982611c67565b90506000600d544761351b9190614e81565b90506000600f60008473ffffffffffffffffffffffffffffffffffffffff1673ffffffffffffffffffffffffffffffffffffffff16815260200190815260200160002054600c54600e60008673ffffffffffffffffffffffffffffffffffffffff1673ffffffffffffffffffffffffffffffffffffffff16815260200190815260200160002054846135ad9190614f08565b6135b79190614ed7565b6135c19190614f62565b905080600f60008573ffffffffffffffffffffffffffffffffffffffff1673ffffffffffffffffffffffffffffffffffffffff1681526020019081526020016000205461360e9190614e81565b600f60008573ffffffffffffffffffffffffffffffffffffffff1673ffffffffffffffffffffffffffffffffffffffff1681526020019081526020016000208190555080600d5461365f9190614e81565b600d8190555061366f8382613c0b565b7fdf20fd1e76bc69d672e4814fafb2c449bba3a5369d8359adf9e05e6fde87b05683826040516136a0929190614a95565b60405180910390a150505080806136b6906150b9565b9150506134ed565b50565b60006136e28473ffffffffffffffffffffffffffffffffffffffff16613cff565b15613842578373ffffffffffffffffffffffffffffffffffffffff1663150b7a0261370b610bfb565b8786866040518563ffffffff1660e01b815260040161372d9493929190614a49565b602060405180830381600087803b15801561374757600080fd5b505af192505050801561377857506040513d601f19601f820116820180604052508101906137759190614566565b60015b6137f2573d80600081146137a8576040519150601f19603f3d011682016040523d82523d6000602084013e6137ad565b606091505b506000815114156137ea576040517fd1a57ed600000000000000000000000000000000000000000000000000000000815260040160405180910390fd5b805181602001fd5b63150b7a0260e01b7bffffffffffffffffffffffffffffffffffffffffffffffffffffffff1916817bffffffffffffffffffffffffffffffffffffffffffffffffffffffff191614915050613847565b600190505b949350505050565b60606013805461385e90615056565b80601f016020809104026020016040519081016040528092919081815260200182805461388a90615056565b80156138d75780601f106138ac576101008083540402835291602001916138d7565b820191906000526020600020905b8154815290600101906020018083116138ba57829003601f168201915b5050505050905090565b60606000821415613929576040518060400160405280600181526020017f30000000000000000000000000000000000000000000000000000000000000008152509050613a89565b600082905060005b6000821461395b578080613944906150b9565b915050600a826139549190614ed7565b9150613931565b60008167ffffffffffffffff81111561399d577f4e487b7100000000000000000000000000000000000000000000000000000000600052604160045260246000fd5b6040519080825280601f01601f1916602001820160405280156139cf5781602001600182028036833780820191505090505b5090505b60008514613a82576001826139e89190614f62565b9150600a856139f79190615126565b6030613a039190614e81565b60f81b818381518110613a3f577f4e487b7100000000000000000000000000000000000000000000000000000000600052603260045260246000fd5b60200101907effffffffffffffffffffffffffffffffffffffffffffffffffffffffffffff1916908160001a905350600a85613a7b9190614ed7565b94506139d3565b8093505050505b919050565b81600860006101000a81548173ffffffffffffffffffffffffffffffffffffffff021916908373ffffffffffffffffffffffffffffffffffffffff160217905550806009819055505050565b60007f01ffc9a7000000000000000000000000000000000000000000000000000000007bffffffffffffffffffffffffffffffffffffffffffffffffffffffff1916827bffffffffffffffffffffffffffffffffffffffffffffffffffffffff1916149050919050565b50505050565b50505050565b60008082905060005b8451811015613be0576000858281518110613b9d577f4e487b7100000000000000000000000000000000000000000000000000000000600052603260045260246000fd5b60200260200101519050808311613bbf57613bb88382613d22565b9250613bcc565b613bc98184613d22565b92505b508080613bd8906150b9565b915050613b59565b508091505092915050565b613bf88383836001613d39565b505050565b600081600001549050919050565b80471015613c4e576040517f08c379a0000000000000000000000000000000000000000000000000000000008152600401613c4590614c08565b60405180910390fd5b60008273ffffffffffffffffffffffffffffffffffffffff1682604051613c7490614a19565b60006040518083038185875af1925050503d8060008114613cb1576040519150601f19603f3d011682016040523d82523d6000602084013e613cb6565b606091505b5050905080613cfa576040517f08c379a0000000000000000000000000000000000000000000000000000000008152600401613cf190614be8565b60405180910390fd5b505050565b6000808273ffffffffffffffffffffffffffffffffffffffff163b119050919050565b600082600052816020526040600020905092915050565b600080549050600073ffffffffffffffffffffffffffffffffffffffff168573ffffffffffffffffffffffffffffffffffffffff161415613da6576040517f2e07630000000000000000000000000000000000000000000000000000000000815260040160405180910390fd5b6000841415613de1576040517fb562e8dd00000000000000000000000000000000000000000000000000000000815260040160405180910390fd5b613dee6000868387613b44565b83600560008773ffffffffffffffffffffffffffffffffffffffff1673ffffffffffffffffffffffffffffffffffffffff16815260200190815260200160002060000160008282829054906101000a90046fffffffffffffffffffffffffffffffff160192506101000a8154816fffffffffffffffffffffffffffffffff02191690836fffffffffffffffffffffffffffffffff16021790555083600560008773ffffffffffffffffffffffffffffffffffffffff1673ffffffffffffffffffffffffffffffffffffffff16815260200190815260200160002060000160108282829054906101000a90046fffffffffffffffffffffffffffffffff160192506101000a8154816fffffffffffffffffffffffffffffffff02191690836fffffffffffffffffffffffffffffffff160217905550846004600083815260200190815260200160002060000160006101000a81548173ffffffffffffffffffffffffffffffffffffffff021916908373ffffffffffffffffffffffffffffffffffffffff160217905550426004600083815260200190815260200160002060000160146101000a81548167ffffffffffffffff021916908367ffffffffffffffff160217905550600081905060005b8581101561408357818773ffffffffffffffffffffffffffffffffffffffff16600073ffffffffffffffffffffffffffffffffffffffff167fddf252ad1be2c89b69c2b068fc378daa952ba7f163c4a11628f55a4df523b3ef60405160405180910390a4838015614037575061403560008884886136c1565b155b1561406e576040517fd1a57ed600000000000000000000000000000000000000000000000000000000815260040160405180910390fd5b81806001019250508080600101915050613fbc565b5080600081905550506140996000868387613b4a565b5050505050565b8280546140ac90615056565b90600052602060002090601f0160209004810192826140ce5760008555614115565b82601f106140e757805160ff1916838001178555614115565b82800160010185558215614115579182015b828111156141145782518255916020019190600101906140f9565b5b5090506141229190614160565b5090565b6040518060400160405280600073ffffffffffffffffffffffffffffffffffffffff168152602001600067ffffffffffffffff1681525090565b5b80821115614179576000816000905550600101614161565b5090565b600061419061418b84614dd1565b614dac565b9050828152602081018484840111156141a857600080fd5b6141b3848285615014565b509392505050565b60006141ce6141c984614e02565b614dac565b9050828152602081018484840111156141e657600080fd5b6141f1848285615014565b509392505050565b60008135905061420881615620565b92915050565b60008083601f84011261422057600080fd5b8235905067ffffffffffffffff81111561423957600080fd5b60208301915083602082028301111561425157600080fd5b9250929050565b60008135905061426781615637565b92915050565b60008135905061427c8161564e565b92915050565b60008135905061429181615665565b92915050565b6000815190506142a681615665565b92915050565b600082601f8301126142bd57600080fd5b81356142cd84826020860161417d565b91505092915050565b600082601f8301126142e757600080fd5b81356142f78482602086016141bb565b91505092915050565b60008135905061430f8161567c565b92915050565b60006020828403121561432757600080fd5b6000614335848285016141f9565b91505092915050565b6000806040838503121561435157600080fd5b600061435f858286016141f9565b9250506020614370858286016141f9565b9150509250929050565b60008060006060848603121561438f57600080fd5b600061439d868287016141f9565b93505060206143ae868287016141f9565b92505060406143bf86828701614300565b9150509250925092565b600080600080608085870312156143df57600080fd5b60006143ed878288016141f9565b94505060206143fe878288016141f9565b935050604061440f87828801614300565b925050606085013567ffffffffffffffff81111561442c57600080fd5b614438878288016142ac565b91505092959194509250565b6000806040838503121561445757600080fd5b6000614465858286016141f9565b925050602061447685828601614258565b9150509250929050565b6000806040838503121561449357600080fd5b60006144a1858286016141f9565b92505060206144b285828601614300565b9150509250929050565b6000806000604084860312156144d157600080fd5b600084013567ffffffffffffffff8111156144eb57600080fd5b6144f78682870161420e565b9350935050602061450a86828701614300565b9150509250925092565b60006020828403121561452657600080fd5b60006145348482850161426d565b91505092915050565b60006020828403121561454f57600080fd5b600061455d84828501614282565b91505092915050565b60006020828403121561457857600080fd5b600061458684828501614297565b91505092915050565b6000602082840312156145a157600080fd5b600082013567ffffffffffffffff8111156145bb57600080fd5b6145c7848285016142d6565b91505092915050565b6000602082840312156145e257600080fd5b60006145f084828501614300565b91505092915050565b6000806040838503121561460c57600080fd5b600061461a85828601614300565b925050602061462b85828601614300565b9150509250929050565b61463e81614f96565b82525050565b61465561465082614f96565b615102565b82525050565b61466481614fa8565b82525050565b61467381614fb4565b82525050565b600061468482614e33565b61468e8185614e49565b935061469e818560208601615023565b6146a781615213565b840191505092915050565b60006146bd82614e3e565b6146c78185614e65565b93506146d7818560208601615023565b6146e081615213565b840191505092915050565b60006146f682614e3e565b6147008185614e76565b9350614710818560208601615023565b80840191505092915050565b6000614729602d83614e65565b915061473482615231565b604082019050919050565b600061474c601683614e65565b915061475782615280565b602082019050919050565b600061476f602083614e65565b915061477a826152a9565b602082019050919050565b6000614792601f83614e65565b915061479d826152d2565b602082019050919050565b60006147b5603a83614e65565b91506147c0826152fb565b604082019050919050565b60006147d8601d83614e65565b91506147e38261534a565b602082019050919050565b60006147fb602783614e65565b915061480682615373565b604082019050919050565b600061481e600583614e76565b9150614829826153c2565b600582019050919050565b6000614841601e83614e65565b915061484c826153eb565b602082019050919050565b6000614864601383614e65565b915061486f82615414565b602082019050919050565b6000614887601783614e65565b91506148928261543d565b602082019050919050565b60006148aa603283614e65565b91506148b582615466565b604082019050919050565b60006148cd601c83614e65565b91506148d8826154b5565b602082019050919050565b60006148f0602483614e65565b91506148fb826154de565b604082019050919050565b6000614913600083614e5a565b915061491e8261552d565b600082019050919050565b6000614936602483614e65565b915061494182615530565b604082019050919050565b6000614959602883614e65565b91506149648261557f565b604082019050919050565b600061497c601f83614e65565b9150614987826155ce565b602082019050919050565b600061499f600183614e76565b91506149aa826155f7565b600182019050919050565b6149be8161500a565b82525050565b60006149d08284614644565b60148201915081905092915050565b60006149eb82856146eb565b91506149f682614992565b9150614a0282846146eb565b9150614a0d82614811565b91508190509392505050565b6000614a2482614906565b9150819050919050565b6000602082019050614a436000830184614635565b92915050565b6000608082019050614a5e6000830187614635565b614a6b6020830186614635565b614a7860408301856149b5565b8181036060830152614a8a8184614679565b905095945050505050565b6000604082019050614aaa6000830185614635565b614ab760208301846149b5565b9392505050565b6000602082019050614ad3600083018461465b565b92915050565b6000604082019050614aee600083018561465b565b614afb602083018461465b565b9392505050565b6000602082019050614b17600083018461466a565b92915050565b6000604082019050614b32600083018561466a565b614b3f602083018461466a565b9392505050565b60006020820190508181036000830152614b6081846146b2565b905092915050565b60006020820190508181036000830152614b818161471c565b9050919050565b60006020820190508181036000830152614ba18161473f565b9050919050565b60006020820190508181036000830152614bc181614762565b9050919050565b60006020820190508181036000830152614be181614785565b9050919050565b60006020820190508181036000830152614c01816147a8565b9050919050565b60006020820190508181036000830152614c21816147cb565b9050919050565b60006020820190508181036000830152614c41816147ee565b9050919050565b60006020820190508181036000830152614c6181614834565b9050919050565b60006020820190508181036000830152614c8181614857565b9050919050565b60006020820190508181036000830152614ca18161487a565b9050919050565b60006020820190508181036000830152614cc18161489d565b9050919050565b60006020820190508181036000830152614ce1816148c0565b9050919050565b60006020820190508181036000830152614d01816148e3565b9050919050565b60006020820190508181036000830152614d2181614929565b9050919050565b60006020820190508181036000830152614d418161494c565b9050919050565b60006020820190508181036000830152614d618161496f565b9050919050565b6000602082019050614d7d60008301846149b5565b92915050565b6000604082019050614d9860008301856149b5565b614da560208301846149b5565b9392505050565b6000614db6614dc7565b9050614dc28282615088565b919050565b6000604051905090565b600067ffffffffffffffff821115614dec57614deb6151e4565b5b614df582615213565b9050602081019050919050565b600067ffffffffffffffff821115614e1d57614e1c6151e4565b5b614e2682615213565b9050602081019050919050565b600081519050919050565b600081519050919050565b600082825260208201905092915050565b600081905092915050565b600082825260208201905092915050565b600081905092915050565b6000614e8c8261500a565b9150614e978361500a565b9250827fffffffffffffffffffffffffffffffffffffffffffffffffffffffffffffffff03821115614ecc57614ecb615157565b5b828201905092915050565b6000614ee28261500a565b9150614eed8361500a565b925082614efd57614efc615186565b5b828204905092915050565b6000614f138261500a565b9150614f1e8361500a565b9250817fffffffffffffffffffffffffffffffffffffffffffffffffffffffffffffffff0483118215151615614f5757614f56615157565b5b828202905092915050565b6000614f6d8261500a565b9150614f788361500a565b925082821015614f8b57614f8a615157565b5b828203905092915050565b6000614fa182614fea565b9050919050565b60008115159050919050565b6000819050919050565b60007fffffffff0000000000000000000000000000000000000000000000000000000082169050919050565b600073ffffffffffffffffffffffffffffffffffffffff82169050919050565b6000819050919050565b82818337600083830152505050565b60005b83811015615041578082015181840152602081019050615026565b83811115615050576000848401525b50505050565b6000600282049050600182168061506e57607f821691505b60208210811415615082576150816151b5565b5b50919050565b61509182615213565b810181811067ffffffffffffffff821117156150b0576150af6151e4565b5b80604052505050565b60006150c48261500a565b91507fffffffffffffffffffffffffffffffffffffffffffffffffffffffffffffffff8214156150f7576150f6615157565b5b600182019050919050565b600061510d82615114565b9050919050565b600061511f82615224565b9050919050565b60006151318261500a565b915061513c8361500a565b92508261514c5761514b615186565b5b828206905092915050565b7f4e487b7100000000000000000000000000000000000000000000000000000000600052601160045260246000fd5b7f4e487b7100000000000000000000000000000000000000000000000000000000600052601260045260246000fd5b7f4e487b7100000000000000000000000000000000000000000000000000000000600052602260045260246000fd5b7f4e487b7100000000000000000000000000000000000000000000000000000000600052604160045260246000fd5b6000601f19601f8301169050919050565b60008160601b9050919050565b7f436f6e7472616374206d757374206861766520612062616c616e636520746f2060008201527f72656c656173652066756e647300000000000000000000000000000000000000602082015250565b7f43616e206e6f74206d696e742074686174206d616e7900000000000000000000600082015250565b7f45786365656473207075626c6963207472616e73616374696f6e206c696d6974600082015250565b7f45786365656473206d6178696d756d2077686974656c697374206d696e747300600082015250565b7f416464726573733a20756e61626c6520746f2073656e642076616c75652c207260008201527f6563697069656e74206d61792068617665207265766572746564000000000000602082015250565b7f416464726573733a20696e73756666696369656e742062616c616e6365000000600082015250565b7f4e6577204f776e65723a206e6577204f776e657220697320746865206f6e6c7960008201527f2063616c6c657200000000000000000000000000000000000000000000000000602082015250565b7f2e6a736f6e000000000000000000000000000000000000000000000000000000600082015250565b7f4f776e65723a2063616c6c6572206973206e6f7420746865204f776e65720000600082015250565b7f4d696e74696e67206e6f7420656e61626c656400000000000000000000000000600082015250565b7f41646472657373206e6f742077686974656c6973746564000000000000000000600082015250565b7f7075626c69634d696e7428292064697361626c6564206265636175736520776860008201527f6974656c69737420697320656e61626c65640000000000000000000000000000602082015250565b7f57726f6e6720616d6f756e74206f66204e617469766520546f6b656e00000000600082015250565b7f596f75206861766520616c726561647920636c61696d656420796f757220746f60008201527f6b656e7300000000000000000000000000000000000000000000000000000000602082015250565b50565b7f4f776e65723a206e6577204f776e657220697320746865207a65726f2061646460008201527f7265737300000000000000000000000000000000000000000000000000000000602082015250565b7f57686974656c697374206e6f742072657175697265642c20757365207075626c60008201527f69634d696e742829000000000000000000000000000000000000000000000000602082015250565b7f5265656e7472616e637947756172643a207265656e7472616e742063616c6c00600082015250565b7f2f00000000000000000000000000000000000000000000000000000000000000600082015250565b61562981614f96565b811461563457600080fd5b50565b61564081614fa8565b811461564b57600080fd5b50565b61565781614fb4565b811461566257600080fd5b50565b61566e81614fbe565b811461567957600080fd5b50565b6156858161500a565b811461569057600080fd5b5056fea26469706673582212206df086d4d8efb0e7be6194a972513702d8279c7d1b6fb21740075a51640a2c4864736f6c63430008040033",
  "linkReferences": {},
  "deployedLinkReferences": {}
}