{"abi":[{"inputs":[],"name":"AddressAlreadyAssigned","type":"error"},{"inputs":[],"name":"ApprovalCallerNotOwnerNorApproved","type":"error"},{"inputs":[],"name":"ApprovalQueryForNonexistentToken","type":"error"},{"inputs":[],"name":"ApprovalToCurrentOwner","type":"error"},{"inputs":[],"name":"ApproveToCaller","type":"error"},{"inputs":[],"name":"BalanceQueryForZeroAddress","type":"error"},{"inputs":[],"name":"ExceedsMaxTransactionMints","type":"error"},{"inputs":[],"name":"ExceedsMaxWhitelistMints","type":"error"},{"inputs":[],"name":"InvalidMintSize","type":"error"},{"inputs":[],"name":"InvalidShares","type":"error"},{"inputs":[],"name":"MintToZeroAddress","type":"error"},{"inputs":[],"name":"MintZeroQuantity","type":"error"},{"inputs":[],"name":"MintingActive","type":"error"},{"inputs":[],"name":"MintingNotActive","type":"error"},{"inputs":[],"name":"NonExistentToken","type":"error"},{"inputs":[],"name":"NotEnoughWhitelistSlots","type":"error"},{"inputs":[],"name":"NotWhitelisted","type":"error"},{"inputs":[],"name":"OwnerQueryForNonexistentToken","type":"error"},{"inputs":[],"name":"SharesToZeroAddress","type":"error"},{"inputs":[],"name":"TransferCallerNotOwnerNorApproved","type":"error"},{"inputs":[],"name":"TransferFromIncorrectOwner","type":"error"},{"inputs":[],"name":"TransferToNonERC721ReceiverImplementer","type":"error"},{"inputs":[],"name":"TransferToZeroAddress","type":"error"},{"inputs":[],"name":"URIQueryForNonexistentToken","type":"error"},{"inputs":[],"name":"WhitelistNotRequired","type":"error"},{"inputs":[],"name":"WhitelistRequired","type":"error"},{"inputs":[],"name":"WouldExceedMintSize","type":"error"},{"inputs":[],"name":"WrongPayment","type":"error"},{"inputs":[],"name":"ZeroBalance","type":"error"},{"anonymous":false,"inputs":[{"indexed":true,"internalType":"address","name":"owner","type":"address"},{"indexed":true,"internalType":"address","name":"approved","type":"address"},{"indexed":true,"internalType":"uint256","name":"tokenId","type":"uint256"}],"name":"Approval","type":"event"},{"anonymous":false,"inputs":[{"indexed":true,"internalType":"address","name":"owner","type":"address"},{"indexed":true,"internalType":"address","name":"operator","type":"address"},{"indexed":false,"internalType":"bool","name":"approved","type":"bool"}],"name":"ApprovalForAll","type":"event"},{"anonymous":false,"inputs":[{"indexed":true,"internalType":"address","name":"previousOwner","type":"address"},{"indexed":true,"internalType":"address","name":"newOwner","type":"address"}],"name":"OwnershipTransferred","type":"event"},{"anonymous":false,"inputs":[{"indexed":false,"internalType":"address","name":"account","type":"address"},{"indexed":false,"internalType":"uint256","name":"shares","type":"uint256"}],"name":"PayeeAdded","type":"event"},{"anonymous":false,"inputs":[{"indexed":false,"internalType":"bool","name":"_status","type":"bool"}],"name":"PayeesLocked","type":"event"},{"anonymous":false,"inputs":[{"indexed":false,"internalType":"address","name":"from","type":"address"},{"indexed":false,"internalType":"uint256","name":"amount","type":"uint256"}],"name":"PaymentReceived","type":"event"},{"anonymous":false,"inputs":[{"indexed":false,"internalType":"address","name":"to","type":"address"},{"indexed":false,"internalType":"uint256","name":"amount","type":"uint256"}],"name":"PaymentReleased","type":"event"},{"anonymous":false,"inputs":[{"indexed":false,"internalType":"address","name":"to","type":"address"},{"indexed":false,"internalType":"uint256","name":"amount","type":"uint256"}],"name":"RefundReleased","type":"event"},{"anonymous":false,"inputs":[{"indexed":true,"internalType":"address","name":"from","type":"address"},{"indexed":true,"internalType":"address","name":"to","type":"address"},{"indexed":true,"internalType":"uint256","name":"tokenId","type":"uint256"}],"name":"Transfer","type":"event"},{"anonymous":false,"inputs":[{"indexed":false,"internalType":"uint256","name":"_old","type":"uint256"},{"indexed":false,"internalType":"uint256","name":"_new","type":"uint256"}],"name":"UpdatedMaxPublicMints","type":"event"},{"anonymous":false,"inputs":[{"indexed":false,"internalType":"uint256","name":"_old","type":"uint256"},{"indexed":false,"internalType":"uint256","name":"_new","type":"uint256"}],"name":"UpdatedMaxWhitelistMints","type":"event"},{"anonymous":false,"inputs":[{"indexed":false,"internalType":"uint256","name":"_old","type":"uint256"},{"indexed":false,"internalType":"uint256","name":"_new","type":"uint256"}],"name":"UpdatedMintPrice","type":"event"},{"anonymous":false,"inputs":[{"indexed":false,"internalType":"uint256","name":"_old","type":"uint256"},{"indexed":false,"internalType":"uint256","name":"_new","type":"uint256"}],"name":"UpdatedMintSize","type":"event"},{"anonymous":false,"inputs":[{"indexed":false,"internalType":"bool","name":"_old","type":"bool"},{"indexed":false,"internalType":"bool","name":"_new","type":"bool"}],"name":"UpdatedMintStatus","type":"event"},{"anonymous":false,"inputs":[{"indexed":false,"internalType":"uint256","name":"_old","type":"uint256"},{"indexed":false,"internalType":"uint256","name":"_new","type":"uint256"}],"name":"UpdatedPresaleEnd","type":"event"},{"anonymous":false,"inputs":[{"indexed":false,"internalType":"address","name":"newRoyaltyAddress","type":"address"},{"indexed":false,"internalType":"uint256","name":"newPercentage","type":"uint256"}],"name":"UpdatedRoyalties","type":"event"},{"anonymous":false,"inputs":[{"indexed":false,"internalType":"bytes32","name":"_old","type":"bytes32"},{"indexed":false,"internalType":"bytes32","name":"_new","type":"bytes32"}],"name":"UpdatedWhitelist","type":"event"},{"anonymous":false,"inputs":[{"indexed":false,"internalType":"bool","name":"_old","type":"bool"},{"indexed":false,"internalType":"bool","name":"_new","type":"bool"}],"name":"UpdatedWhitelistStatus","type":"event"},{"stateMutability":"payable","type":"fallback"},{"inputs":[{"internalType":"address","name":"to","type":"address"},{"internalType":"uint256","name":"tokenId","type":"uint256"}],"name":"approve","outputs":[],"stateMutability":"nonpayable","type":"function"},{"inputs":[{"internalType":"address","name":"owner","type":"address"}],"name":"balanceOf","outputs":[{"internalType":"uint256","name":"","type":"uint256"}],"stateMutability":"view","type":"function"},{"inputs":[],"name":"collectionSize","outputs":[{"internalType":"uint256","name":"","type":"uint256"}],"stateMutability":"view","type":"function"},{"inputs":[],"name":"disableMinting","outputs":[],"stateMutability":"nonpayable","type":"function"},{"inputs":[],"name":"disableWhitelist","outputs":[],"stateMutability":"nonpayable","type":"function"},{"inputs":[],"name":"enableMinting","outputs":[],"stateMutability":"nonpayable","type":"function"},{"inputs":[],"name":"enableWhitelist","outputs":[],"stateMutability":"nonpayable","type":"function"},{"inputs":[{"internalType":"uint256","name":"tokenId","type":"uint256"}],"name":"getApproved","outputs":[{"internalType":"address","name":"","type":"address"}],"stateMutability":"view","type":"function"},{"inputs":[],"name":"getBalance","outputs":[{"internalType":"uint256","name":"","type":"uint256"}],"stateMutability":"view","type":"function"},{"inputs":[{"internalType":"string","name":"name","type":"string"},{"internalType":"string","name":"symbol","type":"string"},{"internalType":"string","name":"_placeholderURI","type":"string"},{"internalType":"uint256","name":"_mintPrice","type":"uint256"},{"internalType":"uint256","name":"_mintSize","type":"uint256"},{"internalType":"address[]","name":"splitAddresses","type":"address[]"},{"internalType":"uint256[]","name":"splitBasisPoints","type":"uint256[]"},{"internalType":"bytes32","name":"_whitelistMerkleRoot","type":"bytes32"},{"internalType":"uint256","name":"_maxPublicMints","type":"uint256"},{"internalType":"uint64","name":"_maxWhitelistMints","type":"uint64"},{"internalType":"address","name":"candyWallet","type":"address"}],"name":"initialize","outputs":[],"stateMutability":"nonpayable","type":"function"},{"inputs":[{"internalType":"address","name":"owner","type":"address"},{"internalType":"address","name":"operator","type":"address"}],"name":"isApprovedForAll","outputs":[{"internalType":"bool","name":"","type":"bool"}],"stateMutability":"view","type":"function"},{"inputs":[],"name":"mintStatus","outputs":[{"internalType":"bool","name":"","type":"bool"}],"stateMutability":"view","type":"function"},{"inputs":[],"name":"mintingFee","outputs":[{"internalType":"uint256","name":"","type":"uint256"}],"stateMutability":"view","type":"function"},{"inputs":[],"name":"name","outputs":[{"internalType":"string","name":"","type":"string"}],"stateMutability":"view","type":"function"},{"inputs":[],"name":"owner","outputs":[{"internalType":"address","name":"","type":"address"}],"stateMutability":"view","type":"function"},{"inputs":[{"internalType":"uint256","name":"tokenId","type":"uint256"}],"name":"ownerOf","outputs":[{"internalType":"address","name":"","type":"address"}],"stateMutability":"view","type":"function"},{"inputs":[{"internalType":"uint256","name":"index","type":"uint256"}],"name":"payee","outputs":[{"internalType":"address","name":"","type":"address"}],"stateMutability":"view","type":"function"},{"inputs":[],"name":"publicMaxMints","outputs":[{"internalType":"uint256","name":"","type":"uint256"}],"stateMutability":"view","type":"function"},{"inputs":[{"internalType":"uint256","name":"amount","type":"uint256"}],"name":"publicMint","outputs":[],"stateMutability":"payable","type":"function"},{"inputs":[],"name":"release","outputs":[],"stateMutability":"nonpayable","type":"function"},{"inputs":[{"internalType":"address","name":"account","type":"address"}],"name":"released","outputs":[{"internalType":"uint256","name":"","type":"uint256"}],"stateMutability":"view","type":"function"},{"inputs":[],"name":"renounceOwnership","outputs":[],"stateMutability":"nonpayable","type":"function"},{"inputs":[{"internalType":"uint256","name":"_tokenId","type":"uint256"},{"internalType":"uint256","name":"_salePrice","type":"uint256"}],"name":"royaltyInfo","outputs":[{"internalType":"address","name":"receiver","type":"address"},{"internalType":"uint256","name":"royaltyAmount","type":"uint256"}],"stateMutability":"view","type":"function"},{"inputs":[{"internalType":"address","name":"from","type":"address"},{"internalType":"address","name":"to","type":"address"},{"internalType":"uint256","name":"tokenId","type":"uint256"}],"name":"safeTransferFrom","outputs":[],"stateMutability":"nonpayable","type":"function"},{"inputs":[{"internalType":"address","name":"from","type":"address"},{"internalType":"address","name":"to","type":"address"},{"internalType":"uint256","name":"tokenId","type":"uint256"},{"internalType":"bytes","name":"_data","type":"bytes"}],"name":"safeTransferFrom","outputs":[],"stateMutability":"nonpayable","type":"function"},{"inputs":[{"internalType":"address","name":"operator","type":"address"},{"internalType":"bool","name":"approved","type":"bool"}],"name":"setApprovalForAll","outputs":[],"stateMutability":"nonpayable","type":"function"},{"inputs":[{"internalType":"string","name":"baseURI","type":"string"}],"name":"setBaseURI","outputs":[],"stateMutability":"nonpayable","type":"function"},{"inputs":[{"internalType":"uint256","name":"_amount","type":"uint256"}],"name":"setMaxPublicMints","outputs":[],"stateMutability":"nonpayable","type":"function"},{"inputs":[{"internalType":"uint64","name":"_amount","type":"uint64"}],"name":"setMaxWhitelistMints","outputs":[],"stateMutability":"nonpayable","type":"function"},{"inputs":[{"internalType":"uint256","name":"_newFee","type":"uint256"}],"name":"setMintPrice","outputs":[],"stateMutability":"nonpayable","type":"function"},{"inputs":[{"internalType":"uint256","name":"_amount","type":"uint256"}],"name":"setMintSize","outputs":[],"stateMutability":"nonpayable","type":"function"},{"inputs":[{"internalType":"address","name":"_royaltyAddress","type":"address"},{"internalType":"uint256","name":"_basisPoints","type":"uint256"}],"name":"setRoyaltyInfo","outputs":[],"stateMutability":"nonpayable","type":"function"},{"inputs":[{"internalType":"bytes32","name":"_merkleRoot","type":"bytes32"}],"name":"setWhitelistMerkleRoot","outputs":[],"stateMutability":"nonpayable","type":"function"},{"inputs":[{"internalType":"address","name":"account","type":"address"}],"name":"shares","outputs":[{"internalType":"uint256","name":"","type":"uint256"}],"stateMutability":"view","type":"function"},{"inputs":[{"internalType":"bytes4","name":"interfaceId","type":"bytes4"}],"name":"supportsInterface","outputs":[{"internalType":"bool","name":"","type":"bool"}],"stateMutability":"view","type":"function"},{"inputs":[],"name":"symbol","outputs":[{"internalType":"string","name":"","type":"string"}],"stateMutability":"view","type":"function"},{"inputs":[{"internalType":"uint256","name":"tokenId","type":"uint256"}],"name":"tokenURI","outputs":[{"internalType":"string","name":"","type":"string"}],"stateMutability":"view","type":"function"},{"inputs":[],"name":"totalReleased","outputs":[{"internalType":"uint256","name":"","type":"uint256"}],"stateMutability":"view","type":"function"},{"inputs":[],"name":"totalShares","outputs":[{"internalType":"uint256","name":"","type":"uint256"}],"stateMutability":"view","type":"function"},{"inputs":[],"name":"totalSupply","outputs":[{"internalType":"uint256","name":"","type":"uint256"}],"stateMutability":"view","type":"function"},{"inputs":[{"internalType":"address","name":"from","type":"address"},{"internalType":"address","name":"to","type":"address"},{"internalType":"uint256","name":"tokenId","type":"uint256"}],"name":"transferFrom","outputs":[],"stateMutability":"nonpayable","type":"function"},{"inputs":[{"internalType":"address","name":"newOwner","type":"address"}],"name":"transferOwnership","outputs":[],"stateMutability":"nonpayable","type":"function"},{"inputs":[{"internalType":"string","name":"_placeholderURI","type":"string"}],"name":"updatePlaceholder","outputs":[],"stateMutability":"nonpayable","type":"function"},{"inputs":[],"name":"whitelistMaxMints","outputs":[{"internalType":"uint256","name":"","type":"uint256"}],"stateMutability":"view","type":"function"},{"inputs":[{"internalType":"bytes32[]","name":"merkleProof","type":"bytes32[]"},{"internalType":"uint64","name":"amount","type":"uint64"}],"name":"whitelistMint","outputs":[],"stateMutability":"payable","type":"function"},{"inputs":[],"name":"whitelistStatus","outputs":[{"internalType":"bool","name":"","type":"bool"}],"stateMutability":"view","type":"function"},{"stateMutability":"payable","type":"receive"}],"devdoc":{"author":"Candy Labs","kind":"dev","methods":{"approve(address,uint256)":{"details":"See {IERC721-approve}."},"balanceOf(address)":{"details":"See {IERC721-balanceOf}."},"collectionSize()":{"details":"Can be updated to sizes larger than or equal to the totalSupply()  through setMintSize()."},"enableWhitelist()":{"details":"Public visibility required since the function is called internally."},"getApproved(uint256)":{"details":"See {IERC721-getApproved}."},"isApprovedForAll(address,address)":{"details":"See {IERC721-isApprovedForAll}."},"name()":{"details":"See {IERC721Metadata-name}."},"owner()":{"details":"Returns the address of the current owner."},"ownerOf(uint256)":{"details":"See {IERC721-ownerOf}."},"payee(uint256)":{"details":"Getter for the address of the payee number `index`."},"publicMint(uint256)":{"params":{"amount":"The number of tokens to be minted."}},"release()":{"details":"Defaults to the logic contained in CandyPaymentSplitterUpgradeable."},"released(address)":{"details":"Getter for the amount of Ether already released to a payee."},"renounceOwnership()":{"details":"Leaves the contract without owner. It will not be possible to call `onlyOwner` functions anymore. Can only be called by the current owner. NOTE: Renouncing ownership will leave the contract without an owner, thereby removing any functionality that is only available to the owner."},"safeTransferFrom(address,address,uint256)":{"details":"See {IERC721-safeTransferFrom}."},"safeTransferFrom(address,address,uint256,bytes)":{"details":"See {IERC721-safeTransferFrom}."},"setApprovalForAll(address,bool)":{"details":"See {IERC721-setApprovalForAll}."},"setBaseURI(string)":{"params":{"baseURI":"The new baseURI to generate tokenURIs from. "}},"setMaxPublicMints(uint256)":{"params":{"_amount":"The maximum amount of tokens that can be minted in a public transaction."}},"setMaxWhitelistMints(uint64)":{"params":{"_amount":"The maximum amount of tokens a whitelisted user can mint."}},"setMintPrice(uint256)":{"params":{"_newFee":"- fee you set, if ETH 10**18, if  an ERC20 use token's decimals in calculation"}},"setMintSize(uint256)":{"params":{"_amount":"The mint size, or number of items in the collection."}},"setRoyaltyInfo(address,uint256)":{"details":"Uses internal functions to set EIP-2981  found in IERC2981Upgradeable.sol and used by CandyCollection2981RoyaltiesUpgradeable.sol","params":{"_basisPoints":"- Basis points (out of 10,000) to set as secondary sale royalty fee.  of secondary sales","_royaltyAddress":"- Address for all royalties to go to."}},"setWhitelistMerkleRoot(bytes32)":{"params":{"_merkleRoot":"The generated Merkle root hash for the whitelist."}},"shares(address)":{"details":"Getter for the amount of shares held by an account."},"supportsInterface(bytes4)":{"params":{"interfaceId":"bytes4 id per interface or contract  calculated by ERC165 standards automatically"}},"symbol()":{"details":"See {IERC721Metadata-symbol}."},"tokenURI(uint256)":{"details":"Override for ERC721A tokenURI.","params":{"tokenId":"The id of the token in this collection to retrieve the URI for. Must exist."},"returns":{"_0":"The baseURI suffixed with ./{tokenId}.json"}},"totalReleased()":{"details":"Getter for the total amount of Ether already released."},"totalShares()":{"details":"Getter for the total shares held by payees."},"totalSupply()":{"details":"Burned tokens are calculated here, use _totalMinted() if you want to count just minted tokens."},"transferFrom(address,address,uint256)":{"details":"See {IERC721-transferFrom}."},"transferOwnership(address)":{"details":"Transfers ownership of the contract to a new account (`newOwner`). Can only be called by the current owner."},"updatePlaceholder(string)":{"details":"Added so users can fix mistakes with expensive deployed contracts."},"whitelistMint(bytes32[],uint64)":{"params":{"amount":"The number of tokens to be minted.","merkleProof":"The merkleProof generated by an off-chain API."}}},"title":"An ERC721A-based token contract.","version":1},"evm":{"assembly":"    /* \"Base/Token/CandyCreator721AUpgradeable.sol\":3326:24789  contract CandyCreator721AUpgradeable is... */\n  mstore(0x40, 0x80)\n  callvalue\n  dup1\n  iszero\n  tag_1\n  jumpi\n  0x00\n  dup1\n  revert\ntag_1:\n  pop\n  dataSize(sub_0)\n  dup1\n  dataOffset(sub_0)\n  0x00\n  codecopy\n  0x00\n  return\nstop\n\nsub_0: assembly {\n        /* \"Base/Token/CandyCreator721AUpgradeable.sol\":3326:24789  contract CandyCreator721AUpgradeable is... */\n      mstore(0x40, 0x80)\n      jumpi(tag_1, lt(calldatasize, 0x04))\n      shr(0xe0, calldataload(0x00))\n      dup1\n      0x8b83209b\n      gt\n      tag_49\n      jumpi\n      dup1\n      0xbd32fb66\n      gt\n      tag_50\n      jumpi\n      dup1\n      0xe33b7de3\n      gt\n      tag_51\n      jumpi\n      dup1\n      0xe33b7de3\n      eq\n      tag_43\n      jumpi\n      dup1\n      0xe797ec1b\n      eq\n      tag_44\n      jumpi\n      dup1\n      0xe985e9c5\n      eq\n      tag_45\n      jumpi\n      dup1\n      0xf2fde38b\n      eq\n      tag_46\n      jumpi\n      dup1\n      0xf4a0a528\n      eq\n      tag_47\n      jumpi\n      dup1\n      0xfbee8121\n      eq\n      tag_48\n      jumpi\n      jump(tag_2)\n    tag_51:\n      dup1\n      0xbd32fb66\n      eq\n      tag_37\n      jumpi\n      dup1\n      0xc87b56dd\n      eq\n      tag_38\n      jumpi\n      dup1\n      0xcdfb2b4e\n      eq\n      tag_39\n      jumpi\n      dup1\n      0xce7c2ac2\n      eq\n      tag_40\n      jumpi\n      dup1\n      0xd6b0f484\n      eq\n      tag_41\n      jumpi\n      dup1\n      0xe2e784d5\n      eq\n      tag_42\n      jumpi\n      jump(tag_2)\n    tag_50:\n      dup1\n      0x9852595c\n      gt\n      tag_52\n      jumpi\n      dup1\n      0x9852595c\n      eq\n      tag_31\n      jumpi\n      dup1\n      0x9da3f8fd\n      eq\n      tag_32\n      jumpi\n      dup1\n      0x9ddf7ad3\n      eq\n      tag_33\n      jumpi\n      dup1\n      0xa22cb465\n      eq\n      tag_34\n      jumpi\n      dup1\n      0xa93fef3b\n      eq\n      tag_35\n      jumpi\n      dup1\n      0xb88d4fde\n      eq\n      tag_36\n      jumpi\n      jump(tag_2)\n    tag_52:\n      dup1\n      0x8b83209b\n      eq\n      tag_26\n      jumpi\n      dup1\n      0x8da5cb5b\n      eq\n      tag_27\n      jumpi\n      dup1\n      0x8f5d737c\n      eq\n      tag_28\n      jumpi\n      dup1\n      0x9342e6e4\n      eq\n      tag_29\n      jumpi\n      dup1\n      0x95d89b41\n      eq\n      tag_30\n      jumpi\n      jump(tag_2)\n    tag_49:\n      dup1\n      0x3a98ef39\n      gt\n      tag_53\n      jumpi\n      dup1\n      0x5a64ad95\n      gt\n      tag_54\n      jumpi\n      dup1\n      0x5a64ad95\n      eq\n      tag_20\n      jumpi\n      dup1\n      0x6352211e\n      eq\n      tag_21\n      jumpi\n      dup1\n      0x70a08231\n      eq\n      tag_22\n      jumpi\n      dup1\n      0x715018a6\n      eq\n      tag_23\n      jumpi\n      dup1\n      0x7e5cd5c1\n      eq\n      tag_24\n      jumpi\n      dup1\n      0x86d1a69f\n      eq\n      tag_25\n      jumpi\n      jump(tag_2)\n    tag_54:\n      dup1\n      0x3a98ef39\n      eq\n      tag_14\n      jumpi\n      dup1\n      0x42842e0e\n      eq\n      tag_15\n      jumpi\n      dup1\n      0x45947076\n      eq\n      tag_16\n      jumpi\n      dup1\n      0x45c0f533\n      eq\n      tag_17\n      jumpi\n      dup1\n      0x4a886ad2\n      eq\n      tag_18\n      jumpi\n      dup1\n      0x55f804b3\n      eq\n      tag_19\n      jumpi\n      jump(tag_2)\n    tag_53:\n      dup1\n      0x12065fe0\n      gt\n      tag_55\n      jumpi\n      dup1\n      0x12065fe0\n      eq\n      tag_8\n      jumpi\n      dup1\n      0x18160ddd\n      eq\n      tag_9\n      jumpi\n      dup1\n      0x1b004d25\n      eq\n      tag_10\n      jumpi\n      dup1\n      0x23b872dd\n      eq\n      tag_11\n      jumpi\n      dup1\n      0x2a55205a\n      eq\n      tag_12\n      jumpi\n      dup1\n      0x2db11544\n      eq\n      tag_13\n      jumpi\n      jump(tag_2)\n    tag_55:\n      dup1\n      0x01ffc9a7\n      eq\n      tag_3\n      jumpi\n      dup1\n      0x06fdde03\n      eq\n      tag_4\n      jumpi\n      dup1\n      0x081812fc\n      eq\n      tag_5\n      jumpi\n      dup1\n      0x095ea7b3\n      eq\n      tag_6\n      jumpi\n      dup1\n      0x11e4a21a\n      eq\n      tag_7\n      jumpi\n      jump(tag_2)\n    tag_1:\n      jumpi(tag_2, calldatasize)\n        /* \"Base/Token/CandyCreator721AUpgradeable.sol\":11636:11678  PaymentReceived(_msgSender(), _msgValue()) */\n      0x6ef95f06320e7a25a04a175ca677b7052bdd97131872c2192525a629f51be770\n        /* \"@openzeppelin/contracts-upgradeable/utils/ContextUpgradeable.sol\":929:939  msg.sender */\n      caller\n        /* \"Base/Token/CandyCreator721AUpgradeable.sol\":11652:11664  _msgSender() */\n    tag_58:\n        /* \"Base/Token/CandyCreator721AUpgradeable.sol\":11636:11678  PaymentReceived(_msgSender(), _msgValue()) */\n      0x40\n      dup1\n      mload\n      sub(shl(0xa0, 0x01), 0x01)\n        /* \"#utility.yul\":206:238   */\n      swap3\n      swap1\n      swap3\n      and\n        /* \"#utility.yul\":188:239   */\n      dup3\n      mstore\n        /* \"@openzeppelin/contracts-upgradeable/utils/ContextUpgradeable.sol\":1132:1141  msg.value */\n      callvalue\n        /* \"#utility.yul\":270:272   */\n      0x20\n        /* \"#utility.yul\":255:273   */\n      dup4\n      add\n        /* \"#utility.yul\":248:282   */\n      mstore\n        /* \"Base/Token/CandyCreator721AUpgradeable.sol\":11636:11678  PaymentReceived(_msgSender(), _msgValue()) */\n      dup1\n      mload\n      swap2\n      dup3\n      swap1\n      sub\n      add\n      swap1\n      log1\n        /* \"Base/Token/CandyCreator721AUpgradeable.sol\":3326:24789  contract CandyCreator721AUpgradeable is... */\n      stop\n    tag_2:\n        /* \"Base/Token/CandyCreator721AUpgradeable.sol\":11826:11868  PaymentReceived(_msgSender(), _msgValue()) */\n      0x6ef95f06320e7a25a04a175ca677b7052bdd97131872c2192525a629f51be770\n        /* \"@openzeppelin/contracts-upgradeable/utils/ContextUpgradeable.sol\":929:939  msg.sender */\n      caller\n        /* \"Base/Token/CandyCreator721AUpgradeable.sol\":11842:11854  _msgSender() */\n      tag_58\n        /* \"@openzeppelin/contracts-upgradeable/utils/ContextUpgradeable.sol\":850:946  function _msgSender() internal view virtual returns (address) {... */\n      jump\n        /* \"Base/Token/CandyCreator721AUpgradeable.sol\":24389:24787  function supportsInterface(bytes4 interfaceId)... */\n    tag_3:\n      callvalue\n      dup1\n      iszero\n      tag_69\n      jumpi\n      0x00\n      dup1\n      revert\n    tag_69:\n      pop\n      tag_70\n      tag_71\n      calldatasize\n      0x04\n      tag_72\n      jump\t// in\n    tag_71:\n      tag_73\n      jump\t// in\n    tag_70:\n      mload(0x40)\n        /* \"#utility.yul\":844:858   */\n      swap1\n      iszero\n        /* \"#utility.yul\":837:859   */\n      iszero\n        /* \"#utility.yul\":819:860   */\n      dup2\n      mstore\n        /* \"#utility.yul\":807:809   */\n      0x20\n        /* \"#utility.yul\":792:810   */\n      add\n        /* \"Base/Token/CandyCreator721AUpgradeable.sol\":24389:24787  function supportsInterface(bytes4 interfaceId)... */\n    tag_74:\n      mload(0x40)\n      dup1\n      swap2\n      sub\n      swap1\n      return\n        /* \"Base/Token/ERC721A/ERC721AUpgradeable.sol\":6580:6678  function name() public view virtual override returns (string memory) {... */\n    tag_4:\n      callvalue\n      dup1\n      iszero\n      tag_76\n      jumpi\n      0x00\n      dup1\n      revert\n    tag_76:\n      pop\n      tag_77\n      tag_78\n      jump\t// in\n    tag_77:\n      mload(0x40)\n      tag_74\n      swap2\n      swap1\n      tag_80\n      jump\t// in\n        /* \"Base/Token/ERC721A/ERC721AUpgradeable.sol\":8047:8247  function getApproved(uint256 tokenId) public view override returns (address) {... */\n    tag_5:\n      callvalue\n      dup1\n      iszero\n      tag_81\n      jumpi\n      0x00\n      dup1\n      revert\n    tag_81:\n      pop\n      tag_82\n      tag_83\n      calldatasize\n      0x04\n      tag_84\n      jump\t// in\n    tag_83:\n      tag_85\n      jump\t// in\n    tag_82:\n      mload(0x40)\n      sub(shl(0xa0, 0x01), 0x01)\n        /* \"#utility.yul\":1971:2003   */\n      swap1\n      swap2\n      and\n        /* \"#utility.yul\":1953:2004   */\n      dup2\n      mstore\n        /* \"#utility.yul\":1941:1943   */\n      0x20\n        /* \"#utility.yul\":1926:1944   */\n      add\n        /* \"Base/Token/ERC721A/ERC721AUpgradeable.sol\":8047:8247  function getApproved(uint256 tokenId) public view override returns (address) {... */\n      tag_74\n        /* \"#utility.yul\":1807:2010   */\n      jump\n        /* \"Base/Token/ERC721A/ERC721AUpgradeable.sol\":7613:7986  function approve(address to, uint256 tokenId) public override {... */\n    tag_6:\n      callvalue\n      dup1\n      iszero\n      tag_88\n      jumpi\n      0x00\n      dup1\n      revert\n    tag_88:\n      pop\n      tag_89\n      tag_90\n      calldatasize\n      0x04\n      tag_91\n      jump\t// in\n    tag_90:\n      tag_92\n      jump\t// in\n    tag_89:\n      stop\n        /* \"Base/Token/CandyCreator721AUpgradeable.sol\":5532:6792  function initialize(... */\n    tag_7:\n      callvalue\n      dup1\n      iszero\n      tag_93\n      jumpi\n      0x00\n      dup1\n      revert\n    tag_93:\n      pop\n      tag_89\n      tag_95\n      calldatasize\n      0x04\n      tag_96\n      jump\t// in\n    tag_95:\n      tag_97\n      jump\t// in\n        /* \"Base/Token/CandyCreator721AUpgradeable.sol\":21353:21452  function getBalance() external view returns (uint256) {... */\n    tag_8:\n      callvalue\n      dup1\n      iszero\n      tag_98\n      jumpi\n      0x00\n      dup1\n      revert\n    tag_98:\n      pop\n        /* \"Base/Token/CandyCreator721AUpgradeable.sol\":21424:21445  address(this).balance */\n      selfbalance\n        /* \"Base/Token/CandyCreator721AUpgradeable.sol\":21353:21452  function getBalance() external view returns (uint256) {... */\n    tag_99:\n      mload(0x40)\n        /* \"#utility.yul\":6935:6960   */\n      swap1\n      dup2\n      mstore\n        /* \"#utility.yul\":6923:6925   */\n      0x20\n        /* \"#utility.yul\":6908:6926   */\n      add\n        /* \"Base/Token/CandyCreator721AUpgradeable.sol\":21353:21452  function getBalance() external view returns (uint256) {... */\n      tag_74\n        /* \"#utility.yul\":6789:6966   */\n      jump\n        /* \"Base/Token/ERC721A/ERC721AUpgradeable.sol\":2779:3076  function totalSupply() public view returns (uint256) {... */\n    tag_9:\n      callvalue\n      dup1\n      iszero\n      tag_103\n      jumpi\n      0x00\n      dup1\n      revert\n    tag_103:\n      pop\n      tag_99\n        /* \"Base/Token/ERC721A/ERC721AUpgradeable.sol\":3029:3041  _burnCounter */\n      sload(0x98)\n        /* \"Base/Token/ERC721A/ERC721AUpgradeable.sol\":3013:3026  _currentIndex */\n      sload(0x97)\n        /* \"Base/Token/ERC721A/ERC721AUpgradeable.sol\":3013:3041  _currentIndex - _burnCounter */\n      sub\n      not(0x00)\n        /* \"Base/Token/ERC721A/ERC721AUpgradeable.sol\":3013:3059  _currentIndex - _burnCounter - _startTokenId() */\n      add\n      swap1\n        /* \"Base/Token/ERC721A/ERC721AUpgradeable.sol\":2779:3076  function totalSupply() public view returns (uint256) {... */\n      jump\n        /* \"Base/Token/CandyCreator721AUpgradeable.sol\":8632:9572  function whitelistMint(bytes32[] calldata merkleProof, uint64 amount)... */\n    tag_10:\n      tag_89\n      tag_108\n      calldatasize\n      0x04\n      tag_109\n      jump\t// in\n    tag_108:\n      tag_110\n      jump\t// in\n        /* \"Base/Token/ERC721A/ERC721AUpgradeable.sol\":8886:9050  function transferFrom(... */\n    tag_11:\n      callvalue\n      dup1\n      iszero\n      tag_111\n      jumpi\n      0x00\n      dup1\n      revert\n    tag_111:\n      pop\n      tag_89\n      tag_113\n      calldatasize\n      0x04\n      tag_114\n      jump\t// in\n    tag_113:\n      tag_115\n      jump\t// in\n        /* \"Base/Royalties/CandyCollection2981RoyaltiesUpgradeable.sol\":2605:2879  function royaltyInfo(... */\n    tag_12:\n      callvalue\n      dup1\n      iszero\n      tag_116\n      jumpi\n      0x00\n      dup1\n      revert\n    tag_116:\n      pop\n      tag_117\n      tag_118\n      calldatasize\n      0x04\n      tag_119\n      jump\t// in\n    tag_118:\n      tag_120\n      jump\t// in\n    tag_117:\n      0x40\n      dup1\n      mload\n      sub(shl(0xa0, 0x01), 0x01)\n        /* \"#utility.yul\":206:238   */\n      swap1\n      swap4\n      and\n        /* \"#utility.yul\":188:239   */\n      dup4\n      mstore\n        /* \"#utility.yul\":270:272   */\n      0x20\n        /* \"#utility.yul\":255:273   */\n      dup4\n      add\n        /* \"#utility.yul\":248:282   */\n      swap2\n      swap1\n      swap2\n      mstore\n        /* \"#utility.yul\":161:179   */\n      add\n        /* \"Base/Royalties/CandyCollection2981RoyaltiesUpgradeable.sol\":2605:2879  function royaltyInfo(... */\n      tag_74\n        /* \"#utility.yul\":14:288   */\n      jump\n        /* \"Base/Token/CandyCreator721AUpgradeable.sol\":9786:10220  function publicMint(uint256 amount) external payable {... */\n    tag_13:\n      tag_89\n      tag_123\n      calldatasize\n      0x04\n      tag_84\n      jump\t// in\n    tag_123:\n      tag_124\n      jump\t// in\n        /* \"Base/PaymentSplitter/CandyPaymentSplitterUpgradeable.sol\":5035:5124  function totalShares() public view returns (uint256) {... */\n    tag_14:\n      callvalue\n      dup1\n      iszero\n      tag_125\n      jumpi\n      0x00\n      dup1\n      revert\n    tag_125:\n      pop\n        /* \"Base/PaymentSplitter/CandyPaymentSplitterUpgradeable.sol\":5105:5117  _totalShares */\n      sload(0xca)\n        /* \"Base/PaymentSplitter/CandyPaymentSplitterUpgradeable.sol\":5035:5124  function totalShares() public view returns (uint256) {... */\n      jump(tag_99)\n        /* \"Base/Token/ERC721A/ERC721AUpgradeable.sol\":9116:9295  function safeTransferFrom(... */\n    tag_15:\n      callvalue\n      dup1\n      iszero\n      tag_129\n      jumpi\n      0x00\n      dup1\n      revert\n    tag_129:\n      pop\n      tag_89\n      tag_131\n      calldatasize\n      0x04\n      tag_114\n      jump\t// in\n    tag_131:\n      tag_132\n      jump\t// in\n        /* \"Base/Token/CandyCreator721AUpgradeable.sol\":21204:21300  function publicMaxMints() external view returns (uint256) {... */\n    tag_16:\n      callvalue\n      dup1\n      iszero\n      tag_133\n      jumpi\n      0x00\n      dup1\n      revert\n    tag_133:\n      pop\n        /* \"Base/Token/CandyCreator721AUpgradeable.sol\":21279:21293  maxPublicMints */\n      sload(0xff)\n        /* \"Base/Token/CandyCreator721AUpgradeable.sol\":21204:21300  function publicMaxMints() external view returns (uint256) {... */\n      jump(tag_99)\n        /* \"Base/Token/CandyCreator721AUpgradeable.sol\":21613:21703  function collectionSize() external view returns (uint256) {... */\n    tag_17:\n      callvalue\n      dup1\n      iszero\n      tag_137\n      jumpi\n      0x00\n      dup1\n      revert\n    tag_137:\n      pop\n        /* \"Base/Token/CandyCreator721AUpgradeable.sol\":21688:21696  mintSize */\n      sload(0x0101)\n        /* \"Base/Token/CandyCreator721AUpgradeable.sol\":21613:21703  function collectionSize() external view returns (uint256) {... */\n      jump(tag_99)\n        /* \"Base/Token/CandyCreator721AUpgradeable.sol\":18379:18609  function setMintSize(uint256 _amount) public onlyOwner {... */\n    tag_18:\n      callvalue\n      dup1\n      iszero\n      tag_141\n      jumpi\n      0x00\n      dup1\n      revert\n    tag_141:\n      pop\n      tag_89\n      tag_143\n      calldatasize\n      0x04\n      tag_84\n      jump\t// in\n    tag_143:\n      tag_144\n      jump\t// in\n        /* \"Base/Token/CandyCreator721AUpgradeable.sol\":18128:18219  function setBaseURI(string memory baseURI) public onlyOwner {... */\n    tag_19:\n      callvalue\n      dup1\n      iszero\n      tag_145\n      jumpi\n      0x00\n      dup1\n      revert\n    tag_145:\n      pop\n      tag_89\n      tag_147\n      calldatasize\n      0x04\n      tag_148\n      jump\t// in\n    tag_147:\n      tag_149\n      jump\t// in\n        /* \"Base/Token/CandyCreator721AUpgradeable.sol\":20788:20875  function mintingFee() external view returns (uint256) {... */\n    tag_20:\n      callvalue\n      dup1\n      iszero\n      tag_150\n      jumpi\n      0x00\n      dup1\n      revert\n    tag_150:\n      pop\n        /* \"Base/Token/CandyCreator721AUpgradeable.sol\":20859:20868  mintPrice */\n      sload(0x0100)\n        /* \"Base/Token/CandyCreator721AUpgradeable.sol\":20788:20875  function mintingFee() external view returns (uint256) {... */\n      jump(tag_99)\n        /* \"Base/Token/ERC721A/ERC721AUpgradeable.sol\":6395:6518  function ownerOf(uint256 tokenId) public view override returns (address) {... */\n    tag_21:\n      callvalue\n      dup1\n      iszero\n      tag_154\n      jumpi\n      0x00\n      dup1\n      revert\n    tag_154:\n      pop\n      tag_82\n      tag_156\n      calldatasize\n      0x04\n      tag_84\n      jump\t// in\n    tag_156:\n      tag_157\n      jump\t// in\n        /* \"Base/Token/ERC721A/ERC721AUpgradeable.sol\":3911:4114  function balanceOf(address owner) public view override returns (uint256) {... */\n    tag_22:\n      callvalue\n      dup1\n      iszero\n      tag_159\n      jumpi\n      0x00\n      dup1\n      revert\n    tag_159:\n      pop\n      tag_99\n      tag_161\n      calldatasize\n      0x04\n      tag_162\n      jump\t// in\n    tag_161:\n      tag_163\n      jump\t// in\n        /* \"@openzeppelin/contracts-upgradeable/access/OwnableUpgradeable.sol\":1908:2009  function renounceOwnership() public virtual onlyOwner {... */\n    tag_23:\n      callvalue\n      dup1\n      iszero\n      tag_165\n      jumpi\n      0x00\n      dup1\n      revert\n    tag_165:\n      pop\n      tag_89\n      tag_167\n      jump\t// in\n        /* \"Base/Token/CandyCreator721AUpgradeable.sol\":15506:15730  function disableMinting() external onlyOwner {... */\n    tag_24:\n      callvalue\n      dup1\n      iszero\n      tag_168\n      jumpi\n      0x00\n      dup1\n      revert\n    tag_168:\n      pop\n      tag_89\n      tag_170\n      jump\t// in\n        /* \"Base/Token/CandyCreator721AUpgradeable.sol\":12090:12155  function release() external onlyOwner {... */\n    tag_25:\n      callvalue\n      dup1\n      iszero\n      tag_171\n      jumpi\n      0x00\n      dup1\n      revert\n    tag_171:\n      pop\n      tag_89\n      tag_173\n      jump\t// in\n        /* \"Base/PaymentSplitter/CandyPaymentSplitterUpgradeable.sol\":5782:5880  function payee(uint256 index) public view returns (address) {... */\n    tag_26:\n      callvalue\n      dup1\n      iszero\n      tag_174\n      jumpi\n      0x00\n      dup1\n      revert\n    tag_174:\n      pop\n      tag_82\n      tag_176\n      calldatasize\n      0x04\n      tag_84\n      jump\t// in\n    tag_176:\n      tag_177\n      jump\t// in\n        /* \"@openzeppelin/contracts-upgradeable/access/OwnableUpgradeable.sol\":1276:1361  function owner() public view virtual returns (address) {... */\n    tag_27:\n      callvalue\n      dup1\n      iszero\n      tag_179\n      jumpi\n      0x00\n      dup1\n      revert\n    tag_179:\n      pop\n        /* \"@openzeppelin/contracts-upgradeable/access/OwnableUpgradeable.sol\":1348:1354  _owner */\n      and(sub(shl(0xa0, 0x01), 0x01), sload(0x33))\n        /* \"@openzeppelin/contracts-upgradeable/access/OwnableUpgradeable.sol\":1276:1361  function owner() public view virtual returns (address) {... */\n      jump(tag_82)\n        /* \"Base/Token/CandyCreator721AUpgradeable.sol\":15079:15207  function updatePlaceholder(string calldata _placeholderURI) external onlyOwner {... */\n    tag_28:\n      callvalue\n      dup1\n      iszero\n      tag_183\n      jumpi\n      0x00\n      dup1\n      revert\n    tag_183:\n      pop\n      tag_89\n      tag_185\n      calldatasize\n      0x04\n      tag_186\n      jump\t// in\n    tag_185:\n      tag_187\n      jump\t// in\n        /* \"Base/Token/CandyCreator721AUpgradeable.sol\":17047:17270  function setMaxWhitelistMints(uint64 _amount) public onlyOwner {... */\n    tag_29:\n      callvalue\n      dup1\n      iszero\n      tag_188\n      jumpi\n      0x00\n      dup1\n      revert\n    tag_188:\n      pop\n      tag_89\n      tag_190\n      calldatasize\n      0x04\n      tag_191\n      jump\t// in\n    tag_190:\n      tag_192\n      jump\t// in\n        /* \"Base/Token/ERC721A/ERC721AUpgradeable.sol\":6742:6844  function symbol() public view virtual override returns (string memory) {... */\n    tag_30:\n      callvalue\n      dup1\n      iszero\n      tag_193\n      jumpi\n      0x00\n      dup1\n      revert\n    tag_193:\n      pop\n      tag_77\n      tag_195\n      jump\t// in\n        /* \"Base/PaymentSplitter/CandyPaymentSplitterUpgradeable.sol\":5589:5696  function released(address account) public view returns (uint256) {... */\n    tag_31:\n      callvalue\n      dup1\n      iszero\n      tag_197\n      jumpi\n      0x00\n      dup1\n      revert\n    tag_197:\n      pop\n      tag_99\n      tag_199\n      calldatasize\n      0x04\n      tag_162\n      jump\t// in\n    tag_199:\n      sub(shl(0xa0, 0x01), 0x01)\n        /* \"Base/PaymentSplitter/CandyPaymentSplitterUpgradeable.sol\":5671:5689  _released[account] */\n      and\n        /* \"Base/PaymentSplitter/CandyPaymentSplitterUpgradeable.sol\":5645:5652  uint256 */\n      0x00\n        /* \"Base/PaymentSplitter/CandyPaymentSplitterUpgradeable.sol\":5671:5689  _released[account] */\n      swap1\n      dup2\n      mstore\n        /* \"Base/PaymentSplitter/CandyPaymentSplitterUpgradeable.sol\":5671:5680  _released */\n      0xcd\n        /* \"Base/PaymentSplitter/CandyPaymentSplitterUpgradeable.sol\":5671:5689  _released[account] */\n      0x20\n      mstore\n      0x40\n      swap1\n      keccak256\n      sload\n      swap1\n        /* \"Base/PaymentSplitter/CandyPaymentSplitterUpgradeable.sol\":5589:5696  function released(address account) public view returns (uint256) {... */\n      jump\n        /* \"Base/Token/CandyCreator721AUpgradeable.sol\":20432:20520  function mintStatus() external view returns (bool) {... */\n    tag_32:\n      callvalue\n      dup1\n      iszero\n      tag_202\n      jumpi\n      0x00\n      dup1\n      revert\n    tag_202:\n      pop\n        /* \"Base/Token/CandyCreator721AUpgradeable.sol\":20500:20513  mintingActive */\n      sload(0x0102)\n      shl(0x48, 0x01)\n      swap1\n      div\n      0xff\n      and\n        /* \"Base/Token/CandyCreator721AUpgradeable.sol\":20432:20520  function mintStatus() external view returns (bool) {... */\n      jump(tag_70)\n        /* \"Base/Token/CandyCreator721AUpgradeable.sol\":20623:20718  function whitelistStatus() external view returns (bool) {... */\n    tag_33:\n      callvalue\n      dup1\n      iszero\n      tag_206\n      jumpi\n      0x00\n      dup1\n      revert\n    tag_206:\n      pop\n        /* \"Base/Token/CandyCreator721AUpgradeable.sol\":20696:20711  whitelistActive */\n      sload(0x0102)\n      shl(0x40, 0x01)\n      swap1\n      div\n      0xff\n      and\n        /* \"Base/Token/CandyCreator721AUpgradeable.sol\":20623:20718  function whitelistStatus() external view returns (bool) {... */\n      jump(tag_70)\n        /* \"Base/Token/ERC721A/ERC721AUpgradeable.sol\":8314:8596  function setApprovalForAll(address operator, bool approved) public virtual override {... */\n    tag_34:\n      callvalue\n      dup1\n      iszero\n      tag_210\n      jumpi\n      0x00\n      dup1\n      revert\n    tag_210:\n      pop\n      tag_89\n      tag_212\n      calldatasize\n      0x04\n      tag_213\n      jump\t// in\n    tag_212:\n      tag_214\n      jump\t// in\n        /* \"Base/Token/CandyCreator721AUpgradeable.sol\":17667:17879  function setMaxPublicMints(uint256 _amount) public onlyOwner {... */\n    tag_35:\n      callvalue\n      dup1\n      iszero\n      tag_215\n      jumpi\n      0x00\n      dup1\n      revert\n    tag_215:\n      pop\n      tag_89\n      tag_217\n      calldatasize\n      0x04\n      tag_84\n      jump\t// in\n    tag_217:\n      tag_218\n      jump\t// in\n        /* \"Base/Token/ERC721A/ERC721AUpgradeable.sol\":9361:9720  function safeTransferFrom(... */\n    tag_36:\n      callvalue\n      dup1\n      iszero\n      tag_219\n      jumpi\n      0x00\n      dup1\n      revert\n    tag_219:\n      pop\n      tag_89\n      tag_221\n      calldatasize\n      0x04\n      tag_222\n      jump\t// in\n    tag_221:\n      tag_223\n      jump\t// in\n        /* \"Base/Token/CandyCreator721AUpgradeable.sol\":16661:16881  function setWhitelistMerkleRoot(bytes32 _merkleRoot) public onlyOwner {... */\n    tag_37:\n      callvalue\n      dup1\n      iszero\n      tag_224\n      jumpi\n      0x00\n      dup1\n      revert\n    tag_224:\n      pop\n      tag_89\n      tag_226\n      calldatasize\n      0x04\n      tag_84\n      jump\t// in\n    tag_226:\n      tag_228\n      jump\t// in\n        /* \"Base/Token/CandyCreator721AUpgradeable.sol\":23613:24201  function tokenURI(uint256 tokenId)... */\n    tag_38:\n      callvalue\n      dup1\n      iszero\n      tag_229\n      jumpi\n      0x00\n      dup1\n      revert\n    tag_229:\n      pop\n      tag_77\n      tag_231\n      calldatasize\n      0x04\n      tag_84\n      jump\t// in\n    tag_231:\n      tag_232\n      jump\t// in\n        /* \"Base/Token/CandyCreator721AUpgradeable.sol\":15877:16112  function enableWhitelist() public onlyOwner {... */\n    tag_39:\n      callvalue\n      dup1\n      iszero\n      tag_234\n      jumpi\n      0x00\n      dup1\n      revert\n    tag_234:\n      pop\n      tag_89\n      tag_236\n      jump\t// in\n        /* \"Base/PaymentSplitter/CandyPaymentSplitterUpgradeable.sol\":5392:5495  function shares(address account) public view returns (uint256) {... */\n    tag_40:\n      callvalue\n      dup1\n      iszero\n      tag_237\n      jumpi\n      0x00\n      dup1\n      revert\n    tag_237:\n      pop\n      tag_99\n      tag_239\n      calldatasize\n      0x04\n      tag_162\n      jump\t// in\n    tag_239:\n      sub(shl(0xa0, 0x01), 0x01)\n        /* \"Base/PaymentSplitter/CandyPaymentSplitterUpgradeable.sol\":5472:5488  _shares[account] */\n      and\n        /* \"Base/PaymentSplitter/CandyPaymentSplitterUpgradeable.sol\":5446:5453  uint256 */\n      0x00\n        /* \"Base/PaymentSplitter/CandyPaymentSplitterUpgradeable.sol\":5472:5488  _shares[account] */\n      swap1\n      dup2\n      mstore\n        /* \"Base/PaymentSplitter/CandyPaymentSplitterUpgradeable.sol\":5472:5479  _shares */\n      0xcc\n        /* \"Base/PaymentSplitter/CandyPaymentSplitterUpgradeable.sol\":5472:5488  _shares[account] */\n      0x20\n      mstore\n      0x40\n      swap1\n      keccak256\n      sload\n      swap1\n        /* \"Base/PaymentSplitter/CandyPaymentSplitterUpgradeable.sol\":5392:5495  function shares(address account) public view returns (uint256) {... */\n      jump\n        /* \"Base/Token/CandyCreator721AUpgradeable.sol\":16182:16425  function disableWhitelist() external onlyOwner {... */\n    tag_41:\n      callvalue\n      dup1\n      iszero\n      tag_242\n      jumpi\n      0x00\n      dup1\n      revert\n    tag_242:\n      pop\n      tag_89\n      tag_244\n      jump\t// in\n        /* \"Base/Token/CandyCreator721AUpgradeable.sol\":12592:12823  function setRoyaltyInfo(address _royaltyAddress, uint256 _basisPoints)... */\n    tag_42:\n      callvalue\n      dup1\n      iszero\n      tag_245\n      jumpi\n      0x00\n      dup1\n      revert\n    tag_245:\n      pop\n      tag_89\n      tag_247\n      calldatasize\n      0x04\n      tag_91\n      jump\t// in\n    tag_247:\n      tag_248\n      jump\t// in\n        /* \"Base/PaymentSplitter/CandyPaymentSplitterUpgradeable.sol\":5213:5306  function totalReleased() public view returns (uint256) {... */\n    tag_43:\n      callvalue\n      dup1\n      iszero\n      tag_249\n      jumpi\n      0x00\n      dup1\n      revert\n    tag_249:\n      pop\n        /* \"Base/PaymentSplitter/CandyPaymentSplitterUpgradeable.sol\":5285:5299  _totalReleased */\n      sload(0xcb)\n        /* \"Base/PaymentSplitter/CandyPaymentSplitterUpgradeable.sol\":5213:5306  function totalReleased() public view returns (uint256) {... */\n      jump(tag_99)\n        /* \"Base/Token/CandyCreator721AUpgradeable.sol\":15247:15465  function enableMinting() external onlyOwner {... */\n    tag_44:\n      callvalue\n      dup1\n      iszero\n      tag_253\n      jumpi\n      0x00\n      dup1\n      revert\n    tag_253:\n      pop\n      tag_89\n      tag_255\n      jump\t// in\n        /* \"Base/Token/ERC721A/ERC721AUpgradeable.sol\":8662:8824  function isApprovedForAll(address owner, address operator) public view virtual override returns (bool) {... */\n    tag_45:\n      callvalue\n      dup1\n      iszero\n      tag_256\n      jumpi\n      0x00\n      dup1\n      revert\n    tag_256:\n      pop\n      tag_70\n      tag_258\n      calldatasize\n      0x04\n      tag_259\n      jump\t// in\n    tag_258:\n      sub(shl(0xa0, 0x01), 0x01)\n        /* \"Base/Token/ERC721A/ERC721AUpgradeable.sol\":8782:8807  _operatorApprovals[owner] */\n      swap2\n      dup3\n      and\n        /* \"Base/Token/ERC721A/ERC721AUpgradeable.sol\":8759:8763  bool */\n      0x00\n        /* \"Base/Token/ERC721A/ERC721AUpgradeable.sol\":8782:8807  _operatorApprovals[owner] */\n      swap1\n      dup2\n      mstore\n        /* \"Base/Token/ERC721A/ERC721AUpgradeable.sol\":8782:8800  _operatorApprovals */\n      0x9e\n        /* \"Base/Token/ERC721A/ERC721AUpgradeable.sol\":8782:8807  _operatorApprovals[owner] */\n      0x20\n      swap1\n      dup2\n      mstore\n      0x40\n      dup1\n      dup4\n      keccak256\n        /* \"Base/Token/ERC721A/ERC721AUpgradeable.sol\":8782:8817  _operatorApprovals[owner][operator] */\n      swap4\n      swap1\n      swap5\n      and\n      dup3\n      mstore\n      swap2\n      swap1\n      swap2\n      mstore\n      keccak256\n      sload\n      0xff\n      and\n      swap1\n        /* \"Base/Token/ERC721A/ERC721AUpgradeable.sol\":8662:8824  function isApprovedForAll(address owner, address operator) public view virtual override returns (bool) {... */\n      jump\n        /* \"@openzeppelin/contracts-upgradeable/access/OwnableUpgradeable.sol\":2158:2356  function transferOwnership(address newOwner) public virtual onlyOwner {... */\n    tag_46:\n      callvalue\n      dup1\n      iszero\n      tag_262\n      jumpi\n      0x00\n      dup1\n      revert\n    tag_262:\n      pop\n      tag_89\n      tag_264\n      calldatasize\n      0x04\n      tag_162\n      jump\t// in\n    tag_264:\n      tag_265\n      jump\t// in\n        /* \"Base/Token/CandyCreator721AUpgradeable.sol\":13062:13240  function setMintPrice(uint256 _newFee) public onlyOwner {... */\n    tag_47:\n      callvalue\n      dup1\n      iszero\n      tag_266\n      jumpi\n      0x00\n      dup1\n      revert\n    tag_266:\n      pop\n      tag_89\n      tag_268\n      calldatasize\n      0x04\n      tag_84\n      jump\t// in\n    tag_268:\n      tag_269\n      jump\t// in\n        /* \"Base/Token/CandyCreator721AUpgradeable.sol\":20982:21084  function whitelistMaxMints() external view returns (uint256) {... */\n    tag_48:\n      callvalue\n      dup1\n      iszero\n      tag_270\n      jumpi\n      0x00\n      dup1\n      revert\n    tag_270:\n      pop\n        /* \"Base/Token/CandyCreator721AUpgradeable.sol\":21060:21077  maxWhitelistMints */\n      and(sub(shl(0x40, 0x01), 0x01), sload(0x0102))\n        /* \"Base/Token/CandyCreator721AUpgradeable.sol\":20982:21084  function whitelistMaxMints() external view returns (uint256) {... */\n      jump(tag_99)\n        /* \"Base/Token/CandyCreator721AUpgradeable.sol\":24389:24787  function supportsInterface(bytes4 interfaceId)... */\n    tag_73:\n        /* \"Base/Token/CandyCreator721AUpgradeable.sol\":24538:24542  bool */\n      0x00\n      not(sub(shl(0xe0, 0x01), 0x01))\n        /* \"Base/Token/CandyCreator721AUpgradeable.sol\":24579:24651  interfaceId == type(CandyCollection2981RoyaltiesUpgradeable).interfaceId */\n      dup3\n      and\n      shl(0xe1, 0x152a902d)\n      eq\n      dup1\n        /* \"Base/Token/CandyCreator721AUpgradeable.sol\":24579:24718  interfaceId == type(CandyCollection2981RoyaltiesUpgradeable).interfaceId ||... */\n      tag_277\n      jumpi\n      pop\n      not(sub(shl(0xe0, 0x01), 0x01))\n        /* \"Base/Token/CandyCreator721AUpgradeable.sol\":24667:24718  interfaceId == type(OwnableUpgradeable).interfaceId */\n      dup3\n      and\n      shl(0xe1, 0x0704183b)\n      eq\n        /* \"Base/Token/CandyCreator721AUpgradeable.sol\":24579:24718  interfaceId == type(CandyCollection2981RoyaltiesUpgradeable).interfaceId ||... */\n    tag_277:\n        /* \"Base/Token/CandyCreator721AUpgradeable.sol\":24579:24770  interfaceId == type(CandyCollection2981RoyaltiesUpgradeable).interfaceId ||... */\n      dup1\n      tag_279\n      jumpi\n      pop\n        /* \"Base/Token/CandyCreator721AUpgradeable.sol\":24734:24770  super.supportsInterface(interfaceId) */\n      tag_279\n        /* \"Base/Token/CandyCreator721AUpgradeable.sol\":24758:24769  interfaceId */\n      dup3\n        /* \"Base/Token/CandyCreator721AUpgradeable.sol\":24734:24757  super.supportsInterface */\n      tag_280\n        /* \"Base/Token/CandyCreator721AUpgradeable.sol\":24734:24770  super.supportsInterface(interfaceId) */\n      jump\t// in\n    tag_279:\n        /* \"Base/Token/CandyCreator721AUpgradeable.sol\":24558:24780  return (... */\n      swap3\n        /* \"Base/Token/CandyCreator721AUpgradeable.sol\":24389:24787  function supportsInterface(bytes4 interfaceId)... */\n      swap2\n      pop\n      pop\n      jump\t// out\n        /* \"Base/Token/ERC721A/ERC721AUpgradeable.sol\":6580:6678  function name() public view virtual override returns (string memory) {... */\n    tag_78:\n        /* \"Base/Token/ERC721A/ERC721AUpgradeable.sol\":6634:6647  string memory */\n      0x60\n        /* \"Base/Token/ERC721A/ERC721AUpgradeable.sol\":6666:6671  _name */\n      0x99\n        /* \"Base/Token/ERC721A/ERC721AUpgradeable.sol\":6659:6671  return _name */\n      dup1\n      sload\n      tag_282\n      swap1\n      tag_283\n      jump\t// in\n    tag_282:\n      dup1\n      0x1f\n      add\n      0x20\n      dup1\n      swap2\n      div\n      mul\n      0x20\n      add\n      mload(0x40)\n      swap1\n      dup2\n      add\n      0x40\n      mstore\n      dup1\n      swap3\n      swap2\n      swap1\n      dup2\n      dup2\n      mstore\n      0x20\n      add\n      dup3\n      dup1\n      sload\n      tag_284\n      swap1\n      tag_283\n      jump\t// in\n    tag_284:\n      dup1\n      iszero\n      tag_285\n      jumpi\n      dup1\n      0x1f\n      lt\n      tag_286\n      jumpi\n      0x0100\n      dup1\n      dup4\n      sload\n      div\n      mul\n      dup4\n      mstore\n      swap2\n      0x20\n      add\n      swap2\n      jump(tag_285)\n    tag_286:\n      dup3\n      add\n      swap2\n      swap1\n      0x00\n      mstore\n      keccak256(0x00, 0x20)\n      swap1\n    tag_287:\n      dup2\n      sload\n      dup2\n      mstore\n      swap1\n      0x01\n      add\n      swap1\n      0x20\n      add\n      dup1\n      dup4\n      gt\n      tag_287\n      jumpi\n      dup3\n      swap1\n      sub\n      0x1f\n      and\n      dup3\n      add\n      swap2\n    tag_285:\n      pop\n      pop\n      pop\n      pop\n      pop\n      swap1\n      pop\n        /* \"Base/Token/ERC721A/ERC721AUpgradeable.sol\":6580:6678  function name() public view virtual override returns (string memory) {... */\n      swap1\n      jump\t// out\n        /* \"Base/Token/ERC721A/ERC721AUpgradeable.sol\":8047:8247  function getApproved(uint256 tokenId) public view override returns (address) {... */\n    tag_85:\n        /* \"Base/Token/ERC721A/ERC721AUpgradeable.sol\":8115:8122  address */\n      0x00\n        /* \"Base/Token/ERC721A/ERC721AUpgradeable.sol\":8139:8155  _exists(tokenId) */\n      tag_289\n        /* \"Base/Token/ERC721A/ERC721AUpgradeable.sol\":8147:8154  tokenId */\n      dup3\n        /* \"Base/Token/ERC721A/ERC721AUpgradeable.sol\":8139:8146  _exists */\n      tag_290\n        /* \"Base/Token/ERC721A/ERC721AUpgradeable.sol\":8139:8155  _exists(tokenId) */\n      jump\t// in\n    tag_289:\n        /* \"Base/Token/ERC721A/ERC721AUpgradeable.sol\":8134:8198  if (!_exists(tokenId)) revert ApprovalQueryForNonexistentToken() */\n      tag_291\n      jumpi\n        /* \"Base/Token/ERC721A/ERC721AUpgradeable.sol\":8164:8198  ApprovalQueryForNonexistentToken() */\n      mload(0x40)\n      shl(0xe2, 0x33d1c039)\n      dup2\n      mstore\n      0x04\n      add\n      mload(0x40)\n      dup1\n      swap2\n      sub\n      swap1\n      revert\n        /* \"Base/Token/ERC721A/ERC721AUpgradeable.sol\":8134:8198  if (!_exists(tokenId)) revert ApprovalQueryForNonexistentToken() */\n    tag_291:\n      pop\n        /* \"Base/Token/ERC721A/ERC721AUpgradeable.sol\":8216:8240  _tokenApprovals[tokenId] */\n      0x00\n      swap1\n      dup2\n      mstore\n        /* \"Base/Token/ERC721A/ERC721AUpgradeable.sol\":8216:8231  _tokenApprovals */\n      0x9d\n        /* \"Base/Token/ERC721A/ERC721AUpgradeable.sol\":8216:8240  _tokenApprovals[tokenId] */\n      0x20\n      mstore\n      0x40\n      swap1\n      keccak256\n      sload\n      sub(shl(0xa0, 0x01), 0x01)\n      and\n      swap1\n        /* \"Base/Token/ERC721A/ERC721AUpgradeable.sol\":8047:8247  function getApproved(uint256 tokenId) public view override returns (address) {... */\n      jump\t// out\n        /* \"Base/Token/ERC721A/ERC721AUpgradeable.sol\":7613:7986  function approve(address to, uint256 tokenId) public override {... */\n    tag_92:\n        /* \"Base/Token/ERC721A/ERC721AUpgradeable.sol\":7685:7698  address owner */\n      0x00\n        /* \"Base/Token/ERC721A/ERC721AUpgradeable.sol\":7701:7736  ERC721AUpgradeable.ownerOf(tokenId) */\n      tag_293\n        /* \"Base/Token/ERC721A/ERC721AUpgradeable.sol\":7728:7735  tokenId */\n      dup3\n        /* \"Base/Token/ERC721A/ERC721AUpgradeable.sol\":7701:7727  ERC721AUpgradeable.ownerOf */\n      tag_157\n        /* \"Base/Token/ERC721A/ERC721AUpgradeable.sol\":7701:7736  ERC721AUpgradeable.ownerOf(tokenId) */\n      jump\t// in\n    tag_293:\n        /* \"Base/Token/ERC721A/ERC721AUpgradeable.sol\":7685:7736  address owner = ERC721AUpgradeable.ownerOf(tokenId) */\n      swap1\n      pop\n        /* \"Base/Token/ERC721A/ERC721AUpgradeable.sol\":7756:7761  owner */\n      dup1\n      sub(shl(0xa0, 0x01), 0x01)\n        /* \"Base/Token/ERC721A/ERC721AUpgradeable.sol\":7750:7761  to == owner */\n      and\n        /* \"Base/Token/ERC721A/ERC721AUpgradeable.sol\":7750:7752  to */\n      dup4\n      sub(shl(0xa0, 0x01), 0x01)\n        /* \"Base/Token/ERC721A/ERC721AUpgradeable.sol\":7750:7761  to == owner */\n      and\n      sub\n        /* \"Base/Token/ERC721A/ERC721AUpgradeable.sol\":7746:7794  if (to == owner) revert ApprovalToCurrentOwner() */\n      tag_294\n      jumpi\n        /* \"Base/Token/ERC721A/ERC721AUpgradeable.sol\":7770:7794  ApprovalToCurrentOwner() */\n      mload(0x40)\n      shl(0xe2, 0x250fdee3)\n      dup2\n      mstore\n      0x04\n      add\n      mload(0x40)\n      dup1\n      swap2\n      sub\n      swap1\n      revert\n        /* \"Base/Token/ERC721A/ERC721AUpgradeable.sol\":7746:7794  if (to == owner) revert ApprovalToCurrentOwner() */\n    tag_294:\n        /* \"@openzeppelin/contracts-upgradeable/utils/ContextUpgradeable.sol\":929:939  msg.sender */\n      caller\n      sub(shl(0xa0, 0x01), 0x01)\n        /* \"Base/Token/ERC721A/ERC721AUpgradeable.sol\":7809:7830  _msgSender() != owner */\n      dup3\n      and\n      eq\n      dup1\n      iszero\n      swap1\n        /* \"Base/Token/ERC721A/ERC721AUpgradeable.sol\":7809:7872  _msgSender() != owner && !isApprovedForAll(owner, _msgSender()) */\n      tag_296\n      jumpi\n      pop\n        /* \"Base/Token/ERC721A/ERC721AUpgradeable.sol\":7835:7872  isApprovedForAll(owner, _msgSender()) */\n      tag_297\n        /* \"Base/Token/ERC721A/ERC721AUpgradeable.sol\":7852:7857  owner */\n      dup2\n        /* \"@openzeppelin/contracts-upgradeable/utils/ContextUpgradeable.sol\":929:939  msg.sender */\n      caller\n        /* \"Base/Token/ERC721A/ERC721AUpgradeable.sol\":8662:8824  function isApprovedForAll(address owner, address operator) public view virtual override returns (bool) {... */\n      tag_258\n      jump\t// in\n        /* \"Base/Token/ERC721A/ERC721AUpgradeable.sol\":7835:7872  isApprovedForAll(owner, _msgSender()) */\n    tag_297:\n        /* \"Base/Token/ERC721A/ERC721AUpgradeable.sol\":7834:7872  !isApprovedForAll(owner, _msgSender()) */\n      iszero\n        /* \"Base/Token/ERC721A/ERC721AUpgradeable.sol\":7809:7872  _msgSender() != owner && !isApprovedForAll(owner, _msgSender()) */\n    tag_296:\n        /* \"Base/Token/ERC721A/ERC721AUpgradeable.sol\":7805:7941  if (_msgSender() != owner && !isApprovedForAll(owner, _msgSender())) {... */\n      iszero\n      tag_299\n      jumpi\n        /* \"Base/Token/ERC721A/ERC721AUpgradeable.sol\":7895:7930  ApprovalCallerNotOwnerNorApproved() */\n      mload(0x40)\n      shl(0xe1, 0x67d9dca1)\n      dup2\n      mstore\n      0x04\n      add\n      mload(0x40)\n      dup1\n      swap2\n      sub\n      swap1\n      revert\n        /* \"Base/Token/ERC721A/ERC721AUpgradeable.sol\":7805:7941  if (_msgSender() != owner && !isApprovedForAll(owner, _msgSender())) {... */\n    tag_299:\n        /* \"Base/Token/ERC721A/ERC721AUpgradeable.sol\":7951:7979  _approve(to, tokenId, owner) */\n      tag_300\n        /* \"Base/Token/ERC721A/ERC721AUpgradeable.sol\":7960:7962  to */\n      dup4\n        /* \"Base/Token/ERC721A/ERC721AUpgradeable.sol\":7964:7971  tokenId */\n      dup4\n        /* \"Base/Token/ERC721A/ERC721AUpgradeable.sol\":7973:7978  owner */\n      dup4\n        /* \"Base/Token/ERC721A/ERC721AUpgradeable.sol\":7951:7959  _approve */\n      tag_301\n        /* \"Base/Token/ERC721A/ERC721AUpgradeable.sol\":7951:7979  _approve(to, tokenId, owner) */\n      jump\t// in\n    tag_300:\n        /* \"Base/Token/ERC721A/ERC721AUpgradeable.sol\":7675:7986  {... */\n      pop\n        /* \"Base/Token/ERC721A/ERC721AUpgradeable.sol\":7613:7986  function approve(address to, uint256 tokenId) public override {... */\n      pop\n      pop\n      jump\t// out\n        /* \"Base/Token/CandyCreator721AUpgradeable.sol\":5532:6792  function initialize(... */\n    tag_97:\n        /* \"@openzeppelin/contracts-upgradeable/proxy/utils/Initializable.sol\":2369:2382  _initializing */\n      sload(0x00)\n      0x0100\n      swap1\n      div\n      0xff\n      and\n        /* \"@openzeppelin/contracts-upgradeable/proxy/utils/Initializable.sol\":2369:2417  _initializing ? _isConstructor() : !_initialized */\n      tag_303\n      jumpi\n        /* \"@openzeppelin/contracts-upgradeable/proxy/utils/Initializable.sol\":2405:2417  _initialized */\n      and(0xff, sload(0x00))\n        /* \"@openzeppelin/contracts-upgradeable/proxy/utils/Initializable.sol\":2404:2417  !_initialized */\n      iszero\n        /* \"@openzeppelin/contracts-upgradeable/proxy/utils/Initializable.sol\":2369:2417  _initializing ? _isConstructor() : !_initialized */\n      jump(tag_305)\n    tag_303:\n        /* \"@openzeppelin/contracts-upgradeable/proxy/utils/Initializable.sol\":3147:3151  this */\n      address\n        /* \"@openzeppelin/contracts-upgradeable/utils/AddressUpgradeable.sol\":1476:1495  account.code.length */\n      extcodesize\n        /* \"@openzeppelin/contracts-upgradeable/utils/AddressUpgradeable.sol\":1476:1499  account.code.length > 0 */\n      iszero\n        /* \"@openzeppelin/contracts-upgradeable/proxy/utils/Initializable.sol\":2385:2401  _isConstructor() */\n    tag_305:\n        /* \"@openzeppelin/contracts-upgradeable/proxy/utils/Initializable.sol\":2361:2468  require(_initializing ? _isConstructor() : !_initialized, \"Initializable: contract is already initialized\") */\n      tag_307\n      jumpi\n      mload(0x40)\n      shl(0xe5, 0x461bcd)\n      dup2\n      mstore\n        /* \"#utility.yul\":11620:11622   */\n      0x20\n        /* \"@openzeppelin/contracts-upgradeable/proxy/utils/Initializable.sol\":2361:2468  require(_initializing ? _isConstructor() : !_initialized, \"Initializable: contract is already initialized\") */\n      0x04\n      dup3\n      add\n        /* \"#utility.yul\":11602:11623   */\n      mstore\n        /* \"#utility.yul\":11659:11661   */\n      0x2e\n        /* \"#utility.yul\":11639:11657   */\n      0x24\n      dup3\n      add\n        /* \"#utility.yul\":11632:11662   */\n      mstore\n        /* \"#utility.yul\":11698:11732   */\n      0x496e697469616c697a61626c653a20636f6e747261637420697320616c726561\n        /* \"#utility.yul\":11678:11696   */\n      0x44\n      dup3\n      add\n        /* \"#utility.yul\":11671:11733   */\n      mstore\n      shl(0x92, 0x191e481a5b9a5d1a585b1a5e9959)\n        /* \"#utility.yul\":11749:11767   */\n      0x64\n      dup3\n      add\n        /* \"#utility.yul\":11742:11786   */\n      mstore\n        /* \"#utility.yul\":11803:11822   */\n      0x84\n      add\n        /* \"@openzeppelin/contracts-upgradeable/proxy/utils/Initializable.sol\":2361:2468  require(_initializing ? _isConstructor() : !_initialized, \"Initializable: contract is already initialized\") */\n    tag_308:\n      mload(0x40)\n      dup1\n      swap2\n      sub\n      swap1\n      revert\n    tag_307:\n        /* \"@openzeppelin/contracts-upgradeable/proxy/utils/Initializable.sol\":2479:2498  bool isTopLevelCall */\n      0x00\n        /* \"@openzeppelin/contracts-upgradeable/proxy/utils/Initializable.sol\":2502:2515  _initializing */\n      sload\n      0x0100\n      swap1\n      div\n      0xff\n      and\n        /* \"@openzeppelin/contracts-upgradeable/proxy/utils/Initializable.sol\":2501:2515  !_initializing */\n      iszero\n        /* \"@openzeppelin/contracts-upgradeable/proxy/utils/Initializable.sol\":2525:2623  if (isTopLevelCall) {... */\n      dup1\n      iszero\n      tag_310\n      jumpi\n        /* \"@openzeppelin/contracts-upgradeable/proxy/utils/Initializable.sol\":2559:2572  _initializing */\n      0x00\n        /* \"@openzeppelin/contracts-upgradeable/proxy/utils/Initializable.sol\":2559:2579  _initializing = true */\n      dup1\n      sload\n      not(0xffff)\n        /* \"@openzeppelin/contracts-upgradeable/proxy/utils/Initializable.sol\":2593:2612  _initialized = true */\n      and\n      0x0101\n      or\n      swap1\n      sstore\n        /* \"@openzeppelin/contracts-upgradeable/proxy/utils/Initializable.sol\":2525:2623  if (isTopLevelCall) {... */\n    tag_310:\n        /* \"Base/Token/CandyCreator721AUpgradeable.sol\":6316:6344  __ERC721A_init(name, symbol) */\n      tag_312\n        /* \"Base/Token/CandyCreator721AUpgradeable.sol\":6331:6335  name */\n      dup13\n        /* \"Base/Token/CandyCreator721AUpgradeable.sol\":6337:6343  symbol */\n      dup13\n        /* \"Base/Token/CandyCreator721AUpgradeable.sol\":6316:6330  __ERC721A_init */\n      tag_313\n        /* \"Base/Token/CandyCreator721AUpgradeable.sol\":6316:6344  __ERC721A_init(name, symbol) */\n      jump\t// in\n    tag_312:\n        /* \"Base/Token/CandyCreator721AUpgradeable.sol\":6354:6370  __Ownable_init() */\n      tag_314\n        /* \"Base/Token/CandyCreator721AUpgradeable.sol\":6354:6368  __Ownable_init */\n      tag_315\n        /* \"Base/Token/CandyCreator721AUpgradeable.sol\":6354:6370  __Ownable_init() */\n      jump\t// in\n    tag_314:\n        /* \"Base/Token/CandyCreator721AUpgradeable.sol\":6389:6453  setupPaymentSplit(candyWallet, splitAddresses, splitBasisPoints) */\n      tag_316\n        /* \"Base/Token/CandyCreator721AUpgradeable.sol\":6407:6418  candyWallet */\n      dup3\n        /* \"Base/Token/CandyCreator721AUpgradeable.sol\":6420:6434  splitAddresses */\n      dup9\n        /* \"Base/Token/CandyCreator721AUpgradeable.sol\":6436:6452  splitBasisPoints */\n      dup9\n        /* \"Base/Token/CandyCreator721AUpgradeable.sol\":6389:6406  setupPaymentSplit */\n      tag_317\n        /* \"Base/Token/CandyCreator721AUpgradeable.sol\":6389:6453  setupPaymentSplit(candyWallet, splitAddresses, splitBasisPoints) */\n      jump\t// in\n    tag_316:\n        /* \"Base/Token/CandyCreator721AUpgradeable.sol\":6467:6492  _whitelistMerkleRoot != 0 */\n      dup5\n      iszero\n        /* \"Base/Token/CandyCreator721AUpgradeable.sol\":6463:6592  if (_whitelistMerkleRoot != 0) {... */\n      tag_319\n      jumpi\n        /* \"Base/Token/CandyCreator721AUpgradeable.sol\":6508:6527  whitelistMerkleRoot */\n      0xfe\n        /* \"Base/Token/CandyCreator721AUpgradeable.sol\":6508:6550  whitelistMerkleRoot = _whitelistMerkleRoot */\n      dup6\n      swap1\n      sstore\n        /* \"Base/Token/CandyCreator721AUpgradeable.sol\":6564:6581  enableWhitelist() */\n      tag_319\n        /* \"Base/Token/CandyCreator721AUpgradeable.sol\":6564:6579  enableWhitelist */\n      tag_236\n        /* \"Base/Token/CandyCreator721AUpgradeable.sol\":6564:6581  enableWhitelist() */\n      jump\t// in\n    tag_319:\n        /* \"Base/Token/CandyCreator721AUpgradeable.sol\":6601:6633  placeholderURI = _placeholderURI */\n      dup10\n      mload\n      tag_320\n      swap1\n        /* \"Base/Token/CandyCreator721AUpgradeable.sol\":6601:6615  placeholderURI */\n      0xfd\n      swap1\n        /* \"Base/Token/CandyCreator721AUpgradeable.sol\":6601:6633  placeholderURI = _placeholderURI */\n      0x20\n      dup14\n      add\n      swap1\n      tag_321\n      jump\t// in\n    tag_320:\n      pop\n        /* \"Base/Token/CandyCreator721AUpgradeable.sol\":6643:6652  mintPrice */\n      0x0100\n        /* \"Base/Token/CandyCreator721AUpgradeable.sol\":6643:6665  mintPrice = _mintPrice */\n      dup10\n      swap1\n      sstore\n        /* \"Base/Token/CandyCreator721AUpgradeable.sol\":6675:6683  mintSize */\n      0x0101\n        /* \"Base/Token/CandyCreator721AUpgradeable.sol\":6675:6695  mintSize = _mintSize */\n      dup9\n      swap1\n      sstore\n        /* \"Base/Token/CandyCreator721AUpgradeable.sol\":6705:6719  maxPublicMints */\n      0xff\n        /* \"Base/Token/CandyCreator721AUpgradeable.sol\":6705:6737  maxPublicMints = _maxPublicMints */\n      dup5\n      swap1\n      sstore\n        /* \"Base/Token/CandyCreator721AUpgradeable.sol\":6747:6764  maxWhitelistMints */\n      0x0102\n        /* \"Base/Token/CandyCreator721AUpgradeable.sol\":6747:6785  maxWhitelistMints = _maxWhitelistMints */\n      dup1\n      sload\n      not(0xffffffffffffffff)\n      and\n      sub(shl(0x40, 0x01), 0x01)\n      dup6\n      and\n      or\n      swap1\n      sstore\n        /* \"@openzeppelin/contracts-upgradeable/proxy/utils/Initializable.sol\":2645:2711  if (isTopLevelCall) {... */\n      dup1\n      iszero\n      tag_322\n      jumpi\n        /* \"@openzeppelin/contracts-upgradeable/proxy/utils/Initializable.sol\":2695:2700  false */\n      0x00\n        /* \"@openzeppelin/contracts-upgradeable/proxy/utils/Initializable.sol\":2679:2700  _initializing = false */\n      dup1\n      sload\n      not(0xff00)\n      and\n      swap1\n      sstore\n        /* \"@openzeppelin/contracts-upgradeable/proxy/utils/Initializable.sol\":2645:2711  if (isTopLevelCall) {... */\n    tag_322:\n        /* \"@openzeppelin/contracts-upgradeable/proxy/utils/Initializable.sol\":2080:2717  {... */\n      pop\n        /* \"Base/Token/CandyCreator721AUpgradeable.sol\":5532:6792  function initialize(... */\n      pop\n      pop\n      pop\n      pop\n      pop\n      pop\n      pop\n      pop\n      pop\n      pop\n      pop\n      jump\t// out\n        /* \"Base/Token/CandyCreator721AUpgradeable.sol\":8632:9572  function whitelistMint(bytes32[] calldata merkleProof, uint64 amount)... */\n    tag_110:\n        /* \"Base/Token/CandyCreator721AUpgradeable.sol\":8754:8767  mintingActive */\n      sload(0x0102)\n      shl(0x48, 0x01)\n      swap1\n      div\n      0xff\n      and\n        /* \"Base/Token/CandyCreator721AUpgradeable.sol\":8749:8794  if (!mintingActive) revert MintingNotActive() */\n      tag_328\n      jumpi\n        /* \"Base/Token/CandyCreator721AUpgradeable.sol\":8776:8794  MintingNotActive() */\n      mload(0x40)\n      shl(0xe0, 0x73020e4b)\n      dup2\n      mstore\n      0x04\n      add\n      mload(0x40)\n      dup1\n      swap2\n      sub\n      swap1\n      revert\n        /* \"Base/Token/CandyCreator721AUpgradeable.sol\":8749:8794  if (!mintingActive) revert MintingNotActive() */\n    tag_328:\n        /* \"Base/Token/CandyCreator721AUpgradeable.sol\":8809:8824  whitelistActive */\n      sload(0x0102)\n      shl(0x40, 0x01)\n      swap1\n      div\n      0xff\n      and\n        /* \"Base/Token/CandyCreator721AUpgradeable.sol\":8804:8855  if (!whitelistActive) revert WhitelistNotRequired() */\n      tag_329\n      jumpi\n        /* \"Base/Token/CandyCreator721AUpgradeable.sol\":8833:8855  WhitelistNotRequired() */\n      mload(0x40)\n      shl(0xe1, 0x41a334cd)\n      dup2\n      mstore\n      0x04\n      add\n      mload(0x40)\n      dup1\n      swap2\n      sub\n      swap1\n      revert\n        /* \"Base/Token/CandyCreator721AUpgradeable.sol\":8804:8855  if (!whitelistActive) revert WhitelistNotRequired() */\n    tag_329:\n        /* \"Base/Token/CandyCreator721AUpgradeable.sol\":8896:8902  amount */\n      dup1\n      sub(shl(0x40, 0x01), 0x01)\n        /* \"Base/Token/CandyCreator721AUpgradeable.sol\":8884:8902  mintPrice * amount */\n      and\n        /* \"Base/Token/CandyCreator721AUpgradeable.sol\":8884:8893  mintPrice */\n      sload(0x0100)\n        /* \"Base/Token/CandyCreator721AUpgradeable.sol\":8884:8902  mintPrice * amount */\n      tag_330\n      swap2\n      swap1\n      tag_331\n      jump\t// in\n    tag_330:\n        /* \"@openzeppelin/contracts-upgradeable/utils/ContextUpgradeable.sol\":1132:1141  msg.value */\n      callvalue\n        /* \"Base/Token/CandyCreator721AUpgradeable.sol\":8869:8902  _msgValue() != mintPrice * amount */\n      eq\n        /* \"Base/Token/CandyCreator721AUpgradeable.sol\":8865:8925  if (_msgValue() != mintPrice * amount) revert WrongPayment() */\n      tag_333\n      jumpi\n        /* \"Base/Token/CandyCreator721AUpgradeable.sol\":8911:8925  WrongPayment() */\n      mload(0x40)\n      shl(0xe0, 0x788a686f)\n      dup2\n      mstore\n      0x04\n      add\n      mload(0x40)\n      dup1\n      swap2\n      sub\n      swap1\n      revert\n        /* \"Base/Token/CandyCreator721AUpgradeable.sol\":8865:8925  if (_msgValue() != mintPrice * amount) revert WrongPayment() */\n    tag_333:\n        /* \"Base/Token/CandyCreator721AUpgradeable.sol\":8964:8972  mintSize */\n      sload(0x0101)\n        /* \"Base/Token/CandyCreator721AUpgradeable.sol\":8955:8961  amount */\n      dup2\n      sub(shl(0x40, 0x01), 0x01)\n        /* \"Base/Token/CandyCreator721AUpgradeable.sol\":8939:8961  totalSupply() + amount */\n      and\n        /* \"Base/Token/CandyCreator721AUpgradeable.sol\":8939:8952  totalSupply() */\n      tag_334\n        /* \"Base/Token/ERC721A/ERC721AUpgradeable.sol\":3029:3041  _burnCounter */\n      sload(0x98)\n        /* \"Base/Token/ERC721A/ERC721AUpgradeable.sol\":3013:3026  _currentIndex */\n      sload(0x97)\n        /* \"Base/Token/ERC721A/ERC721AUpgradeable.sol\":3013:3041  _currentIndex - _burnCounter */\n      sub\n      not(0x00)\n        /* \"Base/Token/ERC721A/ERC721AUpgradeable.sol\":3013:3059  _currentIndex - _burnCounter - _startTokenId() */\n      add\n      swap1\n        /* \"Base/Token/ERC721A/ERC721AUpgradeable.sol\":2779:3076  function totalSupply() public view returns (uint256) {... */\n      jump\n        /* \"Base/Token/CandyCreator721AUpgradeable.sol\":8939:8952  totalSupply() */\n    tag_334:\n        /* \"Base/Token/CandyCreator721AUpgradeable.sol\":8939:8961  totalSupply() + amount */\n      tag_335\n      swap2\n      swap1\n      tag_336\n      jump\t// in\n    tag_335:\n        /* \"Base/Token/CandyCreator721AUpgradeable.sol\":8939:8972  totalSupply() + amount > mintSize */\n      gt\n        /* \"Base/Token/CandyCreator721AUpgradeable.sol\":8935:9002  if (totalSupply() + amount > mintSize) revert WouldExceedMintSize() */\n      iszero\n      tag_337\n      jumpi\n        /* \"Base/Token/CandyCreator721AUpgradeable.sol\":8981:9002  WouldExceedMintSize() */\n      mload(0x40)\n      shl(0xe2, 0x3b1e37bd)\n      dup2\n      mstore\n      0x04\n      add\n      mload(0x40)\n      dup1\n      swap2\n      sub\n      swap1\n      revert\n        /* \"Base/Token/CandyCreator721AUpgradeable.sol\":8935:9002  if (totalSupply() + amount > mintSize) revert WouldExceedMintSize() */\n    tag_337:\n        /* \"Base/Token/CandyCreator721AUpgradeable.sol\":9025:9042  maxWhitelistMints */\n      sload(0x0102)\n      sub(shl(0x40, 0x01), 0x01)\n      swap1\n      dup2\n      and\n        /* \"Base/Token/CandyCreator721AUpgradeable.sol\":9016:9042  amount > maxWhitelistMints */\n      swap1\n      dup3\n      and\n      gt\n        /* \"Base/Token/CandyCreator721AUpgradeable.sol\":9012:9077  if (amount > maxWhitelistMints) revert ExceedsMaxWhitelistMints() */\n      iszero\n      tag_338\n      jumpi\n        /* \"Base/Token/CandyCreator721AUpgradeable.sol\":9051:9077  ExceedsMaxWhitelistMints() */\n      mload(0x40)\n      shl(0xe1, 0x0e7b98a5)\n      dup2\n      mstore\n      0x04\n      add\n      mload(0x40)\n      dup1\n      swap2\n      sub\n      swap1\n      revert\n        /* \"Base/Token/CandyCreator721AUpgradeable.sol\":9012:9077  if (amount > maxWhitelistMints) revert ExceedsMaxWhitelistMints() */\n    tag_338:\n        /* \"Base/Token/CandyCreator721AUpgradeable.sol\":9105:9273  MerkleProofUpgradeable.verify(... */\n      tag_339\n        /* \"Base/Token/CandyCreator721AUpgradeable.sol\":9152:9163  merkleProof */\n      dup4\n      dup4\n        /* \"Base/Token/CandyCreator721AUpgradeable.sol\":9105:9273  MerkleProofUpgradeable.verify(... */\n      dup1\n      dup1\n      0x20\n      mul\n      0x20\n      add\n      mload(0x40)\n      swap1\n      dup2\n      add\n      0x40\n      mstore\n      dup1\n      swap4\n      swap3\n      swap2\n      swap1\n      dup2\n      dup2\n      mstore\n      0x20\n      add\n      dup4\n      dup4\n      0x20\n      mul\n      dup1\n      dup3\n      dup5\n      calldatacopy\n      0x00\n      swap3\n      add\n      swap2\n      swap1\n      swap2\n      mstore\n      pop\n      pop\n        /* \"Base/Token/CandyCreator721AUpgradeable.sol\":9181:9200  whitelistMerkleRoot */\n      sload(0xfe)\n        /* \"Base/Token/CandyCreator721AUpgradeable.sol\":9228:9258  abi.encodePacked(_msgSender()) */\n      mload(0x40)\n      not(0xffffffffffffffffffffffff)\n        /* \"@openzeppelin/contracts-upgradeable/utils/ContextUpgradeable.sol\":929:939  msg.sender */\n      caller\n        /* \"#utility.yul\":12420:12422   */\n      0x60\n        /* \"#utility.yul\":12416:12431   */\n      shl\n        /* \"#utility.yul\":12412:12465   */\n      and\n        /* \"Base/Token/CandyCreator721AUpgradeable.sol\":9228:9258  abi.encodePacked(_msgSender()) */\n      0x20\n      dup3\n      add\n        /* \"#utility.yul\":12400:12466   */\n      mstore\n        /* \"Base/Token/CandyCreator721AUpgradeable.sol\":9181:9200  whitelistMerkleRoot */\n      swap1\n      swap3\n      pop\n        /* \"#utility.yul\":12482:12494   */\n      0x34\n      add\n      swap1\n      pop\n        /* \"Base/Token/CandyCreator721AUpgradeable.sol\":9228:9258  abi.encodePacked(_msgSender()) */\n      mload(0x40)\n      0x20\n      dup2\n      dup4\n      sub\n      sub\n      dup2\n      mstore\n      swap1\n      0x40\n      mstore\n        /* \"Base/Token/CandyCreator721AUpgradeable.sol\":9218:9259  keccak256(abi.encodePacked(_msgSender())) */\n      dup1\n      mload\n      swap1\n      0x20\n      add\n      keccak256\n        /* \"Base/Token/CandyCreator721AUpgradeable.sol\":9105:9134  MerkleProofUpgradeable.verify */\n      tag_343\n        /* \"Base/Token/CandyCreator721AUpgradeable.sol\":9105:9273  MerkleProofUpgradeable.verify(... */\n      jump\t// in\n    tag_339:\n        /* \"Base/Token/CandyCreator721AUpgradeable.sol\":9087:9307  if (... */\n      tag_344\n      jumpi\n        /* \"Base/Token/CandyCreator721AUpgradeable.sol\":9291:9307  NotWhitelisted() */\n      mload(0x40)\n      shl(0xe3, 0x0b094f27)\n      dup2\n      mstore\n      0x04\n      add\n      mload(0x40)\n      dup1\n      swap2\n      sub\n      swap1\n      revert\n        /* \"Base/Token/CandyCreator721AUpgradeable.sol\":9087:9307  if (... */\n    tag_344:\n        /* \"@openzeppelin/contracts-upgradeable/utils/ContextUpgradeable.sol\":929:939  msg.sender */\n      caller\n        /* \"Base/Token/CandyCreator721AUpgradeable.sol\":9317:9342  uint64 numWhitelistMinted */\n      0x00\n        /* \"Base/Token/ERC721A/ERC721AUpgradeable.sol\":4747:4766  _addressData[owner] */\n      swap1\n      dup2\n      mstore\n        /* \"Base/Token/ERC721A/ERC721AUpgradeable.sol\":4747:4759  _addressData */\n      0x9c\n        /* \"Base/Token/ERC721A/ERC721AUpgradeable.sol\":4747:4766  _addressData[owner] */\n      0x20\n      mstore\n      0x40\n      dup2\n      keccak256\n        /* \"Base/Token/ERC721A/ERC721AUpgradeable.sol\":4747:4770  _addressData[owner].aux */\n      sload\n        /* \"Base/Token/CandyCreator721AUpgradeable.sol\":9369:9375  amount */\n      dup3\n      swap1\n      shl(0xc0, 0x01)\n        /* \"Base/Token/ERC721A/ERC721AUpgradeable.sol\":4747:4770  _addressData[owner].aux */\n      swap1\n      div\n      sub(shl(0x40, 0x01), 0x01)\n      and\n        /* \"Base/Token/CandyCreator721AUpgradeable.sol\":9345:9375  _getAux(_msgSender()) + amount */\n      tag_348\n      swap2\n      swap1\n      tag_349\n      jump\t// in\n    tag_348:\n        /* \"Base/Token/CandyCreator721AUpgradeable.sol\":9410:9427  maxWhitelistMints */\n      sload(0x0102)\n        /* \"Base/Token/CandyCreator721AUpgradeable.sol\":9317:9375  uint64 numWhitelistMinted = _getAux(_msgSender()) + amount */\n      swap1\n      swap2\n      pop\n      sub(shl(0x40, 0x01), 0x01)\n        /* \"Base/Token/CandyCreator721AUpgradeable.sol\":9410:9427  maxWhitelistMints */\n      swap1\n      dup2\n      and\n        /* \"Base/Token/CandyCreator721AUpgradeable.sol\":9389:9427  numWhitelistMinted > maxWhitelistMints */\n      swap1\n      dup3\n      and\n      gt\n        /* \"Base/Token/CandyCreator721AUpgradeable.sol\":9385:9473  if (numWhitelistMinted > maxWhitelistMints)... */\n      iszero\n      tag_350\n      jumpi\n        /* \"Base/Token/CandyCreator721AUpgradeable.sol\":9448:9473  NotEnoughWhitelistSlots() */\n      mload(0x40)\n      shl(0xe1, 0x4026a7cf)\n      dup2\n      mstore\n      0x04\n      add\n      mload(0x40)\n      dup1\n      swap2\n      sub\n      swap1\n      revert\n        /* \"Base/Token/CandyCreator721AUpgradeable.sol\":9385:9473  if (numWhitelistMinted > maxWhitelistMints)... */\n    tag_350:\n        /* \"Base/Token/CandyCreator721AUpgradeable.sol\":9483:9514  _safeMint(_msgSender(), amount) */\n      tag_351\n        /* \"@openzeppelin/contracts-upgradeable/utils/ContextUpgradeable.sol\":929:939  msg.sender */\n      caller\n        /* \"Base/Token/CandyCreator721AUpgradeable.sol\":9507:9513  amount */\n      dup4\n      sub(shl(0x40, 0x01), 0x01)\n        /* \"Base/Token/CandyCreator721AUpgradeable.sol\":9483:9514  _safeMint(_msgSender(), amount) */\n      and\n        /* \"Base/Token/CandyCreator721AUpgradeable.sol\":9483:9492  _safeMint */\n      tag_353\n        /* \"Base/Token/CandyCreator721AUpgradeable.sol\":9483:9514  _safeMint(_msgSender(), amount) */\n      jump\t// in\n    tag_351:\n        /* \"Base/Token/CandyCreator721AUpgradeable.sol\":9524:9565  _setAux(_msgSender(), numWhitelistMinted) */\n      tag_354\n        /* \"@openzeppelin/contracts-upgradeable/utils/ContextUpgradeable.sol\":929:939  msg.sender */\n      caller\n      sub(shl(0xa0, 0x01), 0x01)\n        /* \"Base/Token/ERC721A/ERC721AUpgradeable.sol\":5022:5041  _addressData[owner] */\n      and\n      0x00\n      swap1\n      dup2\n      mstore\n        /* \"Base/Token/ERC721A/ERC721AUpgradeable.sol\":5022:5034  _addressData */\n      0x9c\n        /* \"Base/Token/ERC721A/ERC721AUpgradeable.sol\":5022:5041  _addressData[owner] */\n      0x20\n      mstore\n      0x40\n      swap1\n      keccak256\n        /* \"Base/Token/ERC721A/ERC721AUpgradeable.sol\":5022:5051  _addressData[owner].aux = aux */\n      dup1\n      sload\n      sub(shl(0xc0, 0x01), 0x01)\n      and\n      shl(0xc0, 0x01)\n      sub(shl(0x40, 0x01), 0x01)\n      dup6\n      and\n      mul\n      or\n      swap1\n      sstore\n        /* \"Base/Token/ERC721A/ERC721AUpgradeable.sol\":4959:5058  function _setAux(address owner, uint64 aux) internal {... */\n      jump\n        /* \"Base/Token/CandyCreator721AUpgradeable.sol\":9524:9565  _setAux(_msgSender(), numWhitelistMinted) */\n    tag_354:\n        /* \"Base/Token/CandyCreator721AUpgradeable.sol\":8739:9572  {... */\n      pop\n        /* \"Base/Token/CandyCreator721AUpgradeable.sol\":8632:9572  function whitelistMint(bytes32[] calldata merkleProof, uint64 amount)... */\n      pop\n      pop\n      pop\n      jump\t// out\n        /* \"Base/Token/ERC721A/ERC721AUpgradeable.sol\":8886:9050  function transferFrom(... */\n    tag_115:\n        /* \"Base/Token/ERC721A/ERC721AUpgradeable.sol\":9015:9043  _transfer(from, to, tokenId) */\n      tag_300\n        /* \"Base/Token/ERC721A/ERC721AUpgradeable.sol\":9025:9029  from */\n      dup4\n        /* \"Base/Token/ERC721A/ERC721AUpgradeable.sol\":9031:9033  to */\n      dup4\n        /* \"Base/Token/ERC721A/ERC721AUpgradeable.sol\":9035:9042  tokenId */\n      dup4\n        /* \"Base/Token/ERC721A/ERC721AUpgradeable.sol\":9015:9024  _transfer */\n      tag_359\n        /* \"Base/Token/ERC721A/ERC721AUpgradeable.sol\":9015:9043  _transfer(from, to, tokenId) */\n      jump\t// in\n        /* \"Base/Royalties/CandyCollection2981RoyaltiesUpgradeable.sol\":2605:2879  function royaltyInfo(... */\n    tag_120:\n        /* \"Base/Royalties/CandyCollection2981RoyaltiesUpgradeable.sol\":2799:2813  royaltyAddress */\n      sload(0xfa)\n        /* \"Base/Royalties/CandyCollection2981RoyaltiesUpgradeable.sol\":2848:2866  royaltyBasisPoints */\n      sload(0xfb)\n      sub(shl(0xa0, 0x01), 0x01)\n        /* \"Base/Royalties/CandyCollection2981RoyaltiesUpgradeable.sol\":2799:2813  royaltyAddress */\n      swap1\n      swap2\n      and\n      swap1\n        /* \"Base/Royalties/CandyCollection2981RoyaltiesUpgradeable.sol\":2734:2750  address receiver */\n      0x00\n      swap1\n        /* \"Base/Royalties/CandyCollection2981RoyaltiesUpgradeable.sol\":2869:2874  10000 */\n      0x2710\n      swap1\n        /* \"Base/Royalties/CandyCollection2981RoyaltiesUpgradeable.sol\":2835:2866  _salePrice * royaltyBasisPoints */\n      tag_361\n      swap1\n        /* \"Base/Royalties/CandyCollection2981RoyaltiesUpgradeable.sol\":2835:2845  _salePrice */\n      dup6\n        /* \"Base/Royalties/CandyCollection2981RoyaltiesUpgradeable.sol\":2835:2866  _salePrice * royaltyBasisPoints */\n      tag_331\n      jump\t// in\n    tag_361:\n        /* \"Base/Royalties/CandyCollection2981RoyaltiesUpgradeable.sol\":2835:2874  _salePrice * royaltyBasisPoints / 10000 */\n      tag_362\n      swap2\n      swap1\n      tag_363\n      jump\t// in\n    tag_362:\n        /* \"Base/Royalties/CandyCollection2981RoyaltiesUpgradeable.sol\":2819:2874  royaltyAmount = _salePrice * royaltyBasisPoints / 10000 */\n      swap1\n      pop\n        /* \"Base/Royalties/CandyCollection2981RoyaltiesUpgradeable.sol\":2605:2879  function royaltyInfo(... */\n      swap3\n      pop\n      swap3\n      swap1\n      pop\n      jump\t// out\n        /* \"Base/Token/CandyCreator721AUpgradeable.sol\":9786:10220  function publicMint(uint256 amount) external payable {... */\n    tag_124:\n        /* \"Base/Token/CandyCreator721AUpgradeable.sol\":9853:9868  whitelistActive */\n      sload(0x0102)\n      shl(0x40, 0x01)\n      swap1\n      div\n      0xff\n      and\n        /* \"Base/Token/CandyCreator721AUpgradeable.sol\":9849:9896  if (whitelistActive) revert WhitelistRequired() */\n      iszero\n      tag_365\n      jumpi\n        /* \"Base/Token/CandyCreator721AUpgradeable.sol\":9877:9896  WhitelistRequired() */\n      mload(0x40)\n      shl(0xe0, 0x3c664d67)\n      dup2\n      mstore\n      0x04\n      add\n      mload(0x40)\n      dup1\n      swap2\n      sub\n      swap1\n      revert\n        /* \"Base/Token/CandyCreator721AUpgradeable.sol\":9849:9896  if (whitelistActive) revert WhitelistRequired() */\n    tag_365:\n        /* \"Base/Token/CandyCreator721AUpgradeable.sol\":9911:9924  mintingActive */\n      sload(0x0102)\n      shl(0x48, 0x01)\n      swap1\n      div\n      0xff\n      and\n        /* \"Base/Token/CandyCreator721AUpgradeable.sol\":9906:9951  if (!mintingActive) revert MintingNotActive() */\n      tag_366\n      jumpi\n        /* \"Base/Token/CandyCreator721AUpgradeable.sol\":9933:9951  MintingNotActive() */\n      mload(0x40)\n      shl(0xe0, 0x73020e4b)\n      dup2\n      mstore\n      0x04\n      add\n      mload(0x40)\n      dup1\n      swap2\n      sub\n      swap1\n      revert\n        /* \"Base/Token/CandyCreator721AUpgradeable.sol\":9906:9951  if (!mintingActive) revert MintingNotActive() */\n    tag_366:\n        /* \"Base/Token/CandyCreator721AUpgradeable.sol\":9992:9998  amount */\n      dup1\n        /* \"Base/Token/CandyCreator721AUpgradeable.sol\":9980:9989  mintPrice */\n      sload(0x0100)\n        /* \"Base/Token/CandyCreator721AUpgradeable.sol\":9980:9998  mintPrice * amount */\n      tag_367\n      swap2\n      swap1\n      tag_331\n      jump\t// in\n    tag_367:\n        /* \"@openzeppelin/contracts-upgradeable/utils/ContextUpgradeable.sol\":1132:1141  msg.value */\n      callvalue\n        /* \"Base/Token/CandyCreator721AUpgradeable.sol\":9965:9998  _msgValue() != mintPrice * amount */\n      eq\n        /* \"Base/Token/CandyCreator721AUpgradeable.sol\":9961:10021  if (_msgValue() != mintPrice * amount) revert WrongPayment() */\n      tag_369\n      jumpi\n        /* \"Base/Token/CandyCreator721AUpgradeable.sol\":10007:10021  WrongPayment() */\n      mload(0x40)\n      shl(0xe0, 0x788a686f)\n      dup2\n      mstore\n      0x04\n      add\n      mload(0x40)\n      dup1\n      swap2\n      sub\n      swap1\n      revert\n        /* \"Base/Token/CandyCreator721AUpgradeable.sol\":9961:10021  if (_msgValue() != mintPrice * amount) revert WrongPayment() */\n    tag_369:\n        /* \"Base/Token/CandyCreator721AUpgradeable.sol\":10060:10068  mintSize */\n      sload(0x0101)\n        /* \"Base/Token/CandyCreator721AUpgradeable.sol\":10051:10057  amount */\n      dup2\n        /* \"Base/Token/CandyCreator721AUpgradeable.sol\":10035:10048  totalSupply() */\n      tag_370\n        /* \"Base/Token/ERC721A/ERC721AUpgradeable.sol\":3029:3041  _burnCounter */\n      sload(0x98)\n        /* \"Base/Token/ERC721A/ERC721AUpgradeable.sol\":3013:3026  _currentIndex */\n      sload(0x97)\n        /* \"Base/Token/ERC721A/ERC721AUpgradeable.sol\":3013:3041  _currentIndex - _burnCounter */\n      sub\n      not(0x00)\n        /* \"Base/Token/ERC721A/ERC721AUpgradeable.sol\":3013:3059  _currentIndex - _burnCounter - _startTokenId() */\n      add\n      swap1\n        /* \"Base/Token/ERC721A/ERC721AUpgradeable.sol\":2779:3076  function totalSupply() public view returns (uint256) {... */\n      jump\n        /* \"Base/Token/CandyCreator721AUpgradeable.sol\":10035:10048  totalSupply() */\n    tag_370:\n        /* \"Base/Token/CandyCreator721AUpgradeable.sol\":10035:10057  totalSupply() + amount */\n      tag_371\n      swap2\n      swap1\n      tag_336\n      jump\t// in\n    tag_371:\n        /* \"Base/Token/CandyCreator721AUpgradeable.sol\":10035:10068  totalSupply() + amount > mintSize */\n      gt\n        /* \"Base/Token/CandyCreator721AUpgradeable.sol\":10031:10098  if (totalSupply() + amount > mintSize) revert WouldExceedMintSize() */\n      iszero\n      tag_372\n      jumpi\n        /* \"Base/Token/CandyCreator721AUpgradeable.sol\":10077:10098  WouldExceedMintSize() */\n      mload(0x40)\n      shl(0xe2, 0x3b1e37bd)\n      dup2\n      mstore\n      0x04\n      add\n      mload(0x40)\n      dup1\n      swap2\n      sub\n      swap1\n      revert\n        /* \"Base/Token/CandyCreator721AUpgradeable.sol\":10031:10098  if (totalSupply() + amount > mintSize) revert WouldExceedMintSize() */\n    tag_372:\n        /* \"Base/Token/CandyCreator721AUpgradeable.sol\":10121:10135  maxPublicMints */\n      sload(0xff)\n        /* \"Base/Token/CandyCreator721AUpgradeable.sol\":10112:10118  amount */\n      dup2\n        /* \"Base/Token/CandyCreator721AUpgradeable.sol\":10112:10135  amount > maxPublicMints */\n      gt\n        /* \"Base/Token/CandyCreator721AUpgradeable.sol\":10108:10172  if (amount > maxPublicMints) revert ExceedsMaxTransactionMints() */\n      iszero\n      tag_373\n      jumpi\n        /* \"Base/Token/CandyCreator721AUpgradeable.sol\":10144:10172  ExceedsMaxTransactionMints() */\n      mload(0x40)\n      shl(0xe1, 0x2193c2c5)\n      dup2\n      mstore\n      0x04\n      add\n      mload(0x40)\n      dup1\n      swap2\n      sub\n      swap1\n      revert\n        /* \"Base/Token/CandyCreator721AUpgradeable.sol\":10108:10172  if (amount > maxPublicMints) revert ExceedsMaxTransactionMints() */\n    tag_373:\n        /* \"Base/Token/CandyCreator721AUpgradeable.sol\":10182:10213  _safeMint(_msgSender(), amount) */\n      tag_374\n        /* \"@openzeppelin/contracts-upgradeable/utils/ContextUpgradeable.sol\":929:939  msg.sender */\n      caller\n        /* \"Base/Token/CandyCreator721AUpgradeable.sol\":10206:10212  amount */\n      dup3\n        /* \"Base/Token/CandyCreator721AUpgradeable.sol\":10182:10191  _safeMint */\n      tag_353\n        /* \"Base/Token/CandyCreator721AUpgradeable.sol\":10182:10213  _safeMint(_msgSender(), amount) */\n      jump\t// in\n    tag_374:\n        /* \"Base/Token/CandyCreator721AUpgradeable.sol\":9786:10220  function publicMint(uint256 amount) external payable {... */\n      pop\n      jump\t// out\n        /* \"Base/Token/ERC721A/ERC721AUpgradeable.sol\":9116:9295  function safeTransferFrom(... */\n    tag_132:\n        /* \"Base/Token/ERC721A/ERC721AUpgradeable.sol\":9249:9288  safeTransferFrom(from, to, tokenId, '') */\n      tag_300\n        /* \"Base/Token/ERC721A/ERC721AUpgradeable.sol\":9266:9270  from */\n      dup4\n        /* \"Base/Token/ERC721A/ERC721AUpgradeable.sol\":9272:9274  to */\n      dup4\n        /* \"Base/Token/ERC721A/ERC721AUpgradeable.sol\":9276:9283  tokenId */\n      dup4\n        /* \"Base/Token/ERC721A/ERC721AUpgradeable.sol\":9249:9288  safeTransferFrom(from, to, tokenId, '') */\n      mload(0x40)\n      dup1\n      0x20\n      add\n      0x40\n      mstore\n      dup1\n      0x00\n      dup2\n      mstore\n      pop\n        /* \"Base/Token/ERC721A/ERC721AUpgradeable.sol\":9249:9265  safeTransferFrom */\n      tag_223\n        /* \"Base/Token/ERC721A/ERC721AUpgradeable.sol\":9249:9288  safeTransferFrom(from, to, tokenId, '') */\n      jump\t// in\n        /* \"Base/Token/CandyCreator721AUpgradeable.sol\":18379:18609  function setMintSize(uint256 _amount) public onlyOwner {... */\n    tag_144:\n        /* \"@openzeppelin/contracts-upgradeable/access/OwnableUpgradeable.sol\":1348:1354  _owner */\n      and(sub(shl(0xa0, 0x01), 0x01), sload(0x33))\n        /* \"@openzeppelin/contracts-upgradeable/utils/ContextUpgradeable.sol\":929:939  msg.sender */\n      caller\n        /* \"@openzeppelin/contracts-upgradeable/access/OwnableUpgradeable.sol\":1488:1511  owner() == _msgSender() */\n      eq\n        /* \"@openzeppelin/contracts-upgradeable/access/OwnableUpgradeable.sol\":1480:1548  require(owner() == _msgSender(), \"Ownable: caller is not the owner\") */\n      tag_384\n      jumpi\n      mload(0x40)\n      shl(0xe5, 0x461bcd)\n      dup2\n      mstore\n      0x04\n      add\n      tag_308\n      swap1\n      tag_386\n      jump\t// in\n    tag_384:\n        /* \"Base/Token/CandyCreator721AUpgradeable.sol\":18458:18471  totalSupply() */\n      tag_388\n        /* \"Base/Token/ERC721A/ERC721AUpgradeable.sol\":3029:3041  _burnCounter */\n      sload(0x98)\n        /* \"Base/Token/ERC721A/ERC721AUpgradeable.sol\":3013:3026  _currentIndex */\n      sload(0x97)\n        /* \"Base/Token/ERC721A/ERC721AUpgradeable.sol\":3013:3041  _currentIndex - _burnCounter */\n      sub\n      not(0x00)\n        /* \"Base/Token/ERC721A/ERC721AUpgradeable.sol\":3013:3059  _currentIndex - _burnCounter - _startTokenId() */\n      add\n      swap1\n        /* \"Base/Token/ERC721A/ERC721AUpgradeable.sol\":2779:3076  function totalSupply() public view returns (uint256) {... */\n      jump\n        /* \"Base/Token/CandyCreator721AUpgradeable.sol\":18458:18471  totalSupply() */\n    tag_388:\n        /* \"Base/Token/CandyCreator721AUpgradeable.sol\":18448:18455  _amount */\n      dup2\n        /* \"Base/Token/CandyCreator721AUpgradeable.sol\":18448:18471  _amount < totalSupply() */\n      lt\n        /* \"Base/Token/CandyCreator721AUpgradeable.sol\":18444:18497  if (_amount < totalSupply()) revert InvalidMintSize() */\n      iszero\n      tag_389\n      jumpi\n        /* \"Base/Token/CandyCreator721AUpgradeable.sol\":18480:18497  InvalidMintSize() */\n      mload(0x40)\n      shl(0xe1, 0x351b51d7)\n      dup2\n      mstore\n      0x04\n      add\n      mload(0x40)\n      dup1\n      swap2\n      sub\n      swap1\n      revert\n        /* \"Base/Token/CandyCreator721AUpgradeable.sol\":18444:18497  if (_amount < totalSupply()) revert InvalidMintSize() */\n    tag_389:\n        /* \"Base/Token/CandyCreator721AUpgradeable.sol\":18521:18529  mintSize */\n      0x0101\n      dup1\n      sload\n        /* \"Base/Token/CandyCreator721AUpgradeable.sol\":18539:18557  mintSize = _amount */\n      swap1\n      dup3\n      swap1\n      sstore\n        /* \"Base/Token/CandyCreator721AUpgradeable.sol\":18572:18602  UpdatedMintSize(old, mintSize) */\n      0x40\n      dup1\n      mload\n        /* \"#utility.yul\":13538:13563   */\n      dup3\n      dup2\n      mstore\n        /* \"#utility.yul\":13594:13596   */\n      0x20\n        /* \"#utility.yul\":13579:13597   */\n      dup2\n      add\n        /* \"#utility.yul\":13572:13606   */\n      dup5\n      swap1\n      mstore\n        /* \"Base/Token/CandyCreator721AUpgradeable.sol\":18572:18602  UpdatedMintSize(old, mintSize) */\n      0x8d9cfb0dea274a0a02ddad1fc52c90100a28462c6421daa25fb101c740cf5851\n      swap2\n        /* \"#utility.yul\":13511:13529   */\n      add\n        /* \"Base/Token/CandyCreator721AUpgradeable.sol\":18572:18602  UpdatedMintSize(old, mintSize) */\n    tag_390:\n      mload(0x40)\n      dup1\n      swap2\n      sub\n      swap1\n      log1\n        /* \"Base/Token/CandyCreator721AUpgradeable.sol\":18434:18609  {... */\n      pop\n        /* \"Base/Token/CandyCreator721AUpgradeable.sol\":18379:18609  function setMintSize(uint256 _amount) public onlyOwner {... */\n      pop\n      jump\t// out\n        /* \"Base/Token/CandyCreator721AUpgradeable.sol\":18128:18219  function setBaseURI(string memory baseURI) public onlyOwner {... */\n    tag_149:\n        /* \"@openzeppelin/contracts-upgradeable/access/OwnableUpgradeable.sol\":1348:1354  _owner */\n      and(sub(shl(0xa0, 0x01), 0x01), sload(0x33))\n        /* \"@openzeppelin/contracts-upgradeable/utils/ContextUpgradeable.sol\":929:939  msg.sender */\n      caller\n        /* \"@openzeppelin/contracts-upgradeable/access/OwnableUpgradeable.sol\":1488:1511  owner() == _msgSender() */\n      eq\n        /* \"@openzeppelin/contracts-upgradeable/access/OwnableUpgradeable.sol\":1480:1548  require(owner() == _msgSender(), \"Ownable: caller is not the owner\") */\n      tag_395\n      jumpi\n      mload(0x40)\n      shl(0xe5, 0x461bcd)\n      dup2\n      mstore\n      0x04\n      add\n      tag_308\n      swap1\n      tag_386\n      jump\t// in\n    tag_395:\n        /* \"Base/Token/CandyCreator721AUpgradeable.sol\":18198:18212  base = baseURI */\n      dup1\n      mload\n      tag_398\n      swap1\n        /* \"Base/Token/CandyCreator721AUpgradeable.sol\":18198:18202  base */\n      0xfc\n      swap1\n        /* \"Base/Token/CandyCreator721AUpgradeable.sol\":18198:18212  base = baseURI */\n      0x20\n      dup5\n      add\n      swap1\n      tag_321\n      jump\t// in\n    tag_398:\n      pop\n        /* \"Base/Token/CandyCreator721AUpgradeable.sol\":18128:18219  function setBaseURI(string memory baseURI) public onlyOwner {... */\n      pop\n      jump\t// out\n        /* \"Base/Token/ERC721A/ERC721AUpgradeable.sol\":6395:6518  function ownerOf(uint256 tokenId) public view override returns (address) {... */\n    tag_157:\n        /* \"Base/Token/ERC721A/ERC721AUpgradeable.sol\":6459:6466  address */\n      0x00\n        /* \"Base/Token/ERC721A/ERC721AUpgradeable.sol\":6485:6506  _ownershipOf(tokenId) */\n      tag_401\n        /* \"Base/Token/ERC721A/ERC721AUpgradeable.sol\":6498:6505  tokenId */\n      dup3\n        /* \"Base/Token/ERC721A/ERC721AUpgradeable.sol\":6485:6497  _ownershipOf */\n      tag_402\n        /* \"Base/Token/ERC721A/ERC721AUpgradeable.sol\":6485:6506  _ownershipOf(tokenId) */\n      jump\t// in\n    tag_401:\n        /* \"Base/Token/ERC721A/ERC721AUpgradeable.sol\":6485:6511  _ownershipOf(tokenId).addr */\n      mload\n      swap3\n        /* \"Base/Token/ERC721A/ERC721AUpgradeable.sol\":6395:6518  function ownerOf(uint256 tokenId) public view override returns (address) {... */\n      swap2\n      pop\n      pop\n      jump\t// out\n        /* \"Base/Token/ERC721A/ERC721AUpgradeable.sol\":3911:4114  function balanceOf(address owner) public view override returns (uint256) {... */\n    tag_163:\n        /* \"Base/Token/ERC721A/ERC721AUpgradeable.sol\":3975:3982  uint256 */\n      0x00\n      sub(shl(0xa0, 0x01), 0x01)\n        /* \"Base/Token/ERC721A/ERC721AUpgradeable.sol\":3998:4017  owner == address(0) */\n      dup3\n      and\n        /* \"Base/Token/ERC721A/ERC721AUpgradeable.sol\":3994:4054  if (owner == address(0)) revert BalanceQueryForZeroAddress() */\n      tag_404\n      jumpi\n        /* \"Base/Token/ERC721A/ERC721AUpgradeable.sol\":4026:4054  BalanceQueryForZeroAddress() */\n      mload(0x40)\n      shl(0xe2, 0x23d3ad81)\n      dup2\n      mstore\n      0x04\n      add\n      mload(0x40)\n      dup1\n      swap2\n      sub\n      swap1\n      revert\n        /* \"Base/Token/ERC721A/ERC721AUpgradeable.sol\":3994:4054  if (owner == address(0)) revert BalanceQueryForZeroAddress() */\n    tag_404:\n      pop\n      sub(shl(0xa0, 0x01), 0x01)\n        /* \"Base/Token/ERC721A/ERC721AUpgradeable.sol\":4079:4098  _addressData[owner] */\n      and\n      0x00\n      swap1\n      dup2\n      mstore\n        /* \"Base/Token/ERC721A/ERC721AUpgradeable.sol\":4079:4091  _addressData */\n      0x9c\n        /* \"Base/Token/ERC721A/ERC721AUpgradeable.sol\":4079:4098  _addressData[owner] */\n      0x20\n      mstore\n      0x40\n      swap1\n      keccak256\n        /* \"Base/Token/ERC721A/ERC721AUpgradeable.sol\":4079:4106  _addressData[owner].balance */\n      sload\n      sub(shl(0x40, 0x01), 0x01)\n      and\n      swap1\n        /* \"Base/Token/ERC721A/ERC721AUpgradeable.sol\":3911:4114  function balanceOf(address owner) public view override returns (uint256) {... */\n      jump\t// out\n        /* \"@openzeppelin/contracts-upgradeable/access/OwnableUpgradeable.sol\":1908:2009  function renounceOwnership() public virtual onlyOwner {... */\n    tag_167:\n        /* \"@openzeppelin/contracts-upgradeable/access/OwnableUpgradeable.sol\":1348:1354  _owner */\n      and(sub(shl(0xa0, 0x01), 0x01), sload(0x33))\n        /* \"@openzeppelin/contracts-upgradeable/utils/ContextUpgradeable.sol\":929:939  msg.sender */\n      caller\n        /* \"@openzeppelin/contracts-upgradeable/access/OwnableUpgradeable.sol\":1488:1511  owner() == _msgSender() */\n      eq\n        /* \"@openzeppelin/contracts-upgradeable/access/OwnableUpgradeable.sol\":1480:1548  require(owner() == _msgSender(), \"Ownable: caller is not the owner\") */\n      tag_408\n      jumpi\n      mload(0x40)\n      shl(0xe5, 0x461bcd)\n      dup2\n      mstore\n      0x04\n      add\n      tag_308\n      swap1\n      tag_386\n      jump\t// in\n    tag_408:\n        /* \"@openzeppelin/contracts-upgradeable/access/OwnableUpgradeable.sol\":1972:2002  _transferOwnership(address(0)) */\n      tag_411\n        /* \"@openzeppelin/contracts-upgradeable/access/OwnableUpgradeable.sol\":1999:2000  0 */\n      0x00\n        /* \"@openzeppelin/contracts-upgradeable/access/OwnableUpgradeable.sol\":1972:1990  _transferOwnership */\n      tag_412\n        /* \"@openzeppelin/contracts-upgradeable/access/OwnableUpgradeable.sol\":1972:2002  _transferOwnership(address(0)) */\n      jump\t// in\n    tag_411:\n        /* \"@openzeppelin/contracts-upgradeable/access/OwnableUpgradeable.sol\":1908:2009  function renounceOwnership() public virtual onlyOwner {... */\n      jump\t// out\n        /* \"Base/Token/CandyCreator721AUpgradeable.sol\":15506:15730  function disableMinting() external onlyOwner {... */\n    tag_170:\n        /* \"@openzeppelin/contracts-upgradeable/access/OwnableUpgradeable.sol\":1348:1354  _owner */\n      and(sub(shl(0xa0, 0x01), 0x01), sload(0x33))\n        /* \"@openzeppelin/contracts-upgradeable/utils/ContextUpgradeable.sol\":929:939  msg.sender */\n      caller\n        /* \"@openzeppelin/contracts-upgradeable/access/OwnableUpgradeable.sol\":1488:1511  owner() == _msgSender() */\n      eq\n        /* \"@openzeppelin/contracts-upgradeable/access/OwnableUpgradeable.sol\":1480:1548  require(owner() == _msgSender(), \"Ownable: caller is not the owner\") */\n      tag_416\n      jumpi\n      mload(0x40)\n      shl(0xe5, 0x461bcd)\n      dup2\n      mstore\n      0x04\n      add\n      tag_308\n      swap1\n      tag_386\n      jump\t// in\n    tag_416:\n        /* \"Base/Token/CandyCreator721AUpgradeable.sol\":15566:15579  mintingActive */\n      sload(0x0102)\n      shl(0x48, 0x01)\n      swap1\n      div\n      0xff\n      and\n        /* \"Base/Token/CandyCreator721AUpgradeable.sol\":15561:15606  if (!mintingActive) revert MintingNotActive() */\n      tag_419\n      jumpi\n        /* \"Base/Token/CandyCreator721AUpgradeable.sol\":15588:15606  MintingNotActive() */\n      mload(0x40)\n      shl(0xe0, 0x73020e4b)\n      dup2\n      mstore\n      0x04\n      add\n      mload(0x40)\n      dup1\n      swap2\n      sub\n      swap1\n      revert\n        /* \"Base/Token/CandyCreator721AUpgradeable.sol\":15561:15606  if (!mintingActive) revert MintingNotActive() */\n    tag_419:\n        /* \"Base/Token/CandyCreator721AUpgradeable.sol\":15627:15640  mintingActive */\n      0x0102\n      dup1\n      sload\n      not(shl(0x48, 0xff))\n        /* \"Base/Token/CandyCreator721AUpgradeable.sol\":15650:15671  mintingActive = false */\n      dup2\n      and\n      swap2\n      dup3\n      swap1\n      sstore\n        /* \"Base/Token/CandyCreator721AUpgradeable.sol\":15686:15723  UpdatedMintStatus(old, mintingActive) */\n      0x40\n      dup1\n      mload\n        /* \"Base/Token/CandyCreator721AUpgradeable.sol\":15627:15640  mintingActive */\n      0xff\n      shl(0x48, 0x01)\n      swap4\n      dup5\n      swap1\n      div\n      dup2\n      and\n        /* \"#utility.yul\":13804:13818   */\n      dup1\n      iszero\n        /* \"#utility.yul\":13797:13819   */\n      iszero\n        /* \"#utility.yul\":13779:13820   */\n      dup4\n      mstore\n        /* \"Base/Token/CandyCreator721AUpgradeable.sol\":15709:15722  mintingActive */\n      swap4\n      swap1\n      swap5\n      div\n      swap1\n      swap4\n      and\n        /* \"#utility.yul\":13863:13877   */\n      iszero\n        /* \"#utility.yul\":13856:13878   */\n      iszero\n        /* \"#utility.yul\":13851:13853   */\n      0x20\n        /* \"#utility.yul\":13836:13854   */\n      dup5\n      add\n        /* \"#utility.yul\":13829:13879   */\n      mstore\n        /* \"Base/Token/CandyCreator721AUpgradeable.sol\":15627:15640  mintingActive */\n      swap1\n      swap2\n        /* \"Base/Token/CandyCreator721AUpgradeable.sol\":15686:15723  UpdatedMintStatus(old, mintingActive) */\n      0x1ab1d89be1fd19dcd21c73f1d6e927e3f148097e8691bbba925bd85e34e1f0e3\n      swap2\n        /* \"#utility.yul\":13752:13770   */\n      add\n        /* \"Base/Token/CandyCreator721AUpgradeable.sol\":15686:15723  UpdatedMintStatus(old, mintingActive) */\n    tag_420:\n      mload(0x40)\n      dup1\n      swap2\n      sub\n      swap1\n      log1\n        /* \"Base/Token/CandyCreator721AUpgradeable.sol\":15551:15730  {... */\n      pop\n        /* \"Base/Token/CandyCreator721AUpgradeable.sol\":15506:15730  function disableMinting() external onlyOwner {... */\n      jump\t// out\n        /* \"Base/Token/CandyCreator721AUpgradeable.sol\":12090:12155  function release() external onlyOwner {... */\n    tag_173:\n        /* \"@openzeppelin/contracts-upgradeable/access/OwnableUpgradeable.sol\":1348:1354  _owner */\n      and(sub(shl(0xa0, 0x01), 0x01), sload(0x33))\n        /* \"@openzeppelin/contracts-upgradeable/utils/ContextUpgradeable.sol\":929:939  msg.sender */\n      caller\n        /* \"@openzeppelin/contracts-upgradeable/access/OwnableUpgradeable.sol\":1488:1511  owner() == _msgSender() */\n      eq\n        /* \"@openzeppelin/contracts-upgradeable/access/OwnableUpgradeable.sol\":1480:1548  require(owner() == _msgSender(), \"Ownable: caller is not the owner\") */\n      tag_425\n      jumpi\n      mload(0x40)\n      shl(0xe5, 0x461bcd)\n      dup2\n      mstore\n      0x04\n      add\n      tag_308\n      swap1\n      tag_386\n      jump\t// in\n    tag_425:\n        /* \"Base/Token/CandyCreator721AUpgradeable.sol\":12138:12148  _release() */\n      tag_411\n        /* \"Base/Token/CandyCreator721AUpgradeable.sol\":12138:12146  _release */\n      tag_429\n        /* \"Base/Token/CandyCreator721AUpgradeable.sol\":12138:12148  _release() */\n      jump\t// in\n        /* \"Base/PaymentSplitter/CandyPaymentSplitterUpgradeable.sol\":5782:5880  function payee(uint256 index) public view returns (address) {... */\n    tag_177:\n        /* \"Base/PaymentSplitter/CandyPaymentSplitterUpgradeable.sol\":5833:5840  address */\n      0x00\n        /* \"Base/PaymentSplitter/CandyPaymentSplitterUpgradeable.sol\":5859:5866  _payees */\n      0xce\n        /* \"Base/PaymentSplitter/CandyPaymentSplitterUpgradeable.sol\":5867:5872  index */\n      dup3\n        /* \"Base/PaymentSplitter/CandyPaymentSplitterUpgradeable.sol\":5859:5873  _payees[index] */\n      dup2\n      sload\n      dup2\n      lt\n      tag_432\n      jumpi\n      tag_432\n      tag_433\n      jump\t// in\n    tag_432:\n      0x00\n      swap2\n      dup3\n      mstore\n      0x20\n      swap1\n      swap2\n      keccak256\n      add\n      sload\n      sub(shl(0xa0, 0x01), 0x01)\n      and\n      swap3\n        /* \"Base/PaymentSplitter/CandyPaymentSplitterUpgradeable.sol\":5782:5880  function payee(uint256 index) public view returns (address) {... */\n      swap2\n      pop\n      pop\n      jump\t// out\n        /* \"Base/Token/CandyCreator721AUpgradeable.sol\":15079:15207  function updatePlaceholder(string calldata _placeholderURI) external onlyOwner {... */\n    tag_187:\n        /* \"@openzeppelin/contracts-upgradeable/access/OwnableUpgradeable.sol\":1348:1354  _owner */\n      and(sub(shl(0xa0, 0x01), 0x01), sload(0x33))\n        /* \"@openzeppelin/contracts-upgradeable/utils/ContextUpgradeable.sol\":929:939  msg.sender */\n      caller\n        /* \"@openzeppelin/contracts-upgradeable/access/OwnableUpgradeable.sol\":1488:1511  owner() == _msgSender() */\n      eq\n        /* \"@openzeppelin/contracts-upgradeable/access/OwnableUpgradeable.sol\":1480:1548  require(owner() == _msgSender(), \"Ownable: caller is not the owner\") */\n      tag_439\n      jumpi\n      mload(0x40)\n      shl(0xe5, 0x461bcd)\n      dup2\n      mstore\n      0x04\n      add\n      tag_308\n      swap1\n      tag_386\n      jump\t// in\n    tag_439:\n        /* \"Base/Token/CandyCreator721AUpgradeable.sol\":15168:15200  placeholderURI = _placeholderURI */\n      tag_300\n        /* \"Base/Token/CandyCreator721AUpgradeable.sol\":15168:15182  placeholderURI */\n      0xfd\n        /* \"Base/Token/CandyCreator721AUpgradeable.sol\":15185:15200  _placeholderURI */\n      dup4\n      dup4\n        /* \"Base/Token/CandyCreator721AUpgradeable.sol\":15168:15200  placeholderURI = _placeholderURI */\n      tag_443\n      jump\t// in\n        /* \"Base/Token/CandyCreator721AUpgradeable.sol\":17047:17270  function setMaxWhitelistMints(uint64 _amount) public onlyOwner {... */\n    tag_192:\n        /* \"@openzeppelin/contracts-upgradeable/access/OwnableUpgradeable.sol\":1348:1354  _owner */\n      and(sub(shl(0xa0, 0x01), 0x01), sload(0x33))\n        /* \"@openzeppelin/contracts-upgradeable/utils/ContextUpgradeable.sol\":929:939  msg.sender */\n      caller\n        /* \"@openzeppelin/contracts-upgradeable/access/OwnableUpgradeable.sol\":1488:1511  owner() == _msgSender() */\n      eq\n        /* \"@openzeppelin/contracts-upgradeable/access/OwnableUpgradeable.sol\":1480:1548  require(owner() == _msgSender(), \"Ownable: caller is not the owner\") */\n      tag_447\n      jumpi\n      mload(0x40)\n      shl(0xe5, 0x461bcd)\n      dup2\n      mstore\n      0x04\n      add\n      tag_308\n      swap1\n      tag_386\n      jump\t// in\n    tag_447:\n        /* \"Base/Token/CandyCreator721AUpgradeable.sol\":17140:17157  maxWhitelistMints */\n      0x0102\n      dup1\n      sload\n      sub(shl(0x40, 0x01), 0x01)\n        /* \"Base/Token/CandyCreator721AUpgradeable.sol\":17167:17194  maxWhitelistMints = _amount */\n      dup4\n      dup2\n      and\n      not(0xffffffffffffffff)\n      dup4\n      and\n      dup2\n      or\n      swap1\n      swap4\n      sstore\n        /* \"Base/Token/CandyCreator721AUpgradeable.sol\":17209:17263  UpdatedMaxWhitelistMints(oldAmount, maxWhitelistMints) */\n      mload(0x40)\n        /* \"Base/Token/CandyCreator721AUpgradeable.sol\":17140:17157  maxWhitelistMints */\n      swap2\n      and\n      swap2\n        /* \"Base/Token/CandyCreator721AUpgradeable.sol\":17209:17263  UpdatedMaxWhitelistMints(oldAmount, maxWhitelistMints) */\n      0x3851f4a3ce1c8adce98754722ff6f348f4714fd4850d154c71045447d3042468\n      swap2\n      tag_390\n      swap2\n        /* \"Base/Token/CandyCreator721AUpgradeable.sol\":17140:17157  maxWhitelistMints */\n      dup5\n        /* \"#utility.yul\":14195:14220   */\n      dup3\n      mstore\n      sub(shl(0x40, 0x01), 0x01)\n        /* \"#utility.yul\":14256:14287   */\n      and\n        /* \"#utility.yul\":14251:14253   */\n      0x20\n        /* \"#utility.yul\":14236:14254   */\n      dup3\n      add\n        /* \"#utility.yul\":14229:14288   */\n      mstore\n        /* \"#utility.yul\":14183:14185   */\n      0x40\n        /* \"#utility.yul\":14168:14186   */\n      add\n      swap1\n        /* \"#utility.yul\":14022:14294   */\n      jump\n        /* \"Base/Token/ERC721A/ERC721AUpgradeable.sol\":6742:6844  function symbol() public view virtual override returns (string memory) {... */\n    tag_195:\n        /* \"Base/Token/ERC721A/ERC721AUpgradeable.sol\":6798:6811  string memory */\n      0x60\n        /* \"Base/Token/ERC721A/ERC721AUpgradeable.sol\":6830:6837  _symbol */\n      0x9a\n        /* \"Base/Token/ERC721A/ERC721AUpgradeable.sol\":6823:6837  return _symbol */\n      dup1\n      sload\n      tag_282\n      swap1\n      tag_283\n      jump\t// in\n        /* \"Base/Token/ERC721A/ERC721AUpgradeable.sol\":8314:8596  function setApprovalForAll(address operator, bool approved) public virtual override {... */\n    tag_214:\n        /* \"@openzeppelin/contracts-upgradeable/utils/ContextUpgradeable.sol\":929:939  msg.sender */\n      caller\n      sub(shl(0xa0, 0x01), 0x01)\n        /* \"Base/Token/ERC721A/ERC721AUpgradeable.sol\":8412:8436  operator == _msgSender() */\n      dup4\n      and\n      sub\n        /* \"Base/Token/ERC721A/ERC721AUpgradeable.sol\":8408:8462  if (operator == _msgSender()) revert ApproveToCaller() */\n      tag_463\n      jumpi\n        /* \"Base/Token/ERC721A/ERC721AUpgradeable.sol\":8445:8462  ApproveToCaller() */\n      mload(0x40)\n      shl(0xe0, 0xb06307db)\n      dup2\n      mstore\n      0x04\n      add\n      mload(0x40)\n      dup1\n      swap2\n      sub\n      swap1\n      revert\n        /* \"Base/Token/ERC721A/ERC721AUpgradeable.sol\":8408:8462  if (operator == _msgSender()) revert ApproveToCaller() */\n    tag_463:\n        /* \"@openzeppelin/contracts-upgradeable/utils/ContextUpgradeable.sol\":929:939  msg.sender */\n      caller\n        /* \"Base/Token/ERC721A/ERC721AUpgradeable.sol\":8473:8505  _operatorApprovals[_msgSender()] */\n      0x00\n      dup2\n      dup2\n      mstore\n        /* \"Base/Token/ERC721A/ERC721AUpgradeable.sol\":8473:8491  _operatorApprovals */\n      0x9e\n        /* \"Base/Token/ERC721A/ERC721AUpgradeable.sol\":8473:8505  _operatorApprovals[_msgSender()] */\n      0x20\n      swap1\n      dup2\n      mstore\n      0x40\n      dup1\n      dup4\n      keccak256\n      sub(shl(0xa0, 0x01), 0x01)\n        /* \"Base/Token/ERC721A/ERC721AUpgradeable.sol\":8473:8515  _operatorApprovals[_msgSender()][operator] */\n      dup8\n      and\n      dup1\n      dup6\n      mstore\n      swap1\n      dup4\n      mstore\n      swap3\n      dup2\n      swap1\n      keccak256\n        /* \"Base/Token/ERC721A/ERC721AUpgradeable.sol\":8473:8526  _operatorApprovals[_msgSender()][operator] = approved */\n      dup1\n      sload\n      not(0xff)\n      and\n      dup7\n      iszero\n      iszero\n      swap1\n      dup2\n      or\n      swap1\n      swap2\n      sstore\n        /* \"Base/Token/ERC721A/ERC721AUpgradeable.sol\":8541:8589  ApprovalForAll(_msgSender(), operator, approved) */\n      swap1\n      mload\n        /* \"#utility.yul\":819:860   */\n      swap1\n      dup2\n      mstore\n        /* \"Base/Token/ERC721A/ERC721AUpgradeable.sol\":8473:8515  _operatorApprovals[_msgSender()][operator] */\n      swap2\n      swap3\n        /* \"@openzeppelin/contracts-upgradeable/utils/ContextUpgradeable.sol\":929:939  msg.sender */\n      swap2\n        /* \"Base/Token/ERC721A/ERC721AUpgradeable.sol\":8541:8589  ApprovalForAll(_msgSender(), operator, approved) */\n      0x17307eab39ab6107e8899845ad3d59bd9653f200f220920489ca2b5937696c31\n      swap2\n        /* \"#utility.yul\":792:810   */\n      add\n        /* \"Base/Token/ERC721A/ERC721AUpgradeable.sol\":8541:8589  ApprovalForAll(_msgSender(), operator, approved) */\n      mload(0x40)\n      dup1\n      swap2\n      sub\n      swap1\n      log3\n        /* \"Base/Token/ERC721A/ERC721AUpgradeable.sol\":8314:8596  function setApprovalForAll(address operator, bool approved) public virtual override {... */\n      pop\n      pop\n      jump\t// out\n        /* \"Base/Token/CandyCreator721AUpgradeable.sol\":17667:17879  function setMaxPublicMints(uint256 _amount) public onlyOwner {... */\n    tag_218:\n        /* \"@openzeppelin/contracts-upgradeable/access/OwnableUpgradeable.sol\":1348:1354  _owner */\n      and(sub(shl(0xa0, 0x01), 0x01), sload(0x33))\n        /* \"@openzeppelin/contracts-upgradeable/utils/ContextUpgradeable.sol\":929:939  msg.sender */\n      caller\n        /* \"@openzeppelin/contracts-upgradeable/access/OwnableUpgradeable.sol\":1488:1511  owner() == _msgSender() */\n      eq\n        /* \"@openzeppelin/contracts-upgradeable/access/OwnableUpgradeable.sol\":1480:1548  require(owner() == _msgSender(), \"Ownable: caller is not the owner\") */\n      tag_470\n      jumpi\n      mload(0x40)\n      shl(0xe5, 0x461bcd)\n      dup2\n      mstore\n      0x04\n      add\n      tag_308\n      swap1\n      tag_386\n      jump\t// in\n    tag_470:\n        /* \"Base/Token/CandyCreator721AUpgradeable.sol\":17758:17772  maxPublicMints */\n      0xff\n      dup1\n      sload\n        /* \"Base/Token/CandyCreator721AUpgradeable.sol\":17782:17806  maxPublicMints = _amount */\n      swap1\n      dup3\n      swap1\n      sstore\n        /* \"Base/Token/CandyCreator721AUpgradeable.sol\":17854:17871  maxWhitelistMints */\n      sload(0x0102)\n        /* \"Base/Token/CandyCreator721AUpgradeable.sol\":17821:17872  UpdatedMaxPublicMints(oldAmount, maxWhitelistMints) */\n      0x40\n      dup1\n      mload\n        /* \"#utility.yul\":14195:14220   */\n      dup4\n      dup2\n      mstore\n      sub(shl(0x40, 0x01), 0x01)\n        /* \"Base/Token/CandyCreator721AUpgradeable.sol\":17854:17871  maxWhitelistMints */\n      swap1\n      swap3\n      and\n        /* \"#utility.yul\":14251:14253   */\n      0x20\n        /* \"#utility.yul\":14236:14254   */\n      dup4\n      add\n        /* \"#utility.yul\":14229:14288   */\n      mstore\n        /* \"Base/Token/CandyCreator721AUpgradeable.sol\":17821:17872  UpdatedMaxPublicMints(oldAmount, maxWhitelistMints) */\n      0x439b8b0b530562f8413db2651ab1e8dcae2719da0a2d2d3d3c068ca25c29969f\n      swap2\n        /* \"#utility.yul\":14168:14186   */\n      add\n        /* \"Base/Token/CandyCreator721AUpgradeable.sol\":17821:17872  UpdatedMaxPublicMints(oldAmount, maxWhitelistMints) */\n      tag_390\n        /* \"#utility.yul\":14022:14294   */\n      jump\n        /* \"Base/Token/ERC721A/ERC721AUpgradeable.sol\":9361:9720  function safeTransferFrom(... */\n    tag_223:\n        /* \"Base/Token/ERC721A/ERC721AUpgradeable.sol\":9522:9550  _transfer(from, to, tokenId) */\n      tag_475\n        /* \"Base/Token/ERC721A/ERC721AUpgradeable.sol\":9532:9536  from */\n      dup5\n        /* \"Base/Token/ERC721A/ERC721AUpgradeable.sol\":9538:9540  to */\n      dup5\n        /* \"Base/Token/ERC721A/ERC721AUpgradeable.sol\":9542:9549  tokenId */\n      dup5\n        /* \"Base/Token/ERC721A/ERC721AUpgradeable.sol\":9522:9531  _transfer */\n      tag_359\n        /* \"Base/Token/ERC721A/ERC721AUpgradeable.sol\":9522:9550  _transfer(from, to, tokenId) */\n      jump\t// in\n    tag_475:\n      sub(shl(0xa0, 0x01), 0x01)\n        /* \"Base/Token/ERC721A/ERC721AUpgradeable.sol\":9564:9577  to.isContract */\n      dup4\n      and\n        /* \"@openzeppelin/contracts-upgradeable/utils/AddressUpgradeable.sol\":1476:1495  account.code.length */\n      extcodesize\n        /* \"@openzeppelin/contracts-upgradeable/utils/AddressUpgradeable.sol\":1476:1499  account.code.length > 0 */\n      iszero\n      iszero\n        /* \"Base/Token/ERC721A/ERC721AUpgradeable.sol\":9564:9640  to.isContract() && !_checkContractOnERC721Received(from, to, tokenId, _data) */\n      dup1\n      iszero\n      tag_478\n      jumpi\n      pop\n        /* \"Base/Token/ERC721A/ERC721AUpgradeable.sol\":9584:9640  _checkContractOnERC721Received(from, to, tokenId, _data) */\n      tag_479\n        /* \"Base/Token/ERC721A/ERC721AUpgradeable.sol\":9615:9619  from */\n      dup5\n        /* \"Base/Token/ERC721A/ERC721AUpgradeable.sol\":9621:9623  to */\n      dup5\n        /* \"Base/Token/ERC721A/ERC721AUpgradeable.sol\":9625:9632  tokenId */\n      dup5\n        /* \"Base/Token/ERC721A/ERC721AUpgradeable.sol\":9634:9639  _data */\n      dup5\n        /* \"Base/Token/ERC721A/ERC721AUpgradeable.sol\":9584:9614  _checkContractOnERC721Received */\n      tag_480\n        /* \"Base/Token/ERC721A/ERC721AUpgradeable.sol\":9584:9640  _checkContractOnERC721Received(from, to, tokenId, _data) */\n      jump\t// in\n    tag_479:\n        /* \"Base/Token/ERC721A/ERC721AUpgradeable.sol\":9583:9640  !_checkContractOnERC721Received(from, to, tokenId, _data) */\n      iszero\n        /* \"Base/Token/ERC721A/ERC721AUpgradeable.sol\":9564:9640  to.isContract() && !_checkContractOnERC721Received(from, to, tokenId, _data) */\n    tag_478:\n        /* \"Base/Token/ERC721A/ERC721AUpgradeable.sol\":9560:9714  if (to.isContract() && !_checkContractOnERC721Received(from, to, tokenId, _data)) {... */\n      iszero\n      tag_354\n      jumpi\n        /* \"Base/Token/ERC721A/ERC721AUpgradeable.sol\":9663:9703  TransferToNonERC721ReceiverImplementer() */\n      mload(0x40)\n      shl(0xe1, 0x68d2bf6b)\n      dup2\n      mstore\n      0x04\n      add\n      mload(0x40)\n      dup1\n      swap2\n      sub\n      swap1\n      revert\n        /* \"Base/Token/CandyCreator721AUpgradeable.sol\":16661:16881  function setWhitelistMerkleRoot(bytes32 _merkleRoot) public onlyOwner {... */\n    tag_228:\n        /* \"@openzeppelin/contracts-upgradeable/access/OwnableUpgradeable.sol\":1348:1354  _owner */\n      and(sub(shl(0xa0, 0x01), 0x01), sload(0x33))\n        /* \"@openzeppelin/contracts-upgradeable/utils/ContextUpgradeable.sol\":929:939  msg.sender */\n      caller\n        /* \"@openzeppelin/contracts-upgradeable/access/OwnableUpgradeable.sol\":1488:1511  owner() == _msgSender() */\n      eq\n        /* \"@openzeppelin/contracts-upgradeable/access/OwnableUpgradeable.sol\":1480:1548  require(owner() == _msgSender(), \"Ownable: caller is not the owner\") */\n      tag_485\n      jumpi\n      mload(0x40)\n      shl(0xe5, 0x461bcd)\n      dup2\n      mstore\n      0x04\n      add\n      tag_308\n      swap1\n      tag_386\n      jump\t// in\n    tag_485:\n        /* \"Base/Token/CandyCreator721AUpgradeable.sol\":16755:16774  whitelistMerkleRoot */\n      0xfe\n      dup1\n      sload\n        /* \"Base/Token/CandyCreator721AUpgradeable.sol\":16784:16817  whitelistMerkleRoot = _merkleRoot */\n      swap1\n      dup3\n      swap1\n      sstore\n        /* \"Base/Token/CandyCreator721AUpgradeable.sol\":16832:16874  UpdatedWhitelist(old, whitelistMerkleRoot) */\n      0x40\n      dup1\n      mload\n        /* \"#utility.yul\":13538:13563   */\n      dup3\n      dup2\n      mstore\n        /* \"#utility.yul\":13594:13596   */\n      0x20\n        /* \"#utility.yul\":13579:13597   */\n      dup2\n      add\n        /* \"#utility.yul\":13572:13606   */\n      dup5\n      swap1\n      mstore\n        /* \"Base/Token/CandyCreator721AUpgradeable.sol\":16832:16874  UpdatedWhitelist(old, whitelistMerkleRoot) */\n      0x1e5d0194158313989f8568b586deb425fcd9a6b46a4e6e2c43f9becc480c6bc0\n      swap2\n        /* \"#utility.yul\":13511:13529   */\n      add\n        /* \"Base/Token/CandyCreator721AUpgradeable.sol\":16832:16874  UpdatedWhitelist(old, whitelistMerkleRoot) */\n      tag_390\n        /* \"#utility.yul\":13364:13612   */\n      jump\n        /* \"Base/Token/CandyCreator721AUpgradeable.sol\":23613:24201  function tokenURI(uint256 tokenId)... */\n    tag_232:\n        /* \"Base/Token/CandyCreator721AUpgradeable.sol\":23726:23739  string memory */\n      0x60\n        /* \"Base/Token/CandyCreator721AUpgradeable.sol\":23760:23776  _exists(tokenId) */\n      tag_491\n        /* \"Base/Token/CandyCreator721AUpgradeable.sol\":23768:23775  tokenId */\n      dup3\n        /* \"Base/Token/CandyCreator721AUpgradeable.sol\":23760:23767  _exists */\n      tag_290\n        /* \"Base/Token/CandyCreator721AUpgradeable.sol\":23760:23776  _exists(tokenId) */\n      jump\t// in\n    tag_491:\n        /* \"Base/Token/CandyCreator721AUpgradeable.sol\":23755:23803  if (!_exists(tokenId)) revert NonExistentToken() */\n      tag_492\n      jumpi\n        /* \"Base/Token/CandyCreator721AUpgradeable.sol\":23785:23803  NonExistentToken() */\n      mload(0x40)\n      shl(0xe1, 0x4a1850bf)\n      dup2\n      mstore\n      0x04\n      add\n      mload(0x40)\n      dup1\n      swap2\n      sub\n      swap1\n      revert\n        /* \"Base/Token/CandyCreator721AUpgradeable.sol\":23755:23803  if (!_exists(tokenId)) revert NonExistentToken() */\n    tag_492:\n        /* \"Base/Token/CandyCreator721AUpgradeable.sol\":23813:23834  string memory baseURI */\n      0x00\n        /* \"Base/Token/CandyCreator721AUpgradeable.sol\":23837:23847  _baseURI() */\n      tag_493\n        /* \"Base/Token/CandyCreator721AUpgradeable.sol\":23837:23845  _baseURI */\n      tag_494\n        /* \"Base/Token/CandyCreator721AUpgradeable.sol\":23837:23847  _baseURI() */\n      jump\t// in\n    tag_493:\n        /* \"Base/Token/CandyCreator721AUpgradeable.sol\":23813:23847  string memory baseURI = _baseURI() */\n      swap1\n      pop\n        /* \"Base/Token/CandyCreator721AUpgradeable.sol\":23900:23901  0 */\n      0x00\n        /* \"Base/Token/CandyCreator721AUpgradeable.sol\":23882:23889  baseURI */\n      dup2\n        /* \"Base/Token/CandyCreator721AUpgradeable.sol\":23876:23897  bytes(baseURI).length */\n      mload\n        /* \"Base/Token/CandyCreator721AUpgradeable.sol\":23876:23901  bytes(baseURI).length > 0 */\n      gt\n        /* \"Base/Token/CandyCreator721AUpgradeable.sol\":23876:24194  bytes(baseURI).length > 0... */\n      tag_495\n      jumpi\n        /* \"Base/Token/CandyCreator721AUpgradeable.sol\":24180:24194  placeholderURI */\n      0xfd\n        /* \"Base/Token/CandyCreator721AUpgradeable.sol\":23876:24194  bytes(baseURI).length > 0... */\n      dup1\n      sload\n      tag_496\n      swap1\n      tag_283\n      jump\t// in\n    tag_496:\n      dup1\n      0x1f\n      add\n      0x20\n      dup1\n      swap2\n      div\n      mul\n      0x20\n      add\n      mload(0x40)\n      swap1\n      dup2\n      add\n      0x40\n      mstore\n      dup1\n      swap3\n      swap2\n      swap1\n      dup2\n      dup2\n      mstore\n      0x20\n      add\n      dup3\n      dup1\n      sload\n      tag_497\n      swap1\n      tag_283\n      jump\t// in\n    tag_497:\n      dup1\n      iszero\n      tag_498\n      jumpi\n      dup1\n      0x1f\n      lt\n      tag_499\n      jumpi\n      0x0100\n      dup1\n      dup4\n      sload\n      div\n      mul\n      dup4\n      mstore\n      swap2\n      0x20\n      add\n      swap2\n      jump(tag_498)\n    tag_499:\n      dup3\n      add\n      swap2\n      swap1\n      0x00\n      mstore\n      keccak256(0x00, 0x20)\n      swap1\n    tag_500:\n      dup2\n      sload\n      dup2\n      mstore\n      swap1\n      0x01\n      add\n      swap1\n      0x20\n      add\n      dup1\n      dup4\n      gt\n      tag_500\n      jumpi\n      dup3\n      swap1\n      sub\n      0x1f\n      and\n      dup3\n      add\n      swap2\n    tag_498:\n      pop\n      pop\n      pop\n      pop\n      pop\n      jump(tag_501)\n    tag_495:\n        /* \"Base/Token/CandyCreator721AUpgradeable.sol\":23990:23997  baseURI */\n      dup1\n        /* \"Base/Token/CandyCreator721AUpgradeable.sol\":24052:24088  StringsUpgradeable.toString(tokenId) */\n      tag_502\n        /* \"Base/Token/CandyCreator721AUpgradeable.sol\":24080:24087  tokenId */\n      dup5\n        /* \"Base/Token/CandyCreator721AUpgradeable.sol\":24052:24079  StringsUpgradeable.toString */\n      tag_503\n        /* \"Base/Token/CandyCreator721AUpgradeable.sol\":24052:24088  StringsUpgradeable.toString(tokenId) */\n      jump\t// in\n    tag_502:\n        /* \"Base/Token/CandyCreator721AUpgradeable.sol\":23948:24143  abi.encodePacked(... */\n      add(0x20, mload(0x40))\n      tag_504\n      swap3\n      swap2\n      swap1\n      tag_505\n      jump\t// in\n    tag_504:\n      mload(0x40)\n      0x20\n      dup2\n      dup4\n      sub\n      sub\n      dup2\n      mstore\n      swap1\n      0x40\n      mstore\n        /* \"Base/Token/CandyCreator721AUpgradeable.sol\":23876:24194  bytes(baseURI).length > 0... */\n    tag_501:\n        /* \"Base/Token/CandyCreator721AUpgradeable.sol\":23857:24194  return... */\n      swap4\n        /* \"Base/Token/CandyCreator721AUpgradeable.sol\":23613:24201  function tokenURI(uint256 tokenId)... */\n      swap3\n      pop\n      pop\n      pop\n      jump\t// out\n        /* \"Base/Token/CandyCreator721AUpgradeable.sol\":15877:16112  function enableWhitelist() public onlyOwner {... */\n    tag_236:\n        /* \"@openzeppelin/contracts-upgradeable/access/OwnableUpgradeable.sol\":1348:1354  _owner */\n      and(sub(shl(0xa0, 0x01), 0x01), sload(0x33))\n        /* \"@openzeppelin/contracts-upgradeable/utils/ContextUpgradeable.sol\":929:939  msg.sender */\n      caller\n        /* \"@openzeppelin/contracts-upgradeable/access/OwnableUpgradeable.sol\":1488:1511  owner() == _msgSender() */\n      eq\n        /* \"@openzeppelin/contracts-upgradeable/access/OwnableUpgradeable.sol\":1480:1548  require(owner() == _msgSender(), \"Ownable: caller is not the owner\") */\n      tag_509\n      jumpi\n      mload(0x40)\n      shl(0xe5, 0x461bcd)\n      dup2\n      mstore\n      0x04\n      add\n      tag_308\n      swap1\n      tag_386\n      jump\t// in\n    tag_509:\n        /* \"Base/Token/CandyCreator721AUpgradeable.sol\":15935:15950  whitelistActive */\n      sload(0x0102)\n      shl(0x40, 0x01)\n      swap1\n      div\n      0xff\n      and\n        /* \"Base/Token/CandyCreator721AUpgradeable.sol\":15931:15978  if (whitelistActive) revert WhitelistRequired() */\n      iszero\n      tag_512\n      jumpi\n        /* \"Base/Token/CandyCreator721AUpgradeable.sol\":15959:15978  WhitelistRequired() */\n      mload(0x40)\n      shl(0xe0, 0x3c664d67)\n      dup2\n      mstore\n      0x04\n      add\n      mload(0x40)\n      dup1\n      swap2\n      sub\n      swap1\n      revert\n        /* \"Base/Token/CandyCreator721AUpgradeable.sol\":15931:15978  if (whitelistActive) revert WhitelistRequired() */\n    tag_512:\n        /* \"Base/Token/CandyCreator721AUpgradeable.sol\":15999:16014  whitelistActive */\n      0x0102\n      dup1\n      sload\n      shl(0x40, 0x01)\n      not(shl(0x40, 0xff))\n        /* \"Base/Token/CandyCreator721AUpgradeable.sol\":16024:16046  whitelistActive = true */\n      dup3\n      and\n      dup2\n      or\n      swap3\n      dup4\n      swap1\n      sstore\n        /* \"Base/Token/CandyCreator721AUpgradeable.sol\":16061:16105  UpdatedWhitelistStatus(old, whitelistActive) */\n      0x40\n      dup1\n      mload\n        /* \"Base/Token/CandyCreator721AUpgradeable.sol\":15999:16014  whitelistActive */\n      swap3\n      dup3\n      swap1\n      div\n      0xff\n      swap1\n      dup2\n      and\n        /* \"#utility.yul\":13804:13818   */\n      dup1\n      iszero\n        /* \"#utility.yul\":13797:13819   */\n      iszero\n        /* \"#utility.yul\":13779:13820   */\n      dup6\n      mstore\n        /* \"Base/Token/CandyCreator721AUpgradeable.sol\":16089:16104  whitelistActive */\n      swap3\n      swap1\n      swap5\n      div\n      swap1\n      swap4\n      and\n        /* \"#utility.yul\":13863:13877   */\n      iszero\n        /* \"#utility.yul\":13856:13878   */\n      iszero\n        /* \"#utility.yul\":13851:13853   */\n      0x20\n        /* \"#utility.yul\":13836:13854   */\n      dup4\n      add\n        /* \"#utility.yul\":13829:13879   */\n      mstore\n        /* \"Base/Token/CandyCreator721AUpgradeable.sol\":15999:16014  whitelistActive */\n      swap2\n        /* \"Base/Token/CandyCreator721AUpgradeable.sol\":16061:16105  UpdatedWhitelistStatus(old, whitelistActive) */\n      0x5045eea7e64af4d857464a8347a5bbce05a99fe1e1f08a3f1ebbc61aa782b21b\n      swap2\n        /* \"#utility.yul\":13752:13770   */\n      add\n        /* \"Base/Token/CandyCreator721AUpgradeable.sol\":16061:16105  UpdatedWhitelistStatus(old, whitelistActive) */\n      tag_420\n        /* \"#utility.yul\":13617:13885   */\n      jump\n        /* \"Base/Token/CandyCreator721AUpgradeable.sol\":16182:16425  function disableWhitelist() external onlyOwner {... */\n    tag_244:\n        /* \"@openzeppelin/contracts-upgradeable/access/OwnableUpgradeable.sol\":1348:1354  _owner */\n      and(sub(shl(0xa0, 0x01), 0x01), sload(0x33))\n        /* \"@openzeppelin/contracts-upgradeable/utils/ContextUpgradeable.sol\":929:939  msg.sender */\n      caller\n        /* \"@openzeppelin/contracts-upgradeable/access/OwnableUpgradeable.sol\":1488:1511  owner() == _msgSender() */\n      eq\n        /* \"@openzeppelin/contracts-upgradeable/access/OwnableUpgradeable.sol\":1480:1548  require(owner() == _msgSender(), \"Ownable: caller is not the owner\") */\n      tag_518\n      jumpi\n      mload(0x40)\n      shl(0xe5, 0x461bcd)\n      dup2\n      mstore\n      0x04\n      add\n      tag_308\n      swap1\n      tag_386\n      jump\t// in\n    tag_518:\n        /* \"Base/Token/CandyCreator721AUpgradeable.sol\":16244:16259  whitelistActive */\n      sload(0x0102)\n      shl(0x40, 0x01)\n      swap1\n      div\n      0xff\n      and\n        /* \"Base/Token/CandyCreator721AUpgradeable.sol\":16239:16290  if (!whitelistActive) revert WhitelistNotRequired() */\n      tag_521\n      jumpi\n        /* \"Base/Token/CandyCreator721AUpgradeable.sol\":16268:16290  WhitelistNotRequired() */\n      mload(0x40)\n      shl(0xe1, 0x41a334cd)\n      dup2\n      mstore\n      0x04\n      add\n      mload(0x40)\n      dup1\n      swap2\n      sub\n      swap1\n      revert\n        /* \"Base/Token/CandyCreator721AUpgradeable.sol\":16239:16290  if (!whitelistActive) revert WhitelistNotRequired() */\n    tag_521:\n        /* \"Base/Token/CandyCreator721AUpgradeable.sol\":16311:16326  whitelistActive */\n      0x0102\n      dup1\n      sload\n      not(shl(0x40, 0xff))\n        /* \"Base/Token/CandyCreator721AUpgradeable.sol\":16336:16359  whitelistActive = false */\n      dup2\n      and\n      swap2\n      dup3\n      swap1\n      sstore\n        /* \"Base/Token/CandyCreator721AUpgradeable.sol\":16374:16418  UpdatedWhitelistStatus(old, whitelistActive) */\n      0x40\n      dup1\n      mload\n        /* \"Base/Token/CandyCreator721AUpgradeable.sol\":16311:16326  whitelistActive */\n      0xff\n      shl(0x40, 0x01)\n      swap4\n      dup5\n      swap1\n      div\n      dup2\n      and\n        /* \"#utility.yul\":13804:13818   */\n      dup1\n      iszero\n        /* \"#utility.yul\":13797:13819   */\n      iszero\n        /* \"#utility.yul\":13779:13820   */\n      dup4\n      mstore\n        /* \"Base/Token/CandyCreator721AUpgradeable.sol\":16402:16417  whitelistActive */\n      swap4\n      swap1\n      swap5\n      div\n      swap1\n      swap4\n      and\n        /* \"#utility.yul\":13863:13877   */\n      iszero\n        /* \"#utility.yul\":13856:13878   */\n      iszero\n        /* \"#utility.yul\":13851:13853   */\n      0x20\n        /* \"#utility.yul\":13836:13854   */\n      dup5\n      add\n        /* \"#utility.yul\":13829:13879   */\n      mstore\n        /* \"Base/Token/CandyCreator721AUpgradeable.sol\":16311:16326  whitelistActive */\n      swap1\n      swap2\n        /* \"Base/Token/CandyCreator721AUpgradeable.sol\":16374:16418  UpdatedWhitelistStatus(old, whitelistActive) */\n      0x5045eea7e64af4d857464a8347a5bbce05a99fe1e1f08a3f1ebbc61aa782b21b\n      swap2\n        /* \"#utility.yul\":13752:13770   */\n      add\n        /* \"Base/Token/CandyCreator721AUpgradeable.sol\":16374:16418  UpdatedWhitelistStatus(old, whitelistActive) */\n      tag_420\n        /* \"#utility.yul\":13617:13885   */\n      jump\n        /* \"Base/Token/CandyCreator721AUpgradeable.sol\":12592:12823  function setRoyaltyInfo(address _royaltyAddress, uint256 _basisPoints)... */\n    tag_248:\n        /* \"@openzeppelin/contracts-upgradeable/access/OwnableUpgradeable.sol\":1348:1354  _owner */\n      and(sub(shl(0xa0, 0x01), 0x01), sload(0x33))\n        /* \"@openzeppelin/contracts-upgradeable/utils/ContextUpgradeable.sol\":929:939  msg.sender */\n      caller\n        /* \"@openzeppelin/contracts-upgradeable/access/OwnableUpgradeable.sol\":1488:1511  owner() == _msgSender() */\n      eq\n        /* \"@openzeppelin/contracts-upgradeable/access/OwnableUpgradeable.sol\":1480:1548  require(owner() == _msgSender(), \"Ownable: caller is not the owner\") */\n      tag_526\n      jumpi\n      mload(0x40)\n      shl(0xe5, 0x461bcd)\n      dup2\n      mstore\n      0x04\n      add\n      tag_308\n      swap1\n      tag_386\n      jump\t// in\n    tag_526:\n        /* \"Base/Royalties/CandyCollection2981RoyaltiesUpgradeable.sol\":2483:2497  royaltyAddress */\n      0xfa\n        /* \"Base/Royalties/CandyCollection2981RoyaltiesUpgradeable.sol\":2483:2509  royaltyAddress = _receiver */\n      dup1\n      sload\n      not(sub(shl(0xa0, 0x01), 0x01))\n      and\n      sub(shl(0xa0, 0x01), 0x01)\n      dup5\n      and\n      or\n      swap1\n      sstore\n        /* \"Base/Royalties/CandyCollection2981RoyaltiesUpgradeable.sol\":2515:2533  royaltyBasisPoints */\n      0xfb\n        /* \"Base/Royalties/CandyCollection2981RoyaltiesUpgradeable.sol\":2515:2548  royaltyBasisPoints = _basisPoints */\n      dup2\n      swap1\n      sstore\n        /* \"Base/Token/CandyCreator721AUpgradeable.sol\":12769:12816  UpdatedRoyalties(_royaltyAddress, _basisPoints) */\n      0x40\n      dup1\n      mload\n      sub(shl(0xa0, 0x01), 0x01)\n        /* \"#utility.yul\":206:238   */\n      dup5\n      and\n        /* \"#utility.yul\":188:239   */\n      dup2\n      mstore\n        /* \"#utility.yul\":270:272   */\n      0x20\n        /* \"#utility.yul\":255:273   */\n      dup2\n      add\n        /* \"#utility.yul\":248:282   */\n      dup4\n      swap1\n      mstore\n        /* \"Base/Token/CandyCreator721AUpgradeable.sol\":12769:12816  UpdatedRoyalties(_royaltyAddress, _basisPoints) */\n      0x37b261884b0718cab93d62e6fe3bef710b5a1da58190a859f842d6e8b2b0b70b\n      swap2\n        /* \"#utility.yul\":161:179   */\n      add\n        /* \"Base/Token/CandyCreator721AUpgradeable.sol\":12769:12816  UpdatedRoyalties(_royaltyAddress, _basisPoints) */\n      tag_390\n        /* \"#utility.yul\":14:288   */\n      jump\n        /* \"Base/Token/CandyCreator721AUpgradeable.sol\":15247:15465  function enableMinting() external onlyOwner {... */\n    tag_255:\n        /* \"@openzeppelin/contracts-upgradeable/access/OwnableUpgradeable.sol\":1348:1354  _owner */\n      and(sub(shl(0xa0, 0x01), 0x01), sload(0x33))\n        /* \"@openzeppelin/contracts-upgradeable/utils/ContextUpgradeable.sol\":929:939  msg.sender */\n      caller\n        /* \"@openzeppelin/contracts-upgradeable/access/OwnableUpgradeable.sol\":1488:1511  owner() == _msgSender() */\n      eq\n        /* \"@openzeppelin/contracts-upgradeable/access/OwnableUpgradeable.sol\":1480:1548  require(owner() == _msgSender(), \"Ownable: caller is not the owner\") */\n      tag_536\n      jumpi\n      mload(0x40)\n      shl(0xe5, 0x461bcd)\n      dup2\n      mstore\n      0x04\n      add\n      tag_308\n      swap1\n      tag_386\n      jump\t// in\n    tag_536:\n        /* \"Base/Token/CandyCreator721AUpgradeable.sol\":15305:15318  mintingActive */\n      sload(0x0102)\n      shl(0x48, 0x01)\n      swap1\n      div\n      0xff\n      and\n        /* \"Base/Token/CandyCreator721AUpgradeable.sol\":15301:15342  if (mintingActive) revert MintingActive() */\n      iszero\n      tag_539\n      jumpi\n        /* \"Base/Token/CandyCreator721AUpgradeable.sol\":15327:15342  MintingActive() */\n      mload(0x40)\n      shl(0xe2, 0x3f19d529)\n      dup2\n      mstore\n      0x04\n      add\n      mload(0x40)\n      dup1\n      swap2\n      sub\n      swap1\n      revert\n        /* \"Base/Token/CandyCreator721AUpgradeable.sol\":15301:15342  if (mintingActive) revert MintingActive() */\n    tag_539:\n        /* \"Base/Token/CandyCreator721AUpgradeable.sol\":15363:15376  mintingActive */\n      0x0102\n      dup1\n      sload\n      shl(0x48, 0x01)\n      not(shl(0x48, 0xff))\n        /* \"Base/Token/CandyCreator721AUpgradeable.sol\":15386:15406  mintingActive = true */\n      dup3\n      and\n      dup2\n      or\n      swap3\n      dup4\n      swap1\n      sstore\n        /* \"Base/Token/CandyCreator721AUpgradeable.sol\":15421:15458  UpdatedMintStatus(old, mintingActive) */\n      0x40\n      dup1\n      mload\n        /* \"Base/Token/CandyCreator721AUpgradeable.sol\":15363:15376  mintingActive */\n      swap3\n      dup3\n      swap1\n      div\n      0xff\n      swap1\n      dup2\n      and\n        /* \"#utility.yul\":13804:13818   */\n      dup1\n      iszero\n        /* \"#utility.yul\":13797:13819   */\n      iszero\n        /* \"#utility.yul\":13779:13820   */\n      dup6\n      mstore\n        /* \"Base/Token/CandyCreator721AUpgradeable.sol\":15444:15457  mintingActive */\n      swap3\n      swap1\n      swap5\n      div\n      swap1\n      swap4\n      and\n        /* \"#utility.yul\":13863:13877   */\n      iszero\n        /* \"#utility.yul\":13856:13878   */\n      iszero\n        /* \"#utility.yul\":13851:13853   */\n      0x20\n        /* \"#utility.yul\":13836:13854   */\n      dup4\n      add\n        /* \"#utility.yul\":13829:13879   */\n      mstore\n        /* \"Base/Token/CandyCreator721AUpgradeable.sol\":15363:15376  mintingActive */\n      swap2\n        /* \"Base/Token/CandyCreator721AUpgradeable.sol\":15421:15458  UpdatedMintStatus(old, mintingActive) */\n      0x1ab1d89be1fd19dcd21c73f1d6e927e3f148097e8691bbba925bd85e34e1f0e3\n      swap2\n        /* \"#utility.yul\":13752:13770   */\n      add\n        /* \"Base/Token/CandyCreator721AUpgradeable.sol\":15421:15458  UpdatedMintStatus(old, mintingActive) */\n      tag_420\n        /* \"#utility.yul\":13617:13885   */\n      jump\n        /* \"@openzeppelin/contracts-upgradeable/access/OwnableUpgradeable.sol\":2158:2356  function transferOwnership(address newOwner) public virtual onlyOwner {... */\n    tag_265:\n        /* \"@openzeppelin/contracts-upgradeable/access/OwnableUpgradeable.sol\":1348:1354  _owner */\n      and(sub(shl(0xa0, 0x01), 0x01), sload(0x33))\n        /* \"@openzeppelin/contracts-upgradeable/utils/ContextUpgradeable.sol\":929:939  msg.sender */\n      caller\n        /* \"@openzeppelin/contracts-upgradeable/access/OwnableUpgradeable.sol\":1488:1511  owner() == _msgSender() */\n      eq\n        /* \"@openzeppelin/contracts-upgradeable/access/OwnableUpgradeable.sol\":1480:1548  require(owner() == _msgSender(), \"Ownable: caller is not the owner\") */\n      tag_545\n      jumpi\n      mload(0x40)\n      shl(0xe5, 0x461bcd)\n      dup2\n      mstore\n      0x04\n      add\n      tag_308\n      swap1\n      tag_386\n      jump\t// in\n    tag_545:\n      sub(shl(0xa0, 0x01), 0x01)\n        /* \"@openzeppelin/contracts-upgradeable/access/OwnableUpgradeable.sol\":2246:2268  newOwner != address(0) */\n      dup2\n      and\n        /* \"@openzeppelin/contracts-upgradeable/access/OwnableUpgradeable.sol\":2238:2311  require(newOwner != address(0), \"Ownable: new owner is the zero address\") */\n      tag_548\n      jumpi\n      mload(0x40)\n      shl(0xe5, 0x461bcd)\n      dup2\n      mstore\n        /* \"#utility.yul\":15531:15533   */\n      0x20\n        /* \"@openzeppelin/contracts-upgradeable/access/OwnableUpgradeable.sol\":2238:2311  require(newOwner != address(0), \"Ownable: new owner is the zero address\") */\n      0x04\n      dup3\n      add\n        /* \"#utility.yul\":15513:15534   */\n      mstore\n        /* \"#utility.yul\":15570:15572   */\n      0x26\n        /* \"#utility.yul\":15550:15568   */\n      0x24\n      dup3\n      add\n        /* \"#utility.yul\":15543:15573   */\n      mstore\n        /* \"#utility.yul\":15609:15643   */\n      0x4f776e61626c653a206e6577206f776e657220697320746865207a65726f2061\n        /* \"#utility.yul\":15589:15607   */\n      0x44\n      dup3\n      add\n        /* \"#utility.yul\":15582:15644   */\n      mstore\n      shl(0xd0, 0x646472657373)\n        /* \"#utility.yul\":15660:15678   */\n      0x64\n      dup3\n      add\n        /* \"#utility.yul\":15653:15689   */\n      mstore\n        /* \"#utility.yul\":15706:15725   */\n      0x84\n      add\n        /* \"@openzeppelin/contracts-upgradeable/access/OwnableUpgradeable.sol\":2238:2311  require(newOwner != address(0), \"Ownable: new owner is the zero address\") */\n      tag_308\n        /* \"#utility.yul\":15329:15731   */\n      jump\n        /* \"@openzeppelin/contracts-upgradeable/access/OwnableUpgradeable.sol\":2238:2311  require(newOwner != address(0), \"Ownable: new owner is the zero address\") */\n    tag_548:\n        /* \"@openzeppelin/contracts-upgradeable/access/OwnableUpgradeable.sol\":2321:2349  _transferOwnership(newOwner) */\n      tag_374\n        /* \"@openzeppelin/contracts-upgradeable/access/OwnableUpgradeable.sol\":2340:2348  newOwner */\n      dup2\n        /* \"@openzeppelin/contracts-upgradeable/access/OwnableUpgradeable.sol\":2321:2339  _transferOwnership */\n      tag_412\n        /* \"@openzeppelin/contracts-upgradeable/access/OwnableUpgradeable.sol\":2321:2349  _transferOwnership(newOwner) */\n      jump\t// in\n        /* \"Base/Token/CandyCreator721AUpgradeable.sol\":13062:13240  function setMintPrice(uint256 _newFee) public onlyOwner {... */\n    tag_269:\n        /* \"@openzeppelin/contracts-upgradeable/access/OwnableUpgradeable.sol\":1348:1354  _owner */\n      and(sub(shl(0xa0, 0x01), 0x01), sload(0x33))\n        /* \"@openzeppelin/contracts-upgradeable/utils/ContextUpgradeable.sol\":929:939  msg.sender */\n      caller\n        /* \"@openzeppelin/contracts-upgradeable/access/OwnableUpgradeable.sol\":1488:1511  owner() == _msgSender() */\n      eq\n        /* \"@openzeppelin/contracts-upgradeable/access/OwnableUpgradeable.sol\":1480:1548  require(owner() == _msgSender(), \"Ownable: caller is not the owner\") */\n      tag_555\n      jumpi\n      mload(0x40)\n      shl(0xe5, 0x461bcd)\n      dup2\n      mstore\n      0x04\n      add\n      tag_308\n      swap1\n      tag_386\n      jump\t// in\n    tag_555:\n        /* \"Base/Token/CandyCreator721AUpgradeable.sol\":13145:13154  mintPrice */\n      0x0100\n      dup1\n      sload\n        /* \"Base/Token/CandyCreator721AUpgradeable.sol\":13164:13183  mintPrice = _newFee */\n      swap1\n      dup3\n      swap1\n      sstore\n        /* \"Base/Token/CandyCreator721AUpgradeable.sol\":13198:13233  UpdatedMintPrice(oldFee, mintPrice) */\n      0x40\n      dup1\n      mload\n        /* \"#utility.yul\":13538:13563   */\n      dup3\n      dup2\n      mstore\n        /* \"#utility.yul\":13594:13596   */\n      0x20\n        /* \"#utility.yul\":13579:13597   */\n      dup2\n      add\n        /* \"#utility.yul\":13572:13606   */\n      dup5\n      swap1\n      mstore\n        /* \"Base/Token/CandyCreator721AUpgradeable.sol\":13198:13233  UpdatedMintPrice(oldFee, mintPrice) */\n      0x79f142b9bcccc417646eead59c29526ac8437fccd19a5368532b2648349adce1\n      swap2\n        /* \"#utility.yul\":13511:13529   */\n      add\n        /* \"Base/Token/CandyCreator721AUpgradeable.sol\":13198:13233  UpdatedMintPrice(oldFee, mintPrice) */\n      tag_390\n        /* \"#utility.yul\":13364:13612   */\n      jump\n        /* \"Base/Token/ERC721A/ERC721AUpgradeable.sol\":3508:3852  function supportsInterface(bytes4 interfaceId) public view virtual override(ERC165Upgradeable, IERC165Upgradeable) returns (bool) {... */\n    tag_280:\n        /* \"Base/Token/ERC721A/ERC721AUpgradeable.sol\":3632:3636  bool */\n      0x00\n      not(sub(shl(0xe0, 0x01), 0x01))\n        /* \"Base/Token/ERC721A/ERC721AUpgradeable.sol\":3667:3718  interfaceId == type(IERC721Upgradeable).interfaceId */\n      dup3\n      and\n      shl(0xe0, 0x80ac58cd)\n      eq\n      dup1\n        /* \"Base/Token/ERC721A/ERC721AUpgradeable.sol\":3667:3793  interfaceId == type(IERC721Upgradeable).interfaceId ||... */\n      tag_561\n      jumpi\n      pop\n      not(sub(shl(0xe0, 0x01), 0x01))\n        /* \"Base/Token/ERC721A/ERC721AUpgradeable.sol\":3734:3793  interfaceId == type(IERC721MetadataUpgradeable).interfaceId */\n      dup3\n      and\n      shl(0xe0, 0x5b5e139f)\n      eq\n        /* \"Base/Token/ERC721A/ERC721AUpgradeable.sol\":3667:3793  interfaceId == type(IERC721Upgradeable).interfaceId ||... */\n    tag_561:\n        /* \"Base/Token/ERC721A/ERC721AUpgradeable.sol\":3667:3845  interfaceId == type(IERC721Upgradeable).interfaceId ||... */\n      dup1\n      tag_279\n      jumpi\n      pop\n      shl(0xe0, 0x01ffc9a7)\n      not(sub(shl(0xe0, 0x01), 0x01))\n        /* \"@openzeppelin/contracts-upgradeable/utils/introspection/ERC165Upgradeable.sol\":1168:1219  interfaceId == type(IERC165Upgradeable).interfaceId */\n      dup4\n      and\n      eq\n        /* \"Base/Token/ERC721A/ERC721AUpgradeable.sol\":3809:3845  super.supportsInterface(interfaceId) */\n      tag_279\n        /* \"@openzeppelin/contracts-upgradeable/utils/introspection/ERC165Upgradeable.sol\":1060:1226  function supportsInterface(bytes4 interfaceId) public view virtual override returns (bool) {... */\n      jump\n        /* \"Base/Token/ERC721A/ERC721AUpgradeable.sol\":9966:10138  function _exists(uint256 tokenId) internal view returns (bool) {... */\n    tag_290:\n        /* \"Base/Token/ERC721A/ERC721AUpgradeable.sol\":10023:10027  bool */\n      0x00\n        /* \"Base/Token/ERC721A/ERC721AUpgradeable.sol\":10065:10072  tokenId */\n      dup2\n        /* \"Base/Token/CandyCreator721AUpgradeable.sol\":23337:23338  1 */\n      0x01\n        /* \"Base/Token/ERC721A/ERC721AUpgradeable.sol\":10046:10072  _startTokenId() <= tokenId */\n      gt\n      iszero\n        /* \"Base/Token/ERC721A/ERC721AUpgradeable.sol\":10046:10099  _startTokenId() <= tokenId && tokenId < _currentIndex */\n      dup1\n      iszero\n      tag_567\n      jumpi\n      pop\n        /* \"Base/Token/ERC721A/ERC721AUpgradeable.sol\":10086:10099  _currentIndex */\n      sload(0x97)\n        /* \"Base/Token/ERC721A/ERC721AUpgradeable.sol\":10076:10083  tokenId */\n      dup3\n        /* \"Base/Token/ERC721A/ERC721AUpgradeable.sol\":10076:10099  tokenId < _currentIndex */\n      lt\n        /* \"Base/Token/ERC721A/ERC721AUpgradeable.sol\":10046:10099  _startTokenId() <= tokenId && tokenId < _currentIndex */\n    tag_567:\n        /* \"Base/Token/ERC721A/ERC721AUpgradeable.sol\":10046:10131  _startTokenId() <= tokenId && tokenId < _currentIndex && !_ownerships[tokenId].burned */\n      dup1\n      iszero\n      tag_279\n      jumpi\n      pop\n      pop\n        /* \"Base/Token/ERC721A/ERC721AUpgradeable.sol\":10104:10124  _ownerships[tokenId] */\n      0x00\n      swap1\n      dup2\n      mstore\n        /* \"Base/Token/ERC721A/ERC721AUpgradeable.sol\":10104:10115  _ownerships */\n      0x9b\n        /* \"Base/Token/ERC721A/ERC721AUpgradeable.sol\":10104:10124  _ownerships[tokenId] */\n      0x20\n      mstore\n      0x40\n      swap1\n      keccak256\n        /* \"Base/Token/ERC721A/ERC721AUpgradeable.sol\":10104:10131  _ownerships[tokenId].burned */\n      sload\n      shl(0xe0, 0x01)\n      swap1\n      div\n      0xff\n      and\n        /* \"Base/Token/ERC721A/ERC721AUpgradeable.sol\":10103:10131  !_ownerships[tokenId].burned */\n      iszero\n      swap1\n        /* \"Base/Token/ERC721A/ERC721AUpgradeable.sol\":9966:10138  function _exists(uint256 tokenId) internal view returns (bool) {... */\n      jump\t// out\n        /* \"Base/Token/ERC721A/ERC721AUpgradeable.sol\":18950:19139  function _approve(... */\n    tag_301:\n        /* \"Base/Token/ERC721A/ERC721AUpgradeable.sol\":19060:19084  _tokenApprovals[tokenId] */\n      0x00\n      dup3\n      dup2\n      mstore\n        /* \"Base/Token/ERC721A/ERC721AUpgradeable.sol\":19060:19075  _tokenApprovals */\n      0x9d\n        /* \"Base/Token/ERC721A/ERC721AUpgradeable.sol\":19060:19084  _tokenApprovals[tokenId] */\n      0x20\n      mstore\n      0x40\n      dup1\n      dup3\n      keccak256\n        /* \"Base/Token/ERC721A/ERC721AUpgradeable.sol\":19060:19089  _tokenApprovals[tokenId] = to */\n      dup1\n      sload\n      not(sub(shl(0xa0, 0x01), 0x01))\n      and\n      sub(shl(0xa0, 0x01), 0x01)\n      dup8\n      dup2\n      and\n      swap2\n      dup3\n      or\n      swap1\n      swap3\n      sstore\n        /* \"Base/Token/ERC721A/ERC721AUpgradeable.sol\":19104:19132  Approval(owner, to, tokenId) */\n      swap2\n      mload\n        /* \"Base/Token/ERC721A/ERC721AUpgradeable.sol\":19060:19084  _tokenApprovals[tokenId] */\n      dup6\n      swap4\n        /* \"Base/Token/ERC721A/ERC721AUpgradeable.sol\":19104:19132  Approval(owner, to, tokenId) */\n      swap2\n      dup6\n      and\n      swap2\n      0x8c5be1e5ebec7d5bd14f71427d1e84f3dd0314c0f7b2291e5b200ac8c7c3b925\n      swap2\n      log4\n        /* \"Base/Token/ERC721A/ERC721AUpgradeable.sol\":18950:19139  function _approve(... */\n      pop\n      pop\n      pop\n      jump\t// out\n        /* \"Base/Token/ERC721A/ERC721AUpgradeable.sol\":2109:2260  function __ERC721A_init(string memory name_, string memory symbol_) internal onlyInitializing {... */\n    tag_313:\n        /* \"@openzeppelin/contracts-upgradeable/proxy/utils/Initializable.sol\":2952:2965  _initializing */\n      sload(0x00)\n      0x0100\n      swap1\n      div\n      0xff\n      and\n        /* \"@openzeppelin/contracts-upgradeable/proxy/utils/Initializable.sol\":2944:3013  require(_initializing, \"Initializable: contract is not initializing\") */\n      tag_573\n      jumpi\n      mload(0x40)\n      shl(0xe5, 0x461bcd)\n      dup2\n      mstore\n      0x04\n      add\n      tag_308\n      swap1\n      tag_575\n      jump\t// in\n    tag_573:\n        /* \"Base/Token/ERC721A/ERC721AUpgradeable.sol\":2213:2253  __ERC721A_init_unchained(name_, symbol_) */\n      tag_398\n        /* \"Base/Token/ERC721A/ERC721AUpgradeable.sol\":2238:2243  name_ */\n      dup3\n        /* \"Base/Token/ERC721A/ERC721AUpgradeable.sol\":2245:2252  symbol_ */\n      dup3\n        /* \"Base/Token/ERC721A/ERC721AUpgradeable.sol\":2213:2237  __ERC721A_init_unchained */\n      tag_578\n        /* \"Base/Token/ERC721A/ERC721AUpgradeable.sol\":2213:2253  __ERC721A_init_unchained(name_, symbol_) */\n      jump\t// in\n        /* \"@openzeppelin/contracts-upgradeable/access/OwnableUpgradeable.sol\":988:1083  function __Ownable_init() internal onlyInitializing {... */\n    tag_315:\n        /* \"@openzeppelin/contracts-upgradeable/proxy/utils/Initializable.sol\":2952:2965  _initializing */\n      sload(0x00)\n      0x0100\n      swap1\n      div\n      0xff\n      and\n        /* \"@openzeppelin/contracts-upgradeable/proxy/utils/Initializable.sol\":2944:3013  require(_initializing, \"Initializable: contract is not initializing\") */\n      tag_580\n      jumpi\n      mload(0x40)\n      shl(0xe5, 0x461bcd)\n      dup2\n      mstore\n      0x04\n      add\n      tag_308\n      swap1\n      tag_575\n      jump\t// in\n    tag_580:\n        /* \"@openzeppelin/contracts-upgradeable/access/OwnableUpgradeable.sol\":1050:1076  __Ownable_init_unchained() */\n      tag_411\n        /* \"@openzeppelin/contracts-upgradeable/access/OwnableUpgradeable.sol\":1050:1074  __Ownable_init_unchained */\n      tag_584\n        /* \"@openzeppelin/contracts-upgradeable/access/OwnableUpgradeable.sol\":1050:1076  __Ownable_init_unchained() */\n      jump\t// in\n        /* \"Base/Token/CandyCreator721AUpgradeable.sol\":7212:7705  function setupPaymentSplit(address candyWallet, address[] memory splitAddresses, uint256[] memory splitBasisPoints) private onlyInitializing {... */\n    tag_317:\n        /* \"@openzeppelin/contracts-upgradeable/proxy/utils/Initializable.sol\":2952:2965  _initializing */\n      sload(0x00)\n      0x0100\n      swap1\n      div\n      0xff\n      and\n        /* \"@openzeppelin/contracts-upgradeable/proxy/utils/Initializable.sol\":2944:3013  require(_initializing, \"Initializable: contract is not initializing\") */\n      tag_586\n      jumpi\n      mload(0x40)\n      shl(0xe5, 0x461bcd)\n      dup2\n      mstore\n      0x04\n      add\n      tag_308\n      swap1\n      tag_575\n      jump\t// in\n    tag_586:\n        /* \"Base/Token/CandyCreator721AUpgradeable.sol\":7363:7389  addPayee(candyWallet, 500) */\n      tag_589\n        /* \"Base/Token/CandyCreator721AUpgradeable.sol\":7372:7383  candyWallet */\n      dup4\n        /* \"Base/Token/CandyCreator721AUpgradeable.sol\":7385:7388  500 */\n      0x01f4\n        /* \"Base/Token/CandyCreator721AUpgradeable.sol\":7363:7371  addPayee */\n      tag_590\n        /* \"Base/Token/CandyCreator721AUpgradeable.sol\":7363:7389  addPayee(candyWallet, 500) */\n      jump\t// in\n    tag_589:\n        /* \"Base/Token/CandyCreator721AUpgradeable.sol\":7403:7417  splitAddresses */\n      dup2\n        /* \"Base/Token/CandyCreator721AUpgradeable.sol\":7403:7424  splitAddresses.length */\n      mload\n        /* \"Base/Token/CandyCreator721AUpgradeable.sol\":7428:7429  0 */\n      0x00\n        /* \"Base/Token/CandyCreator721AUpgradeable.sol\":7403:7429  splitAddresses.length == 0 */\n      sub\n        /* \"Base/Token/CandyCreator721AUpgradeable.sol\":7399:7699  if (splitAddresses.length == 0) {... */\n      tag_591\n      jumpi\n        /* \"Base/Token/CandyCreator721AUpgradeable.sol\":7445:7473  addPayee(_msgSender(), 9500) */\n      tag_592\n        /* \"@openzeppelin/contracts-upgradeable/utils/ContextUpgradeable.sol\":929:939  msg.sender */\n      caller\n        /* \"Base/Token/CandyCreator721AUpgradeable.sol\":7468:7472  9500 */\n      0x251c\n        /* \"Base/Token/CandyCreator721AUpgradeable.sol\":7445:7453  addPayee */\n      tag_590\n        /* \"Base/Token/CandyCreator721AUpgradeable.sol\":7445:7473  addPayee(_msgSender(), 9500) */\n      jump\t// in\n    tag_592:\n        /* \"Base/Token/CandyCreator721AUpgradeable.sol\":7487:7499  lockPayees() */\n      tag_300\n        /* \"Base/Token/CandyCreator721AUpgradeable.sol\":7487:7497  lockPayees */\n      tag_595\n        /* \"Base/Token/CandyCreator721AUpgradeable.sol\":7487:7499  lockPayees() */\n      jump\t// in\n        /* \"Base/Token/CandyCreator721AUpgradeable.sol\":7399:7699  if (splitAddresses.length == 0) {... */\n    tag_591:\n        /* \"Base/Token/CandyCreator721AUpgradeable.sol\":7535:7544  uint256 i */\n      0x00\n        /* \"Base/Token/CandyCreator721AUpgradeable.sol\":7530:7663  for (uint256 i = 0; i < splitAddresses.length; i++) {... */\n    tag_597:\n        /* \"Base/Token/CandyCreator721AUpgradeable.sol\":7554:7568  splitAddresses */\n      dup3\n        /* \"Base/Token/CandyCreator721AUpgradeable.sol\":7554:7575  splitAddresses.length */\n      mload\n        /* \"Base/Token/CandyCreator721AUpgradeable.sol\":7550:7551  i */\n      dup2\n        /* \"Base/Token/CandyCreator721AUpgradeable.sol\":7550:7575  i < splitAddresses.length */\n      lt\n        /* \"Base/Token/CandyCreator721AUpgradeable.sol\":7530:7663  for (uint256 i = 0; i < splitAddresses.length; i++) {... */\n      iszero\n      tag_598\n      jumpi\n        /* \"Base/Token/CandyCreator721AUpgradeable.sol\":7600:7648  addPayee(splitAddresses[i], splitBasisPoints[i]) */\n      tag_600\n        /* \"Base/Token/CandyCreator721AUpgradeable.sol\":7609:7623  splitAddresses */\n      dup4\n        /* \"Base/Token/CandyCreator721AUpgradeable.sol\":7624:7625  i */\n      dup3\n        /* \"Base/Token/CandyCreator721AUpgradeable.sol\":7609:7626  splitAddresses[i] */\n      dup2\n      mload\n      dup2\n      lt\n      tag_602\n      jumpi\n      tag_602\n      tag_433\n      jump\t// in\n    tag_602:\n      0x20\n      mul\n      0x20\n      add\n      add\n      mload\n        /* \"Base/Token/CandyCreator721AUpgradeable.sol\":7628:7644  splitBasisPoints */\n      dup4\n        /* \"Base/Token/CandyCreator721AUpgradeable.sol\":7645:7646  i */\n      dup4\n        /* \"Base/Token/CandyCreator721AUpgradeable.sol\":7628:7647  splitBasisPoints[i] */\n      dup2\n      mload\n      dup2\n      lt\n      tag_604\n      jumpi\n      tag_604\n      tag_433\n      jump\t// in\n    tag_604:\n      0x20\n      mul\n      0x20\n      add\n      add\n      mload\n        /* \"Base/Token/CandyCreator721AUpgradeable.sol\":7600:7608  addPayee */\n      tag_590\n        /* \"Base/Token/CandyCreator721AUpgradeable.sol\":7600:7648  addPayee(splitAddresses[i], splitBasisPoints[i]) */\n      jump\t// in\n    tag_600:\n        /* \"Base/Token/CandyCreator721AUpgradeable.sol\":7577:7580  i++ */\n      dup1\n      tag_605\n      dup2\n      tag_606\n      jump\t// in\n    tag_605:\n      swap2\n      pop\n      pop\n        /* \"Base/Token/CandyCreator721AUpgradeable.sol\":7530:7663  for (uint256 i = 0; i < splitAddresses.length; i++) {... */\n      jump(tag_597)\n    tag_598:\n      pop\n        /* \"Base/Token/CandyCreator721AUpgradeable.sol\":7676:7688  lockPayees() */\n      tag_300\n        /* \"Base/Token/CandyCreator721AUpgradeable.sol\":7676:7686  lockPayees */\n      tag_595\n        /* \"Base/Token/CandyCreator721AUpgradeable.sol\":7676:7688  lockPayees() */\n      jump\t// in\n        /* \"@openzeppelin/contracts-upgradeable/utils/cryptography/MerkleProofUpgradeable.sol\":873:1057  function verify(... */\n    tag_343:\n        /* \"@openzeppelin/contracts-upgradeable/utils/cryptography/MerkleProofUpgradeable.sol\":994:998  bool */\n      0x00\n        /* \"@openzeppelin/contracts-upgradeable/utils/cryptography/MerkleProofUpgradeable.sol\":1046:1050  root */\n      dup3\n        /* \"@openzeppelin/contracts-upgradeable/utils/cryptography/MerkleProofUpgradeable.sol\":1017:1042  processProof(proof, leaf) */\n      tag_610\n        /* \"@openzeppelin/contracts-upgradeable/utils/cryptography/MerkleProofUpgradeable.sol\":1030:1035  proof */\n      dup6\n        /* \"@openzeppelin/contracts-upgradeable/utils/cryptography/MerkleProofUpgradeable.sol\":1037:1041  leaf */\n      dup5\n        /* \"@openzeppelin/contracts-upgradeable/utils/cryptography/MerkleProofUpgradeable.sol\":1017:1029  processProof */\n      tag_611\n        /* \"@openzeppelin/contracts-upgradeable/utils/cryptography/MerkleProofUpgradeable.sol\":1017:1042  processProof(proof, leaf) */\n      jump\t// in\n    tag_610:\n        /* \"@openzeppelin/contracts-upgradeable/utils/cryptography/MerkleProofUpgradeable.sol\":1017:1050  processProof(proof, leaf) == root */\n      eq\n      swap5\n        /* \"@openzeppelin/contracts-upgradeable/utils/cryptography/MerkleProofUpgradeable.sol\":873:1057  function verify(... */\n      swap4\n      pop\n      pop\n      pop\n      pop\n      jump\t// out\n        /* \"Base/Token/ERC721A/ERC721AUpgradeable.sol\":10217:10319  function _safeMint(address to, uint256 quantity) internal {... */\n    tag_353:\n        /* \"Base/Token/ERC721A/ERC721AUpgradeable.sol\":10285:10312  _safeMint(to, quantity, '') */\n      tag_398\n        /* \"Base/Token/ERC721A/ERC721AUpgradeable.sol\":10295:10297  to */\n      dup3\n        /* \"Base/Token/ERC721A/ERC721AUpgradeable.sol\":10299:10307  quantity */\n      dup3\n        /* \"Base/Token/ERC721A/ERC721AUpgradeable.sol\":10285:10312  _safeMint(to, quantity, '') */\n      mload(0x40)\n      dup1\n      0x20\n      add\n      0x40\n      mstore\n      dup1\n      0x00\n      dup2\n      mstore\n      pop\n        /* \"Base/Token/ERC721A/ERC721AUpgradeable.sol\":10285:10294  _safeMint */\n      tag_615\n        /* \"Base/Token/ERC721A/ERC721AUpgradeable.sol\":10285:10312  _safeMint(to, quantity, '') */\n      jump\t// in\n        /* \"Base/Token/ERC721A/ERC721AUpgradeable.sol\":14025:16107  function _transfer(... */\n    tag_359:\n        /* \"Base/Token/ERC721A/ERC721AUpgradeable.sol\":14135:14170  TokenOwnership memory prevOwnership */\n      0x00\n        /* \"Base/Token/ERC721A/ERC721AUpgradeable.sol\":14173:14194  _ownershipOf(tokenId) */\n      tag_618\n        /* \"Base/Token/ERC721A/ERC721AUpgradeable.sol\":14186:14193  tokenId */\n      dup3\n        /* \"Base/Token/ERC721A/ERC721AUpgradeable.sol\":14173:14185  _ownershipOf */\n      tag_402\n        /* \"Base/Token/ERC721A/ERC721AUpgradeable.sol\":14173:14194  _ownershipOf(tokenId) */\n      jump\t// in\n    tag_618:\n        /* \"Base/Token/ERC721A/ERC721AUpgradeable.sol\":14135:14194  TokenOwnership memory prevOwnership = _ownershipOf(tokenId) */\n      swap1\n      pop\n        /* \"Base/Token/ERC721A/ERC721AUpgradeable.sol\":14231:14235  from */\n      dup4\n      sub(shl(0xa0, 0x01), 0x01)\n        /* \"Base/Token/ERC721A/ERC721AUpgradeable.sol\":14209:14235  prevOwnership.addr != from */\n      and\n        /* \"Base/Token/ERC721A/ERC721AUpgradeable.sol\":14209:14222  prevOwnership */\n      dup2\n        /* \"Base/Token/ERC721A/ERC721AUpgradeable.sol\":14209:14227  prevOwnership.addr */\n      0x00\n      add\n      mload\n      sub(shl(0xa0, 0x01), 0x01)\n        /* \"Base/Token/ERC721A/ERC721AUpgradeable.sol\":14209:14235  prevOwnership.addr != from */\n      and\n      eq\n        /* \"Base/Token/ERC721A/ERC721AUpgradeable.sol\":14205:14272  if (prevOwnership.addr != from) revert TransferFromIncorrectOwner() */\n      tag_619\n      jumpi\n        /* \"Base/Token/ERC721A/ERC721AUpgradeable.sol\":14244:14272  TransferFromIncorrectOwner() */\n      mload(0x40)\n      shl(0xe8, 0xa11481)\n      dup2\n      mstore\n      0x04\n      add\n      mload(0x40)\n      dup1\n      swap2\n      sub\n      swap1\n      revert\n        /* \"Base/Token/ERC721A/ERC721AUpgradeable.sol\":14205:14272  if (prevOwnership.addr != from) revert TransferFromIncorrectOwner() */\n    tag_619:\n        /* \"Base/Token/ERC721A/ERC721AUpgradeable.sol\":14283:14305  bool isApprovedOrOwner */\n      0x00\n        /* \"@openzeppelin/contracts-upgradeable/utils/ContextUpgradeable.sol\":929:939  msg.sender */\n      caller\n      sub(shl(0xa0, 0x01), 0x01)\n        /* \"Base/Token/ERC721A/ERC721AUpgradeable.sol\":14309:14329  _msgSender() == from */\n      dup7\n      and\n      eq\n      dup1\n        /* \"Base/Token/ERC721A/ERC721AUpgradeable.sol\":14309:14381  _msgSender() == from ||... */\n      tag_622\n      jumpi\n      pop\n        /* \"Base/Token/ERC721A/ERC721AUpgradeable.sol\":14345:14381  isApprovedForAll(from, _msgSender()) */\n      tag_622\n        /* \"Base/Token/ERC721A/ERC721AUpgradeable.sol\":14362:14366  from */\n      dup6\n        /* \"@openzeppelin/contracts-upgradeable/utils/ContextUpgradeable.sol\":929:939  msg.sender */\n      caller\n        /* \"Base/Token/ERC721A/ERC721AUpgradeable.sol\":8662:8824  function isApprovedForAll(address owner, address operator) public view virtual override returns (bool) {... */\n      tag_258\n      jump\t// in\n        /* \"Base/Token/ERC721A/ERC721AUpgradeable.sol\":14345:14381  isApprovedForAll(from, _msgSender()) */\n    tag_622:\n        /* \"Base/Token/ERC721A/ERC721AUpgradeable.sol\":14309:14433  _msgSender() == from ||... */\n      dup1\n      tag_624\n      jumpi\n      pop\n        /* \"@openzeppelin/contracts-upgradeable/utils/ContextUpgradeable.sol\":929:939  msg.sender */\n      caller\n        /* \"Base/Token/ERC721A/ERC721AUpgradeable.sol\":14397:14417  getApproved(tokenId) */\n      tag_626\n        /* \"Base/Token/ERC721A/ERC721AUpgradeable.sol\":14409:14416  tokenId */\n      dup5\n        /* \"Base/Token/ERC721A/ERC721AUpgradeable.sol\":14397:14408  getApproved */\n      tag_85\n        /* \"Base/Token/ERC721A/ERC721AUpgradeable.sol\":14397:14417  getApproved(tokenId) */\n      jump\t// in\n    tag_626:\n      sub(shl(0xa0, 0x01), 0x01)\n        /* \"Base/Token/ERC721A/ERC721AUpgradeable.sol\":14397:14433  getApproved(tokenId) == _msgSender() */\n      and\n      eq\n        /* \"Base/Token/ERC721A/ERC721AUpgradeable.sol\":14309:14433  _msgSender() == from ||... */\n    tag_624:\n        /* \"Base/Token/ERC721A/ERC721AUpgradeable.sol\":14283:14434  bool isApprovedOrOwner = (_msgSender() == from ||... */\n      swap1\n      pop\n        /* \"Base/Token/ERC721A/ERC721AUpgradeable.sol\":14450:14467  isApprovedOrOwner */\n      dup1\n        /* \"Base/Token/ERC721A/ERC721AUpgradeable.sol\":14445:14511  if (!isApprovedOrOwner) revert TransferCallerNotOwnerNorApproved() */\n      tag_627\n      jumpi\n        /* \"Base/Token/ERC721A/ERC721AUpgradeable.sol\":14476:14511  TransferCallerNotOwnerNorApproved() */\n      mload(0x40)\n      shl(0xe1, 0x2ce44b5f)\n      dup2\n      mstore\n      0x04\n      add\n      mload(0x40)\n      dup1\n      swap2\n      sub\n      swap1\n      revert\n        /* \"Base/Token/ERC721A/ERC721AUpgradeable.sol\":14445:14511  if (!isApprovedOrOwner) revert TransferCallerNotOwnerNorApproved() */\n    tag_627:\n      sub(shl(0xa0, 0x01), 0x01)\n        /* \"Base/Token/ERC721A/ERC721AUpgradeable.sol\":14525:14541  to == address(0) */\n      dup5\n      and\n        /* \"Base/Token/ERC721A/ERC721AUpgradeable.sol\":14521:14573  if (to == address(0)) revert TransferToZeroAddress() */\n      tag_628\n      jumpi\n        /* \"Base/Token/ERC721A/ERC721AUpgradeable.sol\":14550:14573  TransferToZeroAddress() */\n      mload(0x40)\n      shl(0xe2, 0x3a954ecd)\n      dup2\n      mstore\n      0x04\n      add\n      mload(0x40)\n      dup1\n      swap2\n      sub\n      swap1\n      revert\n        /* \"Base/Token/ERC721A/ERC721AUpgradeable.sol\":14521:14573  if (to == address(0)) revert TransferToZeroAddress() */\n    tag_628:\n        /* \"Base/Token/ERC721A/ERC721AUpgradeable.sol\":14689:14724  _approve(address(0), tokenId, from) */\n      tag_631\n        /* \"Base/Token/ERC721A/ERC721AUpgradeable.sol\":14706:14707  0 */\n      0x00\n        /* \"Base/Token/ERC721A/ERC721AUpgradeable.sol\":14710:14717  tokenId */\n      dup5\n        /* \"Base/Token/ERC721A/ERC721AUpgradeable.sol\":14719:14723  from */\n      dup8\n        /* \"Base/Token/ERC721A/ERC721AUpgradeable.sol\":14689:14697  _approve */\n      tag_301\n        /* \"Base/Token/ERC721A/ERC721AUpgradeable.sol\":14689:14724  _approve(address(0), tokenId, from) */\n      jump\t// in\n    tag_631:\n      sub(shl(0xa0, 0x01), 0x01)\n        /* \"Base/Token/ERC721A/ERC721AUpgradeable.sol\":15014:15032  _addressData[from] */\n      dup6\n      dup2\n      and\n      0x00\n      swap1\n      dup2\n      mstore\n        /* \"Base/Token/ERC721A/ERC721AUpgradeable.sol\":15014:15026  _addressData */\n      0x9c\n        /* \"Base/Token/ERC721A/ERC721AUpgradeable.sol\":15014:15032  _addressData[from] */\n      0x20\n      swap1\n      dup2\n      mstore\n      0x40\n      dup1\n      dup4\n      keccak256\n        /* \"Base/Token/ERC721A/ERC721AUpgradeable.sol\":15014:15045  _addressData[from].balance -= 1 */\n      dup1\n      sload\n      not(0xffffffffffffffff)\n      dup1\n      dup3\n      and\n      sub(shl(0x40, 0x01), 0x01)\n      swap3\n      dup4\n      and\n      not(0x00)\n      add\n      dup4\n      and\n      or\n      swap1\n      swap3\n      sstore\n        /* \"Base/Token/ERC721A/ERC721AUpgradeable.sol\":15059:15075  _addressData[to] */\n      dup10\n      dup7\n      and\n      dup1\n      dup7\n      mstore\n      dup4\n      dup7\n      keccak256\n        /* \"Base/Token/ERC721A/ERC721AUpgradeable.sol\":15059:15088  _addressData[to].balance += 1 */\n      dup1\n      sload\n      swap4\n      dup5\n      and\n      swap4\n      dup4\n      and\n      0x01\n      swap1\n      dup2\n      add\n      dup5\n      and\n      swap5\n      swap1\n      swap5\n      or\n      swap1\n      sstore\n        /* \"Base/Token/ERC721A/ERC721AUpgradeable.sol\":15137:15157  _ownerships[tokenId] */\n      dup10\n      dup7\n      mstore\n        /* \"Base/Token/ERC721A/ERC721AUpgradeable.sol\":15137:15148  _ownerships */\n      0x9b\n        /* \"Base/Token/ERC721A/ERC721AUpgradeable.sol\":15137:15157  _ownerships[tokenId] */\n      swap1\n      swap5\n      mstore\n      dup3\n      dup6\n      keccak256\n        /* \"Base/Token/ERC721A/ERC721AUpgradeable.sol\":15171:15189  currSlot.addr = to */\n      dup1\n      sload\n      not(sub(shl(0xe0, 0x01), 0x01))\n        /* \"Base/Token/ERC721A/ERC721AUpgradeable.sol\":15203:15252  currSlot.startTimestamp = uint64(block.timestamp) */\n      and\n      swap1\n      swap5\n      or\n      shl(0xa0, 0x01)\n        /* \"Base/Token/ERC721A/ERC721AUpgradeable.sol\":15236:15251  block.timestamp */\n      timestamp\n        /* \"Base/Token/ERC721A/ERC721AUpgradeable.sol\":15203:15252  currSlot.startTimestamp = uint64(block.timestamp) */\n      swap1\n      swap3\n      and\n      swap2\n      swap1\n      swap2\n      mul\n      or\n      dup4\n      sstore\n        /* \"Base/Token/ERC721A/ERC721AUpgradeable.sol\":15522:15533  tokenId + 1 */\n      dup8\n      add\n        /* \"Base/Token/ERC721A/ERC721AUpgradeable.sol\":15581:15605  _ownerships[nextTokenId] */\n      dup1\n      dup5\n      mstore\n      swap3\n      keccak256\n        /* \"Base/Token/ERC721A/ERC721AUpgradeable.sol\":15623:15636  nextSlot.addr */\n      dup1\n      sload\n        /* \"Base/Token/ERC721A/ERC721AUpgradeable.sol\":15137:15157  _ownerships[tokenId] */\n      swap2\n      swap4\n        /* \"Base/Token/ERC721A/ERC721AUpgradeable.sol\":15581:15605  _ownerships[nextTokenId] */\n      swap1\n      swap2\n        /* \"Base/Token/ERC721A/ERC721AUpgradeable.sol\":15623:15636  nextSlot.addr */\n      and\n        /* \"Base/Token/ERC721A/ERC721AUpgradeable.sol\":15619:15996  if (nextSlot.addr == address(0)) {... */\n      tag_633\n      jumpi\n        /* \"Base/Token/ERC721A/ERC721AUpgradeable.sol\":15830:15843  _currentIndex */\n      sload(0x97)\n        /* \"Base/Token/ERC721A/ERC721AUpgradeable.sol\":15815:15826  nextTokenId */\n      dup3\n        /* \"Base/Token/ERC721A/ERC721AUpgradeable.sol\":15815:15843  nextTokenId != _currentIndex */\n      eq\n        /* \"Base/Token/ERC721A/ERC721AUpgradeable.sol\":15811:15982  if (nextTokenId != _currentIndex) {... */\n      tag_633\n      jumpi\n        /* \"Base/Token/ERC721A/ERC721AUpgradeable.sol\":15867:15887  nextSlot.addr = from */\n      dup1\n      sload\n        /* \"Base/Token/ERC721A/ERC721AUpgradeable.sol\":15935:15963  prevOwnership.startTimestamp */\n      0x20\n      dup7\n      add\n      mload\n      sub(shl(0x40, 0x01), 0x01)\n        /* \"Base/Token/ERC721A/ERC721AUpgradeable.sol\":15909:15963  nextSlot.startTimestamp = prevOwnership.startTimestamp */\n      and\n      shl(0xa0, 0x01)\n      mul\n      not(sub(shl(0xe0, 0x01), 0x01))\n      swap1\n      swap2\n      and\n      sub(shl(0xa0, 0x01), 0x01)\n        /* \"Base/Token/ERC721A/ERC721AUpgradeable.sol\":15867:15887  nextSlot.addr = from */\n      dup11\n      and\n        /* \"Base/Token/ERC721A/ERC721AUpgradeable.sol\":15909:15963  nextSlot.startTimestamp = prevOwnership.startTimestamp */\n      or\n      or\n      dup2\n      sstore\n        /* \"Base/Token/ERC721A/ERC721AUpgradeable.sol\":15811:15982  if (nextTokenId != _currentIndex) {... */\n    tag_633:\n        /* \"Base/Token/ERC721A/ERC721AUpgradeable.sol\":14990:16006  unchecked {... */\n      pop\n      pop\n      pop\n        /* \"Base/Token/ERC721A/ERC721AUpgradeable.sol\":16040:16047  tokenId */\n      dup3\n        /* \"Base/Token/ERC721A/ERC721AUpgradeable.sol\":16036:16038  to */\n      dup5\n      sub(shl(0xa0, 0x01), 0x01)\n        /* \"Base/Token/ERC721A/ERC721AUpgradeable.sol\":16021:16048  Transfer(from, to, tokenId) */\n      and\n        /* \"Base/Token/ERC721A/ERC721AUpgradeable.sol\":16030:16034  from */\n      dup7\n      sub(shl(0xa0, 0x01), 0x01)\n        /* \"Base/Token/ERC721A/ERC721AUpgradeable.sol\":16021:16048  Transfer(from, to, tokenId) */\n      and\n      0xddf252ad1be2c89b69c2b068fc378daa952ba7f163c4a11628f55a4df523b3ef\n      mload(0x40)\n      mload(0x40)\n      dup1\n      swap2\n      sub\n      swap1\n      log4\n        /* \"Base/Token/ERC721A/ERC721AUpgradeable.sol\":14125:16107  {... */\n      pop\n      pop\n        /* \"Base/Token/ERC721A/ERC721AUpgradeable.sol\":14025:16107  function _transfer(... */\n      pop\n      pop\n      pop\n      jump\t// out\n        /* \"Base/Token/ERC721A/ERC721AUpgradeable.sol\":5254:6338  function _ownershipOf(uint256 tokenId) internal view returns (TokenOwnership memory) {... */\n    tag_402:\n      0x40\n      dup1\n      mload\n      0x60\n      dup2\n      add\n      dup3\n      mstore\n      0x00\n      dup1\n      dup3\n      mstore\n      0x20\n      dup3\n      add\n      dup2\n      swap1\n      mstore\n      swap2\n      dup2\n      add\n      swap2\n      swap1\n      swap2\n      mstore\n        /* \"Base/Token/ERC721A/ERC721AUpgradeable.sol\":5364:5371  tokenId */\n      dup2\n      dup1\n        /* \"Base/Token/CandyCreator721AUpgradeable.sol\":23337:23338  1 */\n      0x01\n        /* \"Base/Token/ERC721A/ERC721AUpgradeable.sol\":5410:5433  _startTokenId() <= curr */\n      gt\n      iszero\n        /* \"Base/Token/ERC721A/ERC721AUpgradeable.sol\":5410:5457  _startTokenId() <= curr && curr < _currentIndex */\n      dup1\n      iszero\n      tag_640\n      jumpi\n      pop\n        /* \"Base/Token/ERC721A/ERC721AUpgradeable.sol\":5444:5457  _currentIndex */\n      sload(0x97)\n        /* \"Base/Token/ERC721A/ERC721AUpgradeable.sol\":5437:5441  curr */\n      dup2\n        /* \"Base/Token/ERC721A/ERC721AUpgradeable.sol\":5437:5457  curr < _currentIndex */\n      lt\n        /* \"Base/Token/ERC721A/ERC721AUpgradeable.sol\":5410:5457  _startTokenId() <= curr && curr < _currentIndex */\n    tag_640:\n        /* \"Base/Token/ERC721A/ERC721AUpgradeable.sol\":5406:6274  if (_startTokenId() <= curr && curr < _currentIndex) {... */\n      iszero\n      tag_641\n      jumpi\n        /* \"Base/Token/ERC721A/ERC721AUpgradeable.sol\":5477:5508  TokenOwnership memory ownership */\n      0x00\n        /* \"Base/Token/ERC721A/ERC721AUpgradeable.sol\":5511:5528  _ownerships[curr] */\n      dup2\n      dup2\n      mstore\n        /* \"Base/Token/ERC721A/ERC721AUpgradeable.sol\":5511:5522  _ownerships */\n      0x9b\n        /* \"Base/Token/ERC721A/ERC721AUpgradeable.sol\":5511:5528  _ownerships[curr] */\n      0x20\n      swap1\n      dup2\n      mstore\n      0x40\n      swap2\n      dup3\n      swap1\n      keccak256\n        /* \"Base/Token/ERC721A/ERC721AUpgradeable.sol\":5477:5528  TokenOwnership memory ownership = _ownerships[curr] */\n      dup3\n      mload\n      0x60\n      dup2\n      add\n      dup5\n      mstore\n      swap1\n      sload\n      sub(shl(0xa0, 0x01), 0x01)\n      dup2\n      and\n      dup3\n      mstore\n      shl(0xa0, 0x01)\n      dup2\n      div\n      sub(shl(0x40, 0x01), 0x01)\n      and\n      swap3\n      dup3\n      add\n      swap3\n      swap1\n      swap3\n      mstore\n      shl(0xe0, 0x01)\n      swap1\n      swap2\n      div\n      0xff\n      and\n      iszero\n      iszero\n      swap2\n      dup2\n      add\n      dup3\n      swap1\n      mstore\n      swap1\n        /* \"Base/Token/ERC721A/ERC721AUpgradeable.sol\":5546:6260  if (!ownership.burned) {... */\n      tag_645\n      jumpi\n        /* \"Base/Token/ERC721A/ERC721AUpgradeable.sol\":5595:5609  ownership.addr */\n      dup1\n      mload\n      sub(shl(0xa0, 0x01), 0x01)\n        /* \"Base/Token/ERC721A/ERC721AUpgradeable.sol\":5595:5623  ownership.addr != address(0) */\n      and\n      iszero\n        /* \"Base/Token/ERC721A/ERC721AUpgradeable.sol\":5591:5690  if (ownership.addr != address(0)) {... */\n      tag_643\n      jumpi\n        /* \"Base/Token/ERC721A/ERC721AUpgradeable.sol\":5658:5667  ownership */\n      swap4\n        /* \"Base/Token/ERC721A/ERC721AUpgradeable.sol\":5254:6338  function _ownershipOf(uint256 tokenId) internal view returns (TokenOwnership memory) {... */\n      swap3\n      pop\n      pop\n      pop\n      jump\t// out\n        /* \"Base/Token/ERC721A/ERC721AUpgradeable.sol\":5591:5690  if (ownership.addr != address(0)) {... */\n    tag_643:\n      pop\n      not(0x00)\n        /* \"Base/Token/ERC721A/ERC721AUpgradeable.sol\":6026:6032  curr-- */\n      add\n        /* \"Base/Token/ERC721A/ERC721AUpgradeable.sol\":6070:6087  _ownerships[curr] */\n      0x00\n      dup2\n      dup2\n      mstore\n        /* \"Base/Token/ERC721A/ERC721AUpgradeable.sol\":6070:6081  _ownerships */\n      0x9b\n        /* \"Base/Token/ERC721A/ERC721AUpgradeable.sol\":6070:6087  _ownerships[curr] */\n      0x20\n      swap1\n      dup2\n      mstore\n      0x40\n      swap2\n      dup3\n      swap1\n      keccak256\n        /* \"Base/Token/ERC721A/ERC721AUpgradeable.sol\":6058:6087  ownership = _ownerships[curr] */\n      dup3\n      mload\n      0x60\n      dup2\n      add\n      dup5\n      mstore\n      swap1\n      sload\n      sub(shl(0xa0, 0x01), 0x01)\n      dup2\n      and\n      dup1\n      dup4\n      mstore\n      shl(0xa0, 0x01)\n      dup3\n      div\n      sub(shl(0x40, 0x01), 0x01)\n      and\n      swap4\n      dup4\n      add\n      swap4\n      swap1\n      swap4\n      mstore\n      shl(0xe0, 0x01)\n      swap1\n      div\n      0xff\n      and\n      iszero\n      iszero\n      swap3\n      dup2\n      add\n      swap3\n      swap1\n      swap3\n      mstore\n        /* \"Base/Token/ERC721A/ERC721AUpgradeable.sol\":6117:6145  ownership.addr != address(0) */\n      iszero\n        /* \"Base/Token/ERC721A/ERC721AUpgradeable.sol\":6113:6220  if (ownership.addr != address(0)) {... */\n      tag_646\n      jumpi\n        /* \"Base/Token/ERC721A/ERC721AUpgradeable.sol\":6184:6193  ownership */\n      swap4\n        /* \"Base/Token/ERC721A/ERC721AUpgradeable.sol\":5254:6338  function _ownershipOf(uint256 tokenId) internal view returns (TokenOwnership memory) {... */\n      swap3\n      pop\n      pop\n      pop\n      jump\t// out\n        /* \"Base/Token/ERC721A/ERC721AUpgradeable.sol\":6113:6220  if (ownership.addr != address(0)) {... */\n    tag_646:\n        /* \"Base/Token/ERC721A/ERC721AUpgradeable.sol\":5987:6242  while (true) {... */\n      jump(tag_643)\n    tag_645:\n        /* \"Base/Token/ERC721A/ERC721AUpgradeable.sol\":5459:6274  {... */\n      pop\n        /* \"Base/Token/ERC721A/ERC721AUpgradeable.sol\":5406:6274  if (_startTokenId() <= curr && curr < _currentIndex) {... */\n    tag_641:\n        /* \"Base/Token/ERC721A/ERC721AUpgradeable.sol\":6300:6331  OwnerQueryForNonexistentToken() */\n      mload(0x40)\n      shl(0xe1, 0x6f96cda1)\n      dup2\n      mstore\n      0x04\n      add\n      mload(0x40)\n      dup1\n      swap2\n      sub\n      swap1\n      revert\n        /* \"@openzeppelin/contracts-upgradeable/access/OwnableUpgradeable.sol\":2510:2697  function _transferOwnership(address newOwner) internal virtual {... */\n    tag_412:\n        /* \"@openzeppelin/contracts-upgradeable/access/OwnableUpgradeable.sol\":2602:2608  _owner */\n      0x33\n      dup1\n      sload\n      sub(shl(0xa0, 0x01), 0x01)\n        /* \"@openzeppelin/contracts-upgradeable/access/OwnableUpgradeable.sol\":2618:2635  _owner = newOwner */\n      dup4\n      dup2\n      and\n      not(sub(shl(0xa0, 0x01), 0x01))\n      dup4\n      and\n      dup2\n      or\n      swap1\n      swap4\n      sstore\n        /* \"@openzeppelin/contracts-upgradeable/access/OwnableUpgradeable.sol\":2650:2690  OwnershipTransferred(oldOwner, newOwner) */\n      mload(0x40)\n        /* \"@openzeppelin/contracts-upgradeable/access/OwnableUpgradeable.sol\":2602:2608  _owner */\n      swap2\n      and\n      swap2\n        /* \"@openzeppelin/contracts-upgradeable/access/OwnableUpgradeable.sol\":2618:2635  _owner = newOwner */\n      swap1\n        /* \"@openzeppelin/contracts-upgradeable/access/OwnableUpgradeable.sol\":2602:2608  _owner */\n      dup3\n      swap1\n        /* \"@openzeppelin/contracts-upgradeable/access/OwnableUpgradeable.sol\":2650:2690  OwnershipTransferred(oldOwner, newOwner) */\n      0x8be0079c531659141344cd1fd0a4f28419497f9722a3daafe3b4186f6b6457e0\n      swap1\n        /* \"@openzeppelin/contracts-upgradeable/access/OwnableUpgradeable.sol\":2583:2599  address oldOwner */\n      0x00\n      swap1\n        /* \"@openzeppelin/contracts-upgradeable/access/OwnableUpgradeable.sol\":2650:2690  OwnershipTransferred(oldOwner, newOwner) */\n      log3\n        /* \"@openzeppelin/contracts-upgradeable/access/OwnableUpgradeable.sol\":2573:2697  {... */\n      pop\n        /* \"@openzeppelin/contracts-upgradeable/access/OwnableUpgradeable.sol\":2510:2697  function _transferOwnership(address newOwner) internal virtual {... */\n      pop\n      jump\t// out\n        /* \"Base/PaymentSplitter/CandyPaymentSplitterUpgradeable.sol\":5978:6636  function _release() internal {... */\n    tag_429:\n        /* \"Base/PaymentSplitter/CandyPaymentSplitterUpgradeable.sol\":6021:6042  address(this).balance */\n      selfbalance\n        /* \"Base/PaymentSplitter/CandyPaymentSplitterUpgradeable.sol\":6046:6047  0 */\n      0x00\n        /* \"Base/PaymentSplitter/CandyPaymentSplitterUpgradeable.sol\":6021:6047  address(this).balance == 0 */\n      sub\n        /* \"Base/PaymentSplitter/CandyPaymentSplitterUpgradeable.sol\":6017:6069  if (address(this).balance == 0) revert ZeroBalance() */\n      tag_649\n      jumpi\n        /* \"Base/PaymentSplitter/CandyPaymentSplitterUpgradeable.sol\":6056:6069  ZeroBalance() */\n      mload(0x40)\n      shl(0xe1, 0x334ab3f5)\n      dup2\n      mstore\n      0x04\n      add\n      mload(0x40)\n      dup1\n      swap2\n      sub\n      swap1\n      revert\n        /* \"Base/PaymentSplitter/CandyPaymentSplitterUpgradeable.sol\":6017:6069  if (address(this).balance == 0) revert ZeroBalance() */\n    tag_649:\n        /* \"Base/PaymentSplitter/CandyPaymentSplitterUpgradeable.sol\":6084:6093  uint256 i */\n      0x00\n        /* \"Base/PaymentSplitter/CandyPaymentSplitterUpgradeable.sol\":6079:6630  for (uint256 i = 0; i < _numPayees.current(); i++) {... */\n    tag_650:\n        /* \"Base/PaymentSplitter/CandyPaymentSplitterUpgradeable.sol\":6103:6113  _numPayees */\n      0xc9\n        /* \"@openzeppelin/contracts-upgradeable/utils/CountersUpgradeable.sol\":929:943  counter._value */\n      sload\n        /* \"Base/PaymentSplitter/CandyPaymentSplitterUpgradeable.sol\":6099:6100  i */\n      dup2\n        /* \"Base/PaymentSplitter/CandyPaymentSplitterUpgradeable.sol\":6099:6123  i < _numPayees.current() */\n      lt\n        /* \"Base/PaymentSplitter/CandyPaymentSplitterUpgradeable.sol\":6079:6630  for (uint256 i = 0; i < _numPayees.current(); i++) {... */\n      iszero\n      tag_374\n      jumpi\n        /* \"Base/PaymentSplitter/CandyPaymentSplitterUpgradeable.sol\":6144:6159  address account */\n      0x00\n        /* \"Base/PaymentSplitter/CandyPaymentSplitterUpgradeable.sol\":6162:6170  payee(i) */\n      tag_655\n        /* \"Base/PaymentSplitter/CandyPaymentSplitterUpgradeable.sol\":6168:6169  i */\n      dup3\n        /* \"Base/PaymentSplitter/CandyPaymentSplitterUpgradeable.sol\":6162:6167  payee */\n      tag_177\n        /* \"Base/PaymentSplitter/CandyPaymentSplitterUpgradeable.sol\":6162:6170  payee(i) */\n      jump\t// in\n    tag_655:\n        /* \"Base/PaymentSplitter/CandyPaymentSplitterUpgradeable.sol\":6144:6170  address account = payee(i) */\n      swap1\n      pop\n        /* \"Base/PaymentSplitter/CandyPaymentSplitterUpgradeable.sol\":6184:6205  uint256 totalReceived */\n      0x00\n        /* \"Base/PaymentSplitter/CandyPaymentSplitterUpgradeable.sol\":6232:6246  _totalReleased */\n      sload(0xcb)\n        /* \"Base/PaymentSplitter/CandyPaymentSplitterUpgradeable.sol\":6208:6229  address(this).balance */\n      selfbalance\n        /* \"Base/PaymentSplitter/CandyPaymentSplitterUpgradeable.sol\":6208:6246  address(this).balance + _totalReleased */\n      tag_656\n      swap2\n      swap1\n      tag_336\n      jump\t// in\n    tag_656:\n      sub(shl(0xa0, 0x01), 0x01)\n        /* \"Base/PaymentSplitter/CandyPaymentSplitterUpgradeable.sol\":6362:6380  _released[account] */\n      dup4\n      and\n        /* \"Base/PaymentSplitter/CandyPaymentSplitterUpgradeable.sol\":6260:6275  uint256 payment */\n      0x00\n        /* \"Base/PaymentSplitter/CandyPaymentSplitterUpgradeable.sol\":6362:6380  _released[account] */\n      swap1\n      dup2\n      mstore\n        /* \"Base/PaymentSplitter/CandyPaymentSplitterUpgradeable.sol\":6362:6371  _released */\n      0xcd\n        /* \"Base/PaymentSplitter/CandyPaymentSplitterUpgradeable.sol\":6362:6380  _released[account] */\n      0x20\n      swap1\n      dup2\n      mstore\n      0x40\n      dup1\n      dup4\n      keccak256\n      sload\n        /* \"Base/PaymentSplitter/CandyPaymentSplitterUpgradeable.sol\":6331:6343  _totalShares */\n      sload(0xca)\n        /* \"Base/PaymentSplitter/CandyPaymentSplitterUpgradeable.sol\":6295:6302  _shares */\n      0xcc\n        /* \"Base/PaymentSplitter/CandyPaymentSplitterUpgradeable.sol\":6295:6311  _shares[account] */\n      swap1\n      swap4\n      mstore\n      swap1\n      dup4\n      keccak256\n      sload\n        /* \"Base/PaymentSplitter/CandyPaymentSplitterUpgradeable.sol\":6184:6246  uint256 totalReceived = address(this).balance + _totalReleased */\n      swap4\n      swap5\n      pop\n        /* \"Base/PaymentSplitter/CandyPaymentSplitterUpgradeable.sol\":6260:6275  uint256 payment */\n      swap2\n      swap3\n        /* \"Base/PaymentSplitter/CandyPaymentSplitterUpgradeable.sol\":6279:6311  totalReceived * _shares[account] */\n      tag_657\n      swap1\n        /* \"Base/PaymentSplitter/CandyPaymentSplitterUpgradeable.sol\":6184:6246  uint256 totalReceived = address(this).balance + _totalReleased */\n      dup6\n        /* \"Base/PaymentSplitter/CandyPaymentSplitterUpgradeable.sol\":6279:6311  totalReceived * _shares[account] */\n      tag_331\n      jump\t// in\n    tag_657:\n        /* \"Base/PaymentSplitter/CandyPaymentSplitterUpgradeable.sol\":6278:6343  (totalReceived * _shares[account]) /... */\n      tag_658\n      swap2\n      swap1\n      tag_363\n      jump\t// in\n    tag_658:\n        /* \"Base/PaymentSplitter/CandyPaymentSplitterUpgradeable.sol\":6278:6380  (totalReceived * _shares[account]) /... */\n      tag_659\n      swap2\n      swap1\n      tag_660\n      jump\t// in\n    tag_659:\n      sub(shl(0xa0, 0x01), 0x01)\n        /* \"Base/PaymentSplitter/CandyPaymentSplitterUpgradeable.sol\":6415:6433  _released[account] */\n      dup5\n      and\n      0x00\n      swap1\n      dup2\n      mstore\n        /* \"Base/PaymentSplitter/CandyPaymentSplitterUpgradeable.sol\":6415:6424  _released */\n      0xcd\n        /* \"Base/PaymentSplitter/CandyPaymentSplitterUpgradeable.sol\":6415:6433  _released[account] */\n      0x20\n      mstore\n      0x40\n      swap1\n      keccak256\n      sload\n        /* \"Base/PaymentSplitter/CandyPaymentSplitterUpgradeable.sol\":6260:6380  uint256 payment = (totalReceived * _shares[account]) /... */\n      swap1\n      swap2\n      pop\n        /* \"Base/PaymentSplitter/CandyPaymentSplitterUpgradeable.sol\":6415:6443  _released[account] + payment */\n      tag_661\n      swap1\n        /* \"Base/PaymentSplitter/CandyPaymentSplitterUpgradeable.sol\":6260:6380  uint256 payment = (totalReceived * _shares[account]) /... */\n      dup3\n      swap1\n        /* \"Base/PaymentSplitter/CandyPaymentSplitterUpgradeable.sol\":6415:6443  _released[account] + payment */\n      tag_336\n      jump\t// in\n    tag_661:\n      sub(shl(0xa0, 0x01), 0x01)\n        /* \"Base/PaymentSplitter/CandyPaymentSplitterUpgradeable.sol\":6394:6412  _released[account] */\n      dup5\n      and\n      0x00\n      swap1\n      dup2\n      mstore\n        /* \"Base/PaymentSplitter/CandyPaymentSplitterUpgradeable.sol\":6394:6403  _released */\n      0xcd\n        /* \"Base/PaymentSplitter/CandyPaymentSplitterUpgradeable.sol\":6394:6412  _released[account] */\n      0x20\n      mstore\n      0x40\n      swap1\n      keccak256\n        /* \"Base/PaymentSplitter/CandyPaymentSplitterUpgradeable.sol\":6394:6443  _released[account] = _released[account] + payment */\n      sstore\n        /* \"Base/PaymentSplitter/CandyPaymentSplitterUpgradeable.sol\":6474:6488  _totalReleased */\n      sload(0xcb)\n        /* \"Base/PaymentSplitter/CandyPaymentSplitterUpgradeable.sol\":6474:6498  _totalReleased + payment */\n      tag_662\n      swap1\n        /* \"Base/PaymentSplitter/CandyPaymentSplitterUpgradeable.sol\":6491:6498  payment */\n      dup3\n      swap1\n        /* \"Base/PaymentSplitter/CandyPaymentSplitterUpgradeable.sol\":6474:6498  _totalReleased + payment */\n      tag_336\n      jump\t// in\n    tag_662:\n        /* \"Base/PaymentSplitter/CandyPaymentSplitterUpgradeable.sol\":6457:6471  _totalReleased */\n      0xcb\n        /* \"Base/PaymentSplitter/CandyPaymentSplitterUpgradeable.sol\":6457:6498  _totalReleased = _totalReleased + payment */\n      sstore\n        /* \"Base/PaymentSplitter/CandyPaymentSplitterUpgradeable.sol\":6512:6567  AddressUpgradeable.sendValue(payable(account), payment) */\n      tag_663\n        /* \"Base/PaymentSplitter/CandyPaymentSplitterUpgradeable.sol\":6549:6556  account */\n      dup4\n        /* \"Base/PaymentSplitter/CandyPaymentSplitterUpgradeable.sol\":6559:6566  payment */\n      dup3\n        /* \"Base/PaymentSplitter/CandyPaymentSplitterUpgradeable.sol\":6512:6540  AddressUpgradeable.sendValue */\n      tag_664\n        /* \"Base/PaymentSplitter/CandyPaymentSplitterUpgradeable.sol\":6512:6567  AddressUpgradeable.sendValue(payable(account), payment) */\n      jump\t// in\n    tag_663:\n        /* \"Base/PaymentSplitter/CandyPaymentSplitterUpgradeable.sol\":6586:6619  PaymentReleased(account, payment) */\n      0x40\n      dup1\n      mload\n      sub(shl(0xa0, 0x01), 0x01)\n        /* \"#utility.yul\":206:238   */\n      dup6\n      and\n        /* \"#utility.yul\":188:239   */\n      dup2\n      mstore\n        /* \"#utility.yul\":270:272   */\n      0x20\n        /* \"#utility.yul\":255:273   */\n      dup2\n      add\n        /* \"#utility.yul\":248:282   */\n      dup4\n      swap1\n      mstore\n        /* \"Base/PaymentSplitter/CandyPaymentSplitterUpgradeable.sol\":6586:6619  PaymentReleased(account, payment) */\n      0xdf20fd1e76bc69d672e4814fafb2c449bba3a5369d8359adf9e05e6fde87b056\n      swap2\n        /* \"#utility.yul\":161:179   */\n      add\n        /* \"Base/PaymentSplitter/CandyPaymentSplitterUpgradeable.sol\":6586:6619  PaymentReleased(account, payment) */\n      mload(0x40)\n      dup1\n      swap2\n      sub\n      swap1\n      log1\n        /* \"Base/PaymentSplitter/CandyPaymentSplitterUpgradeable.sol\":6130:6630  {... */\n      pop\n      pop\n      pop\n        /* \"Base/PaymentSplitter/CandyPaymentSplitterUpgradeable.sol\":6125:6128  i++ */\n      dup1\n      dup1\n      tag_666\n      swap1\n      tag_606\n      jump\t// in\n    tag_666:\n      swap2\n      pop\n      pop\n        /* \"Base/PaymentSplitter/CandyPaymentSplitterUpgradeable.sol\":6079:6630  for (uint256 i = 0; i < _numPayees.current(); i++) {... */\n      jump(tag_650)\n        /* \"Base/Token/ERC721A/ERC721AUpgradeable.sol\":19620:20292  function _checkContractOnERC721Received(... */\n    tag_480:\n        /* \"Base/Token/ERC721A/ERC721AUpgradeable.sol\":19798:19881  IERC721ReceiverUpgradeable(to).onERC721Received(_msgSender(), from, tokenId, _data) */\n      mload(0x40)\n      shl(0xe1, 0x0a85bd01)\n      dup2\n      mstore\n        /* \"Base/Token/ERC721A/ERC721AUpgradeable.sol\":19778:19782  bool */\n      0x00\n      swap1\n      sub(shl(0xa0, 0x01), 0x01)\n        /* \"Base/Token/ERC721A/ERC721AUpgradeable.sol\":19798:19845  IERC721ReceiverUpgradeable(to).onERC721Received */\n      dup6\n      and\n      swap1\n      0x150b7a02\n      swap1\n        /* \"Base/Token/ERC721A/ERC721AUpgradeable.sol\":19798:19881  IERC721ReceiverUpgradeable(to).onERC721Received(_msgSender(), from, tokenId, _data) */\n      tag_670\n      swap1\n        /* \"@openzeppelin/contracts-upgradeable/utils/ContextUpgradeable.sol\":929:939  msg.sender */\n      caller\n      swap1\n        /* \"Base/Token/ERC721A/ERC721AUpgradeable.sol\":19860:19864  from */\n      dup10\n      swap1\n        /* \"Base/Token/ERC721A/ERC721AUpgradeable.sol\":19866:19873  tokenId */\n      dup9\n      swap1\n        /* \"Base/Token/ERC721A/ERC721AUpgradeable.sol\":19875:19880  _data */\n      dup9\n      swap1\n        /* \"Base/Token/ERC721A/ERC721AUpgradeable.sol\":19798:19881  IERC721ReceiverUpgradeable(to).onERC721Received(_msgSender(), from, tokenId, _data) */\n      0x04\n      add\n      tag_671\n      jump\t// in\n    tag_670:\n      0x20\n      mload(0x40)\n      dup1\n      dup4\n      sub\n      dup2\n      0x00\n      dup8\n      gas\n      call\n      swap3\n      pop\n      pop\n      pop\n      dup1\n      iszero\n      tag_672\n      jumpi\n      pop\n      0x40\n      dup1\n      mload\n      0x1f\n      returndatasize\n      swap1\n      dup2\n      add\n      not(0x1f)\n      and\n      dup3\n      add\n      swap1\n      swap3\n      mstore\n      tag_673\n      swap2\n      dup2\n      add\n      swap1\n      tag_674\n      jump\t// in\n    tag_673:\n      0x01\n    tag_672:\n        /* \"Base/Token/ERC721A/ERC721AUpgradeable.sol\":19794:20286  try IERC721ReceiverUpgradeable(to).onERC721Received(_msgSender(), from, tokenId, _data) returns (bytes4 retval) {... */\n      tag_675\n      jumpi\n      returndatasize\n      dup1\n      dup1\n      iszero\n      tag_680\n      jumpi\n      mload(0x40)\n      swap2\n      pop\n      and(add(returndatasize, 0x3f), not(0x1f))\n      dup3\n      add\n      0x40\n      mstore\n      returndatasize\n      dup3\n      mstore\n      returndatasize\n      0x00\n      0x20\n      dup5\n      add\n      returndatacopy\n      jump(tag_679)\n    tag_680:\n      0x60\n      swap2\n      pop\n    tag_679:\n      pop\n        /* \"Base/Token/ERC721A/ERC721AUpgradeable.sol\":20051:20057  reason */\n      dup1\n        /* \"Base/Token/ERC721A/ERC721AUpgradeable.sol\":20051:20064  reason.length */\n      mload\n        /* \"Base/Token/ERC721A/ERC721AUpgradeable.sol\":20068:20069  0 */\n      0x00\n        /* \"Base/Token/ERC721A/ERC721AUpgradeable.sol\":20051:20069  reason.length == 0 */\n      sub\n        /* \"Base/Token/ERC721A/ERC721AUpgradeable.sol\":20047:20276  if (reason.length == 0) {... */\n      tag_681\n      jumpi\n        /* \"Base/Token/ERC721A/ERC721AUpgradeable.sol\":20096:20136  TransferToNonERC721ReceiverImplementer() */\n      mload(0x40)\n      shl(0xe1, 0x68d2bf6b)\n      dup2\n      mstore\n      0x04\n      add\n      mload(0x40)\n      dup1\n      swap2\n      sub\n      swap1\n      revert\n        /* \"Base/Token/ERC721A/ERC721AUpgradeable.sol\":20047:20276  if (reason.length == 0) {... */\n    tag_681:\n        /* \"Base/Token/ERC721A/ERC721AUpgradeable.sol\":20236:20242  reason */\n      dup1\n        /* \"Base/Token/ERC721A/ERC721AUpgradeable.sol\":20230:20243  mload(reason) */\n      mload\n        /* \"Base/Token/ERC721A/ERC721AUpgradeable.sol\":20221:20227  reason */\n      dup2\n        /* \"Base/Token/ERC721A/ERC721AUpgradeable.sol\":20217:20219  32 */\n      0x20\n        /* \"Base/Token/ERC721A/ERC721AUpgradeable.sol\":20213:20228  add(32, reason) */\n      add\n        /* \"Base/Token/ERC721A/ERC721AUpgradeable.sol\":20206:20244  revert(add(32, reason), mload(reason)) */\n      revert\n        /* \"Base/Token/ERC721A/ERC721AUpgradeable.sol\":19794:20286  try IERC721ReceiverUpgradeable(to).onERC721Received(_msgSender(), from, tokenId, _data) returns (bytes4 retval) {... */\n    tag_675:\n      not(sub(shl(0xe0, 0x01), 0x01))\n        /* \"Base/Token/ERC721A/ERC721AUpgradeable.sol\":19927:19993  retval == IERC721ReceiverUpgradeable(to).onERC721Received.selector */\n      and\n      shl(0xe1, 0x0a85bd01)\n      eq\n      swap1\n      pop\n        /* \"Base/Token/ERC721A/ERC721AUpgradeable.sol\":19794:20286  try IERC721ReceiverUpgradeable(to).onERC721Received(_msgSender(), from, tokenId, _data) returns (bytes4 retval) {... */\n    tag_683:\n        /* \"Base/Token/ERC721A/ERC721AUpgradeable.sol\":19620:20292  function _checkContractOnERC721Received(... */\n      swap5\n      swap4\n      pop\n      pop\n      pop\n      pop\n      jump\t// out\n        /* \"Base/Token/CandyCreator721AUpgradeable.sol\":23015:23110  function _baseURI() internal view override returns (string memory) {... */\n    tag_494:\n        /* \"Base/Token/CandyCreator721AUpgradeable.sol\":23067:23080  string memory */\n      0x60\n        /* \"Base/Token/CandyCreator721AUpgradeable.sol\":23099:23103  base */\n      0xfc\n        /* \"Base/Token/CandyCreator721AUpgradeable.sol\":23092:23103  return base */\n      dup1\n      sload\n      tag_282\n      swap1\n      tag_283\n      jump\t// in\n        /* \"@openzeppelin/contracts-upgradeable/utils/StringsUpgradeable.sol\":339:1042  function toString(uint256 value) internal pure returns (string memory) {... */\n    tag_503:\n        /* \"@openzeppelin/contracts-upgradeable/utils/StringsUpgradeable.sol\":395:408  string memory */\n      0x60\n        /* \"@openzeppelin/contracts-upgradeable/utils/StringsUpgradeable.sol\":612:617  value */\n      dup2\n        /* \"@openzeppelin/contracts-upgradeable/utils/StringsUpgradeable.sol\":621:622  0 */\n      0x00\n        /* \"@openzeppelin/contracts-upgradeable/utils/StringsUpgradeable.sol\":612:622  value == 0 */\n      sub\n        /* \"@openzeppelin/contracts-upgradeable/utils/StringsUpgradeable.sol\":608:659  if (value == 0) {... */\n      tag_691\n      jumpi\n      pop\n      pop\n        /* \"@openzeppelin/contracts-upgradeable/utils/StringsUpgradeable.sol\":638:648  return \"0\" */\n      0x40\n      dup1\n      mload\n      dup1\n      dup3\n      add\n      swap1\n      swap2\n      mstore\n      0x01\n      dup2\n      mstore\n      shl(0xfc, 0x03)\n      0x20\n      dup3\n      add\n      mstore\n      swap1\n        /* \"@openzeppelin/contracts-upgradeable/utils/StringsUpgradeable.sol\":339:1042  function toString(uint256 value) internal pure returns (string memory) {... */\n      jump\t// out\n        /* \"@openzeppelin/contracts-upgradeable/utils/StringsUpgradeable.sol\":608:659  if (value == 0) {... */\n    tag_691:\n        /* \"@openzeppelin/contracts-upgradeable/utils/StringsUpgradeable.sol\":683:688  value */\n      dup2\n        /* \"@openzeppelin/contracts-upgradeable/utils/StringsUpgradeable.sol\":668:680  uint256 temp */\n      0x00\n        /* \"@openzeppelin/contracts-upgradeable/utils/StringsUpgradeable.sol\":722:797  while (temp != 0) {... */\n    tag_692:\n        /* \"@openzeppelin/contracts-upgradeable/utils/StringsUpgradeable.sol\":729:738  temp != 0 */\n      dup2\n      iszero\n        /* \"@openzeppelin/contracts-upgradeable/utils/StringsUpgradeable.sol\":722:797  while (temp != 0) {... */\n      tag_693\n      jumpi\n        /* \"@openzeppelin/contracts-upgradeable/utils/StringsUpgradeable.sol\":754:762  digits++ */\n      dup1\n      tag_694\n      dup2\n      tag_606\n      jump\t// in\n    tag_694:\n      swap2\n      pop\n        /* \"@openzeppelin/contracts-upgradeable/utils/StringsUpgradeable.sol\":776:786  temp /= 10 */\n      tag_695\n      swap1\n      pop\n        /* \"@openzeppelin/contracts-upgradeable/utils/StringsUpgradeable.sol\":784:786  10 */\n      0x0a\n        /* \"@openzeppelin/contracts-upgradeable/utils/StringsUpgradeable.sol\":776:786  temp /= 10 */\n      dup4\n      tag_363\n      jump\t// in\n    tag_695:\n      swap2\n      pop\n        /* \"@openzeppelin/contracts-upgradeable/utils/StringsUpgradeable.sol\":722:797  while (temp != 0) {... */\n      jump(tag_692)\n    tag_693:\n        /* \"@openzeppelin/contracts-upgradeable/utils/StringsUpgradeable.sol\":806:825  bytes memory buffer */\n      0x00\n        /* \"@openzeppelin/contracts-upgradeable/utils/StringsUpgradeable.sol\":838:844  digits */\n      dup2\n      sub(shl(0x40, 0x01), 0x01)\n        /* \"@openzeppelin/contracts-upgradeable/utils/StringsUpgradeable.sol\":828:845  new bytes(digits) */\n      dup2\n      gt\n      iszero\n      tag_697\n      jumpi\n      tag_697\n      tag_698\n      jump\t// in\n    tag_697:\n      mload(0x40)\n      swap1\n      dup1\n      dup3\n      mstore\n      dup1\n      0x1f\n      add\n      not(0x1f)\n      and\n      0x20\n      add\n      dup3\n      add\n      0x40\n      mstore\n      dup1\n      iszero\n      tag_699\n      jumpi\n      0x20\n      dup3\n      add\n      dup2\n      dup1\n      calldatasize\n      dup4\n      calldatacopy\n      add\n      swap1\n      pop\n    tag_699:\n      pop\n        /* \"@openzeppelin/contracts-upgradeable/utils/StringsUpgradeable.sol\":806:845  bytes memory buffer = new bytes(digits) */\n      swap1\n      pop\n        /* \"@openzeppelin/contracts-upgradeable/utils/StringsUpgradeable.sol\":855:1005  while (value != 0) {... */\n    tag_700:\n        /* \"@openzeppelin/contracts-upgradeable/utils/StringsUpgradeable.sol\":862:872  value != 0 */\n      dup5\n      iszero\n        /* \"@openzeppelin/contracts-upgradeable/utils/StringsUpgradeable.sol\":855:1005  while (value != 0) {... */\n      tag_683\n      jumpi\n        /* \"@openzeppelin/contracts-upgradeable/utils/StringsUpgradeable.sol\":888:899  digits -= 1 */\n      tag_702\n        /* \"@openzeppelin/contracts-upgradeable/utils/StringsUpgradeable.sol\":898:899  1 */\n      0x01\n        /* \"@openzeppelin/contracts-upgradeable/utils/StringsUpgradeable.sol\":888:899  digits -= 1 */\n      dup4\n      tag_660\n      jump\t// in\n    tag_702:\n      swap2\n      pop\n        /* \"@openzeppelin/contracts-upgradeable/utils/StringsUpgradeable.sol\":956:966  value % 10 */\n      tag_703\n        /* \"@openzeppelin/contracts-upgradeable/utils/StringsUpgradeable.sol\":964:966  10 */\n      0x0a\n        /* \"@openzeppelin/contracts-upgradeable/utils/StringsUpgradeable.sol\":956:961  value */\n      dup7\n        /* \"@openzeppelin/contracts-upgradeable/utils/StringsUpgradeable.sol\":956:966  value % 10 */\n      tag_704\n      jump\t// in\n    tag_703:\n        /* \"@openzeppelin/contracts-upgradeable/utils/StringsUpgradeable.sol\":943:967  48 + uint256(value % 10) */\n      tag_705\n      swap1\n        /* \"@openzeppelin/contracts-upgradeable/utils/StringsUpgradeable.sol\":943:945  48 */\n      0x30\n        /* \"@openzeppelin/contracts-upgradeable/utils/StringsUpgradeable.sol\":943:967  48 + uint256(value % 10) */\n      tag_336\n      jump\t// in\n    tag_705:\n        /* \"@openzeppelin/contracts-upgradeable/utils/StringsUpgradeable.sol\":930:969  bytes1(uint8(48 + uint256(value % 10))) */\n      0xf8\n      shl\n        /* \"@openzeppelin/contracts-upgradeable/utils/StringsUpgradeable.sol\":913:919  buffer */\n      dup2\n        /* \"@openzeppelin/contracts-upgradeable/utils/StringsUpgradeable.sol\":920:926  digits */\n      dup4\n        /* \"@openzeppelin/contracts-upgradeable/utils/StringsUpgradeable.sol\":913:927  buffer[digits] */\n      dup2\n      mload\n      dup2\n      lt\n      tag_707\n      jumpi\n      tag_707\n      tag_433\n      jump\t// in\n    tag_707:\n      0x20\n      add\n      add\n        /* \"@openzeppelin/contracts-upgradeable/utils/StringsUpgradeable.sol\":913:969  buffer[digits] = bytes1(uint8(48 + uint256(value % 10))) */\n      swap1\n      not(sub(shl(0xf8, 0x01), 0x01))\n      and\n      swap1\n      dup2\n      0x00\n      byte\n      swap1\n      mstore8\n      pop\n        /* \"@openzeppelin/contracts-upgradeable/utils/StringsUpgradeable.sol\":983:994  value /= 10 */\n      tag_708\n        /* \"@openzeppelin/contracts-upgradeable/utils/StringsUpgradeable.sol\":992:994  10 */\n      0x0a\n        /* \"@openzeppelin/contracts-upgradeable/utils/StringsUpgradeable.sol\":983:994  value /= 10 */\n      dup7\n      tag_363\n      jump\t// in\n    tag_708:\n      swap5\n      pop\n        /* \"@openzeppelin/contracts-upgradeable/utils/StringsUpgradeable.sol\":855:1005  while (value != 0) {... */\n      jump(tag_700)\n        /* \"Base/Token/ERC721A/ERC721AUpgradeable.sol\":2266:2468  function __ERC721A_init_unchained(string memory name_, string memory symbol_) internal onlyInitializing {... */\n    tag_578:\n        /* \"@openzeppelin/contracts-upgradeable/proxy/utils/Initializable.sol\":2952:2965  _initializing */\n      sload(0x00)\n      0x0100\n      swap1\n      div\n      0xff\n      and\n        /* \"@openzeppelin/contracts-upgradeable/proxy/utils/Initializable.sol\":2944:3013  require(_initializing, \"Initializable: contract is not initializing\") */\n      tag_712\n      jumpi\n      mload(0x40)\n      shl(0xe5, 0x461bcd)\n      dup2\n      mstore\n      0x04\n      add\n      tag_308\n      swap1\n      tag_575\n      jump\t// in\n    tag_712:\n        /* \"Base/Token/ERC721A/ERC721AUpgradeable.sol\":2380:2393  _name = name_ */\n      dup2\n      mload\n      tag_715\n      swap1\n        /* \"Base/Token/ERC721A/ERC721AUpgradeable.sol\":2380:2385  _name */\n      0x99\n      swap1\n        /* \"Base/Token/ERC721A/ERC721AUpgradeable.sol\":2380:2393  _name = name_ */\n      0x20\n      dup6\n      add\n      swap1\n      tag_321\n      jump\t// in\n    tag_715:\n      pop\n        /* \"Base/Token/ERC721A/ERC721AUpgradeable.sol\":2403:2420  _symbol = symbol_ */\n      dup1\n      mload\n      tag_716\n      swap1\n        /* \"Base/Token/ERC721A/ERC721AUpgradeable.sol\":2403:2410  _symbol */\n      0x9a\n      swap1\n        /* \"Base/Token/ERC721A/ERC721AUpgradeable.sol\":2403:2420  _symbol = symbol_ */\n      0x20\n      dup5\n      add\n      swap1\n      tag_321\n      jump\t// in\n    tag_716:\n      pop\n        /* \"Base/Token/CandyCreator721AUpgradeable.sol\":23337:23338  1 */\n      0x01\n        /* \"Base/Token/ERC721A/ERC721AUpgradeable.sol\":2430:2443  _currentIndex */\n      0x97\n        /* \"Base/Token/ERC721A/ERC721AUpgradeable.sol\":2430:2461  _currentIndex = _startTokenId() */\n      sstore\n      pop\n      pop\n        /* \"Base/Token/ERC721A/ERC721AUpgradeable.sol\":2266:2468  function __ERC721A_init_unchained(string memory name_, string memory symbol_) internal onlyInitializing {... */\n      jump\t// out\n        /* \"@openzeppelin/contracts-upgradeable/access/OwnableUpgradeable.sol\":1089:1200  function __Ownable_init_unchained() internal onlyInitializing {... */\n    tag_584:\n        /* \"@openzeppelin/contracts-upgradeable/proxy/utils/Initializable.sol\":2952:2965  _initializing */\n      sload(0x00)\n      0x0100\n      swap1\n      div\n      0xff\n      and\n        /* \"@openzeppelin/contracts-upgradeable/proxy/utils/Initializable.sol\":2944:3013  require(_initializing, \"Initializable: contract is not initializing\") */\n      tag_719\n      jumpi\n      mload(0x40)\n      shl(0xe5, 0x461bcd)\n      dup2\n      mstore\n      0x04\n      add\n      tag_308\n      swap1\n      tag_575\n      jump\t// in\n    tag_719:\n        /* \"@openzeppelin/contracts-upgradeable/access/OwnableUpgradeable.sol\":1161:1193  _transferOwnership(_msgSender()) */\n      tag_411\n        /* \"@openzeppelin/contracts-upgradeable/utils/ContextUpgradeable.sol\":929:939  msg.sender */\n      caller\n        /* \"@openzeppelin/contracts-upgradeable/access/OwnableUpgradeable.sol\":1161:1179  _transferOwnership */\n      tag_412\n        /* \"@openzeppelin/contracts-upgradeable/access/OwnableUpgradeable.sol\":1161:1193  _transferOwnership(_msgSender()) */\n      jump\t// in\n        /* \"Base/Token/CandyCreator721AUpgradeable.sol\":13572:13754  function addPayee(address newAddress, uint256 _basisPoints) private {... */\n    tag_590:\n        /* \"Base/Token/CandyCreator721AUpgradeable.sol\":13659:13671  lockedPayees */\n      sload(0x0102)\n      shl(0x50, 0x01)\n      swap1\n      div\n      0xff\n      and\n        /* \"Base/Token/CandyCreator721AUpgradeable.sol\":13658:13671  !lockedPayees */\n      iszero\n        /* \"Base/Token/CandyCreator721AUpgradeable.sol\":13650:13702  require(!lockedPayees, \"Can not set, payees locked\") */\n      tag_725\n      jumpi\n      mload(0x40)\n      shl(0xe5, 0x461bcd)\n      dup2\n      mstore\n        /* \"#utility.yul\":17485:17487   */\n      0x20\n        /* \"Base/Token/CandyCreator721AUpgradeable.sol\":13650:13702  require(!lockedPayees, \"Can not set, payees locked\") */\n      0x04\n      dup3\n      add\n        /* \"#utility.yul\":17467:17488   */\n      mstore\n        /* \"#utility.yul\":17524:17526   */\n      0x1a\n        /* \"#utility.yul\":17504:17522   */\n      0x24\n      dup3\n      add\n        /* \"#utility.yul\":17497:17527   */\n      mstore\n        /* \"#utility.yul\":17563:17591   */\n      0x43616e206e6f74207365742c20706179656573206c6f636b6564000000000000\n        /* \"#utility.yul\":17543:17561   */\n      0x44\n      dup3\n      add\n        /* \"#utility.yul\":17536:17592   */\n      mstore\n        /* \"#utility.yul\":17609:17627   */\n      0x64\n      add\n        /* \"Base/Token/CandyCreator721AUpgradeable.sol\":13650:13702  require(!lockedPayees, \"Can not set, payees locked\") */\n      tag_308\n        /* \"#utility.yul\":17283:17633   */\n      jump\n        /* \"Base/Token/CandyCreator721AUpgradeable.sol\":13650:13702  require(!lockedPayees, \"Can not set, payees locked\") */\n    tag_725:\n        /* \"Base/Token/CandyCreator721AUpgradeable.sol\":13712:13747  _addPayee(newAddress, _basisPoints) */\n      tag_398\n        /* \"Base/Token/CandyCreator721AUpgradeable.sol\":13722:13732  newAddress */\n      dup3\n        /* \"Base/Token/CandyCreator721AUpgradeable.sol\":13734:13746  _basisPoints */\n      dup3\n        /* \"Base/Token/CandyCreator721AUpgradeable.sol\":13712:13721  _addPayee */\n      tag_729\n        /* \"Base/Token/CandyCreator721AUpgradeable.sol\":13712:13747  _addPayee(newAddress, _basisPoints) */\n      jump\t// in\n        /* \"Base/Token/CandyCreator721AUpgradeable.sol\":13844:14013  function lockPayees() private {... */\n    tag_595:\n        /* \"Base/Token/CandyCreator721AUpgradeable.sol\":13893:13905  lockedPayees */\n      sload(0x0102)\n      shl(0x50, 0x01)\n      swap1\n      div\n      0xff\n      and\n        /* \"Base/Token/CandyCreator721AUpgradeable.sol\":13892:13905  !lockedPayees */\n      iszero\n        /* \"Base/Token/CandyCreator721AUpgradeable.sol\":13884:13936  require(!lockedPayees, \"Can not set, payees locked\") */\n      tag_731\n      jumpi\n      mload(0x40)\n      shl(0xe5, 0x461bcd)\n      dup2\n      mstore\n        /* \"#utility.yul\":17485:17487   */\n      0x20\n        /* \"Base/Token/CandyCreator721AUpgradeable.sol\":13884:13936  require(!lockedPayees, \"Can not set, payees locked\") */\n      0x04\n      dup3\n      add\n        /* \"#utility.yul\":17467:17488   */\n      mstore\n        /* \"#utility.yul\":17524:17526   */\n      0x1a\n        /* \"#utility.yul\":17504:17522   */\n      0x24\n      dup3\n      add\n        /* \"#utility.yul\":17497:17527   */\n      mstore\n        /* \"#utility.yul\":17563:17591   */\n      0x43616e206e6f74207365742c20706179656573206c6f636b6564000000000000\n        /* \"#utility.yul\":17543:17561   */\n      0x44\n      dup3\n      add\n        /* \"#utility.yul\":17536:17592   */\n      mstore\n        /* \"#utility.yul\":17609:17627   */\n      0x64\n      add\n        /* \"Base/Token/CandyCreator721AUpgradeable.sol\":13884:13936  require(!lockedPayees, \"Can not set, payees locked\") */\n      tag_308\n        /* \"#utility.yul\":17283:17633   */\n      jump\n        /* \"Base/Token/CandyCreator721AUpgradeable.sol\":13884:13936  require(!lockedPayees, \"Can not set, payees locked\") */\n    tag_731:\n        /* \"Base/Token/CandyCreator721AUpgradeable.sol\":13946:13958  lockedPayees */\n      0x0102\n        /* \"Base/Token/CandyCreator721AUpgradeable.sol\":13946:13965  lockedPayees = true */\n      dup1\n      sload\n      not(shl(0x50, 0xff))\n      and\n      shl(0x50, 0x01)\n      swap1\n      dup2\n      or\n      swap2\n      dup3\n      swap1\n      sstore\n        /* \"Base/Token/CandyCreator721AUpgradeable.sol\":13980:14006  PayeesLocked(lockedPayees) */\n      mload(0x40)\n      0x07fe2f03bd4fa149b9d8918fb57a6e2a3b1fbbb29a4d4536df7e6cd9edf02ed8\n      swap3\n      tag_733\n      swap3\n        /* \"Base/Token/CandyCreator721AUpgradeable.sol\":13993:14005  lockedPayees */\n      swap1\n      div\n        /* \"Base/Token/CandyCreator721AUpgradeable.sol\":13946:13965  lockedPayees = true */\n      0xff\n        /* \"Base/Token/CandyCreator721AUpgradeable.sol\":13993:14005  lockedPayees */\n      and\n        /* \"#utility.yul\":844:858   */\n      iszero\n        /* \"#utility.yul\":837:859   */\n      iszero\n        /* \"#utility.yul\":819:860   */\n      dup2\n      mstore\n        /* \"#utility.yul\":807:809   */\n      0x20\n        /* \"#utility.yul\":792:810   */\n      add\n      swap1\n        /* \"#utility.yul\":679:866   */\n      jump\n        /* \"Base/Token/CandyCreator721AUpgradeable.sol\":13980:14006  PayeesLocked(lockedPayees) */\n    tag_733:\n      mload(0x40)\n      dup1\n      swap2\n      sub\n      swap1\n      log1\n        /* \"Base/Token/CandyCreator721AUpgradeable.sol\":13844:14013  function lockPayees() private {... */\n      jump\t// out\n        /* \"@openzeppelin/contracts-upgradeable/utils/cryptography/MerkleProofUpgradeable.sol\":1409:2071  function processProof(bytes32[] memory proof, bytes32 leaf) internal pure returns (bytes32) {... */\n    tag_611:\n        /* \"@openzeppelin/contracts-upgradeable/utils/cryptography/MerkleProofUpgradeable.sol\":1492:1499  bytes32 */\n      0x00\n        /* \"@openzeppelin/contracts-upgradeable/utils/cryptography/MerkleProofUpgradeable.sol\":1534:1538  leaf */\n      dup2\n        /* \"@openzeppelin/contracts-upgradeable/utils/cryptography/MerkleProofUpgradeable.sol\":1492:1499  bytes32 */\n      dup2\n        /* \"@openzeppelin/contracts-upgradeable/utils/cryptography/MerkleProofUpgradeable.sol\":1548:2036  for (uint256 i = 0; i < proof.length; i++) {... */\n    tag_735:\n        /* \"@openzeppelin/contracts-upgradeable/utils/cryptography/MerkleProofUpgradeable.sol\":1572:1577  proof */\n      dup5\n        /* \"@openzeppelin/contracts-upgradeable/utils/cryptography/MerkleProofUpgradeable.sol\":1572:1584  proof.length */\n      mload\n        /* \"@openzeppelin/contracts-upgradeable/utils/cryptography/MerkleProofUpgradeable.sol\":1568:1569  i */\n      dup2\n        /* \"@openzeppelin/contracts-upgradeable/utils/cryptography/MerkleProofUpgradeable.sol\":1568:1584  i < proof.length */\n      lt\n        /* \"@openzeppelin/contracts-upgradeable/utils/cryptography/MerkleProofUpgradeable.sol\":1548:2036  for (uint256 i = 0; i < proof.length; i++) {... */\n      iszero\n      tag_736\n      jumpi\n        /* \"@openzeppelin/contracts-upgradeable/utils/cryptography/MerkleProofUpgradeable.sol\":1605:1625  bytes32 proofElement */\n      0x00\n        /* \"@openzeppelin/contracts-upgradeable/utils/cryptography/MerkleProofUpgradeable.sol\":1628:1633  proof */\n      dup6\n        /* \"@openzeppelin/contracts-upgradeable/utils/cryptography/MerkleProofUpgradeable.sol\":1634:1635  i */\n      dup3\n        /* \"@openzeppelin/contracts-upgradeable/utils/cryptography/MerkleProofUpgradeable.sol\":1628:1636  proof[i] */\n      dup2\n      mload\n      dup2\n      lt\n      tag_739\n      jumpi\n      tag_739\n      tag_433\n      jump\t// in\n    tag_739:\n      0x20\n      mul\n      0x20\n      add\n      add\n      mload\n        /* \"@openzeppelin/contracts-upgradeable/utils/cryptography/MerkleProofUpgradeable.sol\":1605:1636  bytes32 proofElement = proof[i] */\n      swap1\n      pop\n        /* \"@openzeppelin/contracts-upgradeable/utils/cryptography/MerkleProofUpgradeable.sol\":1670:1682  proofElement */\n      dup1\n        /* \"@openzeppelin/contracts-upgradeable/utils/cryptography/MerkleProofUpgradeable.sol\":1654:1666  computedHash */\n      dup4\n        /* \"@openzeppelin/contracts-upgradeable/utils/cryptography/MerkleProofUpgradeable.sol\":1654:1682  computedHash <= proofElement */\n      gt\n        /* \"@openzeppelin/contracts-upgradeable/utils/cryptography/MerkleProofUpgradeable.sol\":1650:2026  if (computedHash <= proofElement) {... */\n      tag_740\n      jumpi\n        /* \"@openzeppelin/contracts-upgradeable/utils/cryptography/MerkleProofUpgradeable.sol\":2145:2158  bytes32 value */\n      0x00\n        /* \"@openzeppelin/contracts-upgradeable/utils/cryptography/MerkleProofUpgradeable.sol\":2193:2208  mstore(0x00, a) */\n      dup4\n      dup2\n      mstore\n        /* \"@openzeppelin/contracts-upgradeable/utils/cryptography/MerkleProofUpgradeable.sol\":2228:2232  0x20 */\n      0x20\n        /* \"@openzeppelin/contracts-upgradeable/utils/cryptography/MerkleProofUpgradeable.sol\":2221:2236  mstore(0x20, b) */\n      dup3\n      swap1\n      mstore\n        /* \"@openzeppelin/contracts-upgradeable/utils/cryptography/MerkleProofUpgradeable.sol\":2274:2278  0x40 */\n      0x40\n        /* \"@openzeppelin/contracts-upgradeable/utils/cryptography/MerkleProofUpgradeable.sol\":2258:2279  keccak256(0x00, 0x40) */\n      swap1\n      keccak256\n        /* \"@openzeppelin/contracts-upgradeable/utils/cryptography/MerkleProofUpgradeable.sol\":1780:1837  computedHash = _efficientHash(computedHash, proofElement) */\n      swap3\n      pop\n        /* \"@openzeppelin/contracts-upgradeable/utils/cryptography/MerkleProofUpgradeable.sol\":1650:2026  if (computedHash <= proofElement) {... */\n      jump(tag_743)\n    tag_740:\n        /* \"@openzeppelin/contracts-upgradeable/utils/cryptography/MerkleProofUpgradeable.sol\":2145:2158  bytes32 value */\n      0x00\n        /* \"@openzeppelin/contracts-upgradeable/utils/cryptography/MerkleProofUpgradeable.sol\":2193:2208  mstore(0x00, a) */\n      dup2\n      dup2\n      mstore\n        /* \"@openzeppelin/contracts-upgradeable/utils/cryptography/MerkleProofUpgradeable.sol\":2228:2232  0x20 */\n      0x20\n        /* \"@openzeppelin/contracts-upgradeable/utils/cryptography/MerkleProofUpgradeable.sol\":2221:2236  mstore(0x20, b) */\n      dup5\n      swap1\n      mstore\n        /* \"@openzeppelin/contracts-upgradeable/utils/cryptography/MerkleProofUpgradeable.sol\":2274:2278  0x40 */\n      0x40\n        /* \"@openzeppelin/contracts-upgradeable/utils/cryptography/MerkleProofUpgradeable.sol\":2258:2279  keccak256(0x00, 0x40) */\n      swap1\n      keccak256\n        /* \"@openzeppelin/contracts-upgradeable/utils/cryptography/MerkleProofUpgradeable.sol\":1954:2011  computedHash = _efficientHash(proofElement, computedHash) */\n      swap3\n      pop\n        /* \"@openzeppelin/contracts-upgradeable/utils/cryptography/MerkleProofUpgradeable.sol\":1650:2026  if (computedHash <= proofElement) {... */\n    tag_743:\n      pop\n        /* \"@openzeppelin/contracts-upgradeable/utils/cryptography/MerkleProofUpgradeable.sol\":1586:1589  i++ */\n      dup1\n      tag_745\n      dup2\n      tag_606\n      jump\t// in\n    tag_745:\n      swap2\n      pop\n      pop\n        /* \"@openzeppelin/contracts-upgradeable/utils/cryptography/MerkleProofUpgradeable.sol\":1548:2036  for (uint256 i = 0; i < proof.length; i++) {... */\n      jump(tag_735)\n    tag_736:\n      pop\n        /* \"@openzeppelin/contracts-upgradeable/utils/cryptography/MerkleProofUpgradeable.sol\":2052:2064  computedHash */\n      swap4\n        /* \"@openzeppelin/contracts-upgradeable/utils/cryptography/MerkleProofUpgradeable.sol\":1409:2071  function processProof(bytes32[] memory proof, bytes32 leaf) internal pure returns (bytes32) {... */\n      swap3\n      pop\n      pop\n      pop\n      jump\t// out\n        /* \"Base/Token/ERC721A/ERC721AUpgradeable.sol\":10679:12389  function _safeMint(... */\n    tag_615:\n        /* \"Base/Token/ERC721A/ERC721AUpgradeable.sol\":10820:10833  _currentIndex */\n      sload(0x97)\n      sub(shl(0xa0, 0x01), 0x01)\n        /* \"Base/Token/ERC721A/ERC721AUpgradeable.sol\":10847:10863  to == address(0) */\n      dup5\n      and\n        /* \"Base/Token/ERC721A/ERC721AUpgradeable.sol\":10843:10891  if (to == address(0)) revert MintToZeroAddress() */\n      tag_747\n      jumpi\n        /* \"Base/Token/ERC721A/ERC721AUpgradeable.sol\":10872:10891  MintToZeroAddress() */\n      mload(0x40)\n      shl(0xe8, 0x2e0763)\n      dup2\n      mstore\n      0x04\n      add\n      mload(0x40)\n      dup1\n      swap2\n      sub\n      swap1\n      revert\n        /* \"Base/Token/ERC721A/ERC721AUpgradeable.sol\":10843:10891  if (to == address(0)) revert MintToZeroAddress() */\n    tag_747:\n        /* \"Base/Token/ERC721A/ERC721AUpgradeable.sol\":10905:10913  quantity */\n      dup3\n        /* \"Base/Token/ERC721A/ERC721AUpgradeable.sol\":10917:10918  0 */\n      0x00\n        /* \"Base/Token/ERC721A/ERC721AUpgradeable.sol\":10905:10918  quantity == 0 */\n      sub\n        /* \"Base/Token/ERC721A/ERC721AUpgradeable.sol\":10901:10945  if (quantity == 0) revert MintZeroQuantity() */\n      tag_748\n      jumpi\n        /* \"Base/Token/ERC721A/ERC721AUpgradeable.sol\":10927:10945  MintZeroQuantity() */\n      mload(0x40)\n      shl(0xe0, 0xb562e8dd)\n      dup2\n      mstore\n      0x04\n      add\n      mload(0x40)\n      dup1\n      swap2\n      sub\n      swap1\n      revert\n        /* \"Base/Token/ERC721A/ERC721AUpgradeable.sol\":10901:10945  if (quantity == 0) revert MintZeroQuantity() */\n    tag_748:\n      sub(shl(0xa0, 0x01), 0x01)\n        /* \"Base/Token/ERC721A/ERC721AUpgradeable.sol\":11288:11304  _addressData[to] */\n      dup5\n      and\n      0x00\n      dup2\n      dup2\n      mstore\n        /* \"Base/Token/ERC721A/ERC721AUpgradeable.sol\":11288:11300  _addressData */\n      0x9c\n        /* \"Base/Token/ERC721A/ERC721AUpgradeable.sol\":11288:11304  _addressData[to] */\n      0x20\n      swap1\n      dup2\n      mstore\n      0x40\n      dup1\n      dup4\n      keccak256\n        /* \"Base/Token/ERC721A/ERC721AUpgradeable.sol\":11288:11332  _addressData[to].balance += uint64(quantity) */\n      dup1\n      sload\n      not(0xffffffffffffffffffffffffffffffff)\n        /* \"Base/Token/ERC721A/ERC721AUpgradeable.sol\":11346:11395  _addressData[to].numberMinted += uint64(quantity) */\n      dup2\n      and\n      sub(shl(0x40, 0x01), 0x01)\n        /* \"Base/Token/ERC721A/ERC721AUpgradeable.sol\":11288:11332  _addressData[to].balance += uint64(quantity) */\n      dup1\n      dup4\n      and\n      dup12\n      add\n      dup2\n      and\n        /* \"Base/Token/ERC721A/ERC721AUpgradeable.sol\":11346:11395  _addressData[to].numberMinted += uint64(quantity) */\n      swap2\n      dup3\n      or\n      shl(0x40, 0x01)\n      not(0xffffffffffffffff)\n        /* \"Base/Token/ERC721A/ERC721AUpgradeable.sol\":11288:11332  _addressData[to].balance += uint64(quantity) */\n      swap1\n      swap5\n      and\n      swap1\n      swap3\n      or\n        /* \"Base/Token/ERC721A/ERC721AUpgradeable.sol\":11346:11395  _addressData[to].numberMinted += uint64(quantity) */\n      dup4\n      swap1\n      div\n      dup2\n      and\n      dup12\n      add\n      dup2\n      and\n      swap1\n      swap3\n      mul\n      or\n      swap1\n      swap2\n      sstore\n        /* \"Base/Token/ERC721A/ERC721AUpgradeable.sol\":11410:11435  _ownerships[startTokenId] */\n      dup6\n      dup5\n      mstore\n        /* \"Base/Token/ERC721A/ERC721AUpgradeable.sol\":11410:11421  _ownerships */\n      0x9b\n        /* \"Base/Token/ERC721A/ERC721AUpgradeable.sol\":11410:11435  _ownerships[startTokenId] */\n      swap1\n      swap3\n      mstore\n      swap1\n      swap2\n      keccak256\n        /* \"Base/Token/ERC721A/ERC721AUpgradeable.sol\":11410:11445  _ownerships[startTokenId].addr = to */\n      dup1\n      sload\n      not(sub(shl(0xe0, 0x01), 0x01))\n        /* \"Base/Token/ERC721A/ERC721AUpgradeable.sol\":11459:11525  _ownerships[startTokenId].startTimestamp = uint64(block.timestamp) */\n      and\n      dup4\n      or\n      shl(0xa0, 0x01)\n        /* \"Base/Token/ERC721A/ERC721AUpgradeable.sol\":11509:11524  block.timestamp */\n      timestamp\n        /* \"Base/Token/ERC721A/ERC721AUpgradeable.sol\":11459:11525  _ownerships[startTokenId].startTimestamp = uint64(block.timestamp) */\n      swap1\n      swap4\n      and\n      swap3\n      swap1\n      swap3\n      mul\n      swap2\n      swap1\n      swap2\n      or\n      swap1\n      sstore\n        /* \"Base/Token/ERC721A/ERC721AUpgradeable.sol\":11410:11435  _ownerships[startTokenId] */\n      dup2\n      swap1\n        /* \"Base/Token/ERC721A/ERC721AUpgradeable.sol\":11603:11626  updatedIndex + quantity */\n      dup2\n      dup6\n      add\n      swap1\n        /* \"@openzeppelin/contracts-upgradeable/utils/AddressUpgradeable.sol\":1476:1495  account.code.length */\n      extcodesize\n        /* \"@openzeppelin/contracts-upgradeable/utils/AddressUpgradeable.sol\":1476:1499  account.code.length > 0 */\n      iszero\n        /* \"Base/Token/ERC721A/ERC721AUpgradeable.sol\":11641:12261  if (to.isContract()) {... */\n      tag_751\n      jumpi\n        /* \"Base/Token/ERC721A/ERC721AUpgradeable.sol\":11680:11989  do {... */\n    tag_752:\n        /* \"Base/Token/ERC721A/ERC721AUpgradeable.sol\":11710:11748  Transfer(address(0), to, updatedIndex) */\n      mload(0x40)\n        /* \"Base/Token/ERC721A/ERC721AUpgradeable.sol\":11735:11747  updatedIndex */\n      dup3\n      swap1\n      sub(shl(0xa0, 0x01), 0x01)\n        /* \"Base/Token/ERC721A/ERC721AUpgradeable.sol\":11710:11748  Transfer(address(0), to, updatedIndex) */\n      dup9\n      and\n      swap1\n        /* \"Base/Token/ERC721A/ERC721AUpgradeable.sol\":11727:11728  0 */\n      0x00\n      swap1\n        /* \"Base/Token/ERC721A/ERC721AUpgradeable.sol\":11710:11748  Transfer(address(0), to, updatedIndex) */\n      0xddf252ad1be2c89b69c2b068fc378daa952ba7f163c4a11628f55a4df523b3ef\n      swap1\n        /* \"Base/Token/ERC721A/ERC721AUpgradeable.sol\":11727:11728  0 */\n      dup3\n      swap1\n        /* \"Base/Token/ERC721A/ERC721AUpgradeable.sol\":11710:11748  Transfer(address(0), to, updatedIndex) */\n      log4\n        /* \"Base/Token/ERC721A/ERC721AUpgradeable.sol\":11775:11844  _checkContractOnERC721Received(address(0), to, updatedIndex++, _data) */\n      tag_755\n        /* \"Base/Token/ERC721A/ERC721AUpgradeable.sol\":11814:11815  0 */\n      0x00\n        /* \"Base/Token/ERC721A/ERC721AUpgradeable.sol\":11818:11820  to */\n      dup8\n        /* \"Base/Token/ERC721A/ERC721AUpgradeable.sol\":11822:11836  updatedIndex++ */\n      dup5\n      dup1\n      0x01\n      add\n      swap6\n      pop\n        /* \"Base/Token/ERC721A/ERC721AUpgradeable.sol\":11838:11843  _data */\n      dup8\n        /* \"Base/Token/ERC721A/ERC721AUpgradeable.sol\":11775:11805  _checkContractOnERC721Received */\n      tag_480\n        /* \"Base/Token/ERC721A/ERC721AUpgradeable.sol\":11775:11844  _checkContractOnERC721Received(address(0), to, updatedIndex++, _data) */\n      jump\t// in\n    tag_755:\n        /* \"Base/Token/ERC721A/ERC721AUpgradeable.sol\":11770:11942  if (!_checkContractOnERC721Received(address(0), to, updatedIndex++, _data)) {... */\n      tag_756\n      jumpi\n        /* \"Base/Token/ERC721A/ERC721AUpgradeable.sol\":11879:11919  TransferToNonERC721ReceiverImplementer() */\n      mload(0x40)\n      shl(0xe1, 0x68d2bf6b)\n      dup2\n      mstore\n      0x04\n      add\n      mload(0x40)\n      dup1\n      swap2\n      sub\n      swap1\n      revert\n        /* \"Base/Token/ERC721A/ERC721AUpgradeable.sol\":11770:11942  if (!_checkContractOnERC721Received(address(0), to, updatedIndex++, _data)) {... */\n    tag_756:\n        /* \"Base/Token/ERC721A/ERC721AUpgradeable.sol\":11984:11987  end */\n      dup1\n        /* \"Base/Token/ERC721A/ERC721AUpgradeable.sol\":11968:11980  updatedIndex */\n      dup3\n        /* \"Base/Token/ERC721A/ERC721AUpgradeable.sol\":11968:11987  updatedIndex != end */\n      sub\n        /* \"Base/Token/ERC721A/ERC721AUpgradeable.sol\":11680:11989  do {... */\n      tag_752\n      jumpi\n        /* \"Base/Token/ERC721A/ERC721AUpgradeable.sol\":12068:12080  startTokenId */\n      dup3\n        /* \"Base/Token/ERC721A/ERC721AUpgradeable.sol\":12051:12064  _currentIndex */\n      sload(0x97)\n        /* \"Base/Token/ERC721A/ERC721AUpgradeable.sol\":12051:12080  _currentIndex != startTokenId */\n      eq\n        /* \"Base/Token/ERC721A/ERC721AUpgradeable.sol\":12047:12090  if (_currentIndex != startTokenId) revert() */\n      tag_757\n      jumpi\n        /* \"Base/Token/ERC721A/ERC721AUpgradeable.sol\":12082:12090  revert() */\n      0x00\n      dup1\n      revert\n        /* \"Base/Token/ERC721A/ERC721AUpgradeable.sol\":12047:12090  if (_currentIndex != startTokenId) revert() */\n    tag_757:\n        /* \"Base/Token/ERC721A/ERC721AUpgradeable.sol\":11641:12261  if (to.isContract()) {... */\n      jump(tag_758)\n    tag_751:\n        /* \"Base/Token/ERC721A/ERC721AUpgradeable.sol\":12129:12247  do {... */\n    tag_759:\n        /* \"Base/Token/ERC721A/ERC721AUpgradeable.sol\":12159:12199  Transfer(address(0), to, updatedIndex++) */\n      mload(0x40)\n        /* \"Base/Token/ERC721A/ERC721AUpgradeable.sol\":12184:12198  updatedIndex++ */\n      0x01\n      dup4\n      add\n      swap3\n      swap1\n      sub(shl(0xa0, 0x01), 0x01)\n        /* \"Base/Token/ERC721A/ERC721AUpgradeable.sol\":12159:12199  Transfer(address(0), to, updatedIndex++) */\n      dup9\n      and\n      swap1\n        /* \"Base/Token/ERC721A/ERC721AUpgradeable.sol\":12176:12177  0 */\n      0x00\n      swap1\n        /* \"Base/Token/ERC721A/ERC721AUpgradeable.sol\":12159:12199  Transfer(address(0), to, updatedIndex++) */\n      0xddf252ad1be2c89b69c2b068fc378daa952ba7f163c4a11628f55a4df523b3ef\n      swap1\n        /* \"Base/Token/ERC721A/ERC721AUpgradeable.sol\":12176:12177  0 */\n      dup3\n      swap1\n        /* \"Base/Token/ERC721A/ERC721AUpgradeable.sol\":12159:12199  Transfer(address(0), to, updatedIndex++) */\n      log4\n        /* \"Base/Token/ERC721A/ERC721AUpgradeable.sol\":12242:12245  end */\n      dup1\n        /* \"Base/Token/ERC721A/ERC721AUpgradeable.sol\":12226:12238  updatedIndex */\n      dup3\n        /* \"Base/Token/ERC721A/ERC721AUpgradeable.sol\":12226:12245  updatedIndex != end */\n      sub\n        /* \"Base/Token/ERC721A/ERC721AUpgradeable.sol\":12129:12247  do {... */\n      tag_759\n      jumpi\n        /* \"Base/Token/ERC721A/ERC721AUpgradeable.sol\":11641:12261  if (to.isContract()) {... */\n    tag_758:\n      pop\n        /* \"Base/Token/ERC721A/ERC721AUpgradeable.sol\":12274:12287  _currentIndex */\n      0x97\n        /* \"Base/Token/ERC721A/ERC721AUpgradeable.sol\":12274:12302  _currentIndex = updatedIndex */\n      sstore\n        /* \"Base/Token/ERC721A/ERC721AUpgradeable.sol\":12322:12382  _afterTokenTransfers(address(0), to, startTokenId, quantity) */\n      tag_354\n        /* \"Base/Token/ERC721A/ERC721AUpgradeable.sol\":12351:12352  0 */\n      0x00\n        /* \"Base/Token/ERC721A/ERC721AUpgradeable.sol\":12355:12357  to */\n      dup6\n        /* \"Base/Token/ERC721A/ERC721AUpgradeable.sol\":12359:12371  startTokenId */\n      dup4\n        /* \"Base/Token/ERC721A/ERC721AUpgradeable.sol\":12373:12381  quantity */\n      dup7\n        /* \"Base/Token/ERC721A/ERC721AUpgradeable.sol\":12322:12382  _afterTokenTransfers(address(0), to, startTokenId, quantity) */\n      dup5\n      jump\t// in\n        /* \"@openzeppelin/contracts-upgradeable/utils/AddressUpgradeable.sol\":2423:2735  function sendValue(address payable recipient, uint256 amount) internal {... */\n    tag_664:\n        /* \"@openzeppelin/contracts-upgradeable/utils/AddressUpgradeable.sol\":2537:2543  amount */\n      dup1\n        /* \"@openzeppelin/contracts-upgradeable/utils/AddressUpgradeable.sol\":2512:2533  address(this).balance */\n      selfbalance\n        /* \"@openzeppelin/contracts-upgradeable/utils/AddressUpgradeable.sol\":2512:2543  address(this).balance >= amount */\n      lt\n      iszero\n        /* \"@openzeppelin/contracts-upgradeable/utils/AddressUpgradeable.sol\":2504:2577  require(address(this).balance >= amount, \"Address: insufficient balance\") */\n      tag_767\n      jumpi\n      mload(0x40)\n      shl(0xe5, 0x461bcd)\n      dup2\n      mstore\n        /* \"#utility.yul\":17840:17842   */\n      0x20\n        /* \"@openzeppelin/contracts-upgradeable/utils/AddressUpgradeable.sol\":2504:2577  require(address(this).balance >= amount, \"Address: insufficient balance\") */\n      0x04\n      dup3\n      add\n        /* \"#utility.yul\":17822:17843   */\n      mstore\n        /* \"#utility.yul\":17879:17881   */\n      0x1d\n        /* \"#utility.yul\":17859:17877   */\n      0x24\n      dup3\n      add\n        /* \"#utility.yul\":17852:17882   */\n      mstore\n        /* \"#utility.yul\":17918:17949   */\n      0x416464726573733a20696e73756666696369656e742062616c616e6365000000\n        /* \"#utility.yul\":17898:17916   */\n      0x44\n      dup3\n      add\n        /* \"#utility.yul\":17891:17950   */\n      mstore\n        /* \"#utility.yul\":17967:17985   */\n      0x64\n      add\n        /* \"@openzeppelin/contracts-upgradeable/utils/AddressUpgradeable.sol\":2504:2577  require(address(this).balance >= amount, \"Address: insufficient balance\") */\n      tag_308\n        /* \"#utility.yul\":17638:17991   */\n      jump\n        /* \"@openzeppelin/contracts-upgradeable/utils/AddressUpgradeable.sol\":2504:2577  require(address(this).balance >= amount, \"Address: insufficient balance\") */\n    tag_767:\n        /* \"@openzeppelin/contracts-upgradeable/utils/AddressUpgradeable.sol\":2589:2601  bool success */\n      0x00\n        /* \"@openzeppelin/contracts-upgradeable/utils/AddressUpgradeable.sol\":2607:2616  recipient */\n      dup3\n      sub(shl(0xa0, 0x01), 0x01)\n        /* \"@openzeppelin/contracts-upgradeable/utils/AddressUpgradeable.sol\":2607:2621  recipient.call */\n      and\n        /* \"@openzeppelin/contracts-upgradeable/utils/AddressUpgradeable.sol\":2629:2635  amount */\n      dup3\n        /* \"@openzeppelin/contracts-upgradeable/utils/AddressUpgradeable.sol\":2607:2640  recipient.call{value: amount}(\"\") */\n      mload(0x40)\n      0x00\n      mload(0x40)\n      dup1\n      dup4\n      sub\n      dup2\n      dup6\n      dup8\n      gas\n      call\n      swap3\n      pop\n      pop\n      pop\n      returndatasize\n      dup1\n      0x00\n      dup2\n      eq\n      tag_774\n      jumpi\n      mload(0x40)\n      swap2\n      pop\n      and(add(returndatasize, 0x3f), not(0x1f))\n      dup3\n      add\n      0x40\n      mstore\n      returndatasize\n      dup3\n      mstore\n      returndatasize\n      0x00\n      0x20\n      dup5\n      add\n      returndatacopy\n      jump(tag_773)\n    tag_774:\n      0x60\n      swap2\n      pop\n    tag_773:\n      pop\n        /* \"@openzeppelin/contracts-upgradeable/utils/AddressUpgradeable.sol\":2588:2640  (bool success, ) = recipient.call{value: amount}(\"\") */\n      pop\n      swap1\n      pop\n        /* \"@openzeppelin/contracts-upgradeable/utils/AddressUpgradeable.sol\":2658:2665  success */\n      dup1\n        /* \"@openzeppelin/contracts-upgradeable/utils/AddressUpgradeable.sol\":2650:2728  require(success, \"Address: unable to send value, recipient may have reverted\") */\n      tag_300\n      jumpi\n      mload(0x40)\n      shl(0xe5, 0x461bcd)\n      dup2\n      mstore\n        /* \"#utility.yul\":18408:18410   */\n      0x20\n        /* \"@openzeppelin/contracts-upgradeable/utils/AddressUpgradeable.sol\":2650:2728  require(success, \"Address: unable to send value, recipient may have reverted\") */\n      0x04\n      dup3\n      add\n        /* \"#utility.yul\":18390:18411   */\n      mstore\n        /* \"#utility.yul\":18447:18449   */\n      0x3a\n        /* \"#utility.yul\":18427:18445   */\n      0x24\n      dup3\n      add\n        /* \"#utility.yul\":18420:18450   */\n      mstore\n        /* \"#utility.yul\":18486:18520   */\n      0x416464726573733a20756e61626c6520746f2073656e642076616c75652c2072\n        /* \"#utility.yul\":18466:18484   */\n      0x44\n      dup3\n      add\n        /* \"#utility.yul\":18459:18521   */\n      mstore\n        /* \"#utility.yul\":18557:18585   */\n      0x6563697069656e74206d61792068617665207265766572746564000000000000\n        /* \"#utility.yul\":18537:18555   */\n      0x64\n      dup3\n      add\n        /* \"#utility.yul\":18530:18586   */\n      mstore\n        /* \"#utility.yul\":18603:18622   */\n      0x84\n      add\n        /* \"@openzeppelin/contracts-upgradeable/utils/AddressUpgradeable.sol\":2650:2728  require(success, \"Address: unable to send value, recipient may have reverted\") */\n      tag_308\n        /* \"#utility.yul\":18206:18628   */\n      jump\n        /* \"Base/PaymentSplitter/CandyPaymentSplitterUpgradeable.sol\":6822:7263  function _addPayee(address account, uint256 shares_) internal {... */\n    tag_729:\n      sub(shl(0xa0, 0x01), 0x01)\n        /* \"Base/PaymentSplitter/CandyPaymentSplitterUpgradeable.sol\":6898:6919  account == address(0) */\n      dup3\n      and\n        /* \"Base/PaymentSplitter/CandyPaymentSplitterUpgradeable.sol\":6894:6949  if (account == address(0)) revert SharesToZeroAddress() */\n      tag_779\n      jumpi\n        /* \"Base/PaymentSplitter/CandyPaymentSplitterUpgradeable.sol\":6928:6949  SharesToZeroAddress() */\n      mload(0x40)\n      shl(0xe0, 0xab387169)\n      dup2\n      mstore\n      0x04\n      add\n      mload(0x40)\n      dup1\n      swap2\n      sub\n      swap1\n      revert\n        /* \"Base/PaymentSplitter/CandyPaymentSplitterUpgradeable.sol\":6894:6949  if (account == address(0)) revert SharesToZeroAddress() */\n    tag_779:\n        /* \"Base/PaymentSplitter/CandyPaymentSplitterUpgradeable.sol\":6974:6975  0 */\n      0x00\n        /* \"Base/PaymentSplitter/CandyPaymentSplitterUpgradeable.sol\":6963:6970  shares_ */\n      dup2\n        /* \"Base/PaymentSplitter/CandyPaymentSplitterUpgradeable.sol\":6963:6975  shares_ <= 0 */\n      gt\n        /* \"Base/PaymentSplitter/CandyPaymentSplitterUpgradeable.sol\":6959:6999  if (shares_ <= 0) revert InvalidShares() */\n      tag_780\n      jumpi\n        /* \"Base/PaymentSplitter/CandyPaymentSplitterUpgradeable.sol\":6984:6999  InvalidShares() */\n      mload(0x40)\n      shl(0xe0, 0x6edcc523)\n      dup2\n      mstore\n      0x04\n      add\n      mload(0x40)\n      dup1\n      swap2\n      sub\n      swap1\n      revert\n        /* \"Base/PaymentSplitter/CandyPaymentSplitterUpgradeable.sol\":6959:6999  if (shares_ <= 0) revert InvalidShares() */\n    tag_780:\n      sub(shl(0xa0, 0x01), 0x01)\n        /* \"Base/PaymentSplitter/CandyPaymentSplitterUpgradeable.sol\":7013:7029  _shares[account] */\n      dup3\n      and\n      0x00\n      swap1\n      dup2\n      mstore\n        /* \"Base/PaymentSplitter/CandyPaymentSplitterUpgradeable.sol\":7013:7020  _shares */\n      0xcc\n        /* \"Base/PaymentSplitter/CandyPaymentSplitterUpgradeable.sol\":7013:7029  _shares[account] */\n      0x20\n      mstore\n      0x40\n      swap1\n      keccak256\n      sload\n        /* \"Base/PaymentSplitter/CandyPaymentSplitterUpgradeable.sol\":7013:7034  _shares[account] != 0 */\n      iszero\n        /* \"Base/PaymentSplitter/CandyPaymentSplitterUpgradeable.sol\":7009:7067  if (_shares[account] != 0) revert AddressAlreadyAssigned() */\n      tag_781\n      jumpi\n        /* \"Base/PaymentSplitter/CandyPaymentSplitterUpgradeable.sol\":7043:7067  AddressAlreadyAssigned() */\n      mload(0x40)\n      shl(0xe0, 0xb3f5cfa5)\n      dup2\n      mstore\n      0x04\n      add\n      mload(0x40)\n      dup1\n      swap2\n      sub\n      swap1\n      revert\n        /* \"Base/PaymentSplitter/CandyPaymentSplitterUpgradeable.sol\":7009:7067  if (_shares[account] != 0) revert AddressAlreadyAssigned() */\n    tag_781:\n        /* \"Base/PaymentSplitter/CandyPaymentSplitterUpgradeable.sol\":7077:7099  _numPayees.increment() */\n      tag_782\n        /* \"Base/PaymentSplitter/CandyPaymentSplitterUpgradeable.sol\":7077:7087  _numPayees */\n      0xc9\n        /* \"@openzeppelin/contracts-upgradeable/utils/CountersUpgradeable.sol\":1043:1062  counter._value += 1 */\n      dup1\n      sload\n        /* \"@openzeppelin/contracts-upgradeable/utils/CountersUpgradeable.sol\":1061:1062  1 */\n      0x01\n        /* \"@openzeppelin/contracts-upgradeable/utils/CountersUpgradeable.sol\":1043:1062  counter._value += 1 */\n      add\n      swap1\n      sstore\n        /* \"@openzeppelin/contracts-upgradeable/utils/CountersUpgradeable.sol\":956:1079  function increment(Counter storage counter) internal {... */\n      jump\n        /* \"Base/PaymentSplitter/CandyPaymentSplitterUpgradeable.sol\":7077:7099  _numPayees.increment() */\n    tag_782:\n        /* \"Base/PaymentSplitter/CandyPaymentSplitterUpgradeable.sol\":7109:7116  _payees */\n      0xce\n        /* \"Base/PaymentSplitter/CandyPaymentSplitterUpgradeable.sol\":7109:7130  _payees.push(account) */\n      dup1\n      sload\n      0x01\n      dup2\n      add\n      swap1\n      swap2\n      sstore\n      0xd36cd1c74ef8d7326d8021b776c18fb5a5724b7f7bc93c2f42e43e10ef27d12a\n      add\n      dup1\n      sload\n      not(sub(shl(0xa0, 0x01), 0x01))\n      and\n      sub(shl(0xa0, 0x01), 0x01)\n      dup5\n      and\n      swap1\n      dup2\n      or\n      swap1\n      swap2\n      sstore\n      0x00\n        /* \"Base/PaymentSplitter/CandyPaymentSplitterUpgradeable.sol\":7140:7156  _shares[account] */\n      swap1\n      dup2\n      mstore\n        /* \"Base/PaymentSplitter/CandyPaymentSplitterUpgradeable.sol\":7140:7147  _shares */\n      0xcc\n        /* \"Base/PaymentSplitter/CandyPaymentSplitterUpgradeable.sol\":7109:7130  _payees.push(account) */\n      0x20\n        /* \"Base/PaymentSplitter/CandyPaymentSplitterUpgradeable.sol\":7140:7156  _shares[account] */\n      mstore\n      0x40\n      swap1\n      keccak256\n        /* \"Base/PaymentSplitter/CandyPaymentSplitterUpgradeable.sol\":7140:7166  _shares[account] = shares_ */\n      dup2\n      swap1\n      sstore\n        /* \"Base/PaymentSplitter/CandyPaymentSplitterUpgradeable.sol\":7191:7203  _totalShares */\n      sload(0xca)\n        /* \"Base/PaymentSplitter/CandyPaymentSplitterUpgradeable.sol\":7191:7213  _totalShares + shares_ */\n      tag_785\n      swap1\n        /* \"Base/PaymentSplitter/CandyPaymentSplitterUpgradeable.sol\":7140:7166  _shares[account] = shares_ */\n      dup3\n      swap1\n        /* \"Base/PaymentSplitter/CandyPaymentSplitterUpgradeable.sol\":7191:7213  _totalShares + shares_ */\n      tag_336\n      jump\t// in\n    tag_785:\n        /* \"Base/PaymentSplitter/CandyPaymentSplitterUpgradeable.sol\":7176:7188  _totalShares */\n      0xca\n        /* \"Base/PaymentSplitter/CandyPaymentSplitterUpgradeable.sol\":7176:7213  _totalShares = _totalShares + shares_ */\n      sstore\n        /* \"Base/PaymentSplitter/CandyPaymentSplitterUpgradeable.sol\":7228:7256  PayeeAdded(account, shares_) */\n      0x40\n      dup1\n      mload\n      sub(shl(0xa0, 0x01), 0x01)\n        /* \"#utility.yul\":206:238   */\n      dup5\n      and\n        /* \"#utility.yul\":188:239   */\n      dup2\n      mstore\n        /* \"#utility.yul\":270:272   */\n      0x20\n        /* \"#utility.yul\":255:273   */\n      dup2\n      add\n        /* \"#utility.yul\":248:282   */\n      dup4\n      swap1\n      mstore\n        /* \"Base/PaymentSplitter/CandyPaymentSplitterUpgradeable.sol\":7228:7256  PayeeAdded(account, shares_) */\n      0x40c340f65e17194d14ddddb073d3c9f888e3cb52b5aae0c6c7706b4fbc905fac\n      swap2\n        /* \"#utility.yul\":161:179   */\n      add\n        /* \"Base/PaymentSplitter/CandyPaymentSplitterUpgradeable.sol\":7228:7256  PayeeAdded(account, shares_) */\n      tag_390\n        /* \"#utility.yul\":14:288   */\n      jump\n    tag_321:\n      dup3\n      dup1\n      sload\n      tag_789\n      swap1\n      tag_283\n      jump\t// in\n    tag_789:\n      swap1\n      0x00\n      mstore\n      keccak256(0x00, 0x20)\n      swap1\n      0x1f\n      add\n      0x20\n      swap1\n      div\n      dup2\n      add\n      swap3\n      dup3\n      tag_791\n      jumpi\n      0x00\n      dup6\n      sstore\n      jump(tag_794)\n    tag_791:\n      dup3\n      0x1f\n      lt\n      tag_792\n      jumpi\n      dup1\n      mload\n      not(0xff)\n      and\n      dup4\n      dup1\n      add\n      or\n      dup6\n      sstore\n      jump(tag_794)\n    tag_792:\n      dup3\n      dup1\n      add\n      0x01\n      add\n      dup6\n      sstore\n      dup3\n      iszero\n      tag_794\n      jumpi\n      swap2\n      dup3\n      add\n    tag_793:\n      dup3\n      dup2\n      gt\n      iszero\n      tag_794\n      jumpi\n      dup3\n      mload\n      dup3\n      sstore\n      swap2\n      0x20\n      add\n      swap2\n      swap1\n      0x01\n      add\n      swap1\n      jump(tag_793)\n    tag_794:\n      pop\n      tag_795\n      swap3\n      swap2\n      pop\n      tag_796\n      jump\t// in\n    tag_795:\n      pop\n      swap1\n      jump\t// out\n    tag_443:\n      dup3\n      dup1\n      sload\n      tag_797\n      swap1\n      tag_283\n      jump\t// in\n    tag_797:\n      swap1\n      0x00\n      mstore\n      keccak256(0x00, 0x20)\n      swap1\n      0x1f\n      add\n      0x20\n      swap1\n      div\n      dup2\n      add\n      swap3\n      dup3\n      tag_799\n      jumpi\n      0x00\n      dup6\n      sstore\n      jump(tag_794)\n    tag_799:\n      dup3\n      0x1f\n      lt\n      tag_800\n      jumpi\n      dup3\n      dup1\n      add\n      not(0xff)\n      dup3\n      calldataload\n      and\n      or\n      dup6\n      sstore\n      jump(tag_794)\n    tag_800:\n      dup3\n      dup1\n      add\n      0x01\n      add\n      dup6\n      sstore\n      dup3\n      iszero\n      tag_794\n      jumpi\n      swap2\n      dup3\n      add\n    tag_801:\n      dup3\n      dup2\n      gt\n      iszero\n      tag_794\n      jumpi\n      dup3\n      calldataload\n      dup3\n      sstore\n      swap2\n      0x20\n      add\n      swap2\n      swap1\n      0x01\n      add\n      swap1\n      jump(tag_801)\n    tag_796:\n    tag_804:\n      dup1\n      dup3\n      gt\n      iszero\n      tag_795\n      jumpi\n      0x00\n      dup2\n      sstore\n      0x01\n      add\n      jump(tag_804)\n        /* \"#utility.yul\":293:424   */\n    tag_806:\n      not(sub(shl(0xe0, 0x01), 0x01))\n        /* \"#utility.yul\":367:399   */\n      dup2\n      and\n        /* \"#utility.yul\":357:400   */\n      dup2\n      eq\n        /* \"#utility.yul\":347:418   */\n      tag_374\n      jumpi\n        /* \"#utility.yul\":414:415   */\n      0x00\n        /* \"#utility.yul\":411:412   */\n      dup1\n        /* \"#utility.yul\":404:416   */\n      revert\n        /* \"#utility.yul\":429:674   */\n    tag_72:\n        /* \"#utility.yul\":487:493   */\n      0x00\n        /* \"#utility.yul\":540:542   */\n      0x20\n        /* \"#utility.yul\":528:537   */\n      dup3\n        /* \"#utility.yul\":519:526   */\n      dup5\n        /* \"#utility.yul\":515:538   */\n      sub\n        /* \"#utility.yul\":511:543   */\n      slt\n        /* \"#utility.yul\":508:560   */\n      iszero\n      tag_824\n      jumpi\n        /* \"#utility.yul\":556:557   */\n      0x00\n        /* \"#utility.yul\":553:554   */\n      dup1\n        /* \"#utility.yul\":546:558   */\n      revert\n        /* \"#utility.yul\":508:560   */\n    tag_824:\n        /* \"#utility.yul\":595:604   */\n      dup2\n        /* \"#utility.yul\":582:605   */\n      calldataload\n        /* \"#utility.yul\":614:644   */\n      tag_501\n        /* \"#utility.yul\":638:643   */\n      dup2\n        /* \"#utility.yul\":614:644   */\n      tag_806\n      jump\t// in\n        /* \"#utility.yul\":871:1129   */\n    tag_807:\n        /* \"#utility.yul\":943:944   */\n      0x00\n        /* \"#utility.yul\":953:1066   */\n    tag_828:\n        /* \"#utility.yul\":967:973   */\n      dup4\n        /* \"#utility.yul\":964:965   */\n      dup2\n        /* \"#utility.yul\":961:974   */\n      lt\n        /* \"#utility.yul\":953:1066   */\n      iszero\n      tag_830\n      jumpi\n        /* \"#utility.yul\":1043:1054   */\n      dup2\n      dup2\n      add\n        /* \"#utility.yul\":1037:1055   */\n      mload\n        /* \"#utility.yul\":1024:1035   */\n      dup4\n      dup3\n      add\n        /* \"#utility.yul\":1017:1056   */\n      mstore\n        /* \"#utility.yul\":989:991   */\n      0x20\n        /* \"#utility.yul\":982:992   */\n      add\n        /* \"#utility.yul\":953:1066   */\n      jump(tag_828)\n    tag_830:\n        /* \"#utility.yul\":1084:1090   */\n      dup4\n        /* \"#utility.yul\":1081:1082   */\n      dup2\n        /* \"#utility.yul\":1078:1091   */\n      gt\n        /* \"#utility.yul\":1075:1123   */\n      iszero\n      tag_354\n      jumpi\n      pop\n      pop\n        /* \"#utility.yul\":1119:1120   */\n      0x00\n        /* \"#utility.yul\":1101:1117   */\n      swap2\n      add\n        /* \"#utility.yul\":1094:1121   */\n      mstore\n        /* \"#utility.yul\":871:1129   */\n      jump\t// out\n        /* \"#utility.yul\":1134:1392   */\n    tag_808:\n        /* \"#utility.yul\":1176:1179   */\n      0x00\n        /* \"#utility.yul\":1214:1219   */\n      dup2\n        /* \"#utility.yul\":1208:1220   */\n      mload\n        /* \"#utility.yul\":1241:1247   */\n      dup1\n        /* \"#utility.yul\":1236:1239   */\n      dup5\n        /* \"#utility.yul\":1229:1248   */\n      mstore\n        /* \"#utility.yul\":1257:1320   */\n      tag_833\n        /* \"#utility.yul\":1313:1319   */\n      dup2\n        /* \"#utility.yul\":1306:1310   */\n      0x20\n        /* \"#utility.yul\":1301:1304   */\n      dup7\n        /* \"#utility.yul\":1297:1311   */\n      add\n        /* \"#utility.yul\":1290:1294   */\n      0x20\n        /* \"#utility.yul\":1283:1288   */\n      dup7\n        /* \"#utility.yul\":1279:1295   */\n      add\n        /* \"#utility.yul\":1257:1320   */\n      tag_807\n      jump\t// in\n    tag_833:\n        /* \"#utility.yul\":1374:1376   */\n      0x1f\n        /* \"#utility.yul\":1353:1368   */\n      add\n      not(0x1f)\n        /* \"#utility.yul\":1349:1378   */\n      and\n        /* \"#utility.yul\":1340:1379   */\n      swap3\n      swap1\n      swap3\n      add\n        /* \"#utility.yul\":1381:1385   */\n      0x20\n        /* \"#utility.yul\":1336:1386   */\n      add\n      swap3\n        /* \"#utility.yul\":1134:1392   */\n      swap2\n      pop\n      pop\n      jump\t// out\n        /* \"#utility.yul\":1397:1617   */\n    tag_80:\n        /* \"#utility.yul\":1546:1548   */\n      0x20\n        /* \"#utility.yul\":1535:1544   */\n      dup2\n        /* \"#utility.yul\":1528:1549   */\n      mstore\n        /* \"#utility.yul\":1509:1513   */\n      0x00\n        /* \"#utility.yul\":1566:1611   */\n      tag_501\n        /* \"#utility.yul\":1607:1609   */\n      0x20\n        /* \"#utility.yul\":1596:1605   */\n      dup4\n        /* \"#utility.yul\":1592:1610   */\n      add\n        /* \"#utility.yul\":1584:1590   */\n      dup5\n        /* \"#utility.yul\":1566:1611   */\n      tag_808\n      jump\t// in\n        /* \"#utility.yul\":1622:1802   */\n    tag_84:\n        /* \"#utility.yul\":1681:1687   */\n      0x00\n        /* \"#utility.yul\":1734:1736   */\n      0x20\n        /* \"#utility.yul\":1722:1731   */\n      dup3\n        /* \"#utility.yul\":1713:1720   */\n      dup5\n        /* \"#utility.yul\":1709:1732   */\n      sub\n        /* \"#utility.yul\":1705:1737   */\n      slt\n        /* \"#utility.yul\":1702:1754   */\n      iszero\n      tag_837\n      jumpi\n        /* \"#utility.yul\":1750:1751   */\n      0x00\n        /* \"#utility.yul\":1747:1748   */\n      dup1\n        /* \"#utility.yul\":1740:1752   */\n      revert\n        /* \"#utility.yul\":1702:1754   */\n    tag_837:\n      pop\n        /* \"#utility.yul\":1773:1796   */\n      calldataload\n      swap2\n        /* \"#utility.yul\":1622:1802   */\n      swap1\n      pop\n      jump\t// out\n        /* \"#utility.yul\":2015:2188   */\n    tag_809:\n        /* \"#utility.yul\":2083:2103   */\n      dup1\n      calldataload\n      sub(shl(0xa0, 0x01), 0x01)\n        /* \"#utility.yul\":2132:2163   */\n      dup2\n      and\n        /* \"#utility.yul\":2122:2164   */\n      dup2\n      eq\n        /* \"#utility.yul\":2112:2182   */\n      tag_840\n      jumpi\n        /* \"#utility.yul\":2178:2179   */\n      0x00\n        /* \"#utility.yul\":2175:2176   */\n      dup1\n        /* \"#utility.yul\":2168:2180   */\n      revert\n        /* \"#utility.yul\":2112:2182   */\n    tag_840:\n        /* \"#utility.yul\":2015:2188   */\n      swap2\n      swap1\n      pop\n      jump\t// out\n        /* \"#utility.yul\":2193:2447   */\n    tag_91:\n        /* \"#utility.yul\":2261:2267   */\n      0x00\n        /* \"#utility.yul\":2269:2275   */\n      dup1\n        /* \"#utility.yul\":2322:2324   */\n      0x40\n        /* \"#utility.yul\":2310:2319   */\n      dup4\n        /* \"#utility.yul\":2301:2308   */\n      dup6\n        /* \"#utility.yul\":2297:2320   */\n      sub\n        /* \"#utility.yul\":2293:2325   */\n      slt\n        /* \"#utility.yul\":2290:2342   */\n      iszero\n      tag_842\n      jumpi\n        /* \"#utility.yul\":2338:2339   */\n      0x00\n        /* \"#utility.yul\":2335:2336   */\n      dup1\n        /* \"#utility.yul\":2328:2340   */\n      revert\n        /* \"#utility.yul\":2290:2342   */\n    tag_842:\n        /* \"#utility.yul\":2361:2390   */\n      tag_843\n        /* \"#utility.yul\":2380:2389   */\n      dup4\n        /* \"#utility.yul\":2361:2390   */\n      tag_809\n      jump\t// in\n    tag_843:\n        /* \"#utility.yul\":2351:2390   */\n      swap5\n        /* \"#utility.yul\":2437:2439   */\n      0x20\n        /* \"#utility.yul\":2422:2440   */\n      swap4\n      swap1\n      swap4\n      add\n        /* \"#utility.yul\":2409:2441   */\n      calldataload\n      swap4\n      pop\n      pop\n      pop\n        /* \"#utility.yul\":2193:2447   */\n      jump\t// out\n        /* \"#utility.yul\":2452:2579   */\n    tag_698:\n        /* \"#utility.yul\":2513:2523   */\n      0x4e487b71\n        /* \"#utility.yul\":2508:2511   */\n      0xe0\n        /* \"#utility.yul\":2504:2524   */\n      shl\n        /* \"#utility.yul\":2501:2502   */\n      0x00\n        /* \"#utility.yul\":2494:2525   */\n      mstore\n        /* \"#utility.yul\":2544:2548   */\n      0x41\n        /* \"#utility.yul\":2541:2542   */\n      0x04\n        /* \"#utility.yul\":2534:2549   */\n      mstore\n        /* \"#utility.yul\":2568:2572   */\n      0x24\n        /* \"#utility.yul\":2565:2566   */\n      0x00\n        /* \"#utility.yul\":2558:2573   */\n      revert\n        /* \"#utility.yul\":2584:2859   */\n    tag_810:\n        /* \"#utility.yul\":2655:2657   */\n      0x40\n        /* \"#utility.yul\":2649:2658   */\n      mload\n        /* \"#utility.yul\":2720:2722   */\n      0x1f\n        /* \"#utility.yul\":2701:2714   */\n      dup3\n      add\n      not(0x1f)\n        /* \"#utility.yul\":2697:2724   */\n      and\n        /* \"#utility.yul\":2685:2725   */\n      dup2\n      add\n      sub(shl(0x40, 0x01), 0x01)\n        /* \"#utility.yul\":2740:2774   */\n      dup2\n      gt\n        /* \"#utility.yul\":2776:2798   */\n      dup3\n      dup3\n      lt\n        /* \"#utility.yul\":2737:2799   */\n      or\n        /* \"#utility.yul\":2734:2822   */\n      iszero\n      tag_847\n      jumpi\n        /* \"#utility.yul\":2802:2820   */\n      tag_847\n      tag_698\n      jump\t// in\n    tag_847:\n        /* \"#utility.yul\":2838:2840   */\n      0x40\n        /* \"#utility.yul\":2831:2853   */\n      mstore\n        /* \"#utility.yul\":2584:2859   */\n      swap2\n      swap1\n      pop\n      jump\t// out\n        /* \"#utility.yul\":2864:3271   */\n    tag_811:\n        /* \"#utility.yul\":2929:2934   */\n      0x00\n      sub(shl(0x40, 0x01), 0x01)\n        /* \"#utility.yul\":2955:2961   */\n      dup4\n        /* \"#utility.yul\":2952:2982   */\n      gt\n        /* \"#utility.yul\":2949:3005   */\n      iszero\n      tag_850\n      jumpi\n        /* \"#utility.yul\":2985:3003   */\n      tag_850\n      tag_698\n      jump\t// in\n    tag_850:\n        /* \"#utility.yul\":3023:3080   */\n      tag_851\n        /* \"#utility.yul\":3068:3070   */\n      0x1f\n        /* \"#utility.yul\":3047:3062   */\n      dup5\n      add\n      not(0x1f)\n        /* \"#utility.yul\":3043:3072   */\n      and\n        /* \"#utility.yul\":3074:3078   */\n      0x20\n        /* \"#utility.yul\":3039:3079   */\n      add\n        /* \"#utility.yul\":3023:3080   */\n      tag_810\n      jump\t// in\n    tag_851:\n        /* \"#utility.yul\":3014:3080   */\n      swap1\n      pop\n        /* \"#utility.yul\":3103:3109   */\n      dup3\n        /* \"#utility.yul\":3096:3101   */\n      dup2\n        /* \"#utility.yul\":3089:3110   */\n      mstore\n        /* \"#utility.yul\":3143:3146   */\n      dup4\n        /* \"#utility.yul\":3134:3140   */\n      dup4\n        /* \"#utility.yul\":3129:3132   */\n      dup4\n        /* \"#utility.yul\":3125:3141   */\n      add\n        /* \"#utility.yul\":3122:3147   */\n      gt\n        /* \"#utility.yul\":3119:3164   */\n      iszero\n      tag_852\n      jumpi\n        /* \"#utility.yul\":3160:3161   */\n      0x00\n        /* \"#utility.yul\":3157:3158   */\n      dup1\n        /* \"#utility.yul\":3150:3162   */\n      revert\n        /* \"#utility.yul\":3119:3164   */\n    tag_852:\n        /* \"#utility.yul\":3209:3215   */\n      dup3\n        /* \"#utility.yul\":3204:3207   */\n      dup3\n        /* \"#utility.yul\":3197:3201   */\n      0x20\n        /* \"#utility.yul\":3190:3195   */\n      dup4\n        /* \"#utility.yul\":3186:3202   */\n      add\n        /* \"#utility.yul\":3173:3216   */\n      calldatacopy\n        /* \"#utility.yul\":3263:3264   */\n      0x00\n        /* \"#utility.yul\":3256:3260   */\n      0x20\n        /* \"#utility.yul\":3247:3253   */\n      dup5\n        /* \"#utility.yul\":3240:3245   */\n      dup4\n        /* \"#utility.yul\":3236:3254   */\n      add\n        /* \"#utility.yul\":3232:3261   */\n      add\n        /* \"#utility.yul\":3225:3265   */\n      mstore\n        /* \"#utility.yul\":2864:3271   */\n      swap4\n      swap3\n      pop\n      pop\n      pop\n      jump\t// out\n        /* \"#utility.yul\":3276:3498   */\n    tag_812:\n        /* \"#utility.yul\":3319:3324   */\n      0x00\n        /* \"#utility.yul\":3372:3375   */\n      dup3\n        /* \"#utility.yul\":3365:3369   */\n      0x1f\n        /* \"#utility.yul\":3357:3363   */\n      dup4\n        /* \"#utility.yul\":3353:3370   */\n      add\n        /* \"#utility.yul\":3349:3376   */\n      slt\n        /* \"#utility.yul\":3339:3394   */\n      tag_854\n      jumpi\n        /* \"#utility.yul\":3390:3391   */\n      0x00\n        /* \"#utility.yul\":3387:3388   */\n      dup1\n        /* \"#utility.yul\":3380:3392   */\n      revert\n        /* \"#utility.yul\":3339:3394   */\n    tag_854:\n        /* \"#utility.yul\":3412:3492   */\n      tag_501\n        /* \"#utility.yul\":3488:3491   */\n      dup4\n        /* \"#utility.yul\":3479:3485   */\n      dup4\n        /* \"#utility.yul\":3466:3486   */\n      calldataload\n        /* \"#utility.yul\":3459:3463   */\n      0x20\n        /* \"#utility.yul\":3451:3457   */\n      dup6\n        /* \"#utility.yul\":3447:3464   */\n      add\n        /* \"#utility.yul\":3412:3492   */\n      tag_811\n      jump\t// in\n        /* \"#utility.yul\":3503:3686   */\n    tag_813:\n        /* \"#utility.yul\":3563:3567   */\n      0x00\n      sub(shl(0x40, 0x01), 0x01)\n        /* \"#utility.yul\":3588:3594   */\n      dup3\n        /* \"#utility.yul\":3585:3615   */\n      gt\n        /* \"#utility.yul\":3582:3638   */\n      iszero\n      tag_858\n      jumpi\n        /* \"#utility.yul\":3618:3636   */\n      tag_858\n      tag_698\n      jump\t// in\n    tag_858:\n      pop\n        /* \"#utility.yul\":3663:3664   */\n      0x05\n        /* \"#utility.yul\":3659:3673   */\n      shl\n        /* \"#utility.yul\":3675:3679   */\n      0x20\n        /* \"#utility.yul\":3655:3680   */\n      add\n      swap1\n        /* \"#utility.yul\":3503:3686   */\n      jump\t// out\n        /* \"#utility.yul\":3691:4359   */\n    tag_814:\n        /* \"#utility.yul\":3745:3750   */\n      0x00\n        /* \"#utility.yul\":3798:3801   */\n      dup3\n        /* \"#utility.yul\":3791:3795   */\n      0x1f\n        /* \"#utility.yul\":3783:3789   */\n      dup4\n        /* \"#utility.yul\":3779:3796   */\n      add\n        /* \"#utility.yul\":3775:3802   */\n      slt\n        /* \"#utility.yul\":3765:3820   */\n      tag_860\n      jumpi\n        /* \"#utility.yul\":3816:3817   */\n      0x00\n        /* \"#utility.yul\":3813:3814   */\n      dup1\n        /* \"#utility.yul\":3806:3818   */\n      revert\n        /* \"#utility.yul\":3765:3820   */\n    tag_860:\n        /* \"#utility.yul\":3852:3858   */\n      dup2\n        /* \"#utility.yul\":3839:3859   */\n      calldataload\n        /* \"#utility.yul\":3878:3882   */\n      0x20\n        /* \"#utility.yul\":3902:3962   */\n      tag_861\n        /* \"#utility.yul\":3918:3961   */\n      tag_862\n        /* \"#utility.yul\":3958:3960   */\n      dup4\n        /* \"#utility.yul\":3918:3961   */\n      tag_813\n      jump\t// in\n    tag_862:\n        /* \"#utility.yul\":3902:3962   */\n      tag_810\n      jump\t// in\n    tag_861:\n        /* \"#utility.yul\":3996:4011   */\n      dup3\n      dup2\n      mstore\n        /* \"#utility.yul\":4082:4083   */\n      0x05\n        /* \"#utility.yul\":4078:4088   */\n      swap3\n      swap1\n      swap3\n      shl\n        /* \"#utility.yul\":4066:4089   */\n      dup5\n      add\n        /* \"#utility.yul\":4062:4094   */\n      dup2\n      add\n      swap2\n        /* \"#utility.yul\":4027:4039   */\n      dup2\n      dup2\n      add\n      swap1\n        /* \"#utility.yul\":4106:4121   */\n      dup7\n      dup5\n      gt\n        /* \"#utility.yul\":4103:4138   */\n      iszero\n      tag_863\n      jumpi\n        /* \"#utility.yul\":4134:4135   */\n      0x00\n        /* \"#utility.yul\":4131:4132   */\n      dup1\n        /* \"#utility.yul\":4124:4136   */\n      revert\n        /* \"#utility.yul\":4103:4138   */\n    tag_863:\n        /* \"#utility.yul\":4170:4172   */\n      dup3\n        /* \"#utility.yul\":4162:4168   */\n      dup7\n        /* \"#utility.yul\":4158:4173   */\n      add\n        /* \"#utility.yul\":4182:4330   */\n    tag_864:\n        /* \"#utility.yul\":4198:4204   */\n      dup5\n        /* \"#utility.yul\":4193:4196   */\n      dup2\n        /* \"#utility.yul\":4190:4205   */\n      lt\n        /* \"#utility.yul\":4182:4330   */\n      iszero\n      tag_866\n      jumpi\n        /* \"#utility.yul\":4264:4287   */\n      tag_867\n        /* \"#utility.yul\":4283:4286   */\n      dup2\n        /* \"#utility.yul\":4264:4287   */\n      tag_809\n      jump\t// in\n    tag_867:\n        /* \"#utility.yul\":4252:4288   */\n      dup4\n      mstore\n        /* \"#utility.yul\":4308:4320   */\n      swap2\n      dup4\n      add\n      swap2\n        /* \"#utility.yul\":4215:4227   */\n      dup4\n      add\n        /* \"#utility.yul\":4182:4330   */\n      jump(tag_864)\n    tag_866:\n      pop\n        /* \"#utility.yul\":4348:4353   */\n      swap7\n        /* \"#utility.yul\":3691:4359   */\n      swap6\n      pop\n      pop\n      pop\n      pop\n      pop\n      pop\n      jump\t// out\n        /* \"#utility.yul\":4364:5026   */\n    tag_815:\n        /* \"#utility.yul\":4418:4423   */\n      0x00\n        /* \"#utility.yul\":4471:4474   */\n      dup3\n        /* \"#utility.yul\":4464:4468   */\n      0x1f\n        /* \"#utility.yul\":4456:4462   */\n      dup4\n        /* \"#utility.yul\":4452:4469   */\n      add\n        /* \"#utility.yul\":4448:4475   */\n      slt\n        /* \"#utility.yul\":4438:4493   */\n      tag_869\n      jumpi\n        /* \"#utility.yul\":4489:4490   */\n      0x00\n        /* \"#utility.yul\":4486:4487   */\n      dup1\n        /* \"#utility.yul\":4479:4491   */\n      revert\n        /* \"#utility.yul\":4438:4493   */\n    tag_869:\n        /* \"#utility.yul\":4525:4531   */\n      dup2\n        /* \"#utility.yul\":4512:4532   */\n      calldataload\n        /* \"#utility.yul\":4551:4555   */\n      0x20\n        /* \"#utility.yul\":4575:4635   */\n      tag_870\n        /* \"#utility.yul\":4591:4634   */\n      tag_862\n        /* \"#utility.yul\":4631:4633   */\n      dup4\n        /* \"#utility.yul\":4591:4634   */\n      tag_813\n      jump\t// in\n        /* \"#utility.yul\":4575:4635   */\n    tag_870:\n        /* \"#utility.yul\":4669:4684   */\n      dup3\n      dup2\n      mstore\n        /* \"#utility.yul\":4755:4756   */\n      0x05\n        /* \"#utility.yul\":4751:4761   */\n      swap3\n      swap1\n      swap3\n      shl\n        /* \"#utility.yul\":4739:4762   */\n      dup5\n      add\n        /* \"#utility.yul\":4735:4767   */\n      dup2\n      add\n      swap2\n        /* \"#utility.yul\":4700:4712   */\n      dup2\n      dup2\n      add\n      swap1\n        /* \"#utility.yul\":4779:4794   */\n      dup7\n      dup5\n      gt\n        /* \"#utility.yul\":4776:4811   */\n      iszero\n      tag_872\n      jumpi\n        /* \"#utility.yul\":4807:4808   */\n      0x00\n        /* \"#utility.yul\":4804:4805   */\n      dup1\n        /* \"#utility.yul\":4797:4809   */\n      revert\n        /* \"#utility.yul\":4776:4811   */\n    tag_872:\n        /* \"#utility.yul\":4843:4845   */\n      dup3\n        /* \"#utility.yul\":4835:4841   */\n      dup7\n        /* \"#utility.yul\":4831:4846   */\n      add\n        /* \"#utility.yul\":4855:4997   */\n    tag_873:\n        /* \"#utility.yul\":4871:4877   */\n      dup5\n        /* \"#utility.yul\":4866:4869   */\n      dup2\n        /* \"#utility.yul\":4863:4878   */\n      lt\n        /* \"#utility.yul\":4855:4997   */\n      iszero\n      tag_866\n      jumpi\n        /* \"#utility.yul\":4937:4954   */\n      dup1\n      calldataload\n        /* \"#utility.yul\":4925:4955   */\n      dup4\n      mstore\n        /* \"#utility.yul\":4975:4987   */\n      swap2\n      dup4\n      add\n      swap2\n        /* \"#utility.yul\":4888:4900   */\n      dup4\n      add\n        /* \"#utility.yul\":4855:4997   */\n      jump(tag_873)\n        /* \"#utility.yul\":5031:5202   */\n    tag_816:\n        /* \"#utility.yul\":5098:5118   */\n      dup1\n      calldataload\n      sub(shl(0x40, 0x01), 0x01)\n        /* \"#utility.yul\":5147:5177   */\n      dup2\n      and\n        /* \"#utility.yul\":5137:5178   */\n      dup2\n      eq\n        /* \"#utility.yul\":5127:5196   */\n      tag_840\n      jumpi\n        /* \"#utility.yul\":5192:5193   */\n      0x00\n        /* \"#utility.yul\":5189:5190   */\n      dup1\n        /* \"#utility.yul\":5182:5194   */\n      revert\n        /* \"#utility.yul\":5207:6784   */\n    tag_96:\n        /* \"#utility.yul\":5435:5441   */\n      0x00\n        /* \"#utility.yul\":5443:5449   */\n      dup1\n        /* \"#utility.yul\":5451:5457   */\n      0x00\n        /* \"#utility.yul\":5459:5465   */\n      dup1\n        /* \"#utility.yul\":5467:5473   */\n      0x00\n        /* \"#utility.yul\":5475:5481   */\n      dup1\n        /* \"#utility.yul\":5483:5489   */\n      0x00\n        /* \"#utility.yul\":5491:5497   */\n      dup1\n        /* \"#utility.yul\":5499:5505   */\n      0x00\n        /* \"#utility.yul\":5507:5513   */\n      dup1\n        /* \"#utility.yul\":5515:5522   */\n      0x00\n        /* \"#utility.yul\":5569:5572   */\n      0x0160\n        /* \"#utility.yul\":5557:5566   */\n      dup13\n        /* \"#utility.yul\":5548:5555   */\n      dup15\n        /* \"#utility.yul\":5544:5567   */\n      sub\n        /* \"#utility.yul\":5540:5573   */\n      slt\n        /* \"#utility.yul\":5537:5590   */\n      iszero\n      tag_879\n      jumpi\n        /* \"#utility.yul\":5586:5587   */\n      0x00\n        /* \"#utility.yul\":5583:5584   */\n      dup1\n        /* \"#utility.yul\":5576:5588   */\n      revert\n        /* \"#utility.yul\":5537:5590   */\n    tag_879:\n      sub(shl(0x40, 0x01), 0x01)\n        /* \"#utility.yul\":5667:5669   */\n      dup1\n        /* \"#utility.yul\":5655:5664   */\n      dup14\n        /* \"#utility.yul\":5642:5665   */\n      calldataload\n        /* \"#utility.yul\":5639:5670   */\n      gt\n        /* \"#utility.yul\":5636:5687   */\n      iszero\n      tag_880\n      jumpi\n        /* \"#utility.yul\":5683:5684   */\n      0x00\n        /* \"#utility.yul\":5680:5681   */\n      dup1\n        /* \"#utility.yul\":5673:5685   */\n      revert\n        /* \"#utility.yul\":5636:5687   */\n    tag_880:\n        /* \"#utility.yul\":5706:5773   */\n      tag_881\n        /* \"#utility.yul\":5765:5772   */\n      dup15\n        /* \"#utility.yul\":5752:5761   */\n      dup15\n        /* \"#utility.yul\":5739:5762   */\n      calldataload\n        /* \"#utility.yul\":5728:5737   */\n      dup16\n        /* \"#utility.yul\":5724:5763   */\n      add\n        /* \"#utility.yul\":5706:5773   */\n      tag_812\n      jump\t// in\n    tag_881:\n        /* \"#utility.yul\":5696:5773   */\n      swap12\n      pop\n        /* \"#utility.yul\":5822:5824   */\n      dup1\n        /* \"#utility.yul\":5816:5818   */\n      0x20\n        /* \"#utility.yul\":5805:5814   */\n      dup15\n        /* \"#utility.yul\":5801:5819   */\n      add\n        /* \"#utility.yul\":5788:5820   */\n      calldataload\n        /* \"#utility.yul\":5785:5825   */\n      gt\n        /* \"#utility.yul\":5782:5842   */\n      iszero\n      tag_882\n      jumpi\n        /* \"#utility.yul\":5838:5839   */\n      0x00\n        /* \"#utility.yul\":5835:5836   */\n      dup1\n        /* \"#utility.yul\":5828:5840   */\n      revert\n        /* \"#utility.yul\":5782:5842   */\n    tag_882:\n        /* \"#utility.yul\":5861:5937   */\n      tag_883\n        /* \"#utility.yul\":5929:5936   */\n      dup15\n        /* \"#utility.yul\":5922:5924   */\n      0x20\n        /* \"#utility.yul\":5911:5920   */\n      dup16\n        /* \"#utility.yul\":5907:5925   */\n      add\n        /* \"#utility.yul\":5894:5926   */\n      calldataload\n        /* \"#utility.yul\":5883:5892   */\n      dup16\n        /* \"#utility.yul\":5879:5927   */\n      add\n        /* \"#utility.yul\":5861:5937   */\n      tag_812\n      jump\t// in\n    tag_883:\n        /* \"#utility.yul\":5851:5937   */\n      swap11\n      pop\n        /* \"#utility.yul\":5986:5988   */\n      dup1\n        /* \"#utility.yul\":5980:5982   */\n      0x40\n        /* \"#utility.yul\":5969:5978   */\n      dup15\n        /* \"#utility.yul\":5965:5983   */\n      add\n        /* \"#utility.yul\":5952:5984   */\n      calldataload\n        /* \"#utility.yul\":5949:5989   */\n      gt\n        /* \"#utility.yul\":5946:6006   */\n      iszero\n      tag_884\n      jumpi\n        /* \"#utility.yul\":6002:6003   */\n      0x00\n        /* \"#utility.yul\":5999:6000   */\n      dup1\n        /* \"#utility.yul\":5992:6004   */\n      revert\n        /* \"#utility.yul\":5946:6006   */\n    tag_884:\n        /* \"#utility.yul\":6025:6101   */\n      tag_885\n        /* \"#utility.yul\":6093:6100   */\n      dup15\n        /* \"#utility.yul\":6086:6088   */\n      0x40\n        /* \"#utility.yul\":6075:6084   */\n      dup16\n        /* \"#utility.yul\":6071:6089   */\n      add\n        /* \"#utility.yul\":6058:6090   */\n      calldataload\n        /* \"#utility.yul\":6047:6056   */\n      dup16\n        /* \"#utility.yul\":6043:6091   */\n      add\n        /* \"#utility.yul\":6025:6101   */\n      tag_812\n      jump\t// in\n    tag_885:\n        /* \"#utility.yul\":6015:6101   */\n      swap10\n      pop\n        /* \"#utility.yul\":6148:6150   */\n      0x60\n        /* \"#utility.yul\":6137:6146   */\n      dup14\n        /* \"#utility.yul\":6133:6151   */\n      add\n        /* \"#utility.yul\":6120:6152   */\n      calldataload\n        /* \"#utility.yul\":6110:6152   */\n      swap9\n      pop\n        /* \"#utility.yul\":6199:6202   */\n      0x80\n        /* \"#utility.yul\":6188:6197   */\n      dup14\n        /* \"#utility.yul\":6184:6203   */\n      add\n        /* \"#utility.yul\":6171:6204   */\n      calldataload\n        /* \"#utility.yul\":6161:6204   */\n      swap8\n      pop\n        /* \"#utility.yul\":6254:6256   */\n      dup1\n        /* \"#utility.yul\":6247:6250   */\n      0xa0\n        /* \"#utility.yul\":6236:6245   */\n      dup15\n        /* \"#utility.yul\":6232:6251   */\n      add\n        /* \"#utility.yul\":6219:6252   */\n      calldataload\n        /* \"#utility.yul\":6216:6257   */\n      gt\n        /* \"#utility.yul\":6213:6274   */\n      iszero\n      tag_886\n      jumpi\n        /* \"#utility.yul\":6270:6271   */\n      0x00\n        /* \"#utility.yul\":6267:6268   */\n      dup1\n        /* \"#utility.yul\":6260:6272   */\n      revert\n        /* \"#utility.yul\":6213:6274   */\n    tag_886:\n        /* \"#utility.yul\":6293:6381   */\n      tag_887\n        /* \"#utility.yul\":6373:6380   */\n      dup15\n        /* \"#utility.yul\":6365:6368   */\n      0xa0\n        /* \"#utility.yul\":6354:6363   */\n      dup16\n        /* \"#utility.yul\":6350:6369   */\n      add\n        /* \"#utility.yul\":6337:6370   */\n      calldataload\n        /* \"#utility.yul\":6326:6335   */\n      dup16\n        /* \"#utility.yul\":6322:6371   */\n      add\n        /* \"#utility.yul\":6293:6381   */\n      tag_814\n      jump\t// in\n    tag_887:\n        /* \"#utility.yul\":6283:6381   */\n      swap7\n      pop\n        /* \"#utility.yul\":6431:6433   */\n      dup1\n        /* \"#utility.yul\":6424:6427   */\n      0xc0\n        /* \"#utility.yul\":6413:6422   */\n      dup15\n        /* \"#utility.yul\":6409:6428   */\n      add\n        /* \"#utility.yul\":6396:6429   */\n      calldataload\n        /* \"#utility.yul\":6393:6434   */\n      gt\n        /* \"#utility.yul\":6390:6451   */\n      iszero\n      tag_888\n      jumpi\n        /* \"#utility.yul\":6447:6448   */\n      0x00\n        /* \"#utility.yul\":6444:6445   */\n      dup1\n        /* \"#utility.yul\":6437:6449   */\n      revert\n        /* \"#utility.yul\":6390:6451   */\n    tag_888:\n      pop\n        /* \"#utility.yul\":6470:6558   */\n      tag_889\n        /* \"#utility.yul\":6550:6557   */\n      dup14\n        /* \"#utility.yul\":6542:6545   */\n      0xc0\n        /* \"#utility.yul\":6531:6540   */\n      dup15\n        /* \"#utility.yul\":6527:6546   */\n      add\n        /* \"#utility.yul\":6514:6547   */\n      calldataload\n        /* \"#utility.yul\":6503:6512   */\n      dup15\n        /* \"#utility.yul\":6499:6548   */\n      add\n        /* \"#utility.yul\":6470:6558   */\n      tag_815\n      jump\t// in\n    tag_889:\n        /* \"#utility.yul\":6460:6558   */\n      swap5\n      pop\n        /* \"#utility.yul\":6605:6608   */\n      0xe0\n        /* \"#utility.yul\":6594:6603   */\n      dup13\n        /* \"#utility.yul\":6590:6609   */\n      add\n        /* \"#utility.yul\":6577:6610   */\n      calldataload\n        /* \"#utility.yul\":6567:6610   */\n      swap4\n      pop\n        /* \"#utility.yul\":6657:6660   */\n      0x0100\n        /* \"#utility.yul\":6646:6655   */\n      dup13\n        /* \"#utility.yul\":6642:6661   */\n      add\n        /* \"#utility.yul\":6629:6662   */\n      calldataload\n        /* \"#utility.yul\":6619:6662   */\n      swap3\n      pop\n        /* \"#utility.yul\":6681:6719   */\n      tag_890\n        /* \"#utility.yul\":6714:6717   */\n      0x0120\n        /* \"#utility.yul\":6703:6712   */\n      dup14\n        /* \"#utility.yul\":6699:6718   */\n      add\n        /* \"#utility.yul\":6681:6719   */\n      tag_816\n      jump\t// in\n    tag_890:\n        /* \"#utility.yul\":6671:6719   */\n      swap2\n      pop\n        /* \"#utility.yul\":6739:6778   */\n      tag_891\n        /* \"#utility.yul\":6773:6776   */\n      0x0140\n        /* \"#utility.yul\":6762:6771   */\n      dup14\n        /* \"#utility.yul\":6758:6777   */\n      add\n        /* \"#utility.yul\":6739:6778   */\n      tag_809\n      jump\t// in\n    tag_891:\n        /* \"#utility.yul\":6728:6778   */\n      swap1\n      pop\n        /* \"#utility.yul\":5207:6784   */\n      swap3\n      swap6\n      swap9\n      swap12\n      pop\n      swap3\n      swap6\n      swap9\n      swap12\n      swap1\n      swap4\n      swap7\n      swap10\n      pop\n      jump\t// out\n        /* \"#utility.yul\":6971:7664   */\n    tag_109:\n        /* \"#utility.yul\":7065:7071   */\n      0x00\n        /* \"#utility.yul\":7073:7079   */\n      dup1\n        /* \"#utility.yul\":7081:7087   */\n      0x00\n        /* \"#utility.yul\":7134:7136   */\n      0x40\n        /* \"#utility.yul\":7122:7131   */\n      dup5\n        /* \"#utility.yul\":7113:7120   */\n      dup7\n        /* \"#utility.yul\":7109:7132   */\n      sub\n        /* \"#utility.yul\":7105:7137   */\n      slt\n        /* \"#utility.yul\":7102:7154   */\n      iszero\n      tag_894\n      jumpi\n        /* \"#utility.yul\":7150:7151   */\n      0x00\n        /* \"#utility.yul\":7147:7148   */\n      dup1\n        /* \"#utility.yul\":7140:7152   */\n      revert\n        /* \"#utility.yul\":7102:7154   */\n    tag_894:\n        /* \"#utility.yul\":7190:7199   */\n      dup4\n        /* \"#utility.yul\":7177:7200   */\n      calldataload\n      sub(shl(0x40, 0x01), 0x01)\n        /* \"#utility.yul\":7260:7262   */\n      dup1\n        /* \"#utility.yul\":7252:7258   */\n      dup3\n        /* \"#utility.yul\":7249:7263   */\n      gt\n        /* \"#utility.yul\":7246:7280   */\n      iszero\n      tag_895\n      jumpi\n        /* \"#utility.yul\":7276:7277   */\n      0x00\n        /* \"#utility.yul\":7273:7274   */\n      dup1\n        /* \"#utility.yul\":7266:7278   */\n      revert\n        /* \"#utility.yul\":7246:7280   */\n    tag_895:\n        /* \"#utility.yul\":7314:7320   */\n      dup2\n        /* \"#utility.yul\":7303:7312   */\n      dup7\n        /* \"#utility.yul\":7299:7321   */\n      add\n        /* \"#utility.yul\":7289:7321   */\n      swap2\n      pop\n        /* \"#utility.yul\":7359:7366   */\n      dup7\n        /* \"#utility.yul\":7352:7356   */\n      0x1f\n        /* \"#utility.yul\":7348:7350   */\n      dup4\n        /* \"#utility.yul\":7344:7357   */\n      add\n        /* \"#utility.yul\":7340:7367   */\n      slt\n        /* \"#utility.yul\":7330:7385   */\n      tag_896\n      jumpi\n        /* \"#utility.yul\":7381:7382   */\n      0x00\n        /* \"#utility.yul\":7378:7379   */\n      dup1\n        /* \"#utility.yul\":7371:7383   */\n      revert\n        /* \"#utility.yul\":7330:7385   */\n    tag_896:\n        /* \"#utility.yul\":7421:7423   */\n      dup2\n        /* \"#utility.yul\":7408:7424   */\n      calldataload\n        /* \"#utility.yul\":7447:7449   */\n      dup2\n        /* \"#utility.yul\":7439:7445   */\n      dup2\n        /* \"#utility.yul\":7436:7450   */\n      gt\n        /* \"#utility.yul\":7433:7467   */\n      iszero\n      tag_897\n      jumpi\n        /* \"#utility.yul\":7463:7464   */\n      0x00\n        /* \"#utility.yul\":7460:7461   */\n      dup1\n        /* \"#utility.yul\":7453:7465   */\n      revert\n        /* \"#utility.yul\":7433:7467   */\n    tag_897:\n        /* \"#utility.yul\":7518:7525   */\n      dup8\n        /* \"#utility.yul\":7511:7515   */\n      0x20\n        /* \"#utility.yul\":7501:7507   */\n      dup3\n        /* \"#utility.yul\":7498:7499   */\n      0x05\n        /* \"#utility.yul\":7494:7508   */\n      shl\n        /* \"#utility.yul\":7490:7492   */\n      dup6\n        /* \"#utility.yul\":7486:7509   */\n      add\n        /* \"#utility.yul\":7482:7516   */\n      add\n        /* \"#utility.yul\":7479:7526   */\n      gt\n        /* \"#utility.yul\":7476:7543   */\n      iszero\n      tag_898\n      jumpi\n        /* \"#utility.yul\":7539:7540   */\n      0x00\n        /* \"#utility.yul\":7536:7537   */\n      dup1\n        /* \"#utility.yul\":7529:7541   */\n      revert\n        /* \"#utility.yul\":7476:7543   */\n    tag_898:\n        /* \"#utility.yul\":7570:7574   */\n      0x20\n        /* \"#utility.yul\":7562:7575   */\n      swap3\n      dup4\n      add\n      swap6\n      pop\n        /* \"#utility.yul\":7594:7600   */\n      swap4\n      pop\n        /* \"#utility.yul\":7619:7658   */\n      tag_899\n      swap2\n        /* \"#utility.yul\":7637:7657   */\n      dup7\n      add\n      swap1\n      pop\n        /* \"#utility.yul\":7619:7658   */\n      tag_816\n      jump\t// in\n    tag_899:\n        /* \"#utility.yul\":7609:7658   */\n      swap1\n      pop\n        /* \"#utility.yul\":6971:7664   */\n      swap3\n      pop\n      swap3\n      pop\n      swap3\n      jump\t// out\n        /* \"#utility.yul\":7669:7997   */\n    tag_114:\n        /* \"#utility.yul\":7746:7752   */\n      0x00\n        /* \"#utility.yul\":7754:7760   */\n      dup1\n        /* \"#utility.yul\":7762:7768   */\n      0x00\n        /* \"#utility.yul\":7815:7817   */\n      0x60\n        /* \"#utility.yul\":7803:7812   */\n      dup5\n        /* \"#utility.yul\":7794:7801   */\n      dup7\n        /* \"#utility.yul\":7790:7813   */\n      sub\n        /* \"#utility.yul\":7786:7818   */\n      slt\n        /* \"#utility.yul\":7783:7835   */\n      iszero\n      tag_901\n      jumpi\n        /* \"#utility.yul\":7831:7832   */\n      0x00\n        /* \"#utility.yul\":7828:7829   */\n      dup1\n        /* \"#utility.yul\":7821:7833   */\n      revert\n        /* \"#utility.yul\":7783:7835   */\n    tag_901:\n        /* \"#utility.yul\":7854:7883   */\n      tag_902\n        /* \"#utility.yul\":7873:7882   */\n      dup5\n        /* \"#utility.yul\":7854:7883   */\n      tag_809\n      jump\t// in\n    tag_902:\n        /* \"#utility.yul\":7844:7883   */\n      swap3\n      pop\n        /* \"#utility.yul\":7902:7940   */\n      tag_903\n        /* \"#utility.yul\":7936:7938   */\n      0x20\n        /* \"#utility.yul\":7925:7934   */\n      dup6\n        /* \"#utility.yul\":7921:7939   */\n      add\n        /* \"#utility.yul\":7902:7940   */\n      tag_809\n      jump\t// in\n    tag_903:\n        /* \"#utility.yul\":7892:7940   */\n      swap2\n      pop\n        /* \"#utility.yul\":7987:7989   */\n      0x40\n        /* \"#utility.yul\":7976:7985   */\n      dup5\n        /* \"#utility.yul\":7972:7990   */\n      add\n        /* \"#utility.yul\":7959:7991   */\n      calldataload\n        /* \"#utility.yul\":7949:7991   */\n      swap1\n      pop\n        /* \"#utility.yul\":7669:7997   */\n      swap3\n      pop\n      swap3\n      pop\n      swap3\n      jump\t// out\n        /* \"#utility.yul\":8002:8250   */\n    tag_119:\n        /* \"#utility.yul\":8070:8076   */\n      0x00\n        /* \"#utility.yul\":8078:8084   */\n      dup1\n        /* \"#utility.yul\":8131:8133   */\n      0x40\n        /* \"#utility.yul\":8119:8128   */\n      dup4\n        /* \"#utility.yul\":8110:8117   */\n      dup6\n        /* \"#utility.yul\":8106:8129   */\n      sub\n        /* \"#utility.yul\":8102:8134   */\n      slt\n        /* \"#utility.yul\":8099:8151   */\n      iszero\n      tag_905\n      jumpi\n        /* \"#utility.yul\":8147:8148   */\n      0x00\n        /* \"#utility.yul\":8144:8145   */\n      dup1\n        /* \"#utility.yul\":8137:8149   */\n      revert\n        /* \"#utility.yul\":8099:8151   */\n    tag_905:\n      pop\n      pop\n        /* \"#utility.yul\":8170:8193   */\n      dup1\n      calldataload\n      swap3\n        /* \"#utility.yul\":8240:8242   */\n      0x20\n        /* \"#utility.yul\":8225:8243   */\n      swap1\n      swap2\n      add\n        /* \"#utility.yul\":8212:8244   */\n      calldataload\n      swap2\n      pop\n        /* \"#utility.yul\":8002:8250   */\n      jump\t// out\n        /* \"#utility.yul\":8255:8577   */\n    tag_148:\n        /* \"#utility.yul\":8324:8330   */\n      0x00\n        /* \"#utility.yul\":8377:8379   */\n      0x20\n        /* \"#utility.yul\":8365:8374   */\n      dup3\n        /* \"#utility.yul\":8356:8363   */\n      dup5\n        /* \"#utility.yul\":8352:8375   */\n      sub\n        /* \"#utility.yul\":8348:8380   */\n      slt\n        /* \"#utility.yul\":8345:8397   */\n      iszero\n      tag_907\n      jumpi\n        /* \"#utility.yul\":8393:8394   */\n      0x00\n        /* \"#utility.yul\":8390:8391   */\n      dup1\n        /* \"#utility.yul\":8383:8395   */\n      revert\n        /* \"#utility.yul\":8345:8397   */\n    tag_907:\n        /* \"#utility.yul\":8433:8442   */\n      dup2\n        /* \"#utility.yul\":8420:8443   */\n      calldataload\n      sub(shl(0x40, 0x01), 0x01)\n        /* \"#utility.yul\":8458:8464   */\n      dup2\n        /* \"#utility.yul\":8455:8485   */\n      gt\n        /* \"#utility.yul\":8452:8502   */\n      iszero\n      tag_908\n      jumpi\n        /* \"#utility.yul\":8498:8499   */\n      0x00\n        /* \"#utility.yul\":8495:8496   */\n      dup1\n        /* \"#utility.yul\":8488:8500   */\n      revert\n        /* \"#utility.yul\":8452:8502   */\n    tag_908:\n        /* \"#utility.yul\":8521:8571   */\n      tag_683\n        /* \"#utility.yul\":8563:8570   */\n      dup5\n        /* \"#utility.yul\":8554:8560   */\n      dup3\n        /* \"#utility.yul\":8543:8552   */\n      dup6\n        /* \"#utility.yul\":8539:8561   */\n      add\n        /* \"#utility.yul\":8521:8571   */\n      tag_812\n      jump\t// in\n        /* \"#utility.yul\":8582:8768   */\n    tag_162:\n        /* \"#utility.yul\":8641:8647   */\n      0x00\n        /* \"#utility.yul\":8694:8696   */\n      0x20\n        /* \"#utility.yul\":8682:8691   */\n      dup3\n        /* \"#utility.yul\":8673:8680   */\n      dup5\n        /* \"#utility.yul\":8669:8692   */\n      sub\n        /* \"#utility.yul\":8665:8697   */\n      slt\n        /* \"#utility.yul\":8662:8714   */\n      iszero\n      tag_911\n      jumpi\n        /* \"#utility.yul\":8710:8711   */\n      0x00\n        /* \"#utility.yul\":8707:8708   */\n      dup1\n        /* \"#utility.yul\":8700:8712   */\n      revert\n        /* \"#utility.yul\":8662:8714   */\n    tag_911:\n        /* \"#utility.yul\":8733:8762   */\n      tag_501\n        /* \"#utility.yul\":8752:8761   */\n      dup3\n        /* \"#utility.yul\":8733:8762   */\n      tag_809\n      jump\t// in\n        /* \"#utility.yul\":8773:9365   */\n    tag_186:\n        /* \"#utility.yul\":8844:8850   */\n      0x00\n        /* \"#utility.yul\":8852:8858   */\n      dup1\n        /* \"#utility.yul\":8905:8907   */\n      0x20\n        /* \"#utility.yul\":8893:8902   */\n      dup4\n        /* \"#utility.yul\":8884:8891   */\n      dup6\n        /* \"#utility.yul\":8880:8903   */\n      sub\n        /* \"#utility.yul\":8876:8908   */\n      slt\n        /* \"#utility.yul\":8873:8925   */\n      iszero\n      tag_914\n      jumpi\n        /* \"#utility.yul\":8921:8922   */\n      0x00\n        /* \"#utility.yul\":8918:8919   */\n      dup1\n        /* \"#utility.yul\":8911:8923   */\n      revert\n        /* \"#utility.yul\":8873:8925   */\n    tag_914:\n        /* \"#utility.yul\":8961:8970   */\n      dup3\n        /* \"#utility.yul\":8948:8971   */\n      calldataload\n      sub(shl(0x40, 0x01), 0x01)\n        /* \"#utility.yul\":9031:9033   */\n      dup1\n        /* \"#utility.yul\":9023:9029   */\n      dup3\n        /* \"#utility.yul\":9020:9034   */\n      gt\n        /* \"#utility.yul\":9017:9051   */\n      iszero\n      tag_915\n      jumpi\n        /* \"#utility.yul\":9047:9048   */\n      0x00\n        /* \"#utility.yul\":9044:9045   */\n      dup1\n        /* \"#utility.yul\":9037:9049   */\n      revert\n        /* \"#utility.yul\":9017:9051   */\n    tag_915:\n        /* \"#utility.yul\":9085:9091   */\n      dup2\n        /* \"#utility.yul\":9074:9083   */\n      dup6\n        /* \"#utility.yul\":9070:9092   */\n      add\n        /* \"#utility.yul\":9060:9092   */\n      swap2\n      pop\n        /* \"#utility.yul\":9130:9137   */\n      dup6\n        /* \"#utility.yul\":9123:9127   */\n      0x1f\n        /* \"#utility.yul\":9119:9121   */\n      dup4\n        /* \"#utility.yul\":9115:9128   */\n      add\n        /* \"#utility.yul\":9111:9138   */\n      slt\n        /* \"#utility.yul\":9101:9156   */\n      tag_916\n      jumpi\n        /* \"#utility.yul\":9152:9153   */\n      0x00\n        /* \"#utility.yul\":9149:9150   */\n      dup1\n        /* \"#utility.yul\":9142:9154   */\n      revert\n        /* \"#utility.yul\":9101:9156   */\n    tag_916:\n        /* \"#utility.yul\":9192:9194   */\n      dup2\n        /* \"#utility.yul\":9179:9195   */\n      calldataload\n        /* \"#utility.yul\":9218:9220   */\n      dup2\n        /* \"#utility.yul\":9210:9216   */\n      dup2\n        /* \"#utility.yul\":9207:9221   */\n      gt\n        /* \"#utility.yul\":9204:9238   */\n      iszero\n      tag_917\n      jumpi\n        /* \"#utility.yul\":9234:9235   */\n      0x00\n        /* \"#utility.yul\":9231:9232   */\n      dup1\n        /* \"#utility.yul\":9224:9236   */\n      revert\n        /* \"#utility.yul\":9204:9238   */\n    tag_917:\n        /* \"#utility.yul\":9279:9286   */\n      dup7\n        /* \"#utility.yul\":9274:9276   */\n      0x20\n        /* \"#utility.yul\":9265:9271   */\n      dup3\n        /* \"#utility.yul\":9261:9263   */\n      dup6\n        /* \"#utility.yul\":9257:9272   */\n      add\n        /* \"#utility.yul\":9253:9277   */\n      add\n        /* \"#utility.yul\":9250:9287   */\n      gt\n        /* \"#utility.yul\":9247:9304   */\n      iszero\n      tag_918\n      jumpi\n        /* \"#utility.yul\":9300:9301   */\n      0x00\n        /* \"#utility.yul\":9297:9298   */\n      dup1\n        /* \"#utility.yul\":9290:9302   */\n      revert\n        /* \"#utility.yul\":9247:9304   */\n    tag_918:\n        /* \"#utility.yul\":9331:9333   */\n      0x20\n        /* \"#utility.yul\":9323:9334   */\n      swap3\n      swap1\n      swap3\n      add\n      swap7\n        /* \"#utility.yul\":9353:9359   */\n      swap2\n      swap6\n      pop\n        /* \"#utility.yul\":8773:9365   */\n      swap1\n      swap4\n      pop\n      pop\n      pop\n      pop\n      jump\t// out\n        /* \"#utility.yul\":9370:9554   */\n    tag_191:\n        /* \"#utility.yul\":9428:9434   */\n      0x00\n        /* \"#utility.yul\":9481:9483   */\n      0x20\n        /* \"#utility.yul\":9469:9478   */\n      dup3\n        /* \"#utility.yul\":9460:9467   */\n      dup5\n        /* \"#utility.yul\":9456:9479   */\n      sub\n        /* \"#utility.yul\":9452:9484   */\n      slt\n        /* \"#utility.yul\":9449:9501   */\n      iszero\n      tag_920\n      jumpi\n        /* \"#utility.yul\":9497:9498   */\n      0x00\n        /* \"#utility.yul\":9494:9495   */\n      dup1\n        /* \"#utility.yul\":9487:9499   */\n      revert\n        /* \"#utility.yul\":9449:9501   */\n    tag_920:\n        /* \"#utility.yul\":9520:9548   */\n      tag_501\n        /* \"#utility.yul\":9538:9547   */\n      dup3\n        /* \"#utility.yul\":9520:9548   */\n      tag_816\n      jump\t// in\n        /* \"#utility.yul\":9559:9906   */\n    tag_213:\n        /* \"#utility.yul\":9624:9630   */\n      0x00\n        /* \"#utility.yul\":9632:9638   */\n      dup1\n        /* \"#utility.yul\":9685:9687   */\n      0x40\n        /* \"#utility.yul\":9673:9682   */\n      dup4\n        /* \"#utility.yul\":9664:9671   */\n      dup6\n        /* \"#utility.yul\":9660:9683   */\n      sub\n        /* \"#utility.yul\":9656:9688   */\n      slt\n        /* \"#utility.yul\":9653:9705   */\n      iszero\n      tag_923\n      jumpi\n        /* \"#utility.yul\":9701:9702   */\n      0x00\n        /* \"#utility.yul\":9698:9699   */\n      dup1\n        /* \"#utility.yul\":9691:9703   */\n      revert\n        /* \"#utility.yul\":9653:9705   */\n    tag_923:\n        /* \"#utility.yul\":9724:9753   */\n      tag_924\n        /* \"#utility.yul\":9743:9752   */\n      dup4\n        /* \"#utility.yul\":9724:9753   */\n      tag_809\n      jump\t// in\n    tag_924:\n        /* \"#utility.yul\":9714:9753   */\n      swap2\n      pop\n        /* \"#utility.yul\":9803:9805   */\n      0x20\n        /* \"#utility.yul\":9792:9801   */\n      dup4\n        /* \"#utility.yul\":9788:9806   */\n      add\n        /* \"#utility.yul\":9775:9807   */\n      calldataload\n        /* \"#utility.yul\":9850:9855   */\n      dup1\n        /* \"#utility.yul\":9843:9856   */\n      iszero\n        /* \"#utility.yul\":9836:9857   */\n      iszero\n        /* \"#utility.yul\":9829:9834   */\n      dup2\n        /* \"#utility.yul\":9826:9858   */\n      eq\n        /* \"#utility.yul\":9816:9876   */\n      tag_925\n      jumpi\n        /* \"#utility.yul\":9872:9873   */\n      0x00\n        /* \"#utility.yul\":9869:9870   */\n      dup1\n        /* \"#utility.yul\":9862:9874   */\n      revert\n        /* \"#utility.yul\":9816:9876   */\n    tag_925:\n        /* \"#utility.yul\":9895:9900   */\n      dup1\n        /* \"#utility.yul\":9885:9900   */\n      swap2\n      pop\n      pop\n        /* \"#utility.yul\":9559:9906   */\n      swap3\n      pop\n      swap3\n      swap1\n      pop\n      jump\t// out\n        /* \"#utility.yul\":9911:10578   */\n    tag_222:\n        /* \"#utility.yul\":10006:10012   */\n      0x00\n        /* \"#utility.yul\":10014:10020   */\n      dup1\n        /* \"#utility.yul\":10022:10028   */\n      0x00\n        /* \"#utility.yul\":10030:10036   */\n      dup1\n        /* \"#utility.yul\":10083:10086   */\n      0x80\n        /* \"#utility.yul\":10071:10080   */\n      dup6\n        /* \"#utility.yul\":10062:10069   */\n      dup8\n        /* \"#utility.yul\":10058:10081   */\n      sub\n        /* \"#utility.yul\":10054:10087   */\n      slt\n        /* \"#utility.yul\":10051:10104   */\n      iszero\n      tag_927\n      jumpi\n        /* \"#utility.yul\":10100:10101   */\n      0x00\n        /* \"#utility.yul\":10097:10098   */\n      dup1\n        /* \"#utility.yul\":10090:10102   */\n      revert\n        /* \"#utility.yul\":10051:10104   */\n    tag_927:\n        /* \"#utility.yul\":10123:10152   */\n      tag_928\n        /* \"#utility.yul\":10142:10151   */\n      dup6\n        /* \"#utility.yul\":10123:10152   */\n      tag_809\n      jump\t// in\n    tag_928:\n        /* \"#utility.yul\":10113:10152   */\n      swap4\n      pop\n        /* \"#utility.yul\":10171:10209   */\n      tag_929\n        /* \"#utility.yul\":10205:10207   */\n      0x20\n        /* \"#utility.yul\":10194:10203   */\n      dup7\n        /* \"#utility.yul\":10190:10208   */\n      add\n        /* \"#utility.yul\":10171:10209   */\n      tag_809\n      jump\t// in\n    tag_929:\n        /* \"#utility.yul\":10161:10209   */\n      swap3\n      pop\n        /* \"#utility.yul\":10256:10258   */\n      0x40\n        /* \"#utility.yul\":10245:10254   */\n      dup6\n        /* \"#utility.yul\":10241:10259   */\n      add\n        /* \"#utility.yul\":10228:10260   */\n      calldataload\n        /* \"#utility.yul\":10218:10260   */\n      swap2\n      pop\n        /* \"#utility.yul\":10311:10313   */\n      0x60\n        /* \"#utility.yul\":10300:10309   */\n      dup6\n        /* \"#utility.yul\":10296:10314   */\n      add\n        /* \"#utility.yul\":10283:10315   */\n      calldataload\n      sub(shl(0x40, 0x01), 0x01)\n        /* \"#utility.yul\":10330:10336   */\n      dup2\n        /* \"#utility.yul\":10327:10357   */\n      gt\n        /* \"#utility.yul\":10324:10374   */\n      iszero\n      tag_930\n      jumpi\n        /* \"#utility.yul\":10370:10371   */\n      0x00\n        /* \"#utility.yul\":10367:10368   */\n      dup1\n        /* \"#utility.yul\":10360:10372   */\n      revert\n        /* \"#utility.yul\":10324:10374   */\n    tag_930:\n        /* \"#utility.yul\":10393:10415   */\n      dup6\n      add\n        /* \"#utility.yul\":10446:10450   */\n      0x1f\n        /* \"#utility.yul\":10438:10451   */\n      dup2\n      add\n        /* \"#utility.yul\":10434:10461   */\n      dup8\n      sgt\n        /* \"#utility.yul\":10424:10479   */\n      tag_931\n      jumpi\n        /* \"#utility.yul\":10475:10476   */\n      0x00\n        /* \"#utility.yul\":10472:10473   */\n      dup1\n        /* \"#utility.yul\":10465:10477   */\n      revert\n        /* \"#utility.yul\":10424:10479   */\n    tag_931:\n        /* \"#utility.yul\":10498:10572   */\n      tag_932\n        /* \"#utility.yul\":10564:10571   */\n      dup8\n        /* \"#utility.yul\":10559:10561   */\n      dup3\n        /* \"#utility.yul\":10546:10562   */\n      calldataload\n        /* \"#utility.yul\":10541:10543   */\n      0x20\n        /* \"#utility.yul\":10537:10539   */\n      dup5\n        /* \"#utility.yul\":10533:10544   */\n      add\n        /* \"#utility.yul\":10498:10572   */\n      tag_811\n      jump\t// in\n    tag_932:\n        /* \"#utility.yul\":10488:10572   */\n      swap2\n      pop\n      pop\n        /* \"#utility.yul\":9911:10578   */\n      swap3\n      swap6\n      swap2\n      swap5\n      pop\n      swap3\n      pop\n      jump\t// out\n        /* \"#utility.yul\":10768:11028   */\n    tag_259:\n        /* \"#utility.yul\":10836:10842   */\n      0x00\n        /* \"#utility.yul\":10844:10850   */\n      dup1\n        /* \"#utility.yul\":10897:10899   */\n      0x40\n        /* \"#utility.yul\":10885:10894   */\n      dup4\n        /* \"#utility.yul\":10876:10883   */\n      dup6\n        /* \"#utility.yul\":10872:10895   */\n      sub\n        /* \"#utility.yul\":10868:10900   */\n      slt\n        /* \"#utility.yul\":10865:10917   */\n      iszero\n      tag_936\n      jumpi\n        /* \"#utility.yul\":10913:10914   */\n      0x00\n        /* \"#utility.yul\":10910:10911   */\n      dup1\n        /* \"#utility.yul\":10903:10915   */\n      revert\n        /* \"#utility.yul\":10865:10917   */\n    tag_936:\n        /* \"#utility.yul\":10936:10965   */\n      tag_937\n        /* \"#utility.yul\":10955:10964   */\n      dup4\n        /* \"#utility.yul\":10936:10965   */\n      tag_809\n      jump\t// in\n    tag_937:\n        /* \"#utility.yul\":10926:10965   */\n      swap2\n      pop\n        /* \"#utility.yul\":10984:11022   */\n      tag_362\n        /* \"#utility.yul\":11018:11020   */\n      0x20\n        /* \"#utility.yul\":11007:11016   */\n      dup5\n        /* \"#utility.yul\":11003:11021   */\n      add\n        /* \"#utility.yul\":10984:11022   */\n      tag_809\n      jump\t// in\n        /* \"#utility.yul\":11033:11413   */\n    tag_283:\n        /* \"#utility.yul\":11112:11113   */\n      0x01\n        /* \"#utility.yul\":11108:11120   */\n      dup2\n      dup2\n      shr\n      swap1\n        /* \"#utility.yul\":11155:11167   */\n      dup3\n      and\n      dup1\n        /* \"#utility.yul\":11176:11237   */\n      tag_940\n      jumpi\n        /* \"#utility.yul\":11230:11234   */\n      0x7f\n        /* \"#utility.yul\":11222:11228   */\n      dup3\n        /* \"#utility.yul\":11218:11235   */\n      and\n        /* \"#utility.yul\":11208:11235   */\n      swap2\n      pop\n        /* \"#utility.yul\":11176:11237   */\n    tag_940:\n        /* \"#utility.yul\":11283:11285   */\n      0x20\n        /* \"#utility.yul\":11275:11281   */\n      dup3\n        /* \"#utility.yul\":11272:11286   */\n      lt\n        /* \"#utility.yul\":11252:11270   */\n      dup2\n        /* \"#utility.yul\":11249:11287   */\n      sub\n        /* \"#utility.yul\":11246:11407   */\n      tag_941\n      jumpi\n        /* \"#utility.yul\":11329:11339   */\n      0x4e487b71\n        /* \"#utility.yul\":11324:11327   */\n      0xe0\n        /* \"#utility.yul\":11320:11340   */\n      shl\n        /* \"#utility.yul\":11317:11318   */\n      0x00\n        /* \"#utility.yul\":11310:11341   */\n      mstore\n        /* \"#utility.yul\":11364:11368   */\n      0x22\n        /* \"#utility.yul\":11361:11362   */\n      0x04\n        /* \"#utility.yul\":11354:11369   */\n      mstore\n        /* \"#utility.yul\":11392:11396   */\n      0x24\n        /* \"#utility.yul\":11389:11390   */\n      0x00\n        /* \"#utility.yul\":11382:11397   */\n      revert\n        /* \"#utility.yul\":11246:11407   */\n    tag_941:\n      pop\n        /* \"#utility.yul\":11033:11413   */\n      swap2\n      swap1\n      pop\n      jump\t// out\n        /* \"#utility.yul\":11833:11960   */\n    tag_817:\n        /* \"#utility.yul\":11894:11904   */\n      0x4e487b71\n        /* \"#utility.yul\":11889:11892   */\n      0xe0\n        /* \"#utility.yul\":11885:11905   */\n      shl\n        /* \"#utility.yul\":11882:11883   */\n      0x00\n        /* \"#utility.yul\":11875:11906   */\n      mstore\n        /* \"#utility.yul\":11925:11929   */\n      0x11\n        /* \"#utility.yul\":11922:11923   */\n      0x04\n        /* \"#utility.yul\":11915:11930   */\n      mstore\n        /* \"#utility.yul\":11949:11953   */\n      0x24\n        /* \"#utility.yul\":11946:11947   */\n      0x00\n        /* \"#utility.yul\":11939:11954   */\n      revert\n        /* \"#utility.yul\":11965:12133   */\n    tag_331:\n        /* \"#utility.yul\":12005:12012   */\n      0x00\n        /* \"#utility.yul\":12071:12072   */\n      dup2\n        /* \"#utility.yul\":12067:12068   */\n      0x00\n        /* \"#utility.yul\":12063:12069   */\n      not\n        /* \"#utility.yul\":12059:12073   */\n      div\n        /* \"#utility.yul\":12056:12057   */\n      dup4\n        /* \"#utility.yul\":12053:12074   */\n      gt\n        /* \"#utility.yul\":12048:12049   */\n      dup3\n        /* \"#utility.yul\":12041:12050   */\n      iszero\n        /* \"#utility.yul\":12034:12051   */\n      iszero\n        /* \"#utility.yul\":12030:12075   */\n      and\n        /* \"#utility.yul\":12027:12098   */\n      iszero\n      tag_946\n      jumpi\n        /* \"#utility.yul\":12078:12096   */\n      tag_946\n      tag_817\n      jump\t// in\n    tag_946:\n      pop\n        /* \"#utility.yul\":12118:12127   */\n      mul\n      swap1\n        /* \"#utility.yul\":11965:12133   */\n      jump\t// out\n        /* \"#utility.yul\":12138:12266   */\n    tag_336:\n        /* \"#utility.yul\":12178:12181   */\n      0x00\n        /* \"#utility.yul\":12209:12210   */\n      dup3\n        /* \"#utility.yul\":12205:12211   */\n      not\n        /* \"#utility.yul\":12202:12203   */\n      dup3\n        /* \"#utility.yul\":12199:12212   */\n      gt\n        /* \"#utility.yul\":12196:12235   */\n      iszero\n      tag_949\n      jumpi\n        /* \"#utility.yul\":12215:12233   */\n      tag_949\n      tag_817\n      jump\t// in\n    tag_949:\n      pop\n        /* \"#utility.yul\":12251:12260   */\n      add\n      swap1\n        /* \"#utility.yul\":12138:12266   */\n      jump\t// out\n        /* \"#utility.yul\":12505:12741   */\n    tag_349:\n        /* \"#utility.yul\":12544:12547   */\n      0x00\n      sub(shl(0x40, 0x01), 0x01)\n        /* \"#utility.yul\":12617:12619   */\n      dup1\n        /* \"#utility.yul\":12614:12615   */\n      dup4\n        /* \"#utility.yul\":12610:12620   */\n      and\n        /* \"#utility.yul\":12647:12649   */\n      dup2\n        /* \"#utility.yul\":12644:12645   */\n      dup6\n        /* \"#utility.yul\":12640:12650   */\n      and\n        /* \"#utility.yul\":12678:12681   */\n      dup1\n        /* \"#utility.yul\":12674:12676   */\n      dup4\n        /* \"#utility.yul\":12670:12682   */\n      sub\n        /* \"#utility.yul\":12665:12668   */\n      dup3\n        /* \"#utility.yul\":12662:12683   */\n      gt\n        /* \"#utility.yul\":12659:12706   */\n      iszero\n      tag_953\n      jumpi\n        /* \"#utility.yul\":12686:12704   */\n      tag_953\n      tag_817\n      jump\t// in\n    tag_953:\n        /* \"#utility.yul\":12722:12735   */\n      add\n      swap5\n        /* \"#utility.yul\":12505:12741   */\n      swap4\n      pop\n      pop\n      pop\n      pop\n      jump\t// out\n        /* \"#utility.yul\":12746:12873   */\n    tag_818:\n        /* \"#utility.yul\":12807:12817   */\n      0x4e487b71\n        /* \"#utility.yul\":12802:12805   */\n      0xe0\n        /* \"#utility.yul\":12798:12818   */\n      shl\n        /* \"#utility.yul\":12795:12796   */\n      0x00\n        /* \"#utility.yul\":12788:12819   */\n      mstore\n        /* \"#utility.yul\":12838:12842   */\n      0x12\n        /* \"#utility.yul\":12835:12836   */\n      0x04\n        /* \"#utility.yul\":12828:12843   */\n      mstore\n        /* \"#utility.yul\":12862:12866   */\n      0x24\n        /* \"#utility.yul\":12859:12860   */\n      0x00\n        /* \"#utility.yul\":12852:12867   */\n      revert\n        /* \"#utility.yul\":12878:12998   */\n    tag_363:\n        /* \"#utility.yul\":12918:12919   */\n      0x00\n        /* \"#utility.yul\":12944:12945   */\n      dup3\n        /* \"#utility.yul\":12934:12969   */\n      tag_957\n      jumpi\n        /* \"#utility.yul\":12949:12967   */\n      tag_957\n      tag_818\n      jump\t// in\n    tag_957:\n      pop\n        /* \"#utility.yul\":12983:12992   */\n      div\n      swap1\n        /* \"#utility.yul\":12878:12998   */\n      jump\t// out\n        /* \"#utility.yul\":13003:13359   */\n    tag_386:\n        /* \"#utility.yul\":13205:13207   */\n      0x20\n        /* \"#utility.yul\":13187:13208   */\n      dup1\n      dup3\n      mstore\n        /* \"#utility.yul\":13224:13242   */\n      dup2\n      dup2\n      add\n        /* \"#utility.yul\":13217:13247   */\n      mstore\n        /* \"#utility.yul\":13283:13317   */\n      0x4f776e61626c653a2063616c6c6572206973206e6f7420746865206f776e6572\n        /* \"#utility.yul\":13278:13280   */\n      0x40\n        /* \"#utility.yul\":13263:13281   */\n      dup3\n      add\n        /* \"#utility.yul\":13256:13318   */\n      mstore\n        /* \"#utility.yul\":13350:13352   */\n      0x60\n        /* \"#utility.yul\":13335:13353   */\n      add\n      swap1\n        /* \"#utility.yul\":13003:13359   */\n      jump\t// out\n        /* \"#utility.yul\":13890:14017   */\n    tag_433:\n        /* \"#utility.yul\":13951:13961   */\n      0x4e487b71\n        /* \"#utility.yul\":13946:13949   */\n      0xe0\n        /* \"#utility.yul\":13942:13962   */\n      shl\n        /* \"#utility.yul\":13939:13940   */\n      0x00\n        /* \"#utility.yul\":13932:13963   */\n      mstore\n        /* \"#utility.yul\":13982:13986   */\n      0x32\n        /* \"#utility.yul\":13979:13980   */\n      0x04\n        /* \"#utility.yul\":13972:13987   */\n      mstore\n        /* \"#utility.yul\":14006:14010   */\n      0x24\n        /* \"#utility.yul\":14003:14004   */\n      0x00\n        /* \"#utility.yul\":13996:14011   */\n      revert\n        /* \"#utility.yul\":14552:15324   */\n    tag_505:\n        /* \"#utility.yul\":14933:14936   */\n      0x00\n        /* \"#utility.yul\":14971:14977   */\n      dup4\n        /* \"#utility.yul\":14965:14978   */\n      mload\n        /* \"#utility.yul\":14987:15040   */\n      tag_965\n        /* \"#utility.yul\":15033:15039   */\n      dup2\n        /* \"#utility.yul\":15028:15031   */\n      dup5\n        /* \"#utility.yul\":15021:15025   */\n      0x20\n        /* \"#utility.yul\":15013:15019   */\n      dup9\n        /* \"#utility.yul\":15009:15026   */\n      add\n        /* \"#utility.yul\":14987:15040   */\n      tag_807\n      jump\t// in\n    tag_965:\n      shl(0xf8, 0x2f)\n        /* \"#utility.yul\":15062:15078   */\n      swap1\n      dup4\n      add\n        /* \"#utility.yul\":15087:15105   */\n      swap1\n      dup2\n      mstore\n        /* \"#utility.yul\":15130:15143   */\n      dup4\n      mload\n        /* \"#utility.yul\":15152:15217   */\n      tag_966\n        /* \"#utility.yul\":15130:15143   */\n      dup2\n        /* \"#utility.yul\":15204:15205   */\n      0x01\n        /* \"#utility.yul\":15193:15206   */\n      dup5\n      add\n        /* \"#utility.yul\":15186:15190   */\n      0x20\n        /* \"#utility.yul\":15174:15191   */\n      dup9\n      add\n        /* \"#utility.yul\":15152:15217   */\n      tag_807\n      jump\t// in\n    tag_966:\n      shl(0xd9, 0x173539b7b7)\n        /* \"#utility.yul\":15280:15281   */\n      0x01\n        /* \"#utility.yul\":15236:15256   */\n      swap3\n      swap1\n      swap2\n      add\n        /* \"#utility.yul\":15272:15282   */\n      swap2\n      dup3\n      add\n        /* \"#utility.yul\":15265:15292   */\n      mstore\n        /* \"#utility.yul\":15316:15317   */\n      0x06\n        /* \"#utility.yul\":15308:15318   */\n      add\n      swap5\n        /* \"#utility.yul\":14552:15324   */\n      swap4\n      pop\n      pop\n      pop\n      pop\n      jump\t// out\n        /* \"#utility.yul\":15736:16143   */\n    tag_575:\n        /* \"#utility.yul\":15938:15940   */\n      0x20\n        /* \"#utility.yul\":15920:15941   */\n      dup1\n      dup3\n      mstore\n        /* \"#utility.yul\":15977:15979   */\n      0x2b\n        /* \"#utility.yul\":15957:15975   */\n      swap1\n      dup3\n      add\n        /* \"#utility.yul\":15950:15980   */\n      mstore\n        /* \"#utility.yul\":16016:16050   */\n      0x496e697469616c697a61626c653a20636f6e7472616374206973206e6f742069\n        /* \"#utility.yul\":16011:16013   */\n      0x40\n        /* \"#utility.yul\":15996:16014   */\n      dup3\n      add\n        /* \"#utility.yul\":15989:16051   */\n      mstore\n      shl(0xa8, 0x6e697469616c697a696e67)\n        /* \"#utility.yul\":16082:16084   */\n      0x60\n        /* \"#utility.yul\":16067:16085   */\n      dup3\n      add\n        /* \"#utility.yul\":16060:16101   */\n      mstore\n        /* \"#utility.yul\":16133:16136   */\n      0x80\n        /* \"#utility.yul\":16118:16137   */\n      add\n      swap1\n        /* \"#utility.yul\":15736:16143   */\n      jump\t// out\n        /* \"#utility.yul\":16148:16283   */\n    tag_606:\n        /* \"#utility.yul\":16187:16190   */\n      0x00\n        /* \"#utility.yul\":16208:16225   */\n      0x01\n      dup3\n      add\n        /* \"#utility.yul\":16205:16248   */\n      tag_971\n      jumpi\n        /* \"#utility.yul\":16228:16246   */\n      tag_971\n      tag_817\n      jump\t// in\n    tag_971:\n      pop\n        /* \"#utility.yul\":16275:16276   */\n      0x01\n        /* \"#utility.yul\":16264:16277   */\n      add\n      swap1\n        /* \"#utility.yul\":16148:16283   */\n      jump\t// out\n        /* \"#utility.yul\":16288:16413   */\n    tag_660:\n        /* \"#utility.yul\":16328:16332   */\n      0x00\n        /* \"#utility.yul\":16356:16357   */\n      dup3\n        /* \"#utility.yul\":16353:16354   */\n      dup3\n        /* \"#utility.yul\":16350:16358   */\n      lt\n        /* \"#utility.yul\":16347:16381   */\n      iszero\n      tag_974\n      jumpi\n        /* \"#utility.yul\":16361:16379   */\n      tag_974\n      tag_817\n      jump\t// in\n    tag_974:\n      pop\n        /* \"#utility.yul\":16398:16407   */\n      sub\n      swap1\n        /* \"#utility.yul\":16288:16413   */\n      jump\t// out\n        /* \"#utility.yul\":16418:16907   */\n    tag_671:\n      sub(shl(0xa0, 0x01), 0x01)\n        /* \"#utility.yul\":16687:16702   */\n      dup6\n      dup2\n      and\n        /* \"#utility.yul\":16669:16703   */\n      dup3\n      mstore\n        /* \"#utility.yul\":16739:16754   */\n      dup5\n      and\n        /* \"#utility.yul\":16734:16736   */\n      0x20\n        /* \"#utility.yul\":16719:16737   */\n      dup3\n      add\n        /* \"#utility.yul\":16712:16755   */\n      mstore\n        /* \"#utility.yul\":16786:16788   */\n      0x40\n        /* \"#utility.yul\":16771:16789   */\n      dup2\n      add\n        /* \"#utility.yul\":16764:16798   */\n      dup4\n      swap1\n      mstore\n        /* \"#utility.yul\":16834:16837   */\n      0x80\n        /* \"#utility.yul\":16829:16831   */\n      0x60\n        /* \"#utility.yul\":16814:16832   */\n      dup3\n      add\n        /* \"#utility.yul\":16807:16838   */\n      dup2\n      swap1\n      mstore\n        /* \"#utility.yul\":16612:16616   */\n      0x00\n      swap1\n        /* \"#utility.yul\":16855:16901   */\n      tag_976\n      swap1\n        /* \"#utility.yul\":16881:16900   */\n      dup4\n      add\n        /* \"#utility.yul\":16873:16879   */\n      dup5\n        /* \"#utility.yul\":16855:16901   */\n      tag_808\n      jump\t// in\n    tag_976:\n        /* \"#utility.yul\":16847:16901   */\n      swap7\n        /* \"#utility.yul\":16418:16907   */\n      swap6\n      pop\n      pop\n      pop\n      pop\n      pop\n      pop\n      jump\t// out\n        /* \"#utility.yul\":16912:17161   */\n    tag_674:\n        /* \"#utility.yul\":16981:16987   */\n      0x00\n        /* \"#utility.yul\":17034:17036   */\n      0x20\n        /* \"#utility.yul\":17022:17031   */\n      dup3\n        /* \"#utility.yul\":17013:17020   */\n      dup5\n        /* \"#utility.yul\":17009:17032   */\n      sub\n        /* \"#utility.yul\":17005:17037   */\n      slt\n        /* \"#utility.yul\":17002:17054   */\n      iszero\n      tag_978\n      jumpi\n        /* \"#utility.yul\":17050:17051   */\n      0x00\n        /* \"#utility.yul\":17047:17048   */\n      dup1\n        /* \"#utility.yul\":17040:17052   */\n      revert\n        /* \"#utility.yul\":17002:17054   */\n    tag_978:\n        /* \"#utility.yul\":17082:17091   */\n      dup2\n        /* \"#utility.yul\":17076:17092   */\n      mload\n        /* \"#utility.yul\":17101:17131   */\n      tag_501\n        /* \"#utility.yul\":17125:17130   */\n      dup2\n        /* \"#utility.yul\":17101:17131   */\n      tag_806\n      jump\t// in\n        /* \"#utility.yul\":17166:17278   */\n    tag_704:\n        /* \"#utility.yul\":17198:17199   */\n      0x00\n        /* \"#utility.yul\":17224:17225   */\n      dup3\n        /* \"#utility.yul\":17214:17249   */\n      tag_982\n      jumpi\n        /* \"#utility.yul\":17229:17247   */\n      tag_982\n      tag_818\n      jump\t// in\n    tag_982:\n      pop\n        /* \"#utility.yul\":17263:17272   */\n      mod\n      swap1\n        /* \"#utility.yul\":17166:17278   */\n      jump\t// out\n\n    auxdata: 0xa26469706673582212204d20ded2b3343265e8515298780531d2a0e19db3fb7fd958332c4436c6652ac964736f6c634300080d0033\n}\n","bytecode":{"linkReferences":{},"object":"608060405234801561001057600080fd5b5061321c806100206000396000f3fe6080604052600436106102815760003560e01c80638b83209b1161014f578063bd32fb66116100c1578063e33b7de31161007a578063e33b7de3146107e2578063e797ec1b146107f7578063e985e9c51461080c578063f2fde38b14610855578063f4a0a52814610875578063fbee812114610895576102cc565b8063bd32fb6614610722578063c87b56dd14610742578063cdfb2b4e14610762578063ce7c2ac214610777578063d6b0f484146107ad578063e2e784d5146107c2576102cc565b80639852595c116101135780639852595c1461064c5780639da3f8fd146106825780639ddf7ad3146106a2578063a22cb465146106c2578063a93fef3b146106e2578063b88d4fde14610702576102cc565b80638b83209b146105b95780638da5cb5b146105d95780638f5d737c146105f75780639342e6e41461061757806395d89b4114610637576102cc565b80633a98ef39116101f35780635a64ad95116101ac5780635a64ad95146105245780636352211e1461053a57806370a082311461055a578063715018a61461057a5780637e5cd5c11461058f57806386d1a69f146105a4576102cc565b80633a98ef391461048457806342842e0e1461049957806345947076146104b957806345c0f533146104ce5780634a886ad2146104e457806355f804b314610504576102cc565b806312065fe01161024557806312065fe0146103c457806318160ddd146103e15780631b004d25146103ff57806323b872dd146104125780632a55205a146104325780632db1154414610471576102cc565b806301ffc9a7146102f357806306fdde0314610328578063081812fc1461034a578063095ea7b31461038257806311e4a21a146103a4576102cc565b366102cc577f6ef95f06320e7a25a04a175ca677b7052bdd97131872c2192525a629f51be770335b604080516001600160a01b039290921682523460208301528051918290030190a1005b7f6ef95f06320e7a25a04a175ca677b7052bdd97131872c2192525a629f51be770336102a9565b3480156102ff57600080fd5b5061031361030e366004612921565b6108b4565b60405190151581526020015b60405180910390f35b34801561033457600080fd5b5061033d6108fa565b60405161031f9190612996565b34801561035657600080fd5b5061036a6103653660046129a9565b61098c565b6040516001600160a01b03909116815260200161031f565b34801561038e57600080fd5b506103a261039d3660046129de565b6109d0565b005b3480156103b057600080fd5b506103a26103bf366004612bcc565b610a5d565b3480156103d057600080fd5b50475b60405190815260200161031f565b3480156103ed57600080fd5b506103d3609854609754036000190190565b6103a261040d366004612ceb565b610b98565b34801561041e57600080fd5b506103a261042d366004612d6e565b610de4565b34801561043e57600080fd5b5061045261044d366004612daa565b610def565b604080516001600160a01b03909316835260208301919091520161031f565b6103a261047f3660046129a9565b610e25565b34801561049057600080fd5b5060ca546103d3565b3480156104a557600080fd5b506103a26104b4366004612d6e565b610f19565b3480156104c557600080fd5b5060ff546103d3565b3480156104da57600080fd5b50610101546103d3565b3480156104f057600080fd5b506103a26104ff3660046129a9565b610f34565b34801561051057600080fd5b506103a261051f366004612dcc565b610fd6565b34801561053057600080fd5b50610100546103d3565b34801561054657600080fd5b5061036a6105553660046129a9565b611017565b34801561056657600080fd5b506103d3610575366004612e00565b611029565b34801561058657600080fd5b506103a2611077565b34801561059b57600080fd5b506103a26110ad565b3480156105b057600080fd5b506103a2611168565b3480156105c557600080fd5b5061036a6105d43660046129a9565b61119a565b3480156105e557600080fd5b506033546001600160a01b031661036a565b34801561060357600080fd5b506103a2610612366004612e1b565b6111ca565b34801561062357600080fd5b506103a2610632366004612e8c565b611200565b34801561064357600080fd5b5061033d61128e565b34801561065857600080fd5b506103d3610667366004612e00565b6001600160a01b0316600090815260cd602052604090205490565b34801561068e57600080fd5b5061010254600160481b900460ff16610313565b3480156106ae57600080fd5b5061010254600160401b900460ff16610313565b3480156106ce57600080fd5b506103a26106dd366004612ea7565b61129d565b3480156106ee57600080fd5b506103a26106fd3660046129a9565b611332565b34801561070e57600080fd5b506103a261071d366004612ee3565b6113a7565b34801561072e57600080fd5b506103a261073d3660046129a9565b6113f2565b34801561074e57600080fd5b5061033d61075d3660046129a9565b61145a565b34801561076e57600080fd5b506103a2611559565b34801561078357600080fd5b506103d3610792366004612e00565b6001600160a01b0316600090815260cc602052604090205490565b3480156107b957600080fd5b506103a2611610565b3480156107ce57600080fd5b506103a26107dd3660046129de565b6116c4565b3480156107ee57600080fd5b5060cb546103d3565b34801561080357600080fd5b506103a261174d565b34801561081857600080fd5b50610313610827366004612f5e565b6001600160a01b039182166000908152609e6020908152604080832093909416825291909152205460ff1690565b34801561086157600080fd5b506103a2610870366004612e00565b611804565b34801561088157600080fd5b506103a26108903660046129a9565b61189c565b3480156108a157600080fd5b50610102546001600160401b03166103d3565b60006001600160e01b0319821663152a902d60e11b14806108e557506001600160e01b03198216630704183b60e11b145b806108f457506108f482611905565b92915050565b60606099805461090990612f88565b80601f016020809104026020016040519081016040528092919081815260200182805461093590612f88565b80156109825780601f1061095757610100808354040283529160200191610982565b820191906000526020600020905b81548152906001019060200180831161096557829003601f168201915b5050505050905090565b600061099782611955565b6109b4576040516333d1c03960e21b815260040160405180910390fd5b506000908152609d60205260409020546001600160a01b031690565b60006109db82611017565b9050806001600160a01b0316836001600160a01b031603610a0f5760405163250fdee360e21b815260040160405180910390fd5b336001600160a01b03821614801590610a2f5750610a2d8133610827565b155b15610a4d576040516367d9dca160e11b815260040160405180910390fd5b610a5883838361198e565b505050565b600054610100900460ff16610a785760005460ff1615610a7c565b303b155b610ae45760405162461bcd60e51b815260206004820152602e60248201527f496e697469616c697a61626c653a20636f6e747261637420697320616c72656160448201526d191e481a5b9a5d1a585b1a5e995960921b60648201526084015b60405180910390fd5b600054610100900460ff16158015610b06576000805461ffff19166101011790555b610b108c8c6119ea565b610b18611a1b565b610b23828888611a4a565b8415610b365760fe859055610b36611559565b8951610b499060fd9060208d01906127fe565b5061010089905561010188905560ff849055610102805467ffffffffffffffff19166001600160401b0385161790558015610b8a576000805461ff00191690555b505050505050505050505050565b61010254600160481b900460ff16610bc3576040516373020e4b60e01b815260040160405180910390fd5b61010254600160401b900460ff16610bee576040516341a334cd60e11b815260040160405180910390fd5b806001600160401b031661010054610c069190612fd8565b3414610c255760405163788a686f60e01b815260040160405180910390fd5b61010154816001600160401b0316610c44609854609754036000190190565b610c4e9190612ff7565b1115610c6d57604051633b1e37bd60e21b815260040160405180910390fd5b610102546001600160401b039081169082161115610c9e57604051630e7b98a560e11b815260040160405180910390fd5b610d138383808060200260200160405190810160405280939291908181526020018383602002808284376000920191909152505060fe546040516bffffffffffffffffffffffff193360601b166020820152909250603401905060405160208183030381529060405280519060200120611afd565b610d3057604051630b094f2760e31b815260040160405180910390fd5b336000908152609c60205260408120548290600160c01b90046001600160401b0316610d5c919061300f565b610102549091506001600160401b039081169082161115610d9057604051634026a7cf60e11b815260040160405180910390fd5b610da333836001600160401b0316611b13565b610dde336001600160a01b03166000908152609c6020526040902080546001600160c01b0316600160c01b6001600160401b03851602179055565b50505050565b610a58838383611b2d565b60fa5460fb546001600160a01b039091169060009061271090610e129085612fd8565b610e1c9190613050565b90509250929050565b61010254600160401b900460ff1615610e5157604051633c664d6760e01b815260040160405180910390fd5b61010254600160481b900460ff16610e7c576040516373020e4b60e01b815260040160405180910390fd5b8061010054610e8b9190612fd8565b3414610eaa5760405163788a686f60e01b815260040160405180910390fd5b6101015481610ec0609854609754036000190190565b610eca9190612ff7565b1115610ee957604051633b1e37bd60e21b815260040160405180910390fd5b60ff54811115610f0c57604051632193c2c560e11b815260040160405180910390fd5b610f163382611b13565b50565b610a58838383604051806020016040528060008152506113a7565b6033546001600160a01b03163314610f5e5760405162461bcd60e51b8152600401610adb90613064565b610f6f609854609754036000190190565b811015610f8f5760405163351b51d760e11b815260040160405180910390fd5b61010180549082905560408051828152602081018490527f8d9cfb0dea274a0a02ddad1fc52c90100a28462c6421daa25fb101c740cf585191015b60405180910390a15050565b6033546001600160a01b031633146110005760405162461bcd60e51b8152600401610adb90613064565b80516110139060fc9060208401906127fe565b5050565b600061102282611d1a565b5192915050565b60006001600160a01b038216611052576040516323d3ad8160e21b815260040160405180910390fd5b506001600160a01b03166000908152609c60205260409020546001600160401b031690565b6033546001600160a01b031633146110a15760405162461bcd60e51b8152600401610adb90613064565b6110ab6000611e41565b565b6033546001600160a01b031633146110d75760405162461bcd60e51b8152600401610adb90613064565b61010254600160481b900460ff16611102576040516373020e4b60e01b815260040160405180910390fd5b610102805460ff60481b198116918290556040805160ff600160481b9384900481168015158352939094049093161515602084015290917f1ab1d89be1fd19dcd21c73f1d6e927e3f148097e8691bbba925bd85e34e1f0e391015b60405180910390a150565b6033546001600160a01b031633146111925760405162461bcd60e51b8152600401610adb90613064565b6110ab611e93565b600060ce82815481106111af576111af613099565b6000918252602090912001546001600160a01b031692915050565b6033546001600160a01b031633146111f45760405162461bcd60e51b8152600401610adb90613064565b610a5860fd8383612882565b6033546001600160a01b0316331461122a5760405162461bcd60e51b8152600401610adb90613064565b61010280546001600160401b0383811667ffffffffffffffff19831681179093556040519116917f3851f4a3ce1c8adce98754722ff6f348f4714fd4850d154c71045447d304246891610fca918482526001600160401b0316602082015260400190565b6060609a805461090990612f88565b336001600160a01b038316036112c65760405163b06307db60e01b815260040160405180910390fd5b336000818152609e602090815260408083206001600160a01b03871680855290835292819020805460ff191686151590811790915590519081529192917f17307eab39ab6107e8899845ad3d59bd9653f200f220920489ca2b5937696c31910160405180910390a35050565b6033546001600160a01b0316331461135c5760405162461bcd60e51b8152600401610adb90613064565b60ff80549082905561010254604080518381526001600160401b0390921660208301527f439b8b0b530562f8413db2651ab1e8dcae2719da0a2d2d3d3c068ca25c29969f9101610fca565b6113b2848484611b2d565b6001600160a01b0383163b151580156113d457506113d284848484611fdc565b155b15610dde576040516368d2bf6b60e11b815260040160405180910390fd5b6033546001600160a01b0316331461141c5760405162461bcd60e51b8152600401610adb90613064565b60fe80549082905560408051828152602081018490527f1e5d0194158313989f8568b586deb425fcd9a6b46a4e6e2c43f9becc480c6bc09101610fca565b606061146582611955565b61148257604051634a1850bf60e11b815260040160405180910390fd5b600061148c6120c8565b905060008151116115275760fd80546114a490612f88565b80601f01602080910402602001604051908101604052809291908181526020018280546114d090612f88565b801561151d5780601f106114f25761010080835404028352916020019161151d565b820191906000526020600020905b81548152906001019060200180831161150057829003601f168201915b5050505050611552565b80611531846120d7565b6040516020016115429291906130af565b6040516020818303038152906040525b9392505050565b6033546001600160a01b031633146115835760405162461bcd60e51b8152600401610adb90613064565b61010254600160401b900460ff16156115af57604051633c664d6760e01b815260040160405180910390fd5b6101028054600160401b60ff60401b198216811792839055604080519282900460ff90811680151585529290940490931615156020830152917f5045eea7e64af4d857464a8347a5bbce05a99fe1e1f08a3f1ebbc61aa782b21b910161115d565b6033546001600160a01b0316331461163a5760405162461bcd60e51b8152600401610adb90613064565b61010254600160401b900460ff16611665576040516341a334cd60e11b815260040160405180910390fd5b610102805460ff60401b198116918290556040805160ff600160401b9384900481168015158352939094049093161515602084015290917f5045eea7e64af4d857464a8347a5bbce05a99fe1e1f08a3f1ebbc61aa782b21b910161115d565b6033546001600160a01b031633146116ee5760405162461bcd60e51b8152600401610adb90613064565b60fa80546001600160a01b0319166001600160a01b03841617905560fb819055604080516001600160a01b0384168152602081018390527f37b261884b0718cab93d62e6fe3bef710b5a1da58190a859f842d6e8b2b0b70b9101610fca565b6033546001600160a01b031633146117775760405162461bcd60e51b8152600401610adb90613064565b61010254600160481b900460ff16156117a357604051633f19d52960e21b815260040160405180910390fd5b6101028054600160481b60ff60481b198216811792839055604080519282900460ff90811680151585529290940490931615156020830152917f1ab1d89be1fd19dcd21c73f1d6e927e3f148097e8691bbba925bd85e34e1f0e3910161115d565b6033546001600160a01b0316331461182e5760405162461bcd60e51b8152600401610adb90613064565b6001600160a01b0381166118935760405162461bcd60e51b815260206004820152602660248201527f4f776e61626c653a206e6577206f776e657220697320746865207a65726f206160448201526564647265737360d01b6064820152608401610adb565b610f1681611e41565b6033546001600160a01b031633146118c65760405162461bcd60e51b8152600401610adb90613064565b61010080549082905560408051828152602081018490527f79f142b9bcccc417646eead59c29526ac8437fccd19a5368532b2648349adce19101610fca565b60006001600160e01b031982166380ac58cd60e01b148061193657506001600160e01b03198216635b5e139f60e01b145b806108f457506301ffc9a760e01b6001600160e01b03198316146108f4565b600081600111158015611969575060975482105b80156108f45750506000908152609b6020526040902054600160e01b900460ff161590565b6000828152609d602052604080822080546001600160a01b0319166001600160a01b0387811691821790925591518593918516917f8c5be1e5ebec7d5bd14f71427d1e84f3dd0314c0f7b2291e5b200ac8c7c3b92591a4505050565b600054610100900460ff16611a115760405162461bcd60e51b8152600401610adb906130fd565b61101382826121d7565b600054610100900460ff16611a425760405162461bcd60e51b8152600401610adb906130fd565b6110ab61222f565b600054610100900460ff16611a715760405162461bcd60e51b8152600401610adb906130fd565b611a7d836101f461225f565b8151600003611a9a57611a923361251c61225f565b610a586122c4565b60005b8251811015611af457611ae2838281518110611abb57611abb613099565b6020026020010151838381518110611ad557611ad5613099565b602002602001015161225f565b80611aec81613148565b915050611a9d565b50610a586122c4565b600082611b0a8584612379565b14949350505050565b6110138282604051806020016040528060008152506123ed565b6000611b3882611d1a565b9050836001600160a01b031681600001516001600160a01b031614611b6f5760405162a1148160e81b815260040160405180910390fd5b6000336001600160a01b0386161480611b8d5750611b8d8533610827565b80611ba8575033611b9d8461098c565b6001600160a01b0316145b905080611bc857604051632ce44b5f60e11b815260040160405180910390fd5b6001600160a01b038416611bef57604051633a954ecd60e21b815260040160405180910390fd5b611bfb6000848761198e565b6001600160a01b038581166000908152609c60209081526040808320805467ffffffffffffffff198082166001600160401b0392831660001901831617909255898616808652838620805493841693831660019081018416949094179055898652609b90945282852080546001600160e01b031916909417600160a01b42909216919091021783558701808452922080549193909116611ccf576097548214611ccf57805460208601516001600160401b0316600160a01b026001600160e01b03199091166001600160a01b038a16171781555b50505082846001600160a01b0316866001600160a01b03167fddf252ad1be2c89b69c2b068fc378daa952ba7f163c4a11628f55a4df523b3ef60405160405180910390a45050505050565b60408051606081018252600080825260208201819052918101919091528180600111158015611d4a575060975481105b15611e28576000818152609b6020908152604091829020825160608101845290546001600160a01b0381168252600160a01b81046001600160401b031692820192909252600160e01b90910460ff16151591810182905290611e265780516001600160a01b031615611dbd579392505050565b50600019016000818152609b6020908152604091829020825160608101845290546001600160a01b038116808352600160a01b82046001600160401b031693830193909352600160e01b900460ff1615159281019290925215611e21579392505050565b611dbd565b505b604051636f96cda160e11b815260040160405180910390fd5b603380546001600160a01b038381166001600160a01b0319831681179093556040519116919082907f8be0079c531659141344cd1fd0a4f28419497f9722a3daafe3b4186f6b6457e090600090a35050565b47600003611eb45760405163334ab3f560e11b815260040160405180910390fd5b60005b60c954811015610f16576000611ecc8261119a565b9050600060cb5447611ede9190612ff7565b6001600160a01b038316600090815260cd602090815260408083205460ca5460cc909352908320549394509192611f159085612fd8565b611f1f9190613050565b611f299190613161565b6001600160a01b038416600090815260cd6020526040902054909150611f50908290612ff7565b6001600160a01b038416600090815260cd602052604090205560cb54611f77908290612ff7565b60cb55611f8483826125ae565b604080516001600160a01b0385168152602081018390527fdf20fd1e76bc69d672e4814fafb2c449bba3a5369d8359adf9e05e6fde87b056910160405180910390a15050508080611fd490613148565b915050611eb7565b604051630a85bd0160e11b81526000906001600160a01b0385169063150b7a0290612011903390899088908890600401613178565b6020604051808303816000875af192505050801561204c575060408051601f3d908101601f19168201909252612049918101906131b5565b60015b6120aa573d80801561207a576040519150601f19603f3d011682016040523d82523d6000602084013e61207f565b606091505b5080516000036120a2576040516368d2bf6b60e11b815260040160405180910390fd5b805181602001fd5b6001600160e01b031916630a85bd0160e11b1490505b949350505050565b606060fc805461090990612f88565b6060816000036120fe5750506040805180820190915260018152600360fc1b602082015290565b8160005b8115612128578061211281613148565b91506121219050600a83613050565b9150612102565b6000816001600160401b0381111561214257612142612a08565b6040519080825280601f01601f19166020018201604052801561216c576020820181803683370190505b5090505b84156120c057612181600183613161565b915061218e600a866131d2565b612199906030612ff7565b60f81b8183815181106121ae576121ae613099565b60200101906001600160f81b031916908160001a9053506121d0600a86613050565b9450612170565b600054610100900460ff166121fe5760405162461bcd60e51b8152600401610adb906130fd565b81516122119060999060208501906127fe565b50805161222590609a9060208401906127fe565b5060016097555050565b600054610100900460ff166122565760405162461bcd60e51b8152600401610adb906130fd565b6110ab33611e41565b61010254600160501b900460ff16156122ba5760405162461bcd60e51b815260206004820152601a60248201527f43616e206e6f74207365742c20706179656573206c6f636b65640000000000006044820152606401610adb565b61101382826126c7565b61010254600160501b900460ff161561231f5760405162461bcd60e51b815260206004820152601a60248201527f43616e206e6f74207365742c20706179656573206c6f636b65640000000000006044820152606401610adb565b610102805460ff60501b1916600160501b908117918290556040517f07fe2f03bd4fa149b9d8918fb57a6e2a3b1fbbb29a4d4536df7e6cd9edf02ed89261236f92900460ff161515815260200190565b60405180910390a1565b600081815b84518110156123e557600085828151811061239b5761239b613099565b602002602001015190508083116123c157600083815260208290526040902092506123d2565b600081815260208490526040902092505b50806123dd81613148565b91505061237e565b509392505050565b6097546001600160a01b03841661241657604051622e076360e81b815260040160405180910390fd5b826000036124375760405163b562e8dd60e01b815260040160405180910390fd5b6001600160a01b0384166000818152609c6020908152604080832080546fffffffffffffffffffffffffffffffff1981166001600160401b038083168b018116918217600160401b67ffffffffffffffff1990941690921783900481168b01811690920217909155858452609b90925290912080546001600160e01b0319168317600160a01b42909316929092029190911790558190818501903b1561255a575b60405182906001600160a01b038816906000907fddf252ad1be2c89b69c2b068fc378daa952ba7f163c4a11628f55a4df523b3ef908290a46125236000878480600101955087611fdc565b612540576040516368d2bf6b60e11b815260040160405180910390fd5b8082036124d857826097541461255557600080fd5b61259f565b5b6040516001830192906001600160a01b038816906000907fddf252ad1be2c89b69c2b068fc378daa952ba7f163c4a11628f55a4df523b3ef908290a480820361255b575b50609755610dde600085838684565b804710156125fe5760405162461bcd60e51b815260206004820152601d60248201527f416464726573733a20696e73756666696369656e742062616c616e63650000006044820152606401610adb565b6000826001600160a01b03168260405160006040518083038185875af1925050503d806000811461264b576040519150601f19603f3d011682016040523d82523d6000602084013e612650565b606091505b5050905080610a585760405162461bcd60e51b815260206004820152603a60248201527f416464726573733a20756e61626c6520746f2073656e642076616c75652c207260448201527f6563697069656e74206d617920686176652072657665727465640000000000006064820152608401610adb565b6001600160a01b0382166126ee5760405163ab38716960e01b815260040160405180910390fd5b6000811161270f57604051636edcc52360e01b815260040160405180910390fd5b6001600160a01b038216600090815260cc6020526040902054156127465760405163b3f5cfa560e01b815260040160405180910390fd5b61275460c980546001019055565b60ce8054600181019091557fd36cd1c74ef8d7326d8021b776c18fb5a5724b7f7bc93c2f42e43e10ef27d12a0180546001600160a01b0319166001600160a01b038416908117909155600090815260cc6020526040902081905560ca546127bc908290612ff7565b60ca55604080516001600160a01b0384168152602081018390527f40c340f65e17194d14ddddb073d3c9f888e3cb52b5aae0c6c7706b4fbc905fac9101610fca565b82805461280a90612f88565b90600052602060002090601f01602090048101928261282c5760008555612872565b82601f1061284557805160ff1916838001178555612872565b82800160010185558215612872579182015b82811115612872578251825591602001919060010190612857565b5061287e9291506128f6565b5090565b82805461288e90612f88565b90600052602060002090601f0160209004810192826128b05760008555612872565b82601f106128c95782800160ff19823516178555612872565b82800160010185558215612872579182015b828111156128725782358255916020019190600101906128db565b5b8082111561287e57600081556001016128f7565b6001600160e01b031981168114610f1657600080fd5b60006020828403121561293357600080fd5b81356115528161290b565b60005b83811015612959578181015183820152602001612941565b83811115610dde5750506000910152565b6000815180845261298281602086016020860161293e565b601f01601f19169290920160200192915050565b602081526000611552602083018461296a565b6000602082840312156129bb57600080fd5b5035919050565b80356001600160a01b03811681146129d957600080fd5b919050565b600080604083850312156129f157600080fd5b6129fa836129c2565b946020939093013593505050565b634e487b7160e01b600052604160045260246000fd5b604051601f8201601f191681016001600160401b0381118282101715612a4657612a46612a08565b604052919050565b60006001600160401b03831115612a6757612a67612a08565b612a7a601f8401601f1916602001612a1e565b9050828152838383011115612a8e57600080fd5b828260208301376000602084830101529392505050565b600082601f830112612ab657600080fd5b61155283833560208501612a4e565b60006001600160401b03821115612ade57612ade612a08565b5060051b60200190565b600082601f830112612af957600080fd5b81356020612b0e612b0983612ac5565b612a1e565b82815260059290921b84018101918181019086841115612b2d57600080fd5b8286015b84811015612b4f57612b42816129c2565b8352918301918301612b31565b509695505050505050565b600082601f830112612b6b57600080fd5b81356020612b7b612b0983612ac5565b82815260059290921b84018101918181019086841115612b9a57600080fd5b8286015b84811015612b4f5780358352918301918301612b9e565b80356001600160401b03811681146129d957600080fd5b60008060008060008060008060008060006101608c8e031215612bee57600080fd5b6001600160401b03808d351115612c0457600080fd5b612c118e8e358f01612aa5565b9b508060208e01351115612c2457600080fd5b612c348e60208f01358f01612aa5565b9a508060408e01351115612c4757600080fd5b612c578e60408f01358f01612aa5565b995060608d0135985060808d013597508060a08e01351115612c7857600080fd5b612c888e60a08f01358f01612ae8565b96508060c08e01351115612c9b57600080fd5b50612cac8d60c08e01358e01612b5a565b945060e08c013593506101008c01359250612cca6101208d01612bb5565b9150612cd96101408d016129c2565b90509295989b509295989b9093969950565b600080600060408486031215612d0057600080fd5b83356001600160401b0380821115612d1757600080fd5b818601915086601f830112612d2b57600080fd5b813581811115612d3a57600080fd5b8760208260051b8501011115612d4f57600080fd5b602092830195509350612d659186019050612bb5565b90509250925092565b600080600060608486031215612d8357600080fd5b612d8c846129c2565b9250612d9a602085016129c2565b9150604084013590509250925092565b60008060408385031215612dbd57600080fd5b50508035926020909101359150565b600060208284031215612dde57600080fd5b81356001600160401b03811115612df457600080fd5b6120c084828501612aa5565b600060208284031215612e1257600080fd5b611552826129c2565b60008060208385031215612e2e57600080fd5b82356001600160401b0380821115612e4557600080fd5b818501915085601f830112612e5957600080fd5b813581811115612e6857600080fd5b866020828501011115612e7a57600080fd5b60209290920196919550909350505050565b600060208284031215612e9e57600080fd5b61155282612bb5565b60008060408385031215612eba57600080fd5b612ec3836129c2565b915060208301358015158114612ed857600080fd5b809150509250929050565b60008060008060808587031215612ef957600080fd5b612f02856129c2565b9350612f10602086016129c2565b92506040850135915060608501356001600160401b03811115612f3257600080fd5b8501601f81018713612f4357600080fd5b612f5287823560208401612a4e565b91505092959194509250565b60008060408385031215612f7157600080fd5b612f7a836129c2565b9150610e1c602084016129c2565b600181811c90821680612f9c57607f821691505b602082108103612fbc57634e487b7160e01b600052602260045260246000fd5b50919050565b634e487b7160e01b600052601160045260246000fd5b6000816000190483118215151615612ff257612ff2612fc2565b500290565b6000821982111561300a5761300a612fc2565b500190565b60006001600160401b0380831681851680830382111561303157613031612fc2565b01949350505050565b634e487b7160e01b600052601260045260246000fd5b60008261305f5761305f61303a565b500490565b6020808252818101527f4f776e61626c653a2063616c6c6572206973206e6f7420746865206f776e6572604082015260600190565b634e487b7160e01b600052603260045260246000fd5b600083516130c181846020880161293e565b602f60f81b90830190815283516130df81600184016020880161293e565b64173539b7b760d91b60019290910191820152600601949350505050565b6020808252602b908201527f496e697469616c697a61626c653a20636f6e7472616374206973206e6f74206960408201526a6e697469616c697a696e6760a81b606082015260800190565b60006001820161315a5761315a612fc2565b5060010190565b60008282101561317357613173612fc2565b500390565b6001600160a01b03858116825284166020820152604081018390526080606082018190526000906131ab9083018461296a565b9695505050505050565b6000602082840312156131c757600080fd5b81516115528161290b565b6000826131e1576131e161303a565b50069056fea26469706673582212204d20ded2b3343265e8515298780531d2a0e19db3fb7fd958332c4436c6652ac964736f6c634300080d0033","opcodes":"PUSH1 0x80 PUSH1 0x40 MSTORE CALLVALUE DUP1 ISZERO PUSH2 0x10 JUMPI PUSH1 0x0 DUP1 REVERT JUMPDEST POP PUSH2 0x321C DUP1 PUSH2 0x20 PUSH1 0x0 CODECOPY PUSH1 0x0 RETURN INVALID PUSH1 0x80 PUSH1 0x40 MSTORE PUSH1 0x4 CALLDATASIZE LT PUSH2 0x281 JUMPI PUSH1 0x0 CALLDATALOAD PUSH1 0xE0 SHR DUP1 PUSH4 0x8B83209B GT PUSH2 0x14F JUMPI DUP1 PUSH4 0xBD32FB66 GT PUSH2 0xC1 JUMPI DUP1 PUSH4 0xE33B7DE3 GT PUSH2 0x7A JUMPI DUP1 PUSH4 0xE33B7DE3 EQ PUSH2 0x7E2 JUMPI DUP1 PUSH4 0xE797EC1B EQ PUSH2 0x7F7 JUMPI DUP1 PUSH4 0xE985E9C5 EQ PUSH2 0x80C JUMPI DUP1 PUSH4 0xF2FDE38B EQ PUSH2 0x855 JUMPI DUP1 PUSH4 0xF4A0A528 EQ PUSH2 0x875 JUMPI DUP1 PUSH4 0xFBEE8121 EQ PUSH2 0x895 JUMPI PUSH2 0x2CC JUMP JUMPDEST DUP1 PUSH4 0xBD32FB66 EQ PUSH2 0x722 JUMPI DUP1 PUSH4 0xC87B56DD EQ PUSH2 0x742 JUMPI DUP1 PUSH4 0xCDFB2B4E EQ PUSH2 0x762 JUMPI DUP1 PUSH4 0xCE7C2AC2 EQ PUSH2 0x777 JUMPI DUP1 PUSH4 0xD6B0F484 EQ PUSH2 0x7AD JUMPI DUP1 PUSH4 0xE2E784D5 EQ PUSH2 0x7C2 JUMPI PUSH2 0x2CC JUMP JUMPDEST DUP1 PUSH4 0x9852595C GT PUSH2 0x113 JUMPI DUP1 PUSH4 0x9852595C EQ PUSH2 0x64C JUMPI DUP1 PUSH4 0x9DA3F8FD EQ PUSH2 0x682 JUMPI DUP1 PUSH4 0x9DDF7AD3 EQ PUSH2 0x6A2 JUMPI DUP1 PUSH4 0xA22CB465 EQ PUSH2 0x6C2 JUMPI DUP1 PUSH4 0xA93FEF3B EQ PUSH2 0x6E2 JUMPI DUP1 PUSH4 0xB88D4FDE EQ PUSH2 0x702 JUMPI PUSH2 0x2CC JUMP JUMPDEST DUP1 PUSH4 0x8B83209B EQ PUSH2 0x5B9 JUMPI DUP1 PUSH4 0x8DA5CB5B EQ PUSH2 0x5D9 JUMPI DUP1 PUSH4 0x8F5D737C EQ PUSH2 0x5F7 JUMPI DUP1 PUSH4 0x9342E6E4 EQ PUSH2 0x617 JUMPI DUP1 PUSH4 0x95D89B41 EQ PUSH2 0x637 JUMPI PUSH2 0x2CC JUMP JUMPDEST DUP1 PUSH4 0x3A98EF39 GT PUSH2 0x1F3 JUMPI DUP1 PUSH4 0x5A64AD95 GT PUSH2 0x1AC JUMPI DUP1 PUSH4 0x5A64AD95 EQ PUSH2 0x524 JUMPI DUP1 PUSH4 0x6352211E EQ PUSH2 0x53A JUMPI DUP1 PUSH4 0x70A08231 EQ PUSH2 0x55A JUMPI DUP1 PUSH4 0x715018A6 EQ PUSH2 0x57A JUMPI DUP1 PUSH4 0x7E5CD5C1 EQ PUSH2 0x58F JUMPI DUP1 PUSH4 0x86D1A69F EQ PUSH2 0x5A4 JUMPI PUSH2 0x2CC JUMP JUMPDEST DUP1 PUSH4 0x3A98EF39 EQ PUSH2 0x484 JUMPI DUP1 PUSH4 0x42842E0E EQ PUSH2 0x499 JUMPI DUP1 PUSH4 0x45947076 EQ PUSH2 0x4B9 JUMPI DUP1 PUSH4 0x45C0F533 EQ PUSH2 0x4CE JUMPI DUP1 PUSH4 0x4A886AD2 EQ PUSH2 0x4E4 JUMPI DUP1 PUSH4 0x55F804B3 EQ PUSH2 0x504 JUMPI PUSH2 0x2CC JUMP JUMPDEST DUP1 PUSH4 0x12065FE0 GT PUSH2 0x245 JUMPI DUP1 PUSH4 0x12065FE0 EQ PUSH2 0x3C4 JUMPI DUP1 PUSH4 0x18160DDD EQ PUSH2 0x3E1 JUMPI DUP1 PUSH4 0x1B004D25 EQ PUSH2 0x3FF JUMPI DUP1 PUSH4 0x23B872DD EQ PUSH2 0x412 JUMPI DUP1 PUSH4 0x2A55205A EQ PUSH2 0x432 JUMPI DUP1 PUSH4 0x2DB11544 EQ PUSH2 0x471 JUMPI PUSH2 0x2CC JUMP JUMPDEST DUP1 PUSH4 0x1FFC9A7 EQ PUSH2 0x2F3 JUMPI DUP1 PUSH4 0x6FDDE03 EQ PUSH2 0x328 JUMPI DUP1 PUSH4 0x81812FC EQ PUSH2 0x34A JUMPI DUP1 PUSH4 0x95EA7B3 EQ PUSH2 0x382 JUMPI DUP1 PUSH4 0x11E4A21A EQ PUSH2 0x3A4 JUMPI PUSH2 0x2CC JUMP JUMPDEST CALLDATASIZE PUSH2 0x2CC JUMPI PUSH32 0x6EF95F06320E7A25A04A175CA677B7052BDD97131872C2192525A629F51BE770 CALLER JUMPDEST PUSH1 0x40 DUP1 MLOAD PUSH1 0x1 PUSH1 0x1 PUSH1 0xA0 SHL SUB SWAP3 SWAP1 SWAP3 AND DUP3 MSTORE CALLVALUE PUSH1 0x20 DUP4 ADD MSTORE DUP1 MLOAD SWAP2 DUP3 SWAP1 SUB ADD SWAP1 LOG1 STOP JUMPDEST PUSH32 0x6EF95F06320E7A25A04A175CA677B7052BDD97131872C2192525A629F51BE770 CALLER PUSH2 0x2A9 JUMP JUMPDEST CALLVALUE DUP1 ISZERO PUSH2 0x2FF JUMPI PUSH1 0x0 DUP1 REVERT JUMPDEST POP PUSH2 0x313 PUSH2 0x30E CALLDATASIZE PUSH1 0x4 PUSH2 0x2921 JUMP JUMPDEST PUSH2 0x8B4 JUMP JUMPDEST PUSH1 0x40 MLOAD SWAP1 ISZERO ISZERO DUP2 MSTORE PUSH1 0x20 ADD JUMPDEST PUSH1 0x40 MLOAD DUP1 SWAP2 SUB SWAP1 RETURN JUMPDEST CALLVALUE DUP1 ISZERO PUSH2 0x334 JUMPI PUSH1 0x0 DUP1 REVERT JUMPDEST POP PUSH2 0x33D PUSH2 0x8FA JUMP JUMPDEST PUSH1 0x40 MLOAD PUSH2 0x31F SWAP2 SWAP1 PUSH2 0x2996 JUMP JUMPDEST CALLVALUE DUP1 ISZERO PUSH2 0x356 JUMPI PUSH1 0x0 DUP1 REVERT JUMPDEST POP PUSH2 0x36A PUSH2 0x365 CALLDATASIZE PUSH1 0x4 PUSH2 0x29A9 JUMP JUMPDEST PUSH2 0x98C JUMP JUMPDEST PUSH1 0x40 MLOAD PUSH1 0x1 PUSH1 0x1 PUSH1 0xA0 SHL SUB SWAP1 SWAP2 AND DUP2 MSTORE PUSH1 0x20 ADD PUSH2 0x31F JUMP JUMPDEST CALLVALUE DUP1 ISZERO PUSH2 0x38E JUMPI PUSH1 0x0 DUP1 REVERT JUMPDEST POP PUSH2 0x3A2 PUSH2 0x39D CALLDATASIZE PUSH1 0x4 PUSH2 0x29DE JUMP JUMPDEST PUSH2 0x9D0 JUMP JUMPDEST STOP JUMPDEST CALLVALUE DUP1 ISZERO PUSH2 0x3B0 JUMPI PUSH1 0x0 DUP1 REVERT JUMPDEST POP PUSH2 0x3A2 PUSH2 0x3BF CALLDATASIZE PUSH1 0x4 PUSH2 0x2BCC JUMP JUMPDEST PUSH2 0xA5D JUMP JUMPDEST CALLVALUE DUP1 ISZERO PUSH2 0x3D0 JUMPI PUSH1 0x0 DUP1 REVERT JUMPDEST POP SELFBALANCE JUMPDEST PUSH1 0x40 MLOAD SWAP1 DUP2 MSTORE PUSH1 0x20 ADD PUSH2 0x31F JUMP JUMPDEST CALLVALUE DUP1 ISZERO PUSH2 0x3ED JUMPI PUSH1 0x0 DUP1 REVERT JUMPDEST POP PUSH2 0x3D3 PUSH1 0x98 SLOAD PUSH1 0x97 SLOAD SUB PUSH1 0x0 NOT ADD SWAP1 JUMP JUMPDEST PUSH2 0x3A2 PUSH2 0x40D CALLDATASIZE PUSH1 0x4 PUSH2 0x2CEB JUMP JUMPDEST PUSH2 0xB98 JUMP JUMPDEST CALLVALUE DUP1 ISZERO PUSH2 0x41E JUMPI PUSH1 0x0 DUP1 REVERT JUMPDEST POP PUSH2 0x3A2 PUSH2 0x42D CALLDATASIZE PUSH1 0x4 PUSH2 0x2D6E JUMP JUMPDEST PUSH2 0xDE4 JUMP JUMPDEST CALLVALUE DUP1 ISZERO PUSH2 0x43E JUMPI PUSH1 0x0 DUP1 REVERT JUMPDEST POP PUSH2 0x452 PUSH2 0x44D CALLDATASIZE PUSH1 0x4 PUSH2 0x2DAA JUMP JUMPDEST PUSH2 0xDEF JUMP JUMPDEST PUSH1 0x40 DUP1 MLOAD PUSH1 0x1 PUSH1 0x1 PUSH1 0xA0 SHL SUB SWAP1 SWAP4 AND DUP4 MSTORE PUSH1 0x20 DUP4 ADD SWAP2 SWAP1 SWAP2 MSTORE ADD PUSH2 0x31F JUMP JUMPDEST PUSH2 0x3A2 PUSH2 0x47F CALLDATASIZE PUSH1 0x4 PUSH2 0x29A9 JUMP JUMPDEST PUSH2 0xE25 JUMP JUMPDEST CALLVALUE DUP1 ISZERO PUSH2 0x490 JUMPI PUSH1 0x0 DUP1 REVERT JUMPDEST POP PUSH1 0xCA SLOAD PUSH2 0x3D3 JUMP JUMPDEST CALLVALUE DUP1 ISZERO PUSH2 0x4A5 JUMPI PUSH1 0x0 DUP1 REVERT JUMPDEST POP PUSH2 0x3A2 PUSH2 0x4B4 CALLDATASIZE PUSH1 0x4 PUSH2 0x2D6E JUMP JUMPDEST PUSH2 0xF19 JUMP JUMPDEST CALLVALUE DUP1 ISZERO PUSH2 0x4C5 JUMPI PUSH1 0x0 DUP1 REVERT JUMPDEST POP PUSH1 0xFF SLOAD PUSH2 0x3D3 JUMP JUMPDEST CALLVALUE DUP1 ISZERO PUSH2 0x4DA JUMPI PUSH1 0x0 DUP1 REVERT JUMPDEST POP PUSH2 0x101 SLOAD PUSH2 0x3D3 JUMP JUMPDEST CALLVALUE DUP1 ISZERO PUSH2 0x4F0 JUMPI PUSH1 0x0 DUP1 REVERT JUMPDEST POP PUSH2 0x3A2 PUSH2 0x4FF CALLDATASIZE PUSH1 0x4 PUSH2 0x29A9 JUMP JUMPDEST PUSH2 0xF34 JUMP JUMPDEST CALLVALUE DUP1 ISZERO PUSH2 0x510 JUMPI PUSH1 0x0 DUP1 REVERT JUMPDEST POP PUSH2 0x3A2 PUSH2 0x51F CALLDATASIZE PUSH1 0x4 PUSH2 0x2DCC JUMP JUMPDEST PUSH2 0xFD6 JUMP JUMPDEST CALLVALUE DUP1 ISZERO PUSH2 0x530 JUMPI PUSH1 0x0 DUP1 REVERT JUMPDEST POP PUSH2 0x100 SLOAD PUSH2 0x3D3 JUMP JUMPDEST CALLVALUE DUP1 ISZERO PUSH2 0x546 JUMPI PUSH1 0x0 DUP1 REVERT JUMPDEST POP PUSH2 0x36A PUSH2 0x555 CALLDATASIZE PUSH1 0x4 PUSH2 0x29A9 JUMP JUMPDEST PUSH2 0x1017 JUMP JUMPDEST CALLVALUE DUP1 ISZERO PUSH2 0x566 JUMPI PUSH1 0x0 DUP1 REVERT JUMPDEST POP PUSH2 0x3D3 PUSH2 0x575 CALLDATASIZE PUSH1 0x4 PUSH2 0x2E00 JUMP JUMPDEST PUSH2 0x1029 JUMP JUMPDEST CALLVALUE DUP1 ISZERO PUSH2 0x586 JUMPI PUSH1 0x0 DUP1 REVERT JUMPDEST POP PUSH2 0x3A2 PUSH2 0x1077 JUMP JUMPDEST CALLVALUE DUP1 ISZERO PUSH2 0x59B JUMPI PUSH1 0x0 DUP1 REVERT JUMPDEST POP PUSH2 0x3A2 PUSH2 0x10AD JUMP JUMPDEST CALLVALUE DUP1 ISZERO PUSH2 0x5B0 JUMPI PUSH1 0x0 DUP1 REVERT JUMPDEST POP PUSH2 0x3A2 PUSH2 0x1168 JUMP JUMPDEST CALLVALUE DUP1 ISZERO PUSH2 0x5C5 JUMPI PUSH1 0x0 DUP1 REVERT JUMPDEST POP PUSH2 0x36A PUSH2 0x5D4 CALLDATASIZE PUSH1 0x4 PUSH2 0x29A9 JUMP JUMPDEST PUSH2 0x119A JUMP JUMPDEST CALLVALUE DUP1 ISZERO PUSH2 0x5E5 JUMPI PUSH1 0x0 DUP1 REVERT JUMPDEST POP PUSH1 0x33 SLOAD PUSH1 0x1 PUSH1 0x1 PUSH1 0xA0 SHL SUB AND PUSH2 0x36A JUMP JUMPDEST CALLVALUE DUP1 ISZERO PUSH2 0x603 JUMPI PUSH1 0x0 DUP1 REVERT JUMPDEST POP PUSH2 0x3A2 PUSH2 0x612 CALLDATASIZE PUSH1 0x4 PUSH2 0x2E1B JUMP JUMPDEST PUSH2 0x11CA JUMP JUMPDEST CALLVALUE DUP1 ISZERO PUSH2 0x623 JUMPI PUSH1 0x0 DUP1 REVERT JUMPDEST POP PUSH2 0x3A2 PUSH2 0x632 CALLDATASIZE PUSH1 0x4 PUSH2 0x2E8C JUMP JUMPDEST PUSH2 0x1200 JUMP JUMPDEST CALLVALUE DUP1 ISZERO PUSH2 0x643 JUMPI PUSH1 0x0 DUP1 REVERT JUMPDEST POP PUSH2 0x33D PUSH2 0x128E JUMP JUMPDEST CALLVALUE DUP1 ISZERO PUSH2 0x658 JUMPI PUSH1 0x0 DUP1 REVERT JUMPDEST POP PUSH2 0x3D3 PUSH2 0x667 CALLDATASIZE PUSH1 0x4 PUSH2 0x2E00 JUMP JUMPDEST PUSH1 0x1 PUSH1 0x1 PUSH1 0xA0 SHL SUB AND PUSH1 0x0 SWAP1 DUP2 MSTORE PUSH1 0xCD PUSH1 0x20 MSTORE PUSH1 0x40 SWAP1 KECCAK256 SLOAD SWAP1 JUMP JUMPDEST CALLVALUE DUP1 ISZERO PUSH2 0x68E JUMPI PUSH1 0x0 DUP1 REVERT JUMPDEST POP PUSH2 0x102 SLOAD PUSH1 0x1 PUSH1 0x48 SHL SWAP1 DIV PUSH1 0xFF AND PUSH2 0x313 JUMP JUMPDEST CALLVALUE DUP1 ISZERO PUSH2 0x6AE JUMPI PUSH1 0x0 DUP1 REVERT JUMPDEST POP PUSH2 0x102 SLOAD PUSH1 0x1 PUSH1 0x40 SHL SWAP1 DIV PUSH1 0xFF AND PUSH2 0x313 JUMP JUMPDEST CALLVALUE DUP1 ISZERO PUSH2 0x6CE JUMPI PUSH1 0x0 DUP1 REVERT JUMPDEST POP PUSH2 0x3A2 PUSH2 0x6DD CALLDATASIZE PUSH1 0x4 PUSH2 0x2EA7 JUMP JUMPDEST PUSH2 0x129D JUMP JUMPDEST CALLVALUE DUP1 ISZERO PUSH2 0x6EE JUMPI PUSH1 0x0 DUP1 REVERT JUMPDEST POP PUSH2 0x3A2 PUSH2 0x6FD CALLDATASIZE PUSH1 0x4 PUSH2 0x29A9 JUMP JUMPDEST PUSH2 0x1332 JUMP JUMPDEST CALLVALUE DUP1 ISZERO PUSH2 0x70E JUMPI PUSH1 0x0 DUP1 REVERT JUMPDEST POP PUSH2 0x3A2 PUSH2 0x71D CALLDATASIZE PUSH1 0x4 PUSH2 0x2EE3 JUMP JUMPDEST PUSH2 0x13A7 JUMP JUMPDEST CALLVALUE DUP1 ISZERO PUSH2 0x72E JUMPI PUSH1 0x0 DUP1 REVERT JUMPDEST POP PUSH2 0x3A2 PUSH2 0x73D CALLDATASIZE PUSH1 0x4 PUSH2 0x29A9 JUMP JUMPDEST PUSH2 0x13F2 JUMP JUMPDEST CALLVALUE DUP1 ISZERO PUSH2 0x74E JUMPI PUSH1 0x0 DUP1 REVERT JUMPDEST POP PUSH2 0x33D PUSH2 0x75D CALLDATASIZE PUSH1 0x4 PUSH2 0x29A9 JUMP JUMPDEST PUSH2 0x145A JUMP JUMPDEST CALLVALUE DUP1 ISZERO PUSH2 0x76E JUMPI PUSH1 0x0 DUP1 REVERT JUMPDEST POP PUSH2 0x3A2 PUSH2 0x1559 JUMP JUMPDEST CALLVALUE DUP1 ISZERO PUSH2 0x783 JUMPI PUSH1 0x0 DUP1 REVERT JUMPDEST POP PUSH2 0x3D3 PUSH2 0x792 CALLDATASIZE PUSH1 0x4 PUSH2 0x2E00 JUMP JUMPDEST PUSH1 0x1 PUSH1 0x1 PUSH1 0xA0 SHL SUB AND PUSH1 0x0 SWAP1 DUP2 MSTORE PUSH1 0xCC PUSH1 0x20 MSTORE PUSH1 0x40 SWAP1 KECCAK256 SLOAD SWAP1 JUMP JUMPDEST CALLVALUE DUP1 ISZERO PUSH2 0x7B9 JUMPI PUSH1 0x0 DUP1 REVERT JUMPDEST POP PUSH2 0x3A2 PUSH2 0x1610 JUMP JUMPDEST CALLVALUE DUP1 ISZERO PUSH2 0x7CE JUMPI PUSH1 0x0 DUP1 REVERT JUMPDEST POP PUSH2 0x3A2 PUSH2 0x7DD CALLDATASIZE PUSH1 0x4 PUSH2 0x29DE JUMP JUMPDEST PUSH2 0x16C4 JUMP JUMPDEST CALLVALUE DUP1 ISZERO PUSH2 0x7EE JUMPI PUSH1 0x0 DUP1 REVERT JUMPDEST POP PUSH1 0xCB SLOAD PUSH2 0x3D3 JUMP JUMPDEST CALLVALUE DUP1 ISZERO PUSH2 0x803 JUMPI PUSH1 0x0 DUP1 REVERT JUMPDEST POP PUSH2 0x3A2 PUSH2 0x174D JUMP JUMPDEST CALLVALUE DUP1 ISZERO PUSH2 0x818 JUMPI PUSH1 0x0 DUP1 REVERT JUMPDEST POP PUSH2 0x313 PUSH2 0x827 CALLDATASIZE PUSH1 0x4 PUSH2 0x2F5E JUMP JUMPDEST PUSH1 0x1 PUSH1 0x1 PUSH1 0xA0 SHL SUB SWAP2 DUP3 AND PUSH1 0x0 SWAP1 DUP2 MSTORE PUSH1 0x9E PUSH1 0x20 SWAP1 DUP2 MSTORE PUSH1 0x40 DUP1 DUP4 KECCAK256 SWAP4 SWAP1 SWAP5 AND DUP3 MSTORE SWAP2 SWAP1 SWAP2 MSTORE KECCAK256 SLOAD PUSH1 0xFF AND SWAP1 JUMP JUMPDEST CALLVALUE DUP1 ISZERO PUSH2 0x861 JUMPI PUSH1 0x0 DUP1 REVERT JUMPDEST POP PUSH2 0x3A2 PUSH2 0x870 CALLDATASIZE PUSH1 0x4 PUSH2 0x2E00 JUMP JUMPDEST PUSH2 0x1804 JUMP JUMPDEST CALLVALUE DUP1 ISZERO PUSH2 0x881 JUMPI PUSH1 0x0 DUP1 REVERT JUMPDEST POP PUSH2 0x3A2 PUSH2 0x890 CALLDATASIZE PUSH1 0x4 PUSH2 0x29A9 JUMP JUMPDEST PUSH2 0x189C JUMP JUMPDEST CALLVALUE DUP1 ISZERO PUSH2 0x8A1 JUMPI PUSH1 0x0 DUP1 REVERT JUMPDEST POP PUSH2 0x102 SLOAD PUSH1 0x1 PUSH1 0x1 PUSH1 0x40 SHL SUB AND PUSH2 0x3D3 JUMP JUMPDEST PUSH1 0x0 PUSH1 0x1 PUSH1 0x1 PUSH1 0xE0 SHL SUB NOT DUP3 AND PUSH4 0x152A902D PUSH1 0xE1 SHL EQ DUP1 PUSH2 0x8E5 JUMPI POP PUSH1 0x1 PUSH1 0x1 PUSH1 0xE0 SHL SUB NOT DUP3 AND PUSH4 0x704183B PUSH1 0xE1 SHL EQ JUMPDEST DUP1 PUSH2 0x8F4 JUMPI POP PUSH2 0x8F4 DUP3 PUSH2 0x1905 JUMP JUMPDEST SWAP3 SWAP2 POP POP JUMP JUMPDEST PUSH1 0x60 PUSH1 0x99 DUP1 SLOAD PUSH2 0x909 SWAP1 PUSH2 0x2F88 JUMP JUMPDEST DUP1 PUSH1 0x1F ADD PUSH1 0x20 DUP1 SWAP2 DIV MUL PUSH1 0x20 ADD PUSH1 0x40 MLOAD SWAP1 DUP2 ADD PUSH1 0x40 MSTORE DUP1 SWAP3 SWAP2 SWAP1 DUP2 DUP2 MSTORE PUSH1 0x20 ADD DUP3 DUP1 SLOAD PUSH2 0x935 SWAP1 PUSH2 0x2F88 JUMP JUMPDEST DUP1 ISZERO PUSH2 0x982 JUMPI DUP1 PUSH1 0x1F LT PUSH2 0x957 JUMPI PUSH2 0x100 DUP1 DUP4 SLOAD DIV MUL DUP4 MSTORE SWAP2 PUSH1 0x20 ADD SWAP2 PUSH2 0x982 JUMP JUMPDEST DUP3 ADD SWAP2 SWAP1 PUSH1 0x0 MSTORE PUSH1 0x20 PUSH1 0x0 KECCAK256 SWAP1 JUMPDEST DUP2 SLOAD DUP2 MSTORE SWAP1 PUSH1 0x1 ADD SWAP1 PUSH1 0x20 ADD DUP1 DUP4 GT PUSH2 0x965 JUMPI DUP3 SWAP1 SUB PUSH1 0x1F AND DUP3 ADD SWAP2 JUMPDEST POP POP POP POP POP SWAP1 POP SWAP1 JUMP JUMPDEST PUSH1 0x0 PUSH2 0x997 DUP3 PUSH2 0x1955 JUMP JUMPDEST PUSH2 0x9B4 JUMPI PUSH1 0x40 MLOAD PUSH4 0x33D1C039 PUSH1 0xE2 SHL DUP2 MSTORE PUSH1 0x4 ADD PUSH1 0x40 MLOAD DUP1 SWAP2 SUB SWAP1 REVERT JUMPDEST POP PUSH1 0x0 SWAP1 DUP2 MSTORE PUSH1 0x9D PUSH1 0x20 MSTORE PUSH1 0x40 SWAP1 KECCAK256 SLOAD PUSH1 0x1 PUSH1 0x1 PUSH1 0xA0 SHL SUB AND SWAP1 JUMP JUMPDEST PUSH1 0x0 PUSH2 0x9DB DUP3 PUSH2 0x1017 JUMP JUMPDEST SWAP1 POP DUP1 PUSH1 0x1 PUSH1 0x1 PUSH1 0xA0 SHL SUB AND DUP4 PUSH1 0x1 PUSH1 0x1 PUSH1 0xA0 SHL SUB AND SUB PUSH2 0xA0F JUMPI PUSH1 0x40 MLOAD PUSH4 0x250FDEE3 PUSH1 0xE2 SHL DUP2 MSTORE PUSH1 0x4 ADD PUSH1 0x40 MLOAD DUP1 SWAP2 SUB SWAP1 REVERT JUMPDEST CALLER PUSH1 0x1 PUSH1 0x1 PUSH1 0xA0 SHL SUB DUP3 AND EQ DUP1 ISZERO SWAP1 PUSH2 0xA2F JUMPI POP PUSH2 0xA2D DUP2 CALLER PUSH2 0x827 JUMP JUMPDEST ISZERO JUMPDEST ISZERO PUSH2 0xA4D JUMPI PUSH1 0x40 MLOAD PUSH4 0x67D9DCA1 PUSH1 0xE1 SHL DUP2 MSTORE PUSH1 0x4 ADD PUSH1 0x40 MLOAD DUP1 SWAP2 SUB SWAP1 REVERT JUMPDEST PUSH2 0xA58 DUP4 DUP4 DUP4 PUSH2 0x198E JUMP JUMPDEST POP POP POP JUMP JUMPDEST PUSH1 0x0 SLOAD PUSH2 0x100 SWAP1 DIV PUSH1 0xFF AND PUSH2 0xA78 JUMPI PUSH1 0x0 SLOAD PUSH1 0xFF AND ISZERO PUSH2 0xA7C JUMP JUMPDEST ADDRESS EXTCODESIZE ISZERO JUMPDEST PUSH2 0xAE4 JUMPI PUSH1 0x40 MLOAD PUSH3 0x461BCD PUSH1 0xE5 SHL DUP2 MSTORE PUSH1 0x20 PUSH1 0x4 DUP3 ADD MSTORE PUSH1 0x2E PUSH1 0x24 DUP3 ADD MSTORE PUSH32 0x496E697469616C697A61626C653A20636F6E747261637420697320616C726561 PUSH1 0x44 DUP3 ADD MSTORE PUSH14 0x191E481A5B9A5D1A585B1A5E9959 PUSH1 0x92 SHL PUSH1 0x64 DUP3 ADD MSTORE PUSH1 0x84 ADD JUMPDEST PUSH1 0x40 MLOAD DUP1 SWAP2 SUB SWAP1 REVERT JUMPDEST PUSH1 0x0 SLOAD PUSH2 0x100 SWAP1 DIV PUSH1 0xFF AND ISZERO DUP1 ISZERO PUSH2 0xB06 JUMPI PUSH1 0x0 DUP1 SLOAD PUSH2 0xFFFF NOT AND PUSH2 0x101 OR SWAP1 SSTORE JUMPDEST PUSH2 0xB10 DUP13 DUP13 PUSH2 0x19EA JUMP JUMPDEST PUSH2 0xB18 PUSH2 0x1A1B JUMP JUMPDEST PUSH2 0xB23 DUP3 DUP9 DUP9 PUSH2 0x1A4A JUMP JUMPDEST DUP5 ISZERO PUSH2 0xB36 JUMPI PUSH1 0xFE DUP6 SWAP1 SSTORE PUSH2 0xB36 PUSH2 0x1559 JUMP JUMPDEST DUP10 MLOAD PUSH2 0xB49 SWAP1 PUSH1 0xFD SWAP1 PUSH1 0x20 DUP14 ADD SWAP1 PUSH2 0x27FE JUMP JUMPDEST POP PUSH2 0x100 DUP10 SWAP1 SSTORE PUSH2 0x101 DUP9 SWAP1 SSTORE PUSH1 0xFF DUP5 SWAP1 SSTORE PUSH2 0x102 DUP1 SLOAD PUSH8 0xFFFFFFFFFFFFFFFF NOT AND PUSH1 0x1 PUSH1 0x1 PUSH1 0x40 SHL SUB DUP6 AND OR SWAP1 SSTORE DUP1 ISZERO PUSH2 0xB8A JUMPI PUSH1 0x0 DUP1 SLOAD PUSH2 0xFF00 NOT AND SWAP1 SSTORE JUMPDEST POP POP POP POP POP POP POP POP POP POP POP POP JUMP JUMPDEST PUSH2 0x102 SLOAD PUSH1 0x1 PUSH1 0x48 SHL SWAP1 DIV PUSH1 0xFF AND PUSH2 0xBC3 JUMPI PUSH1 0x40 MLOAD PUSH4 0x73020E4B PUSH1 0xE0 SHL DUP2 MSTORE PUSH1 0x4 ADD PUSH1 0x40 MLOAD DUP1 SWAP2 SUB SWAP1 REVERT JUMPDEST PUSH2 0x102 SLOAD PUSH1 0x1 PUSH1 0x40 SHL SWAP1 DIV PUSH1 0xFF AND PUSH2 0xBEE JUMPI PUSH1 0x40 MLOAD PUSH4 0x41A334CD PUSH1 0xE1 SHL DUP2 MSTORE PUSH1 0x4 ADD PUSH1 0x40 MLOAD DUP1 SWAP2 SUB SWAP1 REVERT JUMPDEST DUP1 PUSH1 0x1 PUSH1 0x1 PUSH1 0x40 SHL SUB AND PUSH2 0x100 SLOAD PUSH2 0xC06 SWAP2 SWAP1 PUSH2 0x2FD8 JUMP JUMPDEST CALLVALUE EQ PUSH2 0xC25 JUMPI PUSH1 0x40 MLOAD PUSH4 0x788A686F PUSH1 0xE0 SHL DUP2 MSTORE PUSH1 0x4 ADD PUSH1 0x40 MLOAD DUP1 SWAP2 SUB SWAP1 REVERT JUMPDEST PUSH2 0x101 SLOAD DUP2 PUSH1 0x1 PUSH1 0x1 PUSH1 0x40 SHL SUB AND PUSH2 0xC44 PUSH1 0x98 SLOAD PUSH1 0x97 SLOAD SUB PUSH1 0x0 NOT ADD SWAP1 JUMP JUMPDEST PUSH2 0xC4E SWAP2 SWAP1 PUSH2 0x2FF7 JUMP JUMPDEST GT ISZERO PUSH2 0xC6D JUMPI PUSH1 0x40 MLOAD PUSH4 0x3B1E37BD PUSH1 0xE2 SHL DUP2 MSTORE PUSH1 0x4 ADD PUSH1 0x40 MLOAD DUP1 SWAP2 SUB SWAP1 REVERT JUMPDEST PUSH2 0x102 SLOAD PUSH1 0x1 PUSH1 0x1 PUSH1 0x40 SHL SUB SWAP1 DUP2 AND SWAP1 DUP3 AND GT ISZERO PUSH2 0xC9E JUMPI PUSH1 0x40 MLOAD PUSH4 0xE7B98A5 PUSH1 0xE1 SHL DUP2 MSTORE PUSH1 0x4 ADD PUSH1 0x40 MLOAD DUP1 SWAP2 SUB SWAP1 REVERT JUMPDEST PUSH2 0xD13 DUP4 DUP4 DUP1 DUP1 PUSH1 0x20 MUL PUSH1 0x20 ADD PUSH1 0x40 MLOAD SWAP1 DUP2 ADD PUSH1 0x40 MSTORE DUP1 SWAP4 SWAP3 SWAP2 SWAP1 DUP2 DUP2 MSTORE PUSH1 0x20 ADD DUP4 DUP4 PUSH1 0x20 MUL DUP1 DUP3 DUP5 CALLDATACOPY PUSH1 0x0 SWAP3 ADD SWAP2 SWAP1 SWAP2 MSTORE POP POP PUSH1 0xFE SLOAD PUSH1 0x40 MLOAD PUSH12 0xFFFFFFFFFFFFFFFFFFFFFFFF NOT CALLER PUSH1 0x60 SHL AND PUSH1 0x20 DUP3 ADD MSTORE SWAP1 SWAP3 POP PUSH1 0x34 ADD SWAP1 POP PUSH1 0x40 MLOAD PUSH1 0x20 DUP2 DUP4 SUB SUB DUP2 MSTORE SWAP1 PUSH1 0x40 MSTORE DUP1 MLOAD SWAP1 PUSH1 0x20 ADD KECCAK256 PUSH2 0x1AFD JUMP JUMPDEST PUSH2 0xD30 JUMPI PUSH1 0x40 MLOAD PUSH4 0xB094F27 PUSH1 0xE3 SHL DUP2 MSTORE PUSH1 0x4 ADD PUSH1 0x40 MLOAD DUP1 SWAP2 SUB SWAP1 REVERT JUMPDEST CALLER PUSH1 0x0 SWAP1 DUP2 MSTORE PUSH1 0x9C PUSH1 0x20 MSTORE PUSH1 0x40 DUP2 KECCAK256 SLOAD DUP3 SWAP1 PUSH1 0x1 PUSH1 0xC0 SHL SWAP1 DIV PUSH1 0x1 PUSH1 0x1 PUSH1 0x40 SHL SUB AND PUSH2 0xD5C SWAP2 SWAP1 PUSH2 0x300F JUMP JUMPDEST PUSH2 0x102 SLOAD SWAP1 SWAP2 POP PUSH1 0x1 PUSH1 0x1 PUSH1 0x40 SHL SUB SWAP1 DUP2 AND SWAP1 DUP3 AND GT ISZERO PUSH2 0xD90 JUMPI PUSH1 0x40 MLOAD PUSH4 0x4026A7CF PUSH1 0xE1 SHL DUP2 MSTORE PUSH1 0x4 ADD PUSH1 0x40 MLOAD DUP1 SWAP2 SUB SWAP1 REVERT JUMPDEST PUSH2 0xDA3 CALLER DUP4 PUSH1 0x1 PUSH1 0x1 PUSH1 0x40 SHL SUB AND PUSH2 0x1B13 JUMP JUMPDEST PUSH2 0xDDE CALLER PUSH1 0x1 PUSH1 0x1 PUSH1 0xA0 SHL SUB AND PUSH1 0x0 SWAP1 DUP2 MSTORE PUSH1 0x9C PUSH1 0x20 MSTORE PUSH1 0x40 SWAP1 KECCAK256 DUP1 SLOAD PUSH1 0x1 PUSH1 0x1 PUSH1 0xC0 SHL SUB AND PUSH1 0x1 PUSH1 0xC0 SHL PUSH1 0x1 PUSH1 0x1 PUSH1 0x40 SHL SUB DUP6 AND MUL OR SWAP1 SSTORE JUMP JUMPDEST POP POP POP POP JUMP JUMPDEST PUSH2 0xA58 DUP4 DUP4 DUP4 PUSH2 0x1B2D JUMP JUMPDEST PUSH1 0xFA SLOAD PUSH1 0xFB SLOAD PUSH1 0x1 PUSH1 0x1 PUSH1 0xA0 SHL SUB SWAP1 SWAP2 AND SWAP1 PUSH1 0x0 SWAP1 PUSH2 0x2710 SWAP1 PUSH2 0xE12 SWAP1 DUP6 PUSH2 0x2FD8 JUMP JUMPDEST PUSH2 0xE1C SWAP2 SWAP1 PUSH2 0x3050 JUMP JUMPDEST SWAP1 POP SWAP3 POP SWAP3 SWAP1 POP JUMP JUMPDEST PUSH2 0x102 SLOAD PUSH1 0x1 PUSH1 0x40 SHL SWAP1 DIV PUSH1 0xFF AND ISZERO PUSH2 0xE51 JUMPI PUSH1 0x40 MLOAD PUSH4 0x3C664D67 PUSH1 0xE0 SHL DUP2 MSTORE PUSH1 0x4 ADD PUSH1 0x40 MLOAD DUP1 SWAP2 SUB SWAP1 REVERT JUMPDEST PUSH2 0x102 SLOAD PUSH1 0x1 PUSH1 0x48 SHL SWAP1 DIV PUSH1 0xFF AND PUSH2 0xE7C JUMPI PUSH1 0x40 MLOAD PUSH4 0x73020E4B PUSH1 0xE0 SHL DUP2 MSTORE PUSH1 0x4 ADD PUSH1 0x40 MLOAD DUP1 SWAP2 SUB SWAP1 REVERT JUMPDEST DUP1 PUSH2 0x100 SLOAD PUSH2 0xE8B SWAP2 SWAP1 PUSH2 0x2FD8 JUMP JUMPDEST CALLVALUE EQ PUSH2 0xEAA JUMPI PUSH1 0x40 MLOAD PUSH4 0x788A686F PUSH1 0xE0 SHL DUP2 MSTORE PUSH1 0x4 ADD PUSH1 0x40 MLOAD DUP1 SWAP2 SUB SWAP1 REVERT JUMPDEST PUSH2 0x101 SLOAD DUP2 PUSH2 0xEC0 PUSH1 0x98 SLOAD PUSH1 0x97 SLOAD SUB PUSH1 0x0 NOT ADD SWAP1 JUMP JUMPDEST PUSH2 0xECA SWAP2 SWAP1 PUSH2 0x2FF7 JUMP JUMPDEST GT ISZERO PUSH2 0xEE9 JUMPI PUSH1 0x40 MLOAD PUSH4 0x3B1E37BD PUSH1 0xE2 SHL DUP2 MSTORE PUSH1 0x4 ADD PUSH1 0x40 MLOAD DUP1 SWAP2 SUB SWAP1 REVERT JUMPDEST PUSH1 0xFF SLOAD DUP2 GT ISZERO PUSH2 0xF0C JUMPI PUSH1 0x40 MLOAD PUSH4 0x2193C2C5 PUSH1 0xE1 SHL DUP2 MSTORE PUSH1 0x4 ADD PUSH1 0x40 MLOAD DUP1 SWAP2 SUB SWAP1 REVERT JUMPDEST PUSH2 0xF16 CALLER DUP3 PUSH2 0x1B13 JUMP JUMPDEST POP JUMP JUMPDEST PUSH2 0xA58 DUP4 DUP4 DUP4 PUSH1 0x40 MLOAD DUP1 PUSH1 0x20 ADD PUSH1 0x40 MSTORE DUP1 PUSH1 0x0 DUP2 MSTORE POP PUSH2 0x13A7 JUMP JUMPDEST PUSH1 0x33 SLOAD PUSH1 0x1 PUSH1 0x1 PUSH1 0xA0 SHL SUB AND CALLER EQ PUSH2 0xF5E JUMPI PUSH1 0x40 MLOAD PUSH3 0x461BCD PUSH1 0xE5 SHL DUP2 MSTORE PUSH1 0x4 ADD PUSH2 0xADB SWAP1 PUSH2 0x3064 JUMP JUMPDEST PUSH2 0xF6F PUSH1 0x98 SLOAD PUSH1 0x97 SLOAD SUB PUSH1 0x0 NOT ADD SWAP1 JUMP JUMPDEST DUP2 LT ISZERO PUSH2 0xF8F JUMPI PUSH1 0x40 MLOAD PUSH4 0x351B51D7 PUSH1 0xE1 SHL DUP2 MSTORE PUSH1 0x4 ADD PUSH1 0x40 MLOAD DUP1 SWAP2 SUB SWAP1 REVERT JUMPDEST PUSH2 0x101 DUP1 SLOAD SWAP1 DUP3 SWAP1 SSTORE PUSH1 0x40 DUP1 MLOAD DUP3 DUP2 MSTORE PUSH1 0x20 DUP2 ADD DUP5 SWAP1 MSTORE PUSH32 0x8D9CFB0DEA274A0A02DDAD1FC52C90100A28462C6421DAA25FB101C740CF5851 SWAP2 ADD JUMPDEST PUSH1 0x40 MLOAD DUP1 SWAP2 SUB SWAP1 LOG1 POP POP JUMP JUMPDEST PUSH1 0x33 SLOAD PUSH1 0x1 PUSH1 0x1 PUSH1 0xA0 SHL SUB AND CALLER EQ PUSH2 0x1000 JUMPI PUSH1 0x40 MLOAD PUSH3 0x461BCD PUSH1 0xE5 SHL DUP2 MSTORE PUSH1 0x4 ADD PUSH2 0xADB SWAP1 PUSH2 0x3064 JUMP JUMPDEST DUP1 MLOAD PUSH2 0x1013 SWAP1 PUSH1 0xFC SWAP1 PUSH1 0x20 DUP5 ADD SWAP1 PUSH2 0x27FE JUMP JUMPDEST POP POP JUMP JUMPDEST PUSH1 0x0 PUSH2 0x1022 DUP3 PUSH2 0x1D1A JUMP JUMPDEST MLOAD SWAP3 SWAP2 POP POP JUMP JUMPDEST PUSH1 0x0 PUSH1 0x1 PUSH1 0x1 PUSH1 0xA0 SHL SUB DUP3 AND PUSH2 0x1052 JUMPI PUSH1 0x40 MLOAD PUSH4 0x23D3AD81 PUSH1 0xE2 SHL DUP2 MSTORE PUSH1 0x4 ADD PUSH1 0x40 MLOAD DUP1 SWAP2 SUB SWAP1 REVERT JUMPDEST POP PUSH1 0x1 PUSH1 0x1 PUSH1 0xA0 SHL SUB AND PUSH1 0x0 SWAP1 DUP2 MSTORE PUSH1 0x9C PUSH1 0x20 MSTORE PUSH1 0x40 SWAP1 KECCAK256 SLOAD PUSH1 0x1 PUSH1 0x1 PUSH1 0x40 SHL SUB AND SWAP1 JUMP JUMPDEST PUSH1 0x33 SLOAD PUSH1 0x1 PUSH1 0x1 PUSH1 0xA0 SHL SUB AND CALLER EQ PUSH2 0x10A1 JUMPI PUSH1 0x40 MLOAD PUSH3 0x461BCD PUSH1 0xE5 SHL DUP2 MSTORE PUSH1 0x4 ADD PUSH2 0xADB SWAP1 PUSH2 0x3064 JUMP JUMPDEST PUSH2 0x10AB PUSH1 0x0 PUSH2 0x1E41 JUMP JUMPDEST JUMP JUMPDEST PUSH1 0x33 SLOAD PUSH1 0x1 PUSH1 0x1 PUSH1 0xA0 SHL SUB AND CALLER EQ PUSH2 0x10D7 JUMPI PUSH1 0x40 MLOAD PUSH3 0x461BCD PUSH1 0xE5 SHL DUP2 MSTORE PUSH1 0x4 ADD PUSH2 0xADB SWAP1 PUSH2 0x3064 JUMP JUMPDEST PUSH2 0x102 SLOAD PUSH1 0x1 PUSH1 0x48 SHL SWAP1 DIV PUSH1 0xFF AND PUSH2 0x1102 JUMPI PUSH1 0x40 MLOAD PUSH4 0x73020E4B PUSH1 0xE0 SHL DUP2 MSTORE PUSH1 0x4 ADD PUSH1 0x40 MLOAD DUP1 SWAP2 SUB SWAP1 REVERT JUMPDEST PUSH2 0x102 DUP1 SLOAD PUSH1 0xFF PUSH1 0x48 SHL NOT DUP2 AND SWAP2 DUP3 SWAP1 SSTORE PUSH1 0x40 DUP1 MLOAD PUSH1 0xFF PUSH1 0x1 PUSH1 0x48 SHL SWAP4 DUP5 SWAP1 DIV DUP2 AND DUP1 ISZERO ISZERO DUP4 MSTORE SWAP4 SWAP1 SWAP5 DIV SWAP1 SWAP4 AND ISZERO ISZERO PUSH1 0x20 DUP5 ADD MSTORE SWAP1 SWAP2 PUSH32 0x1AB1D89BE1FD19DCD21C73F1D6E927E3F148097E8691BBBA925BD85E34E1F0E3 SWAP2 ADD JUMPDEST PUSH1 0x40 MLOAD DUP1 SWAP2 SUB SWAP1 LOG1 POP JUMP JUMPDEST PUSH1 0x33 SLOAD PUSH1 0x1 PUSH1 0x1 PUSH1 0xA0 SHL SUB AND CALLER EQ PUSH2 0x1192 JUMPI PUSH1 0x40 MLOAD PUSH3 0x461BCD PUSH1 0xE5 SHL DUP2 MSTORE PUSH1 0x4 ADD PUSH2 0xADB SWAP1 PUSH2 0x3064 JUMP JUMPDEST PUSH2 0x10AB PUSH2 0x1E93 JUMP JUMPDEST PUSH1 0x0 PUSH1 0xCE DUP3 DUP2 SLOAD DUP2 LT PUSH2 0x11AF JUMPI PUSH2 0x11AF PUSH2 0x3099 JUMP JUMPDEST PUSH1 0x0 SWAP2 DUP3 MSTORE PUSH1 0x20 SWAP1 SWAP2 KECCAK256 ADD SLOAD PUSH1 0x1 PUSH1 0x1 PUSH1 0xA0 SHL SUB AND SWAP3 SWAP2 POP POP JUMP JUMPDEST PUSH1 0x33 SLOAD PUSH1 0x1 PUSH1 0x1 PUSH1 0xA0 SHL SUB AND CALLER EQ PUSH2 0x11F4 JUMPI PUSH1 0x40 MLOAD PUSH3 0x461BCD PUSH1 0xE5 SHL DUP2 MSTORE PUSH1 0x4 ADD PUSH2 0xADB SWAP1 PUSH2 0x3064 JUMP JUMPDEST PUSH2 0xA58 PUSH1 0xFD DUP4 DUP4 PUSH2 0x2882 JUMP JUMPDEST PUSH1 0x33 SLOAD PUSH1 0x1 PUSH1 0x1 PUSH1 0xA0 SHL SUB AND CALLER EQ PUSH2 0x122A JUMPI PUSH1 0x40 MLOAD PUSH3 0x461BCD PUSH1 0xE5 SHL DUP2 MSTORE PUSH1 0x4 ADD PUSH2 0xADB SWAP1 PUSH2 0x3064 JUMP JUMPDEST PUSH2 0x102 DUP1 SLOAD PUSH1 0x1 PUSH1 0x1 PUSH1 0x40 SHL SUB DUP4 DUP2 AND PUSH8 0xFFFFFFFFFFFFFFFF NOT DUP4 AND DUP2 OR SWAP1 SWAP4 SSTORE PUSH1 0x40 MLOAD SWAP2 AND SWAP2 PUSH32 0x3851F4A3CE1C8ADCE98754722FF6F348F4714FD4850D154C71045447D3042468 SWAP2 PUSH2 0xFCA SWAP2 DUP5 DUP3 MSTORE PUSH1 0x1 PUSH1 0x1 PUSH1 0x40 SHL SUB AND PUSH1 0x20 DUP3 ADD MSTORE PUSH1 0x40 ADD SWAP1 JUMP JUMPDEST PUSH1 0x60 PUSH1 0x9A DUP1 SLOAD PUSH2 0x909 SWAP1 PUSH2 0x2F88 JUMP JUMPDEST CALLER PUSH1 0x1 PUSH1 0x1 PUSH1 0xA0 SHL SUB DUP4 AND SUB PUSH2 0x12C6 JUMPI PUSH1 0x40 MLOAD PUSH4 0xB06307DB PUSH1 0xE0 SHL DUP2 MSTORE PUSH1 0x4 ADD PUSH1 0x40 MLOAD DUP1 SWAP2 SUB SWAP1 REVERT JUMPDEST CALLER PUSH1 0x0 DUP2 DUP2 MSTORE PUSH1 0x9E PUSH1 0x20 SWAP1 DUP2 MSTORE PUSH1 0x40 DUP1 DUP4 KECCAK256 PUSH1 0x1 PUSH1 0x1 PUSH1 0xA0 SHL SUB DUP8 AND DUP1 DUP6 MSTORE SWAP1 DUP4 MSTORE SWAP3 DUP2 SWAP1 KECCAK256 DUP1 SLOAD PUSH1 0xFF NOT AND DUP7 ISZERO ISZERO SWAP1 DUP2 OR SWAP1 SWAP2 SSTORE SWAP1 MLOAD SWAP1 DUP2 MSTORE SWAP2 SWAP3 SWAP2 PUSH32 0x17307EAB39AB6107E8899845AD3D59BD9653F200F220920489CA2B5937696C31 SWAP2 ADD PUSH1 0x40 MLOAD DUP1 SWAP2 SUB SWAP1 LOG3 POP POP JUMP JUMPDEST PUSH1 0x33 SLOAD PUSH1 0x1 PUSH1 0x1 PUSH1 0xA0 SHL SUB AND CALLER EQ PUSH2 0x135C JUMPI PUSH1 0x40 MLOAD PUSH3 0x461BCD PUSH1 0xE5 SHL DUP2 MSTORE PUSH1 0x4 ADD PUSH2 0xADB SWAP1 PUSH2 0x3064 JUMP JUMPDEST PUSH1 0xFF DUP1 SLOAD SWAP1 DUP3 SWAP1 SSTORE PUSH2 0x102 SLOAD PUSH1 0x40 DUP1 MLOAD DUP4 DUP2 MSTORE PUSH1 0x1 PUSH1 0x1 PUSH1 0x40 SHL SUB SWAP1 SWAP3 AND PUSH1 0x20 DUP4 ADD MSTORE PUSH32 0x439B8B0B530562F8413DB2651AB1E8DCAE2719DA0A2D2D3D3C068CA25C29969F SWAP2 ADD PUSH2 0xFCA JUMP JUMPDEST PUSH2 0x13B2 DUP5 DUP5 DUP5 PUSH2 0x1B2D JUMP JUMPDEST PUSH1 0x1 PUSH1 0x1 PUSH1 0xA0 SHL SUB DUP4 AND EXTCODESIZE ISZERO ISZERO DUP1 ISZERO PUSH2 0x13D4 JUMPI POP PUSH2 0x13D2 DUP5 DUP5 DUP5 DUP5 PUSH2 0x1FDC JUMP JUMPDEST ISZERO JUMPDEST ISZERO PUSH2 0xDDE JUMPI PUSH1 0x40 MLOAD PUSH4 0x68D2BF6B PUSH1 0xE1 SHL DUP2 MSTORE PUSH1 0x4 ADD PUSH1 0x40 MLOAD DUP1 SWAP2 SUB SWAP1 REVERT JUMPDEST PUSH1 0x33 SLOAD PUSH1 0x1 PUSH1 0x1 PUSH1 0xA0 SHL SUB AND CALLER EQ PUSH2 0x141C JUMPI PUSH1 0x40 MLOAD PUSH3 0x461BCD PUSH1 0xE5 SHL DUP2 MSTORE PUSH1 0x4 ADD PUSH2 0xADB SWAP1 PUSH2 0x3064 JUMP JUMPDEST PUSH1 0xFE DUP1 SLOAD SWAP1 DUP3 SWAP1 SSTORE PUSH1 0x40 DUP1 MLOAD DUP3 DUP2 MSTORE PUSH1 0x20 DUP2 ADD DUP5 SWAP1 MSTORE PUSH32 0x1E5D0194158313989F8568B586DEB425FCD9A6B46A4E6E2C43F9BECC480C6BC0 SWAP2 ADD PUSH2 0xFCA JUMP JUMPDEST PUSH1 0x60 PUSH2 0x1465 DUP3 PUSH2 0x1955 JUMP JUMPDEST PUSH2 0x1482 JUMPI PUSH1 0x40 MLOAD PUSH4 0x4A1850BF PUSH1 0xE1 SHL DUP2 MSTORE PUSH1 0x4 ADD PUSH1 0x40 MLOAD DUP1 SWAP2 SUB SWAP1 REVERT JUMPDEST PUSH1 0x0 PUSH2 0x148C PUSH2 0x20C8 JUMP JUMPDEST SWAP1 POP PUSH1 0x0 DUP2 MLOAD GT PUSH2 0x1527 JUMPI PUSH1 0xFD DUP1 SLOAD PUSH2 0x14A4 SWAP1 PUSH2 0x2F88 JUMP JUMPDEST DUP1 PUSH1 0x1F ADD PUSH1 0x20 DUP1 SWAP2 DIV MUL PUSH1 0x20 ADD PUSH1 0x40 MLOAD SWAP1 DUP2 ADD PUSH1 0x40 MSTORE DUP1 SWAP3 SWAP2 SWAP1 DUP2 DUP2 MSTORE PUSH1 0x20 ADD DUP3 DUP1 SLOAD PUSH2 0x14D0 SWAP1 PUSH2 0x2F88 JUMP JUMPDEST DUP1 ISZERO PUSH2 0x151D JUMPI DUP1 PUSH1 0x1F LT PUSH2 0x14F2 JUMPI PUSH2 0x100 DUP1 DUP4 SLOAD DIV MUL DUP4 MSTORE SWAP2 PUSH1 0x20 ADD SWAP2 PUSH2 0x151D JUMP JUMPDEST DUP3 ADD SWAP2 SWAP1 PUSH1 0x0 MSTORE PUSH1 0x20 PUSH1 0x0 KECCAK256 SWAP1 JUMPDEST DUP2 SLOAD DUP2 MSTORE SWAP1 PUSH1 0x1 ADD SWAP1 PUSH1 0x20 ADD DUP1 DUP4 GT PUSH2 0x1500 JUMPI DUP3 SWAP1 SUB PUSH1 0x1F AND DUP3 ADD SWAP2 JUMPDEST POP POP POP POP POP PUSH2 0x1552 JUMP JUMPDEST DUP1 PUSH2 0x1531 DUP5 PUSH2 0x20D7 JUMP JUMPDEST PUSH1 0x40 MLOAD PUSH1 0x20 ADD PUSH2 0x1542 SWAP3 SWAP2 SWAP1 PUSH2 0x30AF JUMP JUMPDEST PUSH1 0x40 MLOAD PUSH1 0x20 DUP2 DUP4 SUB SUB DUP2 MSTORE SWAP1 PUSH1 0x40 MSTORE JUMPDEST SWAP4 SWAP3 POP POP POP JUMP JUMPDEST PUSH1 0x33 SLOAD PUSH1 0x1 PUSH1 0x1 PUSH1 0xA0 SHL SUB AND CALLER EQ PUSH2 0x1583 JUMPI PUSH1 0x40 MLOAD PUSH3 0x461BCD PUSH1 0xE5 SHL DUP2 MSTORE PUSH1 0x4 ADD PUSH2 0xADB SWAP1 PUSH2 0x3064 JUMP JUMPDEST PUSH2 0x102 SLOAD PUSH1 0x1 PUSH1 0x40 SHL SWAP1 DIV PUSH1 0xFF AND ISZERO PUSH2 0x15AF JUMPI PUSH1 0x40 MLOAD PUSH4 0x3C664D67 PUSH1 0xE0 SHL DUP2 MSTORE PUSH1 0x4 ADD PUSH1 0x40 MLOAD DUP1 SWAP2 SUB SWAP1 REVERT JUMPDEST PUSH2 0x102 DUP1 SLOAD PUSH1 0x1 PUSH1 0x40 SHL PUSH1 0xFF PUSH1 0x40 SHL NOT DUP3 AND DUP2 OR SWAP3 DUP4 SWAP1 SSTORE PUSH1 0x40 DUP1 MLOAD SWAP3 DUP3 SWAP1 DIV PUSH1 0xFF SWAP1 DUP2 AND DUP1 ISZERO ISZERO DUP6 MSTORE SWAP3 SWAP1 SWAP5 DIV SWAP1 SWAP4 AND ISZERO ISZERO PUSH1 0x20 DUP4 ADD MSTORE SWAP2 PUSH32 0x5045EEA7E64AF4D857464A8347A5BBCE05A99FE1E1F08A3F1EBBC61AA782B21B SWAP2 ADD PUSH2 0x115D JUMP JUMPDEST PUSH1 0x33 SLOAD PUSH1 0x1 PUSH1 0x1 PUSH1 0xA0 SHL SUB AND CALLER EQ PUSH2 0x163A JUMPI PUSH1 0x40 MLOAD PUSH3 0x461BCD PUSH1 0xE5 SHL DUP2 MSTORE PUSH1 0x4 ADD PUSH2 0xADB SWAP1 PUSH2 0x3064 JUMP JUMPDEST PUSH2 0x102 SLOAD PUSH1 0x1 PUSH1 0x40 SHL SWAP1 DIV PUSH1 0xFF AND PUSH2 0x1665 JUMPI PUSH1 0x40 MLOAD PUSH4 0x41A334CD PUSH1 0xE1 SHL DUP2 MSTORE PUSH1 0x4 ADD PUSH1 0x40 MLOAD DUP1 SWAP2 SUB SWAP1 REVERT JUMPDEST PUSH2 0x102 DUP1 SLOAD PUSH1 0xFF PUSH1 0x40 SHL NOT DUP2 AND SWAP2 DUP3 SWAP1 SSTORE PUSH1 0x40 DUP1 MLOAD PUSH1 0xFF PUSH1 0x1 PUSH1 0x40 SHL SWAP4 DUP5 SWAP1 DIV DUP2 AND DUP1 ISZERO ISZERO DUP4 MSTORE SWAP4 SWAP1 SWAP5 DIV SWAP1 SWAP4 AND ISZERO ISZERO PUSH1 0x20 DUP5 ADD MSTORE SWAP1 SWAP2 PUSH32 0x5045EEA7E64AF4D857464A8347A5BBCE05A99FE1E1F08A3F1EBBC61AA782B21B SWAP2 ADD PUSH2 0x115D JUMP JUMPDEST PUSH1 0x33 SLOAD PUSH1 0x1 PUSH1 0x1 PUSH1 0xA0 SHL SUB AND CALLER EQ PUSH2 0x16EE JUMPI PUSH1 0x40 MLOAD PUSH3 0x461BCD PUSH1 0xE5 SHL DUP2 MSTORE PUSH1 0x4 ADD PUSH2 0xADB SWAP1 PUSH2 0x3064 JUMP JUMPDEST PUSH1 0xFA DUP1 SLOAD PUSH1 0x1 PUSH1 0x1 PUSH1 0xA0 SHL SUB NOT AND PUSH1 0x1 PUSH1 0x1 PUSH1 0xA0 SHL SUB DUP5 AND OR SWAP1 SSTORE PUSH1 0xFB DUP2 SWAP1 SSTORE PUSH1 0x40 DUP1 MLOAD PUSH1 0x1 PUSH1 0x1 PUSH1 0xA0 SHL SUB DUP5 AND DUP2 MSTORE PUSH1 0x20 DUP2 ADD DUP4 SWAP1 MSTORE PUSH32 0x37B261884B0718CAB93D62E6FE3BEF710B5A1DA58190A859F842D6E8B2B0B70B SWAP2 ADD PUSH2 0xFCA JUMP JUMPDEST PUSH1 0x33 SLOAD PUSH1 0x1 PUSH1 0x1 PUSH1 0xA0 SHL SUB AND CALLER EQ PUSH2 0x1777 JUMPI PUSH1 0x40 MLOAD PUSH3 0x461BCD PUSH1 0xE5 SHL DUP2 MSTORE PUSH1 0x4 ADD PUSH2 0xADB SWAP1 PUSH2 0x3064 JUMP JUMPDEST PUSH2 0x102 SLOAD PUSH1 0x1 PUSH1 0x48 SHL SWAP1 DIV PUSH1 0xFF AND ISZERO PUSH2 0x17A3 JUMPI PUSH1 0x40 MLOAD PUSH4 0x3F19D529 PUSH1 0xE2 SHL DUP2 MSTORE PUSH1 0x4 ADD PUSH1 0x40 MLOAD DUP1 SWAP2 SUB SWAP1 REVERT JUMPDEST PUSH2 0x102 DUP1 SLOAD PUSH1 0x1 PUSH1 0x48 SHL PUSH1 0xFF PUSH1 0x48 SHL NOT DUP3 AND DUP2 OR SWAP3 DUP4 SWAP1 SSTORE PUSH1 0x40 DUP1 MLOAD SWAP3 DUP3 SWAP1 DIV PUSH1 0xFF SWAP1 DUP2 AND DUP1 ISZERO ISZERO DUP6 MSTORE SWAP3 SWAP1 SWAP5 DIV SWAP1 SWAP4 AND ISZERO ISZERO PUSH1 0x20 DUP4 ADD MSTORE SWAP2 PUSH32 0x1AB1D89BE1FD19DCD21C73F1D6E927E3F148097E8691BBBA925BD85E34E1F0E3 SWAP2 ADD PUSH2 0x115D JUMP JUMPDEST PUSH1 0x33 SLOAD PUSH1 0x1 PUSH1 0x1 PUSH1 0xA0 SHL SUB AND CALLER EQ PUSH2 0x182E JUMPI PUSH1 0x40 MLOAD PUSH3 0x461BCD PUSH1 0xE5 SHL DUP2 MSTORE PUSH1 0x4 ADD PUSH2 0xADB SWAP1 PUSH2 0x3064 JUMP JUMPDEST PUSH1 0x1 PUSH1 0x1 PUSH1 0xA0 SHL SUB DUP2 AND PUSH2 0x1893 JUMPI PUSH1 0x40 MLOAD PUSH3 0x461BCD PUSH1 0xE5 SHL DUP2 MSTORE PUSH1 0x20 PUSH1 0x4 DUP3 ADD MSTORE PUSH1 0x26 PUSH1 0x24 DUP3 ADD MSTORE PUSH32 0x4F776E61626C653A206E6577206F776E657220697320746865207A65726F2061 PUSH1 0x44 DUP3 ADD MSTORE PUSH6 0x646472657373 PUSH1 0xD0 SHL PUSH1 0x64 DUP3 ADD MSTORE PUSH1 0x84 ADD PUSH2 0xADB JUMP JUMPDEST PUSH2 0xF16 DUP2 PUSH2 0x1E41 JUMP JUMPDEST PUSH1 0x33 SLOAD PUSH1 0x1 PUSH1 0x1 PUSH1 0xA0 SHL SUB AND CALLER EQ PUSH2 0x18C6 JUMPI PUSH1 0x40 MLOAD PUSH3 0x461BCD PUSH1 0xE5 SHL DUP2 MSTORE PUSH1 0x4 ADD PUSH2 0xADB SWAP1 PUSH2 0x3064 JUMP JUMPDEST PUSH2 0x100 DUP1 SLOAD SWAP1 DUP3 SWAP1 SSTORE PUSH1 0x40 DUP1 MLOAD DUP3 DUP2 MSTORE PUSH1 0x20 DUP2 ADD DUP5 SWAP1 MSTORE PUSH32 0x79F142B9BCCCC417646EEAD59C29526AC8437FCCD19A5368532B2648349ADCE1 SWAP2 ADD PUSH2 0xFCA JUMP JUMPDEST PUSH1 0x0 PUSH1 0x1 PUSH1 0x1 PUSH1 0xE0 SHL SUB NOT DUP3 AND PUSH4 0x80AC58CD PUSH1 0xE0 SHL EQ DUP1 PUSH2 0x1936 JUMPI POP PUSH1 0x1 PUSH1 0x1 PUSH1 0xE0 SHL SUB NOT DUP3 AND PUSH4 0x5B5E139F PUSH1 0xE0 SHL EQ JUMPDEST DUP1 PUSH2 0x8F4 JUMPI POP PUSH4 0x1FFC9A7 PUSH1 0xE0 SHL PUSH1 0x1 PUSH1 0x1 PUSH1 0xE0 SHL SUB NOT DUP4 AND EQ PUSH2 0x8F4 JUMP JUMPDEST PUSH1 0x0 DUP2 PUSH1 0x1 GT ISZERO DUP1 ISZERO PUSH2 0x1969 JUMPI POP PUSH1 0x97 SLOAD DUP3 LT JUMPDEST DUP1 ISZERO PUSH2 0x8F4 JUMPI POP POP PUSH1 0x0 SWAP1 DUP2 MSTORE PUSH1 0x9B PUSH1 0x20 MSTORE PUSH1 0x40 SWAP1 KECCAK256 SLOAD PUSH1 0x1 PUSH1 0xE0 SHL SWAP1 DIV PUSH1 0xFF AND ISZERO SWAP1 JUMP JUMPDEST PUSH1 0x0 DUP3 DUP2 MSTORE PUSH1 0x9D PUSH1 0x20 MSTORE PUSH1 0x40 DUP1 DUP3 KECCAK256 DUP1 SLOAD PUSH1 0x1 PUSH1 0x1 PUSH1 0xA0 SHL SUB NOT AND PUSH1 0x1 PUSH1 0x1 PUSH1 0xA0 SHL SUB DUP8 DUP2 AND SWAP2 DUP3 OR SWAP1 SWAP3 SSTORE SWAP2 MLOAD DUP6 SWAP4 SWAP2 DUP6 AND SWAP2 PUSH32 0x8C5BE1E5EBEC7D5BD14F71427D1E84F3DD0314C0F7B2291E5B200AC8C7C3B925 SWAP2 LOG4 POP POP POP JUMP JUMPDEST PUSH1 0x0 SLOAD PUSH2 0x100 SWAP1 DIV PUSH1 0xFF AND PUSH2 0x1A11 JUMPI PUSH1 0x40 MLOAD PUSH3 0x461BCD PUSH1 0xE5 SHL DUP2 MSTORE PUSH1 0x4 ADD PUSH2 0xADB SWAP1 PUSH2 0x30FD JUMP JUMPDEST PUSH2 0x1013 DUP3 DUP3 PUSH2 0x21D7 JUMP JUMPDEST PUSH1 0x0 SLOAD PUSH2 0x100 SWAP1 DIV PUSH1 0xFF AND PUSH2 0x1A42 JUMPI PUSH1 0x40 MLOAD PUSH3 0x461BCD PUSH1 0xE5 SHL DUP2 MSTORE PUSH1 0x4 ADD PUSH2 0xADB SWAP1 PUSH2 0x30FD JUMP JUMPDEST PUSH2 0x10AB PUSH2 0x222F JUMP JUMPDEST PUSH1 0x0 SLOAD PUSH2 0x100 SWAP1 DIV PUSH1 0xFF AND PUSH2 0x1A71 JUMPI PUSH1 0x40 MLOAD PUSH3 0x461BCD PUSH1 0xE5 SHL DUP2 MSTORE PUSH1 0x4 ADD PUSH2 0xADB SWAP1 PUSH2 0x30FD JUMP JUMPDEST PUSH2 0x1A7D DUP4 PUSH2 0x1F4 PUSH2 0x225F JUMP JUMPDEST DUP2 MLOAD PUSH1 0x0 SUB PUSH2 0x1A9A JUMPI PUSH2 0x1A92 CALLER PUSH2 0x251C PUSH2 0x225F JUMP JUMPDEST PUSH2 0xA58 PUSH2 0x22C4 JUMP JUMPDEST PUSH1 0x0 JUMPDEST DUP3 MLOAD DUP2 LT ISZERO PUSH2 0x1AF4 JUMPI PUSH2 0x1AE2 DUP4 DUP3 DUP2 MLOAD DUP2 LT PUSH2 0x1ABB JUMPI PUSH2 0x1ABB PUSH2 0x3099 JUMP JUMPDEST PUSH1 0x20 MUL PUSH1 0x20 ADD ADD MLOAD DUP4 DUP4 DUP2 MLOAD DUP2 LT PUSH2 0x1AD5 JUMPI PUSH2 0x1AD5 PUSH2 0x3099 JUMP JUMPDEST PUSH1 0x20 MUL PUSH1 0x20 ADD ADD MLOAD PUSH2 0x225F JUMP JUMPDEST DUP1 PUSH2 0x1AEC DUP2 PUSH2 0x3148 JUMP JUMPDEST SWAP2 POP POP PUSH2 0x1A9D JUMP JUMPDEST POP PUSH2 0xA58 PUSH2 0x22C4 JUMP JUMPDEST PUSH1 0x0 DUP3 PUSH2 0x1B0A DUP6 DUP5 PUSH2 0x2379 JUMP JUMPDEST EQ SWAP5 SWAP4 POP POP POP POP JUMP JUMPDEST PUSH2 0x1013 DUP3 DUP3 PUSH1 0x40 MLOAD DUP1 PUSH1 0x20 ADD PUSH1 0x40 MSTORE DUP1 PUSH1 0x0 DUP2 MSTORE POP PUSH2 0x23ED JUMP JUMPDEST PUSH1 0x0 PUSH2 0x1B38 DUP3 PUSH2 0x1D1A JUMP JUMPDEST SWAP1 POP DUP4 PUSH1 0x1 PUSH1 0x1 PUSH1 0xA0 SHL SUB AND DUP2 PUSH1 0x0 ADD MLOAD PUSH1 0x1 PUSH1 0x1 PUSH1 0xA0 SHL SUB AND EQ PUSH2 0x1B6F JUMPI PUSH1 0x40 MLOAD PUSH3 0xA11481 PUSH1 0xE8 SHL DUP2 MSTORE PUSH1 0x4 ADD PUSH1 0x40 MLOAD DUP1 SWAP2 SUB SWAP1 REVERT JUMPDEST PUSH1 0x0 CALLER PUSH1 0x1 PUSH1 0x1 PUSH1 0xA0 SHL SUB DUP7 AND EQ DUP1 PUSH2 0x1B8D JUMPI POP PUSH2 0x1B8D DUP6 CALLER PUSH2 0x827 JUMP JUMPDEST DUP1 PUSH2 0x1BA8 JUMPI POP CALLER PUSH2 0x1B9D DUP5 PUSH2 0x98C JUMP JUMPDEST PUSH1 0x1 PUSH1 0x1 PUSH1 0xA0 SHL SUB AND EQ JUMPDEST SWAP1 POP DUP1 PUSH2 0x1BC8 JUMPI PUSH1 0x40 MLOAD PUSH4 0x2CE44B5F PUSH1 0xE1 SHL DUP2 MSTORE PUSH1 0x4 ADD PUSH1 0x40 MLOAD DUP1 SWAP2 SUB SWAP1 REVERT JUMPDEST PUSH1 0x1 PUSH1 0x1 PUSH1 0xA0 SHL SUB DUP5 AND PUSH2 0x1BEF JUMPI PUSH1 0x40 MLOAD PUSH4 0x3A954ECD PUSH1 0xE2 SHL DUP2 MSTORE PUSH1 0x4 ADD PUSH1 0x40 MLOAD DUP1 SWAP2 SUB SWAP1 REVERT JUMPDEST PUSH2 0x1BFB PUSH1 0x0 DUP5 DUP8 PUSH2 0x198E JUMP JUMPDEST PUSH1 0x1 PUSH1 0x1 PUSH1 0xA0 SHL SUB DUP6 DUP2 AND PUSH1 0x0 SWAP1 DUP2 MSTORE PUSH1 0x9C PUSH1 0x20 SWAP1 DUP2 MSTORE PUSH1 0x40 DUP1 DUP4 KECCAK256 DUP1 SLOAD PUSH8 0xFFFFFFFFFFFFFFFF NOT DUP1 DUP3 AND PUSH1 0x1 PUSH1 0x1 PUSH1 0x40 SHL SUB SWAP3 DUP4 AND PUSH1 0x0 NOT ADD DUP4 AND OR SWAP1 SWAP3 SSTORE DUP10 DUP7 AND DUP1 DUP7 MSTORE DUP4 DUP7 KECCAK256 DUP1 SLOAD SWAP4 DUP5 AND SWAP4 DUP4 AND PUSH1 0x1 SWAP1 DUP2 ADD DUP5 AND SWAP5 SWAP1 SWAP5 OR SWAP1 SSTORE DUP10 DUP7 MSTORE PUSH1 0x9B SWAP1 SWAP5 MSTORE DUP3 DUP6 KECCAK256 DUP1 SLOAD PUSH1 0x1 PUSH1 0x1 PUSH1 0xE0 SHL SUB NOT AND SWAP1 SWAP5 OR PUSH1 0x1 PUSH1 0xA0 SHL TIMESTAMP SWAP1 SWAP3 AND SWAP2 SWAP1 SWAP2 MUL OR DUP4 SSTORE DUP8 ADD DUP1 DUP5 MSTORE SWAP3 KECCAK256 DUP1 SLOAD SWAP2 SWAP4 SWAP1 SWAP2 AND PUSH2 0x1CCF JUMPI PUSH1 0x97 SLOAD DUP3 EQ PUSH2 0x1CCF JUMPI DUP1 SLOAD PUSH1 0x20 DUP7 ADD MLOAD PUSH1 0x1 PUSH1 0x1 PUSH1 0x40 SHL SUB AND PUSH1 0x1 PUSH1 0xA0 SHL MUL PUSH1 0x1 PUSH1 0x1 PUSH1 0xE0 SHL SUB NOT SWAP1 SWAP2 AND PUSH1 0x1 PUSH1 0x1 PUSH1 0xA0 SHL SUB DUP11 AND OR OR DUP2 SSTORE JUMPDEST POP POP POP DUP3 DUP5 PUSH1 0x1 PUSH1 0x1 PUSH1 0xA0 SHL SUB AND DUP7 PUSH1 0x1 PUSH1 0x1 PUSH1 0xA0 SHL SUB AND PUSH32 0xDDF252AD1BE2C89B69C2B068FC378DAA952BA7F163C4A11628F55A4DF523B3EF PUSH1 0x40 MLOAD PUSH1 0x40 MLOAD DUP1 SWAP2 SUB SWAP1 LOG4 POP POP POP POP POP JUMP JUMPDEST PUSH1 0x40 DUP1 MLOAD PUSH1 0x60 DUP2 ADD DUP3 MSTORE PUSH1 0x0 DUP1 DUP3 MSTORE PUSH1 0x20 DUP3 ADD DUP2 SWAP1 MSTORE SWAP2 DUP2 ADD SWAP2 SWAP1 SWAP2 MSTORE DUP2 DUP1 PUSH1 0x1 GT ISZERO DUP1 ISZERO PUSH2 0x1D4A JUMPI POP PUSH1 0x97 SLOAD DUP2 LT JUMPDEST ISZERO PUSH2 0x1E28 JUMPI PUSH1 0x0 DUP2 DUP2 MSTORE PUSH1 0x9B PUSH1 0x20 SWAP1 DUP2 MSTORE PUSH1 0x40 SWAP2 DUP3 SWAP1 KECCAK256 DUP3 MLOAD PUSH1 0x60 DUP2 ADD DUP5 MSTORE SWAP1 SLOAD PUSH1 0x1 PUSH1 0x1 PUSH1 0xA0 SHL SUB DUP2 AND DUP3 MSTORE PUSH1 0x1 PUSH1 0xA0 SHL DUP2 DIV PUSH1 0x1 PUSH1 0x1 PUSH1 0x40 SHL SUB AND SWAP3 DUP3 ADD SWAP3 SWAP1 SWAP3 MSTORE PUSH1 0x1 PUSH1 0xE0 SHL SWAP1 SWAP2 DIV PUSH1 0xFF AND ISZERO ISZERO SWAP2 DUP2 ADD DUP3 SWAP1 MSTORE SWAP1 PUSH2 0x1E26 JUMPI DUP1 MLOAD PUSH1 0x1 PUSH1 0x1 PUSH1 0xA0 SHL SUB AND ISZERO PUSH2 0x1DBD JUMPI SWAP4 SWAP3 POP POP POP JUMP JUMPDEST POP PUSH1 0x0 NOT ADD PUSH1 0x0 DUP2 DUP2 MSTORE PUSH1 0x9B PUSH1 0x20 SWAP1 DUP2 MSTORE PUSH1 0x40 SWAP2 DUP3 SWAP1 KECCAK256 DUP3 MLOAD PUSH1 0x60 DUP2 ADD DUP5 MSTORE SWAP1 SLOAD PUSH1 0x1 PUSH1 0x1 PUSH1 0xA0 SHL SUB DUP2 AND DUP1 DUP4 MSTORE PUSH1 0x1 PUSH1 0xA0 SHL DUP3 DIV PUSH1 0x1 PUSH1 0x1 PUSH1 0x40 SHL SUB AND SWAP4 DUP4 ADD SWAP4 SWAP1 SWAP4 MSTORE PUSH1 0x1 PUSH1 0xE0 SHL SWAP1 DIV PUSH1 0xFF AND ISZERO ISZERO SWAP3 DUP2 ADD SWAP3 SWAP1 SWAP3 MSTORE ISZERO PUSH2 0x1E21 JUMPI SWAP4 SWAP3 POP POP POP JUMP JUMPDEST PUSH2 0x1DBD JUMP JUMPDEST POP JUMPDEST PUSH1 0x40 MLOAD PUSH4 0x6F96CDA1 PUSH1 0xE1 SHL DUP2 MSTORE PUSH1 0x4 ADD PUSH1 0x40 MLOAD DUP1 SWAP2 SUB SWAP1 REVERT JUMPDEST PUSH1 0x33 DUP1 SLOAD PUSH1 0x1 PUSH1 0x1 PUSH1 0xA0 SHL SUB DUP4 DUP2 AND PUSH1 0x1 PUSH1 0x1 PUSH1 0xA0 SHL SUB NOT DUP4 AND DUP2 OR SWAP1 SWAP4 SSTORE PUSH1 0x40 MLOAD SWAP2 AND SWAP2 SWAP1 DUP3 SWAP1 PUSH32 0x8BE0079C531659141344CD1FD0A4F28419497F9722A3DAAFE3B4186F6B6457E0 SWAP1 PUSH1 0x0 SWAP1 LOG3 POP POP JUMP JUMPDEST SELFBALANCE PUSH1 0x0 SUB PUSH2 0x1EB4 JUMPI PUSH1 0x40 MLOAD PUSH4 0x334AB3F5 PUSH1 0xE1 SHL DUP2 MSTORE PUSH1 0x4 ADD PUSH1 0x40 MLOAD DUP1 SWAP2 SUB SWAP1 REVERT JUMPDEST PUSH1 0x0 JUMPDEST PUSH1 0xC9 SLOAD DUP2 LT ISZERO PUSH2 0xF16 JUMPI PUSH1 0x0 PUSH2 0x1ECC DUP3 PUSH2 0x119A JUMP JUMPDEST SWAP1 POP PUSH1 0x0 PUSH1 0xCB SLOAD SELFBALANCE PUSH2 0x1EDE SWAP2 SWAP1 PUSH2 0x2FF7 JUMP JUMPDEST PUSH1 0x1 PUSH1 0x1 PUSH1 0xA0 SHL SUB DUP4 AND PUSH1 0x0 SWAP1 DUP2 MSTORE PUSH1 0xCD PUSH1 0x20 SWAP1 DUP2 MSTORE PUSH1 0x40 DUP1 DUP4 KECCAK256 SLOAD PUSH1 0xCA SLOAD PUSH1 0xCC SWAP1 SWAP4 MSTORE SWAP1 DUP4 KECCAK256 SLOAD SWAP4 SWAP5 POP SWAP2 SWAP3 PUSH2 0x1F15 SWAP1 DUP6 PUSH2 0x2FD8 JUMP JUMPDEST PUSH2 0x1F1F SWAP2 SWAP1 PUSH2 0x3050 JUMP JUMPDEST PUSH2 0x1F29 SWAP2 SWAP1 PUSH2 0x3161 JUMP JUMPDEST PUSH1 0x1 PUSH1 0x1 PUSH1 0xA0 SHL SUB DUP5 AND PUSH1 0x0 SWAP1 DUP2 MSTORE PUSH1 0xCD PUSH1 0x20 MSTORE PUSH1 0x40 SWAP1 KECCAK256 SLOAD SWAP1 SWAP2 POP PUSH2 0x1F50 SWAP1 DUP3 SWAP1 PUSH2 0x2FF7 JUMP JUMPDEST PUSH1 0x1 PUSH1 0x1 PUSH1 0xA0 SHL SUB DUP5 AND PUSH1 0x0 SWAP1 DUP2 MSTORE PUSH1 0xCD PUSH1 0x20 MSTORE PUSH1 0x40 SWAP1 KECCAK256 SSTORE PUSH1 0xCB SLOAD PUSH2 0x1F77 SWAP1 DUP3 SWAP1 PUSH2 0x2FF7 JUMP JUMPDEST PUSH1 0xCB SSTORE PUSH2 0x1F84 DUP4 DUP3 PUSH2 0x25AE JUMP JUMPDEST PUSH1 0x40 DUP1 MLOAD PUSH1 0x1 PUSH1 0x1 PUSH1 0xA0 SHL SUB DUP6 AND DUP2 MSTORE PUSH1 0x20 DUP2 ADD DUP4 SWAP1 MSTORE PUSH32 0xDF20FD1E76BC69D672E4814FAFB2C449BBA3A5369D8359ADF9E05E6FDE87B056 SWAP2 ADD PUSH1 0x40 MLOAD DUP1 SWAP2 SUB SWAP1 LOG1 POP POP POP DUP1 DUP1 PUSH2 0x1FD4 SWAP1 PUSH2 0x3148 JUMP JUMPDEST SWAP2 POP POP PUSH2 0x1EB7 JUMP JUMPDEST PUSH1 0x40 MLOAD PUSH4 0xA85BD01 PUSH1 0xE1 SHL DUP2 MSTORE PUSH1 0x0 SWAP1 PUSH1 0x1 PUSH1 0x1 PUSH1 0xA0 SHL SUB DUP6 AND SWAP1 PUSH4 0x150B7A02 SWAP1 PUSH2 0x2011 SWAP1 CALLER SWAP1 DUP10 SWAP1 DUP9 SWAP1 DUP9 SWAP1 PUSH1 0x4 ADD PUSH2 0x3178 JUMP JUMPDEST PUSH1 0x20 PUSH1 0x40 MLOAD DUP1 DUP4 SUB DUP2 PUSH1 0x0 DUP8 GAS CALL SWAP3 POP POP POP DUP1 ISZERO PUSH2 0x204C JUMPI POP PUSH1 0x40 DUP1 MLOAD PUSH1 0x1F RETURNDATASIZE SWAP1 DUP2 ADD PUSH1 0x1F NOT AND DUP3 ADD SWAP1 SWAP3 MSTORE PUSH2 0x2049 SWAP2 DUP2 ADD SWAP1 PUSH2 0x31B5 JUMP JUMPDEST PUSH1 0x1 JUMPDEST PUSH2 0x20AA JUMPI RETURNDATASIZE DUP1 DUP1 ISZERO PUSH2 0x207A JUMPI PUSH1 0x40 MLOAD SWAP2 POP PUSH1 0x1F NOT PUSH1 0x3F RETURNDATASIZE ADD AND DUP3 ADD PUSH1 0x40 MSTORE RETURNDATASIZE DUP3 MSTORE RETURNDATASIZE PUSH1 0x0 PUSH1 0x20 DUP5 ADD RETURNDATACOPY PUSH2 0x207F JUMP JUMPDEST PUSH1 0x60 SWAP2 POP JUMPDEST POP DUP1 MLOAD PUSH1 0x0 SUB PUSH2 0x20A2 JUMPI PUSH1 0x40 MLOAD PUSH4 0x68D2BF6B PUSH1 0xE1 SHL DUP2 MSTORE PUSH1 0x4 ADD PUSH1 0x40 MLOAD DUP1 SWAP2 SUB SWAP1 REVERT JUMPDEST DUP1 MLOAD DUP2 PUSH1 0x20 ADD REVERT JUMPDEST PUSH1 0x1 PUSH1 0x1 PUSH1 0xE0 SHL SUB NOT AND PUSH4 0xA85BD01 PUSH1 0xE1 SHL EQ SWAP1 POP JUMPDEST SWAP5 SWAP4 POP POP POP POP JUMP JUMPDEST PUSH1 0x60 PUSH1 0xFC DUP1 SLOAD PUSH2 0x909 SWAP1 PUSH2 0x2F88 JUMP JUMPDEST PUSH1 0x60 DUP2 PUSH1 0x0 SUB PUSH2 0x20FE JUMPI POP POP PUSH1 0x40 DUP1 MLOAD DUP1 DUP3 ADD SWAP1 SWAP2 MSTORE PUSH1 0x1 DUP2 MSTORE PUSH1 0x3 PUSH1 0xFC SHL PUSH1 0x20 DUP3 ADD MSTORE SWAP1 JUMP JUMPDEST DUP2 PUSH1 0x0 JUMPDEST DUP2 ISZERO PUSH2 0x2128 JUMPI DUP1 PUSH2 0x2112 DUP2 PUSH2 0x3148 JUMP JUMPDEST SWAP2 POP PUSH2 0x2121 SWAP1 POP PUSH1 0xA DUP4 PUSH2 0x3050 JUMP JUMPDEST SWAP2 POP PUSH2 0x2102 JUMP JUMPDEST PUSH1 0x0 DUP2 PUSH1 0x1 PUSH1 0x1 PUSH1 0x40 SHL SUB DUP2 GT ISZERO PUSH2 0x2142 JUMPI PUSH2 0x2142 PUSH2 0x2A08 JUMP JUMPDEST PUSH1 0x40 MLOAD SWAP1 DUP1 DUP3 MSTORE DUP1 PUSH1 0x1F ADD PUSH1 0x1F NOT AND PUSH1 0x20 ADD DUP3 ADD PUSH1 0x40 MSTORE DUP1 ISZERO PUSH2 0x216C JUMPI PUSH1 0x20 DUP3 ADD DUP2 DUP1 CALLDATASIZE DUP4 CALLDATACOPY ADD SWAP1 POP JUMPDEST POP SWAP1 POP JUMPDEST DUP5 ISZERO PUSH2 0x20C0 JUMPI PUSH2 0x2181 PUSH1 0x1 DUP4 PUSH2 0x3161 JUMP JUMPDEST SWAP2 POP PUSH2 0x218E PUSH1 0xA DUP7 PUSH2 0x31D2 JUMP JUMPDEST PUSH2 0x2199 SWAP1 PUSH1 0x30 PUSH2 0x2FF7 JUMP JUMPDEST PUSH1 0xF8 SHL DUP2 DUP4 DUP2 MLOAD DUP2 LT PUSH2 0x21AE JUMPI PUSH2 0x21AE PUSH2 0x3099 JUMP JUMPDEST PUSH1 0x20 ADD ADD SWAP1 PUSH1 0x1 PUSH1 0x1 PUSH1 0xF8 SHL SUB NOT AND SWAP1 DUP2 PUSH1 0x0 BYTE SWAP1 MSTORE8 POP PUSH2 0x21D0 PUSH1 0xA DUP7 PUSH2 0x3050 JUMP JUMPDEST SWAP5 POP PUSH2 0x2170 JUMP JUMPDEST PUSH1 0x0 SLOAD PUSH2 0x100 SWAP1 DIV PUSH1 0xFF AND PUSH2 0x21FE JUMPI PUSH1 0x40 MLOAD PUSH3 0x461BCD PUSH1 0xE5 SHL DUP2 MSTORE PUSH1 0x4 ADD PUSH2 0xADB SWAP1 PUSH2 0x30FD JUMP JUMPDEST DUP2 MLOAD PUSH2 0x2211 SWAP1 PUSH1 0x99 SWAP1 PUSH1 0x20 DUP6 ADD SWAP1 PUSH2 0x27FE JUMP JUMPDEST POP DUP1 MLOAD PUSH2 0x2225 SWAP1 PUSH1 0x9A SWAP1 PUSH1 0x20 DUP5 ADD SWAP1 PUSH2 0x27FE JUMP JUMPDEST POP PUSH1 0x1 PUSH1 0x97 SSTORE POP POP JUMP JUMPDEST PUSH1 0x0 SLOAD PUSH2 0x100 SWAP1 DIV PUSH1 0xFF AND PUSH2 0x2256 JUMPI PUSH1 0x40 MLOAD PUSH3 0x461BCD PUSH1 0xE5 SHL DUP2 MSTORE PUSH1 0x4 ADD PUSH2 0xADB SWAP1 PUSH2 0x30FD JUMP JUMPDEST PUSH2 0x10AB CALLER PUSH2 0x1E41 JUMP JUMPDEST PUSH2 0x102 SLOAD PUSH1 0x1 PUSH1 0x50 SHL SWAP1 DIV PUSH1 0xFF AND ISZERO PUSH2 0x22BA JUMPI PUSH1 0x40 MLOAD PUSH3 0x461BCD PUSH1 0xE5 SHL DUP2 MSTORE PUSH1 0x20 PUSH1 0x4 DUP3 ADD MSTORE PUSH1 0x1A PUSH1 0x24 DUP3 ADD MSTORE PUSH32 0x43616E206E6F74207365742C20706179656573206C6F636B6564000000000000 PUSH1 0x44 DUP3 ADD MSTORE PUSH1 0x64 ADD PUSH2 0xADB JUMP JUMPDEST PUSH2 0x1013 DUP3 DUP3 PUSH2 0x26C7 JUMP JUMPDEST PUSH2 0x102 SLOAD PUSH1 0x1 PUSH1 0x50 SHL SWAP1 DIV PUSH1 0xFF AND ISZERO PUSH2 0x231F JUMPI PUSH1 0x40 MLOAD PUSH3 0x461BCD PUSH1 0xE5 SHL DUP2 MSTORE PUSH1 0x20 PUSH1 0x4 DUP3 ADD MSTORE PUSH1 0x1A PUSH1 0x24 DUP3 ADD MSTORE PUSH32 0x43616E206E6F74207365742C20706179656573206C6F636B6564000000000000 PUSH1 0x44 DUP3 ADD MSTORE PUSH1 0x64 ADD PUSH2 0xADB JUMP JUMPDEST PUSH2 0x102 DUP1 SLOAD PUSH1 0xFF PUSH1 0x50 SHL NOT AND PUSH1 0x1 PUSH1 0x50 SHL SWAP1 DUP2 OR SWAP2 DUP3 SWAP1 SSTORE PUSH1 0x40 MLOAD PUSH32 0x7FE2F03BD4FA149B9D8918FB57A6E2A3B1FBBB29A4D4536DF7E6CD9EDF02ED8 SWAP3 PUSH2 0x236F SWAP3 SWAP1 DIV PUSH1 0xFF AND ISZERO ISZERO DUP2 MSTORE PUSH1 0x20 ADD SWAP1 JUMP JUMPDEST PUSH1 0x40 MLOAD DUP1 SWAP2 SUB SWAP1 LOG1 JUMP JUMPDEST PUSH1 0x0 DUP2 DUP2 JUMPDEST DUP5 MLOAD DUP2 LT ISZERO PUSH2 0x23E5 JUMPI PUSH1 0x0 DUP6 DUP3 DUP2 MLOAD DUP2 LT PUSH2 0x239B JUMPI PUSH2 0x239B PUSH2 0x3099 JUMP JUMPDEST PUSH1 0x20 MUL PUSH1 0x20 ADD ADD MLOAD SWAP1 POP DUP1 DUP4 GT PUSH2 0x23C1 JUMPI PUSH1 0x0 DUP4 DUP2 MSTORE PUSH1 0x20 DUP3 SWAP1 MSTORE PUSH1 0x40 SWAP1 KECCAK256 SWAP3 POP PUSH2 0x23D2 JUMP JUMPDEST PUSH1 0x0 DUP2 DUP2 MSTORE PUSH1 0x20 DUP5 SWAP1 MSTORE PUSH1 0x40 SWAP1 KECCAK256 SWAP3 POP JUMPDEST POP DUP1 PUSH2 0x23DD DUP2 PUSH2 0x3148 JUMP JUMPDEST SWAP2 POP POP PUSH2 0x237E JUMP JUMPDEST POP SWAP4 SWAP3 POP POP POP JUMP JUMPDEST PUSH1 0x97 SLOAD PUSH1 0x1 PUSH1 0x1 PUSH1 0xA0 SHL SUB DUP5 AND PUSH2 0x2416 JUMPI PUSH1 0x40 MLOAD PUSH3 0x2E0763 PUSH1 0xE8 SHL DUP2 MSTORE PUSH1 0x4 ADD PUSH1 0x40 MLOAD DUP1 SWAP2 SUB SWAP1 REVERT JUMPDEST DUP3 PUSH1 0x0 SUB PUSH2 0x2437 JUMPI PUSH1 0x40 MLOAD PUSH4 0xB562E8DD PUSH1 0xE0 SHL DUP2 MSTORE PUSH1 0x4 ADD PUSH1 0x40 MLOAD DUP1 SWAP2 SUB SWAP1 REVERT JUMPDEST PUSH1 0x1 PUSH1 0x1 PUSH1 0xA0 SHL SUB DUP5 AND PUSH1 0x0 DUP2 DUP2 MSTORE PUSH1 0x9C PUSH1 0x20 SWAP1 DUP2 MSTORE PUSH1 0x40 DUP1 DUP4 KECCAK256 DUP1 SLOAD PUSH16 0xFFFFFFFFFFFFFFFFFFFFFFFFFFFFFFFF NOT DUP2 AND PUSH1 0x1 PUSH1 0x1 PUSH1 0x40 SHL SUB DUP1 DUP4 AND DUP12 ADD DUP2 AND SWAP2 DUP3 OR PUSH1 0x1 PUSH1 0x40 SHL PUSH8 0xFFFFFFFFFFFFFFFF NOT SWAP1 SWAP5 AND SWAP1 SWAP3 OR DUP4 SWAP1 DIV DUP2 AND DUP12 ADD DUP2 AND SWAP1 SWAP3 MUL OR SWAP1 SWAP2 SSTORE DUP6 DUP5 MSTORE PUSH1 0x9B SWAP1 SWAP3 MSTORE SWAP1 SWAP2 KECCAK256 DUP1 SLOAD PUSH1 0x1 PUSH1 0x1 PUSH1 0xE0 SHL SUB NOT AND DUP4 OR PUSH1 0x1 PUSH1 0xA0 SHL TIMESTAMP SWAP1 SWAP4 AND SWAP3 SWAP1 SWAP3 MUL SWAP2 SWAP1 SWAP2 OR SWAP1 SSTORE DUP2 SWAP1 DUP2 DUP6 ADD SWAP1 EXTCODESIZE ISZERO PUSH2 0x255A JUMPI JUMPDEST PUSH1 0x40 MLOAD DUP3 SWAP1 PUSH1 0x1 PUSH1 0x1 PUSH1 0xA0 SHL SUB DUP9 AND SWAP1 PUSH1 0x0 SWAP1 PUSH32 0xDDF252AD1BE2C89B69C2B068FC378DAA952BA7F163C4A11628F55A4DF523B3EF SWAP1 DUP3 SWAP1 LOG4 PUSH2 0x2523 PUSH1 0x0 DUP8 DUP5 DUP1 PUSH1 0x1 ADD SWAP6 POP DUP8 PUSH2 0x1FDC JUMP JUMPDEST PUSH2 0x2540 JUMPI PUSH1 0x40 MLOAD PUSH4 0x68D2BF6B PUSH1 0xE1 SHL DUP2 MSTORE PUSH1 0x4 ADD PUSH1 0x40 MLOAD DUP1 SWAP2 SUB SWAP1 REVERT JUMPDEST DUP1 DUP3 SUB PUSH2 0x24D8 JUMPI DUP3 PUSH1 0x97 SLOAD EQ PUSH2 0x2555 JUMPI PUSH1 0x0 DUP1 REVERT JUMPDEST PUSH2 0x259F JUMP JUMPDEST JUMPDEST PUSH1 0x40 MLOAD PUSH1 0x1 DUP4 ADD SWAP3 SWAP1 PUSH1 0x1 PUSH1 0x1 PUSH1 0xA0 SHL SUB DUP9 AND SWAP1 PUSH1 0x0 SWAP1 PUSH32 0xDDF252AD1BE2C89B69C2B068FC378DAA952BA7F163C4A11628F55A4DF523B3EF SWAP1 DUP3 SWAP1 LOG4 DUP1 DUP3 SUB PUSH2 0x255B JUMPI JUMPDEST POP PUSH1 0x97 SSTORE PUSH2 0xDDE PUSH1 0x0 DUP6 DUP4 DUP7 DUP5 JUMP JUMPDEST DUP1 SELFBALANCE LT ISZERO PUSH2 0x25FE JUMPI PUSH1 0x40 MLOAD PUSH3 0x461BCD PUSH1 0xE5 SHL DUP2 MSTORE PUSH1 0x20 PUSH1 0x4 DUP3 ADD MSTORE PUSH1 0x1D PUSH1 0x24 DUP3 ADD MSTORE PUSH32 0x416464726573733A20696E73756666696369656E742062616C616E6365000000 PUSH1 0x44 DUP3 ADD MSTORE PUSH1 0x64 ADD PUSH2 0xADB JUMP JUMPDEST PUSH1 0x0 DUP3 PUSH1 0x1 PUSH1 0x1 PUSH1 0xA0 SHL SUB AND DUP3 PUSH1 0x40 MLOAD PUSH1 0x0 PUSH1 0x40 MLOAD DUP1 DUP4 SUB DUP2 DUP6 DUP8 GAS CALL SWAP3 POP POP POP RETURNDATASIZE DUP1 PUSH1 0x0 DUP2 EQ PUSH2 0x264B JUMPI PUSH1 0x40 MLOAD SWAP2 POP PUSH1 0x1F NOT PUSH1 0x3F RETURNDATASIZE ADD AND DUP3 ADD PUSH1 0x40 MSTORE RETURNDATASIZE DUP3 MSTORE RETURNDATASIZE PUSH1 0x0 PUSH1 0x20 DUP5 ADD RETURNDATACOPY PUSH2 0x2650 JUMP JUMPDEST PUSH1 0x60 SWAP2 POP JUMPDEST POP POP SWAP1 POP DUP1 PUSH2 0xA58 JUMPI PUSH1 0x40 MLOAD PUSH3 0x461BCD PUSH1 0xE5 SHL DUP2 MSTORE PUSH1 0x20 PUSH1 0x4 DUP3 ADD MSTORE PUSH1 0x3A PUSH1 0x24 DUP3 ADD MSTORE PUSH32 0x416464726573733A20756E61626C6520746F2073656E642076616C75652C2072 PUSH1 0x44 DUP3 ADD MSTORE PUSH32 0x6563697069656E74206D61792068617665207265766572746564000000000000 PUSH1 0x64 DUP3 ADD MSTORE PUSH1 0x84 ADD PUSH2 0xADB JUMP JUMPDEST PUSH1 0x1 PUSH1 0x1 PUSH1 0xA0 SHL SUB DUP3 AND PUSH2 0x26EE JUMPI PUSH1 0x40 MLOAD PUSH4 0xAB387169 PUSH1 0xE0 SHL DUP2 MSTORE PUSH1 0x4 ADD PUSH1 0x40 MLOAD DUP1 SWAP2 SUB SWAP1 REVERT JUMPDEST PUSH1 0x0 DUP2 GT PUSH2 0x270F JUMPI PUSH1 0x40 MLOAD PUSH4 0x6EDCC523 PUSH1 0xE0 SHL DUP2 MSTORE PUSH1 0x4 ADD PUSH1 0x40 MLOAD DUP1 SWAP2 SUB SWAP1 REVERT JUMPDEST PUSH1 0x1 PUSH1 0x1 PUSH1 0xA0 SHL SUB DUP3 AND PUSH1 0x0 SWAP1 DUP2 MSTORE PUSH1 0xCC PUSH1 0x20 MSTORE PUSH1 0x40 SWAP1 KECCAK256 SLOAD ISZERO PUSH2 0x2746 JUMPI PUSH1 0x40 MLOAD PUSH4 0xB3F5CFA5 PUSH1 0xE0 SHL DUP2 MSTORE PUSH1 0x4 ADD PUSH1 0x40 MLOAD DUP1 SWAP2 SUB SWAP1 REVERT JUMPDEST PUSH2 0x2754 PUSH1 0xC9 DUP1 SLOAD PUSH1 0x1 ADD SWAP1 SSTORE JUMP JUMPDEST PUSH1 0xCE DUP1 SLOAD PUSH1 0x1 DUP2 ADD SWAP1 SWAP2 SSTORE PUSH32 0xD36CD1C74EF8D7326D8021B776C18FB5A5724B7F7BC93C2F42E43E10EF27D12A ADD DUP1 SLOAD PUSH1 0x1 PUSH1 0x1 PUSH1 0xA0 SHL SUB NOT AND PUSH1 0x1 PUSH1 0x1 PUSH1 0xA0 SHL SUB DUP5 AND SWAP1 DUP2 OR SWAP1 SWAP2 SSTORE PUSH1 0x0 SWAP1 DUP2 MSTORE PUSH1 0xCC PUSH1 0x20 MSTORE PUSH1 0x40 SWAP1 KECCAK256 DUP2 SWAP1 SSTORE PUSH1 0xCA SLOAD PUSH2 0x27BC SWAP1 DUP3 SWAP1 PUSH2 0x2FF7 JUMP JUMPDEST PUSH1 0xCA SSTORE PUSH1 0x40 DUP1 MLOAD PUSH1 0x1 PUSH1 0x1 PUSH1 0xA0 SHL SUB DUP5 AND DUP2 MSTORE PUSH1 0x20 DUP2 ADD DUP4 SWAP1 MSTORE PUSH32 0x40C340F65E17194D14DDDDB073D3C9F888E3CB52B5AAE0C6C7706B4FBC905FAC SWAP2 ADD PUSH2 0xFCA JUMP JUMPDEST DUP3 DUP1 SLOAD PUSH2 0x280A SWAP1 PUSH2 0x2F88 JUMP JUMPDEST SWAP1 PUSH1 0x0 MSTORE PUSH1 0x20 PUSH1 0x0 KECCAK256 SWAP1 PUSH1 0x1F ADD PUSH1 0x20 SWAP1 DIV DUP2 ADD SWAP3 DUP3 PUSH2 0x282C JUMPI PUSH1 0x0 DUP6 SSTORE PUSH2 0x2872 JUMP JUMPDEST DUP3 PUSH1 0x1F LT PUSH2 0x2845 JUMPI DUP1 MLOAD PUSH1 0xFF NOT AND DUP4 DUP1 ADD OR DUP6 SSTORE PUSH2 0x2872 JUMP JUMPDEST DUP3 DUP1 ADD PUSH1 0x1 ADD DUP6 SSTORE DUP3 ISZERO PUSH2 0x2872 JUMPI SWAP2 DUP3 ADD JUMPDEST DUP3 DUP2 GT ISZERO PUSH2 0x2872 JUMPI DUP3 MLOAD DUP3 SSTORE SWAP2 PUSH1 0x20 ADD SWAP2 SWAP1 PUSH1 0x1 ADD SWAP1 PUSH2 0x2857 JUMP JUMPDEST POP PUSH2 0x287E SWAP3 SWAP2 POP PUSH2 0x28F6 JUMP JUMPDEST POP SWAP1 JUMP JUMPDEST DUP3 DUP1 SLOAD PUSH2 0x288E SWAP1 PUSH2 0x2F88 JUMP JUMPDEST SWAP1 PUSH1 0x0 MSTORE PUSH1 0x20 PUSH1 0x0 KECCAK256 SWAP1 PUSH1 0x1F ADD PUSH1 0x20 SWAP1 DIV DUP2 ADD SWAP3 DUP3 PUSH2 0x28B0 JUMPI PUSH1 0x0 DUP6 SSTORE PUSH2 0x2872 JUMP JUMPDEST DUP3 PUSH1 0x1F LT PUSH2 0x28C9 JUMPI DUP3 DUP1 ADD PUSH1 0xFF NOT DUP3 CALLDATALOAD AND OR DUP6 SSTORE PUSH2 0x2872 JUMP JUMPDEST DUP3 DUP1 ADD PUSH1 0x1 ADD DUP6 SSTORE DUP3 ISZERO PUSH2 0x2872 JUMPI SWAP2 DUP3 ADD JUMPDEST DUP3 DUP2 GT ISZERO PUSH2 0x2872 JUMPI DUP3 CALLDATALOAD DUP3 SSTORE SWAP2 PUSH1 0x20 ADD SWAP2 SWAP1 PUSH1 0x1 ADD SWAP1 PUSH2 0x28DB JUMP JUMPDEST JUMPDEST DUP1 DUP3 GT ISZERO PUSH2 0x287E JUMPI PUSH1 0x0 DUP2 SSTORE PUSH1 0x1 ADD PUSH2 0x28F7 JUMP JUMPDEST PUSH1 0x1 PUSH1 0x1 PUSH1 0xE0 SHL SUB NOT DUP2 AND DUP2 EQ PUSH2 0xF16 JUMPI PUSH1 0x0 DUP1 REVERT JUMPDEST PUSH1 0x0 PUSH1 0x20 DUP3 DUP5 SUB SLT ISZERO PUSH2 0x2933 JUMPI PUSH1 0x0 DUP1 REVERT JUMPDEST DUP2 CALLDATALOAD PUSH2 0x1552 DUP2 PUSH2 0x290B JUMP JUMPDEST PUSH1 0x0 JUMPDEST DUP4 DUP2 LT ISZERO PUSH2 0x2959 JUMPI DUP2 DUP2 ADD MLOAD DUP4 DUP3 ADD MSTORE PUSH1 0x20 ADD PUSH2 0x2941 JUMP JUMPDEST DUP4 DUP2 GT ISZERO PUSH2 0xDDE JUMPI POP POP PUSH1 0x0 SWAP2 ADD MSTORE JUMP JUMPDEST PUSH1 0x0 DUP2 MLOAD DUP1 DUP5 MSTORE PUSH2 0x2982 DUP2 PUSH1 0x20 DUP7 ADD PUSH1 0x20 DUP7 ADD PUSH2 0x293E JUMP JUMPDEST PUSH1 0x1F ADD PUSH1 0x1F NOT AND SWAP3 SWAP1 SWAP3 ADD PUSH1 0x20 ADD SWAP3 SWAP2 POP POP JUMP JUMPDEST PUSH1 0x20 DUP2 MSTORE PUSH1 0x0 PUSH2 0x1552 PUSH1 0x20 DUP4 ADD DUP5 PUSH2 0x296A JUMP JUMPDEST PUSH1 0x0 PUSH1 0x20 DUP3 DUP5 SUB SLT ISZERO PUSH2 0x29BB JUMPI PUSH1 0x0 DUP1 REVERT JUMPDEST POP CALLDATALOAD SWAP2 SWAP1 POP JUMP JUMPDEST DUP1 CALLDATALOAD PUSH1 0x1 PUSH1 0x1 PUSH1 0xA0 SHL SUB DUP2 AND DUP2 EQ PUSH2 0x29D9 JUMPI PUSH1 0x0 DUP1 REVERT JUMPDEST SWAP2 SWAP1 POP JUMP JUMPDEST PUSH1 0x0 DUP1 PUSH1 0x40 DUP4 DUP6 SUB SLT ISZERO PUSH2 0x29F1 JUMPI PUSH1 0x0 DUP1 REVERT JUMPDEST PUSH2 0x29FA DUP4 PUSH2 0x29C2 JUMP JUMPDEST SWAP5 PUSH1 0x20 SWAP4 SWAP1 SWAP4 ADD CALLDATALOAD SWAP4 POP POP POP JUMP JUMPDEST PUSH4 0x4E487B71 PUSH1 0xE0 SHL PUSH1 0x0 MSTORE PUSH1 0x41 PUSH1 0x4 MSTORE PUSH1 0x24 PUSH1 0x0 REVERT JUMPDEST PUSH1 0x40 MLOAD PUSH1 0x1F DUP3 ADD PUSH1 0x1F NOT AND DUP2 ADD PUSH1 0x1 PUSH1 0x1 PUSH1 0x40 SHL SUB DUP2 GT DUP3 DUP3 LT OR ISZERO PUSH2 0x2A46 JUMPI PUSH2 0x2A46 PUSH2 0x2A08 JUMP JUMPDEST PUSH1 0x40 MSTORE SWAP2 SWAP1 POP JUMP JUMPDEST PUSH1 0x0 PUSH1 0x1 PUSH1 0x1 PUSH1 0x40 SHL SUB DUP4 GT ISZERO PUSH2 0x2A67 JUMPI PUSH2 0x2A67 PUSH2 0x2A08 JUMP JUMPDEST PUSH2 0x2A7A PUSH1 0x1F DUP5 ADD PUSH1 0x1F NOT AND PUSH1 0x20 ADD PUSH2 0x2A1E JUMP JUMPDEST SWAP1 POP DUP3 DUP2 MSTORE DUP4 DUP4 DUP4 ADD GT ISZERO PUSH2 0x2A8E JUMPI PUSH1 0x0 DUP1 REVERT JUMPDEST DUP3 DUP3 PUSH1 0x20 DUP4 ADD CALLDATACOPY PUSH1 0x0 PUSH1 0x20 DUP5 DUP4 ADD ADD MSTORE SWAP4 SWAP3 POP POP POP JUMP JUMPDEST PUSH1 0x0 DUP3 PUSH1 0x1F DUP4 ADD SLT PUSH2 0x2AB6 JUMPI PUSH1 0x0 DUP1 REVERT JUMPDEST PUSH2 0x1552 DUP4 DUP4 CALLDATALOAD PUSH1 0x20 DUP6 ADD PUSH2 0x2A4E JUMP JUMPDEST PUSH1 0x0 PUSH1 0x1 PUSH1 0x1 PUSH1 0x40 SHL SUB DUP3 GT ISZERO PUSH2 0x2ADE JUMPI PUSH2 0x2ADE PUSH2 0x2A08 JUMP JUMPDEST POP PUSH1 0x5 SHL PUSH1 0x20 ADD SWAP1 JUMP JUMPDEST PUSH1 0x0 DUP3 PUSH1 0x1F DUP4 ADD SLT PUSH2 0x2AF9 JUMPI PUSH1 0x0 DUP1 REVERT JUMPDEST DUP2 CALLDATALOAD PUSH1 0x20 PUSH2 0x2B0E PUSH2 0x2B09 DUP4 PUSH2 0x2AC5 JUMP JUMPDEST PUSH2 0x2A1E JUMP JUMPDEST DUP3 DUP2 MSTORE PUSH1 0x5 SWAP3 SWAP1 SWAP3 SHL DUP5 ADD DUP2 ADD SWAP2 DUP2 DUP2 ADD SWAP1 DUP7 DUP5 GT ISZERO PUSH2 0x2B2D JUMPI PUSH1 0x0 DUP1 REVERT JUMPDEST DUP3 DUP7 ADD JUMPDEST DUP5 DUP2 LT ISZERO PUSH2 0x2B4F JUMPI PUSH2 0x2B42 DUP2 PUSH2 0x29C2 JUMP JUMPDEST DUP4 MSTORE SWAP2 DUP4 ADD SWAP2 DUP4 ADD PUSH2 0x2B31 JUMP JUMPDEST POP SWAP7 SWAP6 POP POP POP POP POP POP JUMP JUMPDEST PUSH1 0x0 DUP3 PUSH1 0x1F DUP4 ADD SLT PUSH2 0x2B6B JUMPI PUSH1 0x0 DUP1 REVERT JUMPDEST DUP2 CALLDATALOAD PUSH1 0x20 PUSH2 0x2B7B PUSH2 0x2B09 DUP4 PUSH2 0x2AC5 JUMP JUMPDEST DUP3 DUP2 MSTORE PUSH1 0x5 SWAP3 SWAP1 SWAP3 SHL DUP5 ADD DUP2 ADD SWAP2 DUP2 DUP2 ADD SWAP1 DUP7 DUP5 GT ISZERO PUSH2 0x2B9A JUMPI PUSH1 0x0 DUP1 REVERT JUMPDEST DUP3 DUP7 ADD JUMPDEST DUP5 DUP2 LT ISZERO PUSH2 0x2B4F JUMPI DUP1 CALLDATALOAD DUP4 MSTORE SWAP2 DUP4 ADD SWAP2 DUP4 ADD PUSH2 0x2B9E JUMP JUMPDEST DUP1 CALLDATALOAD PUSH1 0x1 PUSH1 0x1 PUSH1 0x40 SHL SUB DUP2 AND DUP2 EQ PUSH2 0x29D9 JUMPI PUSH1 0x0 DUP1 REVERT JUMPDEST PUSH1 0x0 DUP1 PUSH1 0x0 DUP1 PUSH1 0x0 DUP1 PUSH1 0x0 DUP1 PUSH1 0x0 DUP1 PUSH1 0x0 PUSH2 0x160 DUP13 DUP15 SUB SLT ISZERO PUSH2 0x2BEE JUMPI PUSH1 0x0 DUP1 REVERT JUMPDEST PUSH1 0x1 PUSH1 0x1 PUSH1 0x40 SHL SUB DUP1 DUP14 CALLDATALOAD GT ISZERO PUSH2 0x2C04 JUMPI PUSH1 0x0 DUP1 REVERT JUMPDEST PUSH2 0x2C11 DUP15 DUP15 CALLDATALOAD DUP16 ADD PUSH2 0x2AA5 JUMP JUMPDEST SWAP12 POP DUP1 PUSH1 0x20 DUP15 ADD CALLDATALOAD GT ISZERO PUSH2 0x2C24 JUMPI PUSH1 0x0 DUP1 REVERT JUMPDEST PUSH2 0x2C34 DUP15 PUSH1 0x20 DUP16 ADD CALLDATALOAD DUP16 ADD PUSH2 0x2AA5 JUMP JUMPDEST SWAP11 POP DUP1 PUSH1 0x40 DUP15 ADD CALLDATALOAD GT ISZERO PUSH2 0x2C47 JUMPI PUSH1 0x0 DUP1 REVERT JUMPDEST PUSH2 0x2C57 DUP15 PUSH1 0x40 DUP16 ADD CALLDATALOAD DUP16 ADD PUSH2 0x2AA5 JUMP JUMPDEST SWAP10 POP PUSH1 0x60 DUP14 ADD CALLDATALOAD SWAP9 POP PUSH1 0x80 DUP14 ADD CALLDATALOAD SWAP8 POP DUP1 PUSH1 0xA0 DUP15 ADD CALLDATALOAD GT ISZERO PUSH2 0x2C78 JUMPI PUSH1 0x0 DUP1 REVERT JUMPDEST PUSH2 0x2C88 DUP15 PUSH1 0xA0 DUP16 ADD CALLDATALOAD DUP16 ADD PUSH2 0x2AE8 JUMP JUMPDEST SWAP7 POP DUP1 PUSH1 0xC0 DUP15 ADD CALLDATALOAD GT ISZERO PUSH2 0x2C9B JUMPI PUSH1 0x0 DUP1 REVERT JUMPDEST POP PUSH2 0x2CAC DUP14 PUSH1 0xC0 DUP15 ADD CALLDATALOAD DUP15 ADD PUSH2 0x2B5A JUMP JUMPDEST SWAP5 POP PUSH1 0xE0 DUP13 ADD CALLDATALOAD SWAP4 POP PUSH2 0x100 DUP13 ADD CALLDATALOAD SWAP3 POP PUSH2 0x2CCA PUSH2 0x120 DUP14 ADD PUSH2 0x2BB5 JUMP JUMPDEST SWAP2 POP PUSH2 0x2CD9 PUSH2 0x140 DUP14 ADD PUSH2 0x29C2 JUMP JUMPDEST SWAP1 POP SWAP3 SWAP6 SWAP9 SWAP12 POP SWAP3 SWAP6 SWAP9 SWAP12 SWAP1 SWAP4 SWAP7 SWAP10 POP JUMP JUMPDEST PUSH1 0x0 DUP1 PUSH1 0x0 PUSH1 0x40 DUP5 DUP7 SUB SLT ISZERO PUSH2 0x2D00 JUMPI PUSH1 0x0 DUP1 REVERT JUMPDEST DUP4 CALLDATALOAD PUSH1 0x1 PUSH1 0x1 PUSH1 0x40 SHL SUB DUP1 DUP3 GT ISZERO PUSH2 0x2D17 JUMPI PUSH1 0x0 DUP1 REVERT JUMPDEST DUP2 DUP7 ADD SWAP2 POP DUP7 PUSH1 0x1F DUP4 ADD SLT PUSH2 0x2D2B JUMPI PUSH1 0x0 DUP1 REVERT JUMPDEST DUP2 CALLDATALOAD DUP2 DUP2 GT ISZERO PUSH2 0x2D3A JUMPI PUSH1 0x0 DUP1 REVERT JUMPDEST DUP8 PUSH1 0x20 DUP3 PUSH1 0x5 SHL DUP6 ADD ADD GT ISZERO PUSH2 0x2D4F JUMPI PUSH1 0x0 DUP1 REVERT JUMPDEST PUSH1 0x20 SWAP3 DUP4 ADD SWAP6 POP SWAP4 POP PUSH2 0x2D65 SWAP2 DUP7 ADD SWAP1 POP PUSH2 0x2BB5 JUMP JUMPDEST SWAP1 POP SWAP3 POP SWAP3 POP SWAP3 JUMP JUMPDEST PUSH1 0x0 DUP1 PUSH1 0x0 PUSH1 0x60 DUP5 DUP7 SUB SLT ISZERO PUSH2 0x2D83 JUMPI PUSH1 0x0 DUP1 REVERT JUMPDEST PUSH2 0x2D8C DUP5 PUSH2 0x29C2 JUMP JUMPDEST SWAP3 POP PUSH2 0x2D9A PUSH1 0x20 DUP6 ADD PUSH2 0x29C2 JUMP JUMPDEST SWAP2 POP PUSH1 0x40 DUP5 ADD CALLDATALOAD SWAP1 POP SWAP3 POP SWAP3 POP SWAP3 JUMP JUMPDEST PUSH1 0x0 DUP1 PUSH1 0x40 DUP4 DUP6 SUB SLT ISZERO PUSH2 0x2DBD JUMPI PUSH1 0x0 DUP1 REVERT JUMPDEST POP POP DUP1 CALLDATALOAD SWAP3 PUSH1 0x20 SWAP1 SWAP2 ADD CALLDATALOAD SWAP2 POP JUMP JUMPDEST PUSH1 0x0 PUSH1 0x20 DUP3 DUP5 SUB SLT ISZERO PUSH2 0x2DDE JUMPI PUSH1 0x0 DUP1 REVERT JUMPDEST DUP2 CALLDATALOAD PUSH1 0x1 PUSH1 0x1 PUSH1 0x40 SHL SUB DUP2 GT ISZERO PUSH2 0x2DF4 JUMPI PUSH1 0x0 DUP1 REVERT JUMPDEST PUSH2 0x20C0 DUP5 DUP3 DUP6 ADD PUSH2 0x2AA5 JUMP JUMPDEST PUSH1 0x0 PUSH1 0x20 DUP3 DUP5 SUB SLT ISZERO PUSH2 0x2E12 JUMPI PUSH1 0x0 DUP1 REVERT JUMPDEST PUSH2 0x1552 DUP3 PUSH2 0x29C2 JUMP JUMPDEST PUSH1 0x0 DUP1 PUSH1 0x20 DUP4 DUP6 SUB SLT ISZERO PUSH2 0x2E2E JUMPI PUSH1 0x0 DUP1 REVERT JUMPDEST DUP3 CALLDATALOAD PUSH1 0x1 PUSH1 0x1 PUSH1 0x40 SHL SUB DUP1 DUP3 GT ISZERO PUSH2 0x2E45 JUMPI PUSH1 0x0 DUP1 REVERT JUMPDEST DUP2 DUP6 ADD SWAP2 POP DUP6 PUSH1 0x1F DUP4 ADD SLT PUSH2 0x2E59 JUMPI PUSH1 0x0 DUP1 REVERT JUMPDEST DUP2 CALLDATALOAD DUP2 DUP2 GT ISZERO PUSH2 0x2E68 JUMPI PUSH1 0x0 DUP1 REVERT JUMPDEST DUP7 PUSH1 0x20 DUP3 DUP6 ADD ADD GT ISZERO PUSH2 0x2E7A JUMPI PUSH1 0x0 DUP1 REVERT JUMPDEST PUSH1 0x20 SWAP3 SWAP1 SWAP3 ADD SWAP7 SWAP2 SWAP6 POP SWAP1 SWAP4 POP POP POP POP JUMP JUMPDEST PUSH1 0x0 PUSH1 0x20 DUP3 DUP5 SUB SLT ISZERO PUSH2 0x2E9E JUMPI PUSH1 0x0 DUP1 REVERT JUMPDEST PUSH2 0x1552 DUP3 PUSH2 0x2BB5 JUMP JUMPDEST PUSH1 0x0 DUP1 PUSH1 0x40 DUP4 DUP6 SUB SLT ISZERO PUSH2 0x2EBA JUMPI PUSH1 0x0 DUP1 REVERT JUMPDEST PUSH2 0x2EC3 DUP4 PUSH2 0x29C2 JUMP JUMPDEST SWAP2 POP PUSH1 0x20 DUP4 ADD CALLDATALOAD DUP1 ISZERO ISZERO DUP2 EQ PUSH2 0x2ED8 JUMPI PUSH1 0x0 DUP1 REVERT JUMPDEST DUP1 SWAP2 POP POP SWAP3 POP SWAP3 SWAP1 POP JUMP JUMPDEST PUSH1 0x0 DUP1 PUSH1 0x0 DUP1 PUSH1 0x80 DUP6 DUP8 SUB SLT ISZERO PUSH2 0x2EF9 JUMPI PUSH1 0x0 DUP1 REVERT JUMPDEST PUSH2 0x2F02 DUP6 PUSH2 0x29C2 JUMP JUMPDEST SWAP4 POP PUSH2 0x2F10 PUSH1 0x20 DUP7 ADD PUSH2 0x29C2 JUMP JUMPDEST SWAP3 POP PUSH1 0x40 DUP6 ADD CALLDATALOAD SWAP2 POP PUSH1 0x60 DUP6 ADD CALLDATALOAD PUSH1 0x1 PUSH1 0x1 PUSH1 0x40 SHL SUB DUP2 GT ISZERO PUSH2 0x2F32 JUMPI PUSH1 0x0 DUP1 REVERT JUMPDEST DUP6 ADD PUSH1 0x1F DUP2 ADD DUP8 SGT PUSH2 0x2F43 JUMPI PUSH1 0x0 DUP1 REVERT JUMPDEST PUSH2 0x2F52 DUP8 DUP3 CALLDATALOAD PUSH1 0x20 DUP5 ADD PUSH2 0x2A4E JUMP JUMPDEST SWAP2 POP POP SWAP3 SWAP6 SWAP2 SWAP5 POP SWAP3 POP JUMP JUMPDEST PUSH1 0x0 DUP1 PUSH1 0x40 DUP4 DUP6 SUB SLT ISZERO PUSH2 0x2F71 JUMPI PUSH1 0x0 DUP1 REVERT JUMPDEST PUSH2 0x2F7A DUP4 PUSH2 0x29C2 JUMP JUMPDEST SWAP2 POP PUSH2 0xE1C PUSH1 0x20 DUP5 ADD PUSH2 0x29C2 JUMP JUMPDEST PUSH1 0x1 DUP2 DUP2 SHR SWAP1 DUP3 AND DUP1 PUSH2 0x2F9C JUMPI PUSH1 0x7F DUP3 AND SWAP2 POP JUMPDEST PUSH1 0x20 DUP3 LT DUP2 SUB PUSH2 0x2FBC JUMPI PUSH4 0x4E487B71 PUSH1 0xE0 SHL PUSH1 0x0 MSTORE PUSH1 0x22 PUSH1 0x4 MSTORE PUSH1 0x24 PUSH1 0x0 REVERT JUMPDEST POP SWAP2 SWAP1 POP JUMP JUMPDEST PUSH4 0x4E487B71 PUSH1 0xE0 SHL PUSH1 0x0 MSTORE PUSH1 0x11 PUSH1 0x4 MSTORE PUSH1 0x24 PUSH1 0x0 REVERT JUMPDEST PUSH1 0x0 DUP2 PUSH1 0x0 NOT DIV DUP4 GT DUP3 ISZERO ISZERO AND ISZERO PUSH2 0x2FF2 JUMPI PUSH2 0x2FF2 PUSH2 0x2FC2 JUMP JUMPDEST POP MUL SWAP1 JUMP JUMPDEST PUSH1 0x0 DUP3 NOT DUP3 GT ISZERO PUSH2 0x300A JUMPI PUSH2 0x300A PUSH2 0x2FC2 JUMP JUMPDEST POP ADD SWAP1 JUMP JUMPDEST PUSH1 0x0 PUSH1 0x1 PUSH1 0x1 PUSH1 0x40 SHL SUB DUP1 DUP4 AND DUP2 DUP6 AND DUP1 DUP4 SUB DUP3 GT ISZERO PUSH2 0x3031 JUMPI PUSH2 0x3031 PUSH2 0x2FC2 JUMP JUMPDEST ADD SWAP5 SWAP4 POP POP POP POP JUMP JUMPDEST PUSH4 0x4E487B71 PUSH1 0xE0 SHL PUSH1 0x0 MSTORE PUSH1 0x12 PUSH1 0x4 MSTORE PUSH1 0x24 PUSH1 0x0 REVERT JUMPDEST PUSH1 0x0 DUP3 PUSH2 0x305F JUMPI PUSH2 0x305F PUSH2 0x303A JUMP JUMPDEST POP DIV SWAP1 JUMP JUMPDEST PUSH1 0x20 DUP1 DUP3 MSTORE DUP2 DUP2 ADD MSTORE PUSH32 0x4F776E61626C653A2063616C6C6572206973206E6F7420746865206F776E6572 PUSH1 0x40 DUP3 ADD MSTORE PUSH1 0x60 ADD SWAP1 JUMP JUMPDEST PUSH4 0x4E487B71 PUSH1 0xE0 SHL PUSH1 0x0 MSTORE PUSH1 0x32 PUSH1 0x4 MSTORE PUSH1 0x24 PUSH1 0x0 REVERT JUMPDEST PUSH1 0x0 DUP4 MLOAD PUSH2 0x30C1 DUP2 DUP5 PUSH1 0x20 DUP9 ADD PUSH2 0x293E JUMP JUMPDEST PUSH1 0x2F PUSH1 0xF8 SHL SWAP1 DUP4 ADD SWAP1 DUP2 MSTORE DUP4 MLOAD PUSH2 0x30DF DUP2 PUSH1 0x1 DUP5 ADD PUSH1 0x20 DUP9 ADD PUSH2 0x293E JUMP JUMPDEST PUSH5 0x173539B7B7 PUSH1 0xD9 SHL PUSH1 0x1 SWAP3 SWAP1 SWAP2 ADD SWAP2 DUP3 ADD MSTORE PUSH1 0x6 ADD SWAP5 SWAP4 POP POP POP POP JUMP JUMPDEST PUSH1 0x20 DUP1 DUP3 MSTORE PUSH1 0x2B SWAP1 DUP3 ADD MSTORE PUSH32 0x496E697469616C697A61626C653A20636F6E7472616374206973206E6F742069 PUSH1 0x40 DUP3 ADD MSTORE PUSH11 0x6E697469616C697A696E67 PUSH1 0xA8 SHL PUSH1 0x60 DUP3 ADD MSTORE PUSH1 0x80 ADD SWAP1 JUMP JUMPDEST PUSH1 0x0 PUSH1 0x1 DUP3 ADD PUSH2 0x315A JUMPI PUSH2 0x315A PUSH2 0x2FC2 JUMP JUMPDEST POP PUSH1 0x1 ADD SWAP1 JUMP JUMPDEST PUSH1 0x0 DUP3 DUP3 LT ISZERO PUSH2 0x3173 JUMPI PUSH2 0x3173 PUSH2 0x2FC2 JUMP JUMPDEST POP SUB SWAP1 JUMP JUMPDEST PUSH1 0x1 PUSH1 0x1 PUSH1 0xA0 SHL SUB DUP6 DUP2 AND DUP3 MSTORE DUP5 AND PUSH1 0x20 DUP3 ADD MSTORE PUSH1 0x40 DUP2 ADD DUP4 SWAP1 MSTORE PUSH1 0x80 PUSH1 0x60 DUP3 ADD DUP2 SWAP1 MSTORE PUSH1 0x0 SWAP1 PUSH2 0x31AB SWAP1 DUP4 ADD DUP5 PUSH2 0x296A JUMP JUMPDEST SWAP7 SWAP6 POP POP POP POP POP POP JUMP JUMPDEST PUSH1 0x0 PUSH1 0x20 DUP3 DUP5 SUB SLT ISZERO PUSH2 0x31C7 JUMPI PUSH1 0x0 DUP1 REVERT JUMPDEST DUP2 MLOAD PUSH2 0x1552 DUP2 PUSH2 0x290B JUMP JUMPDEST PUSH1 0x0 DUP3 PUSH2 0x31E1 JUMPI PUSH2 0x31E1 PUSH2 0x303A JUMP JUMPDEST POP MOD SWAP1 JUMP INVALID LOG2 PUSH5 0x6970667358 0x22 SLT KECCAK256 0x4D KECCAK256 0xDE 0xD2 0xB3 CALLVALUE ORIGIN PUSH6 0xE85152987805 BALANCE 0xD2 LOG0 0xE1 SWAP14 0xB3 0xFB PUSH32 0xD958332C4436C6652AC964736F6C634300080D00330000000000000000000000 "},"gasEstimates":{"creation":{"codeDepositCost":"2565600","executionCost":"2771","totalCost":"2568371"},"external":{"":"1610","approve(address,uint256)":"infinite","balanceOf(address)":"2696","collectionSize()":"2404","disableMinting()":"30194","disableWhitelist()":"30205","enableMinting()":"30147","enableWhitelist()":"30170","getApproved(uint256)":"6993","getBalance()":"229","initialize(string,string,string,uint256,uint256,address[],uint256[],bytes32,uint256,uint64,address)":"infinite","isApprovedForAll(address,address)":"infinite","mintStatus()":"2377","mintingFee()":"2337","name()":"infinite","owner()":"2399","ownerOf(uint256)":"infinite","payee(uint256)":"4665","publicMaxMints()":"2382","publicMint(uint256)":"infinite","release()":"infinite","released(address)":"2582","renounceOwnership()":"28228","royaltyInfo(uint256,uint256)":"4895","safeTransferFrom(address,address,uint256)":"infinite","safeTransferFrom(address,address,uint256,bytes)":"infinite","setApprovalForAll(address,bool)":"26736","setBaseURI(string)":"infinite","setMaxPublicMints(uint256)":"30180","setMaxWhitelistMints(uint64)":"28185","setMintPrice(uint256)":"28058","setMintSize(uint256)":"32305","setRoyaltyInfo(address,uint256)":"50349","setWhitelistMerkleRoot(bytes32)":"27971","shares(address)":"2648","supportsInterface(bytes4)":"infinite","symbol()":"infinite","tokenURI(uint256)":"infinite","totalReleased()":"2336","totalShares()":"2338","totalSupply()":"4478","transferFrom(address,address,uint256)":"infinite","transferOwnership(address)":"28422","updatePlaceholder(string)":"infinite","whitelistMaxMints()":"2464","whitelistMint(bytes32[],uint64)":"infinite","whitelistStatus()":"2399"},"internal":{"_baseURI()":"infinite","_startTokenId()":"infinite","addPayee(address,uint256)":"infinite","lockPayees()":"infinite","setupPaymentSplit(address,address[] memory,uint256[] memory)":"infinite"}},"methodIdentifiers":{"approve(address,uint256)":"095ea7b3","balanceOf(address)":"70a08231","collectionSize()":"45c0f533","disableMinting()":"7e5cd5c1","disableWhitelist()":"d6b0f484","enableMinting()":"e797ec1b","enableWhitelist()":"cdfb2b4e","getApproved(uint256)":"081812fc","getBalance()":"12065fe0","initialize(string,string,string,uint256,uint256,address[],uint256[],bytes32,uint256,uint64,address)":"11e4a21a","isApprovedForAll(address,address)":"e985e9c5","mintStatus()":"9da3f8fd","mintingFee()":"5a64ad95","name()":"06fdde03","owner()":"8da5cb5b","ownerOf(uint256)":"6352211e","payee(uint256)":"8b83209b","publicMaxMints()":"45947076","publicMint(uint256)":"2db11544","release()":"86d1a69f","released(address)":"9852595c","renounceOwnership()":"715018a6","royaltyInfo(uint256,uint256)":"2a55205a","safeTransferFrom(address,address,uint256)":"42842e0e","safeTransferFrom(address,address,uint256,bytes)":"b88d4fde","setApprovalForAll(address,bool)":"a22cb465","setBaseURI(string)":"55f804b3","setMaxPublicMints(uint256)":"a93fef3b","setMaxWhitelistMints(uint64)":"9342e6e4","setMintPrice(uint256)":"f4a0a528","setMintSize(uint256)":"4a886ad2","setRoyaltyInfo(address,uint256)":"e2e784d5","setWhitelistMerkleRoot(bytes32)":"bd32fb66","shares(address)":"ce7c2ac2","supportsInterface(bytes4)":"01ffc9a7","symbol()":"95d89b41","tokenURI(uint256)":"c87b56dd","totalReleased()":"e33b7de3","totalShares()":"3a98ef39","totalSupply()":"18160ddd","transferFrom(address,address,uint256)":"23b872dd","transferOwnership(address)":"f2fde38b","updatePlaceholder(string)":"8f5d737c","whitelistMaxMints()":"fbee8121","whitelistMint(bytes32[],uint64)":"1b004d25","whitelistStatus()":"9ddf7ad3"}},"storageLayout":{"storage":[{"astId":149,"contract":"Base/Token/CandyCreator721AUpgradeable.sol:CandyCreator721AUpgradeable","label":"_initialized","offset":0,"slot":"0","type":"t_bool"},{"astId":152,"contract":"Base/Token/CandyCreator721AUpgradeable.sol:CandyCreator721AUpgradeable","label":"_initializing","offset":1,"slot":"0","type":"t_bool"},{"astId":679,"contract":"Base/Token/CandyCreator721AUpgradeable.sol:CandyCreator721AUpgradeable","label":"__gap","offset":0,"slot":"1","type":"t_array(t_uint256)50_storage"},{"astId":10,"contract":"Base/Token/CandyCreator721AUpgradeable.sol:CandyCreator721AUpgradeable","label":"_owner","offset":0,"slot":"51","type":"t_address"},{"astId":122,"contract":"Base/Token/CandyCreator721AUpgradeable.sol:CandyCreator721AUpgradeable","label":"__gap","offset":0,"slot":"52","type":"t_array(t_uint256)49_storage"},{"astId":1093,"contract":"Base/Token/CandyCreator721AUpgradeable.sol:CandyCreator721AUpgradeable","label":"__gap","offset":0,"slot":"101","type":"t_array(t_uint256)50_storage"},{"astId":2481,"contract":"Base/Token/CandyCreator721AUpgradeable.sol:CandyCreator721AUpgradeable","label":"_currentIndex","offset":0,"slot":"151","type":"t_uint256"},{"astId":2483,"contract":"Base/Token/CandyCreator721AUpgradeable.sol:CandyCreator721AUpgradeable","label":"_burnCounter","offset":0,"slot":"152","type":"t_uint256"},{"astId":2485,"contract":"Base/Token/CandyCreator721AUpgradeable.sol:CandyCreator721AUpgradeable","label":"_name","offset":0,"slot":"153","type":"t_string_storage"},{"astId":2487,"contract":"Base/Token/CandyCreator721AUpgradeable.sol:CandyCreator721AUpgradeable","label":"_symbol","offset":0,"slot":"154","type":"t_string_storage"},{"astId":2492,"contract":"Base/Token/CandyCreator721AUpgradeable.sol:CandyCreator721AUpgradeable","label":"_ownerships","offset":0,"slot":"155","type":"t_mapping(t_uint256,t_struct(TokenOwnership)3895_storage)"},{"astId":2497,"contract":"Base/Token/CandyCreator721AUpgradeable.sol:CandyCreator721AUpgradeable","label":"_addressData","offset":0,"slot":"156","type":"t_mapping(t_address,t_struct(AddressData)3904_storage)"},{"astId":2501,"contract":"Base/Token/CandyCreator721AUpgradeable.sol:CandyCreator721AUpgradeable","label":"_tokenApprovals","offset":0,"slot":"157","type":"t_mapping(t_uint256,t_address)"},{"astId":2507,"contract":"Base/Token/CandyCreator721AUpgradeable.sol:CandyCreator721AUpgradeable","label":"_operatorApprovals","offset":0,"slot":"158","type":"t_mapping(t_address,t_mapping(t_address,t_bool))"},{"astId":3852,"contract":"Base/Token/CandyCreator721AUpgradeable.sol:CandyCreator721AUpgradeable","label":"__gap","offset":0,"slot":"159","type":"t_array(t_uint256)42_storage"},{"astId":1212,"contract":"Base/Token/CandyCreator721AUpgradeable.sol:CandyCreator721AUpgradeable","label":"_numPayees","offset":0,"slot":"201","type":"t_struct(Counter)686_storage"},{"astId":1238,"contract":"Base/Token/CandyCreator721AUpgradeable.sol:CandyCreator721AUpgradeable","label":"_totalShares","offset":0,"slot":"202","type":"t_uint256"},{"astId":1240,"contract":"Base/Token/CandyCreator721AUpgradeable.sol:CandyCreator721AUpgradeable","label":"_totalReleased","offset":0,"slot":"203","type":"t_uint256"},{"astId":1244,"contract":"Base/Token/CandyCreator721AUpgradeable.sol:CandyCreator721AUpgradeable","label":"_shares","offset":0,"slot":"204","type":"t_mapping(t_address,t_uint256)"},{"astId":1248,"contract":"Base/Token/CandyCreator721AUpgradeable.sol:CandyCreator721AUpgradeable","label":"_released","offset":0,"slot":"205","type":"t_mapping(t_address,t_uint256)"},{"astId":1251,"contract":"Base/Token/CandyCreator721AUpgradeable.sol:CandyCreator721AUpgradeable","label":"_payees","offset":0,"slot":"206","type":"t_array(t_address)dyn_storage"},{"astId":1491,"contract":"Base/Token/CandyCreator721AUpgradeable.sol:CandyCreator721AUpgradeable","label":"__gap","offset":0,"slot":"207","type":"t_array(t_uint256)43_storage"},{"astId":1502,"contract":"Base/Token/CandyCreator721AUpgradeable.sol:CandyCreator721AUpgradeable","label":"royaltyAddress","offset":0,"slot":"250","type":"t_address"},{"astId":1504,"contract":"Base/Token/CandyCreator721AUpgradeable.sol:CandyCreator721AUpgradeable","label":"royaltyBasisPoints","offset":0,"slot":"251","type":"t_uint256"},{"astId":1593,"contract":"Base/Token/CandyCreator721AUpgradeable.sol:CandyCreator721AUpgradeable","label":"base","offset":0,"slot":"252","type":"t_string_storage"},{"astId":1595,"contract":"Base/Token/CandyCreator721AUpgradeable.sol:CandyCreator721AUpgradeable","label":"placeholderURI","offset":0,"slot":"253","type":"t_string_storage"},{"astId":1597,"contract":"Base/Token/CandyCreator721AUpgradeable.sol:CandyCreator721AUpgradeable","label":"whitelistMerkleRoot","offset":0,"slot":"254","type":"t_bytes32"},{"astId":1599,"contract":"Base/Token/CandyCreator721AUpgradeable.sol:CandyCreator721AUpgradeable","label":"maxPublicMints","offset":0,"slot":"255","type":"t_uint256"},{"astId":1601,"contract":"Base/Token/CandyCreator721AUpgradeable.sol:CandyCreator721AUpgradeable","label":"mintPrice","offset":0,"slot":"256","type":"t_uint256"},{"astId":1603,"contract":"Base/Token/CandyCreator721AUpgradeable.sol:CandyCreator721AUpgradeable","label":"mintSize","offset":0,"slot":"257","type":"t_uint256"},{"astId":1605,"contract":"Base/Token/CandyCreator721AUpgradeable.sol:CandyCreator721AUpgradeable","label":"maxWhitelistMints","offset":0,"slot":"258","type":"t_uint64"},{"astId":1607,"contract":"Base/Token/CandyCreator721AUpgradeable.sol:CandyCreator721AUpgradeable","label":"whitelistActive","offset":8,"slot":"258","type":"t_bool"},{"astId":1609,"contract":"Base/Token/CandyCreator721AUpgradeable.sol:CandyCreator721AUpgradeable","label":"mintingActive","offset":9,"slot":"258","type":"t_bool"},{"astId":1611,"contract":"Base/Token/CandyCreator721AUpgradeable.sol:CandyCreator721AUpgradeable","label":"lockedPayees","offset":10,"slot":"258","type":"t_bool"}],"types":{"t_address":{"encoding":"inplace","label":"address","numberOfBytes":"20"},"t_array(t_address)dyn_storage":{"base":"t_address","encoding":"dynamic_array","label":"address[]","numberOfBytes":"32"},"t_array(t_uint256)42_storage":{"base":"t_uint256","encoding":"inplace","label":"uint256[42]","numberOfBytes":"1344"},"t_array(t_uint256)43_storage":{"base":"t_uint256","encoding":"inplace","label":"uint256[43]","numberOfBytes":"1376"},"t_array(t_uint256)49_storage":{"base":"t_uint256","encoding":"inplace","label":"uint256[49]","numberOfBytes":"1568"},"t_array(t_uint256)50_storage":{"base":"t_uint256","encoding":"inplace","label":"uint256[50]","numberOfBytes":"1600"},"t_bool":{"encoding":"inplace","label":"bool","numberOfBytes":"1"},"t_bytes32":{"encoding":"inplace","label":"bytes32","numberOfBytes":"32"},"t_mapping(t_address,t_bool)":{"encoding":"mapping","key":"t_address","label":"mapping(address => bool)","numberOfBytes":"32","value":"t_bool"},"t_mapping(t_address,t_mapping(t_address,t_bool))":{"encoding":"mapping","key":"t_address","label":"mapping(address => mapping(address => bool))","numberOfBytes":"32","value":"t_mapping(t_address,t_bool)"},"t_mapping(t_address,t_struct(AddressData)3904_storage)":{"encoding":"mapping","key":"t_address","label":"mapping(address => struct IERC721AUpgradeable.AddressData)","numberOfBytes":"32","value":"t_struct(AddressData)3904_storage"},"t_mapping(t_address,t_uint256)":{"encoding":"mapping","key":"t_address","label":"mapping(address => uint256)","numberOfBytes":"32","value":"t_uint256"},"t_mapping(t_uint256,t_address)":{"encoding":"mapping","key":"t_uint256","label":"mapping(uint256 => address)","numberOfBytes":"32","value":"t_address"},"t_mapping(t_uint256,t_struct(TokenOwnership)3895_storage)":{"encoding":"mapping","key":"t_uint256","label":"mapping(uint256 => struct IERC721AUpgradeable.TokenOwnership)","numberOfBytes":"32","value":"t_struct(TokenOwnership)3895_storage"},"t_string_storage":{"encoding":"bytes","label":"string","numberOfBytes":"32"},"t_struct(AddressData)3904_storage":{"encoding":"inplace","label":"struct IERC721AUpgradeable.AddressData","members":[{"astId":3897,"contract":"Base/Token/CandyCreator721AUpgradeable.sol:CandyCreator721AUpgradeable","label":"balance","offset":0,"slot":"0","type":"t_uint64"},{"astId":3899,"contract":"Base/Token/CandyCreator721AUpgradeable.sol:CandyCreator721AUpgradeable","label":"numberMinted","offset":8,"slot":"0","type":"t_uint64"},{"astId":3901,"contract":"Base/Token/CandyCreator721AUpgradeable.sol:CandyCreator721AUpgradeable","label":"numberBurned","offset":16,"slot":"0","type":"t_uint64"},{"astId":3903,"contract":"Base/Token/CandyCreator721AUpgradeable.sol:CandyCreator721AUpgradeable","label":"aux","offset":24,"slot":"0","type":"t_uint64"}],"numberOfBytes":"32"},"t_struct(Counter)686_storage":{"encoding":"inplace","label":"struct CountersUpgradeable.Counter","members":[{"astId":685,"contract":"Base/Token/CandyCreator721AUpgradeable.sol:CandyCreator721AUpgradeable","label":"_value","offset":0,"slot":"0","type":"t_uint256"}],"numberOfBytes":"32"},"t_struct(TokenOwnership)3895_storage":{"encoding":"inplace","label":"struct IERC721AUpgradeable.TokenOwnership","members":[{"astId":3890,"contract":"Base/Token/CandyCreator721AUpgradeable.sol:CandyCreator721AUpgradeable","label":"addr","offset":0,"slot":"0","type":"t_address"},{"astId":3892,"contract":"Base/Token/CandyCreator721AUpgradeable.sol:CandyCreator721AUpgradeable","label":"startTimestamp","offset":20,"slot":"0","type":"t_uint64"},{"astId":3894,"contract":"Base/Token/CandyCreator721AUpgradeable.sol:CandyCreator721AUpgradeable","label":"burned","offset":28,"slot":"0","type":"t_bool"}],"numberOfBytes":"32"},"t_uint256":{"encoding":"inplace","label":"uint256","numberOfBytes":"32"},"t_uint64":{"encoding":"inplace","label":"uint64","numberOfBytes":"8"}}},"userdoc":{"kind":"user","methods":{"collectionSize()":{"notice":"The size of the collection."},"disableMinting()":{"notice":"Disables minting. "},"disableWhitelist()":{"notice":"Removes the whitelist requirement for minting. "},"enableMinting()":{"notice":"Enables minting. "},"enableWhitelist()":{"notice":"Requires whitelist membership for minting. "},"getBalance()":{"notice":"The current contract balance. "},"mintStatus()":{"notice":"True/False value indicating whether minting is enabled."},"mintingFee()":{"notice":"The fee to mint each token in this collection. "},"publicMaxMints()":{"notice":"The maximum tokens that are allowed to be minted during  a single publicMint transaction."},"publicMint(uint256)":{"notice":"Mint function for use with public minting sales. Mint Fees in native token,  requires amount * mintPrice to be sent by caller."},"release()":{"notice":"Releases funds from the contract to the addresses owed payment.  Only the owner can call this function."},"setBaseURI(string)":{"notice":"Updates the base URI for the token metadata  it does not emit an event so that it can be set invisibly to purchasers  and avoid token sniping."},"setMaxPublicMints(uint256)":{"notice":"Sets the maximum number of tokens a single address can mint AT A TIME  during the public mint period. Keep in mind that regardless of the number set, during public  minting any user will still be able to call the publicMint function an unlimited number of times"},"setMaxWhitelistMints(uint64)":{"notice":"Sets the maximum number of tokens a whitelisted user can mint."},"setMintPrice(uint256)":{"notice":"this will set the fees required to mint using  publicMint(), must enter in wei. So 1 ETH = 10**18."},"setMintSize(uint256)":{"notice":"Sets the mint size. Cannot be smaller than the totalSupply()."},"setRoyaltyInfo(address,uint256)":{"notice":"Sets single address EIP-2981 royalty information for this collection."},"setWhitelistMerkleRoot(bytes32)":{"notice":"Sets a new Merkle root used to verify whitelist membership  in combination with a proof submitted to the whitelistMint function."},"supportsInterface(bytes4)":{"notice":"Required override for supportsInterface(bytes4)."},"tokenURI(uint256)":{"notice":"Returns the metadata URI for a given token."},"updatePlaceholder(string)":{"notice":"Updates the placeholderURI."},"whitelistMaxMints()":{"notice":"The maximum tokens that are allowed to be minted   by a whitelisted address."},"whitelistMint(bytes32[],uint64)":{"notice":"Mint function for use with whitelist minting sales. Mint fees in native token,  requires amount * mintPrice to be sent by caller."},"whitelistStatus()":{"notice":"True/False value indicating that the whitelist is currenly required for minting."}},"version":1}}